{
  "_format": "hh-sol-artifact-1",
  "contractName": "SupraOracleDecoder",
  "sourceName": "contracts/0xVault/libs/SupraOracleDecoder.sol",
  "abi": [
    {
      "inputs": [
        {
          "internalType": "bytes",
          "name": "_bytesProof",
          "type": "bytes"
        }
      ],
      "name": "decodeOracleProof",
      "outputs": [
        {
          "components": [
            {
              "components": [
                {
                  "internalType": "uint64",
                  "name": "committee_id",
                  "type": "uint64"
                },
                {
                  "internalType": "bytes32",
                  "name": "root",
                  "type": "bytes32"
                },
                {
                  "internalType": "uint256[2]",
                  "name": "sigs",
                  "type": "uint256[2]"
                },
                {
                  "components": [
                    {
                      "components": [
                        {
                          "internalType": "uint32",
                          "name": "pair",
                          "type": "uint32"
                        },
                        {
                          "internalType": "uint128",
                          "name": "price",
                          "type": "uint128"
                        },
                        {
                          "internalType": "uint64",
                          "name": "timestamp",
                          "type": "uint64"
                        },
                        {
                          "internalType": "uint16",
                          "name": "decimals",
                          "type": "uint16"
                        },
                        {
                          "internalType": "uint64",
                          "name": "round",
                          "type": "uint64"
                        }
                      ],
                      "internalType": "struct SupraOracleDecoder.CommitteeFeed[]",
                      "name": "committee_feeds",
                      "type": "tuple[]"
                    },
                    {
                      "internalType": "bytes32[]",
                      "name": "proofs",
                      "type": "bytes32[]"
                    },
                    {
                      "internalType": "bool[]",
                      "name": "flags",
                      "type": "bool[]"
                    }
                  ],
                  "internalType": "struct SupraOracleDecoder.CommitteeFeedWithProof",
                  "name": "committee_data",
                  "type": "tuple"
                }
              ],
              "internalType": "struct SupraOracleDecoder.PriceDetailsWithCommittee[]",
              "name": "data",
              "type": "tuple[]"
            }
          ],
          "internalType": "struct SupraOracleDecoder.OracleProofV2",
          "name": "",
          "type": "tuple"
        }
      ],
      "stateMutability": "pure",
      "type": "function"
    }
  ],
  "bytecode": "0x610f6d610053600b82828239805160001a607314610046577f4e487b7100000000000000000000000000000000000000000000000000000000600052600060045260246000fd5b30600052607381538281f3fe73000000000000000000000000000000000000000030146080604052600436106100355760003560e01c8063bc79fd231461003a575b600080fd5b610054600480360381019061004f9190610115565b61006a565b60405161006191906106f7565b60405180910390f35b610072610089565b82828101906100819190610eee565b905092915050565b6040518060200160405280606081525090565b6000604051905090565b600080fd5b600080fd5b600080fd5b600080fd5b600080fd5b60008083601f8401126100d5576100d46100b0565b5b8235905067ffffffffffffffff8111156100f2576100f16100b5565b5b60208301915083600182028301111561010e5761010d6100ba565b5b9250929050565b6000806020838503121561012c5761012b6100a6565b5b600083013567ffffffffffffffff81111561014a576101496100ab565b5b610156858286016100bf565b92509250509250929050565b600081519050919050565b600082825260208201905092915050565b6000819050602082019050919050565b600067ffffffffffffffff82169050919050565b6101ab8161018e565b82525050565b6000819050919050565b6101c4816101b1565b82525050565b600060029050919050565b600081905092915050565b6000819050919050565b6000819050919050565b6101fd816101ea565b82525050565b600061020f83836101f4565b60208301905092915050565b6000602082019050919050565b610231816101ca565b61023b81846101d5565b9250610246826101e0565b8060005b8381101561027757815161025e8782610203565b96506102698361021b565b92505060018101905061024a565b505050505050565b600081519050919050565b600082825260208201905092915050565b6000819050602082019050919050565b600063ffffffff82169050919050565b6102c4816102ab565b82525050565b60006fffffffffffffffffffffffffffffffff82169050919050565b6102ef816102ca565b82525050565b600061ffff82169050919050565b61030c816102f5565b82525050565b60a08201600082015161032860008501826102bb565b50602082015161033b60208501826102e6565b50604082015161034e60408501826101a2565b5060608201516103616060850182610303565b50608082015161037460808501826101a2565b50505050565b60006103868383610312565b60a08301905092915050565b6000602082019050919050565b60006103aa8261027f565b6103b4818561028a565b93506103bf8361029b565b8060005b838110156103f05781516103d7888261037a565b97506103e283610392565b9250506001810190506103c3565b5085935050505092915050565b600081519050919050565b600082825260208201905092915050565b6000819050602082019050919050565b600061043583836101bb565b60208301905092915050565b6000602082019050919050565b6000610459826103fd565b6104638185610408565b935061046e83610419565b8060005b8381101561049f5781516104868882610429565b975061049183610441565b925050600181019050610472565b5085935050505092915050565b600081519050919050565b600082825260208201905092915050565b6000819050602082019050919050565b60008115159050919050565b6104ed816104d8565b82525050565b60006104ff83836104e4565b60208301905092915050565b6000602082019050919050565b6000610523826104ac565b61052d81856104b7565b9350610538836104c8565b8060005b8381101561056957815161055088826104f3565b975061055b8361050b565b92505060018101905061053c565b5085935050505092915050565b60006060830160008301518482036000860152610593828261039f565b915050602083015184820360208601526105ad828261044e565b915050604083015184820360408601526105c78282610518565b9150508091505092915050565b600060a0830160008301516105ec60008601826101a2565b5060208301516105ff60208601826101bb565b5060408301516106126040860182610228565b506060830151848203608086015261062a8282610576565b9150508091505092915050565b600061064383836105d4565b905092915050565b6000602082019050919050565b600061066382610162565b61066d818561016d565b93508360208202850161067f8561017e565b8060005b858110156106bb578484038952815161069c8582610637565b94506106a78361064b565b925060208a01995050600181019050610683565b50829750879550505050505092915050565b600060208301600083015184820360008601526106ea8282610658565b9150508091505092915050565b6000602082019050818103600083015261071181846106cd565b905092915050565b600080fd5b6000601f19601f8301169050919050565b7f4e487b7100000000000000000000000000000000000000000000000000000000600052604160045260246000fd5b6107678261071e565b810181811067ffffffffffffffff821117156107865761078561072f565b5b80604052505050565b600061079961009c565b90506107a5828261075e565b919050565b600080fd5b600067ffffffffffffffff8211156107ca576107c961072f565b5b602082029050602081019050919050565b6107e48161018e565b81146107ef57600080fd5b50565b600081359050610801816107db565b92915050565b610810816101b1565b811461081b57600080fd5b50565b60008135905061082d81610807565b92915050565b600067ffffffffffffffff82111561084e5761084d61072f565b5b602082029050919050565b610862816101ea565b811461086d57600080fd5b50565b60008135905061087f81610859565b92915050565b600061089861089384610833565b61078f565b905080602084028301858111156108b2576108b16100ba565b5b835b818110156108db57806108c78882610870565b8452602084019350506020810190506108b4565b5050509392505050565b600082601f8301126108fa576108f96100b0565b5b6002610907848285610885565b91505092915050565b600067ffffffffffffffff82111561092b5761092a61072f565b5b602082029050602081019050919050565b610945816102ab565b811461095057600080fd5b50565b6000813590506109628161093c565b92915050565b610971816102ca565b811461097c57600080fd5b50565b60008135905061098e81610968565b92915050565b61099d816102f5565b81146109a857600080fd5b50565b6000813590506109ba81610994565b92915050565b600060a082840312156109d6576109d5610719565b5b6109e060a061078f565b905060006109f084828501610953565b6000830152506020610a048482850161097f565b6020830152506040610a18848285016107f2565b6040830152506060610a2c848285016109ab565b6060830152506080610a40848285016107f2565b60808301525092915050565b6000610a5f610a5a84610910565b61078f565b90508083825260208201905060a08402830185811115610a8257610a816100ba565b5b835b81811015610aab5780610a9788826109c0565b84526020840193505060a081019050610a84565b5050509392505050565b600082601f830112610aca57610ac96100b0565b5b8135610ada848260208601610a4c565b91505092915050565b600067ffffffffffffffff821115610afe57610afd61072f565b5b602082029050602081019050919050565b6000610b22610b1d84610ae3565b61078f565b90508083825260208201905060208402830185811115610b4557610b446100ba565b5b835b81811015610b6e5780610b5a888261081e565b845260208401935050602081019050610b47565b5050509392505050565b600082601f830112610b8d57610b8c6100b0565b5b8135610b9d848260208601610b0f565b91505092915050565b600067ffffffffffffffff821115610bc157610bc061072f565b5b602082029050602081019050919050565b610bdb816104d8565b8114610be657600080fd5b50565b600081359050610bf881610bd2565b92915050565b6000610c11610c0c84610ba6565b61078f565b90508083825260208201905060208402830185811115610c3457610c336100ba565b5b835b81811015610c5d5780610c498882610be9565b845260208401935050602081019050610c36565b5050509392505050565b600082601f830112610c7c57610c7b6100b0565b5b8135610c8c848260208601610bfe565b91505092915050565b600060608284031215610cab57610caa610719565b5b610cb5606061078f565b9050600082013567ffffffffffffffff811115610cd557610cd46107aa565b5b610ce184828501610ab5565b600083015250602082013567ffffffffffffffff811115610d0557610d046107aa565b5b610d1184828501610b78565b602083015250604082013567ffffffffffffffff811115610d3557610d346107aa565b5b610d4184828501610c67565b60408301525092915050565b600060a08284031215610d6357610d62610719565b5b610d6d608061078f565b90506000610d7d848285016107f2565b6000830152506020610d918482850161081e565b6020830152506040610da5848285016108e5565b604083015250608082013567ffffffffffffffff811115610dc957610dc86107aa565b5b610dd584828501610c95565b60608301525092915050565b6000610df4610def846107af565b61078f565b90508083825260208201905060208402830185811115610e1757610e166100ba565b5b835b81811015610e5e57803567ffffffffffffffff811115610e3c57610e3b6100b0565b5b808601610e498982610d4d565b85526020850194505050602081019050610e19565b5050509392505050565b600082601f830112610e7d57610e7c6100b0565b5b8135610e8d848260208601610de1565b91505092915050565b600060208284031215610eac57610eab610719565b5b610eb6602061078f565b9050600082013567ffffffffffffffff811115610ed657610ed56107aa565b5b610ee284828501610e68565b60008301525092915050565b600060208284031215610f0457610f036100a6565b5b600082013567ffffffffffffffff811115610f2257610f216100ab565b5b610f2e84828501610e96565b9150509291505056fea264697066735822122042cee2520227870d3ffa6050a3ba88c3883d618547263a948ab1aeb7ed49f74164736f6c63430008180033",
  "linkReferences": {},
  "deployedLinkReferences": {}
}