{
  "_format": "hh-sol-artifact-1",
  "contractName": "SupraOracleDecoder",
  "sourceName": "contracts/0xVault/libs/SupraOracleDecoder.sol",
  "abi": [
    {
      "inputs": [
        {
          "internalType": "bytes",
          "name": "_bytesProof",
          "type": "bytes"
        }
      ],
      "name": "decodeOracleProof",
      "outputs": [
        {
          "components": [
            {
              "components": [
                {
                  "internalType": "uint64",
                  "name": "committee_id",
                  "type": "uint64"
                },
                {
                  "internalType": "bytes32",
                  "name": "root",
                  "type": "bytes32"
                },
                {
                  "internalType": "uint256[2]",
                  "name": "sigs",
                  "type": "uint256[2]"
                },
                {
                  "components": [
                    {
                      "components": [
                        {
                          "internalType": "uint32",
                          "name": "pair",
                          "type": "uint32"
                        },
                        {
                          "internalType": "uint128",
                          "name": "price",
                          "type": "uint128"
                        },
                        {
                          "internalType": "uint64",
                          "name": "timestamp",
                          "type": "uint64"
                        },
                        {
                          "internalType": "uint16",
                          "name": "decimals",
                          "type": "uint16"
                        },
                        {
                          "internalType": "uint64",
                          "name": "round",
                          "type": "uint64"
                        }
                      ],
                      "internalType": "struct SupraOracleDecoder.CommitteeFeed[]",
                      "name": "committee_feeds",
                      "type": "tuple[]"
                    },
                    {
                      "internalType": "bytes32[]",
                      "name": "proofs",
                      "type": "bytes32[]"
                    },
                    {
                      "internalType": "bool[]",
                      "name": "flags",
                      "type": "bool[]"
                    }
                  ],
                  "internalType": "struct SupraOracleDecoder.CommitteeFeedWithProof",
                  "name": "committee_data",
                  "type": "tuple"
                }
              ],
              "internalType": "struct SupraOracleDecoder.PriceDetailsWithCommittee[]",
              "name": "data",
              "type": "tuple[]"
            }
          ],
          "internalType": "struct SupraOracleDecoder.OracleProofV2",
          "name": "",
          "type": "tuple"
        }
      ],
      "stateMutability": "pure",
      "type": "function"
    }
  ],
  "bytecode": "0x61084a610039600b82828239805160001a607314602c57634e487b7160e01b600052600060045260246000fd5b30600052607381538281f3fe73000000000000000000000000000000000000000030146080604052600436106100355760003560e01c8063bc79fd231461003a575b600080fd5b61004d610048366004610085565b610063565b60405161005a9190610167565b60405180910390f35b60408051602081019091526060815261007e82840184610686565b9392505050565b6000806020838503121561009857600080fd5b82356001600160401b038111156100ae57600080fd5b8301601f810185136100bf57600080fd5b80356001600160401b038111156100d557600080fd5b8560208284010111156100e757600080fd5b6020919091019590945092505050565b600081518084526020840193506020830160005b8281101561012957815186526020958601959091019060010161010b565b5093949350505050565b600081518084526020840193506020830160005b828110156101295781511515865260209586019590910190600101610147565b60208152600060408201835160208085015281815180845260608601915060608160051b870101935060208301925060005b818110156102ec57868503605f19018352835180516001600160401b031686526020808201519087015260408082015190870160005b60028110156101ee5782518252602092830192909101906001016101cf565b5050506060810151905060a0608087015261010086018151606060a08901528181518084526101208a019150602083019350600092505b80831015610296578351805163ffffffff1683526020808201516001600160801b0316818501526040808301516001600160401b039081169186019190915260608084015161ffff16908601526080928301511691840191909152909301926001929092019160a090910190610225565b506020840151898203609f190160c08b015292506102b481846100f7565b9250505060408201519150609f198782030160e08801526102d58183610133565b965050506020938401939290920191600101610199565b50929695505050505050565b634e487b7160e01b600052604160045260246000fd5b604051606081016001600160401b0381118282101715610330576103306102f8565b60405290565b60405160a081016001600160401b0381118282101715610330576103306102f8565b604051602081016001600160401b0381118282101715610330576103306102f8565b604051608081016001600160401b0381118282101715610330576103306102f8565b604080519081016001600160401b0381118282101715610330576103306102f8565b604051601f8201601f191681016001600160401b03811182821017156103e6576103e66102f8565b604052919050565b60006001600160401b03821115610407576104076102f8565b5060051b60200190565b80356001600160401b038116811461042857600080fd5b919050565b600082601f83011261043e57600080fd5b813561045161044c826103ee565b6103be565b8082825260208201915060208360051b86010192508583111561047357600080fd5b602085015b83811015610490578035835260209283019201610478565b5095945050505050565b600082601f8301126104ab57600080fd5b81356104b961044c826103ee565b8082825260208201915060208360051b8601019250858311156104db57600080fd5b602085015b8381101561049057803580151581146104f857600080fd5b8352602092830192016104e0565b60006060828403121561051857600080fd5b61052061030e565b905081356001600160401b0381111561053857600080fd5b8201601f8101841361054957600080fd5b803561055761044c826103ee565b80828252602082019150602060a0840285010192508683111561057957600080fd5b6020840193505b828410156106255760a0848803121561059857600080fd5b6105a0610336565b843563ffffffff811681146105b457600080fd5b815260208501356001600160801b03811681146105d057600080fd5b60208201526105e160408601610411565b6040820152606085013561ffff811681146105fb57600080fd5b606082015261060c60808601610411565b6080820152825260a09390930192602090910190610580565b845250505060208201356001600160401b0381111561064357600080fd5b61064f8482850161042d565b60208301525060408201356001600160401b0381111561066e57600080fd5b61067a8482850161049a565b60408301525092915050565b60006020828403121561069857600080fd5b81356001600160401b038111156106ae57600080fd5b8201602081850312156106c057600080fd5b6106c8610358565b81356001600160401b038111156106de57600080fd5b80830192505084601f8301126106f357600080fd5b813561070161044c826103ee565b8082825260208201915060208360051b86010192508783111561072357600080fd5b602085015b838110156108065780356001600160401b0381111561074657600080fd5b860160a0818b03601f1901121561075c57600080fd5b61076461037a565b61077060208301610411565b815260408201356020820152607f82018b1361078b57600080fd5b61079361039c565b8060a084018d8111156107a557600080fd5b606085015b818110156107c25780358452602093840193016107aa565b5060408401919091523590506001600160401b038111156107e257600080fd5b6107f18c602083860101610506565b60608301525084525060209283019201610728565b50835250909594505050505056fea2646970667358221220a69afdbde7244dec038bb1b441226065c28639b8c62b3f513124f21597293bab64736f6c634300081b0033",
  "linkReferences": {},
  "deployedLinkReferences": {}
}