{
  "_format": "hh-sol-artifact-1",
  "contractName": "LpProvider",
  "sourceName": "contracts/0xVault/LpProvider.sol",
  "abi": [
    {
      "inputs": [],
      "name": "InvalidInitialization",
      "type": "error"
    },
    {
      "inputs": [],
      "name": "NotInitializing",
      "type": "error"
    },
    {
      "inputs": [
        {
          "internalType": "address",
          "name": "owner",
          "type": "address"
        }
      ],
      "name": "OwnableInvalidOwner",
      "type": "error"
    },
    {
      "inputs": [
        {
          "internalType": "address",
          "name": "account",
          "type": "address"
        }
      ],
      "name": "OwnableUnauthorizedAccount",
      "type": "error"
    },
    {
      "inputs": [],
      "name": "ReentrancyGuardReentrantCall",
      "type": "error"
    },
    {
      "anonymous": false,
      "inputs": [
        {
          "indexed": true,
          "internalType": "address",
          "name": "newColdWallet",
          "type": "address"
        }
      ],
      "name": "ColdWalletChanged",
      "type": "event"
    },
    {
      "anonymous": false,
      "inputs": [
        {
          "indexed": true,
          "internalType": "address",
          "name": "user",
          "type": "address"
        },
        {
          "indexed": true,
          "internalType": "address",
          "name": "token",
          "type": "address"
        },
        {
          "indexed": false,
          "internalType": "uint256",
          "name": "amount",
          "type": "uint256"
        },
        {
          "indexed": false,
          "internalType": "uint256",
          "name": "fundAmount",
          "type": "uint256"
        }
      ],
      "name": "DepositFund",
      "type": "event"
    },
    {
      "anonymous": false,
      "inputs": [
        {
          "indexed": false,
          "internalType": "uint256",
          "name": "newStartEpochTimestamp",
          "type": "uint256"
        },
        {
          "indexed": false,
          "internalType": "uint256",
          "name": "newEpochPeriod",
          "type": "uint256"
        }
      ],
      "name": "EpochParametersChanged",
      "type": "event"
    },
    {
      "anonymous": false,
      "inputs": [
        {
          "indexed": false,
          "internalType": "uint64",
          "name": "version",
          "type": "uint64"
        }
      ],
      "name": "Initialized",
      "type": "event"
    },
    {
      "anonymous": false,
      "inputs": [
        {
          "indexed": true,
          "internalType": "address",
          "name": "user",
          "type": "address"
        },
        {
          "indexed": true,
          "internalType": "address",
          "name": "token",
          "type": "address"
        },
        {
          "indexed": false,
          "internalType": "uint256",
          "name": "amount",
          "type": "uint256"
        }
      ],
      "name": "LPProvided",
      "type": "event"
    },
    {
      "anonymous": false,
      "inputs": [
        {
          "indexed": true,
          "internalType": "address",
          "name": "lpProvider",
          "type": "address"
        },
        {
          "indexed": false,
          "internalType": "bool",
          "name": "isProvider",
          "type": "bool"
        }
      ],
      "name": "LPProviderStatusChanged",
      "type": "event"
    },
    {
      "anonymous": false,
      "inputs": [
        {
          "indexed": true,
          "internalType": "address",
          "name": "user",
          "type": "address"
        },
        {
          "indexed": true,
          "internalType": "address",
          "name": "token",
          "type": "address"
        },
        {
          "indexed": false,
          "internalType": "uint256",
          "name": "amount",
          "type": "uint256"
        }
      ],
      "name": "LPWithdrawn",
      "type": "event"
    },
    {
      "anonymous": false,
      "inputs": [
        {
          "indexed": false,
          "internalType": "uint256",
          "name": "newPrice",
          "type": "uint256"
        }
      ],
      "name": "NAVPriceUpdated",
      "type": "event"
    },
    {
      "anonymous": false,
      "inputs": [
        {
          "indexed": true,
          "internalType": "address",
          "name": "newOracle",
          "type": "address"
        }
      ],
      "name": "OracleChanged",
      "type": "event"
    },
    {
      "anonymous": false,
      "inputs": [
        {
          "indexed": true,
          "internalType": "address",
          "name": "previousOwner",
          "type": "address"
        },
        {
          "indexed": true,
          "internalType": "address",
          "name": "newOwner",
          "type": "address"
        }
      ],
      "name": "OwnershipTransferred",
      "type": "event"
    },
    {
      "anonymous": false,
      "inputs": [
        {
          "indexed": true,
          "internalType": "address",
          "name": "token",
          "type": "address"
        },
        {
          "indexed": false,
          "internalType": "uint256",
          "name": "amount",
          "type": "uint256"
        }
      ],
      "name": "RewardDepositedForMarketMaker",
      "type": "event"
    },
    {
      "anonymous": false,
      "inputs": [
        {
          "indexed": true,
          "internalType": "address",
          "name": "newVault",
          "type": "address"
        }
      ],
      "name": "VaultChanged",
      "type": "event"
    },
    {
      "anonymous": false,
      "inputs": [
        {
          "indexed": true,
          "internalType": "address",
          "name": "user",
          "type": "address"
        },
        {
          "indexed": true,
          "internalType": "address",
          "name": "token",
          "type": "address"
        },
        {
          "indexed": false,
          "internalType": "uint256",
          "name": "amount",
          "type": "uint256"
        },
        {
          "indexed": false,
          "internalType": "uint256",
          "name": "fundAmount",
          "type": "uint256"
        }
      ],
      "name": "WithdrawFund",
      "type": "event"
    },
    {
      "anonymous": false,
      "inputs": [
        {
          "indexed": true,
          "internalType": "address",
          "name": "user",
          "type": "address"
        },
        {
          "indexed": true,
          "internalType": "address",
          "name": "token",
          "type": "address"
        },
        {
          "indexed": false,
          "internalType": "uint256",
          "name": "navAmount",
          "type": "uint256"
        },
        {
          "indexed": false,
          "internalType": "uint256",
          "name": "timestamp",
          "type": "uint256"
        }
      ],
      "name": "WithdrawRequested",
      "type": "event"
    },
    {
      "anonymous": false,
      "inputs": [
        {
          "indexed": false,
          "internalType": "uint256",
          "name": "newWithdrawalDelayTime",
          "type": "uint256"
        }
      ],
      "name": "WithdrawalDelayTimeChanged",
      "type": "event"
    },
    {
      "inputs": [],
      "name": "NAV_DECIMALS",
      "outputs": [
        {
          "internalType": "uint256",
          "name": "",
          "type": "uint256"
        }
      ],
      "stateMutability": "view",
      "type": "function"
    },
    {
      "inputs": [],
      "name": "coldWallet",
      "outputs": [
        {
          "internalType": "address",
          "name": "",
          "type": "address"
        }
      ],
      "stateMutability": "view",
      "type": "function"
    },
    {
      "inputs": [
        {
          "internalType": "address",
          "name": "token",
          "type": "address"
        },
        {
          "internalType": "uint256",
          "name": "amount",
          "type": "uint256"
        }
      ],
      "name": "decreaseLpProvidedAmount",
      "outputs": [],
      "stateMutability": "nonpayable",
      "type": "function"
    },
    {
      "inputs": [
        {
          "internalType": "address",
          "name": "token",
          "type": "address"
        },
        {
          "internalType": "uint256",
          "name": "amount",
          "type": "uint256"
        }
      ],
      "name": "depositFund",
      "outputs": [],
      "stateMutability": "nonpayable",
      "type": "function"
    },
    {
      "inputs": [
        {
          "internalType": "address",
          "name": "token",
          "type": "address"
        },
        {
          "internalType": "uint256",
          "name": "amount",
          "type": "uint256"
        }
      ],
      "name": "depositRewardForMarketMaker",
      "outputs": [],
      "stateMutability": "nonpayable",
      "type": "function"
    },
    {
      "inputs": [],
      "name": "epochPeriod",
      "outputs": [
        {
          "internalType": "uint256",
          "name": "",
          "type": "uint256"
        }
      ],
      "stateMutability": "view",
      "type": "function"
    },
    {
      "inputs": [
        {
          "internalType": "address",
          "name": "",
          "type": "address"
        }
      ],
      "name": "fundAmount",
      "outputs": [
        {
          "internalType": "uint256",
          "name": "",
          "type": "uint256"
        }
      ],
      "stateMutability": "view",
      "type": "function"
    },
    {
      "inputs": [
        {
          "internalType": "address",
          "name": "token",
          "type": "address"
        },
        {
          "internalType": "uint256",
          "name": "amount",
          "type": "uint256"
        }
      ],
      "name": "increaseLpProvidedAmount",
      "outputs": [],
      "stateMutability": "nonpayable",
      "type": "function"
    },
    {
      "inputs": [
        {
          "internalType": "address",
          "name": "_owner",
          "type": "address"
        },
        {
          "internalType": "address",
          "name": "_vault",
          "type": "address"
        },
        {
          "internalType": "address",
          "name": "_oracle",
          "type": "address"
        },
        {
          "internalType": "uint256",
          "name": "_epochPeriod",
          "type": "uint256"
        },
        {
          "internalType": "uint256",
          "name": "_startEpochTimestamp",
          "type": "uint256"
        },
        {
          "internalType": "uint256",
          "name": "_withdrawalDelayTime",
          "type": "uint256"
        },
        {
          "internalType": "address",
          "name": "_coldWallet",
          "type": "address"
        }
      ],
      "name": "initialize",
      "outputs": [],
      "stateMutability": "nonpayable",
      "type": "function"
    },
    {
      "inputs": [
        {
          "internalType": "address",
          "name": "",
          "type": "address"
        }
      ],
      "name": "isLPProvider",
      "outputs": [
        {
          "internalType": "bool",
          "name": "",
          "type": "bool"
        }
      ],
      "stateMutability": "view",
      "type": "function"
    },
    {
      "inputs": [
        {
          "internalType": "address",
          "name": "",
          "type": "address"
        }
      ],
      "name": "lpProvidedAmount",
      "outputs": [
        {
          "internalType": "uint256",
          "name": "",
          "type": "uint256"
        }
      ],
      "stateMutability": "view",
      "type": "function"
    },
    {
      "inputs": [],
      "name": "navPrice",
      "outputs": [
        {
          "internalType": "uint256",
          "name": "",
          "type": "uint256"
        }
      ],
      "stateMutability": "view",
      "type": "function"
    },
    {
      "inputs": [],
      "name": "oracle",
      "outputs": [
        {
          "internalType": "address",
          "name": "",
          "type": "address"
        }
      ],
      "stateMutability": "view",
      "type": "function"
    },
    {
      "inputs": [],
      "name": "owner",
      "outputs": [
        {
          "internalType": "address",
          "name": "",
          "type": "address"
        }
      ],
      "stateMutability": "view",
      "type": "function"
    },
    {
      "inputs": [
        {
          "internalType": "address",
          "name": "",
          "type": "address"
        }
      ],
      "name": "pairId",
      "outputs": [
        {
          "internalType": "uint256",
          "name": "",
          "type": "uint256"
        }
      ],
      "stateMutability": "view",
      "type": "function"
    },
    {
      "inputs": [
        {
          "internalType": "address",
          "name": "token",
          "type": "address"
        },
        {
          "internalType": "uint256",
          "name": "amount",
          "type": "uint256"
        }
      ],
      "name": "provideLiquidity",
      "outputs": [],
      "stateMutability": "nonpayable",
      "type": "function"
    },
    {
      "inputs": [],
      "name": "renounceOwnership",
      "outputs": [],
      "stateMutability": "nonpayable",
      "type": "function"
    },
    {
      "inputs": [
        {
          "internalType": "address",
          "name": "",
          "type": "address"
        },
        {
          "internalType": "address",
          "name": "",
          "type": "address"
        }
      ],
      "name": "reqWithdraws",
      "outputs": [
        {
          "internalType": "uint256",
          "name": "navAmount",
          "type": "uint256"
        },
        {
          "internalType": "uint256",
          "name": "timestamp",
          "type": "uint256"
        }
      ],
      "stateMutability": "view",
      "type": "function"
    },
    {
      "inputs": [
        {
          "internalType": "address",
          "name": "token",
          "type": "address"
        },
        {
          "internalType": "uint256",
          "name": "navsAmount",
          "type": "uint256"
        }
      ],
      "name": "requestWithdrawFund",
      "outputs": [],
      "stateMutability": "nonpayable",
      "type": "function"
    },
    {
      "inputs": [
        {
          "internalType": "address",
          "name": "_coldWallet",
          "type": "address"
        }
      ],
      "name": "setColdWallet",
      "outputs": [],
      "stateMutability": "nonpayable",
      "type": "function"
    },
    {
      "inputs": [
        {
          "internalType": "uint256",
          "name": "_startEpochTimestamp",
          "type": "uint256"
        },
        {
          "internalType": "uint256",
          "name": "_epochPeriod",
          "type": "uint256"
        }
      ],
      "name": "setEpochParameters",
      "outputs": [],
      "stateMutability": "nonpayable",
      "type": "function"
    },
    {
      "inputs": [
        {
          "internalType": "address[]",
          "name": "lpProvider",
          "type": "address[]"
        },
        {
          "internalType": "bool[]",
          "name": "isProvider",
          "type": "bool[]"
        }
      ],
      "name": "setLPProvider",
      "outputs": [],
      "stateMutability": "nonpayable",
      "type": "function"
    },
    {
      "inputs": [
        {
          "internalType": "uint256",
          "name": "newPrice",
          "type": "uint256"
        }
      ],
      "name": "setNAVPrice",
      "outputs": [],
      "stateMutability": "nonpayable",
      "type": "function"
    },
    {
      "inputs": [
        {
          "internalType": "address",
          "name": "_oracle",
          "type": "address"
        }
      ],
      "name": "setOracle",
      "outputs": [],
      "stateMutability": "nonpayable",
      "type": "function"
    },
    {
      "inputs": [
        {
          "internalType": "address[]",
          "name": "tokens",
          "type": "address[]"
        },
        {
          "internalType": "uint256[]",
          "name": "ids",
          "type": "uint256[]"
        }
      ],
      "name": "setPairIDForTokens",
      "outputs": [],
      "stateMutability": "nonpayable",
      "type": "function"
    },
    {
      "inputs": [
        {
          "internalType": "address",
          "name": "_vault",
          "type": "address"
        }
      ],
      "name": "setVault",
      "outputs": [],
      "stateMutability": "nonpayable",
      "type": "function"
    },
    {
      "inputs": [
        {
          "internalType": "uint256",
          "name": "_withdrawalDelayTime",
          "type": "uint256"
        }
      ],
      "name": "setWithdrawalDelayTime",
      "outputs": [],
      "stateMutability": "nonpayable",
      "type": "function"
    },
    {
      "inputs": [],
      "name": "startEpochTimestamp",
      "outputs": [
        {
          "internalType": "uint256",
          "name": "",
          "type": "uint256"
        }
      ],
      "stateMutability": "view",
      "type": "function"
    },
    {
      "inputs": [
        {
          "internalType": "address",
          "name": "",
          "type": "address"
        }
      ],
      "name": "totalNAVs",
      "outputs": [
        {
          "internalType": "uint256",
          "name": "",
          "type": "uint256"
        }
      ],
      "stateMutability": "view",
      "type": "function"
    },
    {
      "inputs": [
        {
          "internalType": "address",
          "name": "newOwner",
          "type": "address"
        }
      ],
      "name": "transferOwnership",
      "outputs": [],
      "stateMutability": "nonpayable",
      "type": "function"
    },
    {
      "inputs": [
        {
          "internalType": "address",
          "name": "",
          "type": "address"
        },
        {
          "internalType": "address",
          "name": "",
          "type": "address"
        }
      ],
      "name": "userNAVs",
      "outputs": [
        {
          "internalType": "uint256",
          "name": "",
          "type": "uint256"
        }
      ],
      "stateMutability": "view",
      "type": "function"
    },
    {
      "inputs": [],
      "name": "vault",
      "outputs": [
        {
          "internalType": "address",
          "name": "",
          "type": "address"
        }
      ],
      "stateMutability": "view",
      "type": "function"
    },
    {
      "inputs": [
        {
          "internalType": "address",
          "name": "token",
          "type": "address"
        }
      ],
      "name": "withdrawAllLiquidity",
      "outputs": [],
      "stateMutability": "nonpayable",
      "type": "function"
    },
    {
      "inputs": [
        {
          "internalType": "address",
          "name": "token",
          "type": "address"
        }
      ],
      "name": "withdrawFund",
      "outputs": [],
      "stateMutability": "nonpayable",
      "type": "function"
    },
    {
      "inputs": [],
      "name": "withdrawalDelayTime",
      "outputs": [
        {
          "internalType": "uint256",
          "name": "",
          "type": "uint256"
        }
      ],
      "stateMutability": "view",
      "type": "function"
    }
  ],
  "bytecode": "0x608060405234801561001057600080fd5b5061451f806100206000396000f3fe608060405234801561001057600080fd5b50600436106102105760003560e01c8063715018a611610125578063b5b7a184116100ad578063d8fc2f941161007c578063d8fc2f94146105d4578063eabe600e14610604578063f0f998e914610620578063f2fde38b1461063c578063fbfa77cf1461065857610210565b8063b5b7a1841461053a578063b82ffdf914610558578063cd1d89b014610588578063d7da2c50146105a457610210565b80638754bbc6116100f45780638754bbc6146104aa5780638da5cb5b146104c65780639d1dd0da146104e4578063a2e8d38b14610500578063b3982cb81461051c57610210565b8063715018a6146104485780637adbf973146104525780637dc0d1d01461046e5780637e41ac171461048c57610210565b80633a74595c116101a857806363c0ec031161017757806363c0ec03146103a65780636817031b146103d65780636aa9f686146103f25780636be13c921461040e5780636e4626db1461042c57610210565b80633a74595c146103205780633f5961551461033e5780635376f1a31461036e5780635fea61201461038a57610210565b8063195bac62116101e4578063195bac621461028757806325162787146102a357806326e31516146102bf57806335e3212c146102f057610210565b8062c15bde1461021557806306087e5b1461023157806306ae63ae1461024d578063125d5d7114610269575b600080fd5b61022f600480360381019061022a91906134ce565b610676565b005b61024b6004803603810190610246919061350e565b610720565b005b6102676004803603810190610262919061353b565b61081e565b005b610271610871565b60405161027e919061358a565b60405180910390f35b6102a1600480360381019061029c91906134ce565b610877565b005b6102bd60048036038101906102b891906135a5565b6109c4565b005b6102d960048036038101906102d491906135d2565b610a50565b6040516102e7929190613612565b60405180910390f35b61030a6004803603810190610305919061350e565b610a81565b604051610317919061358a565b60405180910390f35b610328610a99565b604051610335919061358a565b60405180910390f35b610358600480360381019061035391906135d2565b610a9f565b604051610365919061358a565b60405180910390f35b6103886004803603810190610383919061350e565b610ac4565b005b6103a4600480360381019061039f91906134ce565b610ce7565b005b6103c060048036038101906103bb919061350e565b61105c565b6040516103cd919061358a565b60405180910390f35b6103f060048036038101906103eb919061350e565b611074565b005b61040c600480360381019061040791906135a5565b611171565b005b6104166111ba565b604051610423919061364a565b60405180910390f35b610446600480360381019061044191906134ce565b6111e0565b005b610450611461565b005b61046c6004803603810190610467919061350e565b611475565b005b610476611573565b604051610483919061364a565b60405180910390f35b610494611599565b6040516104a1919061358a565b60405180910390f35b6104c460048036038101906104bf9190613665565b61159e565b005b6104ce61194b565b6040516104db919061364a565b60405180910390f35b6104fe60048036038101906104f991906134ce565b611983565b005b61051a600480360381019061051591906137c2565b611c2f565b005b610524611de2565b604051610531919061358a565b60405180910390f35b610542611de8565b60405161054f919061358a565b60405180910390f35b610572600480360381019061056d919061350e565b611dee565b60405161057f919061358a565b60405180910390f35b6105a2600480360381019061059d91906134ce565b611e06565b005b6105be60048036038101906105b9919061350e565b612091565b6040516105cb919061358a565b60405180910390f35b6105ee60048036038101906105e9919061350e565b6120a9565b6040516105fb919061385e565b60405180910390f35b61061e600480360381019061061991906138cf565b6120c9565b005b61063a6004803603810190610635919061350e565b6121bf565b005b6106566004803603810190610651919061350e565b612526565b005b6106606125ac565b60405161066d919061364a565b60405180910390f35b61067e6125d0565b600760003373ffffffffffffffffffffffffffffffffffffffff1673ffffffffffffffffffffffffffffffffffffffff16815260200190815260200160002060009054906101000a900460ff1661070a576040517f08c379a0000000000000000000000000000000000000000000000000000000008152600401610701906139ad565b60405180910390fd5b6107148282612627565b61071c612a47565b5050565b610728612a60565b600073ffffffffffffffffffffffffffffffffffffffff168173ffffffffffffffffffffffffffffffffffffffff1603610797576040517f08c379a000000000000000000000000000000000000000000000000000000000815260040161078e90613a19565b60405180910390fd5b80600160006101000a81548173ffffffffffffffffffffffffffffffffffffffff021916908373ffffffffffffffffffffffffffffffffffffffff1602179055508073ffffffffffffffffffffffffffffffffffffffff167f12b87b4923747c53aaddfd1b826b461a2f191f35bcebb9b2a4194c47d664be6560405160405180910390a250565b610826612a60565b81600381905550806004819055507f6effba7817449d7581339d631efecc0223e5d4c8f3d9760157d8ee2458e72e208282604051610865929190613612565b60405180910390a15050565b60035481565b60008054906101000a900473ffffffffffffffffffffffffffffffffffffffff1673ffffffffffffffffffffffffffffffffffffffff163373ffffffffffffffffffffffffffffffffffffffff1614610905576040517f08c379a00000000000000000000000000000000000000000000000000000000081526004016108fc90613a85565b60405180910390fd5b80600860008473ffffffffffffffffffffffffffffffffffffffff1673ffffffffffffffffffffffffffffffffffffffff16815260200190815260200160002060008282546109549190613ad4565b925050819055508173ffffffffffffffffffffffffffffffffffffffff163073ffffffffffffffffffffffffffffffffffffffff167f475ce1a1fde21a55ef3ff23bc7394d2bb1403cbbbcc86e762514d5dbce3b835c836040516109b8919061358a565b60405180910390a35050565b6109cc612a60565b60008111610a0f576040517f08c379a0000000000000000000000000000000000000000000000000000000008152600401610a0690613b54565b60405180910390fd5b80600d819055507fd2676471685fc14d75b2c1388eb8967ecad406b6b349cfdfcb3b7b4dfc36c84281604051610a45919061358a565b60405180910390a150565b600c602052816000526040600020602052806000526040600020600091509150508060000154908060010154905082565b60086020528060005260406000206000915090505481565b60055481565b600b602052816000526040600020602052806000526040600020600091509150505481565b610acc6125d0565b600760003373ffffffffffffffffffffffffffffffffffffffff1673ffffffffffffffffffffffffffffffffffffffff16815260200190815260200160002060009054906101000a900460ff16610b58576040517f08c379a0000000000000000000000000000000000000000000000000000000008152600401610b4f906139ad565b60405180910390fd5b6000600c60008373ffffffffffffffffffffffffffffffffffffffff1673ffffffffffffffffffffffffffffffffffffffff16815260200190815260200160002060003373ffffffffffffffffffffffffffffffffffffffff1673ffffffffffffffffffffffffffffffffffffffff1681526020019081526020016000206040518060400160405290816000820154815260200160018201548152505090508060200151421015610c3e576040517f08c379a0000000000000000000000000000000000000000000000000000000008152600401610c3590613bc0565b60405180910390fd5b610c4c828260000151612ae7565b600c60008373ffffffffffffffffffffffffffffffffffffffff1673ffffffffffffffffffffffffffffffffffffffff16815260200190815260200160002060003373ffffffffffffffffffffffffffffffffffffffff1673ffffffffffffffffffffffffffffffffffffffff1681526020019081526020016000206000808201600090556001820160009055505050610ce4612a47565b50565b610cef6125d0565b600760003373ffffffffffffffffffffffffffffffffffffffff1673ffffffffffffffffffffffffffffffffffffffff16815260200190815260200160002060009054906101000a900460ff16610d7b576040517f08c379a0000000000000000000000000000000000000000000000000000000008152600401610d72906139ad565b60405180910390fd5b60008111610dbe576040517f08c379a0000000000000000000000000000000000000000000000000000000008152600401610db590613c2c565b60405180910390fd5b60008054906101000a900473ffffffffffffffffffffffffffffffffffffffff1673ffffffffffffffffffffffffffffffffffffffff166375151b63836040518263ffffffff1660e01b8152600401610e17919061364a565b602060405180830381865afa158015610e34573d6000803e3d6000fd5b505050506040513d601f19601f82011682018060405250810190610e589190613c78565b610e97576040517f08c379a0000000000000000000000000000000000000000000000000000000008152600401610e8e90613cf1565b60405180910390fd5b8173ffffffffffffffffffffffffffffffffffffffff166323b872dd3330846040518463ffffffff1660e01b8152600401610ed493929190613d11565b6020604051808303816000875af1158015610ef3573d6000803e3d6000fd5b505050506040513d601f19601f82011682018060405250810190610f179190613c78565b610f56576040517f08c379a0000000000000000000000000000000000000000000000000000000008152600401610f4d90613d94565b60405180910390fd5b80600860008473ffffffffffffffffffffffffffffffffffffffff1673ffffffffffffffffffffffffffffffffffffffff1681526020019081526020016000206000828254610fa59190613ad4565b925050819055508173ffffffffffffffffffffffffffffffffffffffff163373ffffffffffffffffffffffffffffffffffffffff167f475ce1a1fde21a55ef3ff23bc7394d2bb1403cbbbcc86e762514d5dbce3b835c600860008673ffffffffffffffffffffffffffffffffffffffff1673ffffffffffffffffffffffffffffffffffffffff16815260200190815260200160002054604051611048919061358a565b60405180910390a3611058612a47565b5050565b60066020528060005260406000206000915090505481565b61107c612a60565b600073ffffffffffffffffffffffffffffffffffffffff168173ffffffffffffffffffffffffffffffffffffffff16036110eb576040517f08c379a00000000000000000000000000000000000000000000000000000000081526004016110e290613e00565b60405180910390fd5b806000806101000a81548173ffffffffffffffffffffffffffffffffffffffff021916908373ffffffffffffffffffffffffffffffffffffffff1602179055508073ffffffffffffffffffffffffffffffffffffffff167fa49691f0dd6477ccef49962612a236d252e3a31c3be8b61fa6abeff3e74a757260405160405180910390a250565b611179612a60565b806005819055507f9d9c46a2a013deb548384cacd2b81266c0999b6bf5e0ac1982e780e9dcfb5baa816040516111af919061358a565b60405180910390a150565b600160009054906101000a900473ffffffffffffffffffffffffffffffffffffffff1681565b6111e86125d0565b600760003373ffffffffffffffffffffffffffffffffffffffff1673ffffffffffffffffffffffffffffffffffffffff16815260200190815260200160002060009054906101000a900460ff16611274576040517f08c379a000000000000000000000000000000000000000000000000000000000815260040161126b906139ad565b60405180910390fd5b80600b60008473ffffffffffffffffffffffffffffffffffffffff1673ffffffffffffffffffffffffffffffffffffffff16815260200190815260200160002060003373ffffffffffffffffffffffffffffffffffffffff1673ffffffffffffffffffffffffffffffffffffffff168152602001908152602001600020541015611333576040517f08c379a000000000000000000000000000000000000000000000000000000000815260040161132a90613e6c565b60405180910390fd5b6000600554426113439190613ad4565b9050604051806040016040528083815260200182815250600c60008573ffffffffffffffffffffffffffffffffffffffff1673ffffffffffffffffffffffffffffffffffffffff16815260200190815260200160002060003373ffffffffffffffffffffffffffffffffffffffff1673ffffffffffffffffffffffffffffffffffffffff16815260200190815260200160002060008201518160000155602082015181600101559050508273ffffffffffffffffffffffffffffffffffffffff163373ffffffffffffffffffffffffffffffffffffffff167f8fa53c657d42560b16de22b6a3c450f4a27a432c64f8549a2e7084926f2c34ab848460405161144c929190613612565b60405180910390a35061145d612a47565b5050565b611469612a60565b6114736000612e9e565b565b61147d612a60565b600073ffffffffffffffffffffffffffffffffffffffff168173ffffffffffffffffffffffffffffffffffffffff16036114ec576040517f08c379a00000000000000000000000000000000000000000000000000000000081526004016114e390613ed8565b60405180910390fd5b80600260006101000a81548173ffffffffffffffffffffffffffffffffffffffff021916908373ffffffffffffffffffffffffffffffffffffffff1602179055508073ffffffffffffffffffffffffffffffffffffffff167f0e05ae75e8b926552cf6fcd744d19f422561e3ced1e426868730852702dbe41860405160405180910390a250565b600260009054906101000a900473ffffffffffffffffffffffffffffffffffffffff1681565b601281565b60006115a8612f75565b905060008160000160089054906101000a900460ff1615905060008260000160009054906101000a900467ffffffffffffffff1690506000808267ffffffffffffffff161480156115f65750825b9050600060018367ffffffffffffffff1614801561162b575060003073ffffffffffffffffffffffffffffffffffffffff163b145b905081158015611639575080155b15611670576040517ff92ee8a900000000000000000000000000000000000000000000000000000000815260040160405180910390fd5b60018560000160006101000a81548167ffffffffffffffff021916908367ffffffffffffffff16021790555083156116c05760018560000160086101000a81548160ff0219169083151502179055505b6116c98c612f9d565b6116d1612fb1565b8a6000806101000a81548173ffffffffffffffffffffffffffffffffffffffff021916908373ffffffffffffffffffffffffffffffffffffffff16021790555089600260006101000a81548173ffffffffffffffffffffffffffffffffffffffff021916908373ffffffffffffffffffffffffffffffffffffffff16021790555088600481905550876003819055508660058190555085600160006101000a81548173ffffffffffffffffffffffffffffffffffffffff021916908373ffffffffffffffffffffffffffffffffffffffff1602179055508a73ffffffffffffffffffffffffffffffffffffffff167fa49691f0dd6477ccef49962612a236d252e3a31c3be8b61fa6abeff3e74a757260405160405180910390a28973ffffffffffffffffffffffffffffffffffffffff167f0e05ae75e8b926552cf6fcd744d19f422561e3ced1e426868730852702dbe41860405160405180910390a27f6effba7817449d7581339d631efecc0223e5d4c8f3d9760157d8ee2458e72e20888a60405161185f929190613612565b60405180910390a17f9d9c46a2a013deb548384cacd2b81266c0999b6bf5e0ac1982e780e9dcfb5baa87604051611896919061358a565b60405180910390a18573ffffffffffffffffffffffffffffffffffffffff167f12b87b4923747c53aaddfd1b826b461a2f191f35bcebb9b2a4194c47d664be6560405160405180910390a2831561193d5760008560000160086101000a81548160ff0219169083151502179055507fc7f505b2f371ae2175ee4913f4499e1f2633a7b5936321eed1cdaeb6115181d260016040516119349190613f51565b60405180910390a15b505050505050505050505050565b600080611956612fc3565b90508060000160009054906101000a900473ffffffffffffffffffffffffffffffffffffffff1691505090565b60008054906101000a900473ffffffffffffffffffffffffffffffffffffffff1673ffffffffffffffffffffffffffffffffffffffff163373ffffffffffffffffffffffffffffffffffffffff1614611a11576040517f08c379a0000000000000000000000000000000000000000000000000000000008152600401611a0890613a85565b60405180910390fd5b80600860008473ffffffffffffffffffffffffffffffffffffffff1673ffffffffffffffffffffffffffffffffffffffff168152602001908152602001600020541015611a93576040517f08c379a0000000000000000000000000000000000000000000000000000000008152600401611a8a90613fb8565b60405180910390fd5b8173ffffffffffffffffffffffffffffffffffffffff1663a9059cbb60008054906101000a900473ffffffffffffffffffffffffffffffffffffffff16836040518363ffffffff1660e01b8152600401611aee929190613fd8565b6020604051808303816000875af1158015611b0d573d6000803e3d6000fd5b505050506040513d601f19601f82011682018060405250810190611b319190613c78565b611b70576040517f08c379a0000000000000000000000000000000000000000000000000000000008152600401611b6790613d94565b60405180910390fd5b80600860008473ffffffffffffffffffffffffffffffffffffffff1673ffffffffffffffffffffffffffffffffffffffff1681526020019081526020016000206000828254611bbf9190614001565b925050819055508173ffffffffffffffffffffffffffffffffffffffff163073ffffffffffffffffffffffffffffffffffffffff167f87643e0436c867defcc7b4812259dde63cbe46038012cde1457289586e63acca83604051611c23919061358a565b60405180910390a35050565b611c37612a60565b818190508484905014611c7f576040517f08c379a0000000000000000000000000000000000000000000000000000000008152600401611c7690614081565b60405180910390fd5b60005b84849050811015611ddb57828282818110611ca057611c9f6140a1565b5b9050602002016020810190611cb591906140e5565b60076000878785818110611ccc57611ccb6140a1565b5b9050602002016020810190611ce1919061350e565b73ffffffffffffffffffffffffffffffffffffffff1673ffffffffffffffffffffffffffffffffffffffff16815260200190815260200160002060006101000a81548160ff021916908315150217905550848482818110611d4557611d446140a1565b5b9050602002016020810190611d5a919061350e565b73ffffffffffffffffffffffffffffffffffffffff167f3935342b137d19ff436f616ae14e5ad1acb71b4683facd025b1ef030798b4109848484818110611da457611da36140a1565b5b9050602002016020810190611db991906140e5565b604051611dc6919061385e565b60405180910390a28080600101915050611c82565b5050505050565b600d5481565b60045481565b60096020528060005260406000206000915090505481565b611e0e612a60565b60008111611e51576040517f08c379a0000000000000000000000000000000000000000000000000000000008152600401611e4890613c2c565b60405180910390fd5b60008054906101000a900473ffffffffffffffffffffffffffffffffffffffff1673ffffffffffffffffffffffffffffffffffffffff166375151b63836040518263ffffffff1660e01b8152600401611eaa919061364a565b602060405180830381865afa158015611ec7573d6000803e3d6000fd5b505050506040513d601f19601f82011682018060405250810190611eeb9190613c78565b611f2a576040517f08c379a0000000000000000000000000000000000000000000000000000000008152600401611f2190613cf1565b60405180910390fd5b8173ffffffffffffffffffffffffffffffffffffffff166323b872dd3330846040518463ffffffff1660e01b8152600401611f6793929190613d11565b6020604051808303816000875af1158015611f86573d6000803e3d6000fd5b505050506040513d601f19601f82011682018060405250810190611faa9190613c78565b611fe9576040517f08c379a0000000000000000000000000000000000000000000000000000000008152600401611fe090613d94565b60405180910390fd5b80600960008473ffffffffffffffffffffffffffffffffffffffff1673ffffffffffffffffffffffffffffffffffffffff16815260200190815260200160002060008282546120389190613ad4565b925050819055508173ffffffffffffffffffffffffffffffffffffffff167f7bd42206aa7f89bfe6e3764927e5614e3a12b3badbd573aca37817ea45d6c6f682604051612085919061358a565b60405180910390a25050565b600a6020528060005260406000206000915090505481565b60076020528060005260406000206000915054906101000a900460ff1681565b6120d1612a60565b818190508484905014612119576040517f08c379a000000000000000000000000000000000000000000000000000000000815260040161211090614081565b60405180910390fd5b60005b848490508110156121b85782828281811061213a576121396140a1565b5b9050602002013560066000878785818110612158576121576140a1565b5b905060200201602081019061216d919061350e565b73ffffffffffffffffffffffffffffffffffffffff1673ffffffffffffffffffffffffffffffffffffffff16815260200190815260200160002081905550808060010191505061211c565b5050505050565b6121c76125d0565b600760003373ffffffffffffffffffffffffffffffffffffffff1673ffffffffffffffffffffffffffffffffffffffff16815260200190815260200160002060009054906101000a900460ff16612253576040517f08c379a000000000000000000000000000000000000000000000000000000000815260040161224a906139ad565b60405180910390fd5b60008054906101000a900473ffffffffffffffffffffffffffffffffffffffff1673ffffffffffffffffffffffffffffffffffffffff166375151b63826040518263ffffffff1660e01b81526004016122ac919061364a565b602060405180830381865afa1580156122c9573d6000803e3d6000fd5b505050506040513d601f19601f820116820180604052508101906122ed9190613c78565b61232c576040517f08c379a000000000000000000000000000000000000000000000000000000000815260040161232390613cf1565b60405180910390fd5b6000600860008373ffffffffffffffffffffffffffffffffffffffff1673ffffffffffffffffffffffffffffffffffffffff168152602001908152602001600020549050600081116123b3576040517f08c379a00000000000000000000000000000000000000000000000000000000081526004016123aa9061415e565b60405180910390fd5b8173ffffffffffffffffffffffffffffffffffffffff1663a9059cbb33836040518363ffffffff1660e01b81526004016123ee929190613fd8565b6020604051808303816000875af115801561240d573d6000803e3d6000fd5b505050506040513d601f19601f820116820180604052508101906124319190613c78565b612470576040517f08c379a000000000000000000000000000000000000000000000000000000000815260040161246790613d94565b60405180910390fd5b6000600860008473ffffffffffffffffffffffffffffffffffffffff1673ffffffffffffffffffffffffffffffffffffffff168152602001908152602001600020819055508173ffffffffffffffffffffffffffffffffffffffff163373ffffffffffffffffffffffffffffffffffffffff167f87643e0436c867defcc7b4812259dde63cbe46038012cde1457289586e63acca83604051612512919061358a565b60405180910390a350612523612a47565b50565b61252e612a60565b600073ffffffffffffffffffffffffffffffffffffffff168173ffffffffffffffffffffffffffffffffffffffff16036125a05760006040517f1e4fbdf7000000000000000000000000000000000000000000000000000000008152600401612597919061364a565b60405180910390fd5b6125a981612e9e565b50565b60008054906101000a900473ffffffffffffffffffffffffffffffffffffffff1681565b60006125da612feb565b9050600281600001540361261a576040517f3ee5aeb500000000000000000000000000000000000000000000000000000000815260040160405180910390fd5b6002816000018190555050565b6000811161266a576040517f08c379a000000000000000000000000000000000000000000000000000000000815260040161266190613c2c565b60405180910390fd5b60008054906101000a900473ffffffffffffffffffffffffffffffffffffffff1673ffffffffffffffffffffffffffffffffffffffff166375151b63836040518263ffffffff1660e01b81526004016126c3919061364a565b602060405180830381865afa1580156126e0573d6000803e3d6000fd5b505050506040513d601f19601f820116820180604052508101906127049190613c78565b612743576040517f08c379a000000000000000000000000000000000000000000000000000000000815260040161273a90613cf1565b60405180910390fd5b8173ffffffffffffffffffffffffffffffffffffffff166323b872dd33600160009054906101000a900473ffffffffffffffffffffffffffffffffffffffff16846040518463ffffffff1660e01b81526004016127a293929190613d11565b6020604051808303816000875af11580156127c1573d6000803e3d6000fd5b505050506040513d601f19601f820116820180604052508101906127e59190613c78565b612824576040517f08c379a000000000000000000000000000000000000000000000000000000000815260040161281b90613d94565b60405180910390fd5b6000600d540361284f576012600a61283c91906142b1565b600161284891906142fc565b600d819055505b600061285b8383613013565b905080600b60008573ffffffffffffffffffffffffffffffffffffffff1673ffffffffffffffffffffffffffffffffffffffff16815260200190815260200160002060003373ffffffffffffffffffffffffffffffffffffffff1673ffffffffffffffffffffffffffffffffffffffff16815260200190815260200160002060008282546128e99190613ad4565b9250508190555081600960008573ffffffffffffffffffffffffffffffffffffffff1673ffffffffffffffffffffffffffffffffffffffff168152602001908152602001600020600082825461293f9190613ad4565b9250508190555080600a60008573ffffffffffffffffffffffffffffffffffffffff1673ffffffffffffffffffffffffffffffffffffffff16815260200190815260200160002060008282546129959190613ad4565b925050819055508273ffffffffffffffffffffffffffffffffffffffff163373ffffffffffffffffffffffffffffffffffffffff167ff09a5fa3195e3e263d45424b2cdacfd0eea5dd2fdf46f31140babc0fde60abb984600960008873ffffffffffffffffffffffffffffffffffffffff1673ffffffffffffffffffffffffffffffffffffffff16815260200190815260200160002054604051612a3a929190613612565b60405180910390a3505050565b6000612a51612feb565b90506001816000018190555050565b612a68613191565b73ffffffffffffffffffffffffffffffffffffffff16612a8661194b565b73ffffffffffffffffffffffffffffffffffffffff1614612ae557612aa9613191565b6040517f118cdaa7000000000000000000000000000000000000000000000000000000008152600401612adc919061364a565b60405180910390fd5b565b60008111612b2a576040517f08c379a0000000000000000000000000000000000000000000000000000000008152600401612b2190613c2c565b60405180910390fd5b80600b60008473ffffffffffffffffffffffffffffffffffffffff1673ffffffffffffffffffffffffffffffffffffffff16815260200190815260200160002060003373ffffffffffffffffffffffffffffffffffffffff1673ffffffffffffffffffffffffffffffffffffffff168152602001908152602001600020541015612be9576040517f08c379a0000000000000000000000000000000000000000000000000000000008152600401612be090613e6c565b60405180910390fd5b6000612bf58383613199565b905081600b60008573ffffffffffffffffffffffffffffffffffffffff1673ffffffffffffffffffffffffffffffffffffffff16815260200190815260200160002060003373ffffffffffffffffffffffffffffffffffffffff1673ffffffffffffffffffffffffffffffffffffffff1681526020019081526020016000206000828254612c839190614001565b9250508190555081600a60008573ffffffffffffffffffffffffffffffffffffffff1673ffffffffffffffffffffffffffffffffffffffff1681526020019081526020016000206000828254612cd99190614001565b9250508190555080600960008573ffffffffffffffffffffffffffffffffffffffff1673ffffffffffffffffffffffffffffffffffffffff1681526020019081526020016000206000828254612d2f9190614001565b925050819055508273ffffffffffffffffffffffffffffffffffffffff1663a9059cbb33836040518363ffffffff1660e01b8152600401612d71929190613fd8565b6020604051808303816000875af1158015612d90573d6000803e3d6000fd5b505050506040513d601f19601f82011682018060405250810190612db49190613c78565b612df3576040517f08c379a0000000000000000000000000000000000000000000000000000000008152600401612dea90613d94565b60405180910390fd5b8273ffffffffffffffffffffffffffffffffffffffff163373ffffffffffffffffffffffffffffffffffffffff167fa820b63c87193288cc94a3f317ea876d89c6dd3f158665fad57874409e75a8bc83600960008873ffffffffffffffffffffffffffffffffffffffff1673ffffffffffffffffffffffffffffffffffffffff16815260200190815260200160002054604051612e91929190613612565b60405180910390a3505050565b6000612ea8612fc3565b905060008160000160009054906101000a900473ffffffffffffffffffffffffffffffffffffffff169050828260000160006101000a81548173ffffffffffffffffffffffffffffffffffffffff021916908373ffffffffffffffffffffffffffffffffffffffff1602179055508273ffffffffffffffffffffffffffffffffffffffff168173ffffffffffffffffffffffffffffffffffffffff167f8be0079c531659141344cd1fd0a4f28419497f9722a3daafe3b4186f6b6457e060405160405180910390a3505050565b60007ff0c57e16840df040f15088dc2f81fe391c3923bec73e23a9662efc9c229c6a00905090565b612fa561331f565b612fae8161335f565b50565b612fb961331f565b612fc16133e5565b565b60007f9016d09d72d40fdae2fd8ceac6b6234c7706214fd39c1cd1e609a0528c199300905090565b60007f9b779b17422d0df92223018b32b4d1fa46e071723d6817e2486d003becc55f00905090565b600080600260009054906101000a900473ffffffffffffffffffffffffffffffffffffffff1673ffffffffffffffffffffffffffffffffffffffff166389b94ea2600660008773ffffffffffffffffffffffffffffffffffffffff1673ffffffffffffffffffffffffffffffffffffffff168152602001908152602001600020546040518263ffffffff1660e01b81526004016130b0919061358a565b608060405180830381865afa1580156130cd573d6000803e3d6000fd5b505050506040513d601f19601f820116820180604052508101906130f1919061445c565b9050600081606001518461310591906142fc565b9050816020015160121061315157600d54826020015160126131279190614001565b600a61313391906142b1565b8261313e91906142fc565b61314891906144b8565b9250505061318b565b600d54601283602001516131659190614001565b600a61317191906142b1565b8261317c91906144b8565b61318691906144b8565b925050505b92915050565b600033905090565b600080600260009054906101000a900473ffffffffffffffffffffffffffffffffffffffff1673ffffffffffffffffffffffffffffffffffffffff166389b94ea2600660008773ffffffffffffffffffffffffffffffffffffffff1673ffffffffffffffffffffffffffffffffffffffff168152602001908152602001600020546040518263ffffffff1660e01b8152600401613236919061358a565b608060405180830381865afa158015613253573d6000803e3d6000fd5b505050506040513d601f19601f82011682018060405250810190613277919061445c565b905080602001516012106132d15780606001518160200151601261329b9190614001565b600a6132a791906142b1565b600d54856132b591906142fc565b6132bf91906144b8565b6132c991906144b8565b915050613319565b8060600151601282602001516132e79190614001565b600a6132f391906142b1565b600d548561330191906142fc565b61330b91906142fc565b61331591906144b8565b9150505b92915050565b613327613406565b61335d576040517fd7e6bcf800000000000000000000000000000000000000000000000000000000815260040160405180910390fd5b565b61336761331f565b600073ffffffffffffffffffffffffffffffffffffffff168173ffffffffffffffffffffffffffffffffffffffff16036133d95760006040517f1e4fbdf70000000000000000000000000000000000000000000000000000000081526004016133d0919061364a565b60405180910390fd5b6133e281612e9e565b50565b6133ed61331f565b60006133f7612feb565b90506001816000018190555050565b6000613410612f75565b60000160089054906101000a900460ff16905090565b6000604051905090565b600080fd5b600080fd5b600073ffffffffffffffffffffffffffffffffffffffff82169050919050565b60006134658261343a565b9050919050565b6134758161345a565b811461348057600080fd5b50565b6000813590506134928161346c565b92915050565b6000819050919050565b6134ab81613498565b81146134b657600080fd5b50565b6000813590506134c8816134a2565b92915050565b600080604083850312156134e5576134e4613430565b5b60006134f385828601613483565b9250506020613504858286016134b9565b9150509250929050565b60006020828403121561352457613523613430565b5b600061353284828501613483565b91505092915050565b6000806040838503121561355257613551613430565b5b6000613560858286016134b9565b9250506020613571858286016134b9565b9150509250929050565b61358481613498565b82525050565b600060208201905061359f600083018461357b565b92915050565b6000602082840312156135bb576135ba613430565b5b60006135c9848285016134b9565b91505092915050565b600080604083850312156135e9576135e8613430565b5b60006135f785828601613483565b925050602061360885828601613483565b9150509250929050565b6000604082019050613627600083018561357b565b613634602083018461357b565b9392505050565b6136448161345a565b82525050565b600060208201905061365f600083018461363b565b92915050565b600080600080600080600060e0888a03121561368457613683613430565b5b60006136928a828b01613483565b97505060206136a38a828b01613483565b96505060406136b48a828b01613483565b95505060606136c58a828b016134b9565b94505060806136d68a828b016134b9565b93505060a06136e78a828b016134b9565b92505060c06136f88a828b01613483565b91505092959891949750929550565b600080fd5b600080fd5b600080fd5b60008083601f84011261372c5761372b613707565b5b8235905067ffffffffffffffff8111156137495761374861370c565b5b60208301915083602082028301111561376557613764613711565b5b9250929050565b60008083601f84011261378257613781613707565b5b8235905067ffffffffffffffff81111561379f5761379e61370c565b5b6020830191508360208202830111156137bb576137ba613711565b5b9250929050565b600080600080604085870312156137dc576137db613430565b5b600085013567ffffffffffffffff8111156137fa576137f9613435565b5b61380687828801613716565b9450945050602085013567ffffffffffffffff81111561382957613828613435565b5b6138358782880161376c565b925092505092959194509250565b60008115159050919050565b61385881613843565b82525050565b6000602082019050613873600083018461384f565b92915050565b60008083601f84011261388f5761388e613707565b5b8235905067ffffffffffffffff8111156138ac576138ab61370c565b5b6020830191508360208202830111156138c8576138c7613711565b5b9250929050565b600080600080604085870312156138e9576138e8613430565b5b600085013567ffffffffffffffff81111561390757613906613435565b5b61391387828801613716565b9450945050602085013567ffffffffffffffff81111561393657613935613435565b5b61394287828801613879565b925092505092959194509250565b600082825260208201905092915050565b7f4e6f74204c502070726f76696465720000000000000000000000000000000000600082015250565b6000613997600f83613950565b91506139a282613961565b602082019050919050565b600060208201905081810360008301526139c68161398a565b9050919050565b7f496e76616c696420636f6c642077616c6c657420616464726573730000000000600082015250565b6000613a03601b83613950565b9150613a0e826139cd565b602082019050919050565b60006020820190508181036000830152613a32816139f6565b9050919050565b7f4f6e6c79207661756c7400000000000000000000000000000000000000000000600082015250565b6000613a6f600a83613950565b9150613a7a82613a39565b602082019050919050565b60006020820190508181036000830152613a9e81613a62565b9050919050565b7f4e487b7100000000000000000000000000000000000000000000000000000000600052601160045260246000fd5b6000613adf82613498565b9150613aea83613498565b9250828201905080821115613b0257613b01613aa5565b5b92915050565b7f496e76616c6964204e4156207072696365000000000000000000000000000000600082015250565b6000613b3e601183613950565b9150613b4982613b08565b602082019050919050565b60006020820190508181036000830152613b6d81613b31565b9050919050565b7f5769746864726177616c2064656c6179206e6f74206d65740000000000000000600082015250565b6000613baa601883613950565b9150613bb582613b74565b602082019050919050565b60006020820190508181036000830152613bd981613b9d565b9050919050565b7f416d6f756e74206d7573742062652067726561746572207468616e207a65726f600082015250565b6000613c16602083613950565b9150613c2182613be0565b602082019050919050565b60006020820190508181036000830152613c4581613c09565b9050919050565b613c5581613843565b8114613c6057600080fd5b50565b600081519050613c7281613c4c565b92915050565b600060208284031215613c8e57613c8d613430565b5b6000613c9c84828501613c63565b91505092915050565b7f546f6b656e206e6f7420737570706f7274656400000000000000000000000000600082015250565b6000613cdb601383613950565b9150613ce682613ca5565b602082019050919050565b60006020820190508181036000830152613d0a81613cce565b9050919050565b6000606082019050613d26600083018661363b565b613d33602083018561363b565b613d40604083018461357b565b949350505050565b7f5472616e73666572206661696c65640000000000000000000000000000000000600082015250565b6000613d7e600f83613950565b9150613d8982613d48565b602082019050919050565b60006020820190508181036000830152613dad81613d71565b9050919050565b7f496e76616c6964207661756c7420616464726573730000000000000000000000600082015250565b6000613dea601583613950565b9150613df582613db4565b602082019050919050565b60006020820190508181036000830152613e1981613ddd565b9050919050565b7f496e73756666696369656e742066756e64000000000000000000000000000000600082015250565b6000613e56601183613950565b9150613e6182613e20565b602082019050919050565b60006020820190508181036000830152613e8581613e49565b9050919050565b7f496e76616c6964206f7261636c65206164647265737300000000000000000000600082015250565b6000613ec2601683613950565b9150613ecd82613e8c565b602082019050919050565b60006020820190508181036000830152613ef181613eb5565b9050919050565b6000819050919050565b600067ffffffffffffffff82169050919050565b6000819050919050565b6000613f3b613f36613f3184613ef8565b613f16565b613f02565b9050919050565b613f4b81613f20565b82525050565b6000602082019050613f666000830184613f42565b92915050565b7f496e73756666696369656e74204c5020616d6f756e7400000000000000000000600082015250565b6000613fa2601683613950565b9150613fad82613f6c565b602082019050919050565b60006020820190508181036000830152613fd181613f95565b9050919050565b6000604082019050613fed600083018561363b565b613ffa602083018461357b565b9392505050565b600061400c82613498565b915061401783613498565b925082820390508181111561402f5761402e613aa5565b5b92915050565b7f496e76616c696420696e70757400000000000000000000000000000000000000600082015250565b600061406b600d83613950565b915061407682614035565b602082019050919050565b6000602082019050818103600083015261409a8161405e565b9050919050565b7f4e487b7100000000000000000000000000000000000000000000000000000000600052603260045260246000fd5b6000813590506140df81613c4c565b92915050565b6000602082840312156140fb576140fa613430565b5b6000614109848285016140d0565b91505092915050565b7f4e6f206c697175696469747920746f2077697468647261770000000000000000600082015250565b6000614148601883613950565b915061415382614112565b602082019050919050565b600060208201905081810360008301526141778161413b565b9050919050565b60008160011c9050919050565b6000808291508390505b60018511156141d5578086048111156141b1576141b0613aa5565b5b60018516156141c05780820291505b80810290506141ce8561417e565b9450614195565b94509492505050565b6000826141ee57600190506142aa565b816141fc57600090506142aa565b8160018114614212576002811461421c5761424b565b60019150506142aa565b60ff84111561422e5761422d613aa5565b5b8360020a91508482111561424557614244613aa5565b5b506142aa565b5060208310610133831016604e8410600b84101617156142805782820a90508381111561427b5761427a613aa5565b5b6142aa565b61428d848484600161418b565b925090508184048111156142a4576142a3613aa5565b5b81810290505b9392505050565b60006142bc82613498565b91506142c783613498565b92506142f47fffffffffffffffffffffffffffffffffffffffffffffffffffffffffffffffff84846141de565b905092915050565b600061430782613498565b915061431283613498565b925082820261432081613498565b9150828204841483151761433757614336613aa5565b5b5092915050565b600080fd5b6000601f19601f8301169050919050565b7f4e487b7100000000000000000000000000000000000000000000000000000000600052604160045260246000fd5b61438c82614343565b810181811067ffffffffffffffff821117156143ab576143aa614354565b5b80604052505050565b60006143be613426565b90506143ca8282614383565b919050565b6000815190506143de816134a2565b92915050565b6000608082840312156143fa576143f961433e565b5b61440460806143b4565b90506000614414848285016143cf565b6000830152506020614428848285016143cf565b602083015250604061443c848285016143cf565b6040830152506060614450848285016143cf565b60608301525092915050565b60006080828403121561447257614471613430565b5b6000614480848285016143e4565b91505092915050565b7f4e487b7100000000000000000000000000000000000000000000000000000000600052601260045260246000fd5b60006144c382613498565b91506144ce83613498565b9250826144de576144dd614489565b5b82820490509291505056fea2646970667358221220b1893ab51da9c35c2119f225b5c4ce6d3dca2bb06e282b031277ac3a64771ff764736f6c63430008180033",
  "linkReferences": {},
  "deployedLinkReferences": {}
}