{
  "_format": "hh-sol-artifact-1",
  "contractName": "LpProvider",
  "sourceName": "contracts/0xVault/LpProvider.sol",
  "abi": [
    {
      "inputs": [],
      "name": "InvalidInitialization",
      "type": "error"
    },
    {
      "inputs": [],
      "name": "NotInitializing",
      "type": "error"
    },
    {
      "inputs": [
        {
          "internalType": "address",
          "name": "owner",
          "type": "address"
        }
      ],
      "name": "OwnableInvalidOwner",
      "type": "error"
    },
    {
      "inputs": [
        {
          "internalType": "address",
          "name": "account",
          "type": "address"
        }
      ],
      "name": "OwnableUnauthorizedAccount",
      "type": "error"
    },
    {
      "inputs": [],
      "name": "ReentrancyGuardReentrantCall",
      "type": "error"
    },
    {
      "anonymous": false,
      "inputs": [
        {
          "indexed": true,
          "internalType": "address",
          "name": "newColdWallet",
          "type": "address"
        }
      ],
      "name": "ColdWalletChanged",
      "type": "event"
    },
    {
      "anonymous": false,
      "inputs": [
        {
          "indexed": true,
          "internalType": "address",
          "name": "user",
          "type": "address"
        },
        {
          "indexed": true,
          "internalType": "address",
          "name": "token",
          "type": "address"
        },
        {
          "indexed": false,
          "internalType": "uint256",
          "name": "amount",
          "type": "uint256"
        },
        {
          "indexed": false,
          "internalType": "uint256",
          "name": "navAmount",
          "type": "uint256"
        },
        {
          "indexed": false,
          "internalType": "uint256",
          "name": "fundAmount",
          "type": "uint256"
        }
      ],
      "name": "DepositFund",
      "type": "event"
    },
    {
      "anonymous": false,
      "inputs": [
        {
          "indexed": false,
          "internalType": "uint256",
          "name": "newStartEpochTimestamp",
          "type": "uint256"
        },
        {
          "indexed": false,
          "internalType": "uint256",
          "name": "newEpochPeriod",
          "type": "uint256"
        }
      ],
      "name": "EpochParametersChanged",
      "type": "event"
    },
    {
      "anonymous": false,
      "inputs": [
        {
          "indexed": false,
          "internalType": "uint64",
          "name": "version",
          "type": "uint64"
        }
      ],
      "name": "Initialized",
      "type": "event"
    },
    {
      "anonymous": false,
      "inputs": [
        {
          "indexed": true,
          "internalType": "address",
          "name": "user",
          "type": "address"
        },
        {
          "indexed": true,
          "internalType": "address",
          "name": "token",
          "type": "address"
        },
        {
          "indexed": false,
          "internalType": "uint256",
          "name": "amount",
          "type": "uint256"
        }
      ],
      "name": "LPProvided",
      "type": "event"
    },
    {
      "anonymous": false,
      "inputs": [
        {
          "indexed": true,
          "internalType": "address",
          "name": "lpProvider",
          "type": "address"
        },
        {
          "indexed": false,
          "internalType": "bool",
          "name": "isProvider",
          "type": "bool"
        }
      ],
      "name": "LPProviderStatusChanged",
      "type": "event"
    },
    {
      "anonymous": false,
      "inputs": [
        {
          "indexed": true,
          "internalType": "address",
          "name": "user",
          "type": "address"
        },
        {
          "indexed": true,
          "internalType": "address",
          "name": "token",
          "type": "address"
        },
        {
          "indexed": false,
          "internalType": "uint256",
          "name": "amount",
          "type": "uint256"
        }
      ],
      "name": "LPWithdrawn",
      "type": "event"
    },
    {
      "anonymous": false,
      "inputs": [
        {
          "indexed": false,
          "internalType": "uint256",
          "name": "newPrice",
          "type": "uint256"
        }
      ],
      "name": "NAVPriceUpdated",
      "type": "event"
    },
    {
      "anonymous": false,
      "inputs": [
        {
          "indexed": true,
          "internalType": "address",
          "name": "newOracle",
          "type": "address"
        }
      ],
      "name": "OracleChanged",
      "type": "event"
    },
    {
      "anonymous": false,
      "inputs": [
        {
          "indexed": true,
          "internalType": "address",
          "name": "previousOwner",
          "type": "address"
        },
        {
          "indexed": true,
          "internalType": "address",
          "name": "newOwner",
          "type": "address"
        }
      ],
      "name": "OwnershipTransferred",
      "type": "event"
    },
    {
      "anonymous": false,
      "inputs": [
        {
          "indexed": true,
          "internalType": "address",
          "name": "token",
          "type": "address"
        },
        {
          "indexed": false,
          "internalType": "uint256",
          "name": "amount",
          "type": "uint256"
        }
      ],
      "name": "RewardDepositedForMarketMaker",
      "type": "event"
    },
    {
      "anonymous": false,
      "inputs": [
        {
          "indexed": true,
          "internalType": "address",
          "name": "newVault",
          "type": "address"
        }
      ],
      "name": "VaultChanged",
      "type": "event"
    },
    {
      "anonymous": false,
      "inputs": [
        {
          "indexed": true,
          "internalType": "address",
          "name": "user",
          "type": "address"
        },
        {
          "indexed": true,
          "internalType": "address",
          "name": "token",
          "type": "address"
        },
        {
          "indexed": false,
          "internalType": "uint256",
          "name": "amount",
          "type": "uint256"
        },
        {
          "indexed": false,
          "internalType": "uint256",
          "name": "navAmount",
          "type": "uint256"
        },
        {
          "indexed": false,
          "internalType": "uint256",
          "name": "fundAmount",
          "type": "uint256"
        }
      ],
      "name": "WithdrawFund",
      "type": "event"
    },
    {
      "anonymous": false,
      "inputs": [
        {
          "indexed": true,
          "internalType": "address",
          "name": "user",
          "type": "address"
        },
        {
          "indexed": true,
          "internalType": "address",
          "name": "token",
          "type": "address"
        },
        {
          "indexed": false,
          "internalType": "uint256",
          "name": "navAmount",
          "type": "uint256"
        },
        {
          "indexed": false,
          "internalType": "uint256",
          "name": "timestamp",
          "type": "uint256"
        }
      ],
      "name": "WithdrawRequested",
      "type": "event"
    },
    {
      "anonymous": false,
      "inputs": [
        {
          "indexed": false,
          "internalType": "uint256",
          "name": "newWithdrawalDelayTime",
          "type": "uint256"
        }
      ],
      "name": "WithdrawalDelayTimeChanged",
      "type": "event"
    },
    {
      "inputs": [],
      "name": "NAV_DECIMALS",
      "outputs": [
        {
          "internalType": "uint256",
          "name": "",
          "type": "uint256"
        }
      ],
      "stateMutability": "view",
      "type": "function"
    },
    {
      "inputs": [
        {
          "internalType": "address",
          "name": "token",
          "type": "address"
        },
        {
          "internalType": "uint256",
          "name": "amount",
          "type": "uint256"
        }
      ],
      "name": "claimProfit",
      "outputs": [],
      "stateMutability": "nonpayable",
      "type": "function"
    },
    {
      "inputs": [
        {
          "internalType": "address",
          "name": "",
          "type": "address"
        },
        {
          "internalType": "address",
          "name": "",
          "type": "address"
        }
      ],
      "name": "claimableAmount",
      "outputs": [
        {
          "internalType": "uint256",
          "name": "",
          "type": "uint256"
        }
      ],
      "stateMutability": "view",
      "type": "function"
    },
    {
      "inputs": [],
      "name": "coldWallet",
      "outputs": [
        {
          "internalType": "address",
          "name": "",
          "type": "address"
        }
      ],
      "stateMutability": "view",
      "type": "function"
    },
    {
      "inputs": [
        {
          "internalType": "address",
          "name": "user",
          "type": "address"
        },
        {
          "internalType": "address",
          "name": "token",
          "type": "address"
        },
        {
          "internalType": "uint256",
          "name": "amount",
          "type": "uint256"
        }
      ],
      "name": "decreaseLpProvidedAmount",
      "outputs": [],
      "stateMutability": "nonpayable",
      "type": "function"
    },
    {
      "inputs": [
        {
          "internalType": "address",
          "name": "token",
          "type": "address"
        },
        {
          "internalType": "uint256",
          "name": "amount",
          "type": "uint256"
        }
      ],
      "name": "depositFund",
      "outputs": [],
      "stateMutability": "nonpayable",
      "type": "function"
    },
    {
      "inputs": [
        {
          "internalType": "address",
          "name": "token",
          "type": "address"
        },
        {
          "internalType": "uint256",
          "name": "amount",
          "type": "uint256"
        }
      ],
      "name": "depositRewardForMarketMaker",
      "outputs": [],
      "stateMutability": "nonpayable",
      "type": "function"
    },
    {
      "inputs": [],
      "name": "epochPeriod",
      "outputs": [
        {
          "internalType": "uint256",
          "name": "",
          "type": "uint256"
        }
      ],
      "stateMutability": "view",
      "type": "function"
    },
    {
      "inputs": [
        {
          "internalType": "address",
          "name": "",
          "type": "address"
        }
      ],
      "name": "fundAmount",
      "outputs": [
        {
          "internalType": "uint256",
          "name": "",
          "type": "uint256"
        }
      ],
      "stateMutability": "view",
      "type": "function"
    },
    {
      "inputs": [
        {
          "internalType": "address",
          "name": "token",
          "type": "address"
        },
        {
          "internalType": "uint256",
          "name": "amount",
          "type": "uint256"
        }
      ],
      "name": "increaseLpProvidedAmount",
      "outputs": [],
      "stateMutability": "nonpayable",
      "type": "function"
    },
    {
      "inputs": [
        {
          "internalType": "address",
          "name": "_owner",
          "type": "address"
        },
        {
          "internalType": "address",
          "name": "_vault",
          "type": "address"
        },
        {
          "internalType": "address",
          "name": "_oracle",
          "type": "address"
        },
        {
          "internalType": "uint256",
          "name": "_epochPeriod",
          "type": "uint256"
        },
        {
          "internalType": "uint256",
          "name": "_startEpochTimestamp",
          "type": "uint256"
        },
        {
          "internalType": "uint256",
          "name": "_withdrawalDelayTime",
          "type": "uint256"
        },
        {
          "internalType": "address",
          "name": "_coldWallet",
          "type": "address"
        }
      ],
      "name": "initialize",
      "outputs": [],
      "stateMutability": "nonpayable",
      "type": "function"
    },
    {
      "inputs": [
        {
          "internalType": "address",
          "name": "",
          "type": "address"
        }
      ],
      "name": "isLPProvider",
      "outputs": [
        {
          "internalType": "bool",
          "name": "",
          "type": "bool"
        }
      ],
      "stateMutability": "view",
      "type": "function"
    },
    {
      "inputs": [
        {
          "internalType": "address",
          "name": "",
          "type": "address"
        }
      ],
      "name": "lpProvidedAmount",
      "outputs": [
        {
          "internalType": "uint256",
          "name": "",
          "type": "uint256"
        }
      ],
      "stateMutability": "view",
      "type": "function"
    },
    {
      "inputs": [],
      "name": "navPrice",
      "outputs": [
        {
          "internalType": "uint256",
          "name": "",
          "type": "uint256"
        }
      ],
      "stateMutability": "view",
      "type": "function"
    },
    {
      "inputs": [],
      "name": "oracle",
      "outputs": [
        {
          "internalType": "address",
          "name": "",
          "type": "address"
        }
      ],
      "stateMutability": "view",
      "type": "function"
    },
    {
      "inputs": [],
      "name": "owner",
      "outputs": [
        {
          "internalType": "address",
          "name": "",
          "type": "address"
        }
      ],
      "stateMutability": "view",
      "type": "function"
    },
    {
      "inputs": [
        {
          "internalType": "address",
          "name": "",
          "type": "address"
        }
      ],
      "name": "pairId",
      "outputs": [
        {
          "internalType": "uint256",
          "name": "",
          "type": "uint256"
        }
      ],
      "stateMutability": "view",
      "type": "function"
    },
    {
      "inputs": [
        {
          "internalType": "address",
          "name": "token",
          "type": "address"
        },
        {
          "internalType": "uint256",
          "name": "amount",
          "type": "uint256"
        }
      ],
      "name": "provideLiquidity",
      "outputs": [],
      "stateMutability": "nonpayable",
      "type": "function"
    },
    {
      "inputs": [],
      "name": "renounceOwnership",
      "outputs": [],
      "stateMutability": "nonpayable",
      "type": "function"
    },
    {
      "inputs": [
        {
          "internalType": "address",
          "name": "",
          "type": "address"
        },
        {
          "internalType": "address",
          "name": "",
          "type": "address"
        }
      ],
      "name": "reqWithdraws",
      "outputs": [
        {
          "internalType": "uint256",
          "name": "navAmount",
          "type": "uint256"
        },
        {
          "internalType": "uint256",
          "name": "timestamp",
          "type": "uint256"
        }
      ],
      "stateMutability": "view",
      "type": "function"
    },
    {
      "inputs": [
        {
          "internalType": "address",
          "name": "token",
          "type": "address"
        },
        {
          "internalType": "uint256",
          "name": "navsAmount",
          "type": "uint256"
        }
      ],
      "name": "requestWithdrawFund",
      "outputs": [],
      "stateMutability": "nonpayable",
      "type": "function"
    },
    {
      "inputs": [
        {
          "internalType": "address",
          "name": "_coldWallet",
          "type": "address"
        }
      ],
      "name": "setColdWallet",
      "outputs": [],
      "stateMutability": "nonpayable",
      "type": "function"
    },
    {
      "inputs": [
        {
          "internalType": "uint256",
          "name": "_startEpochTimestamp",
          "type": "uint256"
        },
        {
          "internalType": "uint256",
          "name": "_epochPeriod",
          "type": "uint256"
        }
      ],
      "name": "setEpochParameters",
      "outputs": [],
      "stateMutability": "nonpayable",
      "type": "function"
    },
    {
      "inputs": [
        {
          "internalType": "address[]",
          "name": "lpProvider",
          "type": "address[]"
        },
        {
          "internalType": "bool[]",
          "name": "isProvider",
          "type": "bool[]"
        }
      ],
      "name": "setLPProvider",
      "outputs": [],
      "stateMutability": "nonpayable",
      "type": "function"
    },
    {
      "inputs": [
        {
          "internalType": "uint256",
          "name": "newPrice",
          "type": "uint256"
        }
      ],
      "name": "setNAVPrice",
      "outputs": [],
      "stateMutability": "nonpayable",
      "type": "function"
    },
    {
      "inputs": [
        {
          "internalType": "address",
          "name": "_oracle",
          "type": "address"
        }
      ],
      "name": "setOracle",
      "outputs": [],
      "stateMutability": "nonpayable",
      "type": "function"
    },
    {
      "inputs": [
        {
          "internalType": "address[]",
          "name": "tokens",
          "type": "address[]"
        },
        {
          "internalType": "uint256[]",
          "name": "ids",
          "type": "uint256[]"
        }
      ],
      "name": "setPairIDForTokens",
      "outputs": [],
      "stateMutability": "nonpayable",
      "type": "function"
    },
    {
      "inputs": [
        {
          "internalType": "address",
          "name": "_vault",
          "type": "address"
        }
      ],
      "name": "setVault",
      "outputs": [],
      "stateMutability": "nonpayable",
      "type": "function"
    },
    {
      "inputs": [
        {
          "internalType": "uint256",
          "name": "_withdrawalDelayTime",
          "type": "uint256"
        }
      ],
      "name": "setWithdrawalDelayTime",
      "outputs": [],
      "stateMutability": "nonpayable",
      "type": "function"
    },
    {
      "inputs": [],
      "name": "startEpochTimestamp",
      "outputs": [
        {
          "internalType": "uint256",
          "name": "",
          "type": "uint256"
        }
      ],
      "stateMutability": "view",
      "type": "function"
    },
    {
      "inputs": [
        {
          "internalType": "address",
          "name": "",
          "type": "address"
        }
      ],
      "name": "totalNAVs",
      "outputs": [
        {
          "internalType": "uint256",
          "name": "",
          "type": "uint256"
        }
      ],
      "stateMutability": "view",
      "type": "function"
    },
    {
      "inputs": [
        {
          "internalType": "address",
          "name": "newOwner",
          "type": "address"
        }
      ],
      "name": "transferOwnership",
      "outputs": [],
      "stateMutability": "nonpayable",
      "type": "function"
    },
    {
      "inputs": [
        {
          "internalType": "address",
          "name": "",
          "type": "address"
        },
        {
          "internalType": "address",
          "name": "",
          "type": "address"
        }
      ],
      "name": "userNAVs",
      "outputs": [
        {
          "internalType": "uint256",
          "name": "",
          "type": "uint256"
        }
      ],
      "stateMutability": "view",
      "type": "function"
    },
    {
      "inputs": [],
      "name": "vault",
      "outputs": [
        {
          "internalType": "address",
          "name": "",
          "type": "address"
        }
      ],
      "stateMutability": "view",
      "type": "function"
    },
    {
      "inputs": [
        {
          "internalType": "address",
          "name": "token",
          "type": "address"
        }
      ],
      "name": "withdrawAllLiquidity",
      "outputs": [],
      "stateMutability": "nonpayable",
      "type": "function"
    },
    {
      "inputs": [
        {
          "internalType": "address",
          "name": "token",
          "type": "address"
        }
      ],
      "name": "withdrawFund",
      "outputs": [],
      "stateMutability": "nonpayable",
      "type": "function"
    },
    {
      "inputs": [],
      "name": "withdrawalDelayTime",
      "outputs": [
        {
          "internalType": "uint256",
          "name": "",
          "type": "uint256"
        }
      ],
      "stateMutability": "view",
      "type": "function"
    }
  ],
  "bytecode": "0x6080604052348015600f57600080fd5b506125a28061001f6000396000f3fe608060405234801561001057600080fd5b50600436106101b65760003560e01c8062c15bde146101bb57806306087e5b146101d057806306ae63ae146101e3578063125d5d71146101f6578063195bac6214610212578063251627871461022557806326e315161461023857806335e3212c146102785780633a74595c146102985780633f596155146102a15780635376f1a3146102cc5780635fea6120146102df57806363c0ec03146102f25780636817031b146103125780636aa9f686146103255780636be13c92146103385780636e4626db146103585780636ef178bf1461036b578063715018a6146103965780637adbf9731461039e5780637dc0d1d0146103b15780637e41ac17146103c45780638754bbc6146103cc5780638da5cb5b146103df5780639423b55e146103e7578063a2e8d38b146103fa578063b3982cb81461040d578063b5b7a18414610416578063b82ffdf91461041f578063cd1d89b01461043f578063d7da2c5014610452578063d8fc2f9414610472578063eabe600e146104a5578063ed45f39d146104b8578063f0f998e9146104cb578063f2fde38b146104de578063fbfa77cf146104f1575b600080fd5b6101ce6101c9366004611e90565b610504565b005b6101ce6101de366004611eba565b61055a565b6101ce6101f1366004611edc565b6105ee565b6101ff60035481565b6040519081526020015b60405180910390f35b6101ce610220366004611e90565b61062c565b6101ce610233366004611efe565b6106b6565b61026a610246366004611f17565b600c6020908152600092835260408084209091529082529020805460019091015482565b604051610209929190611f4a565b6101ff610286366004611eba565b60086020526000908152604090205481565b6101ff60055481565b6101ff6102af366004611f17565b600b60209081526000928352604080842090915290825290205481565b6101ce6102da366004611eba565b61073e565b6101ce6102ed366004611e90565b61083c565b6101ff610300366004611eba565b60066020526000908152604090205481565b6101ce610320366004611eba565b610a27565b6101ce610333366004611efe565b610ab3565b60015461034b906001600160a01b031681565b6040516102099190611f58565b6101ce610366366004611e90565b610ade565b6101ff610379366004611f17565b600d60209081526000928352604080842090915290825290205481565b6101ce610bf0565b6101ce6103ac366004611eba565b610c04565b60025461034b906001600160a01b031681565b6101ff601281565b6101ce6103da366004611f6c565b610c93565b61034b610e85565b6101ce6103f5366004611fdd565b610ea0565b6101ce610408366004612065565b610f0b565b6101ff600e5481565b6101ff60045481565b6101ff61042d366004611eba565b60096020526000908152604090205481565b6101ce61044d366004611e90565b611049565b6101ff610460366004611eba565b600a6020526000908152604090205481565b610495610480366004611eba565b60076020526000908152604090205460ff1681565b6040519015158152602001610209565b6101ce6104b3366004612065565b6111fc565b6101ce6104c6366004611e90565b611294565b6101ce6104d9366004611eba565b611419565b6101ce6104ec366004611eba565b611619565b60005461034b906001600160a01b031681565b61050c611654565b3360009081526007602052604090205460ff166105445760405162461bcd60e51b815260040161053b906120d4565b60405180910390fd5b61054e828261168a565b6105566118ee565b5050565b6105626118ff565b6001600160a01b0381166105b65760405162461bcd60e51b815260206004820152601b60248201527a496e76616c696420636f6c642077616c6c6574206164647265737360281b604482015260640161053b565b600180546001600160a01b0319166001600160a01b0383169081179091556040516000805160206124ed83398151915290600090a250565b6105f66118ff565b6003829055600481905560405160008051602061252d833981519152906106209084908490611f4a565b60405180910390a15050565b6000546001600160a01b031633146106565760405162461bcd60e51b815260040161053b906120fd565b6001600160a01b0382166000908152600860205260408120805483929061067e908490612137565b90915550506040518181526001600160a01b03831690309060008051602061248d833981519152906020015b60405180910390a35050565b6106be6118ff565b600081116107025760405162461bcd60e51b8152602060048201526011602482015270496e76616c6964204e415620707269636560781b604482015260640161053b565b600e8190556040518181527fd2676471685fc14d75b2c1388eb8967ecad406b6b349cfdfcb3b7b4dfc36c842906020015b60405180910390a150565b610746611654565b3360009081526007602052604090205460ff166107755760405162461bcd60e51b815260040161053b906120d4565b6001600160a01b0381166000908152600c60209081526040808320338452825291829020825180840190935280548352600101549082018190524210156107f95760405162461bcd60e51b815260206004820152601860248201527715da5d1a191c985dd85b0819195b185e481b9bdd081b595d60421b604482015260640161053b565b6001600160a01b0382166000908152600c602090815260408083203384529091528120818155600101558051610830908390611931565b506108396118ee565b50565b610844611654565b3360009081526007602052604090205460ff166108735760405162461bcd60e51b815260040161053b906120d4565b600081116108935760405162461bcd60e51b815260040161053b9061214a565b6000546040516375151b6360e01b81526001600160a01b03909116906375151b63906108c3908590600401611f58565b602060405180830381865afa1580156108e0573d6000803e3d6000fd5b505050506040513d601f19601f82011682018060405250810190610904919061218d565b6109205760405162461bcd60e51b815260040161053b906121aa565b6040516323b872dd60e01b81526001600160a01b038316906323b872dd90610950903390309086906004016121d7565b6020604051808303816000875af115801561096f573d6000803e3d6000fd5b505050506040513d601f19601f82011682018060405250810190610993919061218d565b6109af5760405162461bcd60e51b815260040161053b906121fb565b6001600160a01b038216600090815260086020526040812080548392906109d7908490612137565b90915550506001600160a01b03821660008181526008602052604090819020549051339160008051602061248d83398151915291610a1791815260200190565b60405180910390a36105566118ee565b610a2f6118ff565b6001600160a01b038116610a7d5760405162461bcd60e51b8152602060048201526015602482015274496e76616c6964207661756c74206164647265737360581b604482015260640161053b565b600080546001600160a01b0319166001600160a01b0383169081178255604051909160008051602061250d83398151915291a250565b610abb6118ff565b600581905560405181815260008051602061254d83398151915290602001610733565b610ae6611654565b3360009081526007602052604090205460ff16610b155760405162461bcd60e51b815260040161053b906120d4565b6001600160a01b0382166000908152600b60209081526040808320338452909152902054811115610b585760405162461bcd60e51b815260040161053b90612224565b600060055442610b689190612137565b60408051808201825284815260208082018481526001600160a01b0388166000818152600c84528581203380835294528590209351845590516001909301929092559151929350917f8fa53c657d42560b16de22b6a3c450f4a27a432c64f8549a2e7084926f2c34ab90610bdf9086908690611f4a565b60405180910390a3506105566118ee565b610bf86118ff565b610c026000611b13565b565b610c0c6118ff565b6001600160a01b038116610c5b5760405162461bcd60e51b8152602060048201526016602482015275496e76616c6964206f7261636c65206164647265737360501b604482015260640161053b565b600280546001600160a01b0319166001600160a01b0383169081179091556040516000805160206124cd83398151915290600090a250565b6000610c9d611b6f565b805490915060ff600160401b82041615906001600160401b0316600081158015610cc45750825b90506000826001600160401b03166001148015610ce05750303b155b905081158015610cee575080155b15610d0c5760405163f92ee8a960e01b815260040160405180910390fd5b84546001600160401b03191660011785558315610d3557845460ff60401b1916600160401b1785555b610d3e8c611b93565b610d46611ba4565b600080546001600160a01b03199081166001600160a01b038e811691821784556002805484168f831617905560048d905560038c905560058b905560018054909316908a1617909155604051909160008051602061250d83398151915291a26040516001600160a01b038b16906000805160206124cd83398151915290600090a260008051602061252d833981519152888a604051610de6929190611f4a565b60405180910390a160405187815260008051602061254d8339815191529060200160405180910390a16040516001600160a01b038716906000805160206124ed83398151915290600090a28315610e7757845460ff60401b19168555604051600181527fc7f505b2f371ae2175ee4913f4499e1f2633a7b5936321eed1cdaeb6115181d29060200160405180910390a15b505050505050505050505050565b600080610e90611bb4565b546001600160a01b031692915050565b6000546001600160a01b03163314610eca5760405162461bcd60e51b815260040161053b906120fd565b6001600160a01b038084166000908152600d6020908152604080832093861683529290529081208054839290610f01908490612137565b9091555050505050565b828114610f2a5760405162461bcd60e51b815260040161053b9061224f565b60005b8381101561104257828282818110610f4757610f47612276565b9050602002016020810190610f5c919061228c565b60076000878785818110610f7257610f72612276565b9050602002016020810190610f879190611eba565b6001600160a01b031681526020810191909152604001600020805460ff1916911515919091179055848482818110610fc157610fc1612276565b9050602002016020810190610fd69190611eba565b6001600160a01b03167f3935342b137d19ff436f616ae14e5ad1acb71b4683facd025b1ef030798b410984848481811061101257611012612276565b9050602002016020810190611027919061228c565b604051901515815260200160405180910390a2600101610f2d565b5050505050565b6110516118ff565b600081116110715760405162461bcd60e51b815260040161053b9061214a565b6000546040516375151b6360e01b81526001600160a01b03909116906375151b63906110a1908590600401611f58565b602060405180830381865afa1580156110be573d6000803e3d6000fd5b505050506040513d601f19601f820116820180604052508101906110e2919061218d565b6110fe5760405162461bcd60e51b815260040161053b906121aa565b6040516323b872dd60e01b81526001600160a01b038316906323b872dd9061112e903390309086906004016121d7565b6020604051808303816000875af115801561114d573d6000803e3d6000fd5b505050506040513d601f19601f82011682018060405250810190611171919061218d565b61118d5760405162461bcd60e51b815260040161053b906121fb565b6001600160a01b038216600090815260096020526040812080548392906111b5908490612137565b90915550506040518181526001600160a01b038316907f7bd42206aa7f89bfe6e3764927e5614e3a12b3badbd573aca37817ea45d6c6f69060200160405180910390a25050565b6112046118ff565b8281146112235760405162461bcd60e51b815260040161053b9061224f565b60005b838110156110425782828281811061124057611240612276565b905060200201356006600087878581811061125d5761125d612276565b90506020020160208101906112729190611eba565b6001600160a01b03168152602081019190915260400160002055600101611226565b6000546001600160a01b031633146112be5760405162461bcd60e51b815260040161053b906120fd565b6001600160a01b0382166000908152600960205260409020548111156112f65760405162461bcd60e51b815260040161053b90612224565b60005460405163a9059cbb60e01b81526001600160a01b038481169263a9059cbb9261132a929091169085906004016122a9565b6020604051808303816000875af1158015611349573d6000803e3d6000fd5b505050506040513d601f19601f8201168201806040525081019061136d919061218d565b6113895760405162461bcd60e51b815260040161053b906121fb565b6001600160a01b038216600090815260086020526040812080548392906113b19084906122c2565b9091555050336000908152600d602090815260408083206001600160a01b0386168452909152812080548392906113e99084906122c2565b90915550506040518181526001600160a01b0383169030906000805160206124ad833981519152906020016106aa565b611421611654565b3360009081526007602052604090205460ff166114505760405162461bcd60e51b815260040161053b906120d4565b6000546040516375151b6360e01b81526001600160a01b03909116906375151b6390611480908490600401611f58565b602060405180830381865afa15801561149d573d6000803e3d6000fd5b505050506040513d601f19601f820116820180604052508101906114c1919061218d565b6114dd5760405162461bcd60e51b815260040161053b906121aa565b6001600160a01b0381166000908152600860205260409020548061153e5760405162461bcd60e51b81526020600482015260186024820152774e6f206c697175696469747920746f20776974686472617760401b604482015260640161053b565b60405163a9059cbb60e01b81526001600160a01b0383169063a9059cbb9061156c90339085906004016122a9565b6020604051808303816000875af115801561158b573d6000803e3d6000fd5b505050506040513d601f19601f820116820180604052508101906115af919061218d565b6115cb5760405162461bcd60e51b815260040161053b906121fb565b6001600160a01b038216600081815260086020526040808220919091555133906000805160206124ad833981519152906116089085815260200190565b60405180910390a3506108396118ee565b6116216118ff565b6001600160a01b03811661164b576000604051631e4fbdf760e01b815260040161053b9190611f58565b61083981611b13565b600061165e611bd8565b80549091506001190161168457604051633ee5aeb560e01b815260040160405180910390fd5b60029055565b600081116116aa5760405162461bcd60e51b815260040161053b9061214a565b6000546040516375151b6360e01b81526001600160a01b03909116906375151b63906116da908590600401611f58565b602060405180830381865afa1580156116f7573d6000803e3d6000fd5b505050506040513d601f19601f8201168201806040525081019061171b919061218d565b6117375760405162461bcd60e51b815260040161053b906121aa565b6001546040516323b872dd60e01b81526001600160a01b03808516926323b872dd9261176b923392169086906004016121d7565b6020604051808303816000875af115801561178a573d6000803e3d6000fd5b505050506040513d601f19601f820116820180604052508101906117ae919061218d565b6117ca5760405162461bcd60e51b815260040161053b906121fb565b600e546000036117ef576117e06012600a6123bc565b6117eb9060016123c8565b600e555b60006117fb8383611bfc565b6001600160a01b0384166000908152600b60209081526040808320338452909152812080549293508392909190611833908490612137565b90915550506001600160a01b03831660009081526009602052604081208054849290611860908490612137565b90915550506001600160a01b0383166000908152600a60205260408120805483929061188d908490612137565b90915550506001600160a01b0383166000818152600960205260409081902054905133917fc79467b8234137e0f5558b9b5b234c6a277ddb4d3e05415864e2300bf4b325d3916118e19187918791906123df565b60405180910390a3505050565b60006118f8611bd8565b6001905550565b33611908610e85565b6001600160a01b031614610c02573360405163118cdaa760e01b815260040161053b9190611f58565b600081116119515760405162461bcd60e51b815260040161053b9061214a565b6001600160a01b0382166000908152600b602090815260408083203384529091529020548111156119945760405162461bcd60e51b815260040161053b90612224565b60006119a08383611d0f565b6001600160a01b0384166000908152600b602090815260408083203384529091528120805492935084929091906119d89084906122c2565b90915550506001600160a01b0383166000908152600a602052604081208054849290611a059084906122c2565b90915550506001600160a01b03831660009081526009602052604081208054839290611a329084906122c2565b909155505060405163a9059cbb60e01b81526001600160a01b0384169063a9059cbb90611a6590339085906004016122a9565b6020604051808303816000875af1158015611a84573d6000803e3d6000fd5b505050506040513d601f19601f82011682018060405250810190611aa8919061218d565b611ac45760405162461bcd60e51b815260040161053b906121fb565b6001600160a01b0383166000818152600960205260409081902054905133917fb477a21ac987139711bcece47e8384b02a9560f46f05f9edd8f798d7a31d55a8916118e19186918891906123df565b6000611b1d611bb4565b80546001600160a01b038481166001600160a01b031983168117845560405193945091169182907f8be0079c531659141344cd1fd0a4f28419497f9722a3daafe3b4186f6b6457e090600090a3505050565b7ff0c57e16840df040f15088dc2f81fe391c3923bec73e23a9662efc9c229c6a0090565b611b9b611e25565b61083981611e4a565b611bac611e25565b610c02611e52565b7f9016d09d72d40fdae2fd8ceac6b6234c7706214fd39c1cd1e609a0528c19930090565b7f9b779b17422d0df92223018b32b4d1fa46e071723d6817e2486d003becc55f0090565b6002546001600160a01b038381166000908152600660205260408082205490516344dca75160e11b81529193849316916389b94ea291611c429160040190815260200190565b608060405180830381865afa158015611c5f573d6000803e3d6000fd5b505050506040513d601f19601f82011682018060405250810190611c8391906123f5565b90506000816060015184611c9791906123c8565b90508160200151601210611ce057600e546020830151611cb89060126122c2565b611cc390600a6123bc565b611ccd90836123c8565b611cd7919061246a565b92505050611d09565b600e5460128360200151611cf491906122c2565b611cff90600a6123bc565b611ccd908361246a565b92915050565b6002546001600160a01b038381166000908152600660205260408082205490516344dca75160e11b81529193849316916389b94ea291611d559160040190815260200190565b608060405180830381865afa158015611d72573d6000803e3d6000fd5b505050506040513d601f19601f82011682018060405250810190611d9691906123f5565b90508060200151601210611ded5760608101516020820151611db99060126122c2565b611dc490600a6123bc565b600e54611dd190866123c8565b611ddb919061246a565b611de5919061246a565b915050611d09565b806060015160128260200151611e0391906122c2565b611e0e90600a6123bc565b600e54611e1b90866123c8565b611ddb91906123c8565b611e2d611e5a565b610c0257604051631afcd79f60e31b815260040160405180910390fd5b611621611e25565b6118ee611e25565b6000611e64611b6f565b54600160401b900460ff16919050565b80356001600160a01b0381168114611e8b57600080fd5b919050565b60008060408385031215611ea357600080fd5b611eac83611e74565b946020939093013593505050565b600060208284031215611ecc57600080fd5b611ed582611e74565b9392505050565b60008060408385031215611eef57600080fd5b50508035926020909101359150565b600060208284031215611f1057600080fd5b5035919050565b60008060408385031215611f2a57600080fd5b611f3383611e74565b9150611f4160208401611e74565b90509250929050565b918252602082015260400190565b6001600160a01b0391909116815260200190565b600080600080600080600060e0888a031215611f8757600080fd5b611f9088611e74565b9650611f9e60208901611e74565b9550611fac60408901611e74565b9450606088013593506080880135925060a08801359150611fcf60c08901611e74565b905092959891949750929550565b600080600060608486031215611ff257600080fd5b611ffb84611e74565b925061200960208501611e74565b929592945050506040919091013590565b60008083601f84011261202c57600080fd5b5081356001600160401b0381111561204357600080fd5b6020830191508360208260051b850101111561205e57600080fd5b9250929050565b6000806000806040858703121561207b57600080fd5b84356001600160401b0381111561209157600080fd5b61209d8782880161201a565b90955093505060208501356001600160401b038111156120bc57600080fd5b6120c88782880161201a565b95989497509550505050565b6020808252600f908201526e2737ba10262810383937bb34b232b960891b604082015260600190565b6020808252600a908201526913db9b1e481d985d5b1d60b21b604082015260600190565b634e487b7160e01b600052601160045260246000fd5b80820180821115611d0957611d09612121565b6020808252818101527f416d6f756e74206d7573742062652067726561746572207468616e207a65726f604082015260600190565b801515811461083957600080fd5b60006020828403121561219f57600080fd5b8151611ed58161217f565b602080825260139082015272151bdad95b881b9bdd081cdd5c1c1bdc9d1959606a1b604082015260600190565b6001600160a01b039384168152919092166020820152604081019190915260600190565b6020808252600f908201526e151c985b9cd9995c8819985a5b1959608a1b604082015260600190565b602080825260119082015270125b9cdd59999a58da595b9d08199d5b99607a1b604082015260600190565b6020808252600d908201526c125b9d985b1a59081a5b9c1d5d609a1b604082015260600190565b634e487b7160e01b600052603260045260246000fd5b60006020828403121561229e57600080fd5b8135611ed58161217f565b6001600160a01b03929092168252602082015260400190565b81810381811115611d0957611d09612121565b6001815b6001841115612310578085048111156122f4576122f4612121565b600184161561230257908102905b60019390931c9280026122d9565b935093915050565b60008261232757506001611d09565b8161233457506000611d09565b816001811461234a576002811461235457612370565b6001915050611d09565b60ff84111561236557612365612121565b50506001821b611d09565b5060208310610133831016604e8410600b8410161715612393575081810a611d09565b6123a060001984846122d5565b80600019048211156123b4576123b4612121565b029392505050565b6000611ed58383612318565b8082028115828204841417611d0957611d09612121565b9283526020830191909152604082015260600190565b6000608082840312801561240857600080fd5b50604051600090608081016001600160401b038111828210171561243a57634e487b7160e01b83526041600452602483fd5b60409081528451825260208086015190830152848101519082015260609384015193810193909352509092915050565b60008261248757634e487b7160e01b600052601260045260246000fd5b50049056fe475ce1a1fde21a55ef3ff23bc7394d2bb1403cbbbcc86e762514d5dbce3b835c87643e0436c867defcc7b4812259dde63cbe46038012cde1457289586e63acca0e05ae75e8b926552cf6fcd744d19f422561e3ced1e426868730852702dbe41812b87b4923747c53aaddfd1b826b461a2f191f35bcebb9b2a4194c47d664be65a49691f0dd6477ccef49962612a236d252e3a31c3be8b61fa6abeff3e74a75726effba7817449d7581339d631efecc0223e5d4c8f3d9760157d8ee2458e72e209d9c46a2a013deb548384cacd2b81266c0999b6bf5e0ac1982e780e9dcfb5baaa26469706673582212204fa273af40f7d560ec8d1f6cdd3a504be3bdd47796a517c1433f8587eda57d5664736f6c634300081b0033",
  "linkReferences": {},
  "deployedLinkReferences": {}
}