{
  "_format": "hh-sol-artifact-1",
  "contractName": "Crypto",
  "sourceName": "contracts/0xVault/libs/Crypto.sol",
  "abi": [
    {
      "inputs": [],
      "name": "DisputeChallengeFailed",
      "type": "error"
    },
    {
      "inputs": [],
      "name": "ECRecoverFailed",
      "type": "error"
    },
    {
      "inputs": [],
      "name": "InvalidAddress",
      "type": "error"
    },
    {
      "inputs": [],
      "name": "InvalidSP",
      "type": "error"
    },
    {
      "inputs": [],
      "name": "InvalidSchnorrSignature",
      "type": "error"
    },
    {
      "inputs": [],
      "name": "InvalidSignature",
      "type": "error"
    },
    {
      "inputs": [],
      "name": "InvalidUsedSignature",
      "type": "error"
    },
    {
      "inputs": [],
      "name": "SettleDisputeFailed",
      "type": "error"
    },
    {
      "inputs": [
        {
          "internalType": "bytes",
          "name": "sig",
          "type": "bytes"
        }
      ],
      "name": "_splitSignature",
      "outputs": [
        {
          "internalType": "bytes32",
          "name": "r",
          "type": "bytes32"
        },
        {
          "internalType": "bytes32",
          "name": "s",
          "type": "bytes32"
        },
        {
          "internalType": "uint8",
          "name": "v",
          "type": "uint8"
        }
      ],
      "stateMutability": "pure",
      "type": "function"
    },
    {
      "inputs": [
        {
          "components": [
            {
              "internalType": "bytes",
              "name": "data",
              "type": "bytes"
            },
            {
              "internalType": "bytes",
              "name": "signature",
              "type": "bytes"
            },
            {
              "internalType": "address",
              "name": "combinedPublicKey",
              "type": "address"
            }
          ],
          "internalType": "struct Crypto.SchnorrSignature",
          "name": "_schnorr",
          "type": "tuple"
        },
        {
          "internalType": "address",
          "name": "_combinedPublicKey",
          "type": "address"
        }
      ],
      "name": "_verifySchnorrSignature",
      "outputs": [
        {
          "internalType": "bool",
          "name": "",
          "type": "bool"
        }
      ],
      "stateMutability": "view",
      "type": "function"
    },
    {
      "inputs": [
        {
          "internalType": "bytes32",
          "name": "_digest",
          "type": "bytes32"
        },
        {
          "internalType": "bytes",
          "name": "_signature",
          "type": "bytes"
        },
        {
          "internalType": "address",
          "name": "_trustedSigner",
          "type": "address"
        }
      ],
      "name": "_verifySignature",
      "outputs": [],
      "stateMutability": "pure",
      "type": "function"
    },
    {
      "inputs": [
        {
          "components": [
            {
              "internalType": "bytes",
              "name": "data",
              "type": "bytes"
            },
            {
              "internalType": "bytes",
              "name": "signature",
              "type": "bytes"
            },
            {
              "internalType": "address",
              "name": "combinedPublicKey",
              "type": "address"
            }
          ],
          "internalType": "struct Crypto.SchnorrSignature",
          "name": "_schnorr",
          "type": "tuple"
        }
      ],
      "name": "decodeSchnorrData",
      "outputs": [
        {
          "components": [
            {
              "internalType": "uint32",
              "name": "signatureId",
              "type": "uint32"
            },
            {
              "internalType": "address",
              "name": "addr",
              "type": "address"
            },
            {
              "components": [
                {
                  "internalType": "uint256",
                  "name": "oracleId",
                  "type": "uint256"
                },
                {
                  "internalType": "address",
                  "name": "addr",
                  "type": "address"
                },
                {
                  "internalType": "uint256",
                  "name": "balance",
                  "type": "uint256"
                }
              ],
              "internalType": "struct Crypto.Balance[]",
              "name": "balances",
              "type": "tuple[]"
            },
            {
              "components": [
                {
                  "internalType": "string",
                  "name": "positionId",
                  "type": "string"
                },
                {
                  "internalType": "uint256",
                  "name": "oracleId",
                  "type": "uint256"
                },
                {
                  "internalType": "address",
                  "name": "token",
                  "type": "address"
                },
                {
                  "internalType": "uint256",
                  "name": "quantity",
                  "type": "uint256"
                },
                {
                  "internalType": "uint256",
                  "name": "leverageFactor",
                  "type": "uint256"
                },
                {
                  "internalType": "string",
                  "name": "leverageType",
                  "type": "string"
                },
                {
                  "internalType": "bool",
                  "name": "isLong",
                  "type": "bool"
                },
                {
                  "components": [
                    {
                      "internalType": "uint256",
                      "name": "oracleId",
                      "type": "uint256"
                    },
                    {
                      "internalType": "address",
                      "name": "token",
                      "type": "address"
                    },
                    {
                      "internalType": "uint256",
                      "name": "quantity",
                      "type": "uint256"
                    },
                    {
                      "internalType": "uint256",
                      "name": "entryPrice",
                      "type": "uint256"
                    }
                  ],
                  "internalType": "struct Crypto.Collateral[]",
                  "name": "collaterals",
                  "type": "tuple[]"
                },
                {
                  "internalType": "uint256",
                  "name": "entryPrice",
                  "type": "uint256"
                },
                {
                  "internalType": "uint256",
                  "name": "createdTimestamp",
                  "type": "uint256"
                }
              ],
              "internalType": "struct Crypto.Position[]",
              "name": "positions",
              "type": "tuple[]"
            },
            {
              "internalType": "string",
              "name": "sigType",
              "type": "string"
            },
            {
              "internalType": "uint256",
              "name": "timestamp",
              "type": "uint256"
            }
          ],
          "internalType": "struct Crypto.SchnorrData",
          "name": "",
          "type": "tuple"
        }
      ],
      "stateMutability": "pure",
      "type": "function"
    },
    {
      "inputs": [
        {
          "components": [
            {
              "internalType": "bytes",
              "name": "data",
              "type": "bytes"
            },
            {
              "internalType": "bytes",
              "name": "signature",
              "type": "bytes"
            },
            {
              "internalType": "address",
              "name": "combinedPublicKey",
              "type": "address"
            }
          ],
          "internalType": "struct Crypto.SchnorrSignature",
          "name": "_schnorr",
          "type": "tuple"
        },
        {
          "internalType": "address",
          "name": "combinedPublicKey",
          "type": "address"
        }
      ],
      "name": "decodeSchnorrDataWithdraw",
      "outputs": [
        {
          "components": [
            {
              "internalType": "address",
              "name": "trader",
              "type": "address"
            },
            {
              "internalType": "address",
              "name": "token",
              "type": "address"
            },
            {
              "internalType": "uint256",
              "name": "amount",
              "type": "uint256"
            },
            {
              "internalType": "uint64",
              "name": "timestamp",
              "type": "uint64"
            }
          ],
          "internalType": "struct Crypto.SchnorrDataWithdraw",
          "name": "",
          "type": "tuple"
        }
      ],
      "stateMutability": "view",
      "type": "function"
    }
  ],
  "bytecode": "0x6111be610039600b82828239805160001a607314602c57634e487b7160e01b600052600060045260246000fd5b30600052607381538281f3fe73000000000000000000000000000000000000000030146080604052600436106100615760003560e01c806306d02c88146100665780631e65bff41461008f57806376b90c59146100a45780639bd0e9e914610101578063bc018c4014610132575b600080fd5b61007961007436600461069f565b610155565b604051610086919061088a565b60405180910390f35b6100a261009d366004610993565b610201565b005b6100b76100b2366004610a22565b610328565b604051610086919081516001600160a01b03908116825260208084015190911690820152604080830151908201526060918201516001600160401b03169181019190915260800190565b61011461010f366004610b9c565b6103d6565b60408051938452602084019290925260ff1690820152606001610086565b610145610140366004610c55565b610449565b6040519015158152602001610086565b61019d6040518060c00160405280600063ffffffff16815260200160006001600160a01b03168152602001606081526020016060815260200160608152602001600081525090565b600080808080806101ae8880610c8a565b8101906101bb9190610fcd565b6040805160c08101825263ffffffff90971687526001600160a01b039095166020870152938501929092526060840152608083015260a082015298975050505050505050565b6040517b0ca2ba3432b932bab69029b4b3b732b21026b2b9b9b0b3b29d05199960211b6020820152603c8101859052600090605c01604051602081830303815290604052805190602001209050600080600061029287878080601f0160208091040260200160405190810160405280939291908181526020018383808284376000920191909152506103d692505050565b9250925092506000600185838686604051600081526020016040526040516102bd9493929190611095565b6020604051602081039080840390855afa1580156102df573d6000803e3d6000fd5b505050602060405103519050856001600160a01b0316816001600160a01b03161461031d57604051638baa579f60e01b815260040160405180910390fd5b505050505050505050565b60408051608081018252600080825260208201819052918101829052606081019190915261035e610358846110b3565b83610449565b61037b57604051631e11ef7b60e31b815260040160405180910390fd5b600080808061038a8780610c8a565b81019061039791906110bf565b604080516080810182526001600160a01b039586168152949093166020850152918301526001600160401b031660608201529450505050505b92915050565b6000806000835160411461042b5760405162461bcd60e51b81526020600482015260186024820152770d2dcecc2d8d2c840e6d2cedcc2e8eae4ca40d8cadccee8d60431b604482015260640160405180910390fd5b50505060208101516040820151606090920151909260009190911a90565b6000816001600160a01b031683604001516001600160a01b03161461048157604051631e11ef7b60e31b815260040160405180910390fd5b8260200151516080146104a757604051631e11ef7b60e31b815260040160405180910390fd5b60008060008086602001518060200190518101906104c59190611113565b9350935093509350600070014551231950b75fc4402da1732fc9bebe19806104ef576104ef611151565b85840961050e9070014551231950b75fc4402da1732fc9bebe19611167565b9050600070014551231950b75fc4402da1732fc9bebe198686096105449070014551231950b75fc4402da1732fc9bebe19611167565b905060008290036105685760405163e296c92d60e01b815260040160405180910390fd5b60006001838589856040516000815260200160405260405161058d9493929190611095565b6020604051602081039080840390855afa1580156105af573d6000803e3d6000fd5b5050604051601f1901519150506001600160a01b0381166105e357604051634fbfae6360e01b815260040160405180910390fd5b895180516020918201206040516001600160601b0319606085901b16928101929092526001600160f81b031960f887901b1660348301526035820189905260558201524660758201526095016040516020818303038152906040528051906020012086148015610662575060408a01516001600160a01b038881169116145b156106775760019750505050505050506103d0565b5060009998505050505050505050565b60006060828403121561069957600080fd5b50919050565b6000602082840312156106b157600080fd5b81356001600160401b038111156106c757600080fd5b6106d384828501610687565b949350505050565b6000815180845260005b81811015610701576020818501810151868301820152016106e5565b506000602082860101526020601f19601f83011685010191505092915050565b600081518084526020840193506020830160005b8281101561077f578151805187526020808201516001600160a01b031681890152604080830151908901526060918201519188019190915260809096019590910190600101610735565b5093949350505050565b600082825180855260208501945060208160051b8301016020850160005b8381101561087e57601f198584030188528151805161014085526107cf6101408601826106db565b90506020820151602086015260408201516107f560408701826001600160a01b03169052565b50606082015160608601526080820151608086015260a082015185820360a087015261082182826106db565b91505060c082015161083760c087018215159052565b5060e082015185820360e087015261084f8282610721565b6101008481015190880152610120938401519390960192909252505060209788019791909101906001016107a7565b50909695505050505050565b6020808252825163ffffffff1682820152828101516001600160a01b031660408084019190915283015160c06060840152805160e08401819052600092919091019082906101008501905b808310156109175783518051835260018060a01b03602082015116602084015260408101516040840152506060820191506020840193506001830192506108d5565b506060860151858203601f1901608087015292506109358184610789565b925050506080840151601f198483030160a085015261095482826106db565b91505060a084015160c08401528091505092915050565b6001600160a01b038116811461098057600080fd5b50565b803561098e8161096b565b919050565b600080600080606085870312156109a957600080fd5b8435935060208501356001600160401b038111156109c657600080fd5b8501601f810187136109d757600080fd5b80356001600160401b038111156109ed57600080fd5b8760208284010111156109ff57600080fd5b602091909101935091506040850135610a178161096b565b939692955090935050565b60008060408385031215610a3557600080fd5b82356001600160401b03811115610a4b57600080fd5b610a5785828601610687565b9250506020830135610a688161096b565b809150509250929050565b634e487b7160e01b600052604160045260246000fd5b604051606081016001600160401b0381118282101715610aab57610aab610a73565b60405290565b604051608081016001600160401b0381118282101715610aab57610aab610a73565b60405161014081016001600160401b0381118282101715610aab57610aab610a73565b604051601f8201601f191681016001600160401b0381118282101715610b1e57610b1e610a73565b604052919050565b600082601f830112610b3757600080fd5b8135602083016000806001600160401b03841115610b5757610b57610a73565b50601f8301601f1916602001610b6c81610af6565b915050828152858383011115610b8157600080fd5b82826020830137600092810160200192909252509392505050565b600060208284031215610bae57600080fd5b81356001600160401b03811115610bc457600080fd5b6106d384828501610b26565b600060608284031215610be257600080fd5b610bea610a89565b905081356001600160401b03811115610c0257600080fd5b610c0e84828501610b26565b82525060208201356001600160401b03811115610c2a57600080fd5b610c3684828501610b26565b6020830152506040820135610c4a8161096b565b604082015292915050565b60008060408385031215610c6857600080fd5b82356001600160401b03811115610c7e57600080fd5b610a5785828601610bd0565b6000808335601e19843603018112610ca157600080fd5b8301803591506001600160401b03821115610cbb57600080fd5b602001915036819003821315610cd057600080fd5b9250929050565b60006001600160401b03821115610cf057610cf0610a73565b5060051b60200190565b600082601f830112610d0b57600080fd5b8135610d1e610d1982610cd7565b610af6565b80828252602082019150602060608402860101925085831115610d4057600080fd5b602085015b83811015610d9a5760608188031215610d5d57600080fd5b610d65610a89565b813581526020820135610d778161096b565b602082810191909152604083810135908301529084529290920191606001610d45565b5095945050505050565b8035801515811461098e57600080fd5b600082601f830112610dc557600080fd5b8135610dd3610d1982610cd7565b8082825260208201915060208360071b860101925085831115610df557600080fd5b602085015b83811015610d9a5760808188031215610e1257600080fd5b610e1a610ab1565b813581526020820135610e2c8161096b565b60208281019190915260408381013590830152606080840135908301529084529290920191608001610dfa565b600082601f830112610e6a57600080fd5b8135610e78610d1982610cd7565b8082825260208201915060208360051b860101925085831115610e9a57600080fd5b602085015b83811015610d9a5780356001600160401b03811115610ebd57600080fd5b8601610140818903601f19011215610ed457600080fd5b610edc610ad3565b60208201356001600160401b03811115610ef557600080fd5b610f048a602083860101610b26565b82525060408201356020820152610f1d60608301610983565b6040820152608082810135606083015260a08301359082015260c08201356001600160401b03811115610f4f57600080fd5b610f5e8a602083860101610b26565b60a083015250610f7060e08301610da4565b60c08201526101008201356001600160401b03811115610f8f57600080fd5b610f9e8a602083860101610db4565b60e083015250610120828101356101008301526101409092013591810191909152835260209283019201610e9f565b60008060008060008060c08789031215610fe657600080fd5b863563ffffffff81168114610ffa57600080fd5b955061100860208801610983565b945060408701356001600160401b0381111561102357600080fd5b61102f89828a01610cfa565b94505060608701356001600160401b0381111561104b57600080fd5b61105789828a01610e59565b93505060808701356001600160401b0381111561107357600080fd5b61107f89828a01610b26565b9699959850939692959460a09093013593505050565b93845260ff9290921660208401526040830152606082015260800190565b60006103d03683610bd0565b600080600080608085870312156110d557600080fd5b84356110e08161096b565b935060208501356110f08161096b565b92506040850135915060608501356001600160401b0381168114610a1757600080fd5b6000806000806080858703121561112957600080fd5b8451602086015160408701516060880151929650909450925060ff81168114610a1757600080fd5b634e487b7160e01b600052601260045260246000fd5b818103818111156103d057634e487b7160e01b600052601160045260246000fdfea2646970667358221220dd6820509ce40f1d0ddab63342eaec06ad69c928cc94c0ff8c5fabad5095bf2964736f6c634300081b0033",
  "linkReferences": {},
  "deployedLinkReferences": {}
}