{
  "_format": "hh-sol-artifact-1",
  "contractName": "DexSupporter",
  "sourceName": "contracts/0xVault/DexSupporter.sol",
  "abi": [
    {
      "inputs": [],
      "name": "CalldataMustHaveValidPayload",
      "type": "error"
    },
    {
      "inputs": [],
      "name": "CalldataOverOrUnderFlow",
      "type": "error"
    },
    {
      "inputs": [],
      "name": "CanNotPickMedianOfEmptyArray",
      "type": "error"
    },
    {
      "inputs": [],
      "name": "DataPackageTimestampMustNotBeZero",
      "type": "error"
    },
    {
      "inputs": [],
      "name": "DataPackageTimestampsMustBeEqual",
      "type": "error"
    },
    {
      "inputs": [],
      "name": "DataTimestampCannotBeZero",
      "type": "error"
    },
    {
      "inputs": [],
      "name": "EachSignerMustProvideTheSameValue",
      "type": "error"
    },
    {
      "inputs": [],
      "name": "EmptyCalldataPointersArr",
      "type": "error"
    },
    {
      "inputs": [],
      "name": "GetDataServiceIdNotImplemented",
      "type": "error"
    },
    {
      "inputs": [],
      "name": "IncorrectUnsignedMetadataSize",
      "type": "error"
    },
    {
      "inputs": [
        {
          "internalType": "uint256",
          "name": "receivedSignersCount",
          "type": "uint256"
        },
        {
          "internalType": "uint256",
          "name": "requiredSignersCount",
          "type": "uint256"
        }
      ],
      "name": "InsufficientNumberOfUniqueSigners",
      "type": "error"
    },
    {
      "inputs": [],
      "name": "InvalidCalldataPointer",
      "type": "error"
    },
    {
      "inputs": [],
      "name": "InvalidInitialization",
      "type": "error"
    },
    {
      "inputs": [],
      "name": "InvalidSchnorrSignature",
      "type": "error"
    },
    {
      "inputs": [],
      "name": "NotInitializing",
      "type": "error"
    },
    {
      "inputs": [
        {
          "internalType": "address",
          "name": "owner",
          "type": "address"
        }
      ],
      "name": "OwnableInvalidOwner",
      "type": "error"
    },
    {
      "inputs": [
        {
          "internalType": "address",
          "name": "account",
          "type": "address"
        }
      ],
      "name": "OwnableUnauthorizedAccount",
      "type": "error"
    },
    {
      "inputs": [],
      "name": "RedstonePayloadMustHaveAtLeastOneDataPackage",
      "type": "error"
    },
    {
      "inputs": [],
      "name": "ReentrancyGuardReentrantCall",
      "type": "error"
    },
    {
      "inputs": [
        {
          "internalType": "address",
          "name": "receivedSigner",
          "type": "address"
        }
      ],
      "name": "SignerNotAuthorised",
      "type": "error"
    },
    {
      "inputs": [
        {
          "internalType": "uint256",
          "name": "receivedTimestampSeconds",
          "type": "uint256"
        },
        {
          "internalType": "uint256",
          "name": "blockTimestamp",
          "type": "uint256"
        }
      ],
      "name": "TimestampFromTooLongFuture",
      "type": "error"
    },
    {
      "inputs": [
        {
          "internalType": "uint256",
          "name": "receivedTimestampSeconds",
          "type": "uint256"
        },
        {
          "internalType": "uint256",
          "name": "blockTimestamp",
          "type": "uint256"
        }
      ],
      "name": "TimestampIsTooOld",
      "type": "error"
    },
    {
      "inputs": [],
      "name": "TimestampsMustBeEqual",
      "type": "error"
    },
    {
      "inputs": [
        {
          "internalType": "uint256",
          "name": "valueByteSize",
          "type": "uint256"
        }
      ],
      "name": "TooLargeValueByteSize",
      "type": "error"
    },
    {
      "anonymous": false,
      "inputs": [
        {
          "indexed": false,
          "internalType": "uint64",
          "name": "version",
          "type": "uint64"
        }
      ],
      "name": "Initialized",
      "type": "event"
    },
    {
      "anonymous": false,
      "inputs": [
        {
          "indexed": true,
          "internalType": "address",
          "name": "previousOwner",
          "type": "address"
        },
        {
          "indexed": true,
          "internalType": "address",
          "name": "newOwner",
          "type": "address"
        }
      ],
      "name": "OwnershipTransferred",
      "type": "event"
    },
    {
      "inputs": [
        {
          "internalType": "uint256[]",
          "name": "values",
          "type": "uint256[]"
        }
      ],
      "name": "aggregateValues",
      "outputs": [
        {
          "internalType": "uint256",
          "name": "",
          "type": "uint256"
        }
      ],
      "stateMutability": "view",
      "type": "function"
    },
    {
      "inputs": [
        {
          "internalType": "uint32",
          "name": "requestId",
          "type": "uint32"
        },
        {
          "components": [
            {
              "internalType": "string",
              "name": "positionId",
              "type": "string"
            },
            {
              "internalType": "bytes32[]",
              "name": "priceIds",
              "type": "bytes32[]"
            }
          ],
          "internalType": "struct Crypto.LiquidatedPosition[]",
          "name": "positions",
          "type": "tuple[]"
        }
      ],
      "name": "challengeLiquidatedPosition",
      "outputs": [],
      "stateMutability": "nonpayable",
      "type": "function"
    },
    {
      "inputs": [
        {
          "internalType": "address",
          "name": "token",
          "type": "address"
        },
        {
          "internalType": "uint256",
          "name": "amount",
          "type": "uint256"
        }
      ],
      "name": "deposit",
      "outputs": [],
      "stateMutability": "nonpayable",
      "type": "function"
    },
    {
      "inputs": [],
      "name": "extractTimestampsAndAssertAllAreEqual",
      "outputs": [
        {
          "internalType": "uint256",
          "name": "extractedTimestamp",
          "type": "uint256"
        }
      ],
      "stateMutability": "pure",
      "type": "function"
    },
    {
      "inputs": [
        {
          "internalType": "address",
          "name": "signerAddress",
          "type": "address"
        }
      ],
      "name": "getAuthorisedSignerIndex",
      "outputs": [
        {
          "internalType": "uint8",
          "name": "",
          "type": "uint8"
        }
      ],
      "stateMutability": "view",
      "type": "function"
    },
    {
      "inputs": [],
      "name": "getDataServiceId",
      "outputs": [
        {
          "internalType": "string",
          "name": "",
          "type": "string"
        }
      ],
      "stateMutability": "view",
      "type": "function"
    },
    {
      "inputs": [
        {
          "internalType": "bytes32",
          "name": "dataFeedId",
          "type": "bytes32"
        }
      ],
      "name": "getPrice",
      "outputs": [
        {
          "components": [
            {
              "internalType": "bytes32",
              "name": "id",
              "type": "bytes32"
            },
            {
              "internalType": "uint256",
              "name": "price",
              "type": "uint256"
            }
          ],
          "internalType": "struct IRedstoneOracle.PriceFeed",
          "name": "",
          "type": "tuple"
        }
      ],
      "stateMutability": "view",
      "type": "function"
    },
    {
      "inputs": [
        {
          "internalType": "bytes32[]",
          "name": "dataFeedIds",
          "type": "bytes32[]"
        }
      ],
      "name": "getPrices",
      "outputs": [
        {
          "components": [
            {
              "internalType": "bytes32",
              "name": "id",
              "type": "bytes32"
            },
            {
              "internalType": "uint256",
              "name": "price",
              "type": "uint256"
            }
          ],
          "internalType": "struct IRedstoneOracle.PriceFeed[]",
          "name": "",
          "type": "tuple[]"
        }
      ],
      "stateMutability": "view",
      "type": "function"
    },
    {
      "inputs": [],
      "name": "getUniqueSignersThreshold",
      "outputs": [
        {
          "internalType": "uint8",
          "name": "",
          "type": "uint8"
        }
      ],
      "stateMutability": "view",
      "type": "function"
    },
    {
      "inputs": [
        {
          "internalType": "address",
          "name": "_vault",
          "type": "address"
        },
        {
          "internalType": "address",
          "name": "_lpProvider",
          "type": "address"
        }
      ],
      "name": "initialize",
      "outputs": [],
      "stateMutability": "nonpayable",
      "type": "function"
    },
    {
      "inputs": [
        {
          "internalType": "address",
          "name": "user",
          "type": "address"
        },
        {
          "components": [
            {
              "internalType": "bytes",
              "name": "data",
              "type": "bytes"
            },
            {
              "internalType": "bytes",
              "name": "signature",
              "type": "bytes"
            },
            {
              "internalType": "address",
              "name": "combinedPublicKey",
              "type": "address"
            }
          ],
          "internalType": "struct Crypto.SchnorrSignature",
          "name": "_schnorr",
          "type": "tuple"
        }
      ],
      "name": "liquidatePartially",
      "outputs": [],
      "stateMutability": "nonpayable",
      "type": "function"
    },
    {
      "inputs": [],
      "name": "lpProvider",
      "outputs": [
        {
          "internalType": "address",
          "name": "",
          "type": "address"
        }
      ],
      "stateMutability": "view",
      "type": "function"
    },
    {
      "inputs": [],
      "name": "owner",
      "outputs": [
        {
          "internalType": "address",
          "name": "",
          "type": "address"
        }
      ],
      "stateMutability": "view",
      "type": "function"
    },
    {
      "inputs": [],
      "name": "renounceOwnership",
      "outputs": [],
      "stateMutability": "nonpayable",
      "type": "function"
    },
    {
      "inputs": [
        {
          "internalType": "address",
          "name": "_vault",
          "type": "address"
        }
      ],
      "name": "setVault",
      "outputs": [],
      "stateMutability": "nonpayable",
      "type": "function"
    },
    {
      "inputs": [
        {
          "internalType": "uint32",
          "name": "requestId",
          "type": "uint32"
        }
      ],
      "name": "settleDispute",
      "outputs": [],
      "stateMutability": "nonpayable",
      "type": "function"
    },
    {
      "inputs": [
        {
          "internalType": "address",
          "name": "newOwner",
          "type": "address"
        }
      ],
      "name": "transferOwnership",
      "outputs": [],
      "stateMutability": "nonpayable",
      "type": "function"
    },
    {
      "inputs": [
        {
          "internalType": "uint256",
          "name": "receivedTimestampMilliseconds",
          "type": "uint256"
        }
      ],
      "name": "validateTimestamp",
      "outputs": [],
      "stateMutability": "view",
      "type": "function"
    },
    {
      "inputs": [],
      "name": "vault",
      "outputs": [
        {
          "internalType": "contract IVault",
          "name": "",
          "type": "address"
        }
      ],
      "stateMutability": "view",
      "type": "function"
    }
  ],
  "bytecode": "0x608060405234801561001057600080fd5b50613c52806100206000396000f3fe608060405234801561001057600080fd5b50600436106100f15760003560e01c80630d235817146100f65780631c4196f61461011f57806326ee48361461013457806327482c0f1461015457806331d98b3f146101675780633ce142f51461018757806346080f80146101ac57806347e7ef24146101bf578063485cc955146101d257806355a547d5146101e55780636817031b146101fb578063715018a61461020e5780638da5cb5b14610216578063b24ebfcc1461021e578063c274583a14610231578063f2fde38b14610268578063f50b2efe1461027b578063f90c49241461028e578063fbfa77cf14610295575b600080fd5b600154610109906001600160a01b031681565b6040516101169190612aa0565b60405180910390f35b61013261012d366004612c76565b6102a8565b005b610147610142366004612dcd565b6103d6565b6040516101169190612e10565b610132610162366004612e5d565b6104bc565b61017a610175366004612e7a565b610ccd565b6040516101169190612e93565b61019a610195366004612eb6565b610cf7565b60405160ff9091168152602001610116565b6101326101ba366004612ed3565b610df5565b6101326101cd366004612f29565b611521565b6101326101e0366004612f55565b61174b565b6101ed611875565b604051908152602001610116565b610132610209366004612eb6565b61197c565b6101326119a6565b6101096119ba565b6101ed61022c366004612f83565b6119d5565b60408051808201825260158152741c99591cdd1bdb994b5c1c9a5b585c9e4b5c1c9bd9605a1b602082015290516101169190613063565b610132610276366004612eb6565b6119e6565b610132610289366004612e7a565b611a24565b600361019a565b600054610109906001600160a01b031681565b6102b0611a2d565b60006102bb83611a63565b80519091506102e55760405162461bcd60e51b81526004016102dc90613076565b60405180910390fd5b60208101516102f6906107086130bc565b6001600160401b031642106103455760405162461bcd60e51b8152602060048201526015602482015274111a5cdc1d5d19481dda5b991bddc818db1bdcd959605a1b60448201526064016102dc565b60008061035b8360600151858560800151611c46565b600054825160405163491ff61560e11b81529395509193506001600160a01b03169163923fec2a9161039591899187918790600401613118565b600060405180830381600087803b1580156103af57600080fd5b505af11580156103c3573d6000803e3d6000fd5b505050505050506103d2611e32565b5050565b606060006103e383611e43565b9050600081516001600160401b0381111561040057610400612ac6565b60405190808252806020026020018201604052801561043957816020015b610426612a89565b81526020019060019003908161041e5790505b50905060005b84518110156104b45760405180604001604052808683815181106104655761046561314f565b602002602001015181526020018483815181106104845761048461314f565b60200260200101518152508282815181106104a1576104a161314f565b602090810291909101015260010161043f565b509392505050565b60008054604051633a45ef7360e21b8152829182916001600160a01b039091169063e917bdcc906104f1908790600401613165565b606060405180830381865afa15801561050e573d6000803e3d6000fd5b505050506040513d601f19601f820116820180604052508101906105329190613191565b925092509250826105555760405162461bcd60e51b81526004016102dc90613076565b610561826107086130bc565b6001600160401b031642116105b45760405162461bcd60e51b8152602060048201526019602482015278111a5cdc1d5d19481dda5b991bddc81b9bdd0818db1bdcd959603a1b60448201526064016102dc565b6000805460405163ed9facad60e01b81526001600160a01b039091169063ed9facad906105e5908890600401613165565b600060405180830381865afa158015610602573d6000803e3d6000fd5b505050506040513d6000823e601f3d908101601f1916820160405261062a9190810190613432565b600080546040516330b755af60e21b815292935090916001600160a01b039091169063c2dd56bc90610660908990600401613165565b600060405180830381865afa15801561067d573d6000803e3d6000fd5b505050506040513d6000823e601f3d908101601f191682016040526106a59190810190613503565b9050600081516001600160401b038111156106c2576106c2612ac6565b6040519080825280602002602001820160405280156106eb578160200160208202803683370190505b50905060005b825181101561073d5782818151811061070c5761070c61314f565b60200260200101516040015182828151811061072a5761072a61314f565b60209081029190910101526001016106f1565b5060005b8351811015610a515783818151811061075c5761075c61314f565b60200260200101516060015160000315610a495760006107988583815181106107875761078761314f565b602002602001015160200151610ccd565b905060008583815181106107ae576107ae61314f565b6020026020010151610100015182602001516107ca9190613537565b90508583815181106107de576107de61314f565b602002602001015160c001516107fa576107f781613557565b90505b600086848151811061080e5761080e61314f565b6020026020010151610100015187858151811061082d5761082d61314f565b602002602001015160800151836402540be40061084a9190613573565b6108549190613573565b61085e91906135b9565b6108699060016135e7565b9050600081121561087c57505050610a49565b8060005b8886815181106108925761089261314f565b602002602001015160e0015151811015610a435760006108eb8a88815181106108bd576108bd61314f565b602002602001015160e0015183815181106108da576108da61314f565b602002602001015160000151610ccd565b905060006402540be40082602001516018868e8c8151811061090f5761090f61314f565b602002602001015160e00151878151811061092c5761092c61314f565b602002602001015160400151610942919061360f565b61094c9190613626565b610956919061360f565b6109609190613626565b905060005b8a518110156109f8578b89815181106109805761098061314f565b6020026020010151604001516001600160a01b03168b82815181106109a7576109a761314f565b6020026020010151602001516001600160a01b0316036109f057818a82815181106109d4576109d461314f565b602002602001018181516109e8919061363a565b9052506109f8565b600101610965565b5060008b8981518110610a0d57610a0d61314f565b602002602001015160e001518481518110610a2a57610a2a61314f565b6020908102919091010151604001525050600101610880565b50505050505b600101610741565b50600082516001600160401b03811115610a6d57610a6d612ac6565b604051908082528060200260200182016040528015610a96578160200160208202803683370190505b509050600083516001600160401b03811115610ab457610ab4612ac6565b604051908082528060200260200182016040528015610add578160200160208202803683370190505b50905060005b8451811015610c59576000858281518110610b0057610b0061314f565b60200260200101516020015190506000858381518110610b2257610b2261314f565b602090810291909101015160008054604051633830cbb160e21b815292935090916001600160a01b039091169063e0c32ec490610b65908d90879060040161364d565b602060405180830381865afa158015610b82573d6000803e3d6000fd5b505050506040513d601f19601f82011682018060405250810190610ba69190613667565b905080821115610c0157610bba8183613680565b868581518110610bcc57610bcc61314f565b6020026020010181815250506001858581518110610bec57610bec61314f565b91151560209283029190910190910152610c4e565b610c0b8282613680565b868581518110610c1d57610c1d61314f565b6020026020010181815250506000858581518110610c3d57610c3d61314f565b911515602092830291909101909101525b505050600101610ae3565b5060005460405163bf1e9ef560e01b81526001600160a01b039091169063bf1e9ef590610c90908c90879087908790600401613693565b600060405180830381600087803b158015610caa57600080fd5b505af1158015610cbe573d6000803e3d6000fd5b50505050505050505050505050565b610cd5612a89565b6040518060400160405280838152602001610cef84611e65565b905292915050565b60006001600160a01b038216738bb8f32df04c8b654987daaed53d6b6091e3b77403610d2557506000919050565b6001600160a01b03821673deb22f54738d54976c4c0fe5ce6d408e40d8849903610d5157506001919050565b6001600160a01b0382167351ce04be4b3e32572c4ec9135221d0691ba7d20203610d7d57506002919050565b6001600160a01b03821673dd682daec5a90dd295d14da4b0bec9281017b5be03610da957506003919050565b6001600160a01b038216739c5ae89c4af6aa32ce58588dbaf90d18a855b6de03610dd557506004919050565b816040516303b1166f60e61b81526004016102dc9190612aa0565b919050565b610dfd611a2d565b60405162da059160e31b815260009073__$50e9592bd68e5211c3a496048a4809ad3a$__906306d02c8890610e369085906004016137f0565b600060405180830381865af4158015610e53573d6000803e3d6000fd5b505050506040513d6000823e601f3d908101601f19168201604052610e7b919081019061380e565b9050826001600160a01b031681602001516001600160a01b031614610eb357604051631e11ef7b60e31b815260040160405180910390fd5b60005460208201516040516339073fd960e21b815273__$50e9592bd68e5211c3a496048a4809ad3a$__9263bc018c409286926001600160a01b039092169163e41cff6491610f0491600401612aa0565b602060405180830381865afa158015610f21573d6000803e3d6000fd5b505050506040513d601f19601f82011682018060405250810190610f4591906138fb565b6040518363ffffffff1660e01b8152600401610f62929190613918565b602060405180830381865af4158015610f7f573d6000803e3d6000fd5b505050506040513d601f19601f82011682018060405250810190610fa39190613942565b610fc057604051631e11ef7b60e31b815260040160405180910390fd5b6040810151516000816001600160401b03811115610fe057610fe0612ac6565b60405190808252806020026020018201604052801561102b57816020015b6040805160608101825260008082526020808301829052928201528252600019909201910181610ffe5790505b50905060005b828110156110c55760405180606001604052808560400151838151811061105a5761105a61314f565b6020026020010151600001518152602001856040015183815181106110815761108161314f565b6020026020010151602001516001600160a01b0316815260200160008152508282815181106110b2576110b261314f565b6020908102919091010152600101611031565b5060005b828110156111995760005b8251811015611190578281815181106110ef576110ef61314f565b6020026020010151602001516001600160a01b03168560400151838151811061111a5761111a61314f565b6020026020010151602001516001600160a01b031603611188578460400151828151811061114a5761114a61314f565b6020026020010151604001518382815181106111685761116861314f565b6020026020010151604001818151611180919061363a565b905250611190565b6001016110d4565b506001016110c9565b5060608301515160005b818110156112af5760005b856060015182815181106111c4576111c461314f565b602002602001015160e00151518110156112a6576000866060015183815181106111f0576111f061314f565b602002602001015160e00151828151811061120d5761120d61314f565b6020026020010151905060005b855181101561129c578581815181106112355761123561314f565b6020026020010151602001516001600160a01b031682602001516001600160a01b0316036112945781604001518682815181106112745761127461314f565b602002602001015160400181815161128c919061363a565b90525061129c565b60010161121a565b50506001016111ae565b506001016111a3565b506000836001600160401b038111156112ca576112ca612ac6565b6040519080825280602002602001820160405280156112f3578160200160208202803683370190505b5090506000846001600160401b0381111561131057611310612ac6565b604051908082528060200260200182016040528015611339578160200160208202803683370190505b5090506000805b868110156114a6576000886040015182815181106113605761136061314f565b60209081029190910181015181015160008054928c0151604051633830cbb160e21b815292945090926001600160a01b03169163e0c32ec4916113a791869060040161364d565b602060405180830381865afa1580156113c4573d6000803e3d6000fd5b505050506040513d601f19601f820116820180604052508101906113e89190613667565b905060008884815181106113fe576113fe61314f565b60200260200101516040015182111561149b578884815181106114235761142361314f565b6020026020010151604001518261143a9190613680565b90508287868151811061144f5761144f61314f565b60200260200101906001600160a01b031690816001600160a01b031681525050808686815181106114825761148261314f565b6020908102919091010152846114978161395d565b9550505b505050600101611340565b506000546020880151604051638a7be80b60e01b81526001600160a01b0390921691638a7be80b916114e091879087908790600401613976565b600060405180830381600087803b1580156114fa57600080fd5b505af115801561150e573d6000803e3d6000fd5b50505050505050505050506103d2611e32565b611529611a2d565b600081116115795760405162461bcd60e51b815260206004820181905260248201527f416d6f756e74206d7573742062652067726561746572207468616e207a65726f60448201526064016102dc565b6001546040516375151b6360e01b81526001600160a01b03909116906375151b63906115a9908590600401612aa0565b602060405180830381865afa1580156115c6573d6000803e3d6000fd5b505050506040513d601f19601f820116820180604052508101906115ea9190613942565b61162c5760405162461bcd60e51b8152602060048201526013602482015272151bdad95b881b9bdd081cdd5c1c1bdc9d1959606a1b60448201526064016102dc565b6040516323b872dd60e01b81526001600160a01b038316906323b872dd9061165c903390309086906004016139ed565b6020604051808303816000875af115801561167b573d6000803e3d6000fd5b505050506040513d601f19601f8201168201806040525081019061169f9190613942565b6116dd5760405162461bcd60e51b815260206004820152600f60248201526e151c985b9cd9995c8819985a5b1959608a1b60448201526064016102dc565b600054604051638340f54960e01b81526001600160a01b0390911690638340f54990611711903390869086906004016139ed565b600060405180830381600087803b15801561172b57600080fd5b505af115801561173f573d6000803e3d6000fd5b505050506103d2611e32565b6000611755611ed5565b805490915060ff600160401b82041615906001600160401b031660008115801561177c5750825b90506000826001600160401b031660011480156117985750303b155b9050811580156117a6575080155b156117c45760405163f92ee8a960e01b815260040160405180910390fd5b84546001600160401b031916600117855583156117ed57845460ff60401b1916600160401b1785555b6117f633611ef9565b600080546001600160a01b03808a166001600160a01b0319928316179092556001805492891692909116919091179055831561186c57845460ff60401b19168555604051600181527fc7f505b2f371ae2175ee4913f4499e1f2633a7b5936321eed1cdaeb6115181d29060200160405180910390a15b50505050505050565b600080611880611f0a565b9050600061188d82611fb8565b925061ffff16905060008190036118b757604051632154bfcf60e21b815260040160405180910390fd5b60005b818110156119765760006118cd84612007565b90506000806118dd60688761363a565b905060006118eb8236613680565b9050803592508265ffffffffffff1660000361191a57604051630336dc9d60e41b815260040160405180910390fd5b87600003611932578265ffffffffffff16975061195a565b878365ffffffffffff161461195a5760405163d9d1f46560e01b815260040160405180910390fd5b611964848861363a565b965050600190930192506118ba915050565b50505090565b611984612043565b600080546001600160a01b0319166001600160a01b0392909216919091179055565b6119ae612043565b6119b86000612075565b565b6000806119c56120d1565b546001600160a01b031692915050565b60006119e0826120f5565b92915050565b6119ee612043565b6001600160a01b038116611a18576000604051631e4fbdf760e01b81526004016102dc9190612aa0565b611a2181612075565b50565b611a2181612100565b6000611a37612180565b805490915060011901611a5d57604051633ee5aeb560e01b815260040160405180910390fd5b60029055565b6040805160a081018252600080825260208201819052918101919091526060808201819052608082015260008054604051633a45ef7360e21b8152829182916001600160a01b039091169063e917bdcc90611ac2908890600401613165565b606060405180830381865afa158015611adf573d6000803e3d6000fd5b505050506040513d601f19601f82011682018060405250810190611b039190613191565b9250925092506040518060a001604052808415158152602001836001600160401b03168152602001826001600160a01b0316815260200160008054906101000a90046001600160a01b03166001600160a01b031663ed9facad886040518263ffffffff1660e01b8152600401611b799190613165565b600060405180830381865afa158015611b96573d6000803e3d6000fd5b505050506040513d6000823e601f3d908101601f19168201604052611bbe9190810190613432565b81526000546040516330b755af60e21b81526020909201916001600160a01b039091169063c2dd56bc90611bf6908a90600401613165565b600060405180830381865afa158015611c13573d6000803e3d6000fd5b505050506040513d6000823e601f3d908101601f19168201604052611c3b9190810190613503565b905295945050505050565b606060008085516001600160401b03811115611c6457611c64612ac6565b604051908082528060200260200182016040528015611c8d578160200160208202803683370190505b50905060008060005b8851811015611e2257888181518110611cb157611cb161314f565b60200260200101516080015160010315611e1a5760005b8851811015611e1857888181518110611ce357611ce361314f565b602002602001015160000151805190602001208a8381518110611d0857611d0861314f565b6020026020010151600001518051906020012003611e1057611d5d8a8381518110611d3557611d3561314f565b60200260200101518a8381518110611d4f57611d4f61314f565b60200260200101518a6121a4565b15611e1057818585611d6e8161395d565b965081518110611d8057611d8061314f565b602002602001018181525050604051602001611da7906463726f737360d81b815260050190565b604051602081830303815290604052805190602001208a8381518110611dcf57611dcf61314f565b602002602001015160a00151604051602001611deb9190613a11565b6040516020818303038152906040528051906020012003611e0b57600192505b611e18565b600101611cc8565b505b600101611c96565b5090825290969095509350505050565b6000611e3c612180565b6001905550565b6060600080611e518461223c565b91509150611e5e81611a24565b5092915050565b604080516001808252818301909252600091829190602080830190803683370190505090508281600081518110611e9e57611e9e61314f565b602002602001018181525050611eb381611e43565b600081518110611ec557611ec561314f565b6020026020010151915050919050565b7ff0c57e16840df040f15088dc2f81fe391c3923bec73e23a9662efc9c229c6a0090565b611f01612429565b611a218161244e565b60006602ed57011e0000601f1936013581161480611f3b576040516373bb264f60e11b815260040160405180910390fd5b60003660291115611f5f57604051632bcb7bc560e11b815260040160405180910390fd5b5060281936013560006009611f7a600362ffffff851661363a565b611f84919061363a565b905036611f9260028361363a565b1115611fb15760405163c30a7bd760e01b815260040160405180910390fd5b9392505050565b60008080611fc760208561363a565b905036811115611fea57604051632bcb7bc560e11b815260040160405180910390fd5b3681900335925082611ffd60028661363a565b9250925050915091565b600080600061201584612456565b9092509050604e61202782602061363a565b612031908461360f565b61203b919061363a565b949350505050565b3361204c6119ba565b6001600160a01b0316146119b8573360405163118cdaa760e01b81526004016102dc9190612aa0565b600061207f6120d1565b80546001600160a01b038481166001600160a01b031983168117845560405193945091169182907f8be0079c531659141344cd1fd0a4f28419497f9722a3daafe3b4186f6b6457e090600090a3505050565b7f9016d09d72d40fdae2fd8ceac6b6234c7706214fd39c1cd1e609a0528c19930090565b60006119e0826124a9565b600061210e6103e883613626565b90508042101561214c57603c6121244283613680565b11156103d25760405163b6b0916d60e01b8152600481018290524260248201526044016102dc565b60b46121588242613680565b11156103d257604051630321d0b560e01b8152600481018290524260248201526044016102dc565b7f9b779b17422d0df92223018b32b4d1fa46e071723d6817e2486d003becc55f0090565b6000806121b484602001516103d6565b6040516395f5d15760e01b815290915073__$ed7edcf5897336b7ef9a2feda8ea09bc03$__906395f5d157906121f290889085908890600401613b12565b602060405180830381865af415801561220f573d6000803e3d6000fd5b505050506040513d601f19601f820116820180604052508101906122339190613942565b95945050505050565b606060008083516001600160401b0381111561225a5761225a612ac6565b604051908082528060200260200182016040528015612283578160200160208202803683370190505b509050600084516001600160401b038111156122a1576122a1612ac6565b6040519080825280602002602001820160405280156122ca578160200160208202803683370190505b509050600085516001600160401b038111156122e8576122e8612ac6565b60405190808252806020026020018201604052801561231b57816020015b60608152602001906001900390816123065790505b50905060005b865181101561236e576040805160038082526080820190925290602082016060803683370190505082828151811061235b5761235b61314f565b6020908102919091010152600101612321565b506000612379611f0a565b9050600061238682611fb8565b60405190935061ffff909116915060005b828110156124115760006123ae8b898989896125bd565b909550905060008190036123d55760405163dfb25a7960e01b815260040160405180910390fd5b8881141580156123e457508815155b156124025760405163265e23a160e11b815260040160405180910390fd5b60408390529750600101612397565b5061241c8487612848565b9750505050505050915091565b612431612956565b6119b857604051631afcd79f60e31b815260040160405180910390fd5b6119ee612429565b600080808080602061246960418861363a565b612473919061363a565b61247d9036613680565b80359350905061248e600382613680565b62ffffff9390931696923563ffffffff169550919350505050565b60008151600203612500576002826001815181106124c9576124c961314f565b6020026020010151836000815181106124e4576124e461314f565b60200260200101516124f6919061363a565b6119e09190613626565b815160000361252257604051639e198af960e01b815260040160405180910390fd5b61252b82612970565b60006002835161253b9190613626565b90506002835161254b9190613c08565b6000036125ab5760008382815181106125665761256661314f565b60200260200101518460018461257c9190613680565b8151811061258c5761258c61314f565b602002602001015161259e919061363a565b905061203b600282613626565b828181518110611ec557611ec561314f565b60008060008060006125ce86612456565b909250905060008060608180600d6125e760208861363a565b6125f1908961360f565b6125fb919061363a565b9150600061260a60688d61363a565b6126149036613680565b905060008361262460418f61363a565b61262e919061363a565b6126389036613680565b90506126448482612657565b945083602086012095508135925061267b565b60408051838152602081850181019092526000910183838237601f19019392505050565b8265ffffffffffff169a5061269c8660418f612697919061363a565b6129be565b96506126a787610cf7565b60ff16995050505050505050604e866126c0919061363a565b955060008060005b848110156128355760206126dc858b61363a565b6126e6919061363a565b98506126f28985612a36565b909350915060005b8d5181101561282c578d81815181106127155761271561314f565b602002602001015184036128245760008c82815181106127375761273761314f565b6020026020010151905061275081896001901b16151590565b1580156127795750600360ff168e838151811061276f5761276f61314f565b6020026020010151105b1561281e57838c83815181106127915761279161314f565b60200260200101518f84815181106127ab576127ab61314f565b6020026020010151815181106127c3576127c361314f565b6020026020010181815250508d82815181106127e1576127e161314f565b6020026020010180518091906127f69061395d565b9052506001881b81178d83815181106128115761281161314f565b6020026020010181815250505b5061282c565b6001016126fa565b506001016126c8565b5050508594505050509550959350505050565b6060600083516001600160401b0381111561286557612865612ac6565b60405190808252806020026020018201604052801561288e578160200160208202803683370190505b509050600360005b855181101561294c57818582815181106128b2576128b261314f565b602002602001015110156128ff578481815181106128d2576128d261314f565b602002602001015182604051632b13aef560e01b81526004016102dc929190918252602082015260400190565b60006129238783815181106129165761291661314f565b60200260200101516119d5565b9050808483815181106129385761293861314f565b602090810291909101015250600101612896565b5090949350505050565b6000612960611ed5565b54600160401b900460ff16919050565b8051602082016020820281019150805b828110156129b857815b818110156129af5781518151808210156129a5578084528183525b505060200161298a565b50602001612980565b50505050565b60408051600080825260208083018085528690523685900380850135831a948401859052803560608501819052910135608084018190529193909260019060a0016020604051602081039080840390855afa158015612a21573d6000803e3d6000fd5b5050604051601f190151979650505050505050565b60008080612a448536613680565b9050803592506020810135915060218410612a75576040516360007e2160e11b8152600481018590526024016102dc565b8360200360080282901c9150509250929050565b604080518082019091526000808252602082015290565b6001600160a01b0391909116815260200190565b63ffffffff81168114611a2157600080fd5b634e487b7160e01b600052604160045260246000fd5b604080519081016001600160401b0381118282101715612afe57612afe612ac6565b60405290565b604051608081016001600160401b0381118282101715612afe57612afe612ac6565b60405161014081016001600160401b0381118282101715612afe57612afe612ac6565b604051606081016001600160401b0381118282101715612afe57612afe612ac6565b60405160e081016001600160401b0381118282101715612afe57612afe612ac6565b604051601f8201601f191681016001600160401b0381118282101715612bb557612bb5612ac6565b604052919050565b60006001600160401b03821115612bd657612bd6612ac6565b5060051b60200190565b60006001600160401b03821115612bf957612bf9612ac6565b50601f01601f191660200190565b600082601f830112612c1857600080fd5b81356020612c2d612c2883612bbd565b612b8d565b8083825260208201915060208460051b870101935086841115612c4f57600080fd5b602086015b84811015612c6b5780358352918301918301612c54565b509695505050505050565b60008060408385031215612c8957600080fd5b8235612c9481612ab4565b91506020838101356001600160401b0380821115612cb157600080fd5b818601915086601f830112612cc557600080fd5b8135612cd3612c2882612bbd565b81815260059190911b83018401908481019089831115612cf257600080fd5b8585015b83811015612dbc57803585811115612d0d57600080fd5b86016040818d03601f19011215612d2357600080fd5b612d2b612adc565b8882013587811115612d3c57600080fd5b8201603f81018e13612d4d57600080fd5b89810135612d5d612c2882612be0565b8181528f6040838501011115612d7257600080fd5b81604084018d83013760008c8383010152808452505050604082013587811115612d9b57600080fd5b612da98e8b83860101612c07565b828b015250845250918601918601612cf6565b508096505050505050509250929050565b600060208284031215612ddf57600080fd5b81356001600160401b03811115612df557600080fd5b61203b84828501612c07565b80518252602090810151910152565b602080825282518282018190526000919060409081850190868401855b82811015612e5057612e40848351612e01565b9284019290850190600101612e2d565b5091979650505050505050565b600060208284031215612e6f57600080fd5b8135611fb181612ab4565b600060208284031215612e8c57600080fd5b5035919050565b604081016119e08284612e01565b6001600160a01b0381168114611a2157600080fd5b600060208284031215612ec857600080fd5b8135611fb181612ea1565b60008060408385031215612ee657600080fd5b8235612ef181612ea1565b915060208301356001600160401b03811115612f0c57600080fd5b830160608186031215612f1e57600080fd5b809150509250929050565b60008060408385031215612f3c57600080fd5b8235612f4781612ea1565b946020939093013593505050565b60008060408385031215612f6857600080fd5b8235612f7381612ea1565b91506020830135612f1e81612ea1565b60006020808385031215612f9657600080fd5b82356001600160401b03811115612fac57600080fd5b8301601f81018513612fbd57600080fd5b8035612fcb612c2882612bbd565b81815260059190911b82018301908381019087831115612fea57600080fd5b928401925b8284101561300857833582529284019290840190612fef565b979650505050505050565b60005b8381101561302e578181015183820152602001613016565b50506000910152565b6000815180845261304f816020860160208601613013565b601f01601f19169290920160200192915050565b602081526000611fb16020830184613037565b602080825260169082015275496e76616c696420646973707574652073746174757360501b604082015260600190565b634e487b7160e01b600052601160045260246000fd5b6001600160401b03818116838216019080821115611e5e57611e5e6130a6565b60008151808452602080850194506020840160005b8381101561310d578151875295820195908201906001016130f1565b509495945050505050565b63ffffffff8516815260806020820152600061313760808301866130dc565b60408301949094525090151560609091015292915050565b634e487b7160e01b600052603260045260246000fd5b63ffffffff91909116815260200190565b80518015158114610df057600080fd5b8051610df081612ea1565b6000806000606084860312156131a657600080fd5b6131af84613176565b60208501519093506001600160401b03811681146131cc57600080fd5b60408501519092506131dd81612ea1565b809150509250925092565b600082601f8301126131f957600080fd5b8151613207612c2882612be0565b81815284602083860101111561321c57600080fd5b61203b826020830160208701613013565b600082601f83011261323e57600080fd5b8151602061324e612c2883612bbd565b82815260079290921b8401810191818101908684111561326d57600080fd5b8286015b84811015612c6b576080818903121561328a5760008081fd5b613292612b04565b81518152848201516132a381612ea1565b818601526040828101519082015260608083015190820152835291830191608001613271565b600082601f8301126132da57600080fd5b815160206132ea612c2883612bbd565b82815260059290921b8401810191818101908684111561330957600080fd5b8286015b84811015612c6b5780516001600160401b038082111561332d5760008081fd5b90880190610140828b03601f19018113156133485760008081fd5b613350612b26565b87840151838111156133625760008081fd5b6133708d8a838801016131e8565b82525060408085015189830152606061338a818701613186565b828401526080915081860151818401525060a0808601518284015260c0915081860151858111156133bb5760008081fd5b6133c98f8c838a01016131e8565b82850152505060e06133dc818701613176565b82840152610100915081860151858111156133f75760008081fd5b6134058f8c838a010161322d565b9184019190915250610120858101519183019190915291909301519083015250835291830191830161330d565b60006020828403121561344457600080fd5b81516001600160401b0381111561345a57600080fd5b61203b848285016132c9565b600082601f83011261347757600080fd5b81516020613487612c2883612bbd565b828152606092830285018201928282019190878511156134a657600080fd5b8387015b858110156134f65781818a0312156134c25760008081fd5b6134ca612b49565b81518152858201516134db81612ea1565b818701526040828101519082015284529284019281016134aa565b5090979650505050505050565b60006020828403121561351557600080fd5b81516001600160401b0381111561352b57600080fd5b61203b84828501613466565b8181036000831280158383131683831282161715611e5e57611e5e6130a6565b6000600160ff1b820161356c5761356c6130a6565b5060000390565b80820260008212600160ff1b8414161561358f5761358f6130a6565b81810583148215176119e0576119e06130a6565b634e487b7160e01b600052601260045260246000fd5b6000826135c8576135c86135a3565b600160ff1b8214600019841416156135e2576135e26130a6565b500590565b8082018281126000831280158216821582161715613607576136076130a6565b505092915050565b80820281158282048414176119e0576119e06130a6565b600082613635576136356135a3565b500490565b808201808211156119e0576119e06130a6565b6001600160a01b0392831681529116602082015260400190565b60006020828403121561367957600080fd5b5051919050565b818103818111156119e0576119e06130a6565b63ffffffff8516815260006020608060208401526136b460808401876130dc565b83810360408501526136c681876130dc565b84810360608601528551808252602080880193509091019060005b818110156136ff5783511515835292840192918401916001016136e1565b50909998505050505050505050565b6000808335601e1984360301811261372557600080fd5b83016020810192503590506001600160401b0381111561374457600080fd5b80360382131561375357600080fd5b9250929050565b81835281816020850137506000828201602090810191909152601f909101601f19169091010190565b600061378f828361370e565b606085526137a160608601828461375a565b9150506137b1602084018461370e565b85830360208701526137c483828461375a565b9250505060408301356137d681612ea1565b6001600160a01b0316604094909401939093525090919050565b602081526000611fb16020830184613783565b8051610df081612ab4565b60006020828403121561382057600080fd5b81516001600160401b038082111561383757600080fd5b9083019060e0828603121561384b57600080fd5b613853612b6b565b61385c83613803565b815261386a60208401613186565b602082015260408301518281111561388157600080fd5b61388d87828601613466565b6040830152506060830151828111156138a557600080fd5b6138b1878286016132c9565b6060830152506080830151828111156138c957600080fd5b6138d5878286016131e8565b60808301525060a083015160a082015260c083015160c082015280935050505092915050565b60006020828403121561390d57600080fd5b8151611fb181612ea1565b60408152600061392b6040830185613783565b905060018060a01b03831660208301529392505050565b60006020828403121561395457600080fd5b611fb182613176565b60006001820161396f5761396f6130a6565b5060010190565b6001600160a01b0385811682526080602080840182905286519184018290526000928782019290919060a0860190855b818110156139c45785518516835294830194918301916001016139a6565b505085810360408701526139d881896130dc565b94505050505082606083015295945050505050565b6001600160a01b039384168152919092166020820152604081019190915260600190565b60008251613a23818460208701613013565b9190910192915050565b60008151808452602080850194506020840160005b8381101561310d57815180518852838101516001600160a01b031684890152604080820151908901526060908101519088015260809096019590820190600101613a42565b60008151808452602080850194506020840160005b8381101561310d57613aaf878351612e01565b6040969096019590820190600101613a9c565b60008151808452602080850194506020840160005b8381101561310d57815180518852838101516001600160a01b0316848901526040908101519088015260609096019590820190600101613ad7565b6060815260008451610140806060850152613b316101a0850183613037565b9150602087015160808501526040870151613b5760a08601826001600160a01b03169052565b50606087015160c0850152608087015160e085015260a0870151605f19610100818786030181880152613b8a8584613037565b945060c08a01519250610120613ba38189018515159052565b60e08b01519350828887030185890152613bbd8685613a2d565b9550818b0151610160890152808b015161018089015250505050508281036020840152613bea8186613a87565b90508281036040840152613bfe8185613ac2565b9695505050505050565b600082613c1757613c176135a3565b50069056fea2646970667358221220123b97ee2a10c2dd4a8b784b050de3c3d66170264f80d6f66c3ff0f095b865ba64736f6c63430008180033",
  "linkReferences": {
    "contracts/0xVault/libs/Crypto.sol": {
      "Crypto": [
        {
          "length": 20,
          "start": 3630
        },
        {
          "length": 20,
          "start": 3818
        }
      ]
    },
    "contracts/0xVault/libs/Dex.sol": {
      "Dex": [
        {
          "length": 20,
          "start": 8678
        }
      ]
    }
  },
  "deployedLinkReferences": {
    "contracts/0xVault/libs/Crypto.sol": {
      "Crypto": [
        {
          "length": 20,
          "start": 3598
        },
        {
          "length": 20,
          "start": 3786
        }
      ]
    },
    "contracts/0xVault/libs/Dex.sol": {
      "Dex": [
        {
          "length": 20,
          "start": 8646
        }
      ]
    }
  }
}