{
  "_format": "hh-sol-artifact-1",
  "contractName": "Vault",
  "sourceName": "contracts/0xVault/Vault.sol",
  "abi": [
    {
      "inputs": [],
      "name": "DataNotVerified",
      "type": "error"
    },
    {
      "inputs": [],
      "name": "DisputeChallengeFailed",
      "type": "error"
    },
    {
      "inputs": [],
      "name": "ECRecoverFailed",
      "type": "error"
    },
    {
      "inputs": [],
      "name": "EnforcedPause",
      "type": "error"
    },
    {
      "inputs": [],
      "name": "ExpectedPause",
      "type": "error"
    },
    {
      "inputs": [],
      "name": "InvalidAddress",
      "type": "error"
    },
    {
      "inputs": [],
      "name": "InvalidInitialization",
      "type": "error"
    },
    {
      "inputs": [],
      "name": "InvalidSP",
      "type": "error"
    },
    {
      "inputs": [],
      "name": "InvalidSchnorrSignature",
      "type": "error"
    },
    {
      "inputs": [],
      "name": "InvalidSignature",
      "type": "error"
    },
    {
      "inputs": [],
      "name": "InvalidUsedSignature",
      "type": "error"
    },
    {
      "inputs": [],
      "name": "NotInitializing",
      "type": "error"
    },
    {
      "inputs": [
        {
          "internalType": "address",
          "name": "owner",
          "type": "address"
        }
      ],
      "name": "OwnableInvalidOwner",
      "type": "error"
    },
    {
      "inputs": [
        {
          "internalType": "address",
          "name": "account",
          "type": "address"
        }
      ],
      "name": "OwnableUnauthorizedAccount",
      "type": "error"
    },
    {
      "inputs": [],
      "name": "ReentrancyGuardReentrantCall",
      "type": "error"
    },
    {
      "inputs": [],
      "name": "SettleDisputeFailed",
      "type": "error"
    },
    {
      "anonymous": false,
      "inputs": [
        {
          "indexed": true,
          "internalType": "address",
          "name": "user",
          "type": "address"
        },
        {
          "indexed": true,
          "internalType": "address",
          "name": "token",
          "type": "address"
        },
        {
          "indexed": false,
          "internalType": "uint256",
          "name": "amount",
          "type": "uint256"
        }
      ],
      "name": "Deposited",
      "type": "event"
    },
    {
      "anonymous": false,
      "inputs": [
        {
          "indexed": false,
          "internalType": "uint32",
          "name": "requestId",
          "type": "uint32"
        },
        {
          "indexed": true,
          "internalType": "address",
          "name": "user",
          "type": "address"
        }
      ],
      "name": "DisputeChallenged",
      "type": "event"
    },
    {
      "anonymous": false,
      "inputs": [
        {
          "indexed": false,
          "internalType": "uint32",
          "name": "requestId",
          "type": "uint32"
        },
        {
          "indexed": true,
          "internalType": "address",
          "name": "user",
          "type": "address"
        }
      ],
      "name": "DisputeOpened",
      "type": "event"
    },
    {
      "anonymous": false,
      "inputs": [
        {
          "indexed": false,
          "internalType": "uint32",
          "name": "requestId",
          "type": "uint32"
        },
        {
          "indexed": true,
          "internalType": "address",
          "name": "user",
          "type": "address"
        }
      ],
      "name": "DisputeSettled",
      "type": "event"
    },
    {
      "anonymous": false,
      "inputs": [
        {
          "indexed": false,
          "internalType": "uint64",
          "name": "version",
          "type": "uint64"
        }
      ],
      "name": "Initialized",
      "type": "event"
    },
    {
      "anonymous": false,
      "inputs": [
        {
          "indexed": true,
          "internalType": "address",
          "name": "user",
          "type": "address"
        },
        {
          "indexed": true,
          "internalType": "address",
          "name": "token",
          "type": "address"
        },
        {
          "indexed": false,
          "internalType": "uint256",
          "name": "amount",
          "type": "uint256"
        }
      ],
      "name": "LPProvided",
      "type": "event"
    },
    {
      "anonymous": false,
      "inputs": [
        {
          "indexed": true,
          "internalType": "address",
          "name": "user",
          "type": "address"
        },
        {
          "indexed": true,
          "internalType": "address",
          "name": "token",
          "type": "address"
        },
        {
          "indexed": false,
          "internalType": "uint256",
          "name": "amount",
          "type": "uint256"
        }
      ],
      "name": "LPWithdrawn",
      "type": "event"
    },
    {
      "anonymous": false,
      "inputs": [
        {
          "indexed": true,
          "internalType": "address",
          "name": "previousOwner",
          "type": "address"
        },
        {
          "indexed": true,
          "internalType": "address",
          "name": "newOwner",
          "type": "address"
        }
      ],
      "name": "OwnershipTransferred",
      "type": "event"
    },
    {
      "anonymous": false,
      "inputs": [
        {
          "indexed": true,
          "internalType": "address",
          "name": "user",
          "type": "address"
        },
        {
          "indexed": true,
          "internalType": "address",
          "name": "token",
          "type": "address"
        },
        {
          "indexed": false,
          "internalType": "uint256",
          "name": "amount",
          "type": "uint256"
        }
      ],
      "name": "PartialLiquidation",
      "type": "event"
    },
    {
      "anonymous": false,
      "inputs": [
        {
          "indexed": false,
          "internalType": "address",
          "name": "account",
          "type": "address"
        }
      ],
      "name": "Paused",
      "type": "event"
    },
    {
      "anonymous": false,
      "inputs": [
        {
          "indexed": false,
          "internalType": "uint32",
          "name": "requestId",
          "type": "uint32"
        },
        {
          "indexed": true,
          "internalType": "address",
          "name": "user",
          "type": "address"
        }
      ],
      "name": "PositionDisputeChallenged",
      "type": "event"
    },
    {
      "anonymous": false,
      "inputs": [
        {
          "indexed": true,
          "internalType": "address",
          "name": "token",
          "type": "address"
        }
      ],
      "name": "TokenAdded",
      "type": "event"
    },
    {
      "anonymous": false,
      "inputs": [
        {
          "indexed": true,
          "internalType": "address",
          "name": "token",
          "type": "address"
        }
      ],
      "name": "TokenRemoved",
      "type": "event"
    },
    {
      "anonymous": false,
      "inputs": [
        {
          "indexed": false,
          "internalType": "address",
          "name": "account",
          "type": "address"
        }
      ],
      "name": "Unpaused",
      "type": "event"
    },
    {
      "anonymous": false,
      "inputs": [
        {
          "indexed": true,
          "internalType": "address",
          "name": "user",
          "type": "address"
        },
        {
          "indexed": true,
          "internalType": "address",
          "name": "token",
          "type": "address"
        },
        {
          "indexed": false,
          "internalType": "uint256",
          "name": "amount",
          "type": "uint256"
        },
        {
          "indexed": false,
          "internalType": "uint32",
          "name": "requestId",
          "type": "uint32"
        }
      ],
      "name": "WithdrawalRequested",
      "type": "event"
    },
    {
      "anonymous": false,
      "inputs": [
        {
          "indexed": true,
          "internalType": "address",
          "name": "user",
          "type": "address"
        },
        {
          "indexed": true,
          "internalType": "address",
          "name": "token",
          "type": "address"
        },
        {
          "indexed": false,
          "internalType": "uint256",
          "name": "amount",
          "type": "uint256"
        }
      ],
      "name": "Withdrawn",
      "type": "event"
    },
    {
      "inputs": [
        {
          "internalType": "uint32",
          "name": "",
          "type": "uint32"
        }
      ],
      "name": "_disputes",
      "outputs": [
        {
          "internalType": "address",
          "name": "user",
          "type": "address"
        },
        {
          "internalType": "address",
          "name": "challenger",
          "type": "address"
        },
        {
          "internalType": "uint64",
          "name": "timestamp",
          "type": "uint64"
        },
        {
          "internalType": "uint8",
          "name": "status",
          "type": "uint8"
        },
        {
          "internalType": "uint32",
          "name": "sessionId",
          "type": "uint32"
        }
      ],
      "stateMutability": "view",
      "type": "function"
    },
    {
      "inputs": [
        {
          "internalType": "uint32",
          "name": "requestId",
          "type": "uint32"
        },
        {
          "components": [
            {
              "internalType": "bytes",
              "name": "data",
              "type": "bytes"
            },
            {
              "internalType": "bytes",
              "name": "signature",
              "type": "bytes"
            },
            {
              "internalType": "address",
              "name": "combinedPublicKey",
              "type": "address"
            }
          ],
          "internalType": "struct Crypto.SchnorrSignature",
          "name": "_schnorr",
          "type": "tuple"
        }
      ],
      "name": "challengeDispute",
      "outputs": [],
      "stateMutability": "nonpayable",
      "type": "function"
    },
    {
      "inputs": [
        {
          "internalType": "address",
          "name": "",
          "type": "address"
        }
      ],
      "name": "combinedPublicKey",
      "outputs": [
        {
          "internalType": "address",
          "name": "",
          "type": "address"
        }
      ],
      "stateMutability": "view",
      "type": "function"
    },
    {
      "inputs": [
        {
          "internalType": "address",
          "name": "token",
          "type": "address"
        },
        {
          "internalType": "uint256",
          "name": "amount",
          "type": "uint256"
        }
      ],
      "name": "deposit",
      "outputs": [],
      "stateMutability": "nonpayable",
      "type": "function"
    },
    {
      "inputs": [
        {
          "internalType": "address",
          "name": "",
          "type": "address"
        },
        {
          "internalType": "address",
          "name": "",
          "type": "address"
        }
      ],
      "name": "depositedAmount",
      "outputs": [
        {
          "internalType": "uint256",
          "name": "",
          "type": "uint256"
        }
      ],
      "stateMutability": "view",
      "type": "function"
    },
    {
      "inputs": [],
      "name": "dexSupporter",
      "outputs": [
        {
          "internalType": "address",
          "name": "",
          "type": "address"
        }
      ],
      "stateMutability": "view",
      "type": "function"
    },
    {
      "inputs": [
        {
          "internalType": "uint32",
          "name": "requestId",
          "type": "uint32"
        }
      ],
      "name": "getDisputeBalances",
      "outputs": [
        {
          "components": [
            {
              "internalType": "uint256",
              "name": "oracleId",
              "type": "uint256"
            },
            {
              "internalType": "address",
              "name": "addr",
              "type": "address"
            },
            {
              "internalType": "uint256",
              "name": "balance",
              "type": "uint256"
            }
          ],
          "internalType": "struct Crypto.Balance[]",
          "name": "",
          "type": "tuple[]"
        }
      ],
      "stateMutability": "view",
      "type": "function"
    },
    {
      "inputs": [
        {
          "internalType": "uint32",
          "name": "requestId",
          "type": "uint32"
        }
      ],
      "name": "getDisputePositions",
      "outputs": [
        {
          "components": [
            {
              "internalType": "string",
              "name": "positionId",
              "type": "string"
            },
            {
              "internalType": "uint256",
              "name": "oracleId",
              "type": "uint256"
            },
            {
              "internalType": "address",
              "name": "token",
              "type": "address"
            },
            {
              "internalType": "uint256",
              "name": "quantity",
              "type": "uint256"
            },
            {
              "internalType": "uint256",
              "name": "leverageFactor",
              "type": "uint256"
            },
            {
              "internalType": "string",
              "name": "leverageType",
              "type": "string"
            },
            {
              "internalType": "bool",
              "name": "isLong",
              "type": "bool"
            },
            {
              "components": [
                {
                  "internalType": "uint256",
                  "name": "oracleId",
                  "type": "uint256"
                },
                {
                  "internalType": "address",
                  "name": "token",
                  "type": "address"
                },
                {
                  "internalType": "uint256",
                  "name": "quantity",
                  "type": "uint256"
                },
                {
                  "internalType": "uint256",
                  "name": "entryPrice",
                  "type": "uint256"
                }
              ],
              "internalType": "struct Crypto.Collateral[]",
              "name": "collaterals",
              "type": "tuple[]"
            },
            {
              "internalType": "uint256",
              "name": "entryPrice",
              "type": "uint256"
            },
            {
              "internalType": "uint256",
              "name": "createdTimestamp",
              "type": "uint256"
            }
          ],
          "internalType": "struct Crypto.Position[]",
          "name": "",
          "type": "tuple[]"
        }
      ],
      "stateMutability": "view",
      "type": "function"
    },
    {
      "inputs": [
        {
          "internalType": "uint32",
          "name": "requestId",
          "type": "uint32"
        }
      ],
      "name": "getDisputeStatus",
      "outputs": [
        {
          "internalType": "bool",
          "name": "isOpenDispute",
          "type": "bool"
        },
        {
          "internalType": "uint64",
          "name": "timestamp",
          "type": "uint64"
        },
        {
          "internalType": "address",
          "name": "user",
          "type": "address"
        }
      ],
      "stateMutability": "view",
      "type": "function"
    },
    {
      "inputs": [
        {
          "internalType": "address",
          "name": "_owner",
          "type": "address"
        },
        {
          "internalType": "uint256",
          "name": "_signatureExpiryTime",
          "type": "uint256"
        },
        {
          "internalType": "address",
          "name": "_lpProvider",
          "type": "address"
        },
        {
          "internalType": "address",
          "name": "_dexSupporter",
          "type": "address"
        }
      ],
      "name": "initialize",
      "outputs": [],
      "stateMutability": "nonpayable",
      "type": "function"
    },
    {
      "inputs": [
        {
          "internalType": "bytes",
          "name": "signature",
          "type": "bytes"
        }
      ],
      "name": "isSchnorrSignatureUsed",
      "outputs": [
        {
          "internalType": "bool",
          "name": "",
          "type": "bool"
        }
      ],
      "stateMutability": "view",
      "type": "function"
    },
    {
      "inputs": [
        {
          "internalType": "address",
          "name": "",
          "type": "address"
        }
      ],
      "name": "isTokenSupported",
      "outputs": [
        {
          "internalType": "bool",
          "name": "",
          "type": "bool"
        }
      ],
      "stateMutability": "view",
      "type": "function"
    },
    {
      "inputs": [],
      "name": "lastPausedTime",
      "outputs": [
        {
          "internalType": "uint256",
          "name": "",
          "type": "uint256"
        }
      ],
      "stateMutability": "view",
      "type": "function"
    },
    {
      "inputs": [],
      "name": "lpProvider",
      "outputs": [
        {
          "internalType": "address",
          "name": "",
          "type": "address"
        }
      ],
      "stateMutability": "view",
      "type": "function"
    },
    {
      "inputs": [],
      "name": "owner",
      "outputs": [
        {
          "internalType": "address",
          "name": "",
          "type": "address"
        }
      ],
      "stateMutability": "view",
      "type": "function"
    },
    {
      "inputs": [],
      "name": "pause",
      "outputs": [],
      "stateMutability": "nonpayable",
      "type": "function"
    },
    {
      "inputs": [],
      "name": "paused",
      "outputs": [
        {
          "internalType": "bool",
          "name": "",
          "type": "bool"
        }
      ],
      "stateMutability": "view",
      "type": "function"
    },
    {
      "inputs": [],
      "name": "renounceOwnership",
      "outputs": [],
      "stateMutability": "nonpayable",
      "type": "function"
    },
    {
      "inputs": [
        {
          "internalType": "address",
          "name": "_user",
          "type": "address"
        },
        {
          "internalType": "address",
          "name": "_combinedPublicKey",
          "type": "address"
        }
      ],
      "name": "setCombinedPublicKey",
      "outputs": [],
      "stateMutability": "nonpayable",
      "type": "function"
    },
    {
      "inputs": [
        {
          "internalType": "address",
          "name": "_dexSupporter",
          "type": "address"
        }
      ],
      "name": "setDexSupporter",
      "outputs": [],
      "stateMutability": "nonpayable",
      "type": "function"
    },
    {
      "inputs": [
        {
          "internalType": "address",
          "name": "_lpProvider",
          "type": "address"
        }
      ],
      "name": "setLpProvider",
      "outputs": [],
      "stateMutability": "nonpayable",
      "type": "function"
    },
    {
      "inputs": [
        {
          "internalType": "bytes",
          "name": "signature",
          "type": "bytes"
        }
      ],
      "name": "setSchnorrSignatureUsed",
      "outputs": [],
      "stateMutability": "nonpayable",
      "type": "function"
    },
    {
      "inputs": [
        {
          "internalType": "uint256",
          "name": "_expiryTime",
          "type": "uint256"
        }
      ],
      "name": "setSignatureExpiryTime",
      "outputs": [],
      "stateMutability": "nonpayable",
      "type": "function"
    },
    {
      "inputs": [
        {
          "internalType": "address",
          "name": "token",
          "type": "address"
        },
        {
          "internalType": "bool",
          "name": "isSupported",
          "type": "bool"
        }
      ],
      "name": "setSupportedToken",
      "outputs": [],
      "stateMutability": "nonpayable",
      "type": "function"
    },
    {
      "inputs": [
        {
          "internalType": "uint32",
          "name": "requestId",
          "type": "uint32"
        },
        {
          "internalType": "uint256[]",
          "name": "updatedBalances",
          "type": "uint256[]"
        },
        {
          "internalType": "uint256[]",
          "name": "pnlValues",
          "type": "uint256[]"
        },
        {
          "internalType": "bool[]",
          "name": "isProfits",
          "type": "bool[]"
        }
      ],
      "name": "settleDisputeResult",
      "outputs": [],
      "stateMutability": "nonpayable",
      "type": "function"
    },
    {
      "inputs": [],
      "name": "signatureExpiryTime",
      "outputs": [
        {
          "internalType": "uint256",
          "name": "",
          "type": "uint256"
        }
      ],
      "stateMutability": "view",
      "type": "function"
    },
    {
      "inputs": [
        {
          "internalType": "address",
          "name": "newOwner",
          "type": "address"
        }
      ],
      "name": "transferOwnership",
      "outputs": [],
      "stateMutability": "nonpayable",
      "type": "function"
    },
    {
      "inputs": [],
      "name": "unpause",
      "outputs": [],
      "stateMutability": "nonpayable",
      "type": "function"
    },
    {
      "inputs": [
        {
          "internalType": "uint32",
          "name": "requestId",
          "type": "uint32"
        },
        {
          "internalType": "uint256[]",
          "name": "liquidatedIndexes",
          "type": "uint256[]"
        },
        {
          "internalType": "uint256",
          "name": "liquidatedCount",
          "type": "uint256"
        },
        {
          "internalType": "bool",
          "name": "isCrossLiquidated",
          "type": "bool"
        }
      ],
      "name": "updateLiquidatedPositions",
      "outputs": [],
      "stateMutability": "nonpayable",
      "type": "function"
    },
    {
      "inputs": [
        {
          "internalType": "address",
          "name": "user",
          "type": "address"
        },
        {
          "internalType": "address[]",
          "name": "tokens",
          "type": "address[]"
        },
        {
          "internalType": "uint256[]",
          "name": "losses",
          "type": "uint256[]"
        },
        {
          "internalType": "uint256",
          "name": "totalLossCount",
          "type": "uint256"
        }
      ],
      "name": "updatePartialLiquidation",
      "outputs": [],
      "stateMutability": "nonpayable",
      "type": "function"
    },
    {
      "inputs": [
        {
          "components": [
            {
              "internalType": "bytes",
              "name": "data",
              "type": "bytes"
            },
            {
              "internalType": "bytes",
              "name": "signature",
              "type": "bytes"
            },
            {
              "internalType": "address",
              "name": "combinedPublicKey",
              "type": "address"
            }
          ],
          "internalType": "struct Crypto.SchnorrSignature",
          "name": "_schnorr",
          "type": "tuple"
        }
      ],
      "name": "withdrawAndClosePositionTrustlessly",
      "outputs": [],
      "stateMutability": "nonpayable",
      "type": "function"
    },
    {
      "inputs": [
        {
          "internalType": "address",
          "name": "_combinedPublicKey",
          "type": "address"
        },
        {
          "components": [
            {
              "internalType": "bytes",
              "name": "data",
              "type": "bytes"
            },
            {
              "internalType": "bytes",
              "name": "signature",
              "type": "bytes"
            },
            {
              "internalType": "address",
              "name": "combinedPublicKey",
              "type": "address"
            }
          ],
          "internalType": "struct Crypto.SchnorrSignature",
          "name": "_schnorr",
          "type": "tuple"
        }
      ],
      "name": "withdrawSchnorr",
      "outputs": [],
      "stateMutability": "nonpayable",
      "type": "function"
    }
  ],
  "bytecode": "0x6080604052348015600f57600080fd5b50613f578061001f6000396000f3fe608060405234801561001057600080fd5b50600436106101805760003560e01c806303935b84146101855780630d235817146101ad578063358394d8146101cd5780633f4ba83a146101e257806347e7ef24146101ea578063570ddaa8146101fd5780635c975abb14610214578063715018a61461021c5780637482479f1461022457806375151b63146102375780638456cb591461025a57806386c93914146102625780638a7be80b146102755780638c920755146102885780638da5cb5b1461029b5780638e092bb5146102a35780638f2c081f146102b6578063923fec2a146102c957806397799e06146102dc578063a8207858146102ef578063ab3e857f14610302578063bf1e9ef5146103a8578063c2dd56bc146103bb578063c7a66c67146103db578063e0c32ec4146103e4578063e41cff641461040f578063e6d0efad14610438578063e79864661461044b578063e917bdcc1461045e578063ed9facad146104e2578063f2edcc9614610502578063f2fde38b14610515575b600080fd5b610198610193366004612d4c565b610528565b60405190151581526020015b60405180910390f35b6009546101c0906001600160a01b031681565b6040516101a49190612dbe565b6101e06101db366004612de7565b610558565b005b6101e0610699565b6101e06101f8366004612e3a565b6106af565b61020660005481565b6040519081526020016101a4565b61019861085f565b6101e0610874565b6101e0610232366004612e66565b610888565b610198610245366004612e66565b60076020526000908152604090205460ff1681565b6101e06108b2565b6101e0610270366004612e8a565b610916565b6101e0610283366004613008565b610923565b6101e0610296366004612d4c565b610c29565b6101c0610c8b565b6101e06102b1366004612e66565b610ca6565b6101e06102c4366004613115565b610cd0565b6101e06102d7366004613172565b611492565b600a546101c0906001600160a01b031681565b6101e06102fd3660046131d2565b6115cf565b61035f6103103660046131f0565b6002602052600090815260409020805460018201546004909201546001600160a01b039182169291821691600160a01b90046001600160401b03169060ff811690610100900463ffffffff1685565b604080516001600160a01b0396871681529590941660208601526001600160401b039092169284019290925260ff909116606083015263ffffffff16608082015260a0016101a4565b6101e06103b636600461320d565b611926565b6103ce6103c93660046131f0565b611d17565b6040516101a49190613313565b610206600b5481565b6102066103f2366004613378565b600860209081526000928352604080842090915290825290205481565b6101c061041d366004612e66565b6006602052600090815260409020546001600160a01b031681565b6101e06104463660046133b1565b611dae565b6101e06104593660046133ed565b6124c8565b6104b461046c3660046131f0565b63ffffffff1660009081526002602052604090206004810154600180830154925460ff9092161492600160a01b9092046001600160401b0316916001600160a01b0390911690565b6040805193151584526001600160401b0390921660208401526001600160a01b0316908201526060016101a4565b6104f56104f03660046131f0565b61256d565b6040516101a491906134d3565b6101e0610510366004613378565b6127dc565b6101e0610523366004612e66565b612812565b60006004838360405161053c9291906135de565b9081526040519081900360200190205460ff1690505b92915050565b600061056261284d565b805490915060ff600160401b82041615906001600160401b03166000811580156105895750825b90506000826001600160401b031660011480156105a55750303b155b9050811580156105b3575080155b156105d15760405163f92ee8a960e01b815260040160405180910390fd5b84546001600160401b031916600117855583156105fa57845460ff60401b1916600160401b1785555b61060389612871565b61060b612882565b610613612892565b6000889055600980546001600160a01b03808a166001600160a01b031992831617909255600a805492891692909116919091179055831561068e57845460ff60401b19168555604051600181527fc7f505b2f371ae2175ee4913f4499e1f2633a7b5936321eed1cdaeb6115181d29060200160405180910390a15b505050505050505050565b6106a16128a2565b6106a96128d4565b42600b55565b6106b761292b565b6106bf612961565b600081116107145760405162461bcd60e51b815260206004820181905260248201527f416d6f756e74206d7573742062652067726561746572207468616e207a65726f60448201526064015b60405180910390fd5b6001600160a01b03821660009081526007602052604090205460ff1661074c5760405162461bcd60e51b815260040161070b906135ee565b6040516323b872dd60e01b81526001600160a01b038316906323b872dd9061077c9033903090869060040161361b565b6020604051808303816000875af115801561079b573d6000803e3d6000fd5b505050506040513d601f19601f820116820180604052508101906107bf919061364f565b6107db5760405162461bcd60e51b815260040161070b9061366c565b3360009081526008602090815260408083206001600160a01b03861684529091528120805483929061080e9084906136ab565b90915550506040518181526001600160a01b0383169033907f8752a472e571a816aea92eec8dae9baf628e840f4929fbcc2d155e6233ff68a79060200160405180910390a361085b612987565b5050565b60008061086a612998565b5460ff1692915050565b61087c6128a2565b61088660006129bc565b565b6108906128a2565b600a80546001600160a01b0319166001600160a01b0392909216919091179055565b6108ba6128a2565b62015180600b54426108cc91906136be565b1161090e5760405162461bcd60e51b815260206004820152601260248201527114185d5cd9481d1bdbc8199c995c5d595b9d60721b604482015260640161070b565b610886612a18565b61091e6128a2565b600055565b61092b61292b565b600a546001600160a01b031633146109555760405162461bcd60e51b815260040161070b906136d1565b815183511461099e5760405162461bcd60e51b8152602060048201526015602482015274082e4e4c2f240d8cadccee8d040dad2e6dac2e8c6d605b1b604482015260640161070b565b82518111156109ea5760405162461bcd60e51b8152602060048201526018602482015277125b9d985b1a59081d1bdd185b081b1bdcdcc818dbdd5b9d60421b604482015260640161070b565b60005b81811015610c1a576000848281518110610a0957610a096136f7565b602002602001015190506000848381518110610a2757610a276136f7565b6020908102919091018101516001600160a01b03808a16600090815260088452604080822092871682529190935290912054909150811115610aab5760405162461bcd60e51b815260206004820152601d60248201527f496e73756666696369656e74206465706f736974656420616d6f756e74000000604482015260640161070b565b6001600160a01b03808816600090815260086020908152604080832093861683529290529081208054839290610ae29084906136be565b909155505060095460405163a9059cbb60e01b81526001600160a01b038481169263a9059cbb92610b1b9290911690859060040161370d565b6020604051808303816000875af1158015610b3a573d6000803e3d6000fd5b505050506040513d601f19601f82011682018060405250810190610b5e919061364f565b50600954604051630cadd63160e11b81526001600160a01b039091169063195bac6290610b91908590859060040161370d565b600060405180830381600087803b158015610bab57600080fd5b505af1158015610bbf573d6000803e3d6000fd5b50505050816001600160a01b0316876001600160a01b03167f3b7ebc7efc47fec3ee7bc30fe538bb5e5296e3cf7f70c0b34bc9f8de5cad986e83604051610c0891815260200190565b60405180910390a350506001016109ed565b50610c23612987565b50505050565b600a546001600160a01b03163314610c535760405162461bcd60e51b815260040161070b906136d1565b600160048383604051610c679291906135de565b908152604051908190036020019020805491151560ff199092169190911790555050565b600080610c96612a5f565b546001600160a01b031692915050565b610cae6128a2565b600980546001600160a01b0319166001600160a01b0392909216919091179055565b610cd861292b565b610ce0612961565b6004610cef6020830183613726565b604051610cfd9291906135de565b9081526040519081900360200190205460ff1615610d2d5760405162461bcd60e51b815260040161070b90613773565b63ffffffff8216600090815260026020526040808220905162da059160e31b815290919073__$50e9592bd68e5211c3a496048a4809ad3a$__906306d02c8890610d7b90869060040161387e565b600060405180830381865af4158015610d98573d6000803e3d6000fd5b505050506040513d6000823e601f3d908101601f19168201604052610dc09190810190613bbe565b600483015490915060ff16600114610dea5760405162461bcd60e51b815260040161070b90613cb1565b6001820154610e0c90600160a01b90046001600160401b031662093a80613ce1565b6001600160401b03164210610e5b5760405162461bcd60e51b8152602060048201526015602482015274111a5cdc1d5d19481dda5b991bddc818db1bdcd959605a1b604482015260640161070b565b6020808201516001600160a01b03908116600090815260069092526040918290205491516302f0063160e61b815273__$50e9592bd68e5211c3a496048a4809ad3a$__9263bc018c4092610eb792889290911690600401613d00565b602060405180830381865af4158015610ed4573d6000803e3d6000fd5b505050506040513d601f19601f82011682018060405250810190610ef8919061364f565b610f1557604051631e11ef7b60e31b815260040160405180910390fd5b60016004610f266020860186613726565b604051610f349291906135de565b9081526040805160209281900383019020805460ff191693151593909317909255825163ffffffff87811660009081526005909352929091205490918083169116101561146e5763ffffffff8086166000908152600560205260408120805492841663ffffffff19909316929092179091556001840180546001600160a01b03191633179055610fc8906002850190612bb9565b610fd6600384016000612bda565b60408201515160608301515160005b82811015611064578560020185604001518281518110611007576110076136f7565b60209081029190910181015182546001808201855560009485529383902082516003909202019081559181015182840180546001600160a01b0319166001600160a01b039092169190911790556040015160029091015501610fe5565b5060005b818110156114215763ffffffff8816600090815260026020908152604082206003018054600181018255908352912060608701518051600a90930290910191839081106110b7576110b76136f7565b60209081029190910101515181906110cf9082613daa565b50856060015182815181106110e6576110e66136f7565b6020026020010151604001518160020160006101000a8154816001600160a01b0302191690836001600160a01b0316021790555085606001518281518110611130576111306136f7565b60200260200101516060015181600301819055508560600151828151811061115a5761115a6136f7565b602002602001015160c001518160060160006101000a81548160ff02191690831515021790555085606001518281518110611197576111976136f7565b602002602001015161010001518160080181905550856060015182815181106111c2576111c26136f7565b602002602001015161012001518160090181905550856060015182815181106111ed576111ed6136f7565b602002602001015160200151816001018190555085606001518281518110611217576112176136f7565b602002602001015160800151816004018190555085606001518281518110611241576112416136f7565b602002602001015160a0015181600501908161125d9190613daa565b50600086606001518381518110611276576112766136f7565b602002602001015160e0015151905060005b81811015611416578260070160405180608001604052808a6060015187815181106112b5576112b56136f7565b602002602001015160e0015184815181106112d2576112d26136f7565b60200260200101516000015181526020018a6060015187815181106112f9576112f96136f7565b602002602001015160e001518481518110611316576113166136f7565b6020026020010151602001516001600160a01b031681526020018a606001518781518110611346576113466136f7565b602002602001015160e001518481518110611363576113636136f7565b60200260200101516040015181526020018a60600151878151811061138a5761138a6136f7565b602002602001015160e0015184815181106113a7576113a76136f7565b60209081029190910181015160609081015190925283546001808201865560009586529482902084516004909202019081559083015181850180546001600160a01b0319166001600160a01b039092169190911790556040830151600282015591015160039091015501611288565b505050600101611068565b5083602001516001600160a01b03167f41333d535ecc89f2d33b1d5f30416f34ba3c7d0bbf7aaea28a3b7c330969379b8860405161145f9190613e68565b60405180910390a25050611487565b604051630f0ae6d960e31b815260040160405180910390fd5b50505061085b612987565b600a546001600160a01b031633146114e45760405162461bcd60e51b81526020600482015260156024820152742932b8bab4b932902232bc1029bab83837b93a32b960591b604482015260640161070b565b63ffffffff84166000908152600260205260409020600481015460ff166001146115205760405162461bcd60e51b815260040161070b90613cb1565b60005b8381101561157d57600085828151811061153f5761153f6136f7565b602002602001015190506000836003018281548110611560576115606136f7565b600091825260209091206003600a90920201015550600101611523565b5081156115c85760005b60028201548110156115c65760008260020182815481106115aa576115aa6136f7565b6000918252602090912060026003909202010155600101611587565b505b5050505050565b6115d761292b565b6115df612961565b60046115ee6020830183613726565b6040516115fc9291906135de565b9081526040519081900360200190205460ff161561162c5760405162461bcd60e51b815260040161070b90613773565b336000908152600660205260408082205490516376b90c5960e01b815273__$50e9592bd68e5211c3a496048a4809ad3a$__916376b90c599161167f9186916001600160a01b0390911690600401613d00565b608060405180830381865af415801561169c573d6000803e3d6000fd5b505050506040513d601f19601f820116820180604052508101906116c09190613e79565b905060008160400151116117225760405162461bcd60e51b815260206004820152602360248201527f416d6f756e74206d7573742062796573652067726561746572207468616e207a60448201526265726f60e81b606482015260840161070b565b6020808201516001600160a01b031660009081526007909152604090205460ff1661175f5760405162461bcd60e51b815260040161070b906135ee565b600054606082015161177a906001600160401b0316426136be565b106117bb5760405162461bcd60e51b815260206004820152601160248201527014da59db985d1d5c9948115e1c1a5c9959607a1b604482015260640161070b565b80516001600160a01b031633146117e557604051631e11ef7b60e31b815260040160405180910390fd5b600160046117f66020850185613726565b6040516118049291906135de565b9081526040805160209281900383018120805460ff1916941515949094179093553360008181526006845282902080546001600160a01b0319166001600160a01b0389811691909117909155928501519185015163a9059cbb60e01b8552919092169263a9059cbb9261187b92909160040161370d565b6020604051808303816000875af115801561189a573d6000803e3d6000fd5b505050506040513d601f19601f820116820180604052508101906118be919061364f565b6118da5760405162461bcd60e51b815260040161070b9061366c565b80602001516001600160a01b0316336001600160a01b0316600080516020613f02833981519152836040015160405161191591815260200190565b60405180910390a35061085b612987565b61192e61292b565b600a546001600160a01b031633146119585760405162461bcd60e51b815260040161070b906136d1565b63ffffffff84166000908152600260205260409020600481015460ff166001146119945760405162461bcd60e51b815260040161070b90613cb1565b60005b6002820154811015611cb85760008260020182815481106119ba576119ba6136f7565b6000918252602082206001600390920201015487516001600160a01b0390911692508790849081106119ee576119ee6136f7565b60200260200101519050848381518110611a0a57611a0a6136f7565b602002602001015115611aa357600954845487516001600160a01b0392831692639423b55e92169085908a9088908110611a4657611a466136f7565b60200260200101516040518463ffffffff1660e01b8152600401611a6c9392919061361b565b600060405180830381600087803b158015611a8657600080fd5b505af1158015611a9a573d6000803e3d6000fd5b50505050611bbb565b60095486516001600160a01b038085169263a9059cbb92911690899087908110611acf57611acf6136f7565b60200260200101516040518363ffffffff1660e01b8152600401611af492919061370d565b6020604051808303816000875af1158015611b13573d6000803e3d6000fd5b505050506040513d601f19601f82011682018060405250810190611b37919061364f565b5060095486516001600160a01b039091169063195bac62908490899087908110611b6357611b636136f7565b60200260200101516040518363ffffffff1660e01b8152600401611b8892919061370d565b600060405180830381600087803b158015611ba257600080fd5b505af1158015611bb6573d6000803e3d6000fd5b505050505b83546001600160a01b0390811660009081526008602090815260408083208685168085529252808320929092558654915163a9059cbb60e01b8152909263a9059cbb92611c0f92911690859060040161370d565b6020604051808303816000875af1158015611c2e573d6000803e3d6000fd5b505050506040513d601f19601f82011682018060405250810190611c52919061364f565b5083546040518281526001600160a01b03848116921690600080516020613f028339815191529060200160405180910390a380846002018481548110611c9a57611c9a6136f7565b60009182526020909120600260039092020101555050600101611997565b5060048101805460ff1916600317905580546040516001600160a01b03909116907f8b703fbb69bafcfe17cc041cf70cf1f199e44c5e5f70dca4aa3d01ce927996cc90611d06908890613e68565b60405180910390a250610c23612987565b63ffffffff811660009081526002602081815260408084209092018054835181840281018401909452808452606094919290919084015b82821015611da35760008481526020908190206040805160608101825260038602909201805483526001808201546001600160a01b031684860152600290910154918301919091529083529092019101611d4e565b505050509050919050565b611db661292b565b611dbe612961565b60405162da059160e31b815260009073__$50e9592bd68e5211c3a496048a4809ad3a$__906306d02c8890611df790859060040161387e565b600060405180830381865af4158015611e14573d6000803e3d6000fd5b505050506040513d6000823e601f3d908101601f19168201604052611e3c9190810190613bbe565b60208101519091506001600160a01b03163314611e6c57604051631e11ef7b60e31b815260040160405180910390fd5b6020808201516001600160a01b03908116600090815260069092526040918290205491516302f0063160e61b815273__$50e9592bd68e5211c3a496048a4809ad3a$__9263bc018c4092611ec892879290911690600401613d00565b602060405180830381865af4158015611ee5573d6000803e3d6000fd5b505050506040513d601f19601f82011682018060405250810190611f09919061364f565b611f2657604051631e11ef7b60e31b815260040160405180910390fd5b6004611f356020840184613726565b604051611f439291906135de565b9081526040519081900360200190205460ff1615611f7457604051631e11ef7b60e31b815260040160405180910390fd5b60018054611f8a9163ffffffff90911690613ee5565b6001805463ffffffff191663ffffffff9290921691821781556000828152600260205260408082209092018054600160a01b600160e01b031916600160a01b426001600160401b031602179055908301515160608401515190915b8181101561239e5763ffffffff8416600090815260026020908152604082206003018054600181018255908352912060608701518051600a9093029091019183908110612034576120346136f7565b602090810291909101015151819061204c9082613daa565b5085606001518281518110612063576120636136f7565b6020026020010151604001518160020160006101000a8154816001600160a01b0302191690836001600160a01b03160217905550856060015182815181106120ad576120ad6136f7565b6020026020010151606001518160030181905550856060015182815181106120d7576120d76136f7565b602002602001015160c001518160060160006101000a81548160ff02191690831515021790555085606001518281518110612114576121146136f7565b6020026020010151610100015181600801819055508560600151828151811061213f5761213f6136f7565b6020026020010151610120015181600901819055508560600151828151811061216a5761216a6136f7565b602002602001015160200151816001018190555085606001518281518110612194576121946136f7565b6020026020010151608001518160040181905550856060015182815181106121be576121be6136f7565b602002602001015160a001518160050190816121da9190613daa565b506000866060015183815181106121f3576121f36136f7565b602002602001015160e0015151905060005b81811015612393578260070160405180608001604052808a606001518781518110612232576122326136f7565b602002602001015160e00151848151811061224f5761224f6136f7565b60200260200101516000015181526020018a606001518781518110612276576122766136f7565b602002602001015160e001518481518110612293576122936136f7565b6020026020010151602001516001600160a01b031681526020018a6060015187815181106122c3576122c36136f7565b602002602001015160e0015184815181106122e0576122e06136f7565b60200260200101516040015181526020018a606001518781518110612307576123076136f7565b602002602001015160e001518481518110612324576123246136f7565b60209081029190910181015160609081015190925283546001808201865560009586529482902084516004909202019081559083015181850180546001600160a01b0319166001600160a01b039092169190911790556040830151600282015591015160039091015501612205565b505050600101611fe5565b5060005b8281101561243f57600260008563ffffffff1663ffffffff168152602001908152602001600020600201856040015182815181106123e2576123e26136f7565b60209081029190910181015182546001808201855560009485529383902082516003909202019081559181015182840180546001600160a01b0319166001600160a01b0390921691909117905560400151600290910155016123a2565b50835163ffffffff8481166000908152600560209081526040909120805463ffffffff19169284169290921790915560019060049061248090890189613726565b60405161248e9291906135de565b908152604051908190036020019020805491151560ff199092169190911790556124b88433612a83565b50505050506124c5612987565b50565b6124d06128a2565b6001600160a01b0382166000908152600760205260409020805460ff19168215801591909117909155612535576040516001600160a01b038316907f784c8f4dbf0ffedd6e72c76501c545a70f8b203b30a26ce542bf92ba87c248a490600090a25050565b6040516001600160a01b038316907f4c910b69fe65a61f7531b9c5042b2329ca7179c77290aa7e2eb3afa3c8511fd390600090a25050565b63ffffffff81166000908152600260209081526040808320600301805482518185028101850190935280835260609492939192909184015b82821015611da357838290600052602060002090600a0201604051806101400160405290816000820180546125d990613d2a565b80601f016020809104026020016040519081016040528092919081815260200182805461260590613d2a565b80156126525780601f1061262757610100808354040283529160200191612652565b820191906000526020600020905b81548152906001019060200180831161263557829003601f168201915b50505091835250506001820154602082015260028201546001600160a01b03166040820152600382015460608201526004820154608082015260058201805460a0909201916126a090613d2a565b80601f01602080910402602001604051908101604052809291908181526020018280546126cc90613d2a565b80156127195780601f106126ee57610100808354040283529160200191612719565b820191906000526020600020905b8154815290600101906020018083116126fc57829003601f168201915b5050509183525050600682015460ff161515602080830191909152600783018054604080518285028101850182528281529401939260009084015b828210156127b15760008481526020908190206040805160808101825260048602909201805483526001808201546001600160a01b0316848601526002820154928401929092526003015460608301529083529092019101612754565b50505050815260200160088201548152602001600982015481525050815260200190600101906125a5565b6127e46128a2565b6001600160a01b03918216600090815260066020526040902080546001600160a01b03191691909216179055565b61281a6128a2565b6001600160a01b038116612844576000604051631e4fbdf760e01b815260040161070b9190612dbe565b6124c5816129bc565b7ff0c57e16840df040f15088dc2f81fe391c3923bec73e23a9662efc9c229c6a0090565b612879612b04565b6124c581612b29565b61288a612b04565b610886612b31565b61289a612b04565b610886612b4e565b336128ab610c8b565b6001600160a01b031614610886573360405163118cdaa760e01b815260040161070b9190612dbe565b6128dc612b56565b60006128e6612998565b805460ff1916815590507f5db9ee0a495bf2e6ff9c91a7834c1ba4fdd244a5e8aa4e537bd38aeae4b073aa335b6040516129209190612dbe565b60405180910390a150565b6000612935612b7b565b80549091506001190161295b57604051633ee5aeb560e01b815260040160405180910390fd5b60029055565b61296961085f565b156108865760405163d93c066560e01b815260040160405180910390fd5b6000612991612b7b565b6001905550565b7fcd5ed15c6e187e77e9aee88184c21f4f2182ab5827cb3b7e07fbedcd63f0330090565b60006129c6612a5f565b80546001600160a01b038481166001600160a01b031983168117845560405193945091169182907f8be0079c531659141344cd1fd0a4f28419497f9722a3daafe3b4186f6b6457e090600090a3505050565b612a20612961565b6000612a2a612998565b805460ff1916600117815590507f62e78cea01bee320cd4e420270b5ea74000d11b0c9f74754ebdbfc544b05a2586129133390565b7f9016d09d72d40fdae2fd8ceac6b6234c7706214fd39c1cd1e609a0528c19930090565b63ffffffff82166000908152600260205260409081902060048101805460ff1916600117905580546001600160a01b0384166001600160a01b03199091168117825591519091907f2fdd05cb84b2efdbfb66efce92f66f26e7323b06b91ed693c764e01573436af990612af7908690613e68565b60405180910390a2505050565b612b0c612b9f565b61088657604051631afcd79f60e31b815260040160405180910390fd5b61281a612b04565b612b39612b04565b6000612b43612998565b805460ff1916905550565b612987612b04565b612b5e61085f565b61088657604051638dfc202b60e01b815260040160405180910390fd5b7f9b779b17422d0df92223018b32b4d1fa46e071723d6817e2486d003becc55f0090565b6000612ba961284d565b54600160401b900460ff16919050565b50805460008255600302906000526020600020908101906124c59190612bfb565b50805460008255600a02906000526020600020908101906124c59190612c2c565b5b80821115612c285760008082556001820180546001600160a01b03191690556002820155600301612bfc565b5090565b80821115612c28576000612c408282612ca8565b6000600183018190556002830180546001600160a01b03191690556003830181905560048301819055612c77906005840190612ca8565b60068201805460ff19169055612c91600783016000612ce2565b506000600882018190556009820155600a01612c2c565b508054612cb490613d2a565b6000825580601f10612cc4575050565b601f0160209004906000526020600020908101906124c59190612d03565b50805460008255600402906000526020600020908101906124c59190612d18565b5b80821115612c285760008155600101612d04565b5b80821115612c285760008082556001820180546001600160a01b0319169055600282018190556003820155600401612d19565b60008060208385031215612d5f57600080fd5b82356001600160401b03811115612d7557600080fd5b8301601f81018513612d8657600080fd5b80356001600160401b03811115612d9c57600080fd5b856020828401011115612dae57600080fd5b6020919091019590945092505050565b6001600160a01b0391909116815260200190565b6001600160a01b03811681146124c557600080fd5b60008060008060808587031215612dfd57600080fd5b8435612e0881612dd2565b9350602085013592506040850135612e1f81612dd2565b91506060850135612e2f81612dd2565b939692955090935050565b60008060408385031215612e4d57600080fd5b8235612e5881612dd2565b946020939093013593505050565b600060208284031215612e7857600080fd5b8135612e8381612dd2565b9392505050565b600060208284031215612e9c57600080fd5b5035919050565b634e487b7160e01b600052604160045260246000fd5b604051606081016001600160401b0381118282101715612edb57612edb612ea3565b60405290565b604051608081016001600160401b0381118282101715612edb57612edb612ea3565b60405161014081016001600160401b0381118282101715612edb57612edb612ea3565b60405160c081016001600160401b0381118282101715612edb57612edb612ea3565b604051601f8201601f191681016001600160401b0381118282101715612f7057612f70612ea3565b604052919050565b60006001600160401b03821115612f9157612f91612ea3565b5060051b60200190565b600082601f830112612fac57600080fd5b8135612fbf612fba82612f78565b612f48565b8082825260208201915060208360051b860101925085831115612fe157600080fd5b602085015b83811015612ffe578035835260209283019201612fe6565b5095945050505050565b6000806000806080858703121561301e57600080fd5b843561302981612dd2565b935060208501356001600160401b0381111561304457600080fd5b8501601f8101871361305557600080fd5b8035613063612fba82612f78565b8082825260208201915060208360051b85010192508983111561308557600080fd5b6020840193505b828410156130b057833561309f81612dd2565b82526020938401939091019061308c565b955050505060408501356001600160401b038111156130ce57600080fd5b6130da87828801612f9b565b949793965093946060013593505050565b63ffffffff811681146124c557600080fd5b60006060828403121561310f57600080fd5b50919050565b6000806040838503121561312857600080fd5b8235613133816130eb565b915060208301356001600160401b0381111561314e57600080fd5b61315a858286016130fd565b9150509250929050565b80151581146124c557600080fd5b6000806000806080858703121561318857600080fd5b8435613193816130eb565b935060208501356001600160401b038111156131ae57600080fd5b6131ba87828801612f9b565b935050604085013591506060850135612e2f81613164565b600080604083850312156131e557600080fd5b823561313381612dd2565b60006020828403121561320257600080fd5b8135612e83816130eb565b6000806000806080858703121561322357600080fd5b843561322e816130eb565b935060208501356001600160401b0381111561324957600080fd5b61325587828801612f9b565b93505060408501356001600160401b0381111561327157600080fd5b61327d87828801612f9b565b92505060608501356001600160401b0381111561329957600080fd5b8501601f810187136132aa57600080fd5b80356132b8612fba82612f78565b8082825260208201915060208360051b8501019250898311156132da57600080fd5b6020840193505b828410156133055783356132f481613164565b8252602093840193909101906132e1565b969995985093965050505050565b602080825282518282018190526000918401906040840190835b8181101561336d578351805184526020808201516001600160a01b031681860152604091820151918501919091529093019260609092019160010161332d565b509095945050505050565b6000806040838503121561338b57600080fd5b823561339681612dd2565b915060208301356133a681612dd2565b809150509250929050565b6000602082840312156133c357600080fd5b81356001600160401b038111156133d957600080fd5b6133e5848285016130fd565b949350505050565b6000806040838503121561340057600080fd5b823561340b81612dd2565b915060208301356133a681613164565b60005b8381101561343657818101518382015260200161341e565b50506000910152565b6000815180845261345781602086016020860161341b565b601f01601f19169290920160200192915050565b600081518084526020840193506020830160005b828110156134c9578151805187526020808201516001600160a01b03168189015260408083015190890152606091820151918801919091526080909601959091019060010161347f565b5093949350505050565b6000602082016020835280845180835260408501915060408160051b86010192506020860160005b828110156135d257603f1987860301845281518051610140875261352361014088018261343f565b905060208201516020880152604082015161354960408901826001600160a01b03169052565b50606082015160608801526080820151608088015260a082015187820360a0890152613575828261343f565b91505060c082015161358b60c089018215159052565b5060e082015187820360e08901526135a3828261346b565b61010084810151908a0152610120938401519390980192909252505060209384019391909101906001016134fb565b50929695505050505050565b8183823760009101908152919050565b602080825260139082015272151bdad95b881b9bdd081cdd5c1c1bdc9d1959606a1b604082015260600190565b6001600160a01b039384168152919092166020820152604081019190915260600190565b805161364a81613164565b919050565b60006020828403121561366157600080fd5b8151612e8381613164565b6020808252600f908201526e151c985b9cd9995c8819985a5b1959608a1b604082015260600190565b634e487b7160e01b600052601160045260246000fd5b8082018082111561055257610552613695565b8181038181111561055257610552613695565b6020808252600c908201526b155b985d5d1a1bdc9a5e995960a21b604082015260600190565b634e487b7160e01b600052603260045260246000fd5b6001600160a01b03929092168252602082015260400190565b6000808335601e1984360301811261373d57600080fd5b8301803591506001600160401b0382111561375757600080fd5b60200191503681900382131561376c57600080fd5b9250929050565b60208082526016908201527514da59db985d1d5c9948185b1c9958591e481d5cd95960521b604082015260600190565b6000808335601e198436030181126137ba57600080fd5b83016020810192503590506001600160401b038111156137d957600080fd5b80360382131561376c57600080fd5b81835281816020850137506000828201602090810191909152601f909101601f19169091010190565b600061381d82836137a3565b6060855261382f6060860182846137e8565b91505061383f60208401846137a3565b85830360208701526138528382846137e8565b92505050604083013561386481612dd2565b6001600160a01b0316604094909401939093525090919050565b602081526000612e836020830184613811565b805161364a816130eb565b805161364a81612dd2565b600082601f8301126138b857600080fd5b81516138c6612fba82612f78565b808282526020820191506020606084028601019250858311156138e857600080fd5b602085015b83811015612ffe576060818803121561390557600080fd5b61390d612eb9565b81518152602082015161391f81612dd2565b6020828101919091526040838101519083015290845292909201916060016138ed565b600082601f83011261395357600080fd5b81516001600160401b0381111561396c5761396c612ea3565b61397f601f8201601f1916602001612f48565b81815284602083860101111561399457600080fd5b6133e582602083016020870161341b565b600082601f8301126139b657600080fd5b81516139c4612fba82612f78565b8082825260208201915060208360071b8601019250858311156139e657600080fd5b602085015b83811015612ffe5760808188031215613a0357600080fd5b613a0b612ee1565b815181526020820151613a1d81612dd2565b602082810191909152604083810151908301526060808401519083015290845292909201916080016139eb565b600082601f830112613a5b57600080fd5b8151613a69612fba82612f78565b8082825260208201915060208360051b860101925085831115613a8b57600080fd5b602085015b83811015612ffe5780516001600160401b03811115613aae57600080fd5b8601610140818903601f19011215613ac557600080fd5b613acd612f03565b60208201516001600160401b03811115613ae657600080fd5b613af58a602083860101613942565b82525060408201516020820152613b0e6060830161389c565b6040820152608082810151606083015260a08301519082015260c08201516001600160401b03811115613b4057600080fd5b613b4f8a602083860101613942565b60a083015250613b6160e0830161363f565b60c08201526101008201516001600160401b03811115613b8057600080fd5b613b8f8a6020838601016139a5565b60e083015250610120828101516101008301526101409092015191810191909152835260209283019201613a90565b600060208284031215613bd057600080fd5b81516001600160401b03811115613be657600080fd5b820160c08185031215613bf857600080fd5b613c00612f26565b613c0982613891565b8152613c176020830161389c565b602082015260408201516001600160401b03811115613c3557600080fd5b613c41868285016138a7565b60408301525060608201516001600160401b03811115613c6057600080fd5b613c6c86828501613a4a565b60608301525060808201516001600160401b03811115613c8b57600080fd5b613c9786828501613942565b60808301525060a091820151918101919091529392505050565b602080825260169082015275496e76616c696420646973707574652073746174757360501b604082015260600190565b6001600160401b03818116838216019081111561055257610552613695565b604081526000613d136040830185613811565b905060018060a01b03831660208301529392505050565b600181811c90821680613d3e57607f821691505b60208210810361310f57634e487b7160e01b600052602260045260246000fd5b601f821115613da557806000526020600020601f840160051c81016020851015613d855750805b601f840160051c820191505b818110156115c85760008155600101613d91565b505050565b81516001600160401b03811115613dc357613dc3612ea3565b613dd781613dd18454613d2a565b84613d5e565b6020601f821160018114613e0b5760008315613df35750848201515b600019600385901b1c1916600184901b1784556115c8565b600084815260208120601f198516915b82811015613e3b5787850151825560209485019460019092019101613e1b565b5084821015613e595786840151600019600387901b60f8161c191681555b50505050600190811b01905550565b63ffffffff91909116815260200190565b60006080828403128015613e8c57600080fd5b50613e95612ee1565b8251613ea081612dd2565b81526020830151613eb081612dd2565b60208201526040838101519082015260608301516001600160401b0381168114613ed957600080fd5b60608201529392505050565b63ffffffff81811683821601908111156105525761055261369556fed1c19fbcd4551a5edfb66d43d2e337c04837afda3482b42bdf569a8fccdae5fba26469706673582212202b6bdcb43b3e22e55e30ae68168e5fd9153087b3ea60f2363966938a7e886fdb64736f6c634300081b0033",
  "linkReferences": {
    "contracts/0xVault/libs/Crypto.sol": {
      "Crypto": [
        {
          "length": 20,
          "start": 3442
        },
        {
          "length": 20,
          "start": 3754
        },
        {
          "length": 20,
          "start": 5738
        },
        {
          "length": 20,
          "start": 7662
        },
        {
          "length": 20,
          "start": 7867
        }
      ]
    }
  },
  "deployedLinkReferences": {
    "contracts/0xVault/libs/Crypto.sol": {
      "Crypto": [
        {
          "length": 20,
          "start": 3411
        },
        {
          "length": 20,
          "start": 3723
        },
        {
          "length": 20,
          "start": 5707
        },
        {
          "length": 20,
          "start": 7631
        },
        {
          "length": 20,
          "start": 7836
        }
      ]
    }
  }
}