{
  "_format": "hh-sol-artifact-1",
  "contractName": "Vault",
  "sourceName": "contracts/0xVault/Vault.sol",
  "abi": [
    {
      "inputs": [],
      "name": "DataNotVerified",
      "type": "error"
    },
    {
      "inputs": [],
      "name": "DisputeChallengeFailed",
      "type": "error"
    },
    {
      "inputs": [],
      "name": "ECRecoverFailed",
      "type": "error"
    },
    {
      "inputs": [],
      "name": "EnforcedPause",
      "type": "error"
    },
    {
      "inputs": [],
      "name": "ExpectedPause",
      "type": "error"
    },
    {
      "inputs": [],
      "name": "InvalidAddress",
      "type": "error"
    },
    {
      "inputs": [],
      "name": "InvalidInitialization",
      "type": "error"
    },
    {
      "inputs": [],
      "name": "InvalidSP",
      "type": "error"
    },
    {
      "inputs": [],
      "name": "InvalidSchnorrSignature",
      "type": "error"
    },
    {
      "inputs": [],
      "name": "InvalidSignature",
      "type": "error"
    },
    {
      "inputs": [],
      "name": "InvalidUsedSignature",
      "type": "error"
    },
    {
      "inputs": [],
      "name": "NotInitializing",
      "type": "error"
    },
    {
      "inputs": [
        {
          "internalType": "address",
          "name": "owner",
          "type": "address"
        }
      ],
      "name": "OwnableInvalidOwner",
      "type": "error"
    },
    {
      "inputs": [
        {
          "internalType": "address",
          "name": "account",
          "type": "address"
        }
      ],
      "name": "OwnableUnauthorizedAccount",
      "type": "error"
    },
    {
      "inputs": [],
      "name": "ReentrancyGuardReentrantCall",
      "type": "error"
    },
    {
      "inputs": [],
      "name": "SettleDisputeFailed",
      "type": "error"
    },
    {
      "anonymous": false,
      "inputs": [
        {
          "indexed": true,
          "internalType": "address",
          "name": "user",
          "type": "address"
        },
        {
          "indexed": true,
          "internalType": "address",
          "name": "token",
          "type": "address"
        },
        {
          "indexed": false,
          "internalType": "uint256",
          "name": "amount",
          "type": "uint256"
        }
      ],
      "name": "Deposited",
      "type": "event"
    },
    {
      "anonymous": false,
      "inputs": [
        {
          "indexed": false,
          "internalType": "uint32",
          "name": "requestId",
          "type": "uint32"
        },
        {
          "indexed": true,
          "internalType": "address",
          "name": "user",
          "type": "address"
        }
      ],
      "name": "DisputeChallenged",
      "type": "event"
    },
    {
      "anonymous": false,
      "inputs": [
        {
          "indexed": false,
          "internalType": "uint32",
          "name": "requestId",
          "type": "uint32"
        },
        {
          "indexed": true,
          "internalType": "address",
          "name": "user",
          "type": "address"
        }
      ],
      "name": "DisputeOpened",
      "type": "event"
    },
    {
      "anonymous": false,
      "inputs": [
        {
          "indexed": false,
          "internalType": "uint32",
          "name": "requestId",
          "type": "uint32"
        },
        {
          "indexed": true,
          "internalType": "address",
          "name": "user",
          "type": "address"
        }
      ],
      "name": "DisputeSettled",
      "type": "event"
    },
    {
      "anonymous": false,
      "inputs": [
        {
          "indexed": false,
          "internalType": "uint64",
          "name": "version",
          "type": "uint64"
        }
      ],
      "name": "Initialized",
      "type": "event"
    },
    {
      "anonymous": false,
      "inputs": [
        {
          "indexed": true,
          "internalType": "address",
          "name": "user",
          "type": "address"
        },
        {
          "indexed": true,
          "internalType": "address",
          "name": "token",
          "type": "address"
        },
        {
          "indexed": false,
          "internalType": "uint256",
          "name": "amount",
          "type": "uint256"
        }
      ],
      "name": "LPProvided",
      "type": "event"
    },
    {
      "anonymous": false,
      "inputs": [
        {
          "indexed": true,
          "internalType": "address",
          "name": "user",
          "type": "address"
        },
        {
          "indexed": true,
          "internalType": "address",
          "name": "token",
          "type": "address"
        },
        {
          "indexed": false,
          "internalType": "uint256",
          "name": "amount",
          "type": "uint256"
        }
      ],
      "name": "LPWithdrawn",
      "type": "event"
    },
    {
      "anonymous": false,
      "inputs": [
        {
          "indexed": true,
          "internalType": "address",
          "name": "previousOwner",
          "type": "address"
        },
        {
          "indexed": true,
          "internalType": "address",
          "name": "newOwner",
          "type": "address"
        }
      ],
      "name": "OwnershipTransferred",
      "type": "event"
    },
    {
      "anonymous": false,
      "inputs": [
        {
          "indexed": true,
          "internalType": "address",
          "name": "user",
          "type": "address"
        },
        {
          "indexed": true,
          "internalType": "address",
          "name": "token",
          "type": "address"
        },
        {
          "indexed": false,
          "internalType": "uint256",
          "name": "amount",
          "type": "uint256"
        }
      ],
      "name": "PartialLiquidation",
      "type": "event"
    },
    {
      "anonymous": false,
      "inputs": [
        {
          "indexed": false,
          "internalType": "address",
          "name": "account",
          "type": "address"
        }
      ],
      "name": "Paused",
      "type": "event"
    },
    {
      "anonymous": false,
      "inputs": [
        {
          "indexed": false,
          "internalType": "uint32",
          "name": "requestId",
          "type": "uint32"
        },
        {
          "indexed": true,
          "internalType": "address",
          "name": "user",
          "type": "address"
        }
      ],
      "name": "PositionDisputeChallenged",
      "type": "event"
    },
    {
      "anonymous": false,
      "inputs": [
        {
          "indexed": false,
          "internalType": "address",
          "name": "account",
          "type": "address"
        }
      ],
      "name": "Unpaused",
      "type": "event"
    },
    {
      "anonymous": false,
      "inputs": [
        {
          "indexed": true,
          "internalType": "address",
          "name": "user",
          "type": "address"
        },
        {
          "indexed": true,
          "internalType": "address",
          "name": "token",
          "type": "address"
        },
        {
          "indexed": false,
          "internalType": "uint256",
          "name": "amount",
          "type": "uint256"
        },
        {
          "indexed": false,
          "internalType": "uint32",
          "name": "requestId",
          "type": "uint32"
        }
      ],
      "name": "WithdrawalRequested",
      "type": "event"
    },
    {
      "anonymous": false,
      "inputs": [
        {
          "indexed": true,
          "internalType": "address",
          "name": "user",
          "type": "address"
        },
        {
          "indexed": true,
          "internalType": "address",
          "name": "token",
          "type": "address"
        },
        {
          "indexed": false,
          "internalType": "uint256",
          "name": "amount",
          "type": "uint256"
        }
      ],
      "name": "Withdrawn",
      "type": "event"
    },
    {
      "inputs": [
        {
          "internalType": "uint32",
          "name": "",
          "type": "uint32"
        }
      ],
      "name": "_disputes",
      "outputs": [
        {
          "internalType": "address",
          "name": "user",
          "type": "address"
        },
        {
          "internalType": "address",
          "name": "challenger",
          "type": "address"
        },
        {
          "internalType": "uint64",
          "name": "timestamp",
          "type": "uint64"
        },
        {
          "internalType": "uint8",
          "name": "status",
          "type": "uint8"
        },
        {
          "internalType": "uint32",
          "name": "sessionId",
          "type": "uint32"
        }
      ],
      "stateMutability": "view",
      "type": "function"
    },
    {
      "inputs": [
        {
          "internalType": "uint32",
          "name": "requestId",
          "type": "uint32"
        },
        {
          "components": [
            {
              "internalType": "bytes",
              "name": "data",
              "type": "bytes"
            },
            {
              "internalType": "bytes",
              "name": "signature",
              "type": "bytes"
            },
            {
              "internalType": "address",
              "name": "combinedPublicKey",
              "type": "address"
            }
          ],
          "internalType": "struct Crypto.SchnorrSignature",
          "name": "_schnorr",
          "type": "tuple"
        }
      ],
      "name": "challengeDispute",
      "outputs": [],
      "stateMutability": "nonpayable",
      "type": "function"
    },
    {
      "inputs": [
        {
          "internalType": "address",
          "name": "",
          "type": "address"
        }
      ],
      "name": "combinedPublicKey",
      "outputs": [
        {
          "internalType": "address",
          "name": "",
          "type": "address"
        }
      ],
      "stateMutability": "view",
      "type": "function"
    },
    {
      "inputs": [
        {
          "internalType": "address",
          "name": "user",
          "type": "address"
        },
        {
          "internalType": "address",
          "name": "token",
          "type": "address"
        },
        {
          "internalType": "uint256",
          "name": "amount",
          "type": "uint256"
        }
      ],
      "name": "deposit",
      "outputs": [],
      "stateMutability": "nonpayable",
      "type": "function"
    },
    {
      "inputs": [
        {
          "internalType": "address",
          "name": "",
          "type": "address"
        },
        {
          "internalType": "address",
          "name": "",
          "type": "address"
        }
      ],
      "name": "depositedAmount",
      "outputs": [
        {
          "internalType": "uint256",
          "name": "",
          "type": "uint256"
        }
      ],
      "stateMutability": "view",
      "type": "function"
    },
    {
      "inputs": [],
      "name": "dexSupporter",
      "outputs": [
        {
          "internalType": "address",
          "name": "",
          "type": "address"
        }
      ],
      "stateMutability": "view",
      "type": "function"
    },
    {
      "inputs": [
        {
          "internalType": "uint32",
          "name": "requestId",
          "type": "uint32"
        }
      ],
      "name": "getDisputeBalances",
      "outputs": [
        {
          "components": [
            {
              "internalType": "bytes32",
              "name": "oracleId",
              "type": "bytes32"
            },
            {
              "internalType": "address",
              "name": "addr",
              "type": "address"
            },
            {
              "internalType": "uint256",
              "name": "balance",
              "type": "uint256"
            }
          ],
          "internalType": "struct Crypto.Balance[]",
          "name": "",
          "type": "tuple[]"
        }
      ],
      "stateMutability": "view",
      "type": "function"
    },
    {
      "inputs": [
        {
          "internalType": "uint32",
          "name": "requestId",
          "type": "uint32"
        }
      ],
      "name": "getDisputePositions",
      "outputs": [
        {
          "components": [
            {
              "internalType": "string",
              "name": "positionId",
              "type": "string"
            },
            {
              "internalType": "bytes32",
              "name": "oracleId",
              "type": "bytes32"
            },
            {
              "internalType": "address",
              "name": "token",
              "type": "address"
            },
            {
              "internalType": "uint256",
              "name": "quantity",
              "type": "uint256"
            },
            {
              "internalType": "uint256",
              "name": "leverageFactor",
              "type": "uint256"
            },
            {
              "internalType": "string",
              "name": "leverageType",
              "type": "string"
            },
            {
              "internalType": "bool",
              "name": "isLong",
              "type": "bool"
            },
            {
              "components": [
                {
                  "internalType": "bytes32",
                  "name": "oracleId",
                  "type": "bytes32"
                },
                {
                  "internalType": "address",
                  "name": "token",
                  "type": "address"
                },
                {
                  "internalType": "uint256",
                  "name": "quantity",
                  "type": "uint256"
                },
                {
                  "internalType": "uint256",
                  "name": "entryPrice",
                  "type": "uint256"
                }
              ],
              "internalType": "struct Crypto.Collateral[]",
              "name": "collaterals",
              "type": "tuple[]"
            },
            {
              "internalType": "uint256",
              "name": "entryPrice",
              "type": "uint256"
            },
            {
              "internalType": "uint256",
              "name": "createdTimestamp",
              "type": "uint256"
            }
          ],
          "internalType": "struct Crypto.Position[]",
          "name": "",
          "type": "tuple[]"
        }
      ],
      "stateMutability": "view",
      "type": "function"
    },
    {
      "inputs": [
        {
          "internalType": "uint32",
          "name": "requestId",
          "type": "uint32"
        }
      ],
      "name": "getDisputeStatus",
      "outputs": [
        {
          "internalType": "bool",
          "name": "isOpenDispute",
          "type": "bool"
        },
        {
          "internalType": "uint64",
          "name": "timestamp",
          "type": "uint64"
        },
        {
          "internalType": "address",
          "name": "user",
          "type": "address"
        }
      ],
      "stateMutability": "view",
      "type": "function"
    },
    {
      "inputs": [
        {
          "internalType": "address",
          "name": "_owner",
          "type": "address"
        },
        {
          "internalType": "uint256",
          "name": "_signatureExpiryTime",
          "type": "uint256"
        },
        {
          "internalType": "address",
          "name": "_lpProvider",
          "type": "address"
        },
        {
          "internalType": "address",
          "name": "_dexSupporter",
          "type": "address"
        }
      ],
      "name": "initialize",
      "outputs": [],
      "stateMutability": "nonpayable",
      "type": "function"
    },
    {
      "inputs": [],
      "name": "lastPausedTime",
      "outputs": [
        {
          "internalType": "uint256",
          "name": "",
          "type": "uint256"
        }
      ],
      "stateMutability": "view",
      "type": "function"
    },
    {
      "inputs": [],
      "name": "lpProvider",
      "outputs": [
        {
          "internalType": "address",
          "name": "",
          "type": "address"
        }
      ],
      "stateMutability": "view",
      "type": "function"
    },
    {
      "inputs": [],
      "name": "owner",
      "outputs": [
        {
          "internalType": "address",
          "name": "",
          "type": "address"
        }
      ],
      "stateMutability": "view",
      "type": "function"
    },
    {
      "inputs": [],
      "name": "pause",
      "outputs": [],
      "stateMutability": "nonpayable",
      "type": "function"
    },
    {
      "inputs": [],
      "name": "paused",
      "outputs": [
        {
          "internalType": "bool",
          "name": "",
          "type": "bool"
        }
      ],
      "stateMutability": "view",
      "type": "function"
    },
    {
      "inputs": [],
      "name": "renounceOwnership",
      "outputs": [],
      "stateMutability": "nonpayable",
      "type": "function"
    },
    {
      "inputs": [
        {
          "internalType": "address",
          "name": "_user",
          "type": "address"
        },
        {
          "internalType": "address",
          "name": "_combinedPublicKey",
          "type": "address"
        }
      ],
      "name": "setCombinedPublicKey",
      "outputs": [],
      "stateMutability": "nonpayable",
      "type": "function"
    },
    {
      "inputs": [
        {
          "internalType": "uint256",
          "name": "_expiryTime",
          "type": "uint256"
        },
        {
          "internalType": "address",
          "name": "_dexSupporter",
          "type": "address"
        },
        {
          "internalType": "address",
          "name": "_lpProvider",
          "type": "address"
        }
      ],
      "name": "setVaultParameters",
      "outputs": [],
      "stateMutability": "nonpayable",
      "type": "function"
    },
    {
      "inputs": [
        {
          "internalType": "uint32",
          "name": "requestId",
          "type": "uint32"
        },
        {
          "internalType": "uint256[]",
          "name": "updatedBalances",
          "type": "uint256[]"
        },
        {
          "internalType": "uint256[]",
          "name": "pnlValues",
          "type": "uint256[]"
        },
        {
          "internalType": "bool[]",
          "name": "isProfits",
          "type": "bool[]"
        }
      ],
      "name": "settleDisputeResult",
      "outputs": [],
      "stateMutability": "nonpayable",
      "type": "function"
    },
    {
      "inputs": [],
      "name": "signatureExpiryTime",
      "outputs": [
        {
          "internalType": "uint256",
          "name": "",
          "type": "uint256"
        }
      ],
      "stateMutability": "view",
      "type": "function"
    },
    {
      "inputs": [
        {
          "internalType": "address",
          "name": "newOwner",
          "type": "address"
        }
      ],
      "name": "transferOwnership",
      "outputs": [],
      "stateMutability": "nonpayable",
      "type": "function"
    },
    {
      "inputs": [],
      "name": "unpause",
      "outputs": [],
      "stateMutability": "nonpayable",
      "type": "function"
    },
    {
      "inputs": [
        {
          "internalType": "uint32",
          "name": "requestId",
          "type": "uint32"
        },
        {
          "internalType": "uint256[]",
          "name": "liquidatedIndexes",
          "type": "uint256[]"
        },
        {
          "internalType": "uint256",
          "name": "liquidatedCount",
          "type": "uint256"
        },
        {
          "internalType": "bool",
          "name": "isCrossLiquidated",
          "type": "bool"
        }
      ],
      "name": "updateLiquidatedPositions",
      "outputs": [],
      "stateMutability": "nonpayable",
      "type": "function"
    },
    {
      "inputs": [
        {
          "internalType": "address",
          "name": "user",
          "type": "address"
        },
        {
          "internalType": "address[]",
          "name": "tokens",
          "type": "address[]"
        },
        {
          "internalType": "uint256[]",
          "name": "losses",
          "type": "uint256[]"
        },
        {
          "internalType": "uint256",
          "name": "totalLossCount",
          "type": "uint256"
        }
      ],
      "name": "updatePartialLiquidation",
      "outputs": [],
      "stateMutability": "nonpayable",
      "type": "function"
    },
    {
      "inputs": [
        {
          "components": [
            {
              "internalType": "bytes",
              "name": "data",
              "type": "bytes"
            },
            {
              "internalType": "bytes",
              "name": "signature",
              "type": "bytes"
            },
            {
              "internalType": "address",
              "name": "combinedPublicKey",
              "type": "address"
            }
          ],
          "internalType": "struct Crypto.SchnorrSignature",
          "name": "_schnorr",
          "type": "tuple"
        }
      ],
      "name": "withdrawAndClosePositionTrustlessly",
      "outputs": [],
      "stateMutability": "nonpayable",
      "type": "function"
    },
    {
      "inputs": [
        {
          "internalType": "address",
          "name": "_combinedPublicKey",
          "type": "address"
        },
        {
          "components": [
            {
              "internalType": "bytes",
              "name": "data",
              "type": "bytes"
            },
            {
              "internalType": "bytes",
              "name": "signature",
              "type": "bytes"
            },
            {
              "internalType": "address",
              "name": "combinedPublicKey",
              "type": "address"
            }
          ],
          "internalType": "struct Crypto.SchnorrSignature",
          "name": "_schnorr",
          "type": "tuple"
        }
      ],
      "name": "withdrawSchnorr",
      "outputs": [],
      "stateMutability": "nonpayable",
      "type": "function"
    }
  ],
  "bytecode": "0x608060405234801561001057600080fd5b5061601280620000216000396000f3fe608060405234801561001057600080fd5b506004361061018e5760003560e01c806397799e06116100de578063e0c32ec411610097578063e917bdcc11610071578063e917bdcc14610425578063ed9facad14610457578063f2edcc9614610487578063f2fde38b146104a35761018e565b8063e0c32ec4146103a9578063e41cff64146103d9578063e6d0efad146104095761018e565b806397799e06146102d1578063a8207858146102ef578063ab3e857f1461030b578063bf1e9ef51461033f578063c2dd56bc1461035b578063c7a66c671461038b5761018e565b8063715018a61161014b5780638a7be80b116101255780638a7be80b1461025f5780638da5cb5b1461027b5780638f2c081f14610299578063923fec2a146102b55761018e565b8063715018a61461022f5780638340f549146102395780638456cb59146102555761018e565b80630d23581714610193578063358394d8146101b15780633f4ba83a146101cd57806353eec0a0146101d7578063570ddaa8146101f35780635c975abb14610211575b600080fd5b61019b6104bf565b6040516101a89190613c88565b60405180910390f35b6101cb60048036038101906101c69190613d19565b6104e5565b005b6101d5610708565b005b6101f160048036038101906101ec9190613d80565b610721565b005b6101fb6107b7565b6040516102089190613de2565b60405180910390f35b6102196107bd565b6040516102269190613e18565b60405180910390f35b6102376107e2565b005b610253600480360381019061024e9190613e33565b6107f6565b005b61025d61099b565b005b610279600480360381019061027491906140a2565b6109ff565b005b610283610e6d565b6040516102909190613c88565b60405180910390f35b6102b360048036038101906102ae91906141a1565b610ea5565b005b6102cf60048036038101906102ca9190614229565b61176f565b005b6102d961194f565b6040516102e69190613c88565b60405180910390f35b610309600480360381019061030491906142ac565b611975565b005b61032560048036038101906103209190614308565b611e0b565b604051610336959493929190614383565b60405180910390f35b61035960048036038101906103549190614499565b611eb2565b005b61037560048036038101906103709190614308565b61256d565b604051610382919061467c565b60405180910390f35b610393612658565b6040516103a09190613de2565b60405180910390f35b6103c360048036038101906103be919061469e565b61265e565b6040516103d09190613de2565b60405180910390f35b6103f360048036038101906103ee91906146de565b612683565b6040516104009190613c88565b60405180910390f35b610423600480360381019061041e919061470b565b6126b6565b005b61043f600480360381019061043a9190614308565b612f60565b60405161044e93929190614754565b60405180910390f35b610471600480360381019061046c9190614308565b613000565b60405161047e9190614ac7565b60405180910390f35b6104a1600480360381019061049c919061469e565b61331c565b005b6104bd60048036038101906104b891906146de565b6133a6565b005b600860009054906101000a900473ffffffffffffffffffffffffffffffffffffffff1681565b60006104ef61342c565b905060008160000160089054906101000a900460ff1615905060008260000160009054906101000a900467ffffffffffffffff1690506000808267ffffffffffffffff1614801561053d5750825b9050600060018367ffffffffffffffff16148015610572575060003073ffffffffffffffffffffffffffffffffffffffff163b145b905081158015610580575080155b156105b7576040517ff92ee8a900000000000000000000000000000000000000000000000000000000815260040160405180910390fd5b60018560000160006101000a81548167ffffffffffffffff021916908367ffffffffffffffff16021790555083156106075760018560000160086101000a81548160ff0219169083151502179055505b61061089613454565b610618613468565b8760008190555086600860006101000a81548173ffffffffffffffffffffffffffffffffffffffff021916908373ffffffffffffffffffffffffffffffffffffffff16021790555085600960006101000a81548173ffffffffffffffffffffffffffffffffffffffff021916908373ffffffffffffffffffffffffffffffffffffffff16021790555083156106fd5760008560000160086101000a81548160ff0219169083151502179055507fc7f505b2f371ae2175ee4913f4499e1f2633a7b5936321eed1cdaeb6115181d260016040516106f49190614b2e565b60405180910390a15b505050505050505050565b61071061347a565b610718613501565b42600a81905550565b61072961347a565b8260008190555081600960006101000a81548173ffffffffffffffffffffffffffffffffffffffff021916908373ffffffffffffffffffffffffffffffffffffffff16021790555080600860006101000a81548173ffffffffffffffffffffffffffffffffffffffff021916908373ffffffffffffffffffffffffffffffffffffffff160217905550505050565b60005481565b6000806107c8613573565b90508060000160009054906101000a900460ff1691505090565b6107ea61347a565b6107f4600061359b565b565b6107fe613672565b6108066136c9565b600960009054906101000a900473ffffffffffffffffffffffffffffffffffffffff1673ffffffffffffffffffffffffffffffffffffffff163373ffffffffffffffffffffffffffffffffffffffff1614610896576040517f08c379a000000000000000000000000000000000000000000000000000000000815260040161088d90614ba6565b60405180910390fd5b80600760008573ffffffffffffffffffffffffffffffffffffffff1673ffffffffffffffffffffffffffffffffffffffff16815260200190815260200160002060008473ffffffffffffffffffffffffffffffffffffffff1673ffffffffffffffffffffffffffffffffffffffff16815260200190815260200160002060008282546109229190614bf5565b925050819055508173ffffffffffffffffffffffffffffffffffffffff168373ffffffffffffffffffffffffffffffffffffffff167f8752a472e571a816aea92eec8dae9baf628e840f4929fbcc2d155e6233ff68a7836040516109869190613de2565b60405180910390a361099661370a565b505050565b6109a361347a565b62015180600a54426109b59190614c29565b116109f5576040517f08c379a00000000000000000000000000000000000000000000000000000000081526004016109ec90614ca9565b60405180910390fd5b6109fd613723565b565b610a07613672565b600960009054906101000a900473ffffffffffffffffffffffffffffffffffffffff1673ffffffffffffffffffffffffffffffffffffffff163373ffffffffffffffffffffffffffffffffffffffff1614610a97576040517f08c379a0000000000000000000000000000000000000000000000000000000008152600401610a8e90614ba6565b60405180910390fd5b8151835114610adb576040517f08c379a0000000000000000000000000000000000000000000000000000000008152600401610ad290614d15565b60405180910390fd5b8251811115610b1f576040517f08c379a0000000000000000000000000000000000000000000000000000000008152600401610b1690614d81565b60405180910390fd5b60005b81811015610e5e576000848281518110610b3f57610b3e614da1565b5b602002602001015190506000848381518110610b5e57610b5d614da1565b5b6020026020010151905080600760008973ffffffffffffffffffffffffffffffffffffffff1673ffffffffffffffffffffffffffffffffffffffff16815260200190815260200160002060008473ffffffffffffffffffffffffffffffffffffffff1673ffffffffffffffffffffffffffffffffffffffff168152602001908152602001600020541015610c27576040517f08c379a0000000000000000000000000000000000000000000000000000000008152600401610c1e90614e1c565b60405180910390fd5b80600760008973ffffffffffffffffffffffffffffffffffffffff1673ffffffffffffffffffffffffffffffffffffffff16815260200190815260200160002060008473ffffffffffffffffffffffffffffffffffffffff1673ffffffffffffffffffffffffffffffffffffffff1681526020019081526020016000206000828254610cb39190614c29565b925050819055508173ffffffffffffffffffffffffffffffffffffffff1663a9059cbb600860009054906101000a900473ffffffffffffffffffffffffffffffffffffffff16836040518363ffffffff1660e01b8152600401610d17929190614e3c565b6020604051808303816000875af1158015610d36573d6000803e3d6000fd5b505050506040513d601f19601f82011682018060405250810190610d5a9190614e7a565b50600860009054906101000a900473ffffffffffffffffffffffffffffffffffffffff1673ffffffffffffffffffffffffffffffffffffffff1663195bac6283836040518363ffffffff1660e01b8152600401610db8929190614e3c565b600060405180830381600087803b158015610dd257600080fd5b505af1158015610de6573d6000803e3d6000fd5b505050508173ffffffffffffffffffffffffffffffffffffffff168773ffffffffffffffffffffffffffffffffffffffff167f3b7ebc7efc47fec3ee7bc30fe538bb5e5296e3cf7f70c0b34bc9f8de5cad986e83604051610e479190613de2565b60405180910390a350508080600101915050610b22565b50610e6761370a565b50505050565b600080610e78613795565b90508060000160009054906101000a900473ffffffffffffffffffffffffffffffffffffffff1691505090565b610ead613672565b610eb56136c9565b6000600260008463ffffffff1663ffffffff1681526020019081526020016000209050600073__$50e9592bd68e5211c3a496048a4809ad3a$__6306d02c88846040518263ffffffff1660e01b8152600401610f119190614fff565b600060405180830381865af4158015610f2e573d6000803e3d6000fd5b505050506040513d6000823e3d601f19601f82011682018060405250810190610f5791906156d1565b905060016003811115610f6d57610f6c61571a565b5b60ff168260040160009054906101000a900460ff1660ff1614610fc5576040517f08c379a0000000000000000000000000000000000000000000000000000000008152600401610fbc90615795565b60405180910390fd5b6107088260010160149054906101000a900467ffffffffffffffff16610feb91906157b5565b67ffffffffffffffff164210611036576040517f08c379a000000000000000000000000000000000000000000000000000000000815260040161102d9061583d565b60405180910390fd5b73__$50e9592bd68e5211c3a496048a4809ad3a$__63bc018c408460066000856020015173ffffffffffffffffffffffffffffffffffffffff1673ffffffffffffffffffffffffffffffffffffffff16815260200190815260200160002060009054906101000a900473ffffffffffffffffffffffffffffffffffffffff166040518363ffffffff1660e01b81526004016110d292919061586c565b602060405180830381865af41580156110ef573d6000803e3d6000fd5b505050506040513d601f19601f820116820180604052508101906111139190614e7a565b611149576040517ff08f7bd800000000000000000000000000000000000000000000000000000000815260040160405180910390fd5b600081600001519050816000015163ffffffff16600560008763ffffffff1663ffffffff16815260200190815260200160002060009054906101000a900463ffffffff1663ffffffff16101561172e5780600560008763ffffffff1663ffffffff16815260200190815260200160002060006101000a81548163ffffffff021916908363ffffffff160217905550338360010160006101000a81548173ffffffffffffffffffffffffffffffffffffffff021916908373ffffffffffffffffffffffffffffffffffffffff16021790555082600201600061122a9190613a30565b82600301600061123a9190613a54565b600082604001515190506000836060015151905060005b8281101561130f57856002018560400151828151811061127457611273614da1565b5b602002602001015190806001815401808255809150506001900390600052602060002090600302016000909190919091506000820151816000015560208201518160010160006101000a81548173ffffffffffffffffffffffffffffffffffffffff021916908373ffffffffffffffffffffffffffffffffffffffff1602179055506040820151816002015550508080600101915050611251565b5060005b818110156116d4576000600260008a63ffffffff1663ffffffff1681526020019081526020016000206003016001816001815401808255809150500390600052602060002090600a020190508560600151828151811061137657611375614da1565b5b6020026020010151600001518160000190816113929190615a9e565b50856060015182815181106113aa576113a9614da1565b5b6020026020010151604001518160020160006101000a81548173ffffffffffffffffffffffffffffffffffffffff021916908373ffffffffffffffffffffffffffffffffffffffff1602179055508560600151828151811061140f5761140e614da1565b5b60200260200101516060015181600301819055508560600151828151811061143a57611439614da1565b5b602002602001015160c001518160060160006101000a81548160ff0219169083151502179055508560600151828151811061147857611477614da1565b5b602002602001015161010001518160080181905550856060015182815181106114a4576114a3614da1565b5b6020026020010151610120015181600901819055506000866060015183815181106114d2576114d1614da1565b5b602002602001015160e0015151905060005b818110156116c4578260070160405180608001604052808a60600151878151811061151257611511614da1565b5b602002602001015160e0015184815181106115305761152f614da1565b5b60200260200101516000015181526020018a60600151878151811061155857611557614da1565b5b602002602001015160e00151848151811061157657611575614da1565b5b60200260200101516020015173ffffffffffffffffffffffffffffffffffffffff1681526020018a6060015187815181106115b4576115b3614da1565b5b602002602001015160e0015184815181106115d2576115d1614da1565b5b60200260200101516040015181526020018a6060015187815181106115fa576115f9614da1565b5b602002602001015160e00151848151811061161857611617614da1565b5b60200260200101516060015181525090806001815401808255809150506001900390600052602060002090600402016000909190919091506000820151816000015560208201518160010160006101000a81548173ffffffffffffffffffffffffffffffffffffffff021916908373ffffffffffffffffffffffffffffffffffffffff1602179055506040820151816002015560608201518160030155505080806001019150506114e4565b5050508080600101915050611313565b50836020015173ffffffffffffffffffffffffffffffffffffffff167f41333d535ecc89f2d33b1d5f30416f34ba3c7d0bbf7aaea28a3b7c330969379b8860405161171f9190615b70565b60405180910390a25050611760565b6040517f785736c800000000000000000000000000000000000000000000000000000000815260040160405180910390fd5b50505061176b61370a565b5050565b600960009054906101000a900473ffffffffffffffffffffffffffffffffffffffff1673ffffffffffffffffffffffffffffffffffffffff163373ffffffffffffffffffffffffffffffffffffffff16146117ff576040517f08c379a00000000000000000000000000000000000000000000000000000000081526004016117f690615bd7565b60405180910390fd5b6000600260008663ffffffff1663ffffffff1681526020019081526020016000209050600160038111156118365761183561571a565b5b60ff168160040160009054906101000a900460ff1660ff161461188e576040517f08c379a000000000000000000000000000000000000000000000000000000000815260040161188590615795565b60405180910390fd5b60005b838110156118f35760008582815181106118ae576118ad614da1565b5b6020026020010151905060008360030182815481106118d0576118cf614da1565b5b90600052602060002090600a020160030181905550508080600101915050611891565b5081156119485760005b816002018054905081101561194657600082600201828154811061192457611923614da1565b5b90600052602060002090600302016002018190555080806001019150506118fd565b505b5050505050565b600960009054906101000a900473ffffffffffffffffffffffffffffffffffffffff1681565b61197d613672565b6119856136c9565b600073__$50e9592bd68e5211c3a496048a4809ad3a$__6376b90c5983600660003373ffffffffffffffffffffffffffffffffffffffff1673ffffffffffffffffffffffffffffffffffffffff16815260200190815260200160002060009054906101000a900473ffffffffffffffffffffffffffffffffffffffff166040518363ffffffff1660e01b8152600401611a1f92919061586c565b60a060405180830381865af4158015611a3c573d6000803e3d6000fd5b505050506040513d601f19601f82011682018060405250810190611a609190615caf565b90506000816040015111611aa9576040517f08c379a0000000000000000000000000000000000000000000000000000000008152600401611aa090615d4e565b60405180910390fd5b600860009054906101000a900473ffffffffffffffffffffffffffffffffffffffff1673ffffffffffffffffffffffffffffffffffffffff166375151b6382602001516040518263ffffffff1660e01b8152600401611b089190613c88565b602060405180830381865afa158015611b25573d6000803e3d6000fd5b505050506040513d601f19601f82011682018060405250810190611b499190614e7a565b611b88576040517f08c379a0000000000000000000000000000000000000000000000000000000008152600401611b7f90615dba565b60405180910390fd5b600054816060015167ffffffffffffffff1642611ba59190614c29565b10611be5576040517f08c379a0000000000000000000000000000000000000000000000000000000008152600401611bdc90615e26565b60405180910390fd5b3373ffffffffffffffffffffffffffffffffffffffff16816000015173ffffffffffffffffffffffffffffffffffffffff1614611c4e576040517ff08f7bd800000000000000000000000000000000000000000000000000000000815260040160405180910390fd5b82600660003373ffffffffffffffffffffffffffffffffffffffff1673ffffffffffffffffffffffffffffffffffffffff16815260200190815260200160002060006101000a81548173ffffffffffffffffffffffffffffffffffffffff021916908373ffffffffffffffffffffffffffffffffffffffff160217905550806020015173ffffffffffffffffffffffffffffffffffffffff1663a9059cbb3383604001516040518363ffffffff1660e01b8152600401611d0f929190614e3c565b6020604051808303816000875af1158015611d2e573d6000803e3d6000fd5b505050506040513d601f19601f82011682018060405250810190611d529190614e7a565b611d91576040517f08c379a0000000000000000000000000000000000000000000000000000000008152600401611d8890615e92565b60405180910390fd5b806020015173ffffffffffffffffffffffffffffffffffffffff163373ffffffffffffffffffffffffffffffffffffffff167fd1c19fbcd4551a5edfb66d43d2e337c04837afda3482b42bdf569a8fccdae5fb8360400151604051611df69190613de2565b60405180910390a350611e0761370a565b5050565b60026020528060005260406000206000915090508060000160009054906101000a900473ffffffffffffffffffffffffffffffffffffffff16908060010160009054906101000a900473ffffffffffffffffffffffffffffffffffffffff16908060010160149054906101000a900467ffffffffffffffff16908060040160009054906101000a900460ff16908060040160019054906101000a900463ffffffff16905085565b611eba613672565b600960009054906101000a900473ffffffffffffffffffffffffffffffffffffffff1673ffffffffffffffffffffffffffffffffffffffff163373ffffffffffffffffffffffffffffffffffffffff1614611f4a576040517f08c379a0000000000000000000000000000000000000000000000000000000008152600401611f4190614ba6565b60405180910390fd5b6000600260008663ffffffff1663ffffffff168152602001908152602001600020905060016003811115611f8157611f8061571a565b5b60ff168160040160009054906101000a900460ff1660ff1614611fd9576040517f08c379a0000000000000000000000000000000000000000000000000000000008152600401611fd090615795565b60405180910390fd5b60005b81600201805490508110156124bc57600082600201828154811061200357612002614da1565b5b906000526020600020906003020160010160009054906101000a900473ffffffffffffffffffffffffffffffffffffffff169050600086838151811061204c5761204b614da1565b5b6020026020010151905084838151811061206957612068614da1565b5b60200260200101511561214a57600860009054906101000a900473ffffffffffffffffffffffffffffffffffffffff1673ffffffffffffffffffffffffffffffffffffffff16639423b55e8560000160009054906101000a900473ffffffffffffffffffffffffffffffffffffffff16848987815181106120ed576120ec614da1565b5b60200260200101516040518463ffffffff1660e01b815260040161211393929190615eb2565b600060405180830381600087803b15801561212d57600080fd5b505af1158015612141573d6000803e3d6000fd5b505050506122af565b8173ffffffffffffffffffffffffffffffffffffffff1663a9059cbb600860009054906101000a900473ffffffffffffffffffffffffffffffffffffffff1688868151811061219c5761219b614da1565b5b60200260200101516040518363ffffffff1660e01b81526004016121c1929190614e3c565b6020604051808303816000875af11580156121e0573d6000803e3d6000fd5b505050506040513d601f19601f820116820180604052508101906122049190614e7a565b50600860009054906101000a900473ffffffffffffffffffffffffffffffffffffffff1673ffffffffffffffffffffffffffffffffffffffff1663195bac628388868151811061225757612256614da1565b5b60200260200101516040518363ffffffff1660e01b815260040161227c929190614e3c565b600060405180830381600087803b15801561229657600080fd5b505af11580156122aa573d6000803e3d6000fd5b505050505b6000600760008660000160009054906101000a900473ffffffffffffffffffffffffffffffffffffffff1673ffffffffffffffffffffffffffffffffffffffff1673ffffffffffffffffffffffffffffffffffffffff16815260200190815260200160002060008473ffffffffffffffffffffffffffffffffffffffff1673ffffffffffffffffffffffffffffffffffffffff168152602001908152602001600020819055508173ffffffffffffffffffffffffffffffffffffffff1663a9059cbb8560000160009054906101000a900473ffffffffffffffffffffffffffffffffffffffff16836040518363ffffffff1660e01b81526004016123b4929190614e3c565b6020604051808303816000875af11580156123d3573d6000803e3d6000fd5b505050506040513d601f19601f820116820180604052508101906123f79190614e7a565b508173ffffffffffffffffffffffffffffffffffffffff168460000160009054906101000a900473ffffffffffffffffffffffffffffffffffffffff1673ffffffffffffffffffffffffffffffffffffffff167fd1c19fbcd4551a5edfb66d43d2e337c04837afda3482b42bdf569a8fccdae5fb836040516124799190613de2565b60405180910390a38084600201848154811061249857612497614da1565b5b90600052602060002090600302016002018190555050508080600101915050611fdc565b506003808111156124d0576124cf61571a565b5b8160040160006101000a81548160ff021916908360ff1602179055508060000160009054906101000a900473ffffffffffffffffffffffffffffffffffffffff1673ffffffffffffffffffffffffffffffffffffffff167f8b703fbb69bafcfe17cc041cf70cf1f199e44c5e5f70dca4aa3d01ce927996cc866040516125569190615b70565b60405180910390a25061256761370a565b50505050565b6060600260008363ffffffff1663ffffffff168152602001908152602001600020600201805480602002602001604051908101604052809291908181526020016000905b8282101561264d5783829060005260206000209060030201604051806060016040529081600082015481526020016001820160009054906101000a900473ffffffffffffffffffffffffffffffffffffffff1673ffffffffffffffffffffffffffffffffffffffff1673ffffffffffffffffffffffffffffffffffffffff168152602001600282015481525050815260200190600101906125b1565b505050509050919050565b600a5481565b6007602052816000526040600020602052806000526040600020600091509150505481565b60066020528060005260406000206000915054906101000a900473ffffffffffffffffffffffffffffffffffffffff1681565b6126be613672565b6126c66136c9565b600073__$50e9592bd68e5211c3a496048a4809ad3a$__6306d02c88836040518263ffffffff1660e01b81526004016126ff9190614fff565b600060405180830381865af415801561271c573d6000803e3d6000fd5b505050506040513d6000823e3d601f19601f8201168201806040525081019061274591906156d1565b90503373ffffffffffffffffffffffffffffffffffffffff16816020015173ffffffffffffffffffffffffffffffffffffffff16146127b0576040517ff08f7bd800000000000000000000000000000000000000000000000000000000815260040160405180910390fd5b73__$50e9592bd68e5211c3a496048a4809ad3a$__63bc018c408360066000856020015173ffffffffffffffffffffffffffffffffffffffff1673ffffffffffffffffffffffffffffffffffffffff16815260200190815260200160002060009054906101000a900473ffffffffffffffffffffffffffffffffffffffff166040518363ffffffff1660e01b815260040161284c92919061586c565b602060405180830381865af4158015612869573d6000803e3d6000fd5b505050506040513d601f19601f8201168201806040525081019061288d9190614e7a565b6128c3576040517ff08f7bd800000000000000000000000000000000000000000000000000000000815260040160405180910390fd5b60048280602001906128d59190615ef8565b6040516128e3929190615f8b565b908152602001604051809103902060009054906101000a900460ff1615612936576040517ff08f7bd800000000000000000000000000000000000000000000000000000000815260040160405180910390fd5b60018060009054906101000a900463ffffffff166129549190615fa4565b600160006101000a81548163ffffffff021916908363ffffffff1602179055506000600160009054906101000a900463ffffffff16905042600260008363ffffffff1663ffffffff16815260200190815260200160002060010160146101000a81548167ffffffffffffffff021916908367ffffffffffffffff160217905550600082604001515190506000836060015151905060005b81811015612dd7576000600260008663ffffffff1663ffffffff1681526020019081526020016000206003016001816001815401808255809150500390600052602060002090600a0201905085606001518281518110612a4e57612a4d614da1565b5b602002602001015160000151816000019081612a6a9190615a9e565b5085606001518281518110612a8257612a81614da1565b5b6020026020010151604001518160020160006101000a81548173ffffffffffffffffffffffffffffffffffffffff021916908373ffffffffffffffffffffffffffffffffffffffff16021790555085606001518281518110612ae757612ae6614da1565b5b602002602001015160200151816001018190555085606001518281518110612b1257612b11614da1565b5b602002602001015160600151816003018190555085606001518281518110612b3d57612b3c614da1565b5b602002602001015160c001518160060160006101000a81548160ff02191690831515021790555085606001518281518110612b7b57612b7a614da1565b5b60200260200101516101000151816008018190555085606001518281518110612ba757612ba6614da1565b5b602002602001015161012001518160090181905550600086606001518381518110612bd557612bd4614da1565b5b602002602001015160e0015151905060005b81811015612dc7578260070160405180608001604052808a606001518781518110612c1557612c14614da1565b5b602002602001015160e001518481518110612c3357612c32614da1565b5b60200260200101516000015181526020018a606001518781518110612c5b57612c5a614da1565b5b602002602001015160e001518481518110612c7957612c78614da1565b5b60200260200101516020015173ffffffffffffffffffffffffffffffffffffffff1681526020018a606001518781518110612cb757612cb6614da1565b5b602002602001015160e001518481518110612cd557612cd4614da1565b5b60200260200101516040015181526020018a606001518781518110612cfd57612cfc614da1565b5b602002602001015160e001518481518110612d1b57612d1a614da1565b5b60200260200101516060015181525090806001815401808255809150506001900390600052602060002090600402016000909190919091506000820151816000015560208201518160010160006101000a81548173ffffffffffffffffffffffffffffffffffffffff021916908373ffffffffffffffffffffffffffffffffffffffff160217905550604082015181600201556060820151816003015550508080600101915050612be7565b50505080806001019150506129eb565b5060005b82811015612eb757600260008563ffffffff1663ffffffff16815260200190815260200160002060020185604001518281518110612e1c57612e1b614da1565b5b602002602001015190806001815401808255809150506001900390600052602060002090600302016000909190919091506000820151816000015560208201518160010160006101000a81548173ffffffffffffffffffffffffffffffffffffffff021916908373ffffffffffffffffffffffffffffffffffffffff1602179055506040820151816002015550508080600101915050612ddb565b5060008460000151905080600560008663ffffffff1663ffffffff16815260200190815260200160002060006101000a81548163ffffffff021916908363ffffffff16021790555060016004878060200190612f139190615ef8565b604051612f21929190615f8b565b908152602001604051809103902060006101000a81548160ff021916908315150217905550612f5084336137bd565b5050505050612f5d61370a565b50565b600080600080600260008663ffffffff1663ffffffff168152602001908152602001600020905060016003811115612f9b57612f9a61571a565b5b60ff168160040160009054906101000a900460ff1660ff161493508060010160149054906101000a900467ffffffffffffffff1692508060000160009054906101000a900473ffffffffffffffffffffffffffffffffffffffff169150509193909250565b6060600260008363ffffffff1663ffffffff168152602001908152602001600020600301805480602002602001604051908101604052809291908181526020016000905b8282101561331157838290600052602060002090600a020160405180610140016040529081600082018054613078906158cb565b80601f01602080910402602001604051908101604052809291908181526020018280546130a4906158cb565b80156130f15780601f106130c6576101008083540402835291602001916130f1565b820191906000526020600020905b8154815290600101906020018083116130d457829003601f168201915b50505050508152602001600182015481526020016002820160009054906101000a900473ffffffffffffffffffffffffffffffffffffffff1673ffffffffffffffffffffffffffffffffffffffff1673ffffffffffffffffffffffffffffffffffffffff168152602001600382015481526020016004820154815260200160058201805461317e906158cb565b80601f01602080910402602001604051908101604052809291908181526020018280546131aa906158cb565b80156131f75780601f106131cc576101008083540402835291602001916131f7565b820191906000526020600020905b8154815290600101906020018083116131da57829003601f168201915b505050505081526020016006820160009054906101000a900460ff1615151515815260200160078201805480602002602001604051908101604052809291908181526020016000905b828210156132e65783829060005260206000209060040201604051806080016040529081600082015481526020016001820160009054906101000a900473ffffffffffffffffffffffffffffffffffffffff1673ffffffffffffffffffffffffffffffffffffffff1673ffffffffffffffffffffffffffffffffffffffff1681526020016002820154815260200160038201548152505081526020019060010190613240565b5050505081526020016008820154815260200160098201548152505081526020019060010190613044565b505050509050919050565b61332461347a565b80600660008473ffffffffffffffffffffffffffffffffffffffff1673ffffffffffffffffffffffffffffffffffffffff16815260200190815260200160002060006101000a81548173ffffffffffffffffffffffffffffffffffffffff021916908373ffffffffffffffffffffffffffffffffffffffff1602179055505050565b6133ae61347a565b600073ffffffffffffffffffffffffffffffffffffffff168173ffffffffffffffffffffffffffffffffffffffff16036134205760006040517f1e4fbdf70000000000000000000000000000000000000000000000000000000081526004016134179190613c88565b60405180910390fd5b6134298161359b565b50565b60007ff0c57e16840df040f15088dc2f81fe391c3923bec73e23a9662efc9c229c6a00905090565b61345c6138a6565b613465816138e6565b50565b6134706138a6565b61347861396c565b565b6134826139a0565b73ffffffffffffffffffffffffffffffffffffffff166134a0610e6d565b73ffffffffffffffffffffffffffffffffffffffff16146134ff576134c36139a0565b6040517f118cdaa70000000000000000000000000000000000000000000000000000000081526004016134f69190613c88565b60405180910390fd5b565b6135096139a8565b6000613513613573565b905060008160000160006101000a81548160ff0219169083151502179055507f5db9ee0a495bf2e6ff9c91a7834c1ba4fdd244a5e8aa4e537bd38aeae4b073aa61355b6139a0565b6040516135689190613c88565b60405180910390a150565b60007fcd5ed15c6e187e77e9aee88184c21f4f2182ab5827cb3b7e07fbedcd63f03300905090565b60006135a5613795565b905060008160000160009054906101000a900473ffffffffffffffffffffffffffffffffffffffff169050828260000160006101000a81548173ffffffffffffffffffffffffffffffffffffffff021916908373ffffffffffffffffffffffffffffffffffffffff1602179055508273ffffffffffffffffffffffffffffffffffffffff168173ffffffffffffffffffffffffffffffffffffffff167f8be0079c531659141344cd1fd0a4f28419497f9722a3daafe3b4186f6b6457e060405160405180910390a3505050565b600061367c6139e8565b905060028160000154036136bc576040517f3ee5aeb500000000000000000000000000000000000000000000000000000000815260040160405180910390fd5b6002816000018190555050565b6136d16107bd565b15613708576040517fd93c066500000000000000000000000000000000000000000000000000000000815260040160405180910390fd5b565b60006137146139e8565b90506001816000018190555050565b61372b6136c9565b6000613735613573565b905060018160000160006101000a81548160ff0219169083151502179055507f62e78cea01bee320cd4e420270b5ea74000d11b0c9f74754ebdbfc544b05a25861377d6139a0565b60405161378a9190613c88565b60405180910390a150565b60007f9016d09d72d40fdae2fd8ceac6b6234c7706214fd39c1cd1e609a0528c199300905090565b6000600260008463ffffffff1663ffffffff1681526020019081526020016000209050600160038111156137f4576137f361571a565b5b8160040160006101000a81548160ff021916908360ff160217905550818160000160006101000a81548173ffffffffffffffffffffffffffffffffffffffff021916908373ffffffffffffffffffffffffffffffffffffffff1602179055508173ffffffffffffffffffffffffffffffffffffffff167f2fdd05cb84b2efdbfb66efce92f66f26e7323b06b91ed693c764e01573436af9846040516138999190615b70565b60405180910390a2505050565b6138ae613a10565b6138e4576040517fd7e6bcf800000000000000000000000000000000000000000000000000000000815260040160405180910390fd5b565b6138ee6138a6565b600073ffffffffffffffffffffffffffffffffffffffff168173ffffffffffffffffffffffffffffffffffffffff16036139605760006040517f1e4fbdf70000000000000000000000000000000000000000000000000000000081526004016139579190613c88565b60405180910390fd5b6139698161359b565b50565b6139746138a6565b600061397e613573565b905060008160000160006101000a81548160ff02191690831515021790555050565b600033905090565b6139b06107bd565b6139e6576040517f8dfc202b00000000000000000000000000000000000000000000000000000000815260040160405180910390fd5b565b60007f9b779b17422d0df92223018b32b4d1fa46e071723d6817e2486d003becc55f00905090565b6000613a1a61342c565b60000160089054906101000a900460ff16905090565b5080546000825560030290600052602060002090810190613a519190613a78565b50565b50805460008255600a0290600052602060002090810190613a759190613ac6565b50565b5b80821115613ac2576000808201600090556001820160006101000a81549073ffffffffffffffffffffffffffffffffffffffff0219169055600282016000905550600301613a79565b5090565b5b80821115613b6c5760008082016000613ae09190613b70565b60018201600090556002820160006101000a81549073ffffffffffffffffffffffffffffffffffffffff021916905560038201600090556004820160009055600582016000613b2f9190613b70565b6006820160006101000a81549060ff0219169055600782016000613b539190613bb0565b6008820160009055600982016000905550600a01613ac7565b5090565b508054613b7c906158cb565b6000825580601f10613b8e5750613bad565b601f016020900490600052602060002090810190613bac9190613bd4565b5b50565b5080546000825560040290600052602060002090810190613bd19190613bf1565b50565b5b80821115613bed576000816000905550600101613bd5565b5090565b5b80821115613c43576000808201600090556001820160006101000a81549073ffffffffffffffffffffffffffffffffffffffff02191690556002820160009055600382016000905550600401613bf2565b5090565b600073ffffffffffffffffffffffffffffffffffffffff82169050919050565b6000613c7282613c47565b9050919050565b613c8281613c67565b82525050565b6000602082019050613c9d6000830184613c79565b92915050565b6000604051905090565b600080fd5b600080fd5b613cc081613c67565b8114613ccb57600080fd5b50565b600081359050613cdd81613cb7565b92915050565b6000819050919050565b613cf681613ce3565b8114613d0157600080fd5b50565b600081359050613d1381613ced565b92915050565b60008060008060808587031215613d3357613d32613cad565b5b6000613d4187828801613cce565b9450506020613d5287828801613d04565b9350506040613d6387828801613cce565b9250506060613d7487828801613cce565b91505092959194509250565b600080600060608486031215613d9957613d98613cad565b5b6000613da786828701613d04565b9350506020613db886828701613cce565b9250506040613dc986828701613cce565b9150509250925092565b613ddc81613ce3565b82525050565b6000602082019050613df76000830184613dd3565b92915050565b60008115159050919050565b613e1281613dfd565b82525050565b6000602082019050613e2d6000830184613e09565b92915050565b600080600060608486031215613e4c57613e4b613cad565b5b6000613e5a86828701613cce565b9350506020613e6b86828701613cce565b9250506040613e7c86828701613d04565b9150509250925092565b600080fd5b6000601f19601f8301169050919050565b7f4e487b7100000000000000000000000000000000000000000000000000000000600052604160045260246000fd5b613ed482613e8b565b810181811067ffffffffffffffff82111715613ef357613ef2613e9c565b5b80604052505050565b6000613f06613ca3565b9050613f128282613ecb565b919050565b600067ffffffffffffffff821115613f3257613f31613e9c565b5b602082029050602081019050919050565b600080fd5b6000613f5b613f5684613f17565b613efc565b90508083825260208201905060208402830185811115613f7e57613f7d613f43565b5b835b81811015613fa75780613f938882613cce565b845260208401935050602081019050613f80565b5050509392505050565b600082601f830112613fc657613fc5613e86565b5b8135613fd6848260208601613f48565b91505092915050565b600067ffffffffffffffff821115613ffa57613ff9613e9c565b5b602082029050602081019050919050565b600061401e61401984613fdf565b613efc565b9050808382526020820190506020840283018581111561404157614040613f43565b5b835b8181101561406a57806140568882613d04565b845260208401935050602081019050614043565b5050509392505050565b600082601f83011261408957614088613e86565b5b813561409984826020860161400b565b91505092915050565b600080600080608085870312156140bc576140bb613cad565b5b60006140ca87828801613cce565b945050602085013567ffffffffffffffff8111156140eb576140ea613cb2565b5b6140f787828801613fb1565b935050604085013567ffffffffffffffff81111561411857614117613cb2565b5b61412487828801614074565b925050606061413587828801613d04565b91505092959194509250565b600063ffffffff82169050919050565b61415a81614141565b811461416557600080fd5b50565b60008135905061417781614151565b92915050565b600080fd5b6000606082840312156141985761419761417d565b5b81905092915050565b600080604083850312156141b8576141b7613cad565b5b60006141c685828601614168565b925050602083013567ffffffffffffffff8111156141e7576141e6613cb2565b5b6141f385828601614182565b9150509250929050565b61420681613dfd565b811461421157600080fd5b50565b600081359050614223816141fd565b92915050565b6000806000806080858703121561424357614242613cad565b5b600061425187828801614168565b945050602085013567ffffffffffffffff81111561427257614271613cb2565b5b61427e87828801614074565b935050604061428f87828801613d04565b92505060606142a087828801614214565b91505092959194509250565b600080604083850312156142c3576142c2613cad565b5b60006142d185828601613cce565b925050602083013567ffffffffffffffff8111156142f2576142f1613cb2565b5b6142fe85828601614182565b9150509250929050565b60006020828403121561431e5761431d613cad565b5b600061432c84828501614168565b91505092915050565b600067ffffffffffffffff82169050919050565b61435281614335565b82525050565b600060ff82169050919050565b61436e81614358565b82525050565b61437d81614141565b82525050565b600060a0820190506143986000830188613c79565b6143a56020830187613c79565b6143b26040830186614349565b6143bf6060830185614365565b6143cc6080830184614374565b9695505050505050565b600067ffffffffffffffff8211156143f1576143f0613e9c565b5b602082029050602081019050919050565b6000614415614410846143d6565b613efc565b9050808382526020820190506020840283018581111561443857614437613f43565b5b835b81811015614461578061444d8882614214565b84526020840193505060208101905061443a565b5050509392505050565b600082601f8301126144805761447f613e86565b5b8135614490848260208601614402565b91505092915050565b600080600080608085870312156144b3576144b2613cad565b5b60006144c187828801614168565b945050602085013567ffffffffffffffff8111156144e2576144e1613cb2565b5b6144ee87828801614074565b935050604085013567ffffffffffffffff81111561450f5761450e613cb2565b5b61451b87828801614074565b925050606085013567ffffffffffffffff81111561453c5761453b613cb2565b5b6145488782880161446b565b91505092959194509250565b600081519050919050565b600082825260208201905092915050565b6000819050602082019050919050565b6000819050919050565b61459381614580565b82525050565b6145a281613c67565b82525050565b6145b181613ce3565b82525050565b6060820160008201516145cd600085018261458a565b5060208201516145e06020850182614599565b5060408201516145f360408501826145a8565b50505050565b600061460583836145b7565b60608301905092915050565b6000602082019050919050565b600061462982614554565b614633818561455f565b935061463e83614570565b8060005b8381101561466f57815161465688826145f9565b975061466183614611565b925050600181019050614642565b5085935050505092915050565b60006020820190508181036000830152614696818461461e565b905092915050565b600080604083850312156146b5576146b4613cad565b5b60006146c385828601613cce565b92505060206146d485828601613cce565b9150509250929050565b6000602082840312156146f4576146f3613cad565b5b600061470284828501613cce565b91505092915050565b60006020828403121561472157614720613cad565b5b600082013567ffffffffffffffff81111561473f5761473e613cb2565b5b61474b84828501614182565b91505092915050565b60006060820190506147696000830186613e09565b6147766020830185614349565b6147836040830184613c79565b949350505050565b600081519050919050565b600082825260208201905092915050565b6000819050602082019050919050565b600081519050919050565b600082825260208201905092915050565b60005b838110156147f15780820151818401526020810190506147d6565b60008484015250505050565b6000614808826147b7565b61481281856147c2565b93506148228185602086016147d3565b61482b81613e8b565b840191505092915050565b61483f81613dfd565b82525050565b600081519050919050565b600082825260208201905092915050565b6000819050602082019050919050565b608082016000820151614887600085018261458a565b50602082015161489a6020850182614599565b5060408201516148ad60408501826145a8565b5060608201516148c060608501826145a8565b50505050565b60006148d28383614871565b60808301905092915050565b6000602082019050919050565b60006148f682614845565b6149008185614850565b935061490b83614861565b8060005b8381101561493c57815161492388826148c6565b975061492e836148de565b92505060018101905061490f565b5085935050505092915050565b600061014083016000830151848203600086015261496782826147fd565b915050602083015161497c602086018261458a565b50604083015161498f6040860182614599565b5060608301516149a260608601826145a8565b5060808301516149b560808601826145a8565b5060a083015184820360a08601526149cd82826147fd565b91505060c08301516149e260c0860182614836565b5060e083015184820360e08601526149fa82826148eb565b915050610100830151614a116101008601826145a8565b50610120830151614a266101208601826145a8565b508091505092915050565b6000614a3d8383614949565b905092915050565b6000602082019050919050565b6000614a5d8261478b565b614a678185614796565b935083602082028501614a79856147a7565b8060005b85811015614ab55784840389528151614a968582614a31565b9450614aa183614a45565b925060208a01995050600181019050614a7d565b50829750879550505050505092915050565b60006020820190508181036000830152614ae18184614a52565b905092915050565b6000819050919050565b6000819050919050565b6000614b18614b13614b0e84614ae9565b614af3565b614335565b9050919050565b614b2881614afd565b82525050565b6000602082019050614b436000830184614b1f565b92915050565b600082825260208201905092915050565b7f556e617574686f72697a65640000000000000000000000000000000000000000600082015250565b6000614b90600c83614b49565b9150614b9b82614b5a565b602082019050919050565b60006020820190508181036000830152614bbf81614b83565b9050919050565b7f4e487b7100000000000000000000000000000000000000000000000000000000600052601160045260246000fd5b6000614c0082613ce3565b9150614c0b83613ce3565b9250828201905080821115614c2357614c22614bc6565b5b92915050565b6000614c3482613ce3565b9150614c3f83613ce3565b9250828203905081811115614c5757614c56614bc6565b5b92915050565b7f506175736520746f6f206672657175656e740000000000000000000000000000600082015250565b6000614c93601283614b49565b9150614c9e82614c5d565b602082019050919050565b60006020820190508181036000830152614cc281614c86565b9050919050565b7f4172726179206c656e677468206d69736d617463680000000000000000000000600082015250565b6000614cff601583614b49565b9150614d0a82614cc9565b602082019050919050565b60006020820190508181036000830152614d2e81614cf2565b9050919050565b7f496e76616c696420746f74616c206c6f737320636f756e740000000000000000600082015250565b6000614d6b601883614b49565b9150614d7682614d35565b602082019050919050565b60006020820190508181036000830152614d9a81614d5e565b9050919050565b7f4e487b7100000000000000000000000000000000000000000000000000000000600052603260045260246000fd5b7f496e73756666696369656e74206465706f736974656420616d6f756e74000000600082015250565b6000614e06601d83614b49565b9150614e1182614dd0565b602082019050919050565b60006020820190508181036000830152614e3581614df9565b9050919050565b6000604082019050614e516000830185613c79565b614e5e6020830184613dd3565b9392505050565b600081519050614e74816141fd565b92915050565b600060208284031215614e9057614e8f613cad565b5b6000614e9e84828501614e65565b91505092915050565b600080fd5b600080fd5b600080fd5b60008083356001602003843603038112614ed357614ed2614eb1565b5b83810192508235915060208301925067ffffffffffffffff821115614efb57614efa614ea7565b5b600182023603831315614f1157614f10614eac565b5b509250929050565b600082825260208201905092915050565b82818337600083830152505050565b6000614f458385614f19565b9350614f52838584614f2a565b614f5b83613e8b565b840190509392505050565b6000614f756020840184613cce565b905092915050565b614f8681613c67565b82525050565b600060608301614f9f6000840184614eb6565b8583036000870152614fb2838284614f39565b92505050614fc36020840184614eb6565b8583036020870152614fd6838284614f39565b92505050614fe76040840184614f66565b614ff46040860182614f7d565b508091505092915050565b600060208201905081810360008301526150198184614f8c565b905092915050565b600080fd5b600080fd5b60008151905061503a81614151565b92915050565b60008151905061504f81613cb7565b92915050565b600067ffffffffffffffff8211156150705761506f613e9c565b5b602082029050602081019050919050565b61508a81614580565b811461509557600080fd5b50565b6000815190506150a781615081565b92915050565b6000815190506150bc81613ced565b92915050565b6000606082840312156150d8576150d7615021565b5b6150e26060613efc565b905060006150f284828501615098565b600083015250602061510684828501615040565b602083015250604061511a848285016150ad565b60408301525092915050565b600061513961513484615055565b613efc565b9050808382526020820190506060840283018581111561515c5761515b613f43565b5b835b81811015615185578061517188826150c2565b84526020840193505060608101905061515e565b5050509392505050565b600082601f8301126151a4576151a3613e86565b5b81516151b4848260208601615126565b91505092915050565b600067ffffffffffffffff8211156151d8576151d7613e9c565b5b602082029050602081019050919050565b600080fd5b600067ffffffffffffffff82111561520957615208613e9c565b5b61521282613e8b565b9050602081019050919050565b600061523261522d846151ee565b613efc565b90508281526020810184848401111561524e5761524d6151e9565b5b6152598482856147d3565b509392505050565b600082601f83011261527657615275613e86565b5b815161528684826020860161521f565b91505092915050565b600067ffffffffffffffff8211156152aa576152a9613e9c565b5b602082029050602081019050919050565b6000608082840312156152d1576152d0615021565b5b6152db6080613efc565b905060006152eb84828501615098565b60008301525060206152ff84828501615040565b6020830152506040615313848285016150ad565b6040830152506060615327848285016150ad565b60608301525092915050565b60006153466153418461528f565b613efc565b9050808382526020820190506080840283018581111561536957615368613f43565b5b835b81811015615392578061537e88826152bb565b84526020840193505060808101905061536b565b5050509392505050565b600082601f8301126153b1576153b0613e86565b5b81516153c1848260208601615333565b91505092915050565b600061014082840312156153e1576153e0615021565b5b6153ec610140613efc565b9050600082015167ffffffffffffffff81111561540c5761540b615026565b5b61541884828501615261565b600083015250602061542c84828501615098565b602083015250604061544084828501615040565b6040830152506060615454848285016150ad565b6060830152506080615468848285016150ad565b60808301525060a082015167ffffffffffffffff81111561548c5761548b615026565b5b61549884828501615261565b60a08301525060c06154ac84828501614e65565b60c08301525060e082015167ffffffffffffffff8111156154d0576154cf615026565b5b6154dc8482850161539c565b60e0830152506101006154f1848285016150ad565b61010083015250610120615507848285016150ad565b6101208301525092915050565b6000615527615522846151bd565b613efc565b9050808382526020820190506020840283018581111561554a57615549613f43565b5b835b8181101561559157805167ffffffffffffffff81111561556f5761556e613e86565b5b80860161557c89826153ca565b8552602085019450505060208101905061554c565b5050509392505050565b600082601f8301126155b0576155af613e86565b5b81516155c0848260208601615514565b91505092915050565b600060e082840312156155df576155de615021565b5b6155e960e0613efc565b905060006155f98482850161502b565b600083015250602061560d84828501615040565b602083015250604082015167ffffffffffffffff81111561563157615630615026565b5b61563d8482850161518f565b604083015250606082015167ffffffffffffffff81111561566157615660615026565b5b61566d8482850161559b565b606083015250608082015167ffffffffffffffff81111561569157615690615026565b5b61569d84828501615261565b60808301525060a06156b1848285016150ad565b60a08301525060c06156c5848285016150ad565b60c08301525092915050565b6000602082840312156156e7576156e6613cad565b5b600082015167ffffffffffffffff81111561570557615704613cb2565b5b615711848285016155c9565b91505092915050565b7f4e487b7100000000000000000000000000000000000000000000000000000000600052602160045260246000fd5b7f496e76616c696420646973707574652073746174757300000000000000000000600082015250565b600061577f601683614b49565b915061578a82615749565b602082019050919050565b600060208201905081810360008301526157ae81615772565b9050919050565b60006157c082614335565b91506157cb83614335565b9250828201905067ffffffffffffffff8111156157eb576157ea614bc6565b5b92915050565b7f446973707574652077696e646f7720636c6f7365640000000000000000000000600082015250565b6000615827601583614b49565b9150615832826157f1565b602082019050919050565b600060208201905081810360008301526158568161581a565b9050919050565b61586681613c67565b82525050565b600060408201905081810360008301526158868185614f8c565b9050615895602083018461585d565b9392505050565b7f4e487b7100000000000000000000000000000000000000000000000000000000600052602260045260246000fd5b600060028204905060018216806158e357607f821691505b6020821081036158f6576158f561589c565b5b50919050565b60008190508160005260206000209050919050565b60006020601f8301049050919050565b600082821b905092915050565b60006008830261595e7fffffffffffffffffffffffffffffffffffffffffffffffffffffffffffffffff82615921565b6159688683615921565b95508019841693508086168417925050509392505050565b600061599b61599661599184613ce3565b614af3565b613ce3565b9050919050565b6000819050919050565b6159b583615980565b6159c96159c1826159a2565b84845461592e565b825550505050565b600090565b6159de6159d1565b6159e98184846159ac565b505050565b5b81811015615a0d57615a026000826159d6565b6001810190506159ef565b5050565b601f821115615a5257615a23816158fc565b615a2c84615911565b81016020851015615a3b578190505b615a4f615a4785615911565b8301826159ee565b50505b505050565b600082821c905092915050565b6000615a7560001984600802615a57565b1980831691505092915050565b6000615a8e8383615a64565b9150826002028217905092915050565b615aa7826147b7565b67ffffffffffffffff811115615ac057615abf613e9c565b5b615aca82546158cb565b615ad5828285615a11565b600060209050601f831160018114615b085760008415615af6578287015190505b615b008582615a82565b865550615b68565b601f198416615b16866158fc565b60005b82811015615b3e57848901518255600182019150602085019450602081019050615b19565b86831015615b5b5784890151615b57601f891682615a64565b8355505b6001600288020188555050505b505050505050565b6000602082019050615b856000830184614374565b92915050565b7f526571756972652044657820537570706f727465720000000000000000000000600082015250565b6000615bc1601583614b49565b9150615bcc82615b8b565b602082019050919050565b60006020820190508181036000830152615bf081615bb4565b9050919050565b615c0081614335565b8114615c0b57600080fd5b50565b600081519050615c1d81615bf7565b92915050565b600060a08284031215615c3957615c38615021565b5b615c4360a0613efc565b90506000615c5384828501615040565b6000830152506020615c6784828501615040565b6020830152506040615c7b848285016150ad565b6040830152506060615c8f84828501615c0e565b6060830152506080615ca3848285016150ad565b60808301525092915050565b600060a08284031215615cc557615cc4613cad565b5b6000615cd384828501615c23565b91505092915050565b7f416d6f756e74206d7573742062796573652067726561746572207468616e207a60008201527f65726f0000000000000000000000000000000000000000000000000000000000602082015250565b6000615d38602383614b49565b9150615d4382615cdc565b604082019050919050565b60006020820190508181036000830152615d6781615d2b565b9050919050565b7f546f6b656e206e6f7420737570706f7274656400000000000000000000000000600082015250565b6000615da4601383614b49565b9150615daf82615d6e565b602082019050919050565b60006020820190508181036000830152615dd381615d97565b9050919050565b7f5369676e61747572652045787069726564000000000000000000000000000000600082015250565b6000615e10601183614b49565b9150615e1b82615dda565b602082019050919050565b60006020820190508181036000830152615e3f81615e03565b9050919050565b7f5472616e73666572206661696c65640000000000000000000000000000000000600082015250565b6000615e7c600f83614b49565b9150615e8782615e46565b602082019050919050565b60006020820190508181036000830152615eab81615e6f565b9050919050565b6000606082019050615ec76000830186613c79565b615ed46020830185613c79565b615ee16040830184613dd3565b949350505050565b600080fd5b600080fd5b600080fd5b60008083356001602003843603038112615f1557615f14615ee9565b5b80840192508235915067ffffffffffffffff821115615f3757615f36615eee565b5b602083019250600182023603831315615f5357615f52615ef3565b5b509250929050565b600081905092915050565b6000615f728385615f5b565b9350615f7f838584614f2a565b82840190509392505050565b6000615f98828486615f66565b91508190509392505050565b6000615faf82614141565b9150615fba83614141565b9250828201905063ffffffff811115615fd657615fd5614bc6565b5b9291505056fea2646970667358221220c2e401ed830a4bbf2048dc87ce0e9bf64d84c1bcb9d008b7f8c6a9707f1aa00864736f6c63430008180033",
  "linkReferences": {
    "contracts/0xVault/libs/Crypto.sol": {
      "Crypto": [
        {
          "length": 20,
          "start": 3837
        },
        {
          "length": 20,
          "start": 4185
        },
        {
          "length": 20,
          "start": 6570
        },
        {
          "length": 20,
          "start": 9963
        },
        {
          "length": 20,
          "start": 10195
        }
      ]
    }
  },
  "deployedLinkReferences": {
    "contracts/0xVault/libs/Crypto.sol": {
      "Crypto": [
        {
          "length": 20,
          "start": 3804
        },
        {
          "length": 20,
          "start": 4152
        },
        {
          "length": 20,
          "start": 6537
        },
        {
          "length": 20,
          "start": 9930
        },
        {
          "length": 20,
          "start": 10162
        }
      ]
    }
  }
}