{
  "_format": "hh-sol-artifact-1",
  "contractName": "LpProvider",
  "sourceName": "contracts/0xVault/LpProvider.sol",
  "abi": [
    {
      "inputs": [],
      "name": "InvalidInitialization",
      "type": "error"
    },
    {
      "inputs": [],
      "name": "NotInitializing",
      "type": "error"
    },
    {
      "inputs": [
        {
          "internalType": "address",
          "name": "owner",
          "type": "address"
        }
      ],
      "name": "OwnableInvalidOwner",
      "type": "error"
    },
    {
      "inputs": [
        {
          "internalType": "address",
          "name": "account",
          "type": "address"
        }
      ],
      "name": "OwnableUnauthorizedAccount",
      "type": "error"
    },
    {
      "inputs": [],
      "name": "ReentrancyGuardReentrantCall",
      "type": "error"
    },
    {
      "anonymous": false,
      "inputs": [
        {
          "indexed": true,
          "internalType": "address",
          "name": "newColdWallet",
          "type": "address"
        }
      ],
      "name": "ColdWalletChanged",
      "type": "event"
    },
    {
      "anonymous": false,
      "inputs": [
        {
          "indexed": true,
          "internalType": "address",
          "name": "user",
          "type": "address"
        },
        {
          "indexed": true,
          "internalType": "address",
          "name": "token",
          "type": "address"
        },
        {
          "indexed": false,
          "internalType": "uint256",
          "name": "amount",
          "type": "uint256"
        },
        {
          "indexed": false,
          "internalType": "uint256",
          "name": "fundAmount",
          "type": "uint256"
        }
      ],
      "name": "DepositFund",
      "type": "event"
    },
    {
      "anonymous": false,
      "inputs": [
        {
          "indexed": false,
          "internalType": "uint256",
          "name": "newStartEpochTimestamp",
          "type": "uint256"
        },
        {
          "indexed": false,
          "internalType": "uint256",
          "name": "newEpochPeriod",
          "type": "uint256"
        }
      ],
      "name": "EpochParametersChanged",
      "type": "event"
    },
    {
      "anonymous": false,
      "inputs": [
        {
          "indexed": false,
          "internalType": "uint64",
          "name": "version",
          "type": "uint64"
        }
      ],
      "name": "Initialized",
      "type": "event"
    },
    {
      "anonymous": false,
      "inputs": [
        {
          "indexed": true,
          "internalType": "address",
          "name": "user",
          "type": "address"
        },
        {
          "indexed": true,
          "internalType": "address",
          "name": "token",
          "type": "address"
        },
        {
          "indexed": false,
          "internalType": "uint256",
          "name": "amount",
          "type": "uint256"
        }
      ],
      "name": "LPProvided",
      "type": "event"
    },
    {
      "anonymous": false,
      "inputs": [
        {
          "indexed": true,
          "internalType": "address",
          "name": "lpProvider",
          "type": "address"
        },
        {
          "indexed": false,
          "internalType": "bool",
          "name": "isProvider",
          "type": "bool"
        }
      ],
      "name": "LPProviderStatusChanged",
      "type": "event"
    },
    {
      "anonymous": false,
      "inputs": [
        {
          "indexed": true,
          "internalType": "address",
          "name": "user",
          "type": "address"
        },
        {
          "indexed": true,
          "internalType": "address",
          "name": "token",
          "type": "address"
        },
        {
          "indexed": false,
          "internalType": "uint256",
          "name": "amount",
          "type": "uint256"
        }
      ],
      "name": "LPWithdrawn",
      "type": "event"
    },
    {
      "anonymous": false,
      "inputs": [
        {
          "indexed": false,
          "internalType": "uint256",
          "name": "newPrice",
          "type": "uint256"
        }
      ],
      "name": "NAVPriceUpdated",
      "type": "event"
    },
    {
      "anonymous": false,
      "inputs": [
        {
          "indexed": true,
          "internalType": "address",
          "name": "newOracle",
          "type": "address"
        }
      ],
      "name": "OracleChanged",
      "type": "event"
    },
    {
      "anonymous": false,
      "inputs": [
        {
          "indexed": true,
          "internalType": "address",
          "name": "previousOwner",
          "type": "address"
        },
        {
          "indexed": true,
          "internalType": "address",
          "name": "newOwner",
          "type": "address"
        }
      ],
      "name": "OwnershipTransferred",
      "type": "event"
    },
    {
      "anonymous": false,
      "inputs": [
        {
          "indexed": true,
          "internalType": "address",
          "name": "token",
          "type": "address"
        },
        {
          "indexed": false,
          "internalType": "uint256",
          "name": "amount",
          "type": "uint256"
        }
      ],
      "name": "RewardDepositedForMarketMaker",
      "type": "event"
    },
    {
      "anonymous": false,
      "inputs": [
        {
          "indexed": true,
          "internalType": "address",
          "name": "token",
          "type": "address"
        }
      ],
      "name": "TokenAdded",
      "type": "event"
    },
    {
      "anonymous": false,
      "inputs": [
        {
          "indexed": true,
          "internalType": "address",
          "name": "token",
          "type": "address"
        }
      ],
      "name": "TokenRemoved",
      "type": "event"
    },
    {
      "anonymous": false,
      "inputs": [
        {
          "indexed": true,
          "internalType": "address",
          "name": "newVault",
          "type": "address"
        }
      ],
      "name": "VaultChanged",
      "type": "event"
    },
    {
      "anonymous": false,
      "inputs": [
        {
          "indexed": true,
          "internalType": "address",
          "name": "user",
          "type": "address"
        },
        {
          "indexed": true,
          "internalType": "address",
          "name": "token",
          "type": "address"
        },
        {
          "indexed": false,
          "internalType": "uint256",
          "name": "amount",
          "type": "uint256"
        },
        {
          "indexed": false,
          "internalType": "uint256",
          "name": "fundAmount",
          "type": "uint256"
        }
      ],
      "name": "WithdrawFund",
      "type": "event"
    },
    {
      "anonymous": false,
      "inputs": [
        {
          "indexed": true,
          "internalType": "address",
          "name": "user",
          "type": "address"
        },
        {
          "indexed": true,
          "internalType": "address",
          "name": "token",
          "type": "address"
        },
        {
          "indexed": false,
          "internalType": "uint256",
          "name": "navAmount",
          "type": "uint256"
        },
        {
          "indexed": false,
          "internalType": "uint256",
          "name": "timestamp",
          "type": "uint256"
        }
      ],
      "name": "WithdrawRequested",
      "type": "event"
    },
    {
      "anonymous": false,
      "inputs": [
        {
          "indexed": false,
          "internalType": "uint256",
          "name": "newWithdrawalDelayTime",
          "type": "uint256"
        }
      ],
      "name": "WithdrawalDelayTimeChanged",
      "type": "event"
    },
    {
      "inputs": [],
      "name": "NAV_DECIMALS",
      "outputs": [
        {
          "internalType": "uint256",
          "name": "",
          "type": "uint256"
        }
      ],
      "stateMutability": "view",
      "type": "function"
    },
    {
      "inputs": [],
      "name": "coldWallet",
      "outputs": [
        {
          "internalType": "address",
          "name": "",
          "type": "address"
        }
      ],
      "stateMutability": "view",
      "type": "function"
    },
    {
      "inputs": [
        {
          "internalType": "address",
          "name": "token",
          "type": "address"
        },
        {
          "internalType": "uint256",
          "name": "amount",
          "type": "uint256"
        }
      ],
      "name": "decreaseLpProvidedAmount",
      "outputs": [],
      "stateMutability": "nonpayable",
      "type": "function"
    },
    {
      "inputs": [
        {
          "internalType": "address",
          "name": "token",
          "type": "address"
        },
        {
          "internalType": "uint256",
          "name": "amount",
          "type": "uint256"
        }
      ],
      "name": "depositFund",
      "outputs": [],
      "stateMutability": "nonpayable",
      "type": "function"
    },
    {
      "inputs": [
        {
          "internalType": "address",
          "name": "token",
          "type": "address"
        },
        {
          "internalType": "uint256",
          "name": "amount",
          "type": "uint256"
        }
      ],
      "name": "depositRewardForMarketMaker",
      "outputs": [],
      "stateMutability": "nonpayable",
      "type": "function"
    },
    {
      "inputs": [],
      "name": "epochPeriod",
      "outputs": [
        {
          "internalType": "uint256",
          "name": "",
          "type": "uint256"
        }
      ],
      "stateMutability": "view",
      "type": "function"
    },
    {
      "inputs": [
        {
          "internalType": "address",
          "name": "",
          "type": "address"
        }
      ],
      "name": "fundAmount",
      "outputs": [
        {
          "internalType": "uint256",
          "name": "",
          "type": "uint256"
        }
      ],
      "stateMutability": "view",
      "type": "function"
    },
    {
      "inputs": [
        {
          "internalType": "address",
          "name": "token",
          "type": "address"
        },
        {
          "internalType": "uint256",
          "name": "amount",
          "type": "uint256"
        }
      ],
      "name": "increaseLpProvidedAmount",
      "outputs": [],
      "stateMutability": "nonpayable",
      "type": "function"
    },
    {
      "inputs": [
        {
          "internalType": "address",
          "name": "_owner",
          "type": "address"
        },
        {
          "internalType": "address",
          "name": "_vault",
          "type": "address"
        },
        {
          "internalType": "address",
          "name": "_oracle",
          "type": "address"
        },
        {
          "internalType": "uint256",
          "name": "_epochPeriod",
          "type": "uint256"
        },
        {
          "internalType": "uint256",
          "name": "_startEpochTimestamp",
          "type": "uint256"
        },
        {
          "internalType": "uint256",
          "name": "_withdrawalDelayTime",
          "type": "uint256"
        },
        {
          "internalType": "address",
          "name": "_coldWallet",
          "type": "address"
        }
      ],
      "name": "initialize",
      "outputs": [],
      "stateMutability": "nonpayable",
      "type": "function"
    },
    {
      "inputs": [
        {
          "internalType": "address",
          "name": "",
          "type": "address"
        }
      ],
      "name": "isLPProvider",
      "outputs": [
        {
          "internalType": "bool",
          "name": "",
          "type": "bool"
        }
      ],
      "stateMutability": "view",
      "type": "function"
    },
    {
      "inputs": [
        {
          "internalType": "address",
          "name": "",
          "type": "address"
        }
      ],
      "name": "isTokenSupported",
      "outputs": [
        {
          "internalType": "bool",
          "name": "",
          "type": "bool"
        }
      ],
      "stateMutability": "view",
      "type": "function"
    },
    {
      "inputs": [
        {
          "internalType": "address",
          "name": "",
          "type": "address"
        }
      ],
      "name": "lpProvidedAmount",
      "outputs": [
        {
          "internalType": "uint256",
          "name": "",
          "type": "uint256"
        }
      ],
      "stateMutability": "view",
      "type": "function"
    },
    {
      "inputs": [],
      "name": "navPrice",
      "outputs": [
        {
          "internalType": "uint256",
          "name": "",
          "type": "uint256"
        }
      ],
      "stateMutability": "view",
      "type": "function"
    },
    {
      "inputs": [],
      "name": "oracle",
      "outputs": [
        {
          "internalType": "address",
          "name": "",
          "type": "address"
        }
      ],
      "stateMutability": "view",
      "type": "function"
    },
    {
      "inputs": [],
      "name": "owner",
      "outputs": [
        {
          "internalType": "address",
          "name": "",
          "type": "address"
        }
      ],
      "stateMutability": "view",
      "type": "function"
    },
    {
      "inputs": [
        {
          "internalType": "address",
          "name": "",
          "type": "address"
        }
      ],
      "name": "pairId",
      "outputs": [
        {
          "internalType": "uint256",
          "name": "",
          "type": "uint256"
        }
      ],
      "stateMutability": "view",
      "type": "function"
    },
    {
      "inputs": [
        {
          "internalType": "address",
          "name": "token",
          "type": "address"
        },
        {
          "internalType": "uint256",
          "name": "amount",
          "type": "uint256"
        }
      ],
      "name": "provideLiquidity",
      "outputs": [],
      "stateMutability": "nonpayable",
      "type": "function"
    },
    {
      "inputs": [],
      "name": "renounceOwnership",
      "outputs": [],
      "stateMutability": "nonpayable",
      "type": "function"
    },
    {
      "inputs": [
        {
          "internalType": "address",
          "name": "",
          "type": "address"
        },
        {
          "internalType": "address",
          "name": "",
          "type": "address"
        }
      ],
      "name": "reqWithdraws",
      "outputs": [
        {
          "internalType": "uint256",
          "name": "navAmount",
          "type": "uint256"
        },
        {
          "internalType": "uint256",
          "name": "timestamp",
          "type": "uint256"
        }
      ],
      "stateMutability": "view",
      "type": "function"
    },
    {
      "inputs": [
        {
          "internalType": "address",
          "name": "token",
          "type": "address"
        },
        {
          "internalType": "uint256",
          "name": "navsAmount",
          "type": "uint256"
        }
      ],
      "name": "requestWithdrawFund",
      "outputs": [],
      "stateMutability": "nonpayable",
      "type": "function"
    },
    {
      "inputs": [
        {
          "internalType": "address",
          "name": "_coldWallet",
          "type": "address"
        }
      ],
      "name": "setColdWallet",
      "outputs": [],
      "stateMutability": "nonpayable",
      "type": "function"
    },
    {
      "inputs": [
        {
          "internalType": "uint256",
          "name": "_startEpochTimestamp",
          "type": "uint256"
        },
        {
          "internalType": "uint256",
          "name": "_epochPeriod",
          "type": "uint256"
        }
      ],
      "name": "setEpochParameters",
      "outputs": [],
      "stateMutability": "nonpayable",
      "type": "function"
    },
    {
      "inputs": [
        {
          "internalType": "address[]",
          "name": "lpProvider",
          "type": "address[]"
        },
        {
          "internalType": "bool[]",
          "name": "isProvider",
          "type": "bool[]"
        }
      ],
      "name": "setLPProvider",
      "outputs": [],
      "stateMutability": "nonpayable",
      "type": "function"
    },
    {
      "inputs": [
        {
          "internalType": "uint256",
          "name": "newPrice",
          "type": "uint256"
        }
      ],
      "name": "setNAVPrice",
      "outputs": [],
      "stateMutability": "nonpayable",
      "type": "function"
    },
    {
      "inputs": [
        {
          "internalType": "address",
          "name": "_oracle",
          "type": "address"
        }
      ],
      "name": "setOracle",
      "outputs": [],
      "stateMutability": "nonpayable",
      "type": "function"
    },
    {
      "inputs": [
        {
          "internalType": "address[]",
          "name": "tokens",
          "type": "address[]"
        },
        {
          "internalType": "uint256[]",
          "name": "ids",
          "type": "uint256[]"
        }
      ],
      "name": "setPairIDForTokens",
      "outputs": [],
      "stateMutability": "nonpayable",
      "type": "function"
    },
    {
      "inputs": [
        {
          "internalType": "address",
          "name": "token",
          "type": "address"
        },
        {
          "internalType": "bool",
          "name": "isSupported",
          "type": "bool"
        }
      ],
      "name": "setSupportedToken",
      "outputs": [],
      "stateMutability": "nonpayable",
      "type": "function"
    },
    {
      "inputs": [
        {
          "internalType": "address",
          "name": "_vault",
          "type": "address"
        }
      ],
      "name": "setVault",
      "outputs": [],
      "stateMutability": "nonpayable",
      "type": "function"
    },
    {
      "inputs": [
        {
          "internalType": "uint256",
          "name": "_withdrawalDelayTime",
          "type": "uint256"
        }
      ],
      "name": "setWithdrawalDelayTime",
      "outputs": [],
      "stateMutability": "nonpayable",
      "type": "function"
    },
    {
      "inputs": [],
      "name": "startEpochTimestamp",
      "outputs": [
        {
          "internalType": "uint256",
          "name": "",
          "type": "uint256"
        }
      ],
      "stateMutability": "view",
      "type": "function"
    },
    {
      "inputs": [
        {
          "internalType": "address",
          "name": "",
          "type": "address"
        }
      ],
      "name": "totalNAVs",
      "outputs": [
        {
          "internalType": "uint256",
          "name": "",
          "type": "uint256"
        }
      ],
      "stateMutability": "view",
      "type": "function"
    },
    {
      "inputs": [
        {
          "internalType": "address",
          "name": "newOwner",
          "type": "address"
        }
      ],
      "name": "transferOwnership",
      "outputs": [],
      "stateMutability": "nonpayable",
      "type": "function"
    },
    {
      "inputs": [
        {
          "internalType": "address",
          "name": "",
          "type": "address"
        },
        {
          "internalType": "address",
          "name": "",
          "type": "address"
        }
      ],
      "name": "userNAVs",
      "outputs": [
        {
          "internalType": "uint256",
          "name": "",
          "type": "uint256"
        }
      ],
      "stateMutability": "view",
      "type": "function"
    },
    {
      "inputs": [],
      "name": "vault",
      "outputs": [
        {
          "internalType": "address",
          "name": "",
          "type": "address"
        }
      ],
      "stateMutability": "view",
      "type": "function"
    },
    {
      "inputs": [
        {
          "internalType": "address",
          "name": "token",
          "type": "address"
        }
      ],
      "name": "withdrawAllLiquidity",
      "outputs": [],
      "stateMutability": "nonpayable",
      "type": "function"
    },
    {
      "inputs": [
        {
          "internalType": "address",
          "name": "token",
          "type": "address"
        }
      ],
      "name": "withdrawFund",
      "outputs": [],
      "stateMutability": "nonpayable",
      "type": "function"
    },
    {
      "inputs": [],
      "name": "withdrawalDelayTime",
      "outputs": [
        {
          "internalType": "uint256",
          "name": "",
          "type": "uint256"
        }
      ],
      "stateMutability": "view",
      "type": "function"
    }
  ],
  "bytecode": "0x608060405234801561001057600080fd5b506145a2806100206000396000f3fe608060405234801561001057600080fd5b50600436106102265760003560e01c806375151b6311610130578063b5b7a184116100b8578063e79864661161007c578063e79864661461064a578063eabe600e14610666578063f0f998e914610682578063f2fde38b1461069e578063fbfa77cf146106ba57610226565b8063b5b7a18414610580578063b82ffdf91461059e578063cd1d89b0146105ce578063d7da2c50146105ea578063d8fc2f941461061a57610226565b80638754bbc6116100ff5780638754bbc6146104f05780638da5cb5b1461050c5780639d1dd0da1461052a578063a2e8d38b14610546578063b3982cb81461056257610226565b806375151b63146104685780637adbf973146104985780637dc0d1d0146104b45780637e41ac17146104d257610226565b80633f596155116101b35780636817031b116101825780636817031b146103ec5780636aa9f686146104085780636be13c92146104245780636e4626db14610442578063715018a61461045e57610226565b80633f596155146103545780635376f1a3146103845780635fea6120146103a057806363c0ec03146103bc57610226565b8063195bac62116101fa578063195bac621461029d57806325162787146102b957806326e31516146102d557806335e3212c146103065780633a74595c1461033657610226565b8062c15bde1461022b57806306087e5b1461024757806306ae63ae14610263578063125d5d711461027f575b600080fd5b61024560048036038101906102409190613511565b6106d8565b005b610261600480360381019061025c9190613551565b610782565b005b61027d6004803603810190610278919061357e565b610880565b005b6102876108d3565b60405161029491906135cd565b60405180910390f35b6102b760048036038101906102b29190613511565b6108d9565b005b6102d360048036038101906102ce91906135e8565b610a26565b005b6102ef60048036038101906102ea9190613615565b610ab2565b6040516102fd929190613655565b60405180910390f35b610320600480360381019061031b9190613551565b610ae3565b60405161032d91906135cd565b60405180910390f35b61033e610afb565b60405161034b91906135cd565b60405180910390f35b61036e60048036038101906103699190613615565b610b01565b60405161037b91906135cd565b60405180910390f35b61039e60048036038101906103999190613551565b610b26565b005b6103ba60048036038101906103b59190613511565b610d49565b005b6103d660048036038101906103d19190613551565b611071565b6040516103e391906135cd565b60405180910390f35b61040660048036038101906104019190613551565b611089565b005b610422600480360381019061041d91906135e8565b611186565b005b61042c6111cf565b604051610439919061368d565b60405180910390f35b61045c60048036038101906104579190613511565b6111f5565b005b610466611476565b005b610482600480360381019061047d9190613551565b61148a565b60405161048f91906136c3565b60405180910390f35b6104b260048036038101906104ad9190613551565b6114aa565b005b6104bc6115a8565b6040516104c9919061368d565b60405180910390f35b6104da6115ce565b6040516104e791906135cd565b60405180910390f35b61050a600480360381019061050591906136de565b6115d3565b005b610514611980565b604051610521919061368d565b60405180910390f35b610544600480360381019061053f9190613511565b6119b8565b005b610560600480360381019061055b919061383b565b611c64565b005b61056a611e17565b60405161057791906135cd565b60405180910390f35b610588611e1d565b60405161059591906135cd565b60405180910390f35b6105b860048036038101906105b39190613551565b611e23565b6040516105c591906135cd565b60405180910390f35b6105e860048036038101906105e39190613511565b611e3b565b005b61060460048036038101906105ff9190613551565b612079565b60405161061191906135cd565b60405180910390f35b610634600480360381019061062f9190613551565b612091565b60405161064191906136c3565b60405180910390f35b610664600480360381019061065f91906138e8565b6120b1565b005b610680600480360381019061067b919061397e565b6121a6565b005b61069c60048036038101906106979190613551565b61229c565b005b6106b860048036038101906106b39190613551565b6125b6565b005b6106c261263c565b6040516106cf919061368d565b60405180910390f35b6106e0612660565b600860003373ffffffffffffffffffffffffffffffffffffffff1673ffffffffffffffffffffffffffffffffffffffff16815260200190815260200160002060009054906101000a900460ff1661076c576040517f08c379a000000000000000000000000000000000000000000000000000000000815260040161076390613a5c565b60405180910390fd5b61077682826126b7565b61077e612a8a565b5050565b61078a612aa3565b600073ffffffffffffffffffffffffffffffffffffffff168173ffffffffffffffffffffffffffffffffffffffff16036107f9576040517f08c379a00000000000000000000000000000000000000000000000000000000081526004016107f090613ac8565b60405180910390fd5b80600160006101000a81548173ffffffffffffffffffffffffffffffffffffffff021916908373ffffffffffffffffffffffffffffffffffffffff1602179055508073ffffffffffffffffffffffffffffffffffffffff167f12b87b4923747c53aaddfd1b826b461a2f191f35bcebb9b2a4194c47d664be6560405160405180910390a250565b610888612aa3565b81600381905550806004819055507f6effba7817449d7581339d631efecc0223e5d4c8f3d9760157d8ee2458e72e2082826040516108c7929190613655565b60405180910390a15050565b60035481565b60008054906101000a900473ffffffffffffffffffffffffffffffffffffffff1673ffffffffffffffffffffffffffffffffffffffff163373ffffffffffffffffffffffffffffffffffffffff1614610967576040517f08c379a000000000000000000000000000000000000000000000000000000000815260040161095e90613b34565b60405180910390fd5b80600960008473ffffffffffffffffffffffffffffffffffffffff1673ffffffffffffffffffffffffffffffffffffffff16815260200190815260200160002060008282546109b69190613b83565b925050819055508173ffffffffffffffffffffffffffffffffffffffff163073ffffffffffffffffffffffffffffffffffffffff167f475ce1a1fde21a55ef3ff23bc7394d2bb1403cbbbcc86e762514d5dbce3b835c83604051610a1a91906135cd565b60405180910390a35050565b610a2e612aa3565b60008111610a71576040517f08c379a0000000000000000000000000000000000000000000000000000000008152600401610a6890613c03565b60405180910390fd5b80600e819055507fd2676471685fc14d75b2c1388eb8967ecad406b6b349cfdfcb3b7b4dfc36c84281604051610aa791906135cd565b60405180910390a150565b600d602052816000526040600020602052806000526040600020600091509150508060000154908060010154905082565b60096020528060005260406000206000915090505481565b60055481565b600c602052816000526040600020602052806000526040600020600091509150505481565b610b2e612660565b600860003373ffffffffffffffffffffffffffffffffffffffff1673ffffffffffffffffffffffffffffffffffffffff16815260200190815260200160002060009054906101000a900460ff16610bba576040517f08c379a0000000000000000000000000000000000000000000000000000000008152600401610bb190613a5c565b60405180910390fd5b6000600d60008373ffffffffffffffffffffffffffffffffffffffff1673ffffffffffffffffffffffffffffffffffffffff16815260200190815260200160002060003373ffffffffffffffffffffffffffffffffffffffff1673ffffffffffffffffffffffffffffffffffffffff1681526020019081526020016000206040518060400160405290816000820154815260200160018201548152505090508060200151421015610ca0576040517f08c379a0000000000000000000000000000000000000000000000000000000008152600401610c9790613c6f565b60405180910390fd5b610cae828260000151612b2a565b600d60008373ffffffffffffffffffffffffffffffffffffffff1673ffffffffffffffffffffffffffffffffffffffff16815260200190815260200160002060003373ffffffffffffffffffffffffffffffffffffffff1673ffffffffffffffffffffffffffffffffffffffff1681526020019081526020016000206000808201600090556001820160009055505050610d46612a8a565b50565b610d51612660565b600860003373ffffffffffffffffffffffffffffffffffffffff1673ffffffffffffffffffffffffffffffffffffffff16815260200190815260200160002060009054906101000a900460ff16610ddd576040517f08c379a0000000000000000000000000000000000000000000000000000000008152600401610dd490613a5c565b60405180910390fd5b60008111610e20576040517f08c379a0000000000000000000000000000000000000000000000000000000008152600401610e1790613cdb565b60405180910390fd5b600760008373ffffffffffffffffffffffffffffffffffffffff1673ffffffffffffffffffffffffffffffffffffffff16815260200190815260200160002060009054906101000a900460ff16610eac576040517f08c379a0000000000000000000000000000000000000000000000000000000008152600401610ea390613d47565b60405180910390fd5b8173ffffffffffffffffffffffffffffffffffffffff166323b872dd3330846040518463ffffffff1660e01b8152600401610ee993929190613d67565b6020604051808303816000875af1158015610f08573d6000803e3d6000fd5b505050506040513d601f19601f82011682018060405250810190610f2c9190613db3565b610f6b576040517f08c379a0000000000000000000000000000000000000000000000000000000008152600401610f6290613e2c565b60405180910390fd5b80600960008473ffffffffffffffffffffffffffffffffffffffff1673ffffffffffffffffffffffffffffffffffffffff1681526020019081526020016000206000828254610fba9190613b83565b925050819055508173ffffffffffffffffffffffffffffffffffffffff163373ffffffffffffffffffffffffffffffffffffffff167f475ce1a1fde21a55ef3ff23bc7394d2bb1403cbbbcc86e762514d5dbce3b835c600960008673ffffffffffffffffffffffffffffffffffffffff1673ffffffffffffffffffffffffffffffffffffffff1681526020019081526020016000205460405161105d91906135cd565b60405180910390a361106d612a8a565b5050565b60066020528060005260406000206000915090505481565b611091612aa3565b600073ffffffffffffffffffffffffffffffffffffffff168173ffffffffffffffffffffffffffffffffffffffff1603611100576040517f08c379a00000000000000000000000000000000000000000000000000000000081526004016110f790613e98565b60405180910390fd5b806000806101000a81548173ffffffffffffffffffffffffffffffffffffffff021916908373ffffffffffffffffffffffffffffffffffffffff1602179055508073ffffffffffffffffffffffffffffffffffffffff167fa49691f0dd6477ccef49962612a236d252e3a31c3be8b61fa6abeff3e74a757260405160405180910390a250565b61118e612aa3565b806005819055507f9d9c46a2a013deb548384cacd2b81266c0999b6bf5e0ac1982e780e9dcfb5baa816040516111c491906135cd565b60405180910390a150565b600160009054906101000a900473ffffffffffffffffffffffffffffffffffffffff1681565b6111fd612660565b600860003373ffffffffffffffffffffffffffffffffffffffff1673ffffffffffffffffffffffffffffffffffffffff16815260200190815260200160002060009054906101000a900460ff16611289576040517f08c379a000000000000000000000000000000000000000000000000000000000815260040161128090613a5c565b60405180910390fd5b80600c60008473ffffffffffffffffffffffffffffffffffffffff1673ffffffffffffffffffffffffffffffffffffffff16815260200190815260200160002060003373ffffffffffffffffffffffffffffffffffffffff1673ffffffffffffffffffffffffffffffffffffffff168152602001908152602001600020541015611348576040517f08c379a000000000000000000000000000000000000000000000000000000000815260040161133f90613f04565b60405180910390fd5b6000600554426113589190613b83565b9050604051806040016040528083815260200182815250600d60008573ffffffffffffffffffffffffffffffffffffffff1673ffffffffffffffffffffffffffffffffffffffff16815260200190815260200160002060003373ffffffffffffffffffffffffffffffffffffffff1673ffffffffffffffffffffffffffffffffffffffff16815260200190815260200160002060008201518160000155602082015181600101559050508273ffffffffffffffffffffffffffffffffffffffff163373ffffffffffffffffffffffffffffffffffffffff167f8fa53c657d42560b16de22b6a3c450f4a27a432c64f8549a2e7084926f2c34ab8484604051611461929190613655565b60405180910390a350611472612a8a565b5050565b61147e612aa3565b6114886000612ee1565b565b60076020528060005260406000206000915054906101000a900460ff1681565b6114b2612aa3565b600073ffffffffffffffffffffffffffffffffffffffff168173ffffffffffffffffffffffffffffffffffffffff1603611521576040517f08c379a000000000000000000000000000000000000000000000000000000000815260040161151890613f70565b60405180910390fd5b80600260006101000a81548173ffffffffffffffffffffffffffffffffffffffff021916908373ffffffffffffffffffffffffffffffffffffffff1602179055508073ffffffffffffffffffffffffffffffffffffffff167f0e05ae75e8b926552cf6fcd744d19f422561e3ced1e426868730852702dbe41860405160405180910390a250565b600260009054906101000a900473ffffffffffffffffffffffffffffffffffffffff1681565b601281565b60006115dd612fb8565b905060008160000160089054906101000a900460ff1615905060008260000160009054906101000a900467ffffffffffffffff1690506000808267ffffffffffffffff1614801561162b5750825b9050600060018367ffffffffffffffff16148015611660575060003073ffffffffffffffffffffffffffffffffffffffff163b145b90508115801561166e575080155b156116a5576040517ff92ee8a900000000000000000000000000000000000000000000000000000000815260040160405180910390fd5b60018560000160006101000a81548167ffffffffffffffff021916908367ffffffffffffffff16021790555083156116f55760018560000160086101000a81548160ff0219169083151502179055505b6116fe8c612fe0565b611706612ff4565b8a6000806101000a81548173ffffffffffffffffffffffffffffffffffffffff021916908373ffffffffffffffffffffffffffffffffffffffff16021790555089600260006101000a81548173ffffffffffffffffffffffffffffffffffffffff021916908373ffffffffffffffffffffffffffffffffffffffff16021790555088600481905550876003819055508660058190555085600160006101000a81548173ffffffffffffffffffffffffffffffffffffffff021916908373ffffffffffffffffffffffffffffffffffffffff1602179055508a73ffffffffffffffffffffffffffffffffffffffff167fa49691f0dd6477ccef49962612a236d252e3a31c3be8b61fa6abeff3e74a757260405160405180910390a28973ffffffffffffffffffffffffffffffffffffffff167f0e05ae75e8b926552cf6fcd744d19f422561e3ced1e426868730852702dbe41860405160405180910390a27f6effba7817449d7581339d631efecc0223e5d4c8f3d9760157d8ee2458e72e20888a604051611894929190613655565b60405180910390a17f9d9c46a2a013deb548384cacd2b81266c0999b6bf5e0ac1982e780e9dcfb5baa876040516118cb91906135cd565b60405180910390a18573ffffffffffffffffffffffffffffffffffffffff167f12b87b4923747c53aaddfd1b826b461a2f191f35bcebb9b2a4194c47d664be6560405160405180910390a283156119725760008560000160086101000a81548160ff0219169083151502179055507fc7f505b2f371ae2175ee4913f4499e1f2633a7b5936321eed1cdaeb6115181d260016040516119699190613fe9565b60405180910390a15b505050505050505050505050565b60008061198b613006565b90508060000160009054906101000a900473ffffffffffffffffffffffffffffffffffffffff1691505090565b60008054906101000a900473ffffffffffffffffffffffffffffffffffffffff1673ffffffffffffffffffffffffffffffffffffffff163373ffffffffffffffffffffffffffffffffffffffff1614611a46576040517f08c379a0000000000000000000000000000000000000000000000000000000008152600401611a3d90613b34565b60405180910390fd5b80600960008473ffffffffffffffffffffffffffffffffffffffff1673ffffffffffffffffffffffffffffffffffffffff168152602001908152602001600020541015611ac8576040517f08c379a0000000000000000000000000000000000000000000000000000000008152600401611abf90614050565b60405180910390fd5b8173ffffffffffffffffffffffffffffffffffffffff1663a9059cbb60008054906101000a900473ffffffffffffffffffffffffffffffffffffffff16836040518363ffffffff1660e01b8152600401611b23929190614070565b6020604051808303816000875af1158015611b42573d6000803e3d6000fd5b505050506040513d601f19601f82011682018060405250810190611b669190613db3565b611ba5576040517f08c379a0000000000000000000000000000000000000000000000000000000008152600401611b9c90613e2c565b60405180910390fd5b80600960008473ffffffffffffffffffffffffffffffffffffffff1673ffffffffffffffffffffffffffffffffffffffff1681526020019081526020016000206000828254611bf49190614099565b925050819055508173ffffffffffffffffffffffffffffffffffffffff163073ffffffffffffffffffffffffffffffffffffffff167f87643e0436c867defcc7b4812259dde63cbe46038012cde1457289586e63acca83604051611c5891906135cd565b60405180910390a35050565b611c6c612aa3565b818190508484905014611cb4576040517f08c379a0000000000000000000000000000000000000000000000000000000008152600401611cab90614119565b60405180910390fd5b60005b84849050811015611e1057828282818110611cd557611cd4614139565b5b9050602002016020810190611cea9190614168565b60086000878785818110611d0157611d00614139565b5b9050602002016020810190611d169190613551565b73ffffffffffffffffffffffffffffffffffffffff1673ffffffffffffffffffffffffffffffffffffffff16815260200190815260200160002060006101000a81548160ff021916908315150217905550848482818110611d7a57611d79614139565b5b9050602002016020810190611d8f9190613551565b73ffffffffffffffffffffffffffffffffffffffff167f3935342b137d19ff436f616ae14e5ad1acb71b4683facd025b1ef030798b4109848484818110611dd957611dd8614139565b5b9050602002016020810190611dee9190614168565b604051611dfb91906136c3565b60405180910390a28080600101915050611cb7565b5050505050565b600e5481565b60045481565b600a6020528060005260406000206000915090505481565b611e43612aa3565b60008111611e86576040517f08c379a0000000000000000000000000000000000000000000000000000000008152600401611e7d90613cdb565b60405180910390fd5b600760008373ffffffffffffffffffffffffffffffffffffffff1673ffffffffffffffffffffffffffffffffffffffff16815260200190815260200160002060009054906101000a900460ff16611f12576040517f08c379a0000000000000000000000000000000000000000000000000000000008152600401611f0990613d47565b60405180910390fd5b8173ffffffffffffffffffffffffffffffffffffffff166323b872dd3330846040518463ffffffff1660e01b8152600401611f4f93929190613d67565b6020604051808303816000875af1158015611f6e573d6000803e3d6000fd5b505050506040513d601f19601f82011682018060405250810190611f929190613db3565b611fd1576040517f08c379a0000000000000000000000000000000000000000000000000000000008152600401611fc890613e2c565b60405180910390fd5b80600a60008473ffffffffffffffffffffffffffffffffffffffff1673ffffffffffffffffffffffffffffffffffffffff16815260200190815260200160002060008282546120209190613b83565b925050819055508173ffffffffffffffffffffffffffffffffffffffff167f7bd42206aa7f89bfe6e3764927e5614e3a12b3badbd573aca37817ea45d6c6f68260405161206d91906135cd565b60405180910390a25050565b600b6020528060005260406000206000915090505481565b60086020528060005260406000206000915054906101000a900460ff1681565b6120b9612aa3565b80600760008473ffffffffffffffffffffffffffffffffffffffff1673ffffffffffffffffffffffffffffffffffffffff16815260200190815260200160002060006101000a81548160ff021916908315150217905550801561215e578173ffffffffffffffffffffffffffffffffffffffff167f784c8f4dbf0ffedd6e72c76501c545a70f8b203b30a26ce542bf92ba87c248a460405160405180910390a26121a2565b8173ffffffffffffffffffffffffffffffffffffffff167f4c910b69fe65a61f7531b9c5042b2329ca7179c77290aa7e2eb3afa3c8511fd360405160405180910390a25b5050565b6121ae612aa3565b8181905084849050146121f6576040517f08c379a00000000000000000000000000000000000000000000000000000000081526004016121ed90614119565b60405180910390fd5b60005b848490508110156122955782828281811061221757612216614139565b5b905060200201356006600087878581811061223557612234614139565b5b905060200201602081019061224a9190613551565b73ffffffffffffffffffffffffffffffffffffffff1673ffffffffffffffffffffffffffffffffffffffff1681526020019081526020016000208190555080806001019150506121f9565b5050505050565b6122a4612660565b600860003373ffffffffffffffffffffffffffffffffffffffff1673ffffffffffffffffffffffffffffffffffffffff16815260200190815260200160002060009054906101000a900460ff16612330576040517f08c379a000000000000000000000000000000000000000000000000000000000815260040161232790613a5c565b60405180910390fd5b600760008273ffffffffffffffffffffffffffffffffffffffff1673ffffffffffffffffffffffffffffffffffffffff16815260200190815260200160002060009054906101000a900460ff166123bc576040517f08c379a00000000000000000000000000000000000000000000000000000000081526004016123b390613d47565b60405180910390fd5b6000600960008373ffffffffffffffffffffffffffffffffffffffff1673ffffffffffffffffffffffffffffffffffffffff16815260200190815260200160002054905060008111612443576040517f08c379a000000000000000000000000000000000000000000000000000000000815260040161243a906141e1565b60405180910390fd5b8173ffffffffffffffffffffffffffffffffffffffff1663a9059cbb33836040518363ffffffff1660e01b815260040161247e929190614070565b6020604051808303816000875af115801561249d573d6000803e3d6000fd5b505050506040513d601f19601f820116820180604052508101906124c19190613db3565b612500576040517f08c379a00000000000000000000000000000000000000000000000000000000081526004016124f790613e2c565b60405180910390fd5b6000600960008473ffffffffffffffffffffffffffffffffffffffff1673ffffffffffffffffffffffffffffffffffffffff168152602001908152602001600020819055508173ffffffffffffffffffffffffffffffffffffffff163373ffffffffffffffffffffffffffffffffffffffff167f87643e0436c867defcc7b4812259dde63cbe46038012cde1457289586e63acca836040516125a291906135cd565b60405180910390a3506125b3612a8a565b50565b6125be612aa3565b600073ffffffffffffffffffffffffffffffffffffffff168173ffffffffffffffffffffffffffffffffffffffff16036126305760006040517f1e4fbdf7000000000000000000000000000000000000000000000000000000008152600401612627919061368d565b60405180910390fd5b61263981612ee1565b50565b60008054906101000a900473ffffffffffffffffffffffffffffffffffffffff1681565b600061266a61302e565b905060028160000154036126aa576040517f3ee5aeb500000000000000000000000000000000000000000000000000000000815260040160405180910390fd5b6002816000018190555050565b600081116126fa576040517f08c379a00000000000000000000000000000000000000000000000000000000081526004016126f190613cdb565b60405180910390fd5b600760008373ffffffffffffffffffffffffffffffffffffffff1673ffffffffffffffffffffffffffffffffffffffff16815260200190815260200160002060009054906101000a900460ff16612786576040517f08c379a000000000000000000000000000000000000000000000000000000000815260040161277d90613d47565b60405180910390fd5b8173ffffffffffffffffffffffffffffffffffffffff166323b872dd33600160009054906101000a900473ffffffffffffffffffffffffffffffffffffffff16846040518463ffffffff1660e01b81526004016127e593929190613d67565b6020604051808303816000875af1158015612804573d6000803e3d6000fd5b505050506040513d601f19601f820116820180604052508101906128289190613db3565b612867576040517f08c379a000000000000000000000000000000000000000000000000000000000815260040161285e90613e2c565b60405180910390fd5b6000600e5403612892576012600a61287f9190614334565b600161288b919061437f565b600e819055505b600061289e8383613056565b905080600c60008573ffffffffffffffffffffffffffffffffffffffff1673ffffffffffffffffffffffffffffffffffffffff16815260200190815260200160002060003373ffffffffffffffffffffffffffffffffffffffff1673ffffffffffffffffffffffffffffffffffffffff168152602001908152602001600020600082825461292c9190613b83565b9250508190555081600a60008573ffffffffffffffffffffffffffffffffffffffff1673ffffffffffffffffffffffffffffffffffffffff16815260200190815260200160002060008282546129829190613b83565b9250508190555080600b60008573ffffffffffffffffffffffffffffffffffffffff1673ffffffffffffffffffffffffffffffffffffffff16815260200190815260200160002060008282546129d89190613b83565b925050819055508273ffffffffffffffffffffffffffffffffffffffff163373ffffffffffffffffffffffffffffffffffffffff167ff09a5fa3195e3e263d45424b2cdacfd0eea5dd2fdf46f31140babc0fde60abb984600a60008873ffffffffffffffffffffffffffffffffffffffff1673ffffffffffffffffffffffffffffffffffffffff16815260200190815260200160002054604051612a7d929190613655565b60405180910390a3505050565b6000612a9461302e565b90506001816000018190555050565b612aab6131d4565b73ffffffffffffffffffffffffffffffffffffffff16612ac9611980565b73ffffffffffffffffffffffffffffffffffffffff1614612b2857612aec6131d4565b6040517f118cdaa7000000000000000000000000000000000000000000000000000000008152600401612b1f919061368d565b60405180910390fd5b565b60008111612b6d576040517f08c379a0000000000000000000000000000000000000000000000000000000008152600401612b6490613cdb565b60405180910390fd5b80600c60008473ffffffffffffffffffffffffffffffffffffffff1673ffffffffffffffffffffffffffffffffffffffff16815260200190815260200160002060003373ffffffffffffffffffffffffffffffffffffffff1673ffffffffffffffffffffffffffffffffffffffff168152602001908152602001600020541015612c2c576040517f08c379a0000000000000000000000000000000000000000000000000000000008152600401612c2390613f04565b60405180910390fd5b6000612c3883836131dc565b905081600c60008573ffffffffffffffffffffffffffffffffffffffff1673ffffffffffffffffffffffffffffffffffffffff16815260200190815260200160002060003373ffffffffffffffffffffffffffffffffffffffff1673ffffffffffffffffffffffffffffffffffffffff1681526020019081526020016000206000828254612cc69190614099565b9250508190555081600b60008573ffffffffffffffffffffffffffffffffffffffff1673ffffffffffffffffffffffffffffffffffffffff1681526020019081526020016000206000828254612d1c9190614099565b9250508190555080600a60008573ffffffffffffffffffffffffffffffffffffffff1673ffffffffffffffffffffffffffffffffffffffff1681526020019081526020016000206000828254612d729190614099565b925050819055508273ffffffffffffffffffffffffffffffffffffffff1663a9059cbb33836040518363ffffffff1660e01b8152600401612db4929190614070565b6020604051808303816000875af1158015612dd3573d6000803e3d6000fd5b505050506040513d601f19601f82011682018060405250810190612df79190613db3565b612e36576040517f08c379a0000000000000000000000000000000000000000000000000000000008152600401612e2d90613e2c565b60405180910390fd5b8273ffffffffffffffffffffffffffffffffffffffff163373ffffffffffffffffffffffffffffffffffffffff167fa820b63c87193288cc94a3f317ea876d89c6dd3f158665fad57874409e75a8bc83600a60008873ffffffffffffffffffffffffffffffffffffffff1673ffffffffffffffffffffffffffffffffffffffff16815260200190815260200160002054604051612ed4929190613655565b60405180910390a3505050565b6000612eeb613006565b905060008160000160009054906101000a900473ffffffffffffffffffffffffffffffffffffffff169050828260000160006101000a81548173ffffffffffffffffffffffffffffffffffffffff021916908373ffffffffffffffffffffffffffffffffffffffff1602179055508273ffffffffffffffffffffffffffffffffffffffff168173ffffffffffffffffffffffffffffffffffffffff167f8be0079c531659141344cd1fd0a4f28419497f9722a3daafe3b4186f6b6457e060405160405180910390a3505050565b60007ff0c57e16840df040f15088dc2f81fe391c3923bec73e23a9662efc9c229c6a00905090565b612fe8613362565b612ff1816133a2565b50565b612ffc613362565b613004613428565b565b60007f9016d09d72d40fdae2fd8ceac6b6234c7706214fd39c1cd1e609a0528c199300905090565b60007f9b779b17422d0df92223018b32b4d1fa46e071723d6817e2486d003becc55f00905090565b600080600260009054906101000a900473ffffffffffffffffffffffffffffffffffffffff1673ffffffffffffffffffffffffffffffffffffffff166389b94ea2600660008773ffffffffffffffffffffffffffffffffffffffff1673ffffffffffffffffffffffffffffffffffffffff168152602001908152602001600020546040518263ffffffff1660e01b81526004016130f391906135cd565b608060405180830381865afa158015613110573d6000803e3d6000fd5b505050506040513d601f19601f8201168201806040525081019061313491906144df565b90506000816060015184613148919061437f565b9050816020015160121061319457600e548260200151601261316a9190614099565b600a6131769190614334565b82613181919061437f565b61318b919061453b565b925050506131ce565b600e54601283602001516131a89190614099565b600a6131b49190614334565b826131bf919061453b565b6131c9919061453b565b925050505b92915050565b600033905090565b600080600260009054906101000a900473ffffffffffffffffffffffffffffffffffffffff1673ffffffffffffffffffffffffffffffffffffffff166389b94ea2600660008773ffffffffffffffffffffffffffffffffffffffff1673ffffffffffffffffffffffffffffffffffffffff168152602001908152602001600020546040518263ffffffff1660e01b815260040161327991906135cd565b608060405180830381865afa158015613296573d6000803e3d6000fd5b505050506040513d601f19601f820116820180604052508101906132ba91906144df565b90508060200151601210613314578060600151816020015160126132de9190614099565b600a6132ea9190614334565b600e54856132f8919061437f565b613302919061453b565b61330c919061453b565b91505061335c565b80606001516012826020015161332a9190614099565b600a6133369190614334565b600e5485613344919061437f565b61334e919061437f565b613358919061453b565b9150505b92915050565b61336a613449565b6133a0576040517fd7e6bcf800000000000000000000000000000000000000000000000000000000815260040160405180910390fd5b565b6133aa613362565b600073ffffffffffffffffffffffffffffffffffffffff168173ffffffffffffffffffffffffffffffffffffffff160361341c5760006040517f1e4fbdf7000000000000000000000000000000000000000000000000000000008152600401613413919061368d565b60405180910390fd5b61342581612ee1565b50565b613430613362565b600061343a61302e565b90506001816000018190555050565b6000613453612fb8565b60000160089054906101000a900460ff16905090565b6000604051905090565b600080fd5b600080fd5b600073ffffffffffffffffffffffffffffffffffffffff82169050919050565b60006134a88261347d565b9050919050565b6134b88161349d565b81146134c357600080fd5b50565b6000813590506134d5816134af565b92915050565b6000819050919050565b6134ee816134db565b81146134f957600080fd5b50565b60008135905061350b816134e5565b92915050565b6000806040838503121561352857613527613473565b5b6000613536858286016134c6565b9250506020613547858286016134fc565b9150509250929050565b60006020828403121561356757613566613473565b5b6000613575848285016134c6565b91505092915050565b6000806040838503121561359557613594613473565b5b60006135a3858286016134fc565b92505060206135b4858286016134fc565b9150509250929050565b6135c7816134db565b82525050565b60006020820190506135e260008301846135be565b92915050565b6000602082840312156135fe576135fd613473565b5b600061360c848285016134fc565b91505092915050565b6000806040838503121561362c5761362b613473565b5b600061363a858286016134c6565b925050602061364b858286016134c6565b9150509250929050565b600060408201905061366a60008301856135be565b61367760208301846135be565b9392505050565b6136878161349d565b82525050565b60006020820190506136a2600083018461367e565b92915050565b60008115159050919050565b6136bd816136a8565b82525050565b60006020820190506136d860008301846136b4565b92915050565b600080600080600080600060e0888a0312156136fd576136fc613473565b5b600061370b8a828b016134c6565b975050602061371c8a828b016134c6565b965050604061372d8a828b016134c6565b955050606061373e8a828b016134fc565b945050608061374f8a828b016134fc565b93505060a06137608a828b016134fc565b92505060c06137718a828b016134c6565b91505092959891949750929550565b600080fd5b600080fd5b600080fd5b60008083601f8401126137a5576137a4613780565b5b8235905067ffffffffffffffff8111156137c2576137c1613785565b5b6020830191508360208202830111156137de576137dd61378a565b5b9250929050565b60008083601f8401126137fb576137fa613780565b5b8235905067ffffffffffffffff81111561381857613817613785565b5b6020830191508360208202830111156138345761383361378a565b5b9250929050565b6000806000806040858703121561385557613854613473565b5b600085013567ffffffffffffffff81111561387357613872613478565b5b61387f8782880161378f565b9450945050602085013567ffffffffffffffff8111156138a2576138a1613478565b5b6138ae878288016137e5565b925092505092959194509250565b6138c5816136a8565b81146138d057600080fd5b50565b6000813590506138e2816138bc565b92915050565b600080604083850312156138ff576138fe613473565b5b600061390d858286016134c6565b925050602061391e858286016138d3565b9150509250929050565b60008083601f84011261393e5761393d613780565b5b8235905067ffffffffffffffff81111561395b5761395a613785565b5b6020830191508360208202830111156139775761397661378a565b5b9250929050565b6000806000806040858703121561399857613997613473565b5b600085013567ffffffffffffffff8111156139b6576139b5613478565b5b6139c28782880161378f565b9450945050602085013567ffffffffffffffff8111156139e5576139e4613478565b5b6139f187828801613928565b925092505092959194509250565b600082825260208201905092915050565b7f4e6f74204c502070726f76696465720000000000000000000000000000000000600082015250565b6000613a46600f836139ff565b9150613a5182613a10565b602082019050919050565b60006020820190508181036000830152613a7581613a39565b9050919050565b7f496e76616c696420636f6c642077616c6c657420616464726573730000000000600082015250565b6000613ab2601b836139ff565b9150613abd82613a7c565b602082019050919050565b60006020820190508181036000830152613ae181613aa5565b9050919050565b7f4f6e6c79207661756c7400000000000000000000000000000000000000000000600082015250565b6000613b1e600a836139ff565b9150613b2982613ae8565b602082019050919050565b60006020820190508181036000830152613b4d81613b11565b9050919050565b7f4e487b7100000000000000000000000000000000000000000000000000000000600052601160045260246000fd5b6000613b8e826134db565b9150613b99836134db565b9250828201905080821115613bb157613bb0613b54565b5b92915050565b7f496e76616c6964204e4156207072696365000000000000000000000000000000600082015250565b6000613bed6011836139ff565b9150613bf882613bb7565b602082019050919050565b60006020820190508181036000830152613c1c81613be0565b9050919050565b7f5769746864726177616c2064656c6179206e6f74206d65740000000000000000600082015250565b6000613c596018836139ff565b9150613c6482613c23565b602082019050919050565b60006020820190508181036000830152613c8881613c4c565b9050919050565b7f416d6f756e74206d7573742062652067726561746572207468616e207a65726f600082015250565b6000613cc56020836139ff565b9150613cd082613c8f565b602082019050919050565b60006020820190508181036000830152613cf481613cb8565b9050919050565b7f546f6b656e206e6f7420737570706f7274656400000000000000000000000000600082015250565b6000613d316013836139ff565b9150613d3c82613cfb565b602082019050919050565b60006020820190508181036000830152613d6081613d24565b9050919050565b6000606082019050613d7c600083018661367e565b613d89602083018561367e565b613d9660408301846135be565b949350505050565b600081519050613dad816138bc565b92915050565b600060208284031215613dc957613dc8613473565b5b6000613dd784828501613d9e565b91505092915050565b7f5472616e73666572206661696c65640000000000000000000000000000000000600082015250565b6000613e16600f836139ff565b9150613e2182613de0565b602082019050919050565b60006020820190508181036000830152613e4581613e09565b9050919050565b7f496e76616c6964207661756c7420616464726573730000000000000000000000600082015250565b6000613e826015836139ff565b9150613e8d82613e4c565b602082019050919050565b60006020820190508181036000830152613eb181613e75565b9050919050565b7f496e73756666696369656e742066756e64000000000000000000000000000000600082015250565b6000613eee6011836139ff565b9150613ef982613eb8565b602082019050919050565b60006020820190508181036000830152613f1d81613ee1565b9050919050565b7f496e76616c6964206f7261636c65206164647265737300000000000000000000600082015250565b6000613f5a6016836139ff565b9150613f6582613f24565b602082019050919050565b60006020820190508181036000830152613f8981613f4d565b9050919050565b6000819050919050565b600067ffffffffffffffff82169050919050565b6000819050919050565b6000613fd3613fce613fc984613f90565b613fae565b613f9a565b9050919050565b613fe381613fb8565b82525050565b6000602082019050613ffe6000830184613fda565b92915050565b7f496e73756666696369656e74204c5020616d6f756e7400000000000000000000600082015250565b600061403a6016836139ff565b915061404582614004565b602082019050919050565b600060208201905081810360008301526140698161402d565b9050919050565b6000604082019050614085600083018561367e565b61409260208301846135be565b9392505050565b60006140a4826134db565b91506140af836134db565b92508282039050818111156140c7576140c6613b54565b5b92915050565b7f496e76616c696420696e70757400000000000000000000000000000000000000600082015250565b6000614103600d836139ff565b915061410e826140cd565b602082019050919050565b60006020820190508181036000830152614132816140f6565b9050919050565b7f4e487b7100000000000000000000000000000000000000000000000000000000600052603260045260246000fd5b60006020828403121561417e5761417d613473565b5b600061418c848285016138d3565b91505092915050565b7f4e6f206c697175696469747920746f2077697468647261770000000000000000600082015250565b60006141cb6018836139ff565b91506141d682614195565b602082019050919050565b600060208201905081810360008301526141fa816141be565b9050919050565b60008160011c9050919050565b6000808291508390505b60018511156142585780860481111561423457614233613b54565b5b60018516156142435780820291505b808102905061425185614201565b9450614218565b94509492505050565b600082614271576001905061432d565b8161427f576000905061432d565b8160018114614295576002811461429f576142ce565b600191505061432d565b60ff8411156142b1576142b0613b54565b5b8360020a9150848211156142c8576142c7613b54565b5b5061432d565b5060208310610133831016604e8410600b84101617156143035782820a9050838111156142fe576142fd613b54565b5b61432d565b614310848484600161420e565b9250905081840481111561432757614326613b54565b5b81810290505b9392505050565b600061433f826134db565b915061434a836134db565b92506143777fffffffffffffffffffffffffffffffffffffffffffffffffffffffffffffffff8484614261565b905092915050565b600061438a826134db565b9150614395836134db565b92508282026143a3816134db565b915082820484148315176143ba576143b9613b54565b5b5092915050565b600080fd5b6000601f19601f8301169050919050565b7f4e487b7100000000000000000000000000000000000000000000000000000000600052604160045260246000fd5b61440f826143c6565b810181811067ffffffffffffffff8211171561442e5761442d6143d7565b5b80604052505050565b6000614441613469565b905061444d8282614406565b919050565b600081519050614461816134e5565b92915050565b60006080828403121561447d5761447c6143c1565b5b6144876080614437565b9050600061449784828501614452565b60008301525060206144ab84828501614452565b60208301525060406144bf84828501614452565b60408301525060606144d384828501614452565b60608301525092915050565b6000608082840312156144f5576144f4613473565b5b600061450384828501614467565b91505092915050565b7f4e487b7100000000000000000000000000000000000000000000000000000000600052601260045260246000fd5b6000614546826134db565b9150614551836134db565b9250826145615761456061450c565b5b82820490509291505056fea2646970667358221220dfa1d22031cfa56d921b22dbf4aeb0bd57b02b0e15d257320461fb18d027c52a64736f6c63430008180033",
  "linkReferences": {},
  "deployedLinkReferences": {}
}