{
  "_format": "hh-sol-artifact-1",
  "contractName": "DexSupporter",
  "sourceName": "contracts/0xVault/DexSupporter.sol",
  "abi": [
    {
      "inputs": [
        {
          "internalType": "address",
          "name": "_vault",
          "type": "address"
        },
        {
          "internalType": "address",
          "name": "_lpProvider",
          "type": "address"
        }
      ],
      "stateMutability": "nonpayable",
      "type": "constructor"
    },
    {
      "inputs": [],
      "name": "CalldataMustHaveValidPayload",
      "type": "error"
    },
    {
      "inputs": [],
      "name": "CalldataOverOrUnderFlow",
      "type": "error"
    },
    {
      "inputs": [],
      "name": "CanNotPickMedianOfEmptyArray",
      "type": "error"
    },
    {
      "inputs": [],
      "name": "DataPackageTimestampMustNotBeZero",
      "type": "error"
    },
    {
      "inputs": [],
      "name": "DataPackageTimestampsMustBeEqual",
      "type": "error"
    },
    {
      "inputs": [],
      "name": "DataTimestampCannotBeZero",
      "type": "error"
    },
    {
      "inputs": [],
      "name": "EachSignerMustProvideTheSameValue",
      "type": "error"
    },
    {
      "inputs": [],
      "name": "EmptyCalldataPointersArr",
      "type": "error"
    },
    {
      "inputs": [],
      "name": "GetDataServiceIdNotImplemented",
      "type": "error"
    },
    {
      "inputs": [],
      "name": "IncorrectUnsignedMetadataSize",
      "type": "error"
    },
    {
      "inputs": [
        {
          "internalType": "uint256",
          "name": "receivedSignersCount",
          "type": "uint256"
        },
        {
          "internalType": "uint256",
          "name": "requiredSignersCount",
          "type": "uint256"
        }
      ],
      "name": "InsufficientNumberOfUniqueSigners",
      "type": "error"
    },
    {
      "inputs": [],
      "name": "InvalidCalldataPointer",
      "type": "error"
    },
    {
      "inputs": [],
      "name": "InvalidSchnorrSignature",
      "type": "error"
    },
    {
      "inputs": [],
      "name": "RedstonePayloadMustHaveAtLeastOneDataPackage",
      "type": "error"
    },
    {
      "inputs": [
        {
          "internalType": "address",
          "name": "receivedSigner",
          "type": "address"
        }
      ],
      "name": "SignerNotAuthorised",
      "type": "error"
    },
    {
      "inputs": [
        {
          "internalType": "uint256",
          "name": "receivedTimestampSeconds",
          "type": "uint256"
        },
        {
          "internalType": "uint256",
          "name": "blockTimestamp",
          "type": "uint256"
        }
      ],
      "name": "TimestampFromTooLongFuture",
      "type": "error"
    },
    {
      "inputs": [
        {
          "internalType": "uint256",
          "name": "receivedTimestampSeconds",
          "type": "uint256"
        },
        {
          "internalType": "uint256",
          "name": "blockTimestamp",
          "type": "uint256"
        }
      ],
      "name": "TimestampIsTooOld",
      "type": "error"
    },
    {
      "inputs": [],
      "name": "TimestampsMustBeEqual",
      "type": "error"
    },
    {
      "inputs": [
        {
          "internalType": "uint256",
          "name": "valueByteSize",
          "type": "uint256"
        }
      ],
      "name": "TooLargeValueByteSize",
      "type": "error"
    },
    {
      "anonymous": false,
      "inputs": [
        {
          "indexed": true,
          "internalType": "address",
          "name": "previousOwner",
          "type": "address"
        },
        {
          "indexed": true,
          "internalType": "address",
          "name": "newOwner",
          "type": "address"
        }
      ],
      "name": "OwnershipTransferred",
      "type": "event"
    },
    {
      "inputs": [
        {
          "internalType": "uint256[]",
          "name": "values",
          "type": "uint256[]"
        }
      ],
      "name": "aggregateValues",
      "outputs": [
        {
          "internalType": "uint256",
          "name": "",
          "type": "uint256"
        }
      ],
      "stateMutability": "view",
      "type": "function"
    },
    {
      "inputs": [
        {
          "internalType": "uint32",
          "name": "requestId",
          "type": "uint32"
        },
        {
          "components": [
            {
              "internalType": "string",
              "name": "positionId",
              "type": "string"
            },
            {
              "internalType": "bytes32[]",
              "name": "priceIds",
              "type": "bytes32[]"
            }
          ],
          "internalType": "struct Crypto.LiquidatedPosition[]",
          "name": "positions",
          "type": "tuple[]"
        }
      ],
      "name": "challengeLiquidatedPosition",
      "outputs": [],
      "stateMutability": "nonpayable",
      "type": "function"
    },
    {
      "inputs": [],
      "name": "extractTimestampsAndAssertAllAreEqual",
      "outputs": [
        {
          "internalType": "uint256",
          "name": "extractedTimestamp",
          "type": "uint256"
        }
      ],
      "stateMutability": "pure",
      "type": "function"
    },
    {
      "inputs": [
        {
          "internalType": "address",
          "name": "signerAddress",
          "type": "address"
        }
      ],
      "name": "getAuthorisedSignerIndex",
      "outputs": [
        {
          "internalType": "uint8",
          "name": "",
          "type": "uint8"
        }
      ],
      "stateMutability": "view",
      "type": "function"
    },
    {
      "inputs": [],
      "name": "getDataServiceId",
      "outputs": [
        {
          "internalType": "string",
          "name": "",
          "type": "string"
        }
      ],
      "stateMutability": "view",
      "type": "function"
    },
    {
      "inputs": [
        {
          "internalType": "bytes32",
          "name": "dataFeedId",
          "type": "bytes32"
        }
      ],
      "name": "getPrice",
      "outputs": [
        {
          "components": [
            {
              "internalType": "bytes32",
              "name": "id",
              "type": "bytes32"
            },
            {
              "internalType": "uint256",
              "name": "price",
              "type": "uint256"
            }
          ],
          "internalType": "struct IRedstoneOracle.PriceFeed",
          "name": "",
          "type": "tuple"
        }
      ],
      "stateMutability": "view",
      "type": "function"
    },
    {
      "inputs": [
        {
          "internalType": "bytes32[]",
          "name": "dataFeedIds",
          "type": "bytes32[]"
        }
      ],
      "name": "getPrices",
      "outputs": [
        {
          "components": [
            {
              "internalType": "bytes32",
              "name": "id",
              "type": "bytes32"
            },
            {
              "internalType": "uint256",
              "name": "price",
              "type": "uint256"
            }
          ],
          "internalType": "struct IRedstoneOracle.PriceFeed[]",
          "name": "",
          "type": "tuple[]"
        }
      ],
      "stateMutability": "view",
      "type": "function"
    },
    {
      "inputs": [],
      "name": "getUniqueSignersThreshold",
      "outputs": [
        {
          "internalType": "uint8",
          "name": "",
          "type": "uint8"
        }
      ],
      "stateMutability": "view",
      "type": "function"
    },
    {
      "inputs": [
        {
          "internalType": "address",
          "name": "user",
          "type": "address"
        },
        {
          "components": [
            {
              "internalType": "bytes",
              "name": "data",
              "type": "bytes"
            },
            {
              "internalType": "bytes",
              "name": "signature",
              "type": "bytes"
            },
            {
              "internalType": "address",
              "name": "combinedPublicKey",
              "type": "address"
            }
          ],
          "internalType": "struct Crypto.SchnorrSignature",
          "name": "_schnorr",
          "type": "tuple"
        }
      ],
      "name": "liquidatePartially",
      "outputs": [],
      "stateMutability": "nonpayable",
      "type": "function"
    },
    {
      "inputs": [],
      "name": "lpProvider",
      "outputs": [
        {
          "internalType": "address",
          "name": "",
          "type": "address"
        }
      ],
      "stateMutability": "view",
      "type": "function"
    },
    {
      "inputs": [],
      "name": "owner",
      "outputs": [
        {
          "internalType": "address",
          "name": "",
          "type": "address"
        }
      ],
      "stateMutability": "view",
      "type": "function"
    },
    {
      "inputs": [],
      "name": "renounceOwnership",
      "outputs": [],
      "stateMutability": "nonpayable",
      "type": "function"
    },
    {
      "inputs": [
        {
          "internalType": "address",
          "name": "_vault",
          "type": "address"
        }
      ],
      "name": "setVault",
      "outputs": [],
      "stateMutability": "nonpayable",
      "type": "function"
    },
    {
      "inputs": [
        {
          "internalType": "uint32",
          "name": "requestId",
          "type": "uint32"
        }
      ],
      "name": "settleDispute",
      "outputs": [],
      "stateMutability": "nonpayable",
      "type": "function"
    },
    {
      "inputs": [
        {
          "internalType": "address",
          "name": "newOwner",
          "type": "address"
        }
      ],
      "name": "transferOwnership",
      "outputs": [],
      "stateMutability": "nonpayable",
      "type": "function"
    },
    {
      "inputs": [
        {
          "internalType": "uint256",
          "name": "receivedTimestampMilliseconds",
          "type": "uint256"
        }
      ],
      "name": "validateTimestamp",
      "outputs": [],
      "stateMutability": "view",
      "type": "function"
    },
    {
      "inputs": [],
      "name": "vault",
      "outputs": [
        {
          "internalType": "contract IVault",
          "name": "",
          "type": "address"
        }
      ],
      "stateMutability": "view",
      "type": "function"
    }
  ],
  "bytecode": "0x60806040523480156200001157600080fd5b506040516200552c3803806200552c833981810160405281019062000037919062000217565b620000576200004b620000e160201b60201c565b620000e960201b60201c565b81600160006101000a81548173ffffffffffffffffffffffffffffffffffffffff021916908373ffffffffffffffffffffffffffffffffffffffff16021790555080600260006101000a81548173ffffffffffffffffffffffffffffffffffffffff021916908373ffffffffffffffffffffffffffffffffffffffff16021790555050506200025e565b600033905090565b60008060009054906101000a900473ffffffffffffffffffffffffffffffffffffffff169050816000806101000a81548173ffffffffffffffffffffffffffffffffffffffff021916908373ffffffffffffffffffffffffffffffffffffffff1602179055508173ffffffffffffffffffffffffffffffffffffffff168173ffffffffffffffffffffffffffffffffffffffff167f8be0079c531659141344cd1fd0a4f28419497f9722a3daafe3b4186f6b6457e060405160405180910390a35050565b600080fd5b600073ffffffffffffffffffffffffffffffffffffffff82169050919050565b6000620001df82620001b2565b9050919050565b620001f181620001d2565b8114620001fd57600080fd5b50565b6000815190506200021181620001e6565b92915050565b60008060408385031215620002315762000230620001ad565b5b6000620002418582860162000200565b9250506020620002548582860162000200565b9150509250929050565b6152be806200026e6000396000f3fe608060405234801561001057600080fd5b506004361061010b5760003560e01c80636817031b116100a2578063c274583a11610071578063c274583a146102a4578063f2fde38b146102c2578063f50b2efe146102de578063f90c4924146102fa578063fbfa77cf146103185761010b565b80636817031b14610230578063715018a61461024c5780638da5cb5b14610256578063b24ebfcc146102745761010b565b806331d98b3f116100de57806331d98b3f146101965780633ce142f5146101c657806346080f80146101f657806355a547d5146102125761010b565b80630d235817146101105780631c4196f61461012e57806326ee48361461014a57806327482c0f1461017a575b600080fd5b610118610336565b6040516101259190612ee4565b60405180910390f35b61014860048036038101906101439190613306565b61035c565b005b610164600480360381019061015f9190613362565b6104bf565b60405161017191906134b1565b60405180910390f35b610194600480360381019061018f91906134d3565b6105b2565b005b6101b060048036038101906101ab9190613500565b610f07565b6040516101bd919061355c565b60405180910390f35b6101e060048036038101906101db91906135a3565b610f33565b6040516101ed91906135ec565b60405180910390f35b610210600480360381019061020b919061362b565b610f3a565b005b61021a6117c5565b6040516102279190613696565b60405180910390f35b61024a600480360381019061024591906135a3565b611929565b005b610254611975565b005b61025e611989565b60405161026b9190612ee4565b60405180910390f35b61028e600480360381019061028991906137a0565b6119b2565b60405161029b9190613696565b60405180910390f35b6102ac6119c4565b6040516102b99190613868565b60405180910390f35b6102dc60048036038101906102d791906135a3565b611a01565b005b6102f860048036038101906102f3919061388a565b611a84565b005b610302611a90565b60405161030f91906135ec565b60405180910390f35b610320611a99565b60405161032d9190613916565b60405180910390f35b600260009054906101000a900473ffffffffffffffffffffffffffffffffffffffff1681565b600061036783611abf565b905080600001516103ad576040517f08c379a00000000000000000000000000000000000000000000000000000000081526004016103a49061397d565b60405180910390fd5b61070881602001516103bf91906139e0565b67ffffffffffffffff16421061040a576040517f08c379a000000000000000000000000000000000000000000000000000000000815260040161040190613a68565b60405180910390fd5b6000806104208360600151858560800151611d01565b91509150600160009054906101000a900473ffffffffffffffffffffffffffffffffffffffff1673ffffffffffffffffffffffffffffffffffffffff1663923fec2a86848551856040518563ffffffff1660e01b81526004016104869493929190613b61565b600060405180830381600087803b1580156104a057600080fd5b505af11580156104b4573d6000803e3d6000fd5b505050505050505050565b606060006104cc83611f00565b90506000815167ffffffffffffffff8111156104eb576104ea612f65565b5b60405190808252806020026020018201604052801561052457816020015b610511612dfb565b8152602001906001900390816105095790505b50905060005b84518110156105a757604051806040016040528086838151811061055157610550613bad565b5b6020026020010151815260200184838151811061057157610570613bad565b5b602002602001015181525082828151811061058f5761058e613bad565b5b6020026020010181905250808060010191505061052a565b508092505050919050565b6000806000600160009054906101000a900473ffffffffffffffffffffffffffffffffffffffff1673ffffffffffffffffffffffffffffffffffffffff1663e917bdcc856040518263ffffffff1660e01b81526004016106129190613bdc565b606060405180830381865afa15801561062f573d6000803e3d6000fd5b505050506040513d601f19601f820116820180604052508101906106539190613c64565b92509250925082610699576040517f08c379a00000000000000000000000000000000000000000000000000000000081526004016106909061397d565b60405180910390fd5b610708826106a791906139e0565b67ffffffffffffffff1642116106f2576040517f08c379a00000000000000000000000000000000000000000000000000000000081526004016106e990613d03565b60405180910390fd5b6000600160009054906101000a900473ffffffffffffffffffffffffffffffffffffffff1673ffffffffffffffffffffffffffffffffffffffff1663ed9facad866040518263ffffffff1660e01b815260040161074f9190613bdc565b600060405180830381865afa15801561076c573d6000803e3d6000fd5b505050506040513d6000823e3d601f19601f820116820180604052508101906107959190614123565b90506000600160009054906101000a900473ffffffffffffffffffffffffffffffffffffffff1673ffffffffffffffffffffffffffffffffffffffff1663c2dd56bc876040518263ffffffff1660e01b81526004016107f49190613bdc565b600060405180830381865afa158015610811573d6000803e3d6000fd5b505050506040513d6000823e3d601f19601f8201168201806040525081019061083a9190614293565b90506000815167ffffffffffffffff81111561085957610858612f65565b5b6040519080825280602002602001820160405280156108875781602001602082028036833780820191505090505b50905060005b82518110156108e1578281815181106108a9576108a8613bad565b5b6020026020010151604001518282815181106108c8576108c7613bad565b5b602002602001018181525050808060010191505061088d565b5060005b8351811015610c1957600084828151811061090357610902613bad565b5b6020026020010151606001510315610c0c57600061093e85838151811061092d5761092c613bad565b5b602002602001015160200151610f07565b9050600085838151811061095557610954613bad565b5b60200260200101516101000151826020015161097191906142e6565b905085838151811061098657610985613bad565b5b602002602001015160c001516109a357806109a090614329565b90505b60008684815181106109b8576109b7613bad565b5b602002602001015161010001518785815181106109d8576109d7613bad565b5b602002602001015160800151836109ef9190614371565b6109f99190614418565b6001610a059190614482565b90506000811215610a1857505050610c0c565b600081905060005b888681518110610a3357610a32613bad565b5b602002602001015160e0015151811015610c06576000610a8e8a8881518110610a5f57610a5e613bad565b5b602002602001015160e001518381518110610a7d57610a7c613bad565b5b602002602001015160000151610f07565b9050600081602001516018858d8b81518110610aad57610aac613bad565b5b602002602001015160e001518681518110610acb57610aca613bad565b5b602002602001015160400151610ae191906144c6565b610aeb9190614508565b610af591906144c6565b905060005b8a51811015610bb3578b8981518110610b1657610b15613bad565b5b60200260200101516040015173ffffffffffffffffffffffffffffffffffffffff168b8281518110610b4b57610b4a613bad565b5b60200260200101516020015173ffffffffffffffffffffffffffffffffffffffff1603610ba657818a8281518110610b8657610b85613bad565b5b60200260200101818151610b9a9190614539565b91508181525050610bb3565b8080600101915050610afa565b5060008b8981518110610bc957610bc8613bad565b5b602002602001015160e001518481518110610be757610be6613bad565b5b6020026020010151604001818152505050508080600101915050610a20565b50505050505b80806001019150506108e5565b506000825167ffffffffffffffff811115610c3757610c36612f65565b5b604051908082528060200260200182016040528015610c655781602001602082028036833780820191505090505b5090506000835167ffffffffffffffff811115610c8557610c84612f65565b5b604051908082528060200260200182016040528015610cb35781602001602082028036833780820191505090505b50905060005b8451811015610e68576000858281518110610cd757610cd6613bad565b5b60200260200101516020015190506000858381518110610cfa57610cf9613bad565b5b602002602001015190506000600160009054906101000a900473ffffffffffffffffffffffffffffffffffffffff1673ffffffffffffffffffffffffffffffffffffffff1663e0c32ec48b856040518363ffffffff1660e01b8152600401610d6392919061456d565b602060405180830381865afa158015610d80573d6000803e3d6000fd5b505050506040513d601f19601f82011682018060405250810190610da49190614596565b905080821115610e05578082610dba91906145c3565b868581518110610dcd57610dcc613bad565b5b6020026020010181815250506001858581518110610dee57610ded613bad565b5b602002602001019015159081151581525050610e58565b8181610e1191906145c3565b868581518110610e2457610e23613bad565b5b6020026020010181815250506000858581518110610e4557610e44613bad565b5b6020026020010190151590811515815250505b5050508080600101915050610cb9565b50600160009054906101000a900473ffffffffffffffffffffffffffffffffffffffff1673ffffffffffffffffffffffffffffffffffffffff1663bf1e9ef58a8585856040518563ffffffff1660e01b8152600401610eca94939291906146b5565b600060405180830381600087803b158015610ee457600080fd5b505af1158015610ef8573d6000803e3d6000fd5b50505050505050505050505050565b610f0f612dfb565b6040518060400160405280838152602001610f2984611f25565b8152509050919050565b6000919050565b600073__$50e9592bd68e5211c3a496048a4809ad3a$__6306d02c88836040518263ffffffff1660e01b8152600401610f739190614858565b600060405180830381865af4158015610f90573d6000803e3d6000fd5b505050506040513d6000823e3d601f19601f82011682018060405250810190610fb99190614997565b90508273ffffffffffffffffffffffffffffffffffffffff16816020015173ffffffffffffffffffffffffffffffffffffffff1614611024576040517ff08f7bd800000000000000000000000000000000000000000000000000000000815260040160405180910390fd5b73__$50e9592bd68e5211c3a496048a4809ad3a$__63bc018c4083600160009054906101000a900473ffffffffffffffffffffffffffffffffffffffff1673ffffffffffffffffffffffffffffffffffffffff1663e41cff6485602001516040518263ffffffff1660e01b815260040161109e9190612ee4565b602060405180830381865afa1580156110bb573d6000803e3d6000fd5b505050506040513d601f19601f820116820180604052508101906110df91906149e0565b6040518363ffffffff1660e01b81526004016110fc929190614a1c565b602060405180830381865af4158015611119573d6000803e3d6000fd5b505050506040513d601f19601f8201168201806040525081019061113d9190614a4c565b611173576040517ff08f7bd800000000000000000000000000000000000000000000000000000000815260040160405180910390fd5b6000816040015151905060008167ffffffffffffffff81111561119957611198612f65565b5b6040519080825280602002602001820160405280156111d257816020015b6111bf612e18565b8152602001906001900390816111b75790505b50905060005b828110156112815760405180606001604052808560400151838151811061120257611201613bad565b5b60200260200101516000015181526020018560400151838151811061122a57611229613bad565b5b60200260200101516020015173ffffffffffffffffffffffffffffffffffffffff168152602001600081525082828151811061126957611268613bad565b5b602002602001018190525080806001019150506111d8565b5060005b828110156113815760005b8251811015611373578281815181106112ac576112ab613bad565b5b60200260200101516020015173ffffffffffffffffffffffffffffffffffffffff16856040015183815181106112e5576112e4613bad565b5b60200260200101516020015173ffffffffffffffffffffffffffffffffffffffff1603611366578460400151828151811061132357611322613bad565b5b60200260200101516040015183828151811061134257611341613bad565b5b602002602001015160400181815161135a9190614539565b91508181525050611373565b8080600101915050611290565b508080600101915050611285565b506000836060015151905060005b818110156114cd5760005b856060015182815181106113b1576113b0613bad565b5b602002602001015160e00151518110156114bf576000866060015183815181106113de576113dd613bad565b5b602002602001015160e0015182815181106113fc576113fb613bad565b5b6020026020010151905060005b85518110156114b05785818151811061142557611424613bad565b5b60200260200101516020015173ffffffffffffffffffffffffffffffffffffffff16826020015173ffffffffffffffffffffffffffffffffffffffff16036114a357816040015186828151811061147f5761147e613bad565b5b60200260200101516040018181516114979190614539565b915081815250506114b0565b8080600101915050611409565b5050808060010191505061139a565b50808060010191505061138f565b5060008367ffffffffffffffff8111156114ea576114e9612f65565b5b6040519080825280602002602001820160405280156115185781602001602082028036833780820191505090505b50905060008467ffffffffffffffff81111561153757611536612f65565b5b6040519080825280602002602001820160405280156115655781602001602082028036833780820191505090505b5090506000805b868110156117225760008860400151828151811061158d5761158c613bad565b5b60200260200101516020015190506000600160009054906101000a900473ffffffffffffffffffffffffffffffffffffffff1673ffffffffffffffffffffffffffffffffffffffff1663e0c32ec48b60200151846040518363ffffffff1660e01b81526004016115fe92919061456d565b602060405180830381865afa15801561161b573d6000803e3d6000fd5b505050506040513d601f19601f8201168201806040525081019061163f9190614596565b9050600088848151811061165657611655613bad565b5b6020026020010151604001518211156117125788848151811061167c5761167b613bad565b5b6020026020010151604001518261169391906145c3565b9050828786815181106116a9576116a8613bad565b5b602002602001019073ffffffffffffffffffffffffffffffffffffffff16908173ffffffffffffffffffffffffffffffffffffffff1681525050808686815181106116f7576116f6613bad565b5b602002602001018181525050848061170e90614a79565b9550505b505050808060010191505061156c565b50600160009054906101000a900473ffffffffffffffffffffffffffffffffffffffff1673ffffffffffffffffffffffffffffffffffffffff16638a7be80b88602001518585856040518563ffffffff1660e01b81526004016117889493929190614b7f565b600060405180830381600087803b1580156117a257600080fd5b505af11580156117b6573d6000803e3d6000fd5b50505050505050505050505050565b6000806117d0611fc1565b905060006117dd826120d2565b8161ffff169150809350819250505060008103611826576040517f8552ff3c00000000000000000000000000000000000000000000000000000000815260040160405180910390fd5b60005b8181101561192357600061183c84612142565b905060008060688661184e9190614539565b9050600081600036905061186291906145c3565b90508035925060008365ffffffffffff16036118aa576040517f336dc9d000000000000000000000000000000000000000000000000000000000815260040160405180910390fd5b600088036118c2578265ffffffffffff169750611904565b878365ffffffffffff1614611903576040517fd9d1f46500000000000000000000000000000000000000000000000000000000815260040160405180910390fd5b5b83876119109190614539565b9650505050508080600101915050611829565b50505090565b611931612181565b80600160006101000a81548173ffffffffffffffffffffffffffffffffffffffff021916908373ffffffffffffffffffffffffffffffffffffffff16021790555050565b61197d612181565b61198760006121ff565b565b60008060009054906101000a900473ffffffffffffffffffffffffffffffffffffffff16905090565b60006119bd826122c3565b9050919050565b60606040518060400160405280601581526020017f72656473746f6e652d7072696d6172792d70726f640000000000000000000000815250905090565b611a09612181565b600073ffffffffffffffffffffffffffffffffffffffff168173ffffffffffffffffffffffffffffffffffffffff1603611a78576040517f08c379a0000000000000000000000000000000000000000000000000000000008152600401611a6f90614c44565b60405180910390fd5b611a81816121ff565b50565b611a8d816122d5565b50565b60006003905090565b600160009054906101000a900473ffffffffffffffffffffffffffffffffffffffff1681565b611ac7612e52565b6000806000600160009054906101000a900473ffffffffffffffffffffffffffffffffffffffff1673ffffffffffffffffffffffffffffffffffffffff1663e917bdcc866040518263ffffffff1660e01b8152600401611b279190613bdc565b606060405180830381865afa158015611b44573d6000803e3d6000fd5b505050506040513d601f19601f82011682018060405250810190611b689190613c64565b9250925092506040518060a0016040528084151581526020018367ffffffffffffffff1681526020018273ffffffffffffffffffffffffffffffffffffffff168152602001600160009054906101000a900473ffffffffffffffffffffffffffffffffffffffff1673ffffffffffffffffffffffffffffffffffffffff1663ed9facad886040518263ffffffff1660e01b8152600401611c089190613bdc565b600060405180830381865afa158015611c25573d6000803e3d6000fd5b505050506040513d6000823e3d601f19601f82011682018060405250810190611c4e9190614123565b8152602001600160009054906101000a900473ffffffffffffffffffffffffffffffffffffffff1673ffffffffffffffffffffffffffffffffffffffff1663c2dd56bc886040518263ffffffff1660e01b8152600401611cae9190613bdc565b600060405180830381865afa158015611ccb573d6000803e3d6000fd5b505050506040513d6000823e3d601f19601f82011682018060405250810190611cf49190614293565b8152509350505050919050565b6060600080855167ffffffffffffffff811115611d2157611d20612f65565b5b604051908082528060200260200182016040528015611d4f5781602001602082028036833780820191505090505b50905060008060005b8851811015611eeb576001898281518110611d7657611d75613bad565b5b6020026020010151608001510315611ede5760005b8851811015611edc57888181518110611da757611da6613bad565b5b602002602001015160000151805190602001208a8381518110611dcd57611dcc613bad565b5b6020026020010151600001518051906020012003611ecf57611e248a8381518110611dfb57611dfa613bad565b5b60200260200101518a8381518110611e1657611e15613bad565b5b60200260200101518a61239f565b15611ece5781858580611e3690614a79565b965081518110611e4957611e48613bad565b5b602002602001018181525050604051602001611e6490614cbb565b604051602081830303815290604052805190602001208a8381518110611e8d57611e8c613bad565b5b602002602001015160a00151604051602001611ea99190614d01565b6040516020818303038152906040528051906020012003611ec957600192505b611edc565b5b8080600101915050611d8b565b505b8080600101915050611d58565b50818352828194509450505050935093915050565b6060600080611f0e84612437565b91509150611f1b81611a84565b8192505050919050565b600080600167ffffffffffffffff811115611f4357611f42612f65565b5b604051908082528060200260200182016040528015611f715781602001602082028036833780820191505090505b5090508281600081518110611f8957611f88613bad565b5b602002602001018181525050611f9e81611f00565b600081518110611fb157611fb0613bad565b5b6020026020010151915050919050565b60008060203603356602ed57011e000081166602ed57011e00001491505080612016576040517fe7764c9e00000000000000000000000000000000000000000000000000000000815260040160405180910390fd5b60008036905060291115612056576040517f5796f78a00000000000000000000000000000000000000000000000000000000815260040160405180910390fd5b602936033590506000600960038362ffffff166120739190614539565b61207d9190614539565b905060003690506002826120919190614539565b11156120c9576040517fc30a7bd700000000000000000000000000000000000000000000000000000000815260040160405180910390fd5b80935050505090565b60008060006020846120e49190614539565b90506000369050811115612124576040517f5796f78a00000000000000000000000000000000000000000000000000000000815260040160405180910390fd5b803603359250826002856121389190614539565b9250925050915091565b6000806000612150846126b2565b91509150604e8160206121639190614539565b8361216e91906144c6565b6121789190614539565b92505050919050565b612189612714565b73ffffffffffffffffffffffffffffffffffffffff166121a7611989565b73ffffffffffffffffffffffffffffffffffffffff16146121fd576040517f08c379a00000000000000000000000000000000000000000000000000000000081526004016121f490614d64565b60405180910390fd5b565b60008060009054906101000a900473ffffffffffffffffffffffffffffffffffffffff169050816000806101000a81548173ffffffffffffffffffffffffffffffffffffffff021916908373ffffffffffffffffffffffffffffffffffffffff1602179055508173ffffffffffffffffffffffffffffffffffffffff168173ffffffffffffffffffffffffffffffffffffffff167f8be0079c531659141344cd1fd0a4f28419497f9722a3daafe3b4186f6b6457e060405160405180910390a35050565b60006122ce8261271c565b9050919050565b60006103e8826122e59190614508565b90508042101561234757603c42826122fd91906145c3565b11156123425780426040517fb6b0916d000000000000000000000000000000000000000000000000000000008152600401612339929190614d84565b60405180910390fd5b61239b565b60b4814261235591906145c3565b111561239a5780426040517f0321d0b5000000000000000000000000000000000000000000000000000000008152600401612391929190614d84565b60405180910390fd5b5b5050565b6000806123af84602001516104bf565b905073__$ed7edcf5897336b7ef9a2feda8ea09bc03$__6395f5d1578683866040518463ffffffff1660e01b81526004016123ec939291906151b7565b602060405180830381865af4158015612409573d6000803e3d6000fd5b505050506040513d601f19601f8201168201806040525081019061242d9190614a4c565b9150509392505050565b6060600080835167ffffffffffffffff81111561245757612456612f65565b5b6040519080825280602002602001820160405280156124855781602001602082028036833780820191505090505b5090506000845167ffffffffffffffff8111156124a5576124a4612f65565b5b6040519080825280602002602001820160405280156124d35781602001602082028036833780820191505090505b5090506000855167ffffffffffffffff8111156124f3576124f2612f65565b5b60405190808252806020026020018201604052801561252657816020015b60608152602001906001900390816125115790505b50905060005b86518110156125b35761253d611a90565b60ff1667ffffffffffffffff81111561255957612558612f65565b5b6040519080825280602002602001820160405280156125875781602001602082028036833780820191505090505b5082828151811061259b5761259a613bad565b5b6020026020010181905250808060010191505061252c565b5060006125be611fc1565b905060006125cb826120d2565b8161ffff16915080935081925050506000604051905060005b8281101561269a5760006125fb8b89898989612871565b80925081965050506000810361263d576040517fdfb25a7900000000000000000000000000000000000000000000000000000000815260040160405180910390fd5b88811415801561264e575060008914155b15612685576040517f4cbc474200000000000000000000000000000000000000000000000000000000815260040160405180910390fd5b809850826040528180600101925050506125e4565b506126a58487612b3d565b9750505050505050915091565b600080600080600060206041876126c99190614539565b6126d39190614539565b60003690506126e291906145c3565b9050803592506003816126f591906145c3565b9050803591508262ffffff1694508163ffffffff169350505050915091565b600033905090565b6000600282510361277c5760028260018151811061273d5761273c613bad565b5b60200260200101518360008151811061275957612758613bad565b5b602002602001015161276b9190614539565b6127759190614508565b905061286c565b60008251036127b7576040517f9e198af900000000000000000000000000000000000000000000000000000000815260040160405180910390fd5b6127c082612c84565b6000600283516127d09190614508565b90506000600284516127e29190615203565b0361284d5760008382815181106127fc576127fb613bad565b5b60200260200101518460018461281291906145c3565b8151811061282357612822613bad565b5b60200260200101516128359190614539565b90506002816128449190614508565b9250505061286c565b8281815181106128605761285f613bad565b5b60200260200101519150505b919050565b6000806000806000612882866126b2565b915091506000806060600080600d60208761289d9190614539565b886128a891906144c6565b6128b29190614539565b9150600060688c6128c39190614539565b60003690506128d291906145c3565b905060008360418e6128e49190614539565b6128ee9190614539565b60003690506128fd91906145c3565b90506129098482612937565b9450836020860120955081359250612953565b60006040519050818152602081019050818101604052919050565b60006129428361291c565b838382376020810391505092915050565b8265ffffffffffff169a506129748660418f61296f9190614539565b612cd7565b965061297f87610f33565b60ff16995050505050505050604e866129989190614539565b955060008060005b84811015612b2a576020848a6129b69190614539565b6129c09190614539565b98506129cc8985612d56565b809350819450505060005b8d51811015612b1c578d81815181106129f3576129f2613bad565b5b60200260200101518403612b0f5760008c8281518110612a1657612a15613bad565b5b60200260200101519050612a2a8189612dd1565b158015612a5a5750612a3a611a90565b60ff168e8381518110612a5057612a4f613bad565b5b6020026020010151105b15612b0957838c8381518110612a7357612a72613bad565b5b60200260200101518f8481518110612a8e57612a8d613bad565b5b602002602001015181518110612aa757612aa6613bad565b5b6020026020010181815250508d8281518110612ac657612ac5613bad565b5b602002602001018051809190612adb90614a79565b81525050612ae98189612dea565b8d8381518110612afc57612afb613bad565b5b6020026020010181815250505b50612b1c565b80806001019150506129d7565b5080806001019150506129a0565b5050508594505050509550959350505050565b60606000835167ffffffffffffffff811115612b5c57612b5b612f65565b5b604051908082528060200260200182016040528015612b8a5781602001602082028036833780820191505090505b5090506000612b97611a90565b60ff16905060005b8551811015612c785781858281518110612bbc57612bbb613bad565b5b60200260200101511015612c2357848181518110612bdd57612bdc613bad565b5b6020026020010151826040517f2b13aef5000000000000000000000000000000000000000000000000000000008152600401612c1a929190614d84565b60405180910390fd5b6000612c48878381518110612c3b57612c3a613bad565b5b60200260200101516119b2565b905080848381518110612c5e57612c5d613bad565b5b602002602001018181525050508080600101915050612b9f565b50819250505092915050565b805160208201602082028101815b81811015612cd057825b81811015612cc4578151815180821015612cb7578084528183525b5050602081019050612c9c565b50602081019050612c92565b5050505050565b6000806000808436038035935060208101905080359250602081019050803560001a91505060018682858560405160008152602001604052604051612d1f9493929190615243565b6020604051602081039080840390855afa158015612d41573d6000803e3d6000fd5b50505060206040510351935050505092915050565b6000806000846000369050612d6b91906145c3565b9050803592506020810135915060218410612dbd57836040517fc000fc42000000000000000000000000000000000000000000000000000000008152600401612db49190613696565b60405180910390fd5b6008846020030282901c9150509250929050565b600080826001901b841690506000811191505092915050565b6000816001901b8317905092915050565b604051806040016040528060008019168152602001600081525090565b604051806060016040528060008019168152602001600073ffffffffffffffffffffffffffffffffffffffff168152602001600081525090565b6040518060a00160405280600015158152602001600067ffffffffffffffff168152602001600073ffffffffffffffffffffffffffffffffffffffff16815260200160608152602001606081525090565b600073ffffffffffffffffffffffffffffffffffffffff82169050919050565b6000612ece82612ea3565b9050919050565b612ede81612ec3565b82525050565b6000602082019050612ef96000830184612ed5565b92915050565b6000604051905090565b600080fd5b600080fd5b600063ffffffff82169050919050565b612f2c81612f13565b8114612f3757600080fd5b50565b600081359050612f4981612f23565b92915050565b600080fd5b6000601f19601f8301169050919050565b7f4e487b7100000000000000000000000000000000000000000000000000000000600052604160045260246000fd5b612f9d82612f54565b810181811067ffffffffffffffff82111715612fbc57612fbb612f65565b5b80604052505050565b6000612fcf612eff565b9050612fdb8282612f94565b919050565b600067ffffffffffffffff821115612ffb57612ffa612f65565b5b602082029050602081019050919050565b600080fd5b600080fd5b600080fd5b600080fd5b600067ffffffffffffffff82111561303b5761303a612f65565b5b61304482612f54565b9050602081019050919050565b82818337600083830152505050565b600061307361306e84613020565b612fc5565b90508281526020810184848401111561308f5761308e61301b565b5b61309a848285613051565b509392505050565b600082601f8301126130b7576130b6612f4f565b5b81356130c7848260208601613060565b91505092915050565b600067ffffffffffffffff8211156130eb576130ea612f65565b5b602082029050602081019050919050565b6000819050919050565b61310f816130fc565b811461311a57600080fd5b50565b60008135905061312c81613106565b92915050565b6000613145613140846130d0565b612fc5565b905080838252602082019050602084028301858111156131685761316761300c565b5b835b81811015613191578061317d888261311d565b84526020840193505060208101905061316a565b5050509392505050565b600082601f8301126131b0576131af612f4f565b5b81356131c0848260208601613132565b91505092915050565b6000604082840312156131df576131de613011565b5b6131e96040612fc5565b9050600082013567ffffffffffffffff81111561320957613208613016565b5b613215848285016130a2565b600083015250602082013567ffffffffffffffff81111561323957613238613016565b5b6132458482850161319b565b60208301525092915050565b600061326461325f84612fe0565b612fc5565b905080838252602082019050602084028301858111156132875761328661300c565b5b835b818110156132ce57803567ffffffffffffffff8111156132ac576132ab612f4f565b5b8086016132b989826131c9565b85526020850194505050602081019050613289565b5050509392505050565b600082601f8301126132ed576132ec612f4f565b5b81356132fd848260208601613251565b91505092915050565b6000806040838503121561331d5761331c612f09565b5b600061332b85828601612f3a565b925050602083013567ffffffffffffffff81111561334c5761334b612f0e565b5b613358858286016132d8565b9150509250929050565b60006020828403121561337857613377612f09565b5b600082013567ffffffffffffffff81111561339657613395612f0e565b5b6133a28482850161319b565b91505092915050565b600081519050919050565b600082825260208201905092915050565b6000819050602082019050919050565b6133e0816130fc565b82525050565b6000819050919050565b6133f9816133e6565b82525050565b60408201600082015161341560008501826133d7565b50602082015161342860208501826133f0565b50505050565b600061343a83836133ff565b60408301905092915050565b6000602082019050919050565b600061345e826133ab565b61346881856133b6565b9350613473836133c7565b8060005b838110156134a457815161348b888261342e565b975061349683613446565b925050600181019050613477565b5085935050505092915050565b600060208201905081810360008301526134cb8184613453565b905092915050565b6000602082840312156134e9576134e8612f09565b5b60006134f784828501612f3a565b91505092915050565b60006020828403121561351657613515612f09565b5b60006135248482850161311d565b91505092915050565b60408201600082015161354360008501826133d7565b50602082015161355660208501826133f0565b50505050565b6000604082019050613571600083018461352d565b92915050565b61358081612ec3565b811461358b57600080fd5b50565b60008135905061359d81613577565b92915050565b6000602082840312156135b9576135b8612f09565b5b60006135c78482850161358e565b91505092915050565b600060ff82169050919050565b6135e6816135d0565b82525050565b600060208201905061360160008301846135dd565b92915050565b600080fd5b60006060828403121561362257613621613607565b5b81905092915050565b6000806040838503121561364257613641612f09565b5b60006136508582860161358e565b925050602083013567ffffffffffffffff81111561367157613670612f0e565b5b61367d8582860161360c565b9150509250929050565b613690816133e6565b82525050565b60006020820190506136ab6000830184613687565b92915050565b600067ffffffffffffffff8211156136cc576136cb612f65565b5b602082029050602081019050919050565b6136e6816133e6565b81146136f157600080fd5b50565b600081359050613703816136dd565b92915050565b600061371c613717846136b1565b612fc5565b9050808382526020820190506020840283018581111561373f5761373e61300c565b5b835b81811015613768578061375488826136f4565b845260208401935050602081019050613741565b5050509392505050565b600082601f83011261378757613786612f4f565b5b8135613797848260208601613709565b91505092915050565b6000602082840312156137b6576137b5612f09565b5b600082013567ffffffffffffffff8111156137d4576137d3612f0e565b5b6137e084828501613772565b91505092915050565b600081519050919050565b600082825260208201905092915050565b60005b83811015613823578082015181840152602081019050613808565b60008484015250505050565b600061383a826137e9565b61384481856137f4565b9350613854818560208601613805565b61385d81612f54565b840191505092915050565b60006020820190508181036000830152613882818461382f565b905092915050565b6000602082840312156138a05761389f612f09565b5b60006138ae848285016136f4565b91505092915050565b6000819050919050565b60006138dc6138d76138d284612ea3565b6138b7565b612ea3565b9050919050565b60006138ee826138c1565b9050919050565b6000613900826138e3565b9050919050565b613910816138f5565b82525050565b600060208201905061392b6000830184613907565b92915050565b7f496e76616c696420646973707574652073746174757300000000000000000000600082015250565b60006139676016836137f4565b915061397282613931565b602082019050919050565b600060208201905081810360008301526139968161395a565b9050919050565b600067ffffffffffffffff82169050919050565b7f4e487b7100000000000000000000000000000000000000000000000000000000600052601160045260246000fd5b60006139eb8261399d565b91506139f68361399d565b9250828201905067ffffffffffffffff811115613a1657613a156139b1565b5b92915050565b7f446973707574652077696e646f7720636c6f7365640000000000000000000000600082015250565b6000613a526015836137f4565b9150613a5d82613a1c565b602082019050919050565b60006020820190508181036000830152613a8181613a45565b9050919050565b613a9181612f13565b82525050565b600081519050919050565b600082825260208201905092915050565b6000819050602082019050919050565b6000613acf83836133f0565b60208301905092915050565b6000602082019050919050565b6000613af382613a97565b613afd8185613aa2565b9350613b0883613ab3565b8060005b83811015613b39578151613b208882613ac3565b9750613b2b83613adb565b925050600181019050613b0c565b5085935050505092915050565b60008115159050919050565b613b5b81613b46565b82525050565b6000608082019050613b766000830187613a88565b8181036020830152613b888186613ae8565b9050613b976040830185613687565b613ba46060830184613b52565b95945050505050565b7f4e487b7100000000000000000000000000000000000000000000000000000000600052603260045260246000fd5b6000602082019050613bf16000830184613a88565b92915050565b613c0081613b46565b8114613c0b57600080fd5b50565b600081519050613c1d81613bf7565b92915050565b613c2c8161399d565b8114613c3757600080fd5b50565b600081519050613c4981613c23565b92915050565b600081519050613c5e81613577565b92915050565b600080600060608486031215613c7d57613c7c612f09565b5b6000613c8b86828701613c0e565b9350506020613c9c86828701613c3a565b9250506040613cad86828701613c4f565b9150509250925092565b7f446973707574652077696e646f77206e6f7420636c6f73656400000000000000600082015250565b6000613ced6019836137f4565b9150613cf882613cb7565b602082019050919050565b60006020820190508181036000830152613d1c81613ce0565b9050919050565b600067ffffffffffffffff821115613d3e57613d3d612f65565b5b602082029050602081019050919050565b6000613d62613d5d84613020565b612fc5565b905082815260208101848484011115613d7e57613d7d61301b565b5b613d89848285613805565b509392505050565b600082601f830112613da657613da5612f4f565b5b8151613db6848260208601613d4f565b91505092915050565b600081519050613dce81613106565b92915050565b600081519050613de3816136dd565b92915050565b600067ffffffffffffffff821115613e0457613e03612f65565b5b602082029050602081019050919050565b600060808284031215613e2b57613e2a613011565b5b613e356080612fc5565b90506000613e4584828501613dbf565b6000830152506020613e5984828501613c4f565b6020830152506040613e6d84828501613dd4565b6040830152506060613e8184828501613dd4565b60608301525092915050565b6000613ea0613e9b84613de9565b612fc5565b90508083825260208201905060808402830185811115613ec357613ec261300c565b5b835b81811015613eec5780613ed88882613e15565b845260208401935050608081019050613ec5565b5050509392505050565b600082601f830112613f0b57613f0a612f4f565b5b8151613f1b848260208601613e8d565b91505092915050565b60006101408284031215613f3b57613f3a613011565b5b613f46610140612fc5565b9050600082015167ffffffffffffffff811115613f6657613f65613016565b5b613f7284828501613d91565b6000830152506020613f8684828501613dbf565b6020830152506040613f9a84828501613c4f565b6040830152506060613fae84828501613dd4565b6060830152506080613fc284828501613dd4565b60808301525060a082015167ffffffffffffffff811115613fe657613fe5613016565b5b613ff284828501613d91565b60a08301525060c061400684828501613c0e565b60c08301525060e082015167ffffffffffffffff81111561402a57614029613016565b5b61403684828501613ef6565b60e08301525061010061404b84828501613dd4565b6101008301525061012061406184828501613dd4565b6101208301525092915050565b600061408161407c84613d23565b612fc5565b905080838252602082019050602084028301858111156140a4576140a361300c565b5b835b818110156140eb57805167ffffffffffffffff8111156140c9576140c8612f4f565b5b8086016140d68982613f24565b855260208501945050506020810190506140a6565b5050509392505050565b600082601f83011261410a57614109612f4f565b5b815161411a84826020860161406e565b91505092915050565b60006020828403121561413957614138612f09565b5b600082015167ffffffffffffffff81111561415757614156612f0e565b5b614163848285016140f5565b91505092915050565b600067ffffffffffffffff82111561418757614186612f65565b5b602082029050602081019050919050565b6000606082840312156141ae576141ad613011565b5b6141b86060612fc5565b905060006141c884828501613dbf565b60008301525060206141dc84828501613c4f565b60208301525060406141f084828501613dd4565b60408301525092915050565b600061420f61420a8461416c565b612fc5565b905080838252602082019050606084028301858111156142325761423161300c565b5b835b8181101561425b57806142478882614198565b845260208401935050606081019050614234565b5050509392505050565b600082601f83011261427a57614279612f4f565b5b815161428a8482602086016141fc565b91505092915050565b6000602082840312156142a9576142a8612f09565b5b600082015167ffffffffffffffff8111156142c7576142c6612f0e565b5b6142d384828501614265565b91505092915050565b6000819050919050565b60006142f1826142dc565b91506142fc836142dc565b9250828203905081811260008412168282136000851215161715614323576143226139b1565b5b92915050565b6000614334826142dc565b91507f80000000000000000000000000000000000000000000000000000000000000008203614366576143656139b1565b5b816000039050919050565b600061437c826142dc565b9150614387836142dc565b9250828202614395816142dc565b91507f800000000000000000000000000000000000000000000000000000000000000084146000841216156143cd576143cc6139b1565b5b82820584148315176143e2576143e16139b1565b5b5092915050565b7f4e487b7100000000000000000000000000000000000000000000000000000000600052601260045260246000fd5b6000614423826142dc565b915061442e836142dc565b92508261443e5761443d6143e9565b5b600160000383147f800000000000000000000000000000000000000000000000000000000000000083141615614477576144766139b1565b5b828205905092915050565b600061448d826142dc565b9150614498836142dc565b9250828201905082811215600083121683821260008412151617156144c0576144bf6139b1565b5b92915050565b60006144d1826133e6565b91506144dc836133e6565b92508282026144ea816133e6565b91508282048414831517614501576145006139b1565b5b5092915050565b6000614513826133e6565b915061451e836133e6565b92508261452e5761452d6143e9565b5b828204905092915050565b6000614544826133e6565b915061454f836133e6565b9250828201905080821115614567576145666139b1565b5b92915050565b60006040820190506145826000830185612ed5565b61458f6020830184612ed5565b9392505050565b6000602082840312156145ac576145ab612f09565b5b60006145ba84828501613dd4565b91505092915050565b60006145ce826133e6565b91506145d9836133e6565b92508282039050818111156145f1576145f06139b1565b5b92915050565b600081519050919050565b600082825260208201905092915050565b6000819050602082019050919050565b61462c81613b46565b82525050565b600061463e8383614623565b60208301905092915050565b6000602082019050919050565b6000614662826145f7565b61466c8185614602565b935061467783614613565b8060005b838110156146a857815161468f8882614632565b975061469a8361464a565b92505060018101905061467b565b5085935050505092915050565b60006080820190506146ca6000830187613a88565b81810360208301526146dc8186613ae8565b905081810360408301526146f08185613ae8565b905081810360608301526147048184614657565b905095945050505050565b600080fd5b600080fd5b600080fd5b6000808335600160200384360303811261473b5761473a614719565b5b83810192508235915060208301925067ffffffffffffffff8211156147635761476261470f565b5b60018202360383131561477957614778614714565b5b509250929050565b600082825260208201905092915050565b600061479e8385614781565b93506147ab838584613051565b6147b483612f54565b840190509392505050565b60006147ce602084018461358e565b905092915050565b6147df81612ec3565b82525050565b6000606083016147f8600084018461471e565b858303600087015261480b838284614792565b9250505061481c602084018461471e565b858303602087015261482f838284614792565b9250505061484060408401846147bf565b61484d60408601826147d6565b508091505092915050565b6000602082019050818103600083015261487281846147e5565b905092915050565b60008151905061488981612f23565b92915050565b600060e082840312156148a5576148a4613011565b5b6148af60e0612fc5565b905060006148bf8482850161487a565b60008301525060206148d384828501613c4f565b602083015250604082015167ffffffffffffffff8111156148f7576148f6613016565b5b61490384828501614265565b604083015250606082015167ffffffffffffffff81111561492757614926613016565b5b614933848285016140f5565b606083015250608082015167ffffffffffffffff81111561495757614956613016565b5b61496384828501613d91565b60808301525060a061497784828501613dd4565b60a08301525060c061498b84828501613dd4565b60c08301525092915050565b6000602082840312156149ad576149ac612f09565b5b600082015167ffffffffffffffff8111156149cb576149ca612f0e565b5b6149d78482850161488f565b91505092915050565b6000602082840312156149f6576149f5612f09565b5b6000614a0484828501613c4f565b91505092915050565b614a1681612ec3565b82525050565b60006040820190508181036000830152614a3681856147e5565b9050614a456020830184614a0d565b9392505050565b600060208284031215614a6257614a61612f09565b5b6000614a7084828501613c0e565b91505092915050565b6000614a84826133e6565b91507fffffffffffffffffffffffffffffffffffffffffffffffffffffffffffffffff8203614ab657614ab56139b1565b5b600182019050919050565b600081519050919050565b600082825260208201905092915050565b6000819050602082019050919050565b614af681612ec3565b82525050565b6000614b088383614aed565b60208301905092915050565b6000602082019050919050565b6000614b2c82614ac1565b614b368185614acc565b9350614b4183614add565b8060005b83811015614b72578151614b598882614afc565b9750614b6483614b14565b925050600181019050614b45565b5085935050505092915050565b6000608082019050614b946000830187612ed5565b8181036020830152614ba68186614b21565b90508181036040830152614bba8185613ae8565b9050614bc96060830184613687565b95945050505050565b7f4f776e61626c653a206e6577206f776e657220697320746865207a65726f206160008201527f6464726573730000000000000000000000000000000000000000000000000000602082015250565b6000614c2e6026836137f4565b9150614c3982614bd2565b604082019050919050565b60006020820190508181036000830152614c5d81614c21565b9050919050565b600081905092915050565b7f63726f7373000000000000000000000000000000000000000000000000000000600082015250565b6000614ca5600583614c64565b9150614cb082614c6f565b600582019050919050565b6000614cc682614c98565b9150819050919050565b6000614cdb826137e9565b614ce58185614c64565b9350614cf5818560208601613805565b80840191505092915050565b6000614d0d8284614cd0565b915081905092915050565b7f4f776e61626c653a2063616c6c6572206973206e6f7420746865206f776e6572600082015250565b6000614d4e6020836137f4565b9150614d5982614d18565b602082019050919050565b60006020820190508181036000830152614d7d81614d41565b9050919050565b6000604082019050614d996000830185613687565b614da66020830184613687565b9392505050565b600082825260208201905092915050565b6000614dc9826137e9565b614dd38185614dad565b9350614de3818560208601613805565b614dec81612f54565b840191505092915050565b614e00816130fc565b82525050565b614e0f816133e6565b82525050565b614e1e81613b46565b82525050565b600081519050919050565b600082825260208201905092915050565b6000819050602082019050919050565b608082016000820151614e666000850182614df7565b506020820151614e7960208501826147d6565b506040820151614e8c6040850182614e06565b506060820151614e9f6060850182614e06565b50505050565b6000614eb18383614e50565b60808301905092915050565b6000602082019050919050565b6000614ed582614e24565b614edf8185614e2f565b9350614eea83614e40565b8060005b83811015614f1b578151614f028882614ea5565b9750614f0d83614ebd565b925050600181019050614eee565b5085935050505092915050565b6000610140830160008301518482036000860152614f468282614dbe565b9150506020830151614f5b6020860182614df7565b506040830151614f6e60408601826147d6565b506060830151614f816060860182614e06565b506080830151614f946080860182614e06565b5060a083015184820360a0860152614fac8282614dbe565b91505060c0830151614fc160c0860182614e15565b5060e083015184820360e0860152614fd98282614eca565b915050610100830151614ff0610100860182614e06565b50610120830151615005610120860182614e06565b508091505092915050565b600082825260208201905092915050565b6040820160008201516150376000850182614df7565b50602082015161504a6020850182614e06565b50505050565b600061505c8383615021565b60408301905092915050565b6000615073826133ab565b61507d8185615010565b9350615088836133c7565b8060005b838110156150b95781516150a08882615050565b97506150ab83613446565b92505060018101905061508c565b5085935050505092915050565b600081519050919050565b600082825260208201905092915050565b6000819050602082019050919050565b6060820160008201516151086000850182614df7565b50602082015161511b60208501826147d6565b50604082015161512e6040850182614e06565b50505050565b600061514083836150f2565b60608301905092915050565b6000602082019050919050565b6000615164826150c6565b61516e81856150d1565b9350615179836150e2565b8060005b838110156151aa5781516151918882615134565b975061519c8361514c565b92505060018101905061517d565b5085935050505092915050565b600060608201905081810360008301526151d18186614f28565b905081810360208301526151e58185615068565b905081810360408301526151f98184615159565b9050949350505050565b600061520e826133e6565b9150615219836133e6565b925082615229576152286143e9565b5b828206905092915050565b61523d816130fc565b82525050565b60006080820190506152586000830187615234565b61526560208301866135dd565b6152726040830185615234565b61527f6060830184615234565b9594505050505056fea2646970667358221220987141744d6ec29aa578201844d652f50a4d2d6cc6069c2cc9527792d3305fdf64736f6c63430008180033",
  "linkReferences": {
    "contracts/0xVault/libs/Crypto.sol": {
      "Crypto": [
        {
          "length": 20,
          "start": 4524
        },
        {
          "length": 20,
          "start": 4756
        }
      ]
    },
    "contracts/0xVault/libs/Dex.sol": {
      "Dex": [
        {
          "length": 20,
          "start": 9761
        }
      ]
    }
  },
  "deployedLinkReferences": {
    "contracts/0xVault/libs/Crypto.sol": {
      "Crypto": [
        {
          "length": 20,
          "start": 3902
        },
        {
          "length": 20,
          "start": 4134
        }
      ]
    },
    "contracts/0xVault/libs/Dex.sol": {
      "Dex": [
        {
          "length": 20,
          "start": 9139
        }
      ]
    }
  }
}