{
  "_format": "hh-sol-artifact-1",
  "contractName": "Vault",
  "sourceName": "contracts/0xVault/Vault.sol",
  "abi": [
    {
      "inputs": [],
      "name": "DataNotVerified",
      "type": "error"
    },
    {
      "inputs": [],
      "name": "DisputeChallengeFailed",
      "type": "error"
    },
    {
      "inputs": [],
      "name": "ECRecoverFailed",
      "type": "error"
    },
    {
      "inputs": [],
      "name": "EnforcedPause",
      "type": "error"
    },
    {
      "inputs": [],
      "name": "ExpectedPause",
      "type": "error"
    },
    {
      "inputs": [],
      "name": "InvalidAddress",
      "type": "error"
    },
    {
      "inputs": [],
      "name": "InvalidInitialization",
      "type": "error"
    },
    {
      "inputs": [],
      "name": "InvalidSP",
      "type": "error"
    },
    {
      "inputs": [],
      "name": "InvalidSchnorrSignature",
      "type": "error"
    },
    {
      "inputs": [],
      "name": "InvalidSignature",
      "type": "error"
    },
    {
      "inputs": [],
      "name": "InvalidUsedSignature",
      "type": "error"
    },
    {
      "inputs": [],
      "name": "NotInitializing",
      "type": "error"
    },
    {
      "inputs": [
        {
          "internalType": "address",
          "name": "owner",
          "type": "address"
        }
      ],
      "name": "OwnableInvalidOwner",
      "type": "error"
    },
    {
      "inputs": [
        {
          "internalType": "address",
          "name": "account",
          "type": "address"
        }
      ],
      "name": "OwnableUnauthorizedAccount",
      "type": "error"
    },
    {
      "inputs": [],
      "name": "ReentrancyGuardReentrantCall",
      "type": "error"
    },
    {
      "inputs": [],
      "name": "SettleDisputeFailed",
      "type": "error"
    },
    {
      "anonymous": false,
      "inputs": [
        {
          "indexed": true,
          "internalType": "address",
          "name": "user",
          "type": "address"
        },
        {
          "indexed": true,
          "internalType": "address",
          "name": "token",
          "type": "address"
        },
        {
          "indexed": false,
          "internalType": "uint256",
          "name": "amount",
          "type": "uint256"
        }
      ],
      "name": "Deposited",
      "type": "event"
    },
    {
      "anonymous": false,
      "inputs": [
        {
          "indexed": false,
          "internalType": "uint32",
          "name": "requestId",
          "type": "uint32"
        },
        {
          "indexed": true,
          "internalType": "address",
          "name": "user",
          "type": "address"
        }
      ],
      "name": "DisputeChallenged",
      "type": "event"
    },
    {
      "anonymous": false,
      "inputs": [
        {
          "indexed": false,
          "internalType": "uint32",
          "name": "requestId",
          "type": "uint32"
        },
        {
          "indexed": true,
          "internalType": "address",
          "name": "user",
          "type": "address"
        }
      ],
      "name": "DisputeOpened",
      "type": "event"
    },
    {
      "anonymous": false,
      "inputs": [
        {
          "indexed": false,
          "internalType": "uint32",
          "name": "requestId",
          "type": "uint32"
        },
        {
          "indexed": true,
          "internalType": "address",
          "name": "user",
          "type": "address"
        }
      ],
      "name": "DisputeSettled",
      "type": "event"
    },
    {
      "anonymous": false,
      "inputs": [
        {
          "indexed": false,
          "internalType": "uint64",
          "name": "version",
          "type": "uint64"
        }
      ],
      "name": "Initialized",
      "type": "event"
    },
    {
      "anonymous": false,
      "inputs": [
        {
          "indexed": true,
          "internalType": "address",
          "name": "user",
          "type": "address"
        },
        {
          "indexed": true,
          "internalType": "address",
          "name": "token",
          "type": "address"
        },
        {
          "indexed": false,
          "internalType": "uint256",
          "name": "amount",
          "type": "uint256"
        }
      ],
      "name": "LPProvided",
      "type": "event"
    },
    {
      "anonymous": false,
      "inputs": [
        {
          "indexed": true,
          "internalType": "address",
          "name": "user",
          "type": "address"
        },
        {
          "indexed": true,
          "internalType": "address",
          "name": "token",
          "type": "address"
        },
        {
          "indexed": false,
          "internalType": "uint256",
          "name": "amount",
          "type": "uint256"
        }
      ],
      "name": "LPWithdrawn",
      "type": "event"
    },
    {
      "anonymous": false,
      "inputs": [
        {
          "indexed": true,
          "internalType": "address",
          "name": "previousOwner",
          "type": "address"
        },
        {
          "indexed": true,
          "internalType": "address",
          "name": "newOwner",
          "type": "address"
        }
      ],
      "name": "OwnershipTransferred",
      "type": "event"
    },
    {
      "anonymous": false,
      "inputs": [
        {
          "indexed": true,
          "internalType": "address",
          "name": "user",
          "type": "address"
        },
        {
          "indexed": true,
          "internalType": "address",
          "name": "token",
          "type": "address"
        },
        {
          "indexed": false,
          "internalType": "uint256",
          "name": "amount",
          "type": "uint256"
        }
      ],
      "name": "PartialLiquidation",
      "type": "event"
    },
    {
      "anonymous": false,
      "inputs": [
        {
          "indexed": false,
          "internalType": "address",
          "name": "account",
          "type": "address"
        }
      ],
      "name": "Paused",
      "type": "event"
    },
    {
      "anonymous": false,
      "inputs": [
        {
          "indexed": false,
          "internalType": "uint32",
          "name": "requestId",
          "type": "uint32"
        },
        {
          "indexed": true,
          "internalType": "address",
          "name": "user",
          "type": "address"
        }
      ],
      "name": "PositionDisputeChallenged",
      "type": "event"
    },
    {
      "anonymous": false,
      "inputs": [
        {
          "indexed": false,
          "internalType": "address",
          "name": "account",
          "type": "address"
        }
      ],
      "name": "Unpaused",
      "type": "event"
    },
    {
      "anonymous": false,
      "inputs": [
        {
          "indexed": true,
          "internalType": "address",
          "name": "user",
          "type": "address"
        },
        {
          "indexed": true,
          "internalType": "address",
          "name": "token",
          "type": "address"
        },
        {
          "indexed": false,
          "internalType": "uint256",
          "name": "amount",
          "type": "uint256"
        },
        {
          "indexed": false,
          "internalType": "uint32",
          "name": "requestId",
          "type": "uint32"
        }
      ],
      "name": "WithdrawalRequested",
      "type": "event"
    },
    {
      "anonymous": false,
      "inputs": [
        {
          "indexed": true,
          "internalType": "address",
          "name": "user",
          "type": "address"
        },
        {
          "indexed": true,
          "internalType": "address",
          "name": "token",
          "type": "address"
        },
        {
          "indexed": false,
          "internalType": "uint256",
          "name": "amount",
          "type": "uint256"
        }
      ],
      "name": "Withdrawn",
      "type": "event"
    },
    {
      "inputs": [
        {
          "internalType": "uint32",
          "name": "",
          "type": "uint32"
        }
      ],
      "name": "_disputes",
      "outputs": [
        {
          "internalType": "address",
          "name": "user",
          "type": "address"
        },
        {
          "internalType": "address",
          "name": "challenger",
          "type": "address"
        },
        {
          "internalType": "uint64",
          "name": "timestamp",
          "type": "uint64"
        },
        {
          "internalType": "uint8",
          "name": "status",
          "type": "uint8"
        },
        {
          "internalType": "uint32",
          "name": "sessionId",
          "type": "uint32"
        }
      ],
      "stateMutability": "view",
      "type": "function"
    },
    {
      "inputs": [
        {
          "internalType": "uint32",
          "name": "requestId",
          "type": "uint32"
        },
        {
          "components": [
            {
              "internalType": "bytes",
              "name": "data",
              "type": "bytes"
            },
            {
              "internalType": "bytes",
              "name": "signature",
              "type": "bytes"
            },
            {
              "internalType": "address",
              "name": "combinedPublicKey",
              "type": "address"
            }
          ],
          "internalType": "struct Crypto.SchnorrSignature",
          "name": "_schnorr",
          "type": "tuple"
        }
      ],
      "name": "challengeDispute",
      "outputs": [],
      "stateMutability": "nonpayable",
      "type": "function"
    },
    {
      "inputs": [
        {
          "internalType": "address",
          "name": "",
          "type": "address"
        }
      ],
      "name": "combinedPublicKey",
      "outputs": [
        {
          "internalType": "address",
          "name": "",
          "type": "address"
        }
      ],
      "stateMutability": "view",
      "type": "function"
    },
    {
      "inputs": [
        {
          "internalType": "address",
          "name": "token",
          "type": "address"
        },
        {
          "internalType": "uint256",
          "name": "amount",
          "type": "uint256"
        }
      ],
      "name": "deposit",
      "outputs": [],
      "stateMutability": "nonpayable",
      "type": "function"
    },
    {
      "inputs": [
        {
          "internalType": "address",
          "name": "",
          "type": "address"
        },
        {
          "internalType": "address",
          "name": "",
          "type": "address"
        }
      ],
      "name": "depositedAmount",
      "outputs": [
        {
          "internalType": "uint256",
          "name": "",
          "type": "uint256"
        }
      ],
      "stateMutability": "view",
      "type": "function"
    },
    {
      "inputs": [],
      "name": "dexSupporter",
      "outputs": [
        {
          "internalType": "address",
          "name": "",
          "type": "address"
        }
      ],
      "stateMutability": "view",
      "type": "function"
    },
    {
      "inputs": [
        {
          "internalType": "uint32",
          "name": "requestId",
          "type": "uint32"
        }
      ],
      "name": "getDisputeBalances",
      "outputs": [
        {
          "components": [
            {
              "internalType": "bytes32",
              "name": "oracleId",
              "type": "bytes32"
            },
            {
              "internalType": "address",
              "name": "addr",
              "type": "address"
            },
            {
              "internalType": "uint256",
              "name": "balance",
              "type": "uint256"
            }
          ],
          "internalType": "struct Crypto.Balance[]",
          "name": "",
          "type": "tuple[]"
        }
      ],
      "stateMutability": "view",
      "type": "function"
    },
    {
      "inputs": [
        {
          "internalType": "uint32",
          "name": "requestId",
          "type": "uint32"
        }
      ],
      "name": "getDisputePositions",
      "outputs": [
        {
          "components": [
            {
              "internalType": "string",
              "name": "positionId",
              "type": "string"
            },
            {
              "internalType": "bytes32",
              "name": "oracleId",
              "type": "bytes32"
            },
            {
              "internalType": "address",
              "name": "token",
              "type": "address"
            },
            {
              "internalType": "uint256",
              "name": "quantity",
              "type": "uint256"
            },
            {
              "internalType": "uint256",
              "name": "leverageFactor",
              "type": "uint256"
            },
            {
              "internalType": "string",
              "name": "leverageType",
              "type": "string"
            },
            {
              "internalType": "bool",
              "name": "isLong",
              "type": "bool"
            },
            {
              "components": [
                {
                  "internalType": "bytes32",
                  "name": "oracleId",
                  "type": "bytes32"
                },
                {
                  "internalType": "address",
                  "name": "token",
                  "type": "address"
                },
                {
                  "internalType": "uint256",
                  "name": "quantity",
                  "type": "uint256"
                },
                {
                  "internalType": "uint256",
                  "name": "entryPrice",
                  "type": "uint256"
                }
              ],
              "internalType": "struct Crypto.Collateral[]",
              "name": "collaterals",
              "type": "tuple[]"
            },
            {
              "internalType": "uint256",
              "name": "entryPrice",
              "type": "uint256"
            },
            {
              "internalType": "uint256",
              "name": "createdTimestamp",
              "type": "uint256"
            }
          ],
          "internalType": "struct Crypto.Position[]",
          "name": "",
          "type": "tuple[]"
        }
      ],
      "stateMutability": "view",
      "type": "function"
    },
    {
      "inputs": [
        {
          "internalType": "uint32",
          "name": "requestId",
          "type": "uint32"
        }
      ],
      "name": "getDisputeStatus",
      "outputs": [
        {
          "internalType": "bool",
          "name": "isOpenDispute",
          "type": "bool"
        },
        {
          "internalType": "uint64",
          "name": "timestamp",
          "type": "uint64"
        },
        {
          "internalType": "address",
          "name": "user",
          "type": "address"
        }
      ],
      "stateMutability": "view",
      "type": "function"
    },
    {
      "inputs": [
        {
          "internalType": "address",
          "name": "_owner",
          "type": "address"
        },
        {
          "internalType": "uint256",
          "name": "_signatureExpiryTime",
          "type": "uint256"
        },
        {
          "internalType": "address",
          "name": "_lpProvider",
          "type": "address"
        },
        {
          "internalType": "address",
          "name": "_dexSupporter",
          "type": "address"
        }
      ],
      "name": "initialize",
      "outputs": [],
      "stateMutability": "nonpayable",
      "type": "function"
    },
    {
      "inputs": [],
      "name": "lpProvider",
      "outputs": [
        {
          "internalType": "address",
          "name": "",
          "type": "address"
        }
      ],
      "stateMutability": "view",
      "type": "function"
    },
    {
      "inputs": [],
      "name": "owner",
      "outputs": [
        {
          "internalType": "address",
          "name": "",
          "type": "address"
        }
      ],
      "stateMutability": "view",
      "type": "function"
    },
    {
      "inputs": [],
      "name": "paused",
      "outputs": [
        {
          "internalType": "bool",
          "name": "",
          "type": "bool"
        }
      ],
      "stateMutability": "view",
      "type": "function"
    },
    {
      "inputs": [],
      "name": "renounceOwnership",
      "outputs": [],
      "stateMutability": "nonpayable",
      "type": "function"
    },
    {
      "inputs": [
        {
          "internalType": "address",
          "name": "_user",
          "type": "address"
        },
        {
          "internalType": "address",
          "name": "_combinedPublicKey",
          "type": "address"
        }
      ],
      "name": "setCombinedPublicKey",
      "outputs": [],
      "stateMutability": "nonpayable",
      "type": "function"
    },
    {
      "inputs": [
        {
          "internalType": "uint256",
          "name": "_expiryTime",
          "type": "uint256"
        },
        {
          "internalType": "address",
          "name": "_dexSupporter",
          "type": "address"
        },
        {
          "internalType": "address",
          "name": "_lpProvider",
          "type": "address"
        }
      ],
      "name": "setVaultParameters",
      "outputs": [],
      "stateMutability": "nonpayable",
      "type": "function"
    },
    {
      "inputs": [
        {
          "internalType": "uint32",
          "name": "requestId",
          "type": "uint32"
        },
        {
          "internalType": "uint256[]",
          "name": "updatedBalances",
          "type": "uint256[]"
        },
        {
          "internalType": "uint256[]",
          "name": "pnlValues",
          "type": "uint256[]"
        },
        {
          "internalType": "bool[]",
          "name": "isProfits",
          "type": "bool[]"
        }
      ],
      "name": "settleDisputeResult",
      "outputs": [],
      "stateMutability": "nonpayable",
      "type": "function"
    },
    {
      "inputs": [],
      "name": "signatureExpiryTime",
      "outputs": [
        {
          "internalType": "uint256",
          "name": "",
          "type": "uint256"
        }
      ],
      "stateMutability": "view",
      "type": "function"
    },
    {
      "inputs": [
        {
          "internalType": "address",
          "name": "newOwner",
          "type": "address"
        }
      ],
      "name": "transferOwnership",
      "outputs": [],
      "stateMutability": "nonpayable",
      "type": "function"
    },
    {
      "inputs": [
        {
          "internalType": "uint32",
          "name": "requestId",
          "type": "uint32"
        },
        {
          "internalType": "uint256[]",
          "name": "liquidatedIndexes",
          "type": "uint256[]"
        },
        {
          "internalType": "uint256",
          "name": "liquidatedCount",
          "type": "uint256"
        },
        {
          "internalType": "bool",
          "name": "isCrossLiquidated",
          "type": "bool"
        }
      ],
      "name": "updateLiquidatedPositions",
      "outputs": [],
      "stateMutability": "nonpayable",
      "type": "function"
    },
    {
      "inputs": [
        {
          "internalType": "address",
          "name": "user",
          "type": "address"
        },
        {
          "internalType": "address[]",
          "name": "tokens",
          "type": "address[]"
        },
        {
          "internalType": "uint256[]",
          "name": "losses",
          "type": "uint256[]"
        },
        {
          "internalType": "uint256",
          "name": "totalLossCount",
          "type": "uint256"
        }
      ],
      "name": "updatePartialLiquidation",
      "outputs": [],
      "stateMutability": "nonpayable",
      "type": "function"
    },
    {
      "inputs": [
        {
          "components": [
            {
              "internalType": "bytes",
              "name": "data",
              "type": "bytes"
            },
            {
              "internalType": "bytes",
              "name": "signature",
              "type": "bytes"
            },
            {
              "internalType": "address",
              "name": "combinedPublicKey",
              "type": "address"
            }
          ],
          "internalType": "struct Crypto.SchnorrSignature",
          "name": "_schnorr",
          "type": "tuple"
        }
      ],
      "name": "withdrawAndClosePositionTrustlessly",
      "outputs": [],
      "stateMutability": "nonpayable",
      "type": "function"
    },
    {
      "inputs": [
        {
          "internalType": "address",
          "name": "_combinedPublicKey",
          "type": "address"
        },
        {
          "components": [
            {
              "internalType": "bytes",
              "name": "data",
              "type": "bytes"
            },
            {
              "internalType": "bytes",
              "name": "signature",
              "type": "bytes"
            },
            {
              "internalType": "address",
              "name": "combinedPublicKey",
              "type": "address"
            }
          ],
          "internalType": "struct Crypto.SchnorrSignature",
          "name": "_schnorr",
          "type": "tuple"
        }
      ],
      "name": "withdrawSchnorr",
      "outputs": [],
      "stateMutability": "nonpayable",
      "type": "function"
    }
  ],
  "bytecode": "0x608060405234801561001057600080fd5b50615ee080620000216000396000f3fe608060405234801561001057600080fd5b506004361061014d5760003560e01c806397799e06116100c3578063e41cff641161007c578063e41cff6414610366578063e6d0efad14610396578063e917bdcc146103b2578063ed9facad146103e4578063f2edcc9614610414578063f2fde38b146104305761014d565b806397799e061461027c578063a82078581461029a578063ab3e857f146102b6578063bf1e9ef5146102ea578063c2dd56bc14610306578063e0c32ec4146103365761014d565b80635c975abb116101155780635c975abb146101e2578063715018a6146102005780638a7be80b1461020a5780638da5cb5b146102265780638f2c081f14610244578063923fec2a146102605761014d565b80630d23581714610152578063358394d81461017057806347e7ef241461018c57806353eec0a0146101a8578063570ddaa8146101c4575b600080fd5b61015a61044c565b6040516101679190613b69565b60405180910390f35b61018a60048036038101906101859190613bfa565b610472565b005b6101a660048036038101906101a19190613c61565b610695565b005b6101c260048036038101906101bd9190613ca1565b610986565b005b6101cc610a1c565b6040516101d99190613d03565b60405180910390f35b6101ea610a22565b6040516101f79190613d39565b60405180910390f35b610208610a47565b005b610224600480360381019061021f9190613f70565b610a5b565b005b61022e610ec9565b60405161023b9190613b69565b60405180910390f35b61025e6004803603810190610259919061406f565b610f01565b005b61027a600480360381019061027591906140f7565b6117cb565b005b6102846119ab565b6040516102919190613b69565b60405180910390f35b6102b460048036038101906102af919061417a565b6119d1565b005b6102d060048036038101906102cb91906141d6565b611e67565b6040516102e1959493929190614251565b60405180910390f35b61030460048036038101906102ff9190614367565b611f0e565b005b610320600480360381019061031b91906141d6565b6125a3565b60405161032d919061454a565b60405180910390f35b610350600480360381019061034b919061456c565b61268e565b60405161035d9190613d03565b60405180910390f35b610380600480360381019061037b91906145ac565b6126b3565b60405161038d9190613b69565b60405180910390f35b6103b060048036038101906103ab91906145d9565b6126e6565b005b6103cc60048036038101906103c791906141d6565b612f65565b6040516103db93929190614622565b60405180910390f35b6103fe60048036038101906103f991906141d6565b613005565b60405161040b9190614995565b60405180910390f35b61042e6004803603810190610429919061456c565b613321565b005b61044a600480360381019061044591906145ac565b6133ab565b005b600860009054906101000a900473ffffffffffffffffffffffffffffffffffffffff1681565b600061047c613431565b905060008160000160089054906101000a900460ff1615905060008260000160009054906101000a900467ffffffffffffffff1690506000808267ffffffffffffffff161480156104ca5750825b9050600060018367ffffffffffffffff161480156104ff575060003073ffffffffffffffffffffffffffffffffffffffff163b145b90508115801561050d575080155b15610544576040517ff92ee8a900000000000000000000000000000000000000000000000000000000815260040160405180910390fd5b60018560000160006101000a81548167ffffffffffffffff021916908367ffffffffffffffff16021790555083156105945760018560000160086101000a81548160ff0219169083151502179055505b61059d89613459565b6105a561346d565b8760008190555086600860006101000a81548173ffffffffffffffffffffffffffffffffffffffff021916908373ffffffffffffffffffffffffffffffffffffffff16021790555085600960006101000a81548173ffffffffffffffffffffffffffffffffffffffff021916908373ffffffffffffffffffffffffffffffffffffffff160217905550831561068a5760008560000160086101000a81548160ff0219169083151502179055507fc7f505b2f371ae2175ee4913f4499e1f2633a7b5936321eed1cdaeb6115181d2600160405161068191906149fc565b60405180910390a15b505050505050505050565b61069d61347f565b6106a56134d6565b600081116106e8576040517f08c379a00000000000000000000000000000000000000000000000000000000081526004016106df90614a74565b60405180910390fd5b600860009054906101000a900473ffffffffffffffffffffffffffffffffffffffff1673ffffffffffffffffffffffffffffffffffffffff166375151b63836040518263ffffffff1660e01b81526004016107439190613b69565b602060405180830381865afa158015610760573d6000803e3d6000fd5b505050506040513d601f19601f820116820180604052508101906107849190614aa9565b6107c3576040517f08c379a00000000000000000000000000000000000000000000000000000000081526004016107ba90614b22565b60405180910390fd5b8173ffffffffffffffffffffffffffffffffffffffff166323b872dd3330846040518463ffffffff1660e01b815260040161080093929190614b42565b6020604051808303816000875af115801561081f573d6000803e3d6000fd5b505050506040513d601f19601f820116820180604052508101906108439190614aa9565b610882576040517f08c379a000000000000000000000000000000000000000000000000000000000815260040161087990614bc5565b60405180910390fd5b80600760003373ffffffffffffffffffffffffffffffffffffffff1673ffffffffffffffffffffffffffffffffffffffff16815260200190815260200160002060008473ffffffffffffffffffffffffffffffffffffffff1673ffffffffffffffffffffffffffffffffffffffff168152602001908152602001600020600082825461090e9190614c14565b925050819055508173ffffffffffffffffffffffffffffffffffffffff163373ffffffffffffffffffffffffffffffffffffffff167f8752a472e571a816aea92eec8dae9baf628e840f4929fbcc2d155e6233ff68a7836040516109729190613d03565b60405180910390a3610982613517565b5050565b61098e613530565b8260008190555081600960006101000a81548173ffffffffffffffffffffffffffffffffffffffff021916908373ffffffffffffffffffffffffffffffffffffffff16021790555080600860006101000a81548173ffffffffffffffffffffffffffffffffffffffff021916908373ffffffffffffffffffffffffffffffffffffffff160217905550505050565b60005481565b600080610a2d6135b7565b90508060000160009054906101000a900460ff1691505090565b610a4f613530565b610a5960006135df565b565b610a6361347f565b600960009054906101000a900473ffffffffffffffffffffffffffffffffffffffff1673ffffffffffffffffffffffffffffffffffffffff163373ffffffffffffffffffffffffffffffffffffffff1614610af3576040517f08c379a0000000000000000000000000000000000000000000000000000000008152600401610aea90614c94565b60405180910390fd5b8151835114610b37576040517f08c379a0000000000000000000000000000000000000000000000000000000008152600401610b2e90614d00565b60405180910390fd5b8251811115610b7b576040517f08c379a0000000000000000000000000000000000000000000000000000000008152600401610b7290614d6c565b60405180910390fd5b60005b81811015610eba576000848281518110610b9b57610b9a614d8c565b5b602002602001015190506000848381518110610bba57610bb9614d8c565b5b6020026020010151905080600760008973ffffffffffffffffffffffffffffffffffffffff1673ffffffffffffffffffffffffffffffffffffffff16815260200190815260200160002060008473ffffffffffffffffffffffffffffffffffffffff1673ffffffffffffffffffffffffffffffffffffffff168152602001908152602001600020541015610c83576040517f08c379a0000000000000000000000000000000000000000000000000000000008152600401610c7a90614e07565b60405180910390fd5b80600760008973ffffffffffffffffffffffffffffffffffffffff1673ffffffffffffffffffffffffffffffffffffffff16815260200190815260200160002060008473ffffffffffffffffffffffffffffffffffffffff1673ffffffffffffffffffffffffffffffffffffffff1681526020019081526020016000206000828254610d0f9190614e27565b925050819055508173ffffffffffffffffffffffffffffffffffffffff1663a9059cbb600860009054906101000a900473ffffffffffffffffffffffffffffffffffffffff16836040518363ffffffff1660e01b8152600401610d73929190614e5b565b6020604051808303816000875af1158015610d92573d6000803e3d6000fd5b505050506040513d601f19601f82011682018060405250810190610db69190614aa9565b50600860009054906101000a900473ffffffffffffffffffffffffffffffffffffffff1673ffffffffffffffffffffffffffffffffffffffff1663195bac6283836040518363ffffffff1660e01b8152600401610e14929190614e5b565b600060405180830381600087803b158015610e2e57600080fd5b505af1158015610e42573d6000803e3d6000fd5b505050508173ffffffffffffffffffffffffffffffffffffffff168773ffffffffffffffffffffffffffffffffffffffff167f3b7ebc7efc47fec3ee7bc30fe538bb5e5296e3cf7f70c0b34bc9f8de5cad986e83604051610ea39190613d03565b60405180910390a350508080600101915050610b7e565b50610ec3613517565b50505050565b600080610ed46136b6565b90508060000160009054906101000a900473ffffffffffffffffffffffffffffffffffffffff1691505090565b610f0961347f565b610f116134d6565b6000600260008463ffffffff1663ffffffff1681526020019081526020016000209050600073__$50e9592bd68e5211c3a496048a4809ad3a$__6306d02c88846040518263ffffffff1660e01b8152600401610f6d9190614fdc565b600060405180830381865af4158015610f8a573d6000803e3d6000fd5b505050506040513d6000823e3d601f19601f82011682018060405250810190610fb391906156ae565b905060016003811115610fc957610fc86156f7565b5b60ff168260040160009054906101000a900460ff1660ff1614611021576040517f08c379a000000000000000000000000000000000000000000000000000000000815260040161101890615772565b60405180910390fd5b6107088260010160149054906101000a900467ffffffffffffffff166110479190615792565b67ffffffffffffffff164210611092576040517f08c379a00000000000000000000000000000000000000000000000000000000081526004016110899061581a565b60405180910390fd5b73__$50e9592bd68e5211c3a496048a4809ad3a$__63bc018c408460066000856020015173ffffffffffffffffffffffffffffffffffffffff1673ffffffffffffffffffffffffffffffffffffffff16815260200190815260200160002060009054906101000a900473ffffffffffffffffffffffffffffffffffffffff166040518363ffffffff1660e01b815260040161112e929190615849565b602060405180830381865af415801561114b573d6000803e3d6000fd5b505050506040513d601f19601f8201168201806040525081019061116f9190614aa9565b6111a5576040517ff08f7bd800000000000000000000000000000000000000000000000000000000815260040160405180910390fd5b600081600001519050816000015163ffffffff16600560008763ffffffff1663ffffffff16815260200190815260200160002060009054906101000a900463ffffffff1663ffffffff16101561178a5780600560008763ffffffff1663ffffffff16815260200190815260200160002060006101000a81548163ffffffff021916908363ffffffff160217905550338360010160006101000a81548173ffffffffffffffffffffffffffffffffffffffff021916908373ffffffffffffffffffffffffffffffffffffffff1602179055508260020160006112869190613911565b8260030160006112969190613935565b600082604001515190506000836060015151905060005b8281101561136b5785600201856040015182815181106112d0576112cf614d8c565b5b602002602001015190806001815401808255809150506001900390600052602060002090600302016000909190919091506000820151816000015560208201518160010160006101000a81548173ffffffffffffffffffffffffffffffffffffffff021916908373ffffffffffffffffffffffffffffffffffffffff16021790555060408201518160020155505080806001019150506112ad565b5060005b81811015611730576000600260008a63ffffffff1663ffffffff1681526020019081526020016000206003016001816001815401808255809150500390600052602060002090600a02019050856060015182815181106113d2576113d1614d8c565b5b6020026020010151600001518160000190816113ee9190615a7b565b508560600151828151811061140657611405614d8c565b5b6020026020010151604001518160020160006101000a81548173ffffffffffffffffffffffffffffffffffffffff021916908373ffffffffffffffffffffffffffffffffffffffff1602179055508560600151828151811061146b5761146a614d8c565b5b60200260200101516060015181600301819055508560600151828151811061149657611495614d8c565b5b602002602001015160c001518160060160006101000a81548160ff021916908315150217905550856060015182815181106114d4576114d3614d8c565b5b60200260200101516101000151816008018190555085606001518281518110611500576114ff614d8c565b5b60200260200101516101200151816009018190555060008660600151838151811061152e5761152d614d8c565b5b602002602001015160e0015151905060005b81811015611720578260070160405180608001604052808a60600151878151811061156e5761156d614d8c565b5b602002602001015160e00151848151811061158c5761158b614d8c565b5b60200260200101516000015181526020018a6060015187815181106115b4576115b3614d8c565b5b602002602001015160e0015184815181106115d2576115d1614d8c565b5b60200260200101516020015173ffffffffffffffffffffffffffffffffffffffff1681526020018a6060015187815181106116105761160f614d8c565b5b602002602001015160e00151848151811061162e5761162d614d8c565b5b60200260200101516040015181526020018a60600151878151811061165657611655614d8c565b5b602002602001015160e00151848151811061167457611673614d8c565b5b60200260200101516060015181525090806001815401808255809150506001900390600052602060002090600402016000909190919091506000820151816000015560208201518160010160006101000a81548173ffffffffffffffffffffffffffffffffffffffff021916908373ffffffffffffffffffffffffffffffffffffffff160217905550604082015181600201556060820151816003015550508080600101915050611540565b505050808060010191505061136f565b50836020015173ffffffffffffffffffffffffffffffffffffffff167f41333d535ecc89f2d33b1d5f30416f34ba3c7d0bbf7aaea28a3b7c330969379b8860405161177b9190615b4d565b60405180910390a250506117bc565b6040517f785736c800000000000000000000000000000000000000000000000000000000815260040160405180910390fd5b5050506117c7613517565b5050565b600960009054906101000a900473ffffffffffffffffffffffffffffffffffffffff1673ffffffffffffffffffffffffffffffffffffffff163373ffffffffffffffffffffffffffffffffffffffff161461185b576040517f08c379a000000000000000000000000000000000000000000000000000000000815260040161185290615bb4565b60405180910390fd5b6000600260008663ffffffff1663ffffffff168152602001908152602001600020905060016003811115611892576118916156f7565b5b60ff168160040160009054906101000a900460ff1660ff16146118ea576040517f08c379a00000000000000000000000000000000000000000000000000000000081526004016118e190615772565b60405180910390fd5b60005b8381101561194f57600085828151811061190a57611909614d8c565b5b60200260200101519050600083600301828154811061192c5761192b614d8c565b5b90600052602060002090600a0201600301819055505080806001019150506118ed565b5081156119a45760005b81600201805490508110156119a25760008260020182815481106119805761197f614d8c565b5b9060005260206000209060030201600201819055508080600101915050611959565b505b5050505050565b600960009054906101000a900473ffffffffffffffffffffffffffffffffffffffff1681565b6119d961347f565b6119e16134d6565b600073__$50e9592bd68e5211c3a496048a4809ad3a$__6376b90c5983600660003373ffffffffffffffffffffffffffffffffffffffff1673ffffffffffffffffffffffffffffffffffffffff16815260200190815260200160002060009054906101000a900473ffffffffffffffffffffffffffffffffffffffff166040518363ffffffff1660e01b8152600401611a7b929190615849565b60a060405180830381865af4158015611a98573d6000803e3d6000fd5b505050506040513d601f19601f82011682018060405250810190611abc9190615c8c565b90506000816040015111611b05576040517f08c379a0000000000000000000000000000000000000000000000000000000008152600401611afc90615d2b565b60405180910390fd5b600860009054906101000a900473ffffffffffffffffffffffffffffffffffffffff1673ffffffffffffffffffffffffffffffffffffffff166375151b6382602001516040518263ffffffff1660e01b8152600401611b649190613b69565b602060405180830381865afa158015611b81573d6000803e3d6000fd5b505050506040513d601f19601f82011682018060405250810190611ba59190614aa9565b611be4576040517f08c379a0000000000000000000000000000000000000000000000000000000008152600401611bdb90614b22565b60405180910390fd5b600054816060015167ffffffffffffffff1642611c019190614e27565b10611c41576040517f08c379a0000000000000000000000000000000000000000000000000000000008152600401611c3890615d97565b60405180910390fd5b3373ffffffffffffffffffffffffffffffffffffffff16816000015173ffffffffffffffffffffffffffffffffffffffff1614611caa576040517ff08f7bd800000000000000000000000000000000000000000000000000000000815260040160405180910390fd5b82600660003373ffffffffffffffffffffffffffffffffffffffff1673ffffffffffffffffffffffffffffffffffffffff16815260200190815260200160002060006101000a81548173ffffffffffffffffffffffffffffffffffffffff021916908373ffffffffffffffffffffffffffffffffffffffff160217905550806020015173ffffffffffffffffffffffffffffffffffffffff1663a9059cbb3383604001516040518363ffffffff1660e01b8152600401611d6b929190614e5b565b6020604051808303816000875af1158015611d8a573d6000803e3d6000fd5b505050506040513d601f19601f82011682018060405250810190611dae9190614aa9565b611ded576040517f08c379a0000000000000000000000000000000000000000000000000000000008152600401611de490614bc5565b60405180910390fd5b806020015173ffffffffffffffffffffffffffffffffffffffff163373ffffffffffffffffffffffffffffffffffffffff167fd1c19fbcd4551a5edfb66d43d2e337c04837afda3482b42bdf569a8fccdae5fb8360400151604051611e529190613d03565b60405180910390a350611e63613517565b5050565b60026020528060005260406000206000915090508060000160009054906101000a900473ffffffffffffffffffffffffffffffffffffffff16908060010160009054906101000a900473ffffffffffffffffffffffffffffffffffffffff16908060010160149054906101000a900467ffffffffffffffff16908060040160009054906101000a900460ff16908060040160019054906101000a900463ffffffff16905085565b611f1661347f565b600960009054906101000a900473ffffffffffffffffffffffffffffffffffffffff1673ffffffffffffffffffffffffffffffffffffffff163373ffffffffffffffffffffffffffffffffffffffff1614611fa6576040517f08c379a0000000000000000000000000000000000000000000000000000000008152600401611f9d90614c94565b60405180910390fd5b6000600260008663ffffffff1663ffffffff168152602001908152602001600020905060016003811115611fdd57611fdc6156f7565b5b60ff168160040160009054906101000a900460ff1660ff1614612035576040517f08c379a000000000000000000000000000000000000000000000000000000000815260040161202c90615772565b60405180910390fd5b60005b81600201805490508110156124f257600082600201828154811061205f5761205e614d8c565b5b906000526020600020906003020160010160009054906101000a900473ffffffffffffffffffffffffffffffffffffffff16905060008683815181106120a8576120a7614d8c565b5b602002602001015190508483815181106120c5576120c4614d8c565b5b60200260200101511561218057600860009054906101000a900473ffffffffffffffffffffffffffffffffffffffff1673ffffffffffffffffffffffffffffffffffffffff16639d1dd0da8388868151811061212457612123614d8c565b5b60200260200101516040518363ffffffff1660e01b8152600401612149929190614e5b565b600060405180830381600087803b15801561216357600080fd5b505af1158015612177573d6000803e3d6000fd5b505050506122e5565b8173ffffffffffffffffffffffffffffffffffffffff1663a9059cbb600860009054906101000a900473ffffffffffffffffffffffffffffffffffffffff168886815181106121d2576121d1614d8c565b5b60200260200101516040518363ffffffff1660e01b81526004016121f7929190614e5b565b6020604051808303816000875af1158015612216573d6000803e3d6000fd5b505050506040513d601f19601f8201168201806040525081019061223a9190614aa9565b50600860009054906101000a900473ffffffffffffffffffffffffffffffffffffffff1673ffffffffffffffffffffffffffffffffffffffff1663195bac628388868151811061228d5761228c614d8c565b5b60200260200101516040518363ffffffff1660e01b81526004016122b2929190614e5b565b600060405180830381600087803b1580156122cc57600080fd5b505af11580156122e0573d6000803e3d6000fd5b505050505b6000600760008660000160009054906101000a900473ffffffffffffffffffffffffffffffffffffffff1673ffffffffffffffffffffffffffffffffffffffff1673ffffffffffffffffffffffffffffffffffffffff16815260200190815260200160002060008473ffffffffffffffffffffffffffffffffffffffff1673ffffffffffffffffffffffffffffffffffffffff168152602001908152602001600020819055508173ffffffffffffffffffffffffffffffffffffffff1663a9059cbb8560000160009054906101000a900473ffffffffffffffffffffffffffffffffffffffff16836040518363ffffffff1660e01b81526004016123ea929190614e5b565b6020604051808303816000875af1158015612409573d6000803e3d6000fd5b505050506040513d601f19601f8201168201806040525081019061242d9190614aa9565b508173ffffffffffffffffffffffffffffffffffffffff168460000160009054906101000a900473ffffffffffffffffffffffffffffffffffffffff1673ffffffffffffffffffffffffffffffffffffffff167fd1c19fbcd4551a5edfb66d43d2e337c04837afda3482b42bdf569a8fccdae5fb836040516124af9190613d03565b60405180910390a3808460020184815481106124ce576124cd614d8c565b5b90600052602060002090600302016002018190555050508080600101915050612038565b50600380811115612506576125056156f7565b5b8160040160006101000a81548160ff021916908360ff1602179055508060000160009054906101000a900473ffffffffffffffffffffffffffffffffffffffff1673ffffffffffffffffffffffffffffffffffffffff167f8b703fbb69bafcfe17cc041cf70cf1f199e44c5e5f70dca4aa3d01ce927996cc8660405161258c9190615b4d565b60405180910390a25061259d613517565b50505050565b6060600260008363ffffffff1663ffffffff168152602001908152602001600020600201805480602002602001604051908101604052809291908181526020016000905b828210156126835783829060005260206000209060030201604051806060016040529081600082015481526020016001820160009054906101000a900473ffffffffffffffffffffffffffffffffffffffff1673ffffffffffffffffffffffffffffffffffffffff1673ffffffffffffffffffffffffffffffffffffffff168152602001600282015481525050815260200190600101906125e7565b505050509050919050565b6007602052816000526040600020602052806000526040600020600091509150505481565b60066020528060005260406000206000915054906101000a900473ffffffffffffffffffffffffffffffffffffffff1681565b6126ee61347f565b6126f66134d6565b600073__$50e9592bd68e5211c3a496048a4809ad3a$__6306d02c88836040518263ffffffff1660e01b815260040161272f9190614fdc565b600060405180830381865af415801561274c573d6000803e3d6000fd5b505050506040513d6000823e3d601f19601f8201168201806040525081019061277591906156ae565b90503373ffffffffffffffffffffffffffffffffffffffff16816020015173ffffffffffffffffffffffffffffffffffffffff16146127e0576040517ff08f7bd800000000000000000000000000000000000000000000000000000000815260040160405180910390fd5b73__$50e9592bd68e5211c3a496048a4809ad3a$__63bc018c408360066000856020015173ffffffffffffffffffffffffffffffffffffffff1673ffffffffffffffffffffffffffffffffffffffff16815260200190815260200160002060009054906101000a900473ffffffffffffffffffffffffffffffffffffffff166040518363ffffffff1660e01b815260040161287c929190615849565b602060405180830381865af4158015612899573d6000803e3d6000fd5b505050506040513d601f19601f820116820180604052508101906128bd9190614aa9565b6128f3576040517ff08f7bd800000000000000000000000000000000000000000000000000000000815260040160405180910390fd5b60048280602001906129059190615dc6565b604051612913929190615e59565b908152602001604051809103902060009054906101000a900460ff1615612966576040517ff08f7bd800000000000000000000000000000000000000000000000000000000815260040160405180910390fd5b60018060009054906101000a900463ffffffff166129849190615e72565b600160006101000a81548163ffffffff021916908363ffffffff1602179055506000600160009054906101000a900463ffffffff16905042600260008363ffffffff1663ffffffff16815260200190815260200160002060010160146101000a81548167ffffffffffffffff021916908367ffffffffffffffff160217905550600082604001515190506000836060015151905060005b81811015612ddc576000600260008663ffffffff1663ffffffff1681526020019081526020016000206003016001816001815401808255809150500390600052602060002090600a0201905085606001518281518110612a7e57612a7d614d8c565b5b602002602001015160000151816000019081612a9a9190615a7b565b5085606001518281518110612ab257612ab1614d8c565b5b6020026020010151604001518160020160006101000a81548173ffffffffffffffffffffffffffffffffffffffff021916908373ffffffffffffffffffffffffffffffffffffffff16021790555085606001518281518110612b1757612b16614d8c565b5b602002602001015160600151816003018190555085606001518281518110612b4257612b41614d8c565b5b602002602001015160c001518160060160006101000a81548160ff02191690831515021790555085606001518281518110612b8057612b7f614d8c565b5b60200260200101516101000151816008018190555085606001518281518110612bac57612bab614d8c565b5b602002602001015161012001518160090181905550600086606001518381518110612bda57612bd9614d8c565b5b602002602001015160e0015151905060005b81811015612dcc578260070160405180608001604052808a606001518781518110612c1a57612c19614d8c565b5b602002602001015160e001518481518110612c3857612c37614d8c565b5b60200260200101516000015181526020018a606001518781518110612c6057612c5f614d8c565b5b602002602001015160e001518481518110612c7e57612c7d614d8c565b5b60200260200101516020015173ffffffffffffffffffffffffffffffffffffffff1681526020018a606001518781518110612cbc57612cbb614d8c565b5b602002602001015160e001518481518110612cda57612cd9614d8c565b5b60200260200101516040015181526020018a606001518781518110612d0257612d01614d8c565b5b602002602001015160e001518481518110612d2057612d1f614d8c565b5b60200260200101516060015181525090806001815401808255809150506001900390600052602060002090600402016000909190919091506000820151816000015560208201518160010160006101000a81548173ffffffffffffffffffffffffffffffffffffffff021916908373ffffffffffffffffffffffffffffffffffffffff160217905550604082015181600201556060820151816003015550508080600101915050612bec565b5050508080600101915050612a1b565b5060005b82811015612ebc57600260008563ffffffff1663ffffffff16815260200190815260200160002060020185604001518281518110612e2157612e20614d8c565b5b602002602001015190806001815401808255809150506001900390600052602060002090600302016000909190919091506000820151816000015560208201518160010160006101000a81548173ffffffffffffffffffffffffffffffffffffffff021916908373ffffffffffffffffffffffffffffffffffffffff1602179055506040820151816002015550508080600101915050612de0565b5060008460000151905080600560008663ffffffff1663ffffffff16815260200190815260200160002060006101000a81548163ffffffff021916908363ffffffff16021790555060016004878060200190612f189190615dc6565b604051612f26929190615e59565b908152602001604051809103902060006101000a81548160ff021916908315150217905550612f5584336136de565b5050505050612f62613517565b50565b600080600080600260008663ffffffff1663ffffffff168152602001908152602001600020905060016003811115612fa057612f9f6156f7565b5b60ff168160040160009054906101000a900460ff1660ff161493508060010160149054906101000a900467ffffffffffffffff1692508060000160009054906101000a900473ffffffffffffffffffffffffffffffffffffffff169150509193909250565b6060600260008363ffffffff1663ffffffff168152602001908152602001600020600301805480602002602001604051908101604052809291908181526020016000905b8282101561331657838290600052602060002090600a02016040518061014001604052908160008201805461307d906158a8565b80601f01602080910402602001604051908101604052809291908181526020018280546130a9906158a8565b80156130f65780601f106130cb576101008083540402835291602001916130f6565b820191906000526020600020905b8154815290600101906020018083116130d957829003601f168201915b50505050508152602001600182015481526020016002820160009054906101000a900473ffffffffffffffffffffffffffffffffffffffff1673ffffffffffffffffffffffffffffffffffffffff1673ffffffffffffffffffffffffffffffffffffffff1681526020016003820154815260200160048201548152602001600582018054613183906158a8565b80601f01602080910402602001604051908101604052809291908181526020018280546131af906158a8565b80156131fc5780601f106131d1576101008083540402835291602001916131fc565b820191906000526020600020905b8154815290600101906020018083116131df57829003601f168201915b505050505081526020016006820160009054906101000a900460ff1615151515815260200160078201805480602002602001604051908101604052809291908181526020016000905b828210156132eb5783829060005260206000209060040201604051806080016040529081600082015481526020016001820160009054906101000a900473ffffffffffffffffffffffffffffffffffffffff1673ffffffffffffffffffffffffffffffffffffffff1673ffffffffffffffffffffffffffffffffffffffff1681526020016002820154815260200160038201548152505081526020019060010190613245565b5050505081526020016008820154815260200160098201548152505081526020019060010190613049565b505050509050919050565b613329613530565b80600660008473ffffffffffffffffffffffffffffffffffffffff1673ffffffffffffffffffffffffffffffffffffffff16815260200190815260200160002060006101000a81548173ffffffffffffffffffffffffffffffffffffffff021916908373ffffffffffffffffffffffffffffffffffffffff1602179055505050565b6133b3613530565b600073ffffffffffffffffffffffffffffffffffffffff168173ffffffffffffffffffffffffffffffffffffffff16036134255760006040517f1e4fbdf700000000000000000000000000000000000000000000000000000000815260040161341c9190613b69565b60405180910390fd5b61342e816135df565b50565b60007ff0c57e16840df040f15088dc2f81fe391c3923bec73e23a9662efc9c229c6a00905090565b6134616137c7565b61346a81613807565b50565b6134756137c7565b61347d61388d565b565b60006134896138c1565b905060028160000154036134c9576040517f3ee5aeb500000000000000000000000000000000000000000000000000000000815260040160405180910390fd5b6002816000018190555050565b6134de610a22565b15613515576040517fd93c066500000000000000000000000000000000000000000000000000000000815260040160405180910390fd5b565b60006135216138c1565b90506001816000018190555050565b6135386138e9565b73ffffffffffffffffffffffffffffffffffffffff16613556610ec9565b73ffffffffffffffffffffffffffffffffffffffff16146135b5576135796138e9565b6040517f118cdaa70000000000000000000000000000000000000000000000000000000081526004016135ac9190613b69565b60405180910390fd5b565b60007fcd5ed15c6e187e77e9aee88184c21f4f2182ab5827cb3b7e07fbedcd63f03300905090565b60006135e96136b6565b905060008160000160009054906101000a900473ffffffffffffffffffffffffffffffffffffffff169050828260000160006101000a81548173ffffffffffffffffffffffffffffffffffffffff021916908373ffffffffffffffffffffffffffffffffffffffff1602179055508273ffffffffffffffffffffffffffffffffffffffff168173ffffffffffffffffffffffffffffffffffffffff167f8be0079c531659141344cd1fd0a4f28419497f9722a3daafe3b4186f6b6457e060405160405180910390a3505050565b60007f9016d09d72d40fdae2fd8ceac6b6234c7706214fd39c1cd1e609a0528c199300905090565b6000600260008463ffffffff1663ffffffff168152602001908152602001600020905060016003811115613715576137146156f7565b5b8160040160006101000a81548160ff021916908360ff160217905550818160000160006101000a81548173ffffffffffffffffffffffffffffffffffffffff021916908373ffffffffffffffffffffffffffffffffffffffff1602179055508173ffffffffffffffffffffffffffffffffffffffff167f2fdd05cb84b2efdbfb66efce92f66f26e7323b06b91ed693c764e01573436af9846040516137ba9190615b4d565b60405180910390a2505050565b6137cf6138f1565b613805576040517fd7e6bcf800000000000000000000000000000000000000000000000000000000815260040160405180910390fd5b565b61380f6137c7565b600073ffffffffffffffffffffffffffffffffffffffff168173ffffffffffffffffffffffffffffffffffffffff16036138815760006040517f1e4fbdf70000000000000000000000000000000000000000000000000000000081526004016138789190613b69565b60405180910390fd5b61388a816135df565b50565b6138956137c7565b600061389f6135b7565b905060008160000160006101000a81548160ff02191690831515021790555050565b60007f9b779b17422d0df92223018b32b4d1fa46e071723d6817e2486d003becc55f00905090565b600033905090565b60006138fb613431565b60000160089054906101000a900460ff16905090565b50805460008255600302906000526020600020908101906139329190613959565b50565b50805460008255600a029060005260206000209081019061395691906139a7565b50565b5b808211156139a3576000808201600090556001820160006101000a81549073ffffffffffffffffffffffffffffffffffffffff021916905560028201600090555060030161395a565b5090565b5b80821115613a4d57600080820160006139c19190613a51565b60018201600090556002820160006101000a81549073ffffffffffffffffffffffffffffffffffffffff021916905560038201600090556004820160009055600582016000613a109190613a51565b6006820160006101000a81549060ff0219169055600782016000613a349190613a91565b6008820160009055600982016000905550600a016139a8565b5090565b508054613a5d906158a8565b6000825580601f10613a6f5750613a8e565b601f016020900490600052602060002090810190613a8d9190613ab5565b5b50565b5080546000825560040290600052602060002090810190613ab29190613ad2565b50565b5b80821115613ace576000816000905550600101613ab6565b5090565b5b80821115613b24576000808201600090556001820160006101000a81549073ffffffffffffffffffffffffffffffffffffffff02191690556002820160009055600382016000905550600401613ad3565b5090565b600073ffffffffffffffffffffffffffffffffffffffff82169050919050565b6000613b5382613b28565b9050919050565b613b6381613b48565b82525050565b6000602082019050613b7e6000830184613b5a565b92915050565b6000604051905090565b600080fd5b600080fd5b613ba181613b48565b8114613bac57600080fd5b50565b600081359050613bbe81613b98565b92915050565b6000819050919050565b613bd781613bc4565b8114613be257600080fd5b50565b600081359050613bf481613bce565b92915050565b60008060008060808587031215613c1457613c13613b8e565b5b6000613c2287828801613baf565b9450506020613c3387828801613be5565b9350506040613c4487828801613baf565b9250506060613c5587828801613baf565b91505092959194509250565b60008060408385031215613c7857613c77613b8e565b5b6000613c8685828601613baf565b9250506020613c9785828601613be5565b9150509250929050565b600080600060608486031215613cba57613cb9613b8e565b5b6000613cc886828701613be5565b9350506020613cd986828701613baf565b9250506040613cea86828701613baf565b9150509250925092565b613cfd81613bc4565b82525050565b6000602082019050613d186000830184613cf4565b92915050565b60008115159050919050565b613d3381613d1e565b82525050565b6000602082019050613d4e6000830184613d2a565b92915050565b600080fd5b6000601f19601f8301169050919050565b7f4e487b7100000000000000000000000000000000000000000000000000000000600052604160045260246000fd5b613da282613d59565b810181811067ffffffffffffffff82111715613dc157613dc0613d6a565b5b80604052505050565b6000613dd4613b84565b9050613de08282613d99565b919050565b600067ffffffffffffffff821115613e0057613dff613d6a565b5b602082029050602081019050919050565b600080fd5b6000613e29613e2484613de5565b613dca565b90508083825260208201905060208402830185811115613e4c57613e4b613e11565b5b835b81811015613e755780613e618882613baf565b845260208401935050602081019050613e4e565b5050509392505050565b600082601f830112613e9457613e93613d54565b5b8135613ea4848260208601613e16565b91505092915050565b600067ffffffffffffffff821115613ec857613ec7613d6a565b5b602082029050602081019050919050565b6000613eec613ee784613ead565b613dca565b90508083825260208201905060208402830185811115613f0f57613f0e613e11565b5b835b81811015613f385780613f248882613be5565b845260208401935050602081019050613f11565b5050509392505050565b600082601f830112613f5757613f56613d54565b5b8135613f67848260208601613ed9565b91505092915050565b60008060008060808587031215613f8a57613f89613b8e565b5b6000613f9887828801613baf565b945050602085013567ffffffffffffffff811115613fb957613fb8613b93565b5b613fc587828801613e7f565b935050604085013567ffffffffffffffff811115613fe657613fe5613b93565b5b613ff287828801613f42565b925050606061400387828801613be5565b91505092959194509250565b600063ffffffff82169050919050565b6140288161400f565b811461403357600080fd5b50565b6000813590506140458161401f565b92915050565b600080fd5b6000606082840312156140665761406561404b565b5b81905092915050565b6000806040838503121561408657614085613b8e565b5b600061409485828601614036565b925050602083013567ffffffffffffffff8111156140b5576140b4613b93565b5b6140c185828601614050565b9150509250929050565b6140d481613d1e565b81146140df57600080fd5b50565b6000813590506140f1816140cb565b92915050565b6000806000806080858703121561411157614110613b8e565b5b600061411f87828801614036565b945050602085013567ffffffffffffffff8111156141405761413f613b93565b5b61414c87828801613f42565b935050604061415d87828801613be5565b925050606061416e878288016140e2565b91505092959194509250565b6000806040838503121561419157614190613b8e565b5b600061419f85828601613baf565b925050602083013567ffffffffffffffff8111156141c0576141bf613b93565b5b6141cc85828601614050565b9150509250929050565b6000602082840312156141ec576141eb613b8e565b5b60006141fa84828501614036565b91505092915050565b600067ffffffffffffffff82169050919050565b61422081614203565b82525050565b600060ff82169050919050565b61423c81614226565b82525050565b61424b8161400f565b82525050565b600060a0820190506142666000830188613b5a565b6142736020830187613b5a565b6142806040830186614217565b61428d6060830185614233565b61429a6080830184614242565b9695505050505050565b600067ffffffffffffffff8211156142bf576142be613d6a565b5b602082029050602081019050919050565b60006142e36142de846142a4565b613dca565b9050808382526020820190506020840283018581111561430657614305613e11565b5b835b8181101561432f578061431b88826140e2565b845260208401935050602081019050614308565b5050509392505050565b600082601f83011261434e5761434d613d54565b5b813561435e8482602086016142d0565b91505092915050565b6000806000806080858703121561438157614380613b8e565b5b600061438f87828801614036565b945050602085013567ffffffffffffffff8111156143b0576143af613b93565b5b6143bc87828801613f42565b935050604085013567ffffffffffffffff8111156143dd576143dc613b93565b5b6143e987828801613f42565b925050606085013567ffffffffffffffff81111561440a57614409613b93565b5b61441687828801614339565b91505092959194509250565b600081519050919050565b600082825260208201905092915050565b6000819050602082019050919050565b6000819050919050565b6144618161444e565b82525050565b61447081613b48565b82525050565b61447f81613bc4565b82525050565b60608201600082015161449b6000850182614458565b5060208201516144ae6020850182614467565b5060408201516144c16040850182614476565b50505050565b60006144d38383614485565b60608301905092915050565b6000602082019050919050565b60006144f782614422565b614501818561442d565b935061450c8361443e565b8060005b8381101561453d57815161452488826144c7565b975061452f836144df565b925050600181019050614510565b5085935050505092915050565b6000602082019050818103600083015261456481846144ec565b905092915050565b6000806040838503121561458357614582613b8e565b5b600061459185828601613baf565b92505060206145a285828601613baf565b9150509250929050565b6000602082840312156145c2576145c1613b8e565b5b60006145d084828501613baf565b91505092915050565b6000602082840312156145ef576145ee613b8e565b5b600082013567ffffffffffffffff81111561460d5761460c613b93565b5b61461984828501614050565b91505092915050565b60006060820190506146376000830186613d2a565b6146446020830185614217565b6146516040830184613b5a565b949350505050565b600081519050919050565b600082825260208201905092915050565b6000819050602082019050919050565b600081519050919050565b600082825260208201905092915050565b60005b838110156146bf5780820151818401526020810190506146a4565b60008484015250505050565b60006146d682614685565b6146e08185614690565b93506146f08185602086016146a1565b6146f981613d59565b840191505092915050565b61470d81613d1e565b82525050565b600081519050919050565b600082825260208201905092915050565b6000819050602082019050919050565b6080820160008201516147556000850182614458565b5060208201516147686020850182614467565b50604082015161477b6040850182614476565b50606082015161478e6060850182614476565b50505050565b60006147a0838361473f565b60808301905092915050565b6000602082019050919050565b60006147c482614713565b6147ce818561471e565b93506147d98361472f565b8060005b8381101561480a5781516147f18882614794565b97506147fc836147ac565b9250506001810190506147dd565b5085935050505092915050565b600061014083016000830151848203600086015261483582826146cb565b915050602083015161484a6020860182614458565b50604083015161485d6040860182614467565b5060608301516148706060860182614476565b5060808301516148836080860182614476565b5060a083015184820360a086015261489b82826146cb565b91505060c08301516148b060c0860182614704565b5060e083015184820360e08601526148c882826147b9565b9150506101008301516148df610100860182614476565b506101208301516148f4610120860182614476565b508091505092915050565b600061490b8383614817565b905092915050565b6000602082019050919050565b600061492b82614659565b6149358185614664565b93508360208202850161494785614675565b8060005b85811015614983578484038952815161496485826148ff565b945061496f83614913565b925060208a0199505060018101905061494b565b50829750879550505050505092915050565b600060208201905081810360008301526149af8184614920565b905092915050565b6000819050919050565b6000819050919050565b60006149e66149e16149dc846149b7565b6149c1565b614203565b9050919050565b6149f6816149cb565b82525050565b6000602082019050614a1160008301846149ed565b92915050565b600082825260208201905092915050565b7f416d6f756e74206d7573742062652067726561746572207468616e207a65726f600082015250565b6000614a5e602083614a17565b9150614a6982614a28565b602082019050919050565b60006020820190508181036000830152614a8d81614a51565b9050919050565b600081519050614aa3816140cb565b92915050565b600060208284031215614abf57614abe613b8e565b5b6000614acd84828501614a94565b91505092915050565b7f546f6b656e206e6f7420737570706f7274656400000000000000000000000000600082015250565b6000614b0c601383614a17565b9150614b1782614ad6565b602082019050919050565b60006020820190508181036000830152614b3b81614aff565b9050919050565b6000606082019050614b576000830186613b5a565b614b646020830185613b5a565b614b716040830184613cf4565b949350505050565b7f5472616e73666572206661696c65640000000000000000000000000000000000600082015250565b6000614baf600f83614a17565b9150614bba82614b79565b602082019050919050565b60006020820190508181036000830152614bde81614ba2565b9050919050565b7f4e487b7100000000000000000000000000000000000000000000000000000000600052601160045260246000fd5b6000614c1f82613bc4565b9150614c2a83613bc4565b9250828201905080821115614c4257614c41614be5565b5b92915050565b7f556e617574686f72697a65640000000000000000000000000000000000000000600082015250565b6000614c7e600c83614a17565b9150614c8982614c48565b602082019050919050565b60006020820190508181036000830152614cad81614c71565b9050919050565b7f4172726179206c656e677468206d69736d617463680000000000000000000000600082015250565b6000614cea601583614a17565b9150614cf582614cb4565b602082019050919050565b60006020820190508181036000830152614d1981614cdd565b9050919050565b7f496e76616c696420746f74616c206c6f737320636f756e740000000000000000600082015250565b6000614d56601883614a17565b9150614d6182614d20565b602082019050919050565b60006020820190508181036000830152614d8581614d49565b9050919050565b7f4e487b7100000000000000000000000000000000000000000000000000000000600052603260045260246000fd5b7f496e73756666696369656e74206465706f736974656420616d6f756e74000000600082015250565b6000614df1601d83614a17565b9150614dfc82614dbb565b602082019050919050565b60006020820190508181036000830152614e2081614de4565b9050919050565b6000614e3282613bc4565b9150614e3d83613bc4565b9250828203905081811115614e5557614e54614be5565b5b92915050565b6000604082019050614e706000830185613b5a565b614e7d6020830184613cf4565b9392505050565b600080fd5b600080fd5b600080fd5b60008083356001602003843603038112614eb057614eaf614e8e565b5b83810192508235915060208301925067ffffffffffffffff821115614ed857614ed7614e84565b5b600182023603831315614eee57614eed614e89565b5b509250929050565b600082825260208201905092915050565b82818337600083830152505050565b6000614f228385614ef6565b9350614f2f838584614f07565b614f3883613d59565b840190509392505050565b6000614f526020840184613baf565b905092915050565b614f6381613b48565b82525050565b600060608301614f7c6000840184614e93565b8583036000870152614f8f838284614f16565b92505050614fa06020840184614e93565b8583036020870152614fb3838284614f16565b92505050614fc46040840184614f43565b614fd16040860182614f5a565b508091505092915050565b60006020820190508181036000830152614ff68184614f69565b905092915050565b600080fd5b600080fd5b6000815190506150178161401f565b92915050565b60008151905061502c81613b98565b92915050565b600067ffffffffffffffff82111561504d5761504c613d6a565b5b602082029050602081019050919050565b6150678161444e565b811461507257600080fd5b50565b6000815190506150848161505e565b92915050565b60008151905061509981613bce565b92915050565b6000606082840312156150b5576150b4614ffe565b5b6150bf6060613dca565b905060006150cf84828501615075565b60008301525060206150e38482850161501d565b60208301525060406150f78482850161508a565b60408301525092915050565b600061511661511184615032565b613dca565b9050808382526020820190506060840283018581111561513957615138613e11565b5b835b81811015615162578061514e888261509f565b84526020840193505060608101905061513b565b5050509392505050565b600082601f83011261518157615180613d54565b5b8151615191848260208601615103565b91505092915050565b600067ffffffffffffffff8211156151b5576151b4613d6a565b5b602082029050602081019050919050565b600080fd5b600067ffffffffffffffff8211156151e6576151e5613d6a565b5b6151ef82613d59565b9050602081019050919050565b600061520f61520a846151cb565b613dca565b90508281526020810184848401111561522b5761522a6151c6565b5b6152368482856146a1565b509392505050565b600082601f83011261525357615252613d54565b5b81516152638482602086016151fc565b91505092915050565b600067ffffffffffffffff82111561528757615286613d6a565b5b602082029050602081019050919050565b6000608082840312156152ae576152ad614ffe565b5b6152b86080613dca565b905060006152c884828501615075565b60008301525060206152dc8482850161501d565b60208301525060406152f08482850161508a565b60408301525060606153048482850161508a565b60608301525092915050565b600061532361531e8461526c565b613dca565b9050808382526020820190506080840283018581111561534657615345613e11565b5b835b8181101561536f578061535b8882615298565b845260208401935050608081019050615348565b5050509392505050565b600082601f83011261538e5761538d613d54565b5b815161539e848260208601615310565b91505092915050565b600061014082840312156153be576153bd614ffe565b5b6153c9610140613dca565b9050600082015167ffffffffffffffff8111156153e9576153e8615003565b5b6153f58482850161523e565b600083015250602061540984828501615075565b602083015250604061541d8482850161501d565b60408301525060606154318482850161508a565b60608301525060806154458482850161508a565b60808301525060a082015167ffffffffffffffff81111561546957615468615003565b5b6154758482850161523e565b60a08301525060c061548984828501614a94565b60c08301525060e082015167ffffffffffffffff8111156154ad576154ac615003565b5b6154b984828501615379565b60e0830152506101006154ce8482850161508a565b610100830152506101206154e48482850161508a565b6101208301525092915050565b60006155046154ff8461519a565b613dca565b9050808382526020820190506020840283018581111561552757615526613e11565b5b835b8181101561556e57805167ffffffffffffffff81111561554c5761554b613d54565b5b80860161555989826153a7565b85526020850194505050602081019050615529565b5050509392505050565b600082601f83011261558d5761558c613d54565b5b815161559d8482602086016154f1565b91505092915050565b600060e082840312156155bc576155bb614ffe565b5b6155c660e0613dca565b905060006155d684828501615008565b60008301525060206155ea8482850161501d565b602083015250604082015167ffffffffffffffff81111561560e5761560d615003565b5b61561a8482850161516c565b604083015250606082015167ffffffffffffffff81111561563e5761563d615003565b5b61564a84828501615578565b606083015250608082015167ffffffffffffffff81111561566e5761566d615003565b5b61567a8482850161523e565b60808301525060a061568e8482850161508a565b60a08301525060c06156a28482850161508a565b60c08301525092915050565b6000602082840312156156c4576156c3613b8e565b5b600082015167ffffffffffffffff8111156156e2576156e1613b93565b5b6156ee848285016155a6565b91505092915050565b7f4e487b7100000000000000000000000000000000000000000000000000000000600052602160045260246000fd5b7f496e76616c696420646973707574652073746174757300000000000000000000600082015250565b600061575c601683614a17565b915061576782615726565b602082019050919050565b6000602082019050818103600083015261578b8161574f565b9050919050565b600061579d82614203565b91506157a883614203565b9250828201905067ffffffffffffffff8111156157c8576157c7614be5565b5b92915050565b7f446973707574652077696e646f7720636c6f7365640000000000000000000000600082015250565b6000615804601583614a17565b915061580f826157ce565b602082019050919050565b60006020820190508181036000830152615833816157f7565b9050919050565b61584381613b48565b82525050565b600060408201905081810360008301526158638185614f69565b9050615872602083018461583a565b9392505050565b7f4e487b7100000000000000000000000000000000000000000000000000000000600052602260045260246000fd5b600060028204905060018216806158c057607f821691505b6020821081036158d3576158d2615879565b5b50919050565b60008190508160005260206000209050919050565b60006020601f8301049050919050565b600082821b905092915050565b60006008830261593b7fffffffffffffffffffffffffffffffffffffffffffffffffffffffffffffffff826158fe565b61594586836158fe565b95508019841693508086168417925050509392505050565b600061597861597361596e84613bc4565b6149c1565b613bc4565b9050919050565b6000819050919050565b6159928361595d565b6159a661599e8261597f565b84845461590b565b825550505050565b600090565b6159bb6159ae565b6159c6818484615989565b505050565b5b818110156159ea576159df6000826159b3565b6001810190506159cc565b5050565b601f821115615a2f57615a00816158d9565b615a09846158ee565b81016020851015615a18578190505b615a2c615a24856158ee565b8301826159cb565b50505b505050565b600082821c905092915050565b6000615a5260001984600802615a34565b1980831691505092915050565b6000615a6b8383615a41565b9150826002028217905092915050565b615a8482614685565b67ffffffffffffffff811115615a9d57615a9c613d6a565b5b615aa782546158a8565b615ab28282856159ee565b600060209050601f831160018114615ae55760008415615ad3578287015190505b615add8582615a5f565b865550615b45565b601f198416615af3866158d9565b60005b82811015615b1b57848901518255600182019150602085019450602081019050615af6565b86831015615b385784890151615b34601f891682615a41565b8355505b6001600288020188555050505b505050505050565b6000602082019050615b626000830184614242565b92915050565b7f526571756972652044657820537570706f727465720000000000000000000000600082015250565b6000615b9e601583614a17565b9150615ba982615b68565b602082019050919050565b60006020820190508181036000830152615bcd81615b91565b9050919050565b615bdd81614203565b8114615be857600080fd5b50565b600081519050615bfa81615bd4565b92915050565b600060a08284031215615c1657615c15614ffe565b5b615c2060a0613dca565b90506000615c308482850161501d565b6000830152506020615c448482850161501d565b6020830152506040615c588482850161508a565b6040830152506060615c6c84828501615beb565b6060830152506080615c808482850161508a565b60808301525092915050565b600060a08284031215615ca257615ca1613b8e565b5b6000615cb084828501615c00565b91505092915050565b7f416d6f756e74206d7573742062796573652067726561746572207468616e207a60008201527f65726f0000000000000000000000000000000000000000000000000000000000602082015250565b6000615d15602383614a17565b9150615d2082615cb9565b604082019050919050565b60006020820190508181036000830152615d4481615d08565b9050919050565b7f5369676e61747572652045787069726564000000000000000000000000000000600082015250565b6000615d81601183614a17565b9150615d8c82615d4b565b602082019050919050565b60006020820190508181036000830152615db081615d74565b9050919050565b600080fd5b600080fd5b600080fd5b60008083356001602003843603038112615de357615de2615db7565b5b80840192508235915067ffffffffffffffff821115615e0557615e04615dbc565b5b602083019250600182023603831315615e2157615e20615dc1565b5b509250929050565b600081905092915050565b6000615e408385615e29565b9350615e4d838584614f07565b82840190509392505050565b6000615e66828486615e34565b91508190509392505050565b6000615e7d8261400f565b9150615e888361400f565b9250828201905063ffffffff811115615ea457615ea3614be5565b5b9291505056fea26469706673582212208026b5fa5b2f2fdf0077f837b2f7dc4800e6feadc2e5f07741dbff33d0347e7264736f6c63430008180033",
  "linkReferences": {
    "contracts/0xVault/libs/Crypto.sol": {
      "Crypto": [
        {
          "length": 20,
          "start": 3929
        },
        {
          "length": 20,
          "start": 4277
        },
        {
          "length": 20,
          "start": 6662
        },
        {
          "length": 20,
          "start": 10011
        },
        {
          "length": 20,
          "start": 10243
        }
      ]
    }
  },
  "deployedLinkReferences": {
    "contracts/0xVault/libs/Crypto.sol": {
      "Crypto": [
        {
          "length": 20,
          "start": 3896
        },
        {
          "length": 20,
          "start": 4244
        },
        {
          "length": 20,
          "start": 6629
        },
        {
          "length": 20,
          "start": 9978
        },
        {
          "length": 20,
          "start": 10210
        }
      ]
    }
  }
}