{
  "_format": "hh-sol-artifact-1",
  "contractName": "DexSupporter",
  "sourceName": "contracts/0xVault/DexSupporter.sol",
  "abi": [
    {
      "inputs": [
        {
          "internalType": "address",
          "name": "_vault",
          "type": "address"
        },
        {
          "internalType": "address",
          "name": "_supraVerifier",
          "type": "address"
        },
        {
          "internalType": "address",
          "name": "_supraStorageOracle",
          "type": "address"
        },
        {
          "internalType": "address",
          "name": "_lpProvider",
          "type": "address"
        }
      ],
      "stateMutability": "nonpayable",
      "type": "constructor"
    },
    {
      "inputs": [],
      "name": "InvalidSchnorrSignature",
      "type": "error"
    },
    {
      "anonymous": false,
      "inputs": [
        {
          "indexed": true,
          "internalType": "address",
          "name": "previousOwner",
          "type": "address"
        },
        {
          "indexed": true,
          "internalType": "address",
          "name": "newOwner",
          "type": "address"
        }
      ],
      "name": "OwnershipTransferred",
      "type": "event"
    },
    {
      "inputs": [
        {
          "internalType": "uint32",
          "name": "requestId",
          "type": "uint32"
        },
        {
          "components": [
            {
              "internalType": "string",
              "name": "positionId",
              "type": "string"
            },
            {
              "internalType": "bytes",
              "name": "proofBytes",
              "type": "bytes"
            }
          ],
          "internalType": "struct Crypto.LiquidatedPosition[]",
          "name": "positions",
          "type": "tuple[]"
        }
      ],
      "name": "challengeLiquidatedPosition",
      "outputs": [],
      "stateMutability": "nonpayable",
      "type": "function"
    },
    {
      "inputs": [
        {
          "internalType": "address",
          "name": "user",
          "type": "address"
        },
        {
          "components": [
            {
              "internalType": "bytes",
              "name": "data",
              "type": "bytes"
            },
            {
              "internalType": "bytes",
              "name": "signature",
              "type": "bytes"
            },
            {
              "internalType": "address",
              "name": "combinedPublicKey",
              "type": "address"
            }
          ],
          "internalType": "struct Crypto.SchnorrSignature",
          "name": "_schnorr",
          "type": "tuple"
        }
      ],
      "name": "liquidatePartially",
      "outputs": [],
      "stateMutability": "nonpayable",
      "type": "function"
    },
    {
      "inputs": [],
      "name": "lpProvider",
      "outputs": [
        {
          "internalType": "address",
          "name": "",
          "type": "address"
        }
      ],
      "stateMutability": "view",
      "type": "function"
    },
    {
      "inputs": [],
      "name": "owner",
      "outputs": [
        {
          "internalType": "address",
          "name": "",
          "type": "address"
        }
      ],
      "stateMutability": "view",
      "type": "function"
    },
    {
      "inputs": [],
      "name": "renounceOwnership",
      "outputs": [],
      "stateMutability": "nonpayable",
      "type": "function"
    },
    {
      "inputs": [
        {
          "internalType": "address",
          "name": "_vault",
          "type": "address"
        }
      ],
      "name": "setVault",
      "outputs": [],
      "stateMutability": "nonpayable",
      "type": "function"
    },
    {
      "inputs": [
        {
          "internalType": "uint32",
          "name": "requestId",
          "type": "uint32"
        }
      ],
      "name": "settleDispute",
      "outputs": [],
      "stateMutability": "nonpayable",
      "type": "function"
    },
    {
      "inputs": [],
      "name": "supraStorageOracle",
      "outputs": [
        {
          "internalType": "address",
          "name": "",
          "type": "address"
        }
      ],
      "stateMutability": "view",
      "type": "function"
    },
    {
      "inputs": [],
      "name": "supraVerifier",
      "outputs": [
        {
          "internalType": "address",
          "name": "",
          "type": "address"
        }
      ],
      "stateMutability": "view",
      "type": "function"
    },
    {
      "inputs": [
        {
          "internalType": "address",
          "name": "newOwner",
          "type": "address"
        }
      ],
      "name": "transferOwnership",
      "outputs": [],
      "stateMutability": "nonpayable",
      "type": "function"
    },
    {
      "inputs": [],
      "name": "vault",
      "outputs": [
        {
          "internalType": "contract IVault",
          "name": "",
          "type": "address"
        }
      ],
      "stateMutability": "view",
      "type": "function"
    }
  ],
  "bytecode": "0x60806040523480156200001157600080fd5b5060405162004de538038062004de583398181016040528101906200003791906200029b565b620000576200004b6200016560201b60201c565b6200016d60201b60201c565b83600160006101000a81548173ffffffffffffffffffffffffffffffffffffffff021916908373ffffffffffffffffffffffffffffffffffffffff16021790555082600260006101000a81548173ffffffffffffffffffffffffffffffffffffffff021916908373ffffffffffffffffffffffffffffffffffffffff16021790555081600360006101000a81548173ffffffffffffffffffffffffffffffffffffffff021916908373ffffffffffffffffffffffffffffffffffffffff16021790555080600460006101000a81548173ffffffffffffffffffffffffffffffffffffffff021916908373ffffffffffffffffffffffffffffffffffffffff160217905550505050506200030d565b600033905090565b60008060009054906101000a900473ffffffffffffffffffffffffffffffffffffffff169050816000806101000a81548173ffffffffffffffffffffffffffffffffffffffff021916908373ffffffffffffffffffffffffffffffffffffffff1602179055508173ffffffffffffffffffffffffffffffffffffffff168173ffffffffffffffffffffffffffffffffffffffff167f8be0079c531659141344cd1fd0a4f28419497f9722a3daafe3b4186f6b6457e060405160405180910390a35050565b600080fd5b600073ffffffffffffffffffffffffffffffffffffffff82169050919050565b6000620002638262000236565b9050919050565b620002758162000256565b81146200028157600080fd5b50565b60008151905062000295816200026a565b92915050565b60008060008060808587031215620002b857620002b762000231565b5b6000620002c88782880162000284565b9450506020620002db8782880162000284565b9350506040620002ee8782880162000284565b9250506060620003018782880162000284565b91505092959194509250565b614ac8806200031d6000396000f3fe608060405234801561001057600080fd5b50600436106100a95760003560e01c8063715018a611610071578063715018a61461013e5780638da5cb5b1461014857806393d4f6d914610166578063f0c9738e14610182578063f2fde38b146101a0578063fbfa77cf146101bc576100a9565b80630d235817146100ae57806327482c0f146100cc57806346080f80146100e857806348a0f1e4146101045780636817031b14610122575b600080fd5b6100b66101da565b6040516100c3919061218d565b60405180910390f35b6100e660048036038101906100e191906121f8565b610200565b005b61010260048036038101906100fd9190612275565b610c8a565b005b61010c61150d565b604051610119919061218d565b60405180910390f35b61013c600480360381019061013791906122d1565b611533565b005b61014661157f565b005b610150611593565b60405161015d919061218d565b60405180910390f35b610180600480360381019061017b919061265d565b6115bc565b005b61018a611dd0565b604051610197919061218d565b60405180910390f35b6101ba60048036038101906101b591906122d1565b611df6565b005b6101c4611e79565b6040516101d19190612718565b60405180910390f35b600460009054906101000a900473ffffffffffffffffffffffffffffffffffffffff1681565b6000806000600160009054906101000a900473ffffffffffffffffffffffffffffffffffffffff1673ffffffffffffffffffffffffffffffffffffffff1663e917bdcc856040518263ffffffff1660e01b81526004016102609190612742565b606060405180830381865afa15801561027d573d6000803e3d6000fd5b505050506040513d601f19601f820116820180604052508101906102a191906127ea565b925092509250826102e7576040517f08c379a00000000000000000000000000000000000000000000000000000000081526004016102de9061289a565b60405180910390fd5b610708826102f591906128e9565b67ffffffffffffffff164211610340576040517f08c379a000000000000000000000000000000000000000000000000000000000815260040161033790612971565b60405180910390fd5b6000600160009054906101000a900473ffffffffffffffffffffffffffffffffffffffff1673ffffffffffffffffffffffffffffffffffffffff1663ed9facad866040518263ffffffff1660e01b815260040161039d9190612742565b600060405180830381865afa1580156103ba573d6000803e3d6000fd5b505050506040513d6000823e3d601f19601f820116820180604052508101906103e39190612dc7565b90506000600160009054906101000a900473ffffffffffffffffffffffffffffffffffffffff1673ffffffffffffffffffffffffffffffffffffffff1663c2dd56bc876040518263ffffffff1660e01b81526004016104429190612742565b600060405180830381865afa15801561045f573d6000803e3d6000fd5b505050506040513d6000823e3d601f19601f820116820180604052508101906104889190612f37565b90506000815167ffffffffffffffff8111156104a7576104a6612314565b5b6040519080825280602002602001820160405280156104d55781602001602082028036833780820191505090505b50905060005b825181101561052f578281815181106104f7576104f6612f80565b5b60200260200101516040015182828151811061051657610515612f80565b5b60200260200101818152505080806001019150506104db565b5060005b835181101561099c57600084828151811061055157610550612f80565b5b602002602001015160600151031561098f576000600360009054906101000a900473ffffffffffffffffffffffffffffffffffffffff1673ffffffffffffffffffffffffffffffffffffffff166389b94ea28684815181106105b6576105b5612f80565b5b6020026020010151602001516040518263ffffffff1660e01b81526004016105de9190612fbe565b608060405180830381865afa1580156105fb573d6000803e3d6000fd5b505050506040513d601f19601f8201168201806040525081019061061f9190613051565b9050600085838151811061063657610635612f80565b5b6020026020010151610100015182606001516106529190613088565b905085838151811061066757610666612f80565b5b602002602001015160c001516106845780610681906130cb565b90505b600086848151811061069957610698612f80565b5b602002602001015161010001518785815181106106b9576106b8612f80565b5b602002602001015160800151836106d09190613113565b6106da91906131ba565b60016106e69190613224565b905060008112156106f95750505061098f565b600081905060005b88868151811061071457610713612f80565b5b602002602001015160e0015151811015610989576000600360009054906101000a900473ffffffffffffffffffffffffffffffffffffffff1673ffffffffffffffffffffffffffffffffffffffff166389b94ea28b898151811061077b5761077a612f80565b5b602002602001015160e00151848151811061079957610798612f80565b5b6020026020010151600001516040518263ffffffff1660e01b81526004016107c19190612fbe565b608060405180830381865afa1580156107de573d6000803e3d6000fd5b505050506040513d601f19601f820116820180604052508101906108029190613051565b90506000816020015182606001516018868e8c8151811061082657610825612f80565b5b602002602001015160e00151878151811061084457610843612f80565b5b60200260200101516040015161085a9190613268565b61086491906132aa565b61086e9190613268565b61087891906132aa565b905060005b8a51811015610936578b898151811061089957610898612f80565b5b60200260200101516040015173ffffffffffffffffffffffffffffffffffffffff168b82815181106108ce576108cd612f80565b5b60200260200101516020015173ffffffffffffffffffffffffffffffffffffffff160361092957818a828151811061090957610908612f80565b5b6020026020010181815161091d91906132db565b91508181525050610936565b808060010191505061087d565b5060008b898151811061094c5761094b612f80565b5b602002602001015160e00151848151811061096a57610969612f80565b5b6020026020010151604001818152505050508080600101915050610701565b50505050505b8080600101915050610533565b506000825167ffffffffffffffff8111156109ba576109b9612314565b5b6040519080825280602002602001820160405280156109e85781602001602082028036833780820191505090505b5090506000835167ffffffffffffffff811115610a0857610a07612314565b5b604051908082528060200260200182016040528015610a365781602001602082028036833780820191505090505b50905060005b8451811015610beb576000858281518110610a5a57610a59612f80565b5b60200260200101516020015190506000858381518110610a7d57610a7c612f80565b5b602002602001015190506000600160009054906101000a900473ffffffffffffffffffffffffffffffffffffffff1673ffffffffffffffffffffffffffffffffffffffff1663e0c32ec48b856040518363ffffffff1660e01b8152600401610ae692919061330f565b602060405180830381865afa158015610b03573d6000803e3d6000fd5b505050506040513d601f19601f82011682018060405250810190610b279190613338565b905080821115610b88578082610b3d9190613365565b868581518110610b5057610b4f612f80565b5b6020026020010181815250506001858581518110610b7157610b70612f80565b5b602002602001019015159081151581525050610bdb565b8181610b949190613365565b868581518110610ba757610ba6612f80565b5b6020026020010181815250506000858581518110610bc857610bc7612f80565b5b6020026020010190151590811515815250505b5050508080600101915050610a3c565b50600160009054906101000a900473ffffffffffffffffffffffffffffffffffffffff1673ffffffffffffffffffffffffffffffffffffffff1663bf1e9ef58a8585856040518563ffffffff1660e01b8152600401610c4d9493929190613515565b600060405180830381600087803b158015610c6757600080fd5b505af1158015610c7b573d6000803e3d6000fd5b50505050505050505050505050565b600073__$50e9592bd68e5211c3a496048a4809ad3a$__6306d02c88836040518263ffffffff1660e01b8152600401610cc391906136b8565b600060405180830381865af4158015610ce0573d6000803e3d6000fd5b505050506040513d6000823e3d601f19601f82011682018060405250810190610d0991906137e3565b90508273ffffffffffffffffffffffffffffffffffffffff16816020015173ffffffffffffffffffffffffffffffffffffffff1614610d74576040517ff08f7bd800000000000000000000000000000000000000000000000000000000815260040160405180910390fd5b73__$50e9592bd68e5211c3a496048a4809ad3a$__63bc018c4083600160009054906101000a900473ffffffffffffffffffffffffffffffffffffffff1673ffffffffffffffffffffffffffffffffffffffff1663e41cff6485602001516040518263ffffffff1660e01b8152600401610dee919061218d565b602060405180830381865afa158015610e0b573d6000803e3d6000fd5b505050506040513d601f19601f82011682018060405250810190610e2f919061382c565b6040518363ffffffff1660e01b8152600401610e4c929190613868565b602060405180830381865af4158015610e69573d6000803e3d6000fd5b505050506040513d601f19601f82011682018060405250810190610e8d9190613898565b610ec3576040517ff08f7bd800000000000000000000000000000000000000000000000000000000815260040160405180910390fd5b6000816040015151905060008167ffffffffffffffff811115610ee957610ee8612314565b5b604051908082528060200260200182016040528015610f2257816020015b610f0f612115565b815260200190600190039081610f075790505b50905060005b82811015610fd157604051806060016040528085604001518381518110610f5257610f51612f80565b5b602002602001015160000151815260200185604001518381518110610f7a57610f79612f80565b5b60200260200101516020015173ffffffffffffffffffffffffffffffffffffffff1681526020016000815250828281518110610fb957610fb8612f80565b5b60200260200101819052508080600101915050610f28565b5060005b828110156110d15760005b82518110156110c357828181518110610ffc57610ffb612f80565b5b60200260200101516020015173ffffffffffffffffffffffffffffffffffffffff168560400151838151811061103557611034612f80565b5b60200260200101516020015173ffffffffffffffffffffffffffffffffffffffff16036110b6578460400151828151811061107357611072612f80565b5b60200260200101516040015183828151811061109257611091612f80565b5b60200260200101516040018181516110aa91906132db565b915081815250506110c3565b8080600101915050610fe0565b508080600101915050610fd5565b506000836060015151905060005b8181101561121d5760005b8560600151828151811061110157611100612f80565b5b602002602001015160e001515181101561120f5760008660600151838151811061112e5761112d612f80565b5b602002602001015160e00151828151811061114c5761114b612f80565b5b6020026020010151905060005b85518110156112005785818151811061117557611174612f80565b5b60200260200101516020015173ffffffffffffffffffffffffffffffffffffffff16826020015173ffffffffffffffffffffffffffffffffffffffff16036111f35781604001518682815181106111cf576111ce612f80565b5b60200260200101516040018181516111e791906132db565b91508181525050611200565b8080600101915050611159565b505080806001019150506110ea565b5080806001019150506110df565b5060008367ffffffffffffffff81111561123a57611239612314565b5b6040519080825280602002602001820160405280156112685781602001602082028036833780820191505090505b50905060008467ffffffffffffffff81111561128757611286612314565b5b6040519080825280602002602001820160405280156112b55781602001602082028036833780820191505090505b5090506000805b8681101561146e576000886040015182815181106112dd576112dc612f80565b5b60200260200101516020015190506000600160009054906101000a900473ffffffffffffffffffffffffffffffffffffffff1673ffffffffffffffffffffffffffffffffffffffff1663e0c32ec433846040518363ffffffff1660e01b815260040161134a92919061330f565b602060405180830381865afa158015611367573d6000803e3d6000fd5b505050506040513d601f19601f8201168201806040525081019061138b9190613338565b905060008884815181106113a2576113a1612f80565b5b60200260200101516040015182111561145e578884815181106113c8576113c7612f80565b5b602002602001015160400151826113df9190613365565b9050828786815181106113f5576113f4612f80565b5b602002602001019073ffffffffffffffffffffffffffffffffffffffff16908173ffffffffffffffffffffffffffffffffffffffff16815250508086868151811061144357611442612f80565b5b602002602001018181525050848061145a906138c5565b9550505b50505080806001019150506112bc565b50600160009054906101000a900473ffffffffffffffffffffffffffffffffffffffff1673ffffffffffffffffffffffffffffffffffffffff16638a7be80b338585856040518563ffffffff1660e01b81526004016114d094939291906139cb565b600060405180830381600087803b1580156114ea57600080fd5b505af11580156114fe573d6000803e3d6000fd5b50505050505050505050505050565b600260009054906101000a900473ffffffffffffffffffffffffffffffffffffffff1681565b61153b611e9f565b80600160006101000a81548173ffffffffffffffffffffffffffffffffffffffff021916908373ffffffffffffffffffffffffffffffffffffffff16021790555050565b611587611e9f565b6115916000611f1d565b565b60008060009054906101000a900473ffffffffffffffffffffffffffffffffffffffff16905090565b6000815190506000806000600160009054906101000a900473ffffffffffffffffffffffffffffffffffffffff1673ffffffffffffffffffffffffffffffffffffffff1663e917bdcc876040518263ffffffff1660e01b81526004016116229190612742565b606060405180830381865afa15801561163f573d6000803e3d6000fd5b505050506040513d601f19601f8201168201806040525081019061166391906127ea565b925092509250826116a9576040517f08c379a00000000000000000000000000000000000000000000000000000000081526004016116a09061289a565b60405180910390fd5b610708826116b791906128e9565b67ffffffffffffffff164210611702576040517f08c379a00000000000000000000000000000000000000000000000000000000081526004016116f990613a6a565b60405180910390fd5b60005b8481101561185957600073__$d02b2c628b0952c6267cc0a3b566223c93$__63bc79fd2388848151811061173c5761173b612f80565b5b6020026020010151602001516040518263ffffffff1660e01b81526004016117649190613adf565b600060405180830381865af4158015611781573d6000803e3d6000fd5b505050506040513d6000823e3d601f19601f820116820180604052508101906117aa91906141c4565b90506000816000015151905060005b818110156118495761183c836000015182815181106117db576117da612f80565b5b602002602001015160200151846000015183815181106117fe576117fd612f80565b5b6020026020010151604001518560000151848151811061182157611820612f80565b5b60200260200101516000015167ffffffffffffffff16611fe1565b80806001019150506117b9565b5050508080600101915050611705565b506000600160009054906101000a900473ffffffffffffffffffffffffffffffffffffffff1673ffffffffffffffffffffffffffffffffffffffff1663ed9facad886040518263ffffffff1660e01b81526004016118b79190612742565b600060405180830381865afa1580156118d4573d6000803e3d6000fd5b505050506040513d6000823e3d601f19601f820116820180604052508101906118fd9190612dc7565b90506000600160009054906101000a900473ffffffffffffffffffffffffffffffffffffffff1673ffffffffffffffffffffffffffffffffffffffff1663c2dd56bc896040518263ffffffff1660e01b815260040161195c9190612742565b600060405180830381865afa158015611979573d6000803e3d6000fd5b505050506040513d6000823e3d601f19601f820116820180604052508101906119a29190612f37565b90506000825167ffffffffffffffff8111156119c1576119c0612314565b5b6040519080825280602002602001820160405280156119ef5781602001602082028036833780820191505090505b50905060008060005b8551811015611d2f576001868281518110611a1657611a15612f80565b5b6020026020010151608001510315611d225760005b8a811015611d20578b8181518110611a4657611a45612f80565b5b60200260200101516000015180519060200120878381518110611a6c57611a6b612f80565b5b6020026020010151600001518051906020012003611d13576060600073__$d02b2c628b0952c6267cc0a3b566223c93$__63bc79fd238f8581518110611ab557611ab4612f80565b5b6020026020010151602001516040518263ffffffff1660e01b8152600401611add9190613adf565b600060405180830381865af4158015611afa573d6000803e3d6000fd5b505050506040513d6000823e3d601f19601f82011682018060405250810190611b2391906141c4565b90506000805b826000015151811015611bd057600083600001518281518110611b4f57611b4e612f80565b5b60200260200101516060015160000151905060005b8151811015611bc157818181518110611b8057611b7f612f80565b5b6020026020010151868581518110611b9b57611b9a612f80565b5b60200260200101819052508380611bb1906138c5565b9450508080600101915050611b64565b50508080600101915050611b29565b5073__$ed7edcf5897336b7ef9a2feda8ea09bc03$__63e499f2158b8781518110611bfe57611bfd612f80565b5b6020026020010151858c6040518463ffffffff1660e01b8152600401611c26939291906146b0565b602060405180830381865af4158015611c43573d6000803e3d6000fd5b505050506040513d601f19601f82011682018060405250810190611c679190613898565b15611d0f5784888881518110611c8057611c7f612f80565b5b6020026020010181815250508680611c97906138c5565b975050604051602001611ca990614753565b604051602081830303815290604052805190602001208a8681518110611cd257611cd1612f80565b5b602002602001015160a00151604051602001611cee9190614799565b6040516020818303038152906040528051906020012003611d0e57600195505b5b5050505b8080600101915050611a2b565b505b80806001019150506119f8565b50600160009054906101000a900473ffffffffffffffffffffffffffffffffffffffff1673ffffffffffffffffffffffffffffffffffffffff1663923fec2a8c8585856040518563ffffffff1660e01b8152600401611d9194939291906147bf565b600060405180830381600087803b158015611dab57600080fd5b505af1158015611dbf573d6000803e3d6000fd5b505050505050505050505050505050565b600360009054906101000a900473ffffffffffffffffffffffffffffffffffffffff1681565b611dfe611e9f565b600073ffffffffffffffffffffffffffffffffffffffff168173ffffffffffffffffffffffffffffffffffffffff1603611e6d576040517f08c379a0000000000000000000000000000000000000000000000000000000008152600401611e649061487d565b60405180910390fd5b611e7681611f1d565b50565b600160009054906101000a900473ffffffffffffffffffffffffffffffffffffffff1681565b611ea761210d565b73ffffffffffffffffffffffffffffffffffffffff16611ec5611593565b73ffffffffffffffffffffffffffffffffffffffff1614611f1b576040517f08c379a0000000000000000000000000000000000000000000000000000000008152600401611f12906148e9565b60405180910390fd5b565b60008060009054906101000a900473ffffffffffffffffffffffffffffffffffffffff169050816000806101000a81548173ffffffffffffffffffffffffffffffffffffffff021916908373ffffffffffffffffffffffffffffffffffffffff1602179055508173ffffffffffffffffffffffffffffffffffffffff168173ffffffffffffffffffffffffffffffffffffffff167f8be0079c531659141344cd1fd0a4f28419497f9722a3daafe3b4186f6b6457e060405160405180910390a35050565b6000600260009054906101000a900473ffffffffffffffffffffffffffffffffffffffff1673ffffffffffffffffffffffffffffffffffffffff168484846040516024016120319392919061499c565b604051602081830303815290604052632818300e60e01b6020820180517bffffffffffffffffffffffffffffffffffffffffffffffffffffffff83818316178352505050506040516120839190614a0f565b600060405180830381855afa9150503d80600081146120be576040519150601f19603f3d011682016040523d82523d6000602084013e6120c3565b606091505b5050905080612107576040517f08c379a00000000000000000000000000000000000000000000000000000000081526004016120fe90614a72565b60405180910390fd5b50505050565b600033905090565b604051806060016040528060008152602001600073ffffffffffffffffffffffffffffffffffffffff168152602001600081525090565b600073ffffffffffffffffffffffffffffffffffffffff82169050919050565b60006121778261214c565b9050919050565b6121878161216c565b82525050565b60006020820190506121a2600083018461217e565b92915050565b6000604051905090565b600080fd5b600080fd5b600063ffffffff82169050919050565b6121d5816121bc565b81146121e057600080fd5b50565b6000813590506121f2816121cc565b92915050565b60006020828403121561220e5761220d6121b2565b5b600061221c848285016121e3565b91505092915050565b61222e8161216c565b811461223957600080fd5b50565b60008135905061224b81612225565b92915050565b600080fd5b60006060828403121561226c5761226b612251565b5b81905092915050565b6000806040838503121561228c5761228b6121b2565b5b600061229a8582860161223c565b925050602083013567ffffffffffffffff8111156122bb576122ba6121b7565b5b6122c785828601612256565b9150509250929050565b6000602082840312156122e7576122e66121b2565b5b60006122f58482850161223c565b91505092915050565b600080fd5b6000601f19601f8301169050919050565b7f4e487b7100000000000000000000000000000000000000000000000000000000600052604160045260246000fd5b61234c82612303565b810181811067ffffffffffffffff8211171561236b5761236a612314565b5b80604052505050565b600061237e6121a8565b905061238a8282612343565b919050565b600067ffffffffffffffff8211156123aa576123a9612314565b5b602082029050602081019050919050565b600080fd5b600080fd5b600080fd5b600080fd5b600067ffffffffffffffff8211156123ea576123e9612314565b5b6123f382612303565b9050602081019050919050565b82818337600083830152505050565b600061242261241d846123cf565b612374565b90508281526020810184848401111561243e5761243d6123ca565b5b612449848285612400565b509392505050565b600082601f830112612466576124656122fe565b5b813561247684826020860161240f565b91505092915050565b600067ffffffffffffffff82111561249a57612499612314565b5b6124a382612303565b9050602081019050919050565b60006124c36124be8461247f565b612374565b9050828152602081018484840111156124df576124de6123ca565b5b6124ea848285612400565b509392505050565b600082601f830112612507576125066122fe565b5b81356125178482602086016124b0565b91505092915050565b600060408284031215612536576125356123c0565b5b6125406040612374565b9050600082013567ffffffffffffffff8111156125605761255f6123c5565b5b61256c84828501612451565b600083015250602082013567ffffffffffffffff8111156125905761258f6123c5565b5b61259c848285016124f2565b60208301525092915050565b60006125bb6125b68461238f565b612374565b905080838252602082019050602084028301858111156125de576125dd6123bb565b5b835b8181101561262557803567ffffffffffffffff811115612603576126026122fe565b5b8086016126108982612520565b855260208501945050506020810190506125e0565b5050509392505050565b600082601f830112612644576126436122fe565b5b81356126548482602086016125a8565b91505092915050565b60008060408385031215612674576126736121b2565b5b6000612682858286016121e3565b925050602083013567ffffffffffffffff8111156126a3576126a26121b7565b5b6126af8582860161262f565b9150509250929050565b6000819050919050565b60006126de6126d96126d48461214c565b6126b9565b61214c565b9050919050565b60006126f0826126c3565b9050919050565b6000612702826126e5565b9050919050565b612712816126f7565b82525050565b600060208201905061272d6000830184612709565b92915050565b61273c816121bc565b82525050565b60006020820190506127576000830184612733565b92915050565b60008115159050919050565b6127728161275d565b811461277d57600080fd5b50565b60008151905061278f81612769565b92915050565b600067ffffffffffffffff82169050919050565b6127b281612795565b81146127bd57600080fd5b50565b6000815190506127cf816127a9565b92915050565b6000815190506127e481612225565b92915050565b600080600060608486031215612803576128026121b2565b5b600061281186828701612780565b9350506020612822868287016127c0565b9250506040612833868287016127d5565b9150509250925092565b600082825260208201905092915050565b7f496e76616c696420646973707574652073746174757300000000000000000000600082015250565b600061288460168361283d565b915061288f8261284e565b602082019050919050565b600060208201905081810360008301526128b381612877565b9050919050565b7f4e487b7100000000000000000000000000000000000000000000000000000000600052601160045260246000fd5b60006128f482612795565b91506128ff83612795565b9250828201905067ffffffffffffffff81111561291f5761291e6128ba565b5b92915050565b7f446973707574652077696e646f77206e6f7420636c6f73656400000000000000600082015250565b600061295b60198361283d565b915061296682612925565b602082019050919050565b6000602082019050818103600083015261298a8161294e565b9050919050565b600067ffffffffffffffff8211156129ac576129ab612314565b5b602082029050602081019050919050565b60005b838110156129db5780820151818401526020810190506129c0565b60008484015250505050565b60006129fa6129f5846123cf565b612374565b905082815260208101848484011115612a1657612a156123ca565b5b612a218482856129bd565b509392505050565b600082601f830112612a3e57612a3d6122fe565b5b8151612a4e8482602086016129e7565b91505092915050565b6000819050919050565b612a6a81612a57565b8114612a7557600080fd5b50565b600081519050612a8781612a61565b92915050565b600067ffffffffffffffff821115612aa857612aa7612314565b5b602082029050602081019050919050565b600060808284031215612acf57612ace6123c0565b5b612ad96080612374565b90506000612ae984828501612a78565b6000830152506020612afd848285016127d5565b6020830152506040612b1184828501612a78565b6040830152506060612b2584828501612a78565b60608301525092915050565b6000612b44612b3f84612a8d565b612374565b90508083825260208201905060808402830185811115612b6757612b666123bb565b5b835b81811015612b905780612b7c8882612ab9565b845260208401935050608081019050612b69565b5050509392505050565b600082601f830112612baf57612bae6122fe565b5b8151612bbf848260208601612b31565b91505092915050565b60006101408284031215612bdf57612bde6123c0565b5b612bea610140612374565b9050600082015167ffffffffffffffff811115612c0a57612c096123c5565b5b612c1684828501612a29565b6000830152506020612c2a84828501612a78565b6020830152506040612c3e848285016127d5565b6040830152506060612c5284828501612a78565b6060830152506080612c6684828501612a78565b60808301525060a082015167ffffffffffffffff811115612c8a57612c896123c5565b5b612c9684828501612a29565b60a08301525060c0612caa84828501612780565b60c08301525060e082015167ffffffffffffffff811115612cce57612ccd6123c5565b5b612cda84828501612b9a565b60e083015250610100612cef84828501612a78565b61010083015250610120612d0584828501612a78565b6101208301525092915050565b6000612d25612d2084612991565b612374565b90508083825260208201905060208402830185811115612d4857612d476123bb565b5b835b81811015612d8f57805167ffffffffffffffff811115612d6d57612d6c6122fe565b5b808601612d7a8982612bc8565b85526020850194505050602081019050612d4a565b5050509392505050565b600082601f830112612dae57612dad6122fe565b5b8151612dbe848260208601612d12565b91505092915050565b600060208284031215612ddd57612ddc6121b2565b5b600082015167ffffffffffffffff811115612dfb57612dfa6121b7565b5b612e0784828501612d99565b91505092915050565b600067ffffffffffffffff821115612e2b57612e2a612314565b5b602082029050602081019050919050565b600060608284031215612e5257612e516123c0565b5b612e5c6060612374565b90506000612e6c84828501612a78565b6000830152506020612e80848285016127d5565b6020830152506040612e9484828501612a78565b60408301525092915050565b6000612eb3612eae84612e10565b612374565b90508083825260208201905060608402830185811115612ed657612ed56123bb565b5b835b81811015612eff5780612eeb8882612e3c565b845260208401935050606081019050612ed8565b5050509392505050565b600082601f830112612f1e57612f1d6122fe565b5b8151612f2e848260208601612ea0565b91505092915050565b600060208284031215612f4d57612f4c6121b2565b5b600082015167ffffffffffffffff811115612f6b57612f6a6121b7565b5b612f7784828501612f09565b91505092915050565b7f4e487b7100000000000000000000000000000000000000000000000000000000600052603260045260246000fd5b612fb881612a57565b82525050565b6000602082019050612fd36000830184612faf565b92915050565b600060808284031215612fef57612fee6123c0565b5b612ff96080612374565b9050600061300984828501612a78565b600083015250602061301d84828501612a78565b602083015250604061303184828501612a78565b604083015250606061304584828501612a78565b60608301525092915050565b600060808284031215613067576130666121b2565b5b600061307584828501612fd9565b91505092915050565b6000819050919050565b60006130938261307e565b915061309e8361307e565b92508282039050818112600084121682821360008512151617156130c5576130c46128ba565b5b92915050565b60006130d68261307e565b91507f80000000000000000000000000000000000000000000000000000000000000008203613108576131076128ba565b5b816000039050919050565b600061311e8261307e565b91506131298361307e565b92508282026131378161307e565b91507f8000000000000000000000000000000000000000000000000000000000000000841460008412161561316f5761316e6128ba565b5b8282058414831517613184576131836128ba565b5b5092915050565b7f4e487b7100000000000000000000000000000000000000000000000000000000600052601260045260246000fd5b60006131c58261307e565b91506131d08361307e565b9250826131e0576131df61318b565b5b600160000383147f800000000000000000000000000000000000000000000000000000000000000083141615613219576132186128ba565b5b828205905092915050565b600061322f8261307e565b915061323a8361307e565b925082820190508281121560008312168382126000841215161715613262576132616128ba565b5b92915050565b600061327382612a57565b915061327e83612a57565b925082820261328c81612a57565b915082820484148315176132a3576132a26128ba565b5b5092915050565b60006132b582612a57565b91506132c083612a57565b9250826132d0576132cf61318b565b5b828204905092915050565b60006132e682612a57565b91506132f183612a57565b9250828201905080821115613309576133086128ba565b5b92915050565b6000604082019050613324600083018561217e565b613331602083018461217e565b9392505050565b60006020828403121561334e5761334d6121b2565b5b600061335c84828501612a78565b91505092915050565b600061337082612a57565b915061337b83612a57565b9250828203905081811115613393576133926128ba565b5b92915050565b600081519050919050565b600082825260208201905092915050565b6000819050602082019050919050565b6133ce81612a57565b82525050565b60006133e083836133c5565b60208301905092915050565b6000602082019050919050565b600061340482613399565b61340e81856133a4565b9350613419836133b5565b8060005b8381101561344a57815161343188826133d4565b975061343c836133ec565b92505060018101905061341d565b5085935050505092915050565b600081519050919050565b600082825260208201905092915050565b6000819050602082019050919050565b61348c8161275d565b82525050565b600061349e8383613483565b60208301905092915050565b6000602082019050919050565b60006134c282613457565b6134cc8185613462565b93506134d783613473565b8060005b838110156135085781516134ef8882613492565b97506134fa836134aa565b9250506001810190506134db565b5085935050505092915050565b600060808201905061352a6000830187612733565b818103602083015261353c81866133f9565b9050818103604083015261355081856133f9565b9050818103606083015261356481846134b7565b905095945050505050565b600080fd5b600080fd5b600080fd5b6000808335600160200384360303811261359b5761359a613579565b5b83810192508235915060208301925067ffffffffffffffff8211156135c3576135c261356f565b5b6001820236038313156135d9576135d8613574565b5b509250929050565b600082825260208201905092915050565b60006135fe83856135e1565b935061360b838584612400565b61361483612303565b840190509392505050565b600061362e602084018461223c565b905092915050565b61363f8161216c565b82525050565b600060608301613658600084018461357e565b858303600087015261366b8382846135f2565b9250505061367c602084018461357e565b858303602087015261368f8382846135f2565b925050506136a0604084018461361f565b6136ad6040860182613636565b508091505092915050565b600060208201905081810360008301526136d28184613645565b905092915050565b6000815190506136e9816121cc565b92915050565b600060c08284031215613705576137046123c0565b5b61370f60c0612374565b9050600061371f848285016136da565b6000830152506020613733848285016127d5565b602083015250604082015167ffffffffffffffff811115613757576137566123c5565b5b61376384828501612f09565b604083015250606082015167ffffffffffffffff811115613787576137866123c5565b5b61379384828501612d99565b606083015250608082015167ffffffffffffffff8111156137b7576137b66123c5565b5b6137c384828501612a29565b60808301525060a06137d784828501612a78565b60a08301525092915050565b6000602082840312156137f9576137f86121b2565b5b600082015167ffffffffffffffff811115613817576138166121b7565b5b613823848285016136ef565b91505092915050565b600060208284031215613842576138416121b2565b5b6000613850848285016127d5565b91505092915050565b6138628161216c565b82525050565b600060408201905081810360008301526138828185613645565b90506138916020830184613859565b9392505050565b6000602082840312156138ae576138ad6121b2565b5b60006138bc84828501612780565b91505092915050565b60006138d082612a57565b91507fffffffffffffffffffffffffffffffffffffffffffffffffffffffffffffffff8203613902576139016128ba565b5b600182019050919050565b600081519050919050565b600082825260208201905092915050565b6000819050602082019050919050565b6139428161216c565b82525050565b60006139548383613939565b60208301905092915050565b6000602082019050919050565b60006139788261390d565b6139828185613918565b935061398d83613929565b8060005b838110156139be5781516139a58882613948565b97506139b083613960565b925050600181019050613991565b5085935050505092915050565b60006080820190506139e0600083018761217e565b81810360208301526139f2818661396d565b90508181036040830152613a0681856133f9565b9050613a156060830184612faf565b95945050505050565b7f446973707574652077696e646f7720636c6f7365640000000000000000000000600082015250565b6000613a5460158361283d565b9150613a5f82613a1e565b602082019050919050565b60006020820190508181036000830152613a8381613a47565b9050919050565b600081519050919050565b600082825260208201905092915050565b6000613ab182613a8a565b613abb8185613a95565b9350613acb8185602086016129bd565b613ad481612303565b840191505092915050565b60006020820190508181036000830152613af98184613aa6565b905092915050565b600067ffffffffffffffff821115613b1c57613b1b612314565b5b602082029050602081019050919050565b6000819050919050565b613b4081613b2d565b8114613b4b57600080fd5b50565b600081519050613b5d81613b37565b92915050565b600067ffffffffffffffff821115613b7e57613b7d612314565b5b602082029050919050565b6000613b9c613b9784613b63565b612374565b90508060208402830185811115613bb657613bb56123bb565b5b835b81811015613bdf5780613bcb8882612a78565b845260208401935050602081019050613bb8565b5050509392505050565b600082601f830112613bfe57613bfd6122fe565b5b6002613c0b848285613b89565b91505092915050565b600067ffffffffffffffff821115613c2f57613c2e612314565b5b602082029050602081019050919050565b60006fffffffffffffffffffffffffffffffff82169050919050565b613c6581613c40565b8114613c7057600080fd5b50565b600081519050613c8281613c5c565b92915050565b600061ffff82169050919050565b613c9f81613c88565b8114613caa57600080fd5b50565b600081519050613cbc81613c96565b92915050565b600060a08284031215613cd857613cd76123c0565b5b613ce260a0612374565b90506000613cf2848285016136da565b6000830152506020613d0684828501613c73565b6020830152506040613d1a848285016127c0565b6040830152506060613d2e84828501613cad565b6060830152506080613d42848285016127c0565b60808301525092915050565b6000613d61613d5c84613c14565b612374565b90508083825260208201905060a08402830185811115613d8457613d836123bb565b5b835b81811015613dad5780613d998882613cc2565b84526020840193505060a081019050613d86565b5050509392505050565b600082601f830112613dcc57613dcb6122fe565b5b8151613ddc848260208601613d4e565b91505092915050565b600067ffffffffffffffff821115613e0057613dff612314565b5b602082029050602081019050919050565b6000613e24613e1f84613de5565b612374565b90508083825260208201905060208402830185811115613e4757613e466123bb565b5b835b81811015613e705780613e5c8882613b4e565b845260208401935050602081019050613e49565b5050509392505050565b600082601f830112613e8f57613e8e6122fe565b5b8151613e9f848260208601613e11565b91505092915050565b600067ffffffffffffffff821115613ec357613ec2612314565b5b602082029050602081019050919050565b6000613ee7613ee284613ea8565b612374565b90508083825260208201905060208402830185811115613f0a57613f096123bb565b5b835b81811015613f335780613f1f8882612780565b845260208401935050602081019050613f0c565b5050509392505050565b600082601f830112613f5257613f516122fe565b5b8151613f62848260208601613ed4565b91505092915050565b600060608284031215613f8157613f806123c0565b5b613f8b6060612374565b9050600082015167ffffffffffffffff811115613fab57613faa6123c5565b5b613fb784828501613db7565b600083015250602082015167ffffffffffffffff811115613fdb57613fda6123c5565b5b613fe784828501613e7a565b602083015250604082015167ffffffffffffffff81111561400b5761400a6123c5565b5b61401784828501613f3d565b60408301525092915050565b600060a08284031215614039576140386123c0565b5b6140436080612374565b90506000614053848285016127c0565b600083015250602061406784828501613b4e565b602083015250604061407b84828501613be9565b604083015250608082015167ffffffffffffffff81111561409f5761409e6123c5565b5b6140ab84828501613f6b565b60608301525092915050565b60006140ca6140c584613b01565b612374565b905080838252602082019050602084028301858111156140ed576140ec6123bb565b5b835b8181101561413457805167ffffffffffffffff811115614112576141116122fe565b5b80860161411f8982614023565b855260208501945050506020810190506140ef565b5050509392505050565b600082601f830112614153576141526122fe565b5b81516141638482602086016140b7565b91505092915050565b600060208284031215614182576141816123c0565b5b61418c6020612374565b9050600082015167ffffffffffffffff8111156141ac576141ab6123c5565b5b6141b88482850161413e565b60008301525092915050565b6000602082840312156141da576141d96121b2565b5b600082015167ffffffffffffffff8111156141f8576141f76121b7565b5b6142048482850161416c565b91505092915050565b600081519050919050565b600082825260208201905092915050565b60006142348261420d565b61423e8185614218565b935061424e8185602086016129bd565b61425781612303565b840191505092915050565b61426b81612a57565b82525050565b61427a8161275d565b82525050565b600081519050919050565b600082825260208201905092915050565b6000819050602082019050919050565b6080820160008201516142c26000850182614262565b5060208201516142d56020850182613636565b5060408201516142e86040850182614262565b5060608201516142fb6060850182614262565b50505050565b600061430d83836142ac565b60808301905092915050565b6000602082019050919050565b600061433182614280565b61433b818561428b565b93506143468361429c565b8060005b8381101561437757815161435e8882614301565b975061436983614319565b92505060018101905061434a565b5085935050505092915050565b60006101408301600083015184820360008601526143a28282614229565b91505060208301516143b76020860182614262565b5060408301516143ca6040860182613636565b5060608301516143dd6060860182614262565b5060808301516143f06080860182614262565b5060a083015184820360a08601526144088282614229565b91505060c083015161441d60c0860182614271565b5060e083015184820360e08601526144358282614326565b91505061010083015161444c610100860182614262565b50610120830151614461610120860182614262565b508091505092915050565b600081519050919050565b600082825260208201905092915050565b6000819050602082019050919050565b6144a1816121bc565b82525050565b6144b081613c40565b82525050565b6144bf81612795565b82525050565b6144ce81613c88565b82525050565b60a0820160008201516144ea6000850182614498565b5060208201516144fd60208501826144a7565b50604082015161451060408501826144b6565b50606082015161452360608501826144c5565b50608082015161453660808501826144b6565b50505050565b600061454883836144d4565b60a08301905092915050565b6000602082019050919050565b600061456c8261446c565b6145768185614477565b935061458183614488565b8060005b838110156145b2578151614599888261453c565b97506145a483614554565b925050600181019050614585565b5085935050505092915050565b600081519050919050565b600082825260208201905092915050565b6000819050602082019050919050565b6060820160008201516146016000850182614262565b5060208201516146146020850182613636565b5060408201516146276040850182614262565b50505050565b600061463983836145eb565b60608301905092915050565b6000602082019050919050565b600061465d826145bf565b61466781856145ca565b9350614672836145db565b8060005b838110156146a357815161468a888261462d565b975061469583614645565b925050600181019050614676565b5085935050505092915050565b600060608201905081810360008301526146ca8186614384565b905081810360208301526146de8185614561565b905081810360408301526146f28184614652565b9050949350505050565b600081905092915050565b7f63726f7373000000000000000000000000000000000000000000000000000000600082015250565b600061473d6005836146fc565b915061474882614707565b600582019050919050565b600061475e82614730565b9150819050919050565b60006147738261420d565b61477d81856146fc565b935061478d8185602086016129bd565b80840191505092915050565b60006147a58284614768565b915081905092915050565b6147b98161275d565b82525050565b60006080820190506147d46000830187612733565b81810360208301526147e681866133f9565b90506147f56040830185612faf565b61480260608301846147b0565b95945050505050565b7f4f776e61626c653a206e6577206f776e657220697320746865207a65726f206160008201527f6464726573730000000000000000000000000000000000000000000000000000602082015250565b600061486760268361283d565b91506148728261480b565b604082019050919050565b600060208201905081810360008301526148968161485a565b9050919050565b7f4f776e61626c653a2063616c6c6572206973206e6f7420746865206f776e6572600082015250565b60006148d360208361283d565b91506148de8261489d565b602082019050919050565b60006020820190508181036000830152614902816148c6565b9050919050565b61491281613b2d565b82525050565b600060029050919050565b600081905092915050565b6000819050919050565b6000602082019050919050565b61494e81614918565b6149588184614923565b92506149638261492e565b8060005b8381101561499457815161497b87826133d4565b965061498683614938565b925050600181019050614967565b505050505050565b60006080820190506149b16000830186614909565b6149be6020830185614945565b6149cb6060830184612faf565b949350505050565b600081905092915050565b60006149e982613a8a565b6149f381856149d3565b9350614a038185602086016129bd565b80840191505092915050565b6000614a1b82846149de565b915081905092915050565b7f44617461206e6f74207665726966696564000000000000000000000000000000600082015250565b6000614a5c60118361283d565b9150614a6782614a26565b602082019050919050565b60006020820190508181036000830152614a8b81614a4f565b905091905056fea26469706673582212200b3f19e748a688c0d2ab8bd59792be3369fe7f7b067b0cab54beef9ad33bcca164736f6c63430008180033",
  "linkReferences": {
    "contracts/0xVault/libs/Crypto.sol": {
      "Crypto": [
        {
          "length": 20,
          "start": 4011
        },
        {
          "length": 20,
          "start": 4243
        }
      ]
    },
    "contracts/0xVault/libs/Dex.sol": {
      "Dex": [
        {
          "length": 20,
          "start": 7920
        }
      ]
    },
    "contracts/0xVault/libs/SupraOracleDecoder.sol": {
      "SupraOracleDecoder": [
        {
          "length": 20,
          "start": 6702
        },
        {
          "length": 20,
          "start": 7591
        }
      ]
    }
  },
  "deployedLinkReferences": {
    "contracts/0xVault/libs/Crypto.sol": {
      "Crypto": [
        {
          "length": 20,
          "start": 3214
        },
        {
          "length": 20,
          "start": 3446
        }
      ]
    },
    "contracts/0xVault/libs/Dex.sol": {
      "Dex": [
        {
          "length": 20,
          "start": 7123
        }
      ]
    },
    "contracts/0xVault/libs/SupraOracleDecoder.sol": {
      "SupraOracleDecoder": [
        {
          "length": 20,
          "start": 5905
        },
        {
          "length": 20,
          "start": 6794
        }
      ]
    }
  }
}