{
  "_format": "hh-sol-artifact-1",
  "contractName": "Dex",
  "sourceName": "contracts/0xVault/libs/Dex.sol",
  "abi": [
    {
      "inputs": [],
      "name": "BACKSTOP_LIQUIDATION_PERCENT",
      "outputs": [
        {
          "internalType": "uint256",
          "name": "",
          "type": "uint256"
        }
      ],
      "stateMutability": "view",
      "type": "function"
    },
    {
      "inputs": [],
      "name": "MAINTENANCE_MARGIN_PERCENT",
      "outputs": [
        {
          "internalType": "uint256",
          "name": "",
          "type": "uint256"
        }
      ],
      "stateMutability": "view",
      "type": "function"
    },
    {
      "inputs": [
        {
          "components": [
            {
              "internalType": "string",
              "name": "positionId",
              "type": "string"
            },
            {
              "internalType": "uint256",
              "name": "oracleId",
              "type": "uint256"
            },
            {
              "internalType": "address",
              "name": "token",
              "type": "address"
            },
            {
              "internalType": "uint256",
              "name": "quantity",
              "type": "uint256"
            },
            {
              "internalType": "uint256",
              "name": "leverageFactor",
              "type": "uint256"
            },
            {
              "internalType": "string",
              "name": "leverageType",
              "type": "string"
            },
            {
              "internalType": "bool",
              "name": "isLong",
              "type": "bool"
            },
            {
              "components": [
                {
                  "internalType": "uint256",
                  "name": "oracleId",
                  "type": "uint256"
                },
                {
                  "internalType": "address",
                  "name": "token",
                  "type": "address"
                },
                {
                  "internalType": "uint256",
                  "name": "quantity",
                  "type": "uint256"
                },
                {
                  "internalType": "uint256",
                  "name": "entryPrice",
                  "type": "uint256"
                }
              ],
              "internalType": "struct Crypto.Collateral[]",
              "name": "collaterals",
              "type": "tuple[]"
            },
            {
              "internalType": "uint256",
              "name": "entryPrice",
              "type": "uint256"
            },
            {
              "internalType": "uint256",
              "name": "createdTimestamp",
              "type": "uint256"
            }
          ],
          "internalType": "struct Crypto.Position",
          "name": "position",
          "type": "tuple"
        },
        {
          "components": [
            {
              "internalType": "uint32",
              "name": "pair",
              "type": "uint32"
            },
            {
              "internalType": "uint128",
              "name": "price",
              "type": "uint128"
            },
            {
              "internalType": "uint64",
              "name": "timestamp",
              "type": "uint64"
            },
            {
              "internalType": "uint16",
              "name": "decimals",
              "type": "uint16"
            },
            {
              "internalType": "uint64",
              "name": "round",
              "type": "uint64"
            }
          ],
          "internalType": "struct SupraOracleDecoder.CommitteeFeed[]",
          "name": "allFeeds",
          "type": "tuple[]"
        },
        {
          "components": [
            {
              "internalType": "uint256",
              "name": "oracleId",
              "type": "uint256"
            },
            {
              "internalType": "address",
              "name": "addr",
              "type": "address"
            },
            {
              "internalType": "uint256",
              "name": "balance",
              "type": "uint256"
            }
          ],
          "internalType": "struct Crypto.Balance[]",
          "name": "balances",
          "type": "tuple[]"
        }
      ],
      "name": "_checkLiquidatedPosition",
      "outputs": [
        {
          "internalType": "bool",
          "name": "",
          "type": "bool"
        }
      ],
      "stateMutability": "pure",
      "type": "function"
    },
    {
      "inputs": [
        {
          "components": [
            {
              "internalType": "string",
              "name": "positionId",
              "type": "string"
            },
            {
              "internalType": "uint256",
              "name": "oracleId",
              "type": "uint256"
            },
            {
              "internalType": "address",
              "name": "token",
              "type": "address"
            },
            {
              "internalType": "uint256",
              "name": "quantity",
              "type": "uint256"
            },
            {
              "internalType": "uint256",
              "name": "leverageFactor",
              "type": "uint256"
            },
            {
              "internalType": "string",
              "name": "leverageType",
              "type": "string"
            },
            {
              "internalType": "bool",
              "name": "isLong",
              "type": "bool"
            },
            {
              "components": [
                {
                  "internalType": "uint256",
                  "name": "oracleId",
                  "type": "uint256"
                },
                {
                  "internalType": "address",
                  "name": "token",
                  "type": "address"
                },
                {
                  "internalType": "uint256",
                  "name": "quantity",
                  "type": "uint256"
                },
                {
                  "internalType": "uint256",
                  "name": "entryPrice",
                  "type": "uint256"
                }
              ],
              "internalType": "struct Crypto.Collateral[]",
              "name": "collaterals",
              "type": "tuple[]"
            },
            {
              "internalType": "uint256",
              "name": "entryPrice",
              "type": "uint256"
            },
            {
              "internalType": "uint256",
              "name": "createdTimestamp",
              "type": "uint256"
            }
          ],
          "internalType": "struct Crypto.Position",
          "name": "position",
          "type": "tuple"
        },
        {
          "components": [
            {
              "internalType": "uint32",
              "name": "pair",
              "type": "uint32"
            },
            {
              "internalType": "uint128",
              "name": "price",
              "type": "uint128"
            },
            {
              "internalType": "uint64",
              "name": "timestamp",
              "type": "uint64"
            },
            {
              "internalType": "uint16",
              "name": "decimals",
              "type": "uint16"
            },
            {
              "internalType": "uint64",
              "name": "round",
              "type": "uint64"
            }
          ],
          "internalType": "struct SupraOracleDecoder.CommitteeFeed[]",
          "name": "allFeeds",
          "type": "tuple[]"
        }
      ],
      "name": "_getPositionLoss",
      "outputs": [
        {
          "internalType": "uint256",
          "name": "",
          "type": "uint256"
        }
      ],
      "stateMutability": "pure",
      "type": "function"
    },
    {
      "inputs": [
        {
          "components": [
            {
              "internalType": "uint32",
              "name": "pair",
              "type": "uint32"
            },
            {
              "internalType": "uint128",
              "name": "price",
              "type": "uint128"
            },
            {
              "internalType": "uint64",
              "name": "timestamp",
              "type": "uint64"
            },
            {
              "internalType": "uint16",
              "name": "decimals",
              "type": "uint16"
            },
            {
              "internalType": "uint64",
              "name": "round",
              "type": "uint64"
            }
          ],
          "internalType": "struct SupraOracleDecoder.CommitteeFeed[]",
          "name": "allFeeds",
          "type": "tuple[]"
        },
        {
          "internalType": "uint256",
          "name": "pair",
          "type": "uint256"
        }
      ],
      "name": "_getPriceByPairId",
      "outputs": [
        {
          "internalType": "uint128",
          "name": "",
          "type": "uint128"
        }
      ],
      "stateMutability": "pure",
      "type": "function"
    }
  ],
  "bytecode": "0x610b89610039600b82828239805160001a607314602c57634e487b7160e01b600052600060045260246000fd5b30600052607381538281f3fe73000000000000000000000000000000000000000030146080604052600436106100615760003560e01c806334fea36014610066578063440305c11461008c57806355750263146100955780639c3e90501461009d578063e499f215146100c8575b600080fd5b6100796100743660046108c7565b6100eb565b6040519081526020015b60405180910390f35b610079611a0b81565b610079603281565b6100b06100ab36600461092e565b610182565b6040516001600160801b039091168152602001610083565b6100db6100d6366004610972565b61022b565b6040519015158152602001610083565b6000806100fc838560200151610182565b6001600160801b031684606001516101149190610aaf565b90506000846101000151856060015161012d9190610aaf565b90508460c001511561015f578082111561014c5760009250505061017c565b6101568282610ac6565b9250505061017c565b808210156101725760009250505061017c565b6101568183610ac6565b92915050565b6000805b83518110156101e757828482815181106101a2576101a2610ad9565b60200260200101516000015163ffffffff16036101df578381815181106101cb576101cb610ad9565b60200260200101516020015191505061017c565b600101610186565b5060405162461bcd60e51b815260206004820152601460248201527319da5d995b881c185a5c881b9bdd08199bdd5b9960621b604482015260640160405180910390fd5b6000808061023986866100eb565b6102439083610aef565b91506000805b8760e001515181101561032457610281878960e00151838151811061027057610270610ad9565b602002602001015160000151610182565b6001600160801b03168860e0015182815181106102a0576102a0610ad9565b6020026020010151604001516102b69190610aaf565b6102c09083610aef565b91508760e0015181815181106102d8576102d8610ad9565b6020026020010151604001518860e0015182815181106102fa576102fa610ad9565b6020026020010151606001516103109190610aaf565b61031a9084610aef565b9250600101610249565b508181111561033f57610338600084610aef565b9250610356565b6103498183610ac6565b6103539084610aef565b92505b6040516463726f737360d81b6020820152602501604051602081830303815290604052805190602001208760a001516040516020016103959190610b02565b60405160208183030381529060405280519060200120036104195760005b8551811015610417576103d28787838151811061027057610270610ad9565b6001600160801b03168682815181106103ed576103ed610ad9565b6020026020010151604001516104039190610aaf565b61040d9084610aef565b92506001016103b3565b505b60006064610428603285610aaf565b6104329190610b31565b90506000612710610445611a0b86610aaf565b61044f9190610b31565b90508085111561046757600195505050505050610487565b8185111561047d57600195505050505050610487565b6000955050505050505b9392505050565b634e487b7160e01b600052604160045260246000fd5b604051608081016001600160401b03811182821017156104c6576104c661048e565b60405290565b60405161014081016001600160401b03811182821017156104c6576104c661048e565b60405160a081016001600160401b03811182821017156104c6576104c661048e565b604051606081016001600160401b03811182821017156104c6576104c661048e565b604051601f8201601f191681016001600160401b038111828210171561055b5761055b61048e565b604052919050565b600082601f83011261057457600080fd5b81356001600160401b0381111561058d5761058d61048e565b6105a0601f8201601f1916602001610533565b8181528460208386010111156105b557600080fd5b816020850160208301376000918101602001919091529392505050565b80356001600160a01b03811681146105e957600080fd5b919050565b803580151581146105e957600080fd5b60006001600160401b038211156106175761061761048e565b5060051b60200190565b600082601f83011261063257600080fd5b8135610645610640826105fe565b610533565b8082825260208201915060208360071b86010192508583111561066757600080fd5b602085015b838110156106c9576080818803121561068457600080fd5b61068c6104a4565b8135815261069c602083016105d2565b6020828101919091526040838101359083015260608084013590830152908452929092019160800161066c565b5095945050505050565b600061014082840312156106e657600080fd5b6106ee6104cc565b905081356001600160401b0381111561070657600080fd5b61071284828501610563565b8252506020828101359082015261072b604083016105d2565b6040820152606082810135908201526080808301359082015260a08201356001600160401b0381111561075d57600080fd5b61076984828501610563565b60a08301525061077b60c083016105ee565b60c082015260e08201356001600160401b0381111561079957600080fd5b6107a584828501610621565b60e08301525061010082810135908201526101209182013591810191909152919050565b80356001600160401b03811681146105e957600080fd5b600082601f8301126107f157600080fd5b81356107ff610640826105fe565b80828252602082019150602060a0840286010192508583111561082157600080fd5b602085015b838110156106c95760a0818803121561083e57600080fd5b6108466104ef565b813563ffffffff8116811461085a57600080fd5b815260208201356001600160801b038116811461087657600080fd5b6020820152610887604083016107c9565b6040820152606082013561ffff811681146108a157600080fd5b60608201526108b2608083016107c9565b6080820152835260209092019160a001610826565b600080604083850312156108da57600080fd5b82356001600160401b038111156108f057600080fd5b6108fc858286016106d3565b92505060208301356001600160401b0381111561091857600080fd5b610924858286016107e0565b9150509250929050565b6000806040838503121561094157600080fd5b82356001600160401b0381111561095757600080fd5b610963858286016107e0565b95602094909401359450505050565b60008060006060848603121561098757600080fd5b83356001600160401b0381111561099d57600080fd5b6109a9868287016106d3565b93505060208401356001600160401b038111156109c557600080fd5b6109d1868287016107e0565b92505060408401356001600160401b038111156109ed57600080fd5b8401601f810186136109fe57600080fd5b8035610a0c610640826105fe565b80828252602082019150602060608402850101925088831115610a2e57600080fd5b6020840193505b82841015610a8b576060848a031215610a4d57600080fd5b610a55610511565b84358152610a65602086016105d2565b602082810191909152604086810135908301529083526060909401939190910190610a35565b809450505050509250925092565b634e487b7160e01b600052601160045260246000fd5b808202811582820484141761017c5761017c610a99565b8181038181111561017c5761017c610a99565b634e487b7160e01b600052603260045260246000fd5b8082018082111561017c5761017c610a99565b6000825160005b81811015610b235760208186018101518583015201610b09565b506000920191825250919050565b600082610b4e57634e487b7160e01b600052601260045260246000fd5b50049056fea26469706673582212206bbeb3bb4aa66950e61b3db48381e1f44dfb9feef7956c4e6c0d9a5d136b3a9064736f6c634300081b0033",
  "linkReferences": {},
  "deployedLinkReferences": {}
}