{
  "_format": "hh-sol-artifact-1",
  "contractName": "DexSupporter",
  "sourceName": "contracts/0xVault/DexSupporter.sol",
  "abi": [
    {
      "inputs": [
        {
          "internalType": "address",
          "name": "_vault",
          "type": "address"
        },
        {
          "internalType": "address",
          "name": "_supraVerifier",
          "type": "address"
        },
        {
          "internalType": "address",
          "name": "_supraStorageOracle",
          "type": "address"
        },
        {
          "internalType": "address",
          "name": "_lpProvider",
          "type": "address"
        }
      ],
      "stateMutability": "nonpayable",
      "type": "constructor"
    },
    {
      "inputs": [],
      "name": "InvalidSchnorrSignature",
      "type": "error"
    },
    {
      "anonymous": false,
      "inputs": [
        {
          "indexed": true,
          "internalType": "address",
          "name": "previousOwner",
          "type": "address"
        },
        {
          "indexed": true,
          "internalType": "address",
          "name": "newOwner",
          "type": "address"
        }
      ],
      "name": "OwnershipTransferred",
      "type": "event"
    },
    {
      "inputs": [
        {
          "internalType": "uint32",
          "name": "requestId",
          "type": "uint32"
        },
        {
          "components": [
            {
              "internalType": "string",
              "name": "positionId",
              "type": "string"
            },
            {
              "internalType": "bytes",
              "name": "proofBytes",
              "type": "bytes"
            }
          ],
          "internalType": "struct Crypto.LiquidatedPosition[]",
          "name": "positions",
          "type": "tuple[]"
        }
      ],
      "name": "challengeLiquidatedPosition",
      "outputs": [],
      "stateMutability": "nonpayable",
      "type": "function"
    },
    {
      "inputs": [
        {
          "internalType": "address",
          "name": "user",
          "type": "address"
        },
        {
          "components": [
            {
              "internalType": "bytes",
              "name": "data",
              "type": "bytes"
            },
            {
              "internalType": "bytes",
              "name": "signature",
              "type": "bytes"
            },
            {
              "internalType": "address",
              "name": "combinedPublicKey",
              "type": "address"
            }
          ],
          "internalType": "struct Crypto.SchnorrSignature",
          "name": "_schnorr",
          "type": "tuple"
        }
      ],
      "name": "liquidatePartially",
      "outputs": [],
      "stateMutability": "nonpayable",
      "type": "function"
    },
    {
      "inputs": [],
      "name": "lpProvider",
      "outputs": [
        {
          "internalType": "address",
          "name": "",
          "type": "address"
        }
      ],
      "stateMutability": "view",
      "type": "function"
    },
    {
      "inputs": [],
      "name": "owner",
      "outputs": [
        {
          "internalType": "address",
          "name": "",
          "type": "address"
        }
      ],
      "stateMutability": "view",
      "type": "function"
    },
    {
      "inputs": [],
      "name": "renounceOwnership",
      "outputs": [],
      "stateMutability": "nonpayable",
      "type": "function"
    },
    {
      "inputs": [
        {
          "internalType": "address",
          "name": "_vault",
          "type": "address"
        }
      ],
      "name": "setVault",
      "outputs": [],
      "stateMutability": "nonpayable",
      "type": "function"
    },
    {
      "inputs": [
        {
          "internalType": "uint32",
          "name": "requestId",
          "type": "uint32"
        }
      ],
      "name": "settleDispute",
      "outputs": [],
      "stateMutability": "nonpayable",
      "type": "function"
    },
    {
      "inputs": [],
      "name": "supraStorageOracle",
      "outputs": [
        {
          "internalType": "address",
          "name": "",
          "type": "address"
        }
      ],
      "stateMutability": "view",
      "type": "function"
    },
    {
      "inputs": [],
      "name": "supraVerifier",
      "outputs": [
        {
          "internalType": "address",
          "name": "",
          "type": "address"
        }
      ],
      "stateMutability": "view",
      "type": "function"
    },
    {
      "inputs": [
        {
          "internalType": "address",
          "name": "newOwner",
          "type": "address"
        }
      ],
      "name": "transferOwnership",
      "outputs": [],
      "stateMutability": "nonpayable",
      "type": "function"
    },
    {
      "inputs": [],
      "name": "vault",
      "outputs": [
        {
          "internalType": "contract IVault",
          "name": "",
          "type": "address"
        }
      ],
      "stateMutability": "view",
      "type": "function"
    }
  ],
  "bytecode": "0x60806040523480156200001157600080fd5b5060405162004ded38038062004ded83398181016040528101906200003791906200029b565b620000576200004b6200016560201b60201c565b6200016d60201b60201c565b83600160006101000a81548173ffffffffffffffffffffffffffffffffffffffff021916908373ffffffffffffffffffffffffffffffffffffffff16021790555082600260006101000a81548173ffffffffffffffffffffffffffffffffffffffff021916908373ffffffffffffffffffffffffffffffffffffffff16021790555081600360006101000a81548173ffffffffffffffffffffffffffffffffffffffff021916908373ffffffffffffffffffffffffffffffffffffffff16021790555080600460006101000a81548173ffffffffffffffffffffffffffffffffffffffff021916908373ffffffffffffffffffffffffffffffffffffffff160217905550505050506200030d565b600033905090565b60008060009054906101000a900473ffffffffffffffffffffffffffffffffffffffff169050816000806101000a81548173ffffffffffffffffffffffffffffffffffffffff021916908373ffffffffffffffffffffffffffffffffffffffff1602179055508173ffffffffffffffffffffffffffffffffffffffff168173ffffffffffffffffffffffffffffffffffffffff167f8be0079c531659141344cd1fd0a4f28419497f9722a3daafe3b4186f6b6457e060405160405180910390a35050565b600080fd5b600073ffffffffffffffffffffffffffffffffffffffff82169050919050565b6000620002638262000236565b9050919050565b620002758162000256565b81146200028157600080fd5b50565b60008151905062000295816200026a565b92915050565b60008060008060808587031215620002b857620002b762000231565b5b6000620002c88782880162000284565b9450506020620002db8782880162000284565b9350506040620002ee8782880162000284565b9250506060620003018782880162000284565b91505092959194509250565b614ad0806200031d6000396000f3fe608060405234801561001057600080fd5b50600436106100a95760003560e01c8063715018a611610071578063715018a61461013e5780638da5cb5b1461014857806393d4f6d914610166578063f0c9738e14610182578063f2fde38b146101a0578063fbfa77cf146101bc576100a9565b80630d235817146100ae57806327482c0f146100cc57806346080f80146100e857806348a0f1e4146101045780636817031b14610122575b600080fd5b6100b66101da565b6040516100c39190612195565b60405180910390f35b6100e660048036038101906100e19190612200565b610200565b005b61010260048036038101906100fd919061227d565b610c8a565b005b61010c611515565b6040516101199190612195565b60405180910390f35b61013c600480360381019061013791906122d9565b61153b565b005b610146611587565b005b61015061159b565b60405161015d9190612195565b60405180910390f35b610180600480360381019061017b9190612665565b6115c4565b005b61018a611dd8565b6040516101979190612195565b60405180910390f35b6101ba60048036038101906101b591906122d9565b611dfe565b005b6101c4611e81565b6040516101d19190612720565b60405180910390f35b600460009054906101000a900473ffffffffffffffffffffffffffffffffffffffff1681565b6000806000600160009054906101000a900473ffffffffffffffffffffffffffffffffffffffff1673ffffffffffffffffffffffffffffffffffffffff1663e917bdcc856040518263ffffffff1660e01b8152600401610260919061274a565b606060405180830381865afa15801561027d573d6000803e3d6000fd5b505050506040513d601f19601f820116820180604052508101906102a191906127f2565b925092509250826102e7576040517f08c379a00000000000000000000000000000000000000000000000000000000081526004016102de906128a2565b60405180910390fd5b610708826102f591906128f1565b67ffffffffffffffff164211610340576040517f08c379a000000000000000000000000000000000000000000000000000000000815260040161033790612979565b60405180910390fd5b6000600160009054906101000a900473ffffffffffffffffffffffffffffffffffffffff1673ffffffffffffffffffffffffffffffffffffffff1663ed9facad866040518263ffffffff1660e01b815260040161039d919061274a565b600060405180830381865afa1580156103ba573d6000803e3d6000fd5b505050506040513d6000823e3d601f19601f820116820180604052508101906103e39190612dcf565b90506000600160009054906101000a900473ffffffffffffffffffffffffffffffffffffffff1673ffffffffffffffffffffffffffffffffffffffff1663c2dd56bc876040518263ffffffff1660e01b8152600401610442919061274a565b600060405180830381865afa15801561045f573d6000803e3d6000fd5b505050506040513d6000823e3d601f19601f820116820180604052508101906104889190612f3f565b90506000815167ffffffffffffffff8111156104a7576104a661231c565b5b6040519080825280602002602001820160405280156104d55781602001602082028036833780820191505090505b50905060005b825181101561052f578281815181106104f7576104f6612f88565b5b60200260200101516040015182828151811061051657610515612f88565b5b60200260200101818152505080806001019150506104db565b5060005b835181101561099c57600084828151811061055157610550612f88565b5b602002602001015160600151031561098f576000600360009054906101000a900473ffffffffffffffffffffffffffffffffffffffff1673ffffffffffffffffffffffffffffffffffffffff166389b94ea28684815181106105b6576105b5612f88565b5b6020026020010151602001516040518263ffffffff1660e01b81526004016105de9190612fc6565b608060405180830381865afa1580156105fb573d6000803e3d6000fd5b505050506040513d601f19601f8201168201806040525081019061061f9190613059565b9050600085838151811061063657610635612f88565b5b6020026020010151610100015182606001516106529190613090565b905085838151811061066757610666612f88565b5b602002602001015160c001516106845780610681906130d3565b90505b600086848151811061069957610698612f88565b5b602002602001015161010001518785815181106106b9576106b8612f88565b5b602002602001015160800151836106d0919061311b565b6106da91906131c2565b60016106e6919061322c565b905060008112156106f95750505061098f565b600081905060005b88868151811061071457610713612f88565b5b602002602001015160e0015151811015610989576000600360009054906101000a900473ffffffffffffffffffffffffffffffffffffffff1673ffffffffffffffffffffffffffffffffffffffff166389b94ea28b898151811061077b5761077a612f88565b5b602002602001015160e00151848151811061079957610798612f88565b5b6020026020010151600001516040518263ffffffff1660e01b81526004016107c19190612fc6565b608060405180830381865afa1580156107de573d6000803e3d6000fd5b505050506040513d601f19601f820116820180604052508101906108029190613059565b90506000816020015182606001516018868e8c8151811061082657610825612f88565b5b602002602001015160e00151878151811061084457610843612f88565b5b60200260200101516040015161085a9190613270565b61086491906132b2565b61086e9190613270565b61087891906132b2565b905060005b8a51811015610936578b898151811061089957610898612f88565b5b60200260200101516040015173ffffffffffffffffffffffffffffffffffffffff168b82815181106108ce576108cd612f88565b5b60200260200101516020015173ffffffffffffffffffffffffffffffffffffffff160361092957818a828151811061090957610908612f88565b5b6020026020010181815161091d91906132e3565b91508181525050610936565b808060010191505061087d565b5060008b898151811061094c5761094b612f88565b5b602002602001015160e00151848151811061096a57610969612f88565b5b6020026020010151604001818152505050508080600101915050610701565b50505050505b8080600101915050610533565b506000825167ffffffffffffffff8111156109ba576109b961231c565b5b6040519080825280602002602001820160405280156109e85781602001602082028036833780820191505090505b5090506000835167ffffffffffffffff811115610a0857610a0761231c565b5b604051908082528060200260200182016040528015610a365781602001602082028036833780820191505090505b50905060005b8451811015610beb576000858281518110610a5a57610a59612f88565b5b60200260200101516020015190506000858381518110610a7d57610a7c612f88565b5b602002602001015190506000600160009054906101000a900473ffffffffffffffffffffffffffffffffffffffff1673ffffffffffffffffffffffffffffffffffffffff1663e0c32ec48b856040518363ffffffff1660e01b8152600401610ae6929190613317565b602060405180830381865afa158015610b03573d6000803e3d6000fd5b505050506040513d601f19601f82011682018060405250810190610b279190613340565b905080821115610b88578082610b3d919061336d565b868581518110610b5057610b4f612f88565b5b6020026020010181815250506001858581518110610b7157610b70612f88565b5b602002602001019015159081151581525050610bdb565b8181610b94919061336d565b868581518110610ba757610ba6612f88565b5b6020026020010181815250506000858581518110610bc857610bc7612f88565b5b6020026020010190151590811515815250505b5050508080600101915050610a3c565b50600160009054906101000a900473ffffffffffffffffffffffffffffffffffffffff1673ffffffffffffffffffffffffffffffffffffffff1663bf1e9ef58a8585856040518563ffffffff1660e01b8152600401610c4d949392919061351d565b600060405180830381600087803b158015610c6757600080fd5b505af1158015610c7b573d6000803e3d6000fd5b50505050505050505050505050565b600073__$50e9592bd68e5211c3a496048a4809ad3a$__6306d02c88836040518263ffffffff1660e01b8152600401610cc391906136c0565b600060405180830381865af4158015610ce0573d6000803e3d6000fd5b505050506040513d6000823e3d601f19601f82011682018060405250810190610d0991906137eb565b90508273ffffffffffffffffffffffffffffffffffffffff16816020015173ffffffffffffffffffffffffffffffffffffffff1614610d74576040517ff08f7bd800000000000000000000000000000000000000000000000000000000815260040160405180910390fd5b73__$50e9592bd68e5211c3a496048a4809ad3a$__63bc018c4083600160009054906101000a900473ffffffffffffffffffffffffffffffffffffffff1673ffffffffffffffffffffffffffffffffffffffff1663e41cff6485602001516040518263ffffffff1660e01b8152600401610dee9190612195565b602060405180830381865afa158015610e0b573d6000803e3d6000fd5b505050506040513d601f19601f82011682018060405250810190610e2f9190613834565b6040518363ffffffff1660e01b8152600401610e4c929190613870565b602060405180830381865af4158015610e69573d6000803e3d6000fd5b505050506040513d601f19601f82011682018060405250810190610e8d91906138a0565b610ec3576040517ff08f7bd800000000000000000000000000000000000000000000000000000000815260040160405180910390fd5b6000816040015151905060008167ffffffffffffffff811115610ee957610ee861231c565b5b604051908082528060200260200182016040528015610f2257816020015b610f0f61211d565b815260200190600190039081610f075790505b50905060005b82811015610fd157604051806060016040528085604001518381518110610f5257610f51612f88565b5b602002602001015160000151815260200185604001518381518110610f7a57610f79612f88565b5b60200260200101516020015173ffffffffffffffffffffffffffffffffffffffff1681526020016000815250828281518110610fb957610fb8612f88565b5b60200260200101819052508080600101915050610f28565b5060005b828110156110d15760005b82518110156110c357828181518110610ffc57610ffb612f88565b5b60200260200101516020015173ffffffffffffffffffffffffffffffffffffffff168560400151838151811061103557611034612f88565b5b60200260200101516020015173ffffffffffffffffffffffffffffffffffffffff16036110b6578460400151828151811061107357611072612f88565b5b60200260200101516040015183828151811061109257611091612f88565b5b60200260200101516040018181516110aa91906132e3565b915081815250506110c3565b8080600101915050610fe0565b508080600101915050610fd5565b506000836060015151905060005b8181101561121d5760005b8560600151828151811061110157611100612f88565b5b602002602001015160e001515181101561120f5760008660600151838151811061112e5761112d612f88565b5b602002602001015160e00151828151811061114c5761114b612f88565b5b6020026020010151905060005b85518110156112005785818151811061117557611174612f88565b5b60200260200101516020015173ffffffffffffffffffffffffffffffffffffffff16826020015173ffffffffffffffffffffffffffffffffffffffff16036111f35781604001518682815181106111cf576111ce612f88565b5b60200260200101516040018181516111e791906132e3565b91508181525050611200565b8080600101915050611159565b505080806001019150506110ea565b5080806001019150506110df565b5060008367ffffffffffffffff81111561123a5761123961231c565b5b6040519080825280602002602001820160405280156112685781602001602082028036833780820191505090505b50905060008467ffffffffffffffff8111156112875761128661231c565b5b6040519080825280602002602001820160405280156112b55781602001602082028036833780820191505090505b5090506000805b86811015611472576000886040015182815181106112dd576112dc612f88565b5b60200260200101516020015190506000600160009054906101000a900473ffffffffffffffffffffffffffffffffffffffff1673ffffffffffffffffffffffffffffffffffffffff1663e0c32ec48b60200151846040518363ffffffff1660e01b815260040161134e929190613317565b602060405180830381865afa15801561136b573d6000803e3d6000fd5b505050506040513d601f19601f8201168201806040525081019061138f9190613340565b905060008884815181106113a6576113a5612f88565b5b602002602001015160400151821115611462578884815181106113cc576113cb612f88565b5b602002602001015160400151826113e3919061336d565b9050828786815181106113f9576113f8612f88565b5b602002602001019073ffffffffffffffffffffffffffffffffffffffff16908173ffffffffffffffffffffffffffffffffffffffff16815250508086868151811061144757611446612f88565b5b602002602001018181525050848061145e906138cd565b9550505b50505080806001019150506112bc565b50600160009054906101000a900473ffffffffffffffffffffffffffffffffffffffff1673ffffffffffffffffffffffffffffffffffffffff16638a7be80b88602001518585856040518563ffffffff1660e01b81526004016114d894939291906139d3565b600060405180830381600087803b1580156114f257600080fd5b505af1158015611506573d6000803e3d6000fd5b50505050505050505050505050565b600260009054906101000a900473ffffffffffffffffffffffffffffffffffffffff1681565b611543611ea7565b80600160006101000a81548173ffffffffffffffffffffffffffffffffffffffff021916908373ffffffffffffffffffffffffffffffffffffffff16021790555050565b61158f611ea7565b6115996000611f25565b565b60008060009054906101000a900473ffffffffffffffffffffffffffffffffffffffff16905090565b6000815190506000806000600160009054906101000a900473ffffffffffffffffffffffffffffffffffffffff1673ffffffffffffffffffffffffffffffffffffffff1663e917bdcc876040518263ffffffff1660e01b815260040161162a919061274a565b606060405180830381865afa158015611647573d6000803e3d6000fd5b505050506040513d601f19601f8201168201806040525081019061166b91906127f2565b925092509250826116b1576040517f08c379a00000000000000000000000000000000000000000000000000000000081526004016116a8906128a2565b60405180910390fd5b610708826116bf91906128f1565b67ffffffffffffffff16421061170a576040517f08c379a000000000000000000000000000000000000000000000000000000000815260040161170190613a72565b60405180910390fd5b60005b8481101561186157600073__$d02b2c628b0952c6267cc0a3b566223c93$__63bc79fd2388848151811061174457611743612f88565b5b6020026020010151602001516040518263ffffffff1660e01b815260040161176c9190613ae7565b600060405180830381865af4158015611789573d6000803e3d6000fd5b505050506040513d6000823e3d601f19601f820116820180604052508101906117b291906141cc565b90506000816000015151905060005b8181101561185157611844836000015182815181106117e3576117e2612f88565b5b6020026020010151602001518460000151838151811061180657611805612f88565b5b6020026020010151604001518560000151848151811061182957611828612f88565b5b60200260200101516000015167ffffffffffffffff16611fe9565b80806001019150506117c1565b505050808060010191505061170d565b506000600160009054906101000a900473ffffffffffffffffffffffffffffffffffffffff1673ffffffffffffffffffffffffffffffffffffffff1663ed9facad886040518263ffffffff1660e01b81526004016118bf919061274a565b600060405180830381865afa1580156118dc573d6000803e3d6000fd5b505050506040513d6000823e3d601f19601f820116820180604052508101906119059190612dcf565b90506000600160009054906101000a900473ffffffffffffffffffffffffffffffffffffffff1673ffffffffffffffffffffffffffffffffffffffff1663c2dd56bc896040518263ffffffff1660e01b8152600401611964919061274a565b600060405180830381865afa158015611981573d6000803e3d6000fd5b505050506040513d6000823e3d601f19601f820116820180604052508101906119aa9190612f3f565b90506000825167ffffffffffffffff8111156119c9576119c861231c565b5b6040519080825280602002602001820160405280156119f75781602001602082028036833780820191505090505b50905060008060005b8551811015611d37576001868281518110611a1e57611a1d612f88565b5b6020026020010151608001510315611d2a5760005b8a811015611d28578b8181518110611a4e57611a4d612f88565b5b60200260200101516000015180519060200120878381518110611a7457611a73612f88565b5b6020026020010151600001518051906020012003611d1b576060600073__$d02b2c628b0952c6267cc0a3b566223c93$__63bc79fd238f8581518110611abd57611abc612f88565b5b6020026020010151602001516040518263ffffffff1660e01b8152600401611ae59190613ae7565b600060405180830381865af4158015611b02573d6000803e3d6000fd5b505050506040513d6000823e3d601f19601f82011682018060405250810190611b2b91906141cc565b90506000805b826000015151811015611bd857600083600001518281518110611b5757611b56612f88565b5b60200260200101516060015160000151905060005b8151811015611bc957818181518110611b8857611b87612f88565b5b6020026020010151868581518110611ba357611ba2612f88565b5b60200260200101819052508380611bb9906138cd565b9450508080600101915050611b6c565b50508080600101915050611b31565b5073__$ed7edcf5897336b7ef9a2feda8ea09bc03$__63e499f2158b8781518110611c0657611c05612f88565b5b6020026020010151858c6040518463ffffffff1660e01b8152600401611c2e939291906146b8565b602060405180830381865af4158015611c4b573d6000803e3d6000fd5b505050506040513d601f19601f82011682018060405250810190611c6f91906138a0565b15611d175784888881518110611c8857611c87612f88565b5b6020026020010181815250508680611c9f906138cd565b975050604051602001611cb19061475b565b604051602081830303815290604052805190602001208a8681518110611cda57611cd9612f88565b5b602002602001015160a00151604051602001611cf691906147a1565b6040516020818303038152906040528051906020012003611d1657600195505b5b5050505b8080600101915050611a33565b505b8080600101915050611a00565b50600160009054906101000a900473ffffffffffffffffffffffffffffffffffffffff1673ffffffffffffffffffffffffffffffffffffffff1663923fec2a8c8585856040518563ffffffff1660e01b8152600401611d9994939291906147c7565b600060405180830381600087803b158015611db357600080fd5b505af1158015611dc7573d6000803e3d6000fd5b505050505050505050505050505050565b600360009054906101000a900473ffffffffffffffffffffffffffffffffffffffff1681565b611e06611ea7565b600073ffffffffffffffffffffffffffffffffffffffff168173ffffffffffffffffffffffffffffffffffffffff1603611e75576040517f08c379a0000000000000000000000000000000000000000000000000000000008152600401611e6c90614885565b60405180910390fd5b611e7e81611f25565b50565b600160009054906101000a900473ffffffffffffffffffffffffffffffffffffffff1681565b611eaf612115565b73ffffffffffffffffffffffffffffffffffffffff16611ecd61159b565b73ffffffffffffffffffffffffffffffffffffffff1614611f23576040517f08c379a0000000000000000000000000000000000000000000000000000000008152600401611f1a906148f1565b60405180910390fd5b565b60008060009054906101000a900473ffffffffffffffffffffffffffffffffffffffff169050816000806101000a81548173ffffffffffffffffffffffffffffffffffffffff021916908373ffffffffffffffffffffffffffffffffffffffff1602179055508173ffffffffffffffffffffffffffffffffffffffff168173ffffffffffffffffffffffffffffffffffffffff167f8be0079c531659141344cd1fd0a4f28419497f9722a3daafe3b4186f6b6457e060405160405180910390a35050565b6000600260009054906101000a900473ffffffffffffffffffffffffffffffffffffffff1673ffffffffffffffffffffffffffffffffffffffff16848484604051602401612039939291906149a4565b604051602081830303815290604052632818300e60e01b6020820180517bffffffffffffffffffffffffffffffffffffffffffffffffffffffff838183161783525050505060405161208b9190614a17565b600060405180830381855afa9150503d80600081146120c6576040519150601f19603f3d011682016040523d82523d6000602084013e6120cb565b606091505b505090508061210f576040517f08c379a000000000000000000000000000000000000000000000000000000000815260040161210690614a7a565b60405180910390fd5b50505050565b600033905090565b604051806060016040528060008152602001600073ffffffffffffffffffffffffffffffffffffffff168152602001600081525090565b600073ffffffffffffffffffffffffffffffffffffffff82169050919050565b600061217f82612154565b9050919050565b61218f81612174565b82525050565b60006020820190506121aa6000830184612186565b92915050565b6000604051905090565b600080fd5b600080fd5b600063ffffffff82169050919050565b6121dd816121c4565b81146121e857600080fd5b50565b6000813590506121fa816121d4565b92915050565b600060208284031215612216576122156121ba565b5b6000612224848285016121eb565b91505092915050565b61223681612174565b811461224157600080fd5b50565b6000813590506122538161222d565b92915050565b600080fd5b60006060828403121561227457612273612259565b5b81905092915050565b60008060408385031215612294576122936121ba565b5b60006122a285828601612244565b925050602083013567ffffffffffffffff8111156122c3576122c26121bf565b5b6122cf8582860161225e565b9150509250929050565b6000602082840312156122ef576122ee6121ba565b5b60006122fd84828501612244565b91505092915050565b600080fd5b6000601f19601f8301169050919050565b7f4e487b7100000000000000000000000000000000000000000000000000000000600052604160045260246000fd5b6123548261230b565b810181811067ffffffffffffffff821117156123735761237261231c565b5b80604052505050565b60006123866121b0565b9050612392828261234b565b919050565b600067ffffffffffffffff8211156123b2576123b161231c565b5b602082029050602081019050919050565b600080fd5b600080fd5b600080fd5b600080fd5b600067ffffffffffffffff8211156123f2576123f161231c565b5b6123fb8261230b565b9050602081019050919050565b82818337600083830152505050565b600061242a612425846123d7565b61237c565b905082815260208101848484011115612446576124456123d2565b5b612451848285612408565b509392505050565b600082601f83011261246e5761246d612306565b5b813561247e848260208601612417565b91505092915050565b600067ffffffffffffffff8211156124a2576124a161231c565b5b6124ab8261230b565b9050602081019050919050565b60006124cb6124c684612487565b61237c565b9050828152602081018484840111156124e7576124e66123d2565b5b6124f2848285612408565b509392505050565b600082601f83011261250f5761250e612306565b5b813561251f8482602086016124b8565b91505092915050565b60006040828403121561253e5761253d6123c8565b5b612548604061237c565b9050600082013567ffffffffffffffff811115612568576125676123cd565b5b61257484828501612459565b600083015250602082013567ffffffffffffffff811115612598576125976123cd565b5b6125a4848285016124fa565b60208301525092915050565b60006125c36125be84612397565b61237c565b905080838252602082019050602084028301858111156125e6576125e56123c3565b5b835b8181101561262d57803567ffffffffffffffff81111561260b5761260a612306565b5b8086016126188982612528565b855260208501945050506020810190506125e8565b5050509392505050565b600082601f83011261264c5761264b612306565b5b813561265c8482602086016125b0565b91505092915050565b6000806040838503121561267c5761267b6121ba565b5b600061268a858286016121eb565b925050602083013567ffffffffffffffff8111156126ab576126aa6121bf565b5b6126b785828601612637565b9150509250929050565b6000819050919050565b60006126e66126e16126dc84612154565b6126c1565b612154565b9050919050565b60006126f8826126cb565b9050919050565b600061270a826126ed565b9050919050565b61271a816126ff565b82525050565b60006020820190506127356000830184612711565b92915050565b612744816121c4565b82525050565b600060208201905061275f600083018461273b565b92915050565b60008115159050919050565b61277a81612765565b811461278557600080fd5b50565b60008151905061279781612771565b92915050565b600067ffffffffffffffff82169050919050565b6127ba8161279d565b81146127c557600080fd5b50565b6000815190506127d7816127b1565b92915050565b6000815190506127ec8161222d565b92915050565b60008060006060848603121561280b5761280a6121ba565b5b600061281986828701612788565b935050602061282a868287016127c8565b925050604061283b868287016127dd565b9150509250925092565b600082825260208201905092915050565b7f496e76616c696420646973707574652073746174757300000000000000000000600082015250565b600061288c601683612845565b915061289782612856565b602082019050919050565b600060208201905081810360008301526128bb8161287f565b9050919050565b7f4e487b7100000000000000000000000000000000000000000000000000000000600052601160045260246000fd5b60006128fc8261279d565b91506129078361279d565b9250828201905067ffffffffffffffff811115612927576129266128c2565b5b92915050565b7f446973707574652077696e646f77206e6f7420636c6f73656400000000000000600082015250565b6000612963601983612845565b915061296e8261292d565b602082019050919050565b6000602082019050818103600083015261299281612956565b9050919050565b600067ffffffffffffffff8211156129b4576129b361231c565b5b602082029050602081019050919050565b60005b838110156129e35780820151818401526020810190506129c8565b60008484015250505050565b6000612a026129fd846123d7565b61237c565b905082815260208101848484011115612a1e57612a1d6123d2565b5b612a298482856129c5565b509392505050565b600082601f830112612a4657612a45612306565b5b8151612a568482602086016129ef565b91505092915050565b6000819050919050565b612a7281612a5f565b8114612a7d57600080fd5b50565b600081519050612a8f81612a69565b92915050565b600067ffffffffffffffff821115612ab057612aaf61231c565b5b602082029050602081019050919050565b600060808284031215612ad757612ad66123c8565b5b612ae1608061237c565b90506000612af184828501612a80565b6000830152506020612b05848285016127dd565b6020830152506040612b1984828501612a80565b6040830152506060612b2d84828501612a80565b60608301525092915050565b6000612b4c612b4784612a95565b61237c565b90508083825260208201905060808402830185811115612b6f57612b6e6123c3565b5b835b81811015612b985780612b848882612ac1565b845260208401935050608081019050612b71565b5050509392505050565b600082601f830112612bb757612bb6612306565b5b8151612bc7848260208601612b39565b91505092915050565b60006101408284031215612be757612be66123c8565b5b612bf261014061237c565b9050600082015167ffffffffffffffff811115612c1257612c116123cd565b5b612c1e84828501612a31565b6000830152506020612c3284828501612a80565b6020830152506040612c46848285016127dd565b6040830152506060612c5a84828501612a80565b6060830152506080612c6e84828501612a80565b60808301525060a082015167ffffffffffffffff811115612c9257612c916123cd565b5b612c9e84828501612a31565b60a08301525060c0612cb284828501612788565b60c08301525060e082015167ffffffffffffffff811115612cd657612cd56123cd565b5b612ce284828501612ba2565b60e083015250610100612cf784828501612a80565b61010083015250610120612d0d84828501612a80565b6101208301525092915050565b6000612d2d612d2884612999565b61237c565b90508083825260208201905060208402830185811115612d5057612d4f6123c3565b5b835b81811015612d9757805167ffffffffffffffff811115612d7557612d74612306565b5b808601612d828982612bd0565b85526020850194505050602081019050612d52565b5050509392505050565b600082601f830112612db657612db5612306565b5b8151612dc6848260208601612d1a565b91505092915050565b600060208284031215612de557612de46121ba565b5b600082015167ffffffffffffffff811115612e0357612e026121bf565b5b612e0f84828501612da1565b91505092915050565b600067ffffffffffffffff821115612e3357612e3261231c565b5b602082029050602081019050919050565b600060608284031215612e5a57612e596123c8565b5b612e64606061237c565b90506000612e7484828501612a80565b6000830152506020612e88848285016127dd565b6020830152506040612e9c84828501612a80565b60408301525092915050565b6000612ebb612eb684612e18565b61237c565b90508083825260208201905060608402830185811115612ede57612edd6123c3565b5b835b81811015612f075780612ef38882612e44565b845260208401935050606081019050612ee0565b5050509392505050565b600082601f830112612f2657612f25612306565b5b8151612f36848260208601612ea8565b91505092915050565b600060208284031215612f5557612f546121ba565b5b600082015167ffffffffffffffff811115612f7357612f726121bf565b5b612f7f84828501612f11565b91505092915050565b7f4e487b7100000000000000000000000000000000000000000000000000000000600052603260045260246000fd5b612fc081612a5f565b82525050565b6000602082019050612fdb6000830184612fb7565b92915050565b600060808284031215612ff757612ff66123c8565b5b613001608061237c565b9050600061301184828501612a80565b600083015250602061302584828501612a80565b602083015250604061303984828501612a80565b604083015250606061304d84828501612a80565b60608301525092915050565b60006080828403121561306f5761306e6121ba565b5b600061307d84828501612fe1565b91505092915050565b6000819050919050565b600061309b82613086565b91506130a683613086565b92508282039050818112600084121682821360008512151617156130cd576130cc6128c2565b5b92915050565b60006130de82613086565b91507f800000000000000000000000000000000000000000000000000000000000000082036131105761310f6128c2565b5b816000039050919050565b600061312682613086565b915061313183613086565b925082820261313f81613086565b91507f80000000000000000000000000000000000000000000000000000000000000008414600084121615613177576131766128c2565b5b828205841483151761318c5761318b6128c2565b5b5092915050565b7f4e487b7100000000000000000000000000000000000000000000000000000000600052601260045260246000fd5b60006131cd82613086565b91506131d883613086565b9250826131e8576131e7613193565b5b600160000383147f800000000000000000000000000000000000000000000000000000000000000083141615613221576132206128c2565b5b828205905092915050565b600061323782613086565b915061324283613086565b92508282019050828112156000831216838212600084121516171561326a576132696128c2565b5b92915050565b600061327b82612a5f565b915061328683612a5f565b925082820261329481612a5f565b915082820484148315176132ab576132aa6128c2565b5b5092915050565b60006132bd82612a5f565b91506132c883612a5f565b9250826132d8576132d7613193565b5b828204905092915050565b60006132ee82612a5f565b91506132f983612a5f565b9250828201905080821115613311576133106128c2565b5b92915050565b600060408201905061332c6000830185612186565b6133396020830184612186565b9392505050565b600060208284031215613356576133556121ba565b5b600061336484828501612a80565b91505092915050565b600061337882612a5f565b915061338383612a5f565b925082820390508181111561339b5761339a6128c2565b5b92915050565b600081519050919050565b600082825260208201905092915050565b6000819050602082019050919050565b6133d681612a5f565b82525050565b60006133e883836133cd565b60208301905092915050565b6000602082019050919050565b600061340c826133a1565b61341681856133ac565b9350613421836133bd565b8060005b8381101561345257815161343988826133dc565b9750613444836133f4565b925050600181019050613425565b5085935050505092915050565b600081519050919050565b600082825260208201905092915050565b6000819050602082019050919050565b61349481612765565b82525050565b60006134a6838361348b565b60208301905092915050565b6000602082019050919050565b60006134ca8261345f565b6134d4818561346a565b93506134df8361347b565b8060005b838110156135105781516134f7888261349a565b9750613502836134b2565b9250506001810190506134e3565b5085935050505092915050565b6000608082019050613532600083018761273b565b81810360208301526135448186613401565b905081810360408301526135588185613401565b9050818103606083015261356c81846134bf565b905095945050505050565b600080fd5b600080fd5b600080fd5b600080833560016020038436030381126135a3576135a2613581565b5b83810192508235915060208301925067ffffffffffffffff8211156135cb576135ca613577565b5b6001820236038313156135e1576135e061357c565b5b509250929050565b600082825260208201905092915050565b600061360683856135e9565b9350613613838584612408565b61361c8361230b565b840190509392505050565b60006136366020840184612244565b905092915050565b61364781612174565b82525050565b6000606083016136606000840184613586565b85830360008701526136738382846135fa565b925050506136846020840184613586565b85830360208701526136978382846135fa565b925050506136a86040840184613627565b6136b5604086018261363e565b508091505092915050565b600060208201905081810360008301526136da818461364d565b905092915050565b6000815190506136f1816121d4565b92915050565b600060c0828403121561370d5761370c6123c8565b5b61371760c061237c565b90506000613727848285016136e2565b600083015250602061373b848285016127dd565b602083015250604082015167ffffffffffffffff81111561375f5761375e6123cd565b5b61376b84828501612f11565b604083015250606082015167ffffffffffffffff81111561378f5761378e6123cd565b5b61379b84828501612da1565b606083015250608082015167ffffffffffffffff8111156137bf576137be6123cd565b5b6137cb84828501612a31565b60808301525060a06137df84828501612a80565b60a08301525092915050565b600060208284031215613801576138006121ba565b5b600082015167ffffffffffffffff81111561381f5761381e6121bf565b5b61382b848285016136f7565b91505092915050565b60006020828403121561384a576138496121ba565b5b6000613858848285016127dd565b91505092915050565b61386a81612174565b82525050565b6000604082019050818103600083015261388a818561364d565b90506138996020830184613861565b9392505050565b6000602082840312156138b6576138b56121ba565b5b60006138c484828501612788565b91505092915050565b60006138d882612a5f565b91507fffffffffffffffffffffffffffffffffffffffffffffffffffffffffffffffff820361390a576139096128c2565b5b600182019050919050565b600081519050919050565b600082825260208201905092915050565b6000819050602082019050919050565b61394a81612174565b82525050565b600061395c8383613941565b60208301905092915050565b6000602082019050919050565b600061398082613915565b61398a8185613920565b935061399583613931565b8060005b838110156139c65781516139ad8882613950565b97506139b883613968565b925050600181019050613999565b5085935050505092915050565b60006080820190506139e86000830187612186565b81810360208301526139fa8186613975565b90508181036040830152613a0e8185613401565b9050613a1d6060830184612fb7565b95945050505050565b7f446973707574652077696e646f7720636c6f7365640000000000000000000000600082015250565b6000613a5c601583612845565b9150613a6782613a26565b602082019050919050565b60006020820190508181036000830152613a8b81613a4f565b9050919050565b600081519050919050565b600082825260208201905092915050565b6000613ab982613a92565b613ac38185613a9d565b9350613ad38185602086016129c5565b613adc8161230b565b840191505092915050565b60006020820190508181036000830152613b018184613aae565b905092915050565b600067ffffffffffffffff821115613b2457613b2361231c565b5b602082029050602081019050919050565b6000819050919050565b613b4881613b35565b8114613b5357600080fd5b50565b600081519050613b6581613b3f565b92915050565b600067ffffffffffffffff821115613b8657613b8561231c565b5b602082029050919050565b6000613ba4613b9f84613b6b565b61237c565b90508060208402830185811115613bbe57613bbd6123c3565b5b835b81811015613be75780613bd38882612a80565b845260208401935050602081019050613bc0565b5050509392505050565b600082601f830112613c0657613c05612306565b5b6002613c13848285613b91565b91505092915050565b600067ffffffffffffffff821115613c3757613c3661231c565b5b602082029050602081019050919050565b60006fffffffffffffffffffffffffffffffff82169050919050565b613c6d81613c48565b8114613c7857600080fd5b50565b600081519050613c8a81613c64565b92915050565b600061ffff82169050919050565b613ca781613c90565b8114613cb257600080fd5b50565b600081519050613cc481613c9e565b92915050565b600060a08284031215613ce057613cdf6123c8565b5b613cea60a061237c565b90506000613cfa848285016136e2565b6000830152506020613d0e84828501613c7b565b6020830152506040613d22848285016127c8565b6040830152506060613d3684828501613cb5565b6060830152506080613d4a848285016127c8565b60808301525092915050565b6000613d69613d6484613c1c565b61237c565b90508083825260208201905060a08402830185811115613d8c57613d8b6123c3565b5b835b81811015613db55780613da18882613cca565b84526020840193505060a081019050613d8e565b5050509392505050565b600082601f830112613dd457613dd3612306565b5b8151613de4848260208601613d56565b91505092915050565b600067ffffffffffffffff821115613e0857613e0761231c565b5b602082029050602081019050919050565b6000613e2c613e2784613ded565b61237c565b90508083825260208201905060208402830185811115613e4f57613e4e6123c3565b5b835b81811015613e785780613e648882613b56565b845260208401935050602081019050613e51565b5050509392505050565b600082601f830112613e9757613e96612306565b5b8151613ea7848260208601613e19565b91505092915050565b600067ffffffffffffffff821115613ecb57613eca61231c565b5b602082029050602081019050919050565b6000613eef613eea84613eb0565b61237c565b90508083825260208201905060208402830185811115613f1257613f116123c3565b5b835b81811015613f3b5780613f278882612788565b845260208401935050602081019050613f14565b5050509392505050565b600082601f830112613f5a57613f59612306565b5b8151613f6a848260208601613edc565b91505092915050565b600060608284031215613f8957613f886123c8565b5b613f93606061237c565b9050600082015167ffffffffffffffff811115613fb357613fb26123cd565b5b613fbf84828501613dbf565b600083015250602082015167ffffffffffffffff811115613fe357613fe26123cd565b5b613fef84828501613e82565b602083015250604082015167ffffffffffffffff811115614013576140126123cd565b5b61401f84828501613f45565b60408301525092915050565b600060a08284031215614041576140406123c8565b5b61404b608061237c565b9050600061405b848285016127c8565b600083015250602061406f84828501613b56565b602083015250604061408384828501613bf1565b604083015250608082015167ffffffffffffffff8111156140a7576140a66123cd565b5b6140b384828501613f73565b60608301525092915050565b60006140d26140cd84613b09565b61237c565b905080838252602082019050602084028301858111156140f5576140f46123c3565b5b835b8181101561413c57805167ffffffffffffffff81111561411a57614119612306565b5b808601614127898261402b565b855260208501945050506020810190506140f7565b5050509392505050565b600082601f83011261415b5761415a612306565b5b815161416b8482602086016140bf565b91505092915050565b60006020828403121561418a576141896123c8565b5b614194602061237c565b9050600082015167ffffffffffffffff8111156141b4576141b36123cd565b5b6141c084828501614146565b60008301525092915050565b6000602082840312156141e2576141e16121ba565b5b600082015167ffffffffffffffff811115614200576141ff6121bf565b5b61420c84828501614174565b91505092915050565b600081519050919050565b600082825260208201905092915050565b600061423c82614215565b6142468185614220565b93506142568185602086016129c5565b61425f8161230b565b840191505092915050565b61427381612a5f565b82525050565b61428281612765565b82525050565b600081519050919050565b600082825260208201905092915050565b6000819050602082019050919050565b6080820160008201516142ca600085018261426a565b5060208201516142dd602085018261363e565b5060408201516142f0604085018261426a565b506060820151614303606085018261426a565b50505050565b600061431583836142b4565b60808301905092915050565b6000602082019050919050565b600061433982614288565b6143438185614293565b935061434e836142a4565b8060005b8381101561437f5781516143668882614309565b975061437183614321565b925050600181019050614352565b5085935050505092915050565b60006101408301600083015184820360008601526143aa8282614231565b91505060208301516143bf602086018261426a565b5060408301516143d2604086018261363e565b5060608301516143e5606086018261426a565b5060808301516143f8608086018261426a565b5060a083015184820360a08601526144108282614231565b91505060c083015161442560c0860182614279565b5060e083015184820360e086015261443d828261432e565b91505061010083015161445461010086018261426a565b5061012083015161446961012086018261426a565b508091505092915050565b600081519050919050565b600082825260208201905092915050565b6000819050602082019050919050565b6144a9816121c4565b82525050565b6144b881613c48565b82525050565b6144c78161279d565b82525050565b6144d681613c90565b82525050565b60a0820160008201516144f260008501826144a0565b50602082015161450560208501826144af565b50604082015161451860408501826144be565b50606082015161452b60608501826144cd565b50608082015161453e60808501826144be565b50505050565b600061455083836144dc565b60a08301905092915050565b6000602082019050919050565b600061457482614474565b61457e818561447f565b935061458983614490565b8060005b838110156145ba5781516145a18882614544565b97506145ac8361455c565b92505060018101905061458d565b5085935050505092915050565b600081519050919050565b600082825260208201905092915050565b6000819050602082019050919050565b606082016000820151614609600085018261426a565b50602082015161461c602085018261363e565b50604082015161462f604085018261426a565b50505050565b600061464183836145f3565b60608301905092915050565b6000602082019050919050565b6000614665826145c7565b61466f81856145d2565b935061467a836145e3565b8060005b838110156146ab5781516146928882614635565b975061469d8361464d565b92505060018101905061467e565b5085935050505092915050565b600060608201905081810360008301526146d2818661438c565b905081810360208301526146e68185614569565b905081810360408301526146fa818461465a565b9050949350505050565b600081905092915050565b7f63726f7373000000000000000000000000000000000000000000000000000000600082015250565b6000614745600583614704565b91506147508261470f565b600582019050919050565b600061476682614738565b9150819050919050565b600061477b82614215565b6147858185614704565b93506147958185602086016129c5565b80840191505092915050565b60006147ad8284614770565b915081905092915050565b6147c181612765565b82525050565b60006080820190506147dc600083018761273b565b81810360208301526147ee8186613401565b90506147fd6040830185612fb7565b61480a60608301846147b8565b95945050505050565b7f4f776e61626c653a206e6577206f776e657220697320746865207a65726f206160008201527f6464726573730000000000000000000000000000000000000000000000000000602082015250565b600061486f602683612845565b915061487a82614813565b604082019050919050565b6000602082019050818103600083015261489e81614862565b9050919050565b7f4f776e61626c653a2063616c6c6572206973206e6f7420746865206f776e6572600082015250565b60006148db602083612845565b91506148e6826148a5565b602082019050919050565b6000602082019050818103600083015261490a816148ce565b9050919050565b61491a81613b35565b82525050565b600060029050919050565b600081905092915050565b6000819050919050565b6000602082019050919050565b61495681614920565b614960818461492b565b925061496b82614936565b8060005b8381101561499c57815161498387826133dc565b965061498e83614940565b92505060018101905061496f565b505050505050565b60006080820190506149b96000830186614911565b6149c6602083018561494d565b6149d36060830184612fb7565b949350505050565b600081905092915050565b60006149f182613a92565b6149fb81856149db565b9350614a0b8185602086016129c5565b80840191505092915050565b6000614a2382846149e6565b915081905092915050565b7f44617461206e6f74207665726966696564000000000000000000000000000000600082015250565b6000614a64601183612845565b9150614a6f82614a2e565b602082019050919050565b60006020820190508181036000830152614a9381614a57565b905091905056fea26469706673582212203ca904b0ca3bdfb5bd79396e6729217226e125043ab766de3404f53b8fa0dea564736f6c63430008180033",
  "linkReferences": {
    "contracts/0xVault/libs/Crypto.sol": {
      "Crypto": [
        {
          "length": 20,
          "start": 4011
        },
        {
          "length": 20,
          "start": 4243
        }
      ]
    },
    "contracts/0xVault/libs/Dex.sol": {
      "Dex": [
        {
          "length": 20,
          "start": 7928
        }
      ]
    },
    "contracts/0xVault/libs/SupraOracleDecoder.sol": {
      "SupraOracleDecoder": [
        {
          "length": 20,
          "start": 6710
        },
        {
          "length": 20,
          "start": 7599
        }
      ]
    }
  },
  "deployedLinkReferences": {
    "contracts/0xVault/libs/Crypto.sol": {
      "Crypto": [
        {
          "length": 20,
          "start": 3214
        },
        {
          "length": 20,
          "start": 3446
        }
      ]
    },
    "contracts/0xVault/libs/Dex.sol": {
      "Dex": [
        {
          "length": 20,
          "start": 7131
        }
      ]
    },
    "contracts/0xVault/libs/SupraOracleDecoder.sol": {
      "SupraOracleDecoder": [
        {
          "length": 20,
          "start": 5913
        },
        {
          "length": 20,
          "start": 6802
        }
      ]
    }
  }
}