{
  "_format": "hh-sol-artifact-1",
  "contractName": "Dex",
  "sourceName": "contracts/0xVault/libs/Dex.sol",
  "abi": [
    {
      "inputs": [],
      "name": "BACKSTOP_LIQUIDATION_PERCENT",
      "outputs": [
        {
          "internalType": "uint256",
          "name": "",
          "type": "uint256"
        }
      ],
      "stateMutability": "view",
      "type": "function"
    },
    {
      "inputs": [],
      "name": "MAINTENANCE_MARGIN_PERCENT",
      "outputs": [
        {
          "internalType": "uint256",
          "name": "",
          "type": "uint256"
        }
      ],
      "stateMutability": "view",
      "type": "function"
    },
    {
      "inputs": [
        {
          "components": [
            {
              "internalType": "string",
              "name": "positionId",
              "type": "string"
            },
            {
              "internalType": "uint256",
              "name": "oracleId",
              "type": "uint256"
            },
            {
              "internalType": "address",
              "name": "token",
              "type": "address"
            },
            {
              "internalType": "uint256",
              "name": "quantity",
              "type": "uint256"
            },
            {
              "internalType": "uint256",
              "name": "leverageFactor",
              "type": "uint256"
            },
            {
              "internalType": "string",
              "name": "leverageType",
              "type": "string"
            },
            {
              "internalType": "bool",
              "name": "isLong",
              "type": "bool"
            },
            {
              "components": [
                {
                  "internalType": "uint256",
                  "name": "oracleId",
                  "type": "uint256"
                },
                {
                  "internalType": "address",
                  "name": "token",
                  "type": "address"
                },
                {
                  "internalType": "uint256",
                  "name": "quantity",
                  "type": "uint256"
                },
                {
                  "internalType": "uint256",
                  "name": "entryPrice",
                  "type": "uint256"
                }
              ],
              "internalType": "struct Crypto.Collateral[]",
              "name": "collaterals",
              "type": "tuple[]"
            },
            {
              "internalType": "uint256",
              "name": "entryPrice",
              "type": "uint256"
            },
            {
              "internalType": "uint256",
              "name": "createdTimestamp",
              "type": "uint256"
            }
          ],
          "internalType": "struct Crypto.Position",
          "name": "position",
          "type": "tuple"
        },
        {
          "components": [
            {
              "internalType": "uint32",
              "name": "pair",
              "type": "uint32"
            },
            {
              "internalType": "uint128",
              "name": "price",
              "type": "uint128"
            },
            {
              "internalType": "uint64",
              "name": "timestamp",
              "type": "uint64"
            },
            {
              "internalType": "uint16",
              "name": "decimals",
              "type": "uint16"
            },
            {
              "internalType": "uint64",
              "name": "round",
              "type": "uint64"
            }
          ],
          "internalType": "struct SupraOracleDecoder.CommitteeFeed[]",
          "name": "allFeeds",
          "type": "tuple[]"
        },
        {
          "components": [
            {
              "internalType": "uint256",
              "name": "oracleId",
              "type": "uint256"
            },
            {
              "internalType": "address",
              "name": "addr",
              "type": "address"
            },
            {
              "internalType": "uint256",
              "name": "balance",
              "type": "uint256"
            }
          ],
          "internalType": "struct Crypto.Balance[]",
          "name": "balances",
          "type": "tuple[]"
        }
      ],
      "name": "_checkLiquidatedPosition",
      "outputs": [
        {
          "internalType": "bool",
          "name": "",
          "type": "bool"
        }
      ],
      "stateMutability": "pure",
      "type": "function"
    },
    {
      "inputs": [
        {
          "components": [
            {
              "internalType": "string",
              "name": "positionId",
              "type": "string"
            },
            {
              "internalType": "uint256",
              "name": "oracleId",
              "type": "uint256"
            },
            {
              "internalType": "address",
              "name": "token",
              "type": "address"
            },
            {
              "internalType": "uint256",
              "name": "quantity",
              "type": "uint256"
            },
            {
              "internalType": "uint256",
              "name": "leverageFactor",
              "type": "uint256"
            },
            {
              "internalType": "string",
              "name": "leverageType",
              "type": "string"
            },
            {
              "internalType": "bool",
              "name": "isLong",
              "type": "bool"
            },
            {
              "components": [
                {
                  "internalType": "uint256",
                  "name": "oracleId",
                  "type": "uint256"
                },
                {
                  "internalType": "address",
                  "name": "token",
                  "type": "address"
                },
                {
                  "internalType": "uint256",
                  "name": "quantity",
                  "type": "uint256"
                },
                {
                  "internalType": "uint256",
                  "name": "entryPrice",
                  "type": "uint256"
                }
              ],
              "internalType": "struct Crypto.Collateral[]",
              "name": "collaterals",
              "type": "tuple[]"
            },
            {
              "internalType": "uint256",
              "name": "entryPrice",
              "type": "uint256"
            },
            {
              "internalType": "uint256",
              "name": "createdTimestamp",
              "type": "uint256"
            }
          ],
          "internalType": "struct Crypto.Position",
          "name": "position",
          "type": "tuple"
        },
        {
          "components": [
            {
              "internalType": "uint32",
              "name": "pair",
              "type": "uint32"
            },
            {
              "internalType": "uint128",
              "name": "price",
              "type": "uint128"
            },
            {
              "internalType": "uint64",
              "name": "timestamp",
              "type": "uint64"
            },
            {
              "internalType": "uint16",
              "name": "decimals",
              "type": "uint16"
            },
            {
              "internalType": "uint64",
              "name": "round",
              "type": "uint64"
            }
          ],
          "internalType": "struct SupraOracleDecoder.CommitteeFeed[]",
          "name": "allFeeds",
          "type": "tuple[]"
        }
      ],
      "name": "_getPositionLoss",
      "outputs": [
        {
          "internalType": "uint256",
          "name": "",
          "type": "uint256"
        }
      ],
      "stateMutability": "pure",
      "type": "function"
    },
    {
      "inputs": [
        {
          "components": [
            {
              "internalType": "uint32",
              "name": "pair",
              "type": "uint32"
            },
            {
              "internalType": "uint128",
              "name": "price",
              "type": "uint128"
            },
            {
              "internalType": "uint64",
              "name": "timestamp",
              "type": "uint64"
            },
            {
              "internalType": "uint16",
              "name": "decimals",
              "type": "uint16"
            },
            {
              "internalType": "uint64",
              "name": "round",
              "type": "uint64"
            }
          ],
          "internalType": "struct SupraOracleDecoder.CommitteeFeed[]",
          "name": "allFeeds",
          "type": "tuple[]"
        },
        {
          "internalType": "uint256",
          "name": "pair",
          "type": "uint256"
        }
      ],
      "name": "_getPriceByPairId",
      "outputs": [
        {
          "internalType": "uint128",
          "name": "",
          "type": "uint128"
        }
      ],
      "stateMutability": "pure",
      "type": "function"
    }
  ],
  "bytecode": "0x611249610053600b82828239805160001a607314610046577f4e487b7100000000000000000000000000000000000000000000000000000000600052600060045260246000fd5b30600052607381538281f3fe73000000000000000000000000000000000000000030146080604052600436106100615760003560e01c806334fea36014610066578063440305c11461009657806355750263146100b45780639c3e9050146100d2578063e499f21514610102575b600080fd5b610080600480360381019061007b9190610c25565b610132565b60405161008d9190610cac565b60405180910390f35b61009e6101db565b6040516100ab9190610cac565b60405180910390f35b6100bc6101e1565b6040516100c99190610cac565b60405180910390f35b6100ec60048036038101906100e79190610cc7565b6101e6565b6040516100f99190610d32565b60405180910390f35b61011c60048036038101906101179190610e74565b610298565b6040516101299190610f2a565b60405180910390f35b6000806101438385602001516101e6565b6fffffffffffffffffffffffffffffffff1684606001516101649190610f74565b90506000846101000151856060015161017d9190610f74565b90508460c00151156101b1578082111561019c576000925050506101d5565b81816101a89190610fb6565b925050506101d5565b808210156101c4576000925050506101d5565b80826101d09190610fb6565b925050505b92915050565b611a0b81565b603281565b600080600090505b8351811015610256578284828151811061020b5761020a610fea565b5b60200260200101516000015163ffffffff16036102495783818151811061023557610234610fea565b5b602002602001015160200151915050610292565b80806001019150506101ee565b506040517f08c379a000000000000000000000000000000000000000000000000000000000815260040161028990611076565b60405180910390fd5b92915050565b6000806000905060006102ab8686610132565b826102b69190611096565b91506000805b8760e00151518110156103ab576102f5878960e0015183815181106102e4576102e3610fea565b5b6020026020010151600001516101e6565b6fffffffffffffffffffffffffffffffff168860e00151828151811061031e5761031d610fea565b5b6020026020010151604001516103349190610f74565b8261033f9190611096565b91508760e00151818151811061035857610357610fea565b5b6020026020010151604001518860e00151828151811061037b5761037a610fea565b5b6020026020010151606001516103919190610f74565b8361039c9190611096565b925080806001019150506102bc565b5080826103b89190610fb6565b836103c39190611096565b92506040516020016103d490611121565b604051602081830303815290604052805190602001208760a001516040516020016103ff919061119c565b60405160208183030381529060405280519060200120036104a55760005b85518110156104a35761044e8787838151811061043d5761043c610fea565b5b6020026020010151600001516101e6565b6fffffffffffffffffffffffffffffffff1686828151811061047357610472610fea565b5b6020026020010151604001516104899190610f74565b836104949190611096565b9250808060010191505061041d565b505b600060646032846104b69190610f74565b6104c091906111e2565b90506000612710611a0b856104d59190610f74565b6104df91906111e2565b9050808511156104f757600195505050505050610517565b8185111561050d57600195505050505050610517565b6000955050505050505b9392505050565b6000604051905090565b600080fd5b600080fd5b600080fd5b6000601f19601f8301169050919050565b7f4e487b7100000000000000000000000000000000000000000000000000000000600052604160045260246000fd5b61058082610537565b810181811067ffffffffffffffff8211171561059f5761059e610548565b5b80604052505050565b60006105b261051e565b90506105be8282610577565b919050565b600080fd5b600080fd5b600080fd5b600067ffffffffffffffff8211156105ed576105ec610548565b5b6105f682610537565b9050602081019050919050565b82818337600083830152505050565b6000610625610620846105d2565b6105a8565b905082815260208101848484011115610641576106406105cd565b5b61064c848285610603565b509392505050565b600082601f830112610669576106686105c8565b5b8135610679848260208601610612565b91505092915050565b6000819050919050565b61069581610682565b81146106a057600080fd5b50565b6000813590506106b28161068c565b92915050565b600073ffffffffffffffffffffffffffffffffffffffff82169050919050565b60006106e3826106b8565b9050919050565b6106f3816106d8565b81146106fe57600080fd5b50565b600081359050610710816106ea565b92915050565b60008115159050919050565b61072b81610716565b811461073657600080fd5b50565b60008135905061074881610722565b92915050565b600067ffffffffffffffff82111561076957610768610548565b5b602082029050602081019050919050565b600080fd5b60006080828403121561079557610794610532565b5b61079f60806105a8565b905060006107af848285016106a3565b60008301525060206107c384828501610701565b60208301525060406107d7848285016106a3565b60408301525060606107eb848285016106a3565b60608301525092915050565b600061080a6108058461074e565b6105a8565b9050808382526020820190506080840283018581111561082d5761082c61077a565b5b835b818110156108565780610842888261077f565b84526020840193505060808101905061082f565b5050509392505050565b600082601f830112610875576108746105c8565b5b81356108858482602086016107f7565b91505092915050565b600061014082840312156108a5576108a4610532565b5b6108b06101406105a8565b9050600082013567ffffffffffffffff8111156108d0576108cf6105c3565b5b6108dc84828501610654565b60008301525060206108f0848285016106a3565b602083015250604061090484828501610701565b6040830152506060610918848285016106a3565b606083015250608061092c848285016106a3565b60808301525060a082013567ffffffffffffffff8111156109505761094f6105c3565b5b61095c84828501610654565b60a08301525060c061097084828501610739565b60c08301525060e082013567ffffffffffffffff811115610994576109936105c3565b5b6109a084828501610860565b60e0830152506101006109b5848285016106a3565b610100830152506101206109cb848285016106a3565b6101208301525092915050565b600067ffffffffffffffff8211156109f3576109f2610548565b5b602082029050602081019050919050565b600063ffffffff82169050919050565b610a1d81610a04565b8114610a2857600080fd5b50565b600081359050610a3a81610a14565b92915050565b60006fffffffffffffffffffffffffffffffff82169050919050565b610a6581610a40565b8114610a7057600080fd5b50565b600081359050610a8281610a5c565b92915050565b600067ffffffffffffffff82169050919050565b610aa581610a88565b8114610ab057600080fd5b50565b600081359050610ac281610a9c565b92915050565b600061ffff82169050919050565b610adf81610ac8565b8114610aea57600080fd5b50565b600081359050610afc81610ad6565b92915050565b600060a08284031215610b1857610b17610532565b5b610b2260a06105a8565b90506000610b3284828501610a2b565b6000830152506020610b4684828501610a73565b6020830152506040610b5a84828501610ab3565b6040830152506060610b6e84828501610aed565b6060830152506080610b8284828501610ab3565b60808301525092915050565b6000610ba1610b9c846109d8565b6105a8565b90508083825260208201905060a08402830185811115610bc457610bc361077a565b5b835b81811015610bed5780610bd98882610b02565b84526020840193505060a081019050610bc6565b5050509392505050565b600082601f830112610c0c57610c0b6105c8565b5b8135610c1c848260208601610b8e565b91505092915050565b60008060408385031215610c3c57610c3b610528565b5b600083013567ffffffffffffffff811115610c5a57610c5961052d565b5b610c668582860161088e565b925050602083013567ffffffffffffffff811115610c8757610c8661052d565b5b610c9385828601610bf7565b9150509250929050565b610ca681610682565b82525050565b6000602082019050610cc16000830184610c9d565b92915050565b60008060408385031215610cde57610cdd610528565b5b600083013567ffffffffffffffff811115610cfc57610cfb61052d565b5b610d0885828601610bf7565b9250506020610d19858286016106a3565b9150509250929050565b610d2c81610a40565b82525050565b6000602082019050610d476000830184610d23565b92915050565b600067ffffffffffffffff821115610d6857610d67610548565b5b602082029050602081019050919050565b600060608284031215610d8f57610d8e610532565b5b610d9960606105a8565b90506000610da9848285016106a3565b6000830152506020610dbd84828501610701565b6020830152506040610dd1848285016106a3565b60408301525092915050565b6000610df0610deb84610d4d565b6105a8565b90508083825260208201905060608402830185811115610e1357610e1261077a565b5b835b81811015610e3c5780610e288882610d79565b845260208401935050606081019050610e15565b5050509392505050565b600082601f830112610e5b57610e5a6105c8565b5b8135610e6b848260208601610ddd565b91505092915050565b600080600060608486031215610e8d57610e8c610528565b5b600084013567ffffffffffffffff811115610eab57610eaa61052d565b5b610eb78682870161088e565b935050602084013567ffffffffffffffff811115610ed857610ed761052d565b5b610ee486828701610bf7565b925050604084013567ffffffffffffffff811115610f0557610f0461052d565b5b610f1186828701610e46565b9150509250925092565b610f2481610716565b82525050565b6000602082019050610f3f6000830184610f1b565b92915050565b7f4e487b7100000000000000000000000000000000000000000000000000000000600052601160045260246000fd5b6000610f7f82610682565b9150610f8a83610682565b9250828202610f9881610682565b91508282048414831517610faf57610fae610f45565b5b5092915050565b6000610fc182610682565b9150610fcc83610682565b9250828203905081811115610fe457610fe3610f45565b5b92915050565b7f4e487b7100000000000000000000000000000000000000000000000000000000600052603260045260246000fd5b600082825260208201905092915050565b7f676976656e2070616972206e6f7420666f756e64000000000000000000000000600082015250565b6000611060601483611019565b915061106b8261102a565b602082019050919050565b6000602082019050818103600083015261108f81611053565b9050919050565b60006110a182610682565b91506110ac83610682565b92508282019050808211156110c4576110c3610f45565b5b92915050565b600081905092915050565b7f63726f7373000000000000000000000000000000000000000000000000000000600082015250565b600061110b6005836110ca565b9150611116826110d5565b600582019050919050565b600061112c826110fe565b9150819050919050565b600081519050919050565b60005b8381101561115f578082015181840152602081019050611144565b60008484015250505050565b600061117682611136565b61118081856110ca565b9350611190818560208601611141565b80840191505092915050565b60006111a8828461116b565b915081905092915050565b7f4e487b7100000000000000000000000000000000000000000000000000000000600052601260045260246000fd5b60006111ed82610682565b91506111f883610682565b925082611208576112076111b3565b5b82820490509291505056fea264697066735822122059efd465a818ce0686c67cc85bf7d9862996647d5d3a09a72dd3e16f3183b2c364736f6c63430008180033",
  "linkReferences": {},
  "deployedLinkReferences": {}
}