{
  "_format": "hh-sol-artifact-1",
  "contractName": "LpProvider",
  "sourceName": "contracts/0xVault/LpProvider.sol",
  "abi": [
    {
      "inputs": [],
      "name": "InvalidInitialization",
      "type": "error"
    },
    {
      "inputs": [],
      "name": "NotInitializing",
      "type": "error"
    },
    {
      "inputs": [
        {
          "internalType": "address",
          "name": "owner",
          "type": "address"
        }
      ],
      "name": "OwnableInvalidOwner",
      "type": "error"
    },
    {
      "inputs": [
        {
          "internalType": "address",
          "name": "account",
          "type": "address"
        }
      ],
      "name": "OwnableUnauthorizedAccount",
      "type": "error"
    },
    {
      "inputs": [],
      "name": "ReentrancyGuardReentrantCall",
      "type": "error"
    },
    {
      "anonymous": false,
      "inputs": [
        {
          "indexed": true,
          "internalType": "address",
          "name": "newColdWallet",
          "type": "address"
        }
      ],
      "name": "ColdWalletChanged",
      "type": "event"
    },
    {
      "anonymous": false,
      "inputs": [
        {
          "indexed": true,
          "internalType": "address",
          "name": "user",
          "type": "address"
        },
        {
          "indexed": true,
          "internalType": "address",
          "name": "token",
          "type": "address"
        },
        {
          "indexed": false,
          "internalType": "uint256",
          "name": "amount",
          "type": "uint256"
        },
        {
          "indexed": false,
          "internalType": "uint256",
          "name": "fundAmount",
          "type": "uint256"
        }
      ],
      "name": "DepositFund",
      "type": "event"
    },
    {
      "anonymous": false,
      "inputs": [
        {
          "indexed": false,
          "internalType": "uint256",
          "name": "newStartEpochTimestamp",
          "type": "uint256"
        },
        {
          "indexed": false,
          "internalType": "uint256",
          "name": "newEpochPeriod",
          "type": "uint256"
        }
      ],
      "name": "EpochParametersChanged",
      "type": "event"
    },
    {
      "anonymous": false,
      "inputs": [
        {
          "indexed": false,
          "internalType": "uint64",
          "name": "version",
          "type": "uint64"
        }
      ],
      "name": "Initialized",
      "type": "event"
    },
    {
      "anonymous": false,
      "inputs": [
        {
          "indexed": true,
          "internalType": "address",
          "name": "user",
          "type": "address"
        },
        {
          "indexed": true,
          "internalType": "address",
          "name": "token",
          "type": "address"
        },
        {
          "indexed": false,
          "internalType": "uint256",
          "name": "amount",
          "type": "uint256"
        }
      ],
      "name": "LPProvided",
      "type": "event"
    },
    {
      "anonymous": false,
      "inputs": [
        {
          "indexed": true,
          "internalType": "address",
          "name": "lpProvider",
          "type": "address"
        },
        {
          "indexed": false,
          "internalType": "bool",
          "name": "isProvider",
          "type": "bool"
        }
      ],
      "name": "LPProviderStatusChanged",
      "type": "event"
    },
    {
      "anonymous": false,
      "inputs": [
        {
          "indexed": true,
          "internalType": "address",
          "name": "user",
          "type": "address"
        },
        {
          "indexed": true,
          "internalType": "address",
          "name": "token",
          "type": "address"
        },
        {
          "indexed": false,
          "internalType": "uint256",
          "name": "amount",
          "type": "uint256"
        }
      ],
      "name": "LPWithdrawn",
      "type": "event"
    },
    {
      "anonymous": false,
      "inputs": [
        {
          "indexed": true,
          "internalType": "address",
          "name": "token",
          "type": "address"
        },
        {
          "indexed": false,
          "internalType": "uint256",
          "name": "newPrice",
          "type": "uint256"
        }
      ],
      "name": "NAVPriceUpdated",
      "type": "event"
    },
    {
      "anonymous": false,
      "inputs": [
        {
          "indexed": true,
          "internalType": "address",
          "name": "newOracle",
          "type": "address"
        }
      ],
      "name": "OracleChanged",
      "type": "event"
    },
    {
      "anonymous": false,
      "inputs": [
        {
          "indexed": true,
          "internalType": "address",
          "name": "previousOwner",
          "type": "address"
        },
        {
          "indexed": true,
          "internalType": "address",
          "name": "newOwner",
          "type": "address"
        }
      ],
      "name": "OwnershipTransferred",
      "type": "event"
    },
    {
      "anonymous": false,
      "inputs": [
        {
          "indexed": true,
          "internalType": "address",
          "name": "token",
          "type": "address"
        },
        {
          "indexed": false,
          "internalType": "uint256",
          "name": "amount",
          "type": "uint256"
        }
      ],
      "name": "RewardDepositedForMarketMaker",
      "type": "event"
    },
    {
      "anonymous": false,
      "inputs": [
        {
          "indexed": true,
          "internalType": "address",
          "name": "newVault",
          "type": "address"
        }
      ],
      "name": "VaultChanged",
      "type": "event"
    },
    {
      "anonymous": false,
      "inputs": [
        {
          "indexed": true,
          "internalType": "address",
          "name": "user",
          "type": "address"
        },
        {
          "indexed": true,
          "internalType": "address",
          "name": "token",
          "type": "address"
        },
        {
          "indexed": false,
          "internalType": "uint256",
          "name": "amount",
          "type": "uint256"
        },
        {
          "indexed": false,
          "internalType": "uint256",
          "name": "fundAmount",
          "type": "uint256"
        }
      ],
      "name": "WithdrawFund",
      "type": "event"
    },
    {
      "anonymous": false,
      "inputs": [
        {
          "indexed": true,
          "internalType": "address",
          "name": "user",
          "type": "address"
        },
        {
          "indexed": true,
          "internalType": "address",
          "name": "token",
          "type": "address"
        },
        {
          "indexed": false,
          "internalType": "uint256",
          "name": "navAmount",
          "type": "uint256"
        },
        {
          "indexed": false,
          "internalType": "uint256",
          "name": "timestamp",
          "type": "uint256"
        }
      ],
      "name": "WithdrawRequested",
      "type": "event"
    },
    {
      "anonymous": false,
      "inputs": [
        {
          "indexed": false,
          "internalType": "uint256",
          "name": "newWithdrawalDelayTime",
          "type": "uint256"
        }
      ],
      "name": "WithdrawalDelayTimeChanged",
      "type": "event"
    },
    {
      "inputs": [],
      "name": "NAV_DECIMALS",
      "outputs": [
        {
          "internalType": "uint256",
          "name": "",
          "type": "uint256"
        }
      ],
      "stateMutability": "view",
      "type": "function"
    },
    {
      "inputs": [],
      "name": "coldWallet",
      "outputs": [
        {
          "internalType": "address",
          "name": "",
          "type": "address"
        }
      ],
      "stateMutability": "view",
      "type": "function"
    },
    {
      "inputs": [
        {
          "internalType": "address",
          "name": "token",
          "type": "address"
        },
        {
          "internalType": "uint256",
          "name": "amount",
          "type": "uint256"
        }
      ],
      "name": "decreaseLpProvidedAmount",
      "outputs": [],
      "stateMutability": "nonpayable",
      "type": "function"
    },
    {
      "inputs": [
        {
          "internalType": "address",
          "name": "token",
          "type": "address"
        },
        {
          "internalType": "uint256",
          "name": "amount",
          "type": "uint256"
        }
      ],
      "name": "depositFund",
      "outputs": [],
      "stateMutability": "nonpayable",
      "type": "function"
    },
    {
      "inputs": [
        {
          "internalType": "address",
          "name": "token",
          "type": "address"
        },
        {
          "internalType": "uint256",
          "name": "amount",
          "type": "uint256"
        }
      ],
      "name": "depositRewardForMarketMaker",
      "outputs": [],
      "stateMutability": "nonpayable",
      "type": "function"
    },
    {
      "inputs": [],
      "name": "epochPeriod",
      "outputs": [
        {
          "internalType": "uint256",
          "name": "",
          "type": "uint256"
        }
      ],
      "stateMutability": "view",
      "type": "function"
    },
    {
      "inputs": [
        {
          "internalType": "address",
          "name": "",
          "type": "address"
        }
      ],
      "name": "fundAmount",
      "outputs": [
        {
          "internalType": "uint256",
          "name": "",
          "type": "uint256"
        }
      ],
      "stateMutability": "view",
      "type": "function"
    },
    {
      "inputs": [
        {
          "internalType": "address",
          "name": "token",
          "type": "address"
        },
        {
          "internalType": "uint256",
          "name": "amount",
          "type": "uint256"
        }
      ],
      "name": "increaseLpProvidedAmount",
      "outputs": [],
      "stateMutability": "nonpayable",
      "type": "function"
    },
    {
      "inputs": [
        {
          "internalType": "address",
          "name": "_owner",
          "type": "address"
        },
        {
          "internalType": "address",
          "name": "_vault",
          "type": "address"
        },
        {
          "internalType": "address",
          "name": "_oracle",
          "type": "address"
        },
        {
          "internalType": "uint256",
          "name": "_epochPeriod",
          "type": "uint256"
        },
        {
          "internalType": "uint256",
          "name": "_startEpochTimestamp",
          "type": "uint256"
        },
        {
          "internalType": "uint256",
          "name": "_withdrawalDelayTime",
          "type": "uint256"
        },
        {
          "internalType": "address",
          "name": "_coldWallet",
          "type": "address"
        }
      ],
      "name": "initialize",
      "outputs": [],
      "stateMutability": "nonpayable",
      "type": "function"
    },
    {
      "inputs": [
        {
          "internalType": "address",
          "name": "",
          "type": "address"
        }
      ],
      "name": "isLPProvider",
      "outputs": [
        {
          "internalType": "bool",
          "name": "",
          "type": "bool"
        }
      ],
      "stateMutability": "view",
      "type": "function"
    },
    {
      "inputs": [
        {
          "internalType": "address",
          "name": "",
          "type": "address"
        }
      ],
      "name": "lpProvidedAmount",
      "outputs": [
        {
          "internalType": "uint256",
          "name": "",
          "type": "uint256"
        }
      ],
      "stateMutability": "view",
      "type": "function"
    },
    {
      "inputs": [
        {
          "internalType": "address",
          "name": "",
          "type": "address"
        }
      ],
      "name": "navPrices",
      "outputs": [
        {
          "internalType": "uint256",
          "name": "",
          "type": "uint256"
        }
      ],
      "stateMutability": "view",
      "type": "function"
    },
    {
      "inputs": [],
      "name": "oracle",
      "outputs": [
        {
          "internalType": "address",
          "name": "",
          "type": "address"
        }
      ],
      "stateMutability": "view",
      "type": "function"
    },
    {
      "inputs": [],
      "name": "owner",
      "outputs": [
        {
          "internalType": "address",
          "name": "",
          "type": "address"
        }
      ],
      "stateMutability": "view",
      "type": "function"
    },
    {
      "inputs": [
        {
          "internalType": "address",
          "name": "token",
          "type": "address"
        },
        {
          "internalType": "uint256",
          "name": "amount",
          "type": "uint256"
        }
      ],
      "name": "provideLiquidity",
      "outputs": [],
      "stateMutability": "nonpayable",
      "type": "function"
    },
    {
      "inputs": [],
      "name": "renounceOwnership",
      "outputs": [],
      "stateMutability": "nonpayable",
      "type": "function"
    },
    {
      "inputs": [
        {
          "internalType": "address",
          "name": "",
          "type": "address"
        },
        {
          "internalType": "address",
          "name": "",
          "type": "address"
        }
      ],
      "name": "reqWithdraws",
      "outputs": [
        {
          "internalType": "uint256",
          "name": "navAmount",
          "type": "uint256"
        },
        {
          "internalType": "uint256",
          "name": "timestamp",
          "type": "uint256"
        }
      ],
      "stateMutability": "view",
      "type": "function"
    },
    {
      "inputs": [
        {
          "internalType": "address",
          "name": "token",
          "type": "address"
        },
        {
          "internalType": "uint256",
          "name": "navsAmount",
          "type": "uint256"
        }
      ],
      "name": "requestWithdrawFund",
      "outputs": [],
      "stateMutability": "nonpayable",
      "type": "function"
    },
    {
      "inputs": [
        {
          "internalType": "address",
          "name": "_coldWallet",
          "type": "address"
        }
      ],
      "name": "setColdWallet",
      "outputs": [],
      "stateMutability": "nonpayable",
      "type": "function"
    },
    {
      "inputs": [
        {
          "internalType": "uint256",
          "name": "_startEpochTimestamp",
          "type": "uint256"
        },
        {
          "internalType": "uint256",
          "name": "_epochPeriod",
          "type": "uint256"
        }
      ],
      "name": "setEpochParameters",
      "outputs": [],
      "stateMutability": "nonpayable",
      "type": "function"
    },
    {
      "inputs": [
        {
          "internalType": "address[]",
          "name": "lpProvider",
          "type": "address[]"
        },
        {
          "internalType": "bool[]",
          "name": "isProvider",
          "type": "bool[]"
        }
      ],
      "name": "setLPProvider",
      "outputs": [],
      "stateMutability": "nonpayable",
      "type": "function"
    },
    {
      "inputs": [
        {
          "internalType": "address",
          "name": "token",
          "type": "address"
        },
        {
          "internalType": "uint256",
          "name": "newPrice",
          "type": "uint256"
        }
      ],
      "name": "setNAVPrice",
      "outputs": [],
      "stateMutability": "nonpayable",
      "type": "function"
    },
    {
      "inputs": [
        {
          "internalType": "address[]",
          "name": "tokens",
          "type": "address[]"
        },
        {
          "internalType": "uint256[]",
          "name": "prices",
          "type": "uint256[]"
        }
      ],
      "name": "setNAVPrices",
      "outputs": [],
      "stateMutability": "nonpayable",
      "type": "function"
    },
    {
      "inputs": [
        {
          "internalType": "address",
          "name": "_oracle",
          "type": "address"
        }
      ],
      "name": "setOracle",
      "outputs": [],
      "stateMutability": "nonpayable",
      "type": "function"
    },
    {
      "inputs": [
        {
          "internalType": "address",
          "name": "_vault",
          "type": "address"
        }
      ],
      "name": "setVault",
      "outputs": [],
      "stateMutability": "nonpayable",
      "type": "function"
    },
    {
      "inputs": [
        {
          "internalType": "uint256",
          "name": "_withdrawalDelayTime",
          "type": "uint256"
        }
      ],
      "name": "setWithdrawalDelayTime",
      "outputs": [],
      "stateMutability": "nonpayable",
      "type": "function"
    },
    {
      "inputs": [],
      "name": "startEpochTimestamp",
      "outputs": [
        {
          "internalType": "uint256",
          "name": "",
          "type": "uint256"
        }
      ],
      "stateMutability": "view",
      "type": "function"
    },
    {
      "inputs": [
        {
          "internalType": "address",
          "name": "",
          "type": "address"
        }
      ],
      "name": "totalNAVs",
      "outputs": [
        {
          "internalType": "uint256",
          "name": "",
          "type": "uint256"
        }
      ],
      "stateMutability": "view",
      "type": "function"
    },
    {
      "inputs": [
        {
          "internalType": "address",
          "name": "newOwner",
          "type": "address"
        }
      ],
      "name": "transferOwnership",
      "outputs": [],
      "stateMutability": "nonpayable",
      "type": "function"
    },
    {
      "inputs": [
        {
          "internalType": "address",
          "name": "",
          "type": "address"
        },
        {
          "internalType": "address",
          "name": "",
          "type": "address"
        }
      ],
      "name": "userNAVs",
      "outputs": [
        {
          "internalType": "uint256",
          "name": "",
          "type": "uint256"
        }
      ],
      "stateMutability": "view",
      "type": "function"
    },
    {
      "inputs": [],
      "name": "vault",
      "outputs": [
        {
          "internalType": "address",
          "name": "",
          "type": "address"
        }
      ],
      "stateMutability": "view",
      "type": "function"
    },
    {
      "inputs": [
        {
          "internalType": "address",
          "name": "token",
          "type": "address"
        }
      ],
      "name": "withdrawAllLiquidity",
      "outputs": [],
      "stateMutability": "nonpayable",
      "type": "function"
    },
    {
      "inputs": [
        {
          "internalType": "address",
          "name": "token",
          "type": "address"
        }
      ],
      "name": "withdrawFund",
      "outputs": [],
      "stateMutability": "nonpayable",
      "type": "function"
    },
    {
      "inputs": [],
      "name": "withdrawalDelayTime",
      "outputs": [
        {
          "internalType": "uint256",
          "name": "",
          "type": "uint256"
        }
      ],
      "stateMutability": "view",
      "type": "function"
    }
  ],
  "bytecode": "0x608060405234801561001057600080fd5b506147b3806100206000396000f3fe608060405234801561001057600080fd5b50600436106102055760003560e01c8063715018a61161011a578063a2e8d38b116100ad578063d7da2c501161007c578063d7da2c5014610597578063d8fc2f94146105c7578063f0f998e9146105f7578063f2fde38b14610613578063fbfa77cf1461062f57610205565b8063a2e8d38b14610511578063b5b7a1841461052d578063b82ffdf91461054b578063cd1d89b01461057b57610205565b80638754bbc6116100e95780638754bbc61461049f5780638da5cb5b146104bb5780639b2815cd146104d95780639d1dd0da146104f557610205565b8063715018a61461043d5780637adbf973146104475780637dc0d1d0146104635780637e41ac171461048157610205565b80633f5961551161019d5780636817031b1161016c5780636817031b1461039b5780636aa9f686146103b75780636be13c92146103d35780636d2bffb0146103f15780636e4626db1461042157610205565b80633f5961551461031757806349e36393146103475780635376f1a3146103635780635fea61201461037f57610205565b8063195bac62116101d9578063195bac621461027c57806326e315161461029857806335e3212c146102c95780633a74595c146102f957610205565b8062c15bde1461020a57806306087e5b1461022657806306ae63ae14610242578063125d5d711461025e575b600080fd5b610224600480360381019061021f9190613805565b61064d565b005b610240600480360381019061023b9190613845565b6106f7565b005b61025c60048036038101906102579190613872565b6107f5565b005b610266610848565b60405161027391906138c1565b60405180910390f35b61029660048036038101906102919190613805565b61084e565b005b6102b260048036038101906102ad91906138dc565b61099b565b6040516102c092919061391c565b60405180910390f35b6102e360048036038101906102de9190613845565b6109cc565b6040516102f091906138c1565b60405180910390f35b6103016109e4565b60405161030e91906138c1565b60405180910390f35b610331600480360381019061032c91906138dc565b6109ea565b60405161033e91906138c1565b60405180910390f35b610361600480360381019061035c9190613805565b610a0f565b005b61037d60048036038101906103789190613845565b610af0565b005b61039960048036038101906103949190613805565b610d13565b005b6103b560048036038101906103b09190613845565b611088565b005b6103d160048036038101906103cc9190613945565b611185565b005b6103db6111ce565b6040516103e89190613981565b60405180910390f35b61040b60048036038101906104069190613845565b6111f4565b60405161041891906138c1565b60405180910390f35b61043b60048036038101906104369190613805565b61120c565b005b61044561148d565b005b610461600480360381019061045c9190613845565b6114a1565b005b61046b61159f565b6040516104789190613981565b60405180910390f35b6104896115c5565b60405161049691906138c1565b60405180910390f35b6104b960048036038101906104b4919061399c565b6115ca565b005b6104c3611977565b6040516104d09190613981565b60405180910390f35b6104f360048036038101906104ee9190613af9565b6119af565b005b61050f600480360381019061050a9190613805565b611b33565b005b61052b60048036038101906105269190613bd0565b611ddf565b005b610535611f92565b60405161054291906138c1565b60405180910390f35b61056560048036038101906105609190613845565b611f98565b60405161057291906138c1565b60405180910390f35b61059560048036038101906105909190613805565b611fb0565b005b6105b160048036038101906105ac9190613845565b61223b565b6040516105be91906138c1565b60405180910390f35b6105e160048036038101906105dc9190613845565b612253565b6040516105ee9190613c6c565b60405180910390f35b610611600480360381019061060c9190613845565b612273565b005b61062d60048036038101906106289190613845565b6125da565b005b610637612660565b6040516106449190613981565b60405180910390f35b610655612684565b600660003373ffffffffffffffffffffffffffffffffffffffff1673ffffffffffffffffffffffffffffffffffffffff16815260200190815260200160002060009054906101000a900460ff166106e1576040517f08c379a00000000000000000000000000000000000000000000000000000000081526004016106d890613ce4565b60405180910390fd5b6106eb82826126db565b6106f3612b75565b5050565b6106ff612b8e565b600073ffffffffffffffffffffffffffffffffffffffff168173ffffffffffffffffffffffffffffffffffffffff160361076e576040517f08c379a000000000000000000000000000000000000000000000000000000000815260040161076590613d50565b60405180910390fd5b80600160006101000a81548173ffffffffffffffffffffffffffffffffffffffff021916908373ffffffffffffffffffffffffffffffffffffffff1602179055508073ffffffffffffffffffffffffffffffffffffffff167f12b87b4923747c53aaddfd1b826b461a2f191f35bcebb9b2a4194c47d664be6560405160405180910390a250565b6107fd612b8e565b81600381905550806004819055507f6effba7817449d7581339d631efecc0223e5d4c8f3d9760157d8ee2458e72e20828260405161083c92919061391c565b60405180910390a15050565b60035481565b60008054906101000a900473ffffffffffffffffffffffffffffffffffffffff1673ffffffffffffffffffffffffffffffffffffffff163373ffffffffffffffffffffffffffffffffffffffff16146108dc576040517f08c379a00000000000000000000000000000000000000000000000000000000081526004016108d390613dbc565b60405180910390fd5b80600760008473ffffffffffffffffffffffffffffffffffffffff1673ffffffffffffffffffffffffffffffffffffffff168152602001908152602001600020600082825461092b9190613e0b565b925050819055508173ffffffffffffffffffffffffffffffffffffffff163073ffffffffffffffffffffffffffffffffffffffff167f475ce1a1fde21a55ef3ff23bc7394d2bb1403cbbbcc86e762514d5dbce3b835c8360405161098f91906138c1565b60405180910390a35050565b600c602052816000526040600020602052806000526040600020600091509150508060000154908060010154905082565b60076020528060005260406000206000915090505481565b60055481565b600a602052816000526040600020602052806000526040600020600091509150505481565b610a17612b8e565b60008111610a5a576040517f08c379a0000000000000000000000000000000000000000000000000000000008152600401610a5190613e8b565b60405180910390fd5b80600b60008473ffffffffffffffffffffffffffffffffffffffff1673ffffffffffffffffffffffffffffffffffffffff168152602001908152602001600020819055508173ffffffffffffffffffffffffffffffffffffffff167f8ca3d687dfb1def1ebc2e09a8bf66b015b488dfc7bb99f30f3ac0792bf0df41f82604051610ae491906138c1565b60405180910390a25050565b610af8612684565b600660003373ffffffffffffffffffffffffffffffffffffffff1673ffffffffffffffffffffffffffffffffffffffff16815260200190815260200160002060009054906101000a900460ff16610b84576040517f08c379a0000000000000000000000000000000000000000000000000000000008152600401610b7b90613ce4565b60405180910390fd5b6000600c60008373ffffffffffffffffffffffffffffffffffffffff1673ffffffffffffffffffffffffffffffffffffffff16815260200190815260200160002060003373ffffffffffffffffffffffffffffffffffffffff1673ffffffffffffffffffffffffffffffffffffffff1681526020019081526020016000206040518060400160405290816000820154815260200160018201548152505090508060200151421015610c6a576040517f08c379a0000000000000000000000000000000000000000000000000000000008152600401610c6190613ef7565b60405180910390fd5b610c78828260000151612c15565b600c60008373ffffffffffffffffffffffffffffffffffffffff1673ffffffffffffffffffffffffffffffffffffffff16815260200190815260200160002060003373ffffffffffffffffffffffffffffffffffffffff1673ffffffffffffffffffffffffffffffffffffffff1681526020019081526020016000206000808201600090556001820160009055505050610d10612b75565b50565b610d1b612684565b600660003373ffffffffffffffffffffffffffffffffffffffff1673ffffffffffffffffffffffffffffffffffffffff16815260200190815260200160002060009054906101000a900460ff16610da7576040517f08c379a0000000000000000000000000000000000000000000000000000000008152600401610d9e90613ce4565b60405180910390fd5b60008111610dea576040517f08c379a0000000000000000000000000000000000000000000000000000000008152600401610de190613f63565b60405180910390fd5b60008054906101000a900473ffffffffffffffffffffffffffffffffffffffff1673ffffffffffffffffffffffffffffffffffffffff166375151b63836040518263ffffffff1660e01b8152600401610e439190613981565b602060405180830381865afa158015610e60573d6000803e3d6000fd5b505050506040513d601f19601f82011682018060405250810190610e849190613faf565b610ec3576040517f08c379a0000000000000000000000000000000000000000000000000000000008152600401610eba90614028565b60405180910390fd5b8173ffffffffffffffffffffffffffffffffffffffff166323b872dd3330846040518463ffffffff1660e01b8152600401610f0093929190614048565b6020604051808303816000875af1158015610f1f573d6000803e3d6000fd5b505050506040513d601f19601f82011682018060405250810190610f439190613faf565b610f82576040517f08c379a0000000000000000000000000000000000000000000000000000000008152600401610f79906140cb565b60405180910390fd5b80600760008473ffffffffffffffffffffffffffffffffffffffff1673ffffffffffffffffffffffffffffffffffffffff1681526020019081526020016000206000828254610fd19190613e0b565b925050819055508173ffffffffffffffffffffffffffffffffffffffff163373ffffffffffffffffffffffffffffffffffffffff167f475ce1a1fde21a55ef3ff23bc7394d2bb1403cbbbcc86e762514d5dbce3b835c600760008673ffffffffffffffffffffffffffffffffffffffff1673ffffffffffffffffffffffffffffffffffffffff1681526020019081526020016000205460405161107491906138c1565b60405180910390a3611084612b75565b5050565b611090612b8e565b600073ffffffffffffffffffffffffffffffffffffffff168173ffffffffffffffffffffffffffffffffffffffff16036110ff576040517f08c379a00000000000000000000000000000000000000000000000000000000081526004016110f690614137565b60405180910390fd5b806000806101000a81548173ffffffffffffffffffffffffffffffffffffffff021916908373ffffffffffffffffffffffffffffffffffffffff1602179055508073ffffffffffffffffffffffffffffffffffffffff167fa49691f0dd6477ccef49962612a236d252e3a31c3be8b61fa6abeff3e74a757260405160405180910390a250565b61118d612b8e565b806005819055507f9d9c46a2a013deb548384cacd2b81266c0999b6bf5e0ac1982e780e9dcfb5baa816040516111c391906138c1565b60405180910390a150565b600160009054906101000a900473ffffffffffffffffffffffffffffffffffffffff1681565b600b6020528060005260406000206000915090505481565b611214612684565b600660003373ffffffffffffffffffffffffffffffffffffffff1673ffffffffffffffffffffffffffffffffffffffff16815260200190815260200160002060009054906101000a900460ff166112a0576040517f08c379a000000000000000000000000000000000000000000000000000000000815260040161129790613ce4565b60405180910390fd5b80600a60008473ffffffffffffffffffffffffffffffffffffffff1673ffffffffffffffffffffffffffffffffffffffff16815260200190815260200160002060003373ffffffffffffffffffffffffffffffffffffffff1673ffffffffffffffffffffffffffffffffffffffff16815260200190815260200160002054101561135f576040517f08c379a0000000000000000000000000000000000000000000000000000000008152600401611356906141a3565b60405180910390fd5b60006005544261136f9190613e0b565b9050604051806040016040528083815260200182815250600c60008573ffffffffffffffffffffffffffffffffffffffff1673ffffffffffffffffffffffffffffffffffffffff16815260200190815260200160002060003373ffffffffffffffffffffffffffffffffffffffff1673ffffffffffffffffffffffffffffffffffffffff16815260200190815260200160002060008201518160000155602082015181600101559050508273ffffffffffffffffffffffffffffffffffffffff163373ffffffffffffffffffffffffffffffffffffffff167f8fa53c657d42560b16de22b6a3c450f4a27a432c64f8549a2e7084926f2c34ab848460405161147892919061391c565b60405180910390a350611489612b75565b5050565b611495612b8e565b61149f6000612fcc565b565b6114a9612b8e565b600073ffffffffffffffffffffffffffffffffffffffff168173ffffffffffffffffffffffffffffffffffffffff1603611518576040517f08c379a000000000000000000000000000000000000000000000000000000000815260040161150f9061420f565b60405180910390fd5b80600260006101000a81548173ffffffffffffffffffffffffffffffffffffffff021916908373ffffffffffffffffffffffffffffffffffffffff1602179055508073ffffffffffffffffffffffffffffffffffffffff167f0e05ae75e8b926552cf6fcd744d19f422561e3ced1e426868730852702dbe41860405160405180910390a250565b600260009054906101000a900473ffffffffffffffffffffffffffffffffffffffff1681565b601281565b60006115d46130a3565b905060008160000160089054906101000a900460ff1615905060008260000160009054906101000a900467ffffffffffffffff1690506000808267ffffffffffffffff161480156116225750825b9050600060018367ffffffffffffffff16148015611657575060003073ffffffffffffffffffffffffffffffffffffffff163b145b905081158015611665575080155b1561169c576040517ff92ee8a900000000000000000000000000000000000000000000000000000000815260040160405180910390fd5b60018560000160006101000a81548167ffffffffffffffff021916908367ffffffffffffffff16021790555083156116ec5760018560000160086101000a81548160ff0219169083151502179055505b6116f58c6130cb565b6116fd6130df565b8a6000806101000a81548173ffffffffffffffffffffffffffffffffffffffff021916908373ffffffffffffffffffffffffffffffffffffffff16021790555089600260006101000a81548173ffffffffffffffffffffffffffffffffffffffff021916908373ffffffffffffffffffffffffffffffffffffffff16021790555088600481905550876003819055508660058190555085600160006101000a81548173ffffffffffffffffffffffffffffffffffffffff021916908373ffffffffffffffffffffffffffffffffffffffff1602179055508a73ffffffffffffffffffffffffffffffffffffffff167fa49691f0dd6477ccef49962612a236d252e3a31c3be8b61fa6abeff3e74a757260405160405180910390a28973ffffffffffffffffffffffffffffffffffffffff167f0e05ae75e8b926552cf6fcd744d19f422561e3ced1e426868730852702dbe41860405160405180910390a27f6effba7817449d7581339d631efecc0223e5d4c8f3d9760157d8ee2458e72e20888a60405161188b92919061391c565b60405180910390a17f9d9c46a2a013deb548384cacd2b81266c0999b6bf5e0ac1982e780e9dcfb5baa876040516118c291906138c1565b60405180910390a18573ffffffffffffffffffffffffffffffffffffffff167f12b87b4923747c53aaddfd1b826b461a2f191f35bcebb9b2a4194c47d664be6560405160405180910390a283156119695760008560000160086101000a81548160ff0219169083151502179055507fc7f505b2f371ae2175ee4913f4499e1f2633a7b5936321eed1cdaeb6115181d260016040516119609190614288565b60405180910390a15b505050505050505050505050565b6000806119826130f1565b90508060000160009054906101000a900473ffffffffffffffffffffffffffffffffffffffff1691505090565b6119b7612b8e565b8181905084849050146119ff576040517f08c379a00000000000000000000000000000000000000000000000000000000081526004016119f6906142ef565b60405180910390fd5b60005b84849050811015611b2c57828282818110611a2057611a1f61430f565b5b90506020020135600b6000878785818110611a3e57611a3d61430f565b5b9050602002016020810190611a539190613845565b73ffffffffffffffffffffffffffffffffffffffff1673ffffffffffffffffffffffffffffffffffffffff16815260200190815260200160002081905550848482818110611aa457611aa361430f565b5b9050602002016020810190611ab99190613845565b73ffffffffffffffffffffffffffffffffffffffff167f8ca3d687dfb1def1ebc2e09a8bf66b015b488dfc7bb99f30f3ac0792bf0df41f848484818110611b0357611b0261430f565b5b90506020020135604051611b1791906138c1565b60405180910390a28080600101915050611a02565b5050505050565b60008054906101000a900473ffffffffffffffffffffffffffffffffffffffff1673ffffffffffffffffffffffffffffffffffffffff163373ffffffffffffffffffffffffffffffffffffffff1614611bc1576040517f08c379a0000000000000000000000000000000000000000000000000000000008152600401611bb890613dbc565b60405180910390fd5b80600760008473ffffffffffffffffffffffffffffffffffffffff1673ffffffffffffffffffffffffffffffffffffffff168152602001908152602001600020541015611c43576040517f08c379a0000000000000000000000000000000000000000000000000000000008152600401611c3a9061438a565b60405180910390fd5b8173ffffffffffffffffffffffffffffffffffffffff1663a9059cbb60008054906101000a900473ffffffffffffffffffffffffffffffffffffffff16836040518363ffffffff1660e01b8152600401611c9e9291906143aa565b6020604051808303816000875af1158015611cbd573d6000803e3d6000fd5b505050506040513d601f19601f82011682018060405250810190611ce19190613faf565b611d20576040517f08c379a0000000000000000000000000000000000000000000000000000000008152600401611d17906140cb565b60405180910390fd5b80600760008473ffffffffffffffffffffffffffffffffffffffff1673ffffffffffffffffffffffffffffffffffffffff1681526020019081526020016000206000828254611d6f91906143d3565b925050819055508173ffffffffffffffffffffffffffffffffffffffff163073ffffffffffffffffffffffffffffffffffffffff167f87643e0436c867defcc7b4812259dde63cbe46038012cde1457289586e63acca83604051611dd391906138c1565b60405180910390a35050565b611de7612b8e565b818190508484905014611e2f576040517f08c379a0000000000000000000000000000000000000000000000000000000008152600401611e26906142ef565b60405180910390fd5b60005b84849050811015611f8b57828282818110611e5057611e4f61430f565b5b9050602002016020810190611e65919061441c565b60066000878785818110611e7c57611e7b61430f565b5b9050602002016020810190611e919190613845565b73ffffffffffffffffffffffffffffffffffffffff1673ffffffffffffffffffffffffffffffffffffffff16815260200190815260200160002060006101000a81548160ff021916908315150217905550848482818110611ef557611ef461430f565b5b9050602002016020810190611f0a9190613845565b73ffffffffffffffffffffffffffffffffffffffff167f3935342b137d19ff436f616ae14e5ad1acb71b4683facd025b1ef030798b4109848484818110611f5457611f5361430f565b5b9050602002016020810190611f69919061441c565b604051611f769190613c6c565b60405180910390a28080600101915050611e32565b5050505050565b60045481565b60086020528060005260406000206000915090505481565b611fb8612b8e565b60008111611ffb576040517f08c379a0000000000000000000000000000000000000000000000000000000008152600401611ff290613f63565b60405180910390fd5b60008054906101000a900473ffffffffffffffffffffffffffffffffffffffff1673ffffffffffffffffffffffffffffffffffffffff166375151b63836040518263ffffffff1660e01b81526004016120549190613981565b602060405180830381865afa158015612071573d6000803e3d6000fd5b505050506040513d601f19601f820116820180604052508101906120959190613faf565b6120d4576040517f08c379a00000000000000000000000000000000000000000000000000000000081526004016120cb90614028565b60405180910390fd5b8173ffffffffffffffffffffffffffffffffffffffff166323b872dd3330846040518463ffffffff1660e01b815260040161211193929190614048565b6020604051808303816000875af1158015612130573d6000803e3d6000fd5b505050506040513d601f19601f820116820180604052508101906121549190613faf565b612193576040517f08c379a000000000000000000000000000000000000000000000000000000000815260040161218a906140cb565b60405180910390fd5b80600860008473ffffffffffffffffffffffffffffffffffffffff1673ffffffffffffffffffffffffffffffffffffffff16815260200190815260200160002060008282546121e29190613e0b565b925050819055508173ffffffffffffffffffffffffffffffffffffffff167f7bd42206aa7f89bfe6e3764927e5614e3a12b3badbd573aca37817ea45d6c6f68260405161222f91906138c1565b60405180910390a25050565b60096020528060005260406000206000915090505481565b60066020528060005260406000206000915054906101000a900460ff1681565b61227b612684565b600660003373ffffffffffffffffffffffffffffffffffffffff1673ffffffffffffffffffffffffffffffffffffffff16815260200190815260200160002060009054906101000a900460ff16612307576040517f08c379a00000000000000000000000000000000000000000000000000000000081526004016122fe90613ce4565b60405180910390fd5b60008054906101000a900473ffffffffffffffffffffffffffffffffffffffff1673ffffffffffffffffffffffffffffffffffffffff166375151b63826040518263ffffffff1660e01b81526004016123609190613981565b602060405180830381865afa15801561237d573d6000803e3d6000fd5b505050506040513d601f19601f820116820180604052508101906123a19190613faf565b6123e0576040517f08c379a00000000000000000000000000000000000000000000000000000000081526004016123d790614028565b60405180910390fd5b6000600760008373ffffffffffffffffffffffffffffffffffffffff1673ffffffffffffffffffffffffffffffffffffffff16815260200190815260200160002054905060008111612467576040517f08c379a000000000000000000000000000000000000000000000000000000000815260040161245e90614495565b60405180910390fd5b8173ffffffffffffffffffffffffffffffffffffffff1663a9059cbb33836040518363ffffffff1660e01b81526004016124a29291906143aa565b6020604051808303816000875af11580156124c1573d6000803e3d6000fd5b505050506040513d601f19601f820116820180604052508101906124e59190613faf565b612524576040517f08c379a000000000000000000000000000000000000000000000000000000000815260040161251b906140cb565b60405180910390fd5b6000600760008473ffffffffffffffffffffffffffffffffffffffff1673ffffffffffffffffffffffffffffffffffffffff168152602001908152602001600020819055508173ffffffffffffffffffffffffffffffffffffffff163373ffffffffffffffffffffffffffffffffffffffff167f87643e0436c867defcc7b4812259dde63cbe46038012cde1457289586e63acca836040516125c691906138c1565b60405180910390a3506125d7612b75565b50565b6125e2612b8e565b600073ffffffffffffffffffffffffffffffffffffffff168173ffffffffffffffffffffffffffffffffffffffff16036126545760006040517f1e4fbdf700000000000000000000000000000000000000000000000000000000815260040161264b9190613981565b60405180910390fd5b61265d81612fcc565b50565b60008054906101000a900473ffffffffffffffffffffffffffffffffffffffff1681565b600061268e613119565b905060028160000154036126ce576040517f3ee5aeb500000000000000000000000000000000000000000000000000000000815260040160405180910390fd5b6002816000018190555050565b6000811161271e576040517f08c379a000000000000000000000000000000000000000000000000000000000815260040161271590613f63565b60405180910390fd5b60008054906101000a900473ffffffffffffffffffffffffffffffffffffffff1673ffffffffffffffffffffffffffffffffffffffff166375151b63836040518263ffffffff1660e01b81526004016127779190613981565b602060405180830381865afa158015612794573d6000803e3d6000fd5b505050506040513d601f19601f820116820180604052508101906127b89190613faf565b6127f7576040517f08c379a00000000000000000000000000000000000000000000000000000000081526004016127ee90614028565b60405180910390fd5b8173ffffffffffffffffffffffffffffffffffffffff166323b872dd33600160009054906101000a900473ffffffffffffffffffffffffffffffffffffffff16846040518463ffffffff1660e01b815260040161285693929190614048565b6020604051808303816000875af1158015612875573d6000803e3d6000fd5b505050506040513d601f19601f820116820180604052508101906128999190613faf565b6128d8576040517f08c379a00000000000000000000000000000000000000000000000000000000081526004016128cf906140cb565b60405180910390fd5b6000600b60008473ffffffffffffffffffffffffffffffffffffffff1673ffffffffffffffffffffffffffffffffffffffff168152602001908152602001600020540361297d576012600a61292d91906145e8565b60016129399190614633565b600b60008473ffffffffffffffffffffffffffffffffffffffff1673ffffffffffffffffffffffffffffffffffffffff168152602001908152602001600020819055505b60006129898383613141565b905080600a60008573ffffffffffffffffffffffffffffffffffffffff1673ffffffffffffffffffffffffffffffffffffffff16815260200190815260200160002060003373ffffffffffffffffffffffffffffffffffffffff1673ffffffffffffffffffffffffffffffffffffffff1681526020019081526020016000206000828254612a179190613e0b565b9250508190555081600860008573ffffffffffffffffffffffffffffffffffffffff1673ffffffffffffffffffffffffffffffffffffffff1681526020019081526020016000206000828254612a6d9190613e0b565b9250508190555080600960008573ffffffffffffffffffffffffffffffffffffffff1673ffffffffffffffffffffffffffffffffffffffff1681526020019081526020016000206000828254612ac39190613e0b565b925050819055508273ffffffffffffffffffffffffffffffffffffffff163373ffffffffffffffffffffffffffffffffffffffff167ff09a5fa3195e3e263d45424b2cdacfd0eea5dd2fdf46f31140babc0fde60abb984600860008873ffffffffffffffffffffffffffffffffffffffff1673ffffffffffffffffffffffffffffffffffffffff16815260200190815260200160002054604051612b6892919061391c565b60405180910390a3505050565b6000612b7f613119565b90506001816000018190555050565b612b9661337d565b73ffffffffffffffffffffffffffffffffffffffff16612bb4611977565b73ffffffffffffffffffffffffffffffffffffffff1614612c1357612bd761337d565b6040517f118cdaa7000000000000000000000000000000000000000000000000000000008152600401612c0a9190613981565b60405180910390fd5b565b60008111612c58576040517f08c379a0000000000000000000000000000000000000000000000000000000008152600401612c4f90613f63565b60405180910390fd5b80600a60008473ffffffffffffffffffffffffffffffffffffffff1673ffffffffffffffffffffffffffffffffffffffff16815260200190815260200160002060003373ffffffffffffffffffffffffffffffffffffffff1673ffffffffffffffffffffffffffffffffffffffff168152602001908152602001600020541015612d17576040517f08c379a0000000000000000000000000000000000000000000000000000000008152600401612d0e906141a3565b60405180910390fd5b6000612d238383613385565b905081600a60008573ffffffffffffffffffffffffffffffffffffffff1673ffffffffffffffffffffffffffffffffffffffff16815260200190815260200160002060003373ffffffffffffffffffffffffffffffffffffffff1673ffffffffffffffffffffffffffffffffffffffff1681526020019081526020016000206000828254612db191906143d3565b9250508190555081600960008573ffffffffffffffffffffffffffffffffffffffff1673ffffffffffffffffffffffffffffffffffffffff1681526020019081526020016000206000828254612e0791906143d3565b9250508190555080600860008573ffffffffffffffffffffffffffffffffffffffff1673ffffffffffffffffffffffffffffffffffffffff1681526020019081526020016000206000828254612e5d91906143d3565b925050819055508273ffffffffffffffffffffffffffffffffffffffff1663a9059cbb33836040518363ffffffff1660e01b8152600401612e9f9291906143aa565b6020604051808303816000875af1158015612ebe573d6000803e3d6000fd5b505050506040513d601f19601f82011682018060405250810190612ee29190613faf565b612f21576040517f08c379a0000000000000000000000000000000000000000000000000000000008152600401612f18906140cb565b60405180910390fd5b8273ffffffffffffffffffffffffffffffffffffffff163373ffffffffffffffffffffffffffffffffffffffff167fa820b63c87193288cc94a3f317ea876d89c6dd3f158665fad57874409e75a8bc83600860008873ffffffffffffffffffffffffffffffffffffffff1673ffffffffffffffffffffffffffffffffffffffff16815260200190815260200160002054604051612fbf92919061391c565b60405180910390a3505050565b6000612fd66130f1565b905060008160000160009054906101000a900473ffffffffffffffffffffffffffffffffffffffff169050828260000160006101000a81548173ffffffffffffffffffffffffffffffffffffffff021916908373ffffffffffffffffffffffffffffffffffffffff1602179055508273ffffffffffffffffffffffffffffffffffffffff168173ffffffffffffffffffffffffffffffffffffffff167f8be0079c531659141344cd1fd0a4f28419497f9722a3daafe3b4186f6b6457e060405160405180910390a3505050565b60007ff0c57e16840df040f15088dc2f81fe391c3923bec73e23a9662efc9c229c6a00905090565b6130d3613660565b6130dc816136a0565b50565b6130e7613660565b6130ef613726565b565b60007f9016d09d72d40fdae2fd8ceac6b6234c7706214fd39c1cd1e609a0528c199300905090565b60007f9b779b17422d0df92223018b32b4d1fa46e071723d6817e2486d003becc55f00905090565b600080600260009054906101000a900473ffffffffffffffffffffffffffffffffffffffff1673ffffffffffffffffffffffffffffffffffffffff1663313ce5676040518163ffffffff1660e01b8152600401602060405180830381865afa1580156131b1573d6000803e3d6000fd5b505050506040513d601f19601f820116820180604052508101906131d591906146ae565b60ff1690506000600260009054906101000a900473ffffffffffffffffffffffffffffffffffffffff1673ffffffffffffffffffffffffffffffffffffffff166341976e09866040518263ffffffff1660e01b81526004016132379190613981565b602060405180830381865afa158015613254573d6000803e3d6000fd5b505050506040513d601f19601f8201168201806040525081019061327891906146f0565b846132839190614633565b90508160121061330457600b60008673ffffffffffffffffffffffffffffffffffffffff1673ffffffffffffffffffffffffffffffffffffffff168152602001908152602001600020548260126132da91906143d3565b600a6132e691906145e8565b826132f19190614633565b6132fb919061474c565b92505050613377565b600b60008673ffffffffffffffffffffffffffffffffffffffff1673ffffffffffffffffffffffffffffffffffffffff1681526020019081526020016000205460128361335191906143d3565b600a61335d91906145e8565b82613368919061474c565b613372919061474c565b925050505b92915050565b600033905090565b600080600260009054906101000a900473ffffffffffffffffffffffffffffffffffffffff1673ffffffffffffffffffffffffffffffffffffffff1663313ce5676040518163ffffffff1660e01b8152600401602060405180830381865afa1580156133f5573d6000803e3d6000fd5b505050506040513d601f19601f8201168201806040525081019061341991906146ae565b60ff1690508060121061354257600260009054906101000a900473ffffffffffffffffffffffffffffffffffffffff1673ffffffffffffffffffffffffffffffffffffffff166341976e09856040518263ffffffff1660e01b81526004016134819190613981565b602060405180830381865afa15801561349e573d6000803e3d6000fd5b505050506040513d601f19601f820116820180604052508101906134c291906146f0565b8160126134cf91906143d3565b600a6134db91906145e8565b600b60008773ffffffffffffffffffffffffffffffffffffffff1673ffffffffffffffffffffffffffffffffffffffff16815260200190815260200160002054856135269190614633565b613530919061474c565b61353a919061474c565b91505061365a565b600260009054906101000a900473ffffffffffffffffffffffffffffffffffffffff1673ffffffffffffffffffffffffffffffffffffffff166341976e09856040518263ffffffff1660e01b815260040161359d9190613981565b602060405180830381865afa1580156135ba573d6000803e3d6000fd5b505050506040513d601f19601f820116820180604052508101906135de91906146f0565b6012826135eb91906143d3565b600a6135f791906145e8565b600b60008773ffffffffffffffffffffffffffffffffffffffff1673ffffffffffffffffffffffffffffffffffffffff16815260200190815260200160002054856136429190614633565b61364c9190614633565b613656919061474c565b9150505b92915050565b613668613747565b61369e576040517fd7e6bcf800000000000000000000000000000000000000000000000000000000815260040160405180910390fd5b565b6136a8613660565b600073ffffffffffffffffffffffffffffffffffffffff168173ffffffffffffffffffffffffffffffffffffffff160361371a5760006040517f1e4fbdf70000000000000000000000000000000000000000000000000000000081526004016137119190613981565b60405180910390fd5b61372381612fcc565b50565b61372e613660565b6000613738613119565b90506001816000018190555050565b60006137516130a3565b60000160089054906101000a900460ff16905090565b600080fd5b600080fd5b600073ffffffffffffffffffffffffffffffffffffffff82169050919050565b600061379c82613771565b9050919050565b6137ac81613791565b81146137b757600080fd5b50565b6000813590506137c9816137a3565b92915050565b6000819050919050565b6137e2816137cf565b81146137ed57600080fd5b50565b6000813590506137ff816137d9565b92915050565b6000806040838503121561381c5761381b613767565b5b600061382a858286016137ba565b925050602061383b858286016137f0565b9150509250929050565b60006020828403121561385b5761385a613767565b5b6000613869848285016137ba565b91505092915050565b6000806040838503121561388957613888613767565b5b6000613897858286016137f0565b92505060206138a8858286016137f0565b9150509250929050565b6138bb816137cf565b82525050565b60006020820190506138d660008301846138b2565b92915050565b600080604083850312156138f3576138f2613767565b5b6000613901858286016137ba565b9250506020613912858286016137ba565b9150509250929050565b600060408201905061393160008301856138b2565b61393e60208301846138b2565b9392505050565b60006020828403121561395b5761395a613767565b5b6000613969848285016137f0565b91505092915050565b61397b81613791565b82525050565b60006020820190506139966000830184613972565b92915050565b600080600080600080600060e0888a0312156139bb576139ba613767565b5b60006139c98a828b016137ba565b97505060206139da8a828b016137ba565b96505060406139eb8a828b016137ba565b95505060606139fc8a828b016137f0565b9450506080613a0d8a828b016137f0565b93505060a0613a1e8a828b016137f0565b92505060c0613a2f8a828b016137ba565b91505092959891949750929550565b600080fd5b600080fd5b600080fd5b60008083601f840112613a6357613a62613a3e565b5b8235905067ffffffffffffffff811115613a8057613a7f613a43565b5b602083019150836020820283011115613a9c57613a9b613a48565b5b9250929050565b60008083601f840112613ab957613ab8613a3e565b5b8235905067ffffffffffffffff811115613ad657613ad5613a43565b5b602083019150836020820283011115613af257613af1613a48565b5b9250929050565b60008060008060408587031215613b1357613b12613767565b5b600085013567ffffffffffffffff811115613b3157613b3061376c565b5b613b3d87828801613a4d565b9450945050602085013567ffffffffffffffff811115613b6057613b5f61376c565b5b613b6c87828801613aa3565b925092505092959194509250565b60008083601f840112613b9057613b8f613a3e565b5b8235905067ffffffffffffffff811115613bad57613bac613a43565b5b602083019150836020820283011115613bc957613bc8613a48565b5b9250929050565b60008060008060408587031215613bea57613be9613767565b5b600085013567ffffffffffffffff811115613c0857613c0761376c565b5b613c1487828801613a4d565b9450945050602085013567ffffffffffffffff811115613c3757613c3661376c565b5b613c4387828801613b7a565b925092505092959194509250565b60008115159050919050565b613c6681613c51565b82525050565b6000602082019050613c816000830184613c5d565b92915050565b600082825260208201905092915050565b7f4e6f74204c502070726f76696465720000000000000000000000000000000000600082015250565b6000613cce600f83613c87565b9150613cd982613c98565b602082019050919050565b60006020820190508181036000830152613cfd81613cc1565b9050919050565b7f496e76616c696420636f6c642077616c6c657420616464726573730000000000600082015250565b6000613d3a601b83613c87565b9150613d4582613d04565b602082019050919050565b60006020820190508181036000830152613d6981613d2d565b9050919050565b7f4f6e6c79207661756c7400000000000000000000000000000000000000000000600082015250565b6000613da6600a83613c87565b9150613db182613d70565b602082019050919050565b60006020820190508181036000830152613dd581613d99565b9050919050565b7f4e487b7100000000000000000000000000000000000000000000000000000000600052601160045260246000fd5b6000613e16826137cf565b9150613e21836137cf565b9250828201905080821115613e3957613e38613ddc565b5b92915050565b7f496e76616c6964204e4156207072696365000000000000000000000000000000600082015250565b6000613e75601183613c87565b9150613e8082613e3f565b602082019050919050565b60006020820190508181036000830152613ea481613e68565b9050919050565b7f5769746864726177616c2064656c6179206e6f74206d65740000000000000000600082015250565b6000613ee1601883613c87565b9150613eec82613eab565b602082019050919050565b60006020820190508181036000830152613f1081613ed4565b9050919050565b7f416d6f756e74206d7573742062652067726561746572207468616e207a65726f600082015250565b6000613f4d602083613c87565b9150613f5882613f17565b602082019050919050565b60006020820190508181036000830152613f7c81613f40565b9050919050565b613f8c81613c51565b8114613f9757600080fd5b50565b600081519050613fa981613f83565b92915050565b600060208284031215613fc557613fc4613767565b5b6000613fd384828501613f9a565b91505092915050565b7f546f6b656e206e6f7420737570706f7274656400000000000000000000000000600082015250565b6000614012601383613c87565b915061401d82613fdc565b602082019050919050565b6000602082019050818103600083015261404181614005565b9050919050565b600060608201905061405d6000830186613972565b61406a6020830185613972565b61407760408301846138b2565b949350505050565b7f5472616e73666572206661696c65640000000000000000000000000000000000600082015250565b60006140b5600f83613c87565b91506140c08261407f565b602082019050919050565b600060208201905081810360008301526140e4816140a8565b9050919050565b7f496e76616c6964207661756c7420616464726573730000000000000000000000600082015250565b6000614121601583613c87565b915061412c826140eb565b602082019050919050565b6000602082019050818103600083015261415081614114565b9050919050565b7f496e73756666696369656e742066756e64000000000000000000000000000000600082015250565b600061418d601183613c87565b915061419882614157565b602082019050919050565b600060208201905081810360008301526141bc81614180565b9050919050565b7f496e76616c6964206f7261636c65206164647265737300000000000000000000600082015250565b60006141f9601683613c87565b9150614204826141c3565b602082019050919050565b60006020820190508181036000830152614228816141ec565b9050919050565b6000819050919050565b600067ffffffffffffffff82169050919050565b6000819050919050565b600061427261426d6142688461422f565b61424d565b614239565b9050919050565b61428281614257565b82525050565b600060208201905061429d6000830184614279565b92915050565b7f496e76616c696420696e70757400000000000000000000000000000000000000600082015250565b60006142d9600d83613c87565b91506142e4826142a3565b602082019050919050565b60006020820190508181036000830152614308816142cc565b9050919050565b7f4e487b7100000000000000000000000000000000000000000000000000000000600052603260045260246000fd5b7f496e73756666696369656e74204c5020616d6f756e7400000000000000000000600082015250565b6000614374601683613c87565b915061437f8261433e565b602082019050919050565b600060208201905081810360008301526143a381614367565b9050919050565b60006040820190506143bf6000830185613972565b6143cc60208301846138b2565b9392505050565b60006143de826137cf565b91506143e9836137cf565b925082820390508181111561440157614400613ddc565b5b92915050565b60008135905061441681613f83565b92915050565b60006020828403121561443257614431613767565b5b600061444084828501614407565b91505092915050565b7f4e6f206c697175696469747920746f2077697468647261770000000000000000600082015250565b600061447f601883613c87565b915061448a82614449565b602082019050919050565b600060208201905081810360008301526144ae81614472565b9050919050565b60008160011c9050919050565b6000808291508390505b600185111561450c578086048111156144e8576144e7613ddc565b5b60018516156144f75780820291505b8081029050614505856144b5565b94506144cc565b94509492505050565b60008261452557600190506145e1565b8161453357600090506145e1565b8160018114614549576002811461455357614582565b60019150506145e1565b60ff84111561456557614564613ddc565b5b8360020a91508482111561457c5761457b613ddc565b5b506145e1565b5060208310610133831016604e8410600b84101617156145b75782820a9050838111156145b2576145b1613ddc565b5b6145e1565b6145c484848460016144c2565b925090508184048111156145db576145da613ddc565b5b81810290505b9392505050565b60006145f3826137cf565b91506145fe836137cf565b925061462b7fffffffffffffffffffffffffffffffffffffffffffffffffffffffffffffffff8484614515565b905092915050565b600061463e826137cf565b9150614649836137cf565b9250828202614657816137cf565b9150828204841483151761466e5761466d613ddc565b5b5092915050565b600060ff82169050919050565b61468b81614675565b811461469657600080fd5b50565b6000815190506146a881614682565b92915050565b6000602082840312156146c4576146c3613767565b5b60006146d284828501614699565b91505092915050565b6000815190506146ea816137d9565b92915050565b60006020828403121561470657614705613767565b5b6000614714848285016146db565b91505092915050565b7f4e487b7100000000000000000000000000000000000000000000000000000000600052601260045260246000fd5b6000614757826137cf565b9150614762836137cf565b9250826147725761477161471d565b5b82820490509291505056fea2646970667358221220fc732d6b6c861bcba8b8de791d5965c466c60dab880aca1cf82be34d7759e55f64736f6c63430008180033",
  "linkReferences": {},
  "deployedLinkReferences": {}
}