{
  "_format": "hh-sol-artifact-1",
  "contractName": "MockOracle",
  "sourceName": "contracts/0xVault/mocks/Oracle.sol",
  "abi": [
    {
      "inputs": [],
      "name": "decimals",
      "outputs": [
        {
          "internalType": "uint256",
          "name": "",
          "type": "uint256"
        }
      ],
      "stateMutability": "view",
      "type": "function"
    },
    {
      "inputs": [
        {
          "internalType": "address",
          "name": "token",
          "type": "address"
        }
      ],
      "name": "getPrice",
      "outputs": [
        {
          "internalType": "uint256",
          "name": "",
          "type": "uint256"
        }
      ],
      "stateMutability": "view",
      "type": "function"
    }
  ],
  "bytecode": "0x6080604052600660005534801561001557600080fd5b5061039c806100256000396000f3fe608060405234801561001057600080fd5b50600436106100365760003560e01c8063313ce5671461003b57806341976e0914610059575b600080fd5b610043610089565b60405161005091906100cc565b60405180910390f35b610073600480360381019061006e919061014a565b61008f565b60405161008091906100cc565b60405180910390f35b60005481565b60008054600a61009f91906102d9565b610bb86100ac9190610324565b9050919050565b6000819050919050565b6100c6816100b3565b82525050565b60006020820190506100e160008301846100bd565b92915050565b600080fd5b600073ffffffffffffffffffffffffffffffffffffffff82169050919050565b6000610117826100ec565b9050919050565b6101278161010c565b811461013257600080fd5b50565b6000813590506101448161011e565b92915050565b6000602082840312156101605761015f6100e7565b5b600061016e84828501610135565b91505092915050565b7f4e487b7100000000000000000000000000000000000000000000000000000000600052601160045260246000fd5b60008160011c9050919050565b6000808291508390505b60018511156101fd578086048111156101d9576101d8610177565b5b60018516156101e85780820291505b80810290506101f6856101a6565b94506101bd565b94509492505050565b60008261021657600190506102d2565b8161022457600090506102d2565b816001811461023a576002811461024457610273565b60019150506102d2565b60ff84111561025657610255610177565b5b8360020a91508482111561026d5761026c610177565b5b506102d2565b5060208310610133831016604e8410600b84101617156102a85782820a9050838111156102a3576102a2610177565b5b6102d2565b6102b584848460016101b3565b925090508184048111156102cc576102cb610177565b5b81810290505b9392505050565b60006102e4826100b3565b91506102ef836100b3565b925061031c7fffffffffffffffffffffffffffffffffffffffffffffffffffffffffffffffff8484610206565b905092915050565b600061032f826100b3565b915061033a836100b3565b9250828202610348816100b3565b9150828204841483151761035f5761035e610177565b5b509291505056fea2646970667358221220c2a3342f0e9dbef90165ceaa53abca6e44e1dbab85ed19edc955afd4968b5a3c64736f6c63430008180033",
  "linkReferences": {},
  "deployedLinkReferences": {}
}