{
  "_format": "hh-sol-artifact-1",
  "contractName": "Vault",
  "sourceName": "contracts/0xVault/Vault.sol",
  "abi": [
    {
      "inputs": [],
      "name": "DisputeChallengeFailed",
      "type": "error"
    },
    {
      "inputs": [],
      "name": "ECRecoverFailed",
      "type": "error"
    },
    {
      "inputs": [],
      "name": "InvalidAddress",
      "type": "error"
    },
    {
      "inputs": [],
      "name": "InvalidInitialization",
      "type": "error"
    },
    {
      "inputs": [],
      "name": "InvalidSP",
      "type": "error"
    },
    {
      "inputs": [],
      "name": "InvalidSchnorrSignature",
      "type": "error"
    },
    {
      "inputs": [],
      "name": "InvalidSignature",
      "type": "error"
    },
    {
      "inputs": [],
      "name": "InvalidUsedSignature",
      "type": "error"
    },
    {
      "inputs": [],
      "name": "NotInitializing",
      "type": "error"
    },
    {
      "inputs": [
        {
          "internalType": "address",
          "name": "owner",
          "type": "address"
        }
      ],
      "name": "OwnableInvalidOwner",
      "type": "error"
    },
    {
      "inputs": [
        {
          "internalType": "address",
          "name": "account",
          "type": "address"
        }
      ],
      "name": "OwnableUnauthorizedAccount",
      "type": "error"
    },
    {
      "inputs": [],
      "name": "ReentrancyGuardReentrantCall",
      "type": "error"
    },
    {
      "inputs": [],
      "name": "SettleDisputeFailed",
      "type": "error"
    },
    {
      "anonymous": false,
      "inputs": [
        {
          "indexed": true,
          "internalType": "address",
          "name": "user",
          "type": "address"
        },
        {
          "indexed": true,
          "internalType": "address",
          "name": "token",
          "type": "address"
        },
        {
          "indexed": false,
          "internalType": "uint256",
          "name": "amount",
          "type": "uint256"
        }
      ],
      "name": "Deposited",
      "type": "event"
    },
    {
      "anonymous": false,
      "inputs": [
        {
          "indexed": false,
          "internalType": "uint32",
          "name": "requestId",
          "type": "uint32"
        },
        {
          "indexed": true,
          "internalType": "address",
          "name": "user",
          "type": "address"
        }
      ],
      "name": "DisputeChallenged",
      "type": "event"
    },
    {
      "anonymous": false,
      "inputs": [
        {
          "indexed": false,
          "internalType": "uint32",
          "name": "requestId",
          "type": "uint32"
        },
        {
          "indexed": true,
          "internalType": "address",
          "name": "user",
          "type": "address"
        }
      ],
      "name": "DisputeOpened",
      "type": "event"
    },
    {
      "anonymous": false,
      "inputs": [
        {
          "indexed": false,
          "internalType": "uint32",
          "name": "requestId",
          "type": "uint32"
        },
        {
          "indexed": true,
          "internalType": "address",
          "name": "user",
          "type": "address"
        }
      ],
      "name": "DisputeSettled",
      "type": "event"
    },
    {
      "anonymous": false,
      "inputs": [
        {
          "indexed": false,
          "internalType": "uint64",
          "name": "version",
          "type": "uint64"
        }
      ],
      "name": "Initialized",
      "type": "event"
    },
    {
      "anonymous": false,
      "inputs": [
        {
          "indexed": true,
          "internalType": "address",
          "name": "previousOwner",
          "type": "address"
        },
        {
          "indexed": true,
          "internalType": "address",
          "name": "newOwner",
          "type": "address"
        }
      ],
      "name": "OwnershipTransferred",
      "type": "event"
    },
    {
      "anonymous": false,
      "inputs": [
        {
          "indexed": false,
          "internalType": "uint256",
          "name": "positionId",
          "type": "uint256"
        },
        {
          "indexed": false,
          "internalType": "uint256",
          "name": "tokenAmount",
          "type": "uint256"
        }
      ],
      "name": "PositionClosed",
      "type": "event"
    },
    {
      "anonymous": false,
      "inputs": [
        {
          "indexed": true,
          "internalType": "address",
          "name": "token",
          "type": "address"
        }
      ],
      "name": "TokenAdded",
      "type": "event"
    },
    {
      "anonymous": false,
      "inputs": [
        {
          "indexed": true,
          "internalType": "address",
          "name": "token",
          "type": "address"
        }
      ],
      "name": "TokenRemoved",
      "type": "event"
    },
    {
      "anonymous": false,
      "inputs": [
        {
          "indexed": true,
          "internalType": "address",
          "name": "prevSigner",
          "type": "address"
        },
        {
          "indexed": true,
          "internalType": "address",
          "name": "newSigner",
          "type": "address"
        }
      ],
      "name": "TrustedSignerChanged",
      "type": "event"
    },
    {
      "anonymous": false,
      "inputs": [
        {
          "indexed": true,
          "internalType": "address",
          "name": "user",
          "type": "address"
        },
        {
          "indexed": true,
          "internalType": "address",
          "name": "token",
          "type": "address"
        },
        {
          "indexed": false,
          "internalType": "uint256",
          "name": "amount",
          "type": "uint256"
        },
        {
          "indexed": false,
          "internalType": "uint32",
          "name": "requestId",
          "type": "uint32"
        }
      ],
      "name": "WithdrawalRequested",
      "type": "event"
    },
    {
      "anonymous": false,
      "inputs": [
        {
          "indexed": true,
          "internalType": "address",
          "name": "user",
          "type": "address"
        },
        {
          "indexed": true,
          "internalType": "address",
          "name": "token",
          "type": "address"
        },
        {
          "indexed": false,
          "internalType": "uint256",
          "name": "amount",
          "type": "uint256"
        }
      ],
      "name": "Withdrawn",
      "type": "event"
    },
    {
      "inputs": [
        {
          "internalType": "uint32",
          "name": "",
          "type": "uint32"
        }
      ],
      "name": "_disputes",
      "outputs": [
        {
          "internalType": "address",
          "name": "user",
          "type": "address"
        },
        {
          "internalType": "address",
          "name": "challenger",
          "type": "address"
        },
        {
          "internalType": "uint64",
          "name": "timestamp",
          "type": "uint64"
        },
        {
          "internalType": "uint8",
          "name": "status",
          "type": "uint8"
        },
        {
          "internalType": "uint32",
          "name": "sessionId",
          "type": "uint32"
        }
      ],
      "stateMutability": "view",
      "type": "function"
    },
    {
      "inputs": [
        {
          "internalType": "address",
          "name": "token",
          "type": "address"
        }
      ],
      "name": "addToken",
      "outputs": [],
      "stateMutability": "nonpayable",
      "type": "function"
    },
    {
      "inputs": [
        {
          "internalType": "uint32",
          "name": "requestId",
          "type": "uint32"
        },
        {
          "components": [
            {
              "internalType": "uint256",
              "name": "positionId",
              "type": "uint256"
            },
            {
              "internalType": "address",
              "name": "token",
              "type": "address"
            },
            {
              "internalType": "uint256",
              "name": "price",
              "type": "uint256"
            },
            {
              "internalType": "uint64",
              "name": "timestamp",
              "type": "uint64"
            }
          ],
          "internalType": "struct Vault.OraclePrice[]",
          "name": "oraclePrices",
          "type": "tuple[]"
        },
        {
          "internalType": "bytes",
          "name": "oracleEcdsaSignature",
          "type": "bytes"
        }
      ],
      "name": "challengeClosePosition",
      "outputs": [],
      "stateMutability": "nonpayable",
      "type": "function"
    },
    {
      "inputs": [
        {
          "internalType": "uint32",
          "name": "withdrawalId",
          "type": "uint32"
        },
        {
          "components": [
            {
              "internalType": "bytes",
              "name": "data",
              "type": "bytes"
            },
            {
              "internalType": "bytes",
              "name": "signature",
              "type": "bytes"
            },
            {
              "internalType": "address",
              "name": "combinedPublicKey",
              "type": "address"
            }
          ],
          "internalType": "struct Vault.SchnorrSignature",
          "name": "_schnorr",
          "type": "tuple"
        }
      ],
      "name": "challengeDispute",
      "outputs": [],
      "stateMutability": "nonpayable",
      "type": "function"
    },
    {
      "inputs": [
        {
          "internalType": "address",
          "name": "",
          "type": "address"
        }
      ],
      "name": "combinedPublicKey",
      "outputs": [
        {
          "internalType": "address",
          "name": "",
          "type": "address"
        }
      ],
      "stateMutability": "view",
      "type": "function"
    },
    {
      "inputs": [
        {
          "internalType": "bytes",
          "name": "_data",
          "type": "bytes"
        }
      ],
      "name": "decodeClosePositionSchnorrData",
      "outputs": [
        {
          "components": [
            {
              "internalType": "uint32",
              "name": "signatureId",
              "type": "uint32"
            },
            {
              "internalType": "address",
              "name": "addr",
              "type": "address"
            },
            {
              "components": [
                {
                  "internalType": "uint256",
                  "name": "positionId",
                  "type": "uint256"
                },
                {
                  "internalType": "address",
                  "name": "token",
                  "type": "address"
                },
                {
                  "internalType": "uint256",
                  "name": "quantity",
                  "type": "uint256"
                },
                {
                  "internalType": "bool",
                  "name": "isLong",
                  "type": "bool"
                },
                {
                  "internalType": "uint256",
                  "name": "margin",
                  "type": "uint256"
                },
                {
                  "internalType": "uint256",
                  "name": "entryPrice",
                  "type": "uint256"
                },
                {
                  "internalType": "uint256",
                  "name": "createdTimestamp",
                  "type": "uint256"
                }
              ],
              "internalType": "struct Vault.Position[]",
              "name": "positions",
              "type": "tuple[]"
            },
            {
              "internalType": "string",
              "name": "sigType",
              "type": "string"
            },
            {
              "internalType": "uint256",
              "name": "timestamp",
              "type": "uint256"
            }
          ],
          "internalType": "struct Vault.ClosePositionSchnorrData",
          "name": "",
          "type": "tuple"
        }
      ],
      "stateMutability": "pure",
      "type": "function"
    },
    {
      "inputs": [
        {
          "internalType": "bytes",
          "name": "_data",
          "type": "bytes"
        }
      ],
      "name": "decodeSchnorrData",
      "outputs": [
        {
          "components": [
            {
              "internalType": "uint32",
              "name": "signatureId",
              "type": "uint32"
            },
            {
              "internalType": "address",
              "name": "addr",
              "type": "address"
            },
            {
              "components": [
                {
                  "internalType": "address",
                  "name": "addr",
                  "type": "address"
                },
                {
                  "internalType": "uint256",
                  "name": "balance",
                  "type": "uint256"
                }
              ],
              "internalType": "struct Vault.Balance[]",
              "name": "balances",
              "type": "tuple[]"
            },
            {
              "internalType": "string",
              "name": "sigType",
              "type": "string"
            },
            {
              "internalType": "uint256",
              "name": "timestamp",
              "type": "uint256"
            }
          ],
          "internalType": "struct Vault.SchnorrData",
          "name": "",
          "type": "tuple"
        }
      ],
      "stateMutability": "pure",
      "type": "function"
    },
    {
      "inputs": [
        {
          "internalType": "bytes",
          "name": "_data",
          "type": "bytes"
        }
      ],
      "name": "decodeSchnorrDataWithdraw",
      "outputs": [
        {
          "components": [
            {
              "internalType": "address",
              "name": "trader",
              "type": "address"
            },
            {
              "internalType": "address",
              "name": "token",
              "type": "address"
            },
            {
              "internalType": "uint256",
              "name": "amount",
              "type": "uint256"
            },
            {
              "internalType": "uint64",
              "name": "timestamp",
              "type": "uint64"
            }
          ],
          "internalType": "struct Vault.SchnorrDataWithdraw",
          "name": "",
          "type": "tuple"
        }
      ],
      "stateMutability": "pure",
      "type": "function"
    },
    {
      "inputs": [
        {
          "internalType": "address",
          "name": "token",
          "type": "address"
        },
        {
          "internalType": "uint256",
          "name": "amount",
          "type": "uint256"
        }
      ],
      "name": "deposit",
      "outputs": [],
      "stateMutability": "nonpayable",
      "type": "function"
    },
    {
      "inputs": [
        {
          "internalType": "address",
          "name": "_owner",
          "type": "address"
        },
        {
          "internalType": "address",
          "name": "trustedSigner",
          "type": "address"
        },
        {
          "internalType": "uint256",
          "name": "_signatureExpiryTime",
          "type": "uint256"
        }
      ],
      "name": "initialize",
      "outputs": [],
      "stateMutability": "nonpayable",
      "type": "function"
    },
    {
      "inputs": [
        {
          "internalType": "address",
          "name": "token",
          "type": "address"
        }
      ],
      "name": "isTokenSupported",
      "outputs": [
        {
          "internalType": "bool",
          "name": "",
          "type": "bool"
        }
      ],
      "stateMutability": "view",
      "type": "function"
    },
    {
      "inputs": [
        {
          "components": [
            {
              "internalType": "bytes",
              "name": "data",
              "type": "bytes"
            },
            {
              "internalType": "bytes",
              "name": "signature",
              "type": "bytes"
            },
            {
              "internalType": "address",
              "name": "combinedPublicKey",
              "type": "address"
            }
          ],
          "internalType": "struct Vault.SchnorrSignature",
          "name": "_schnorr",
          "type": "tuple"
        }
      ],
      "name": "openClosePositionRequest",
      "outputs": [],
      "stateMutability": "nonpayable",
      "type": "function"
    },
    {
      "inputs": [],
      "name": "oracle",
      "outputs": [
        {
          "internalType": "address",
          "name": "",
          "type": "address"
        }
      ],
      "stateMutability": "view",
      "type": "function"
    },
    {
      "inputs": [],
      "name": "owner",
      "outputs": [
        {
          "internalType": "address",
          "name": "",
          "type": "address"
        }
      ],
      "stateMutability": "view",
      "type": "function"
    },
    {
      "inputs": [
        {
          "internalType": "address",
          "name": "token",
          "type": "address"
        }
      ],
      "name": "removeToken",
      "outputs": [],
      "stateMutability": "nonpayable",
      "type": "function"
    },
    {
      "inputs": [],
      "name": "renounceOwnership",
      "outputs": [],
      "stateMutability": "nonpayable",
      "type": "function"
    },
    {
      "inputs": [
        {
          "internalType": "address",
          "name": "_user",
          "type": "address"
        },
        {
          "internalType": "address",
          "name": "_combinedPublicKey",
          "type": "address"
        }
      ],
      "name": "setCombinedPublicKey",
      "outputs": [],
      "stateMutability": "nonpayable",
      "type": "function"
    },
    {
      "inputs": [
        {
          "internalType": "address",
          "name": "newOracle",
          "type": "address"
        }
      ],
      "name": "setOracle",
      "outputs": [],
      "stateMutability": "nonpayable",
      "type": "function"
    },
    {
      "inputs": [
        {
          "internalType": "uint256",
          "name": "_expiryTime",
          "type": "uint256"
        }
      ],
      "name": "setSignatureExpiryTime",
      "outputs": [],
      "stateMutability": "nonpayable",
      "type": "function"
    },
    {
      "inputs": [
        {
          "internalType": "address",
          "name": "_newSigner",
          "type": "address"
        }
      ],
      "name": "setTrustedSigner",
      "outputs": [],
      "stateMutability": "nonpayable",
      "type": "function"
    },
    {
      "inputs": [
        {
          "internalType": "uint32",
          "name": "requestId",
          "type": "uint32"
        }
      ],
      "name": "settleClosePositionDispute",
      "outputs": [],
      "stateMutability": "nonpayable",
      "type": "function"
    },
    {
      "inputs": [
        {
          "internalType": "uint32",
          "name": "withdrawalId",
          "type": "uint32"
        }
      ],
      "name": "settleDispute",
      "outputs": [],
      "stateMutability": "nonpayable",
      "type": "function"
    },
    {
      "inputs": [],
      "name": "signatureExpiryTime",
      "outputs": [
        {
          "internalType": "uint256",
          "name": "",
          "type": "uint256"
        }
      ],
      "stateMutability": "view",
      "type": "function"
    },
    {
      "inputs": [
        {
          "internalType": "address",
          "name": "newOwner",
          "type": "address"
        }
      ],
      "name": "transferOwnership",
      "outputs": [],
      "stateMutability": "nonpayable",
      "type": "function"
    },
    {
      "inputs": [
        {
          "components": [
            {
              "internalType": "address",
              "name": "trader",
              "type": "address"
            },
            {
              "internalType": "address",
              "name": "token",
              "type": "address"
            },
            {
              "internalType": "uint256",
              "name": "amount",
              "type": "uint256"
            },
            {
              "internalType": "uint64",
              "name": "timestamp",
              "type": "uint64"
            }
          ],
          "internalType": "struct Vault.WithdrawParams",
          "name": "withdrawParams",
          "type": "tuple"
        },
        {
          "internalType": "bytes",
          "name": "signature",
          "type": "bytes"
        }
      ],
      "name": "withdraw",
      "outputs": [],
      "stateMutability": "nonpayable",
      "type": "function"
    },
    {
      "inputs": [
        {
          "internalType": "address",
          "name": "_combinedPublicKey",
          "type": "address"
        },
        {
          "components": [
            {
              "internalType": "bytes",
              "name": "data",
              "type": "bytes"
            },
            {
              "internalType": "bytes",
              "name": "signature",
              "type": "bytes"
            },
            {
              "internalType": "address",
              "name": "combinedPublicKey",
              "type": "address"
            }
          ],
          "internalType": "struct Vault.SchnorrSignature",
          "name": "_schnorr",
          "type": "tuple"
        }
      ],
      "name": "withdrawSchnorr",
      "outputs": [],
      "stateMutability": "nonpayable",
      "type": "function"
    },
    {
      "inputs": [
        {
          "components": [
            {
              "internalType": "bytes",
              "name": "data",
              "type": "bytes"
            },
            {
              "internalType": "bytes",
              "name": "signature",
              "type": "bytes"
            },
            {
              "internalType": "address",
              "name": "combinedPublicKey",
              "type": "address"
            }
          ],
          "internalType": "struct Vault.SchnorrSignature",
          "name": "_schnorr",
          "type": "tuple"
        }
      ],
      "name": "withdrawTrustlessly",
      "outputs": [],
      "stateMutability": "nonpayable",
      "type": "function"
    }
  ],
  "bytecode": "0x608060405234801561001057600080fd5b50615f9880620000216000396000f3fe608060405234801561001057600080fd5b50600436106101a95760003560e01c80637adbf973116100f9578063ab3e857f11610097578063d48bfca711610071578063d48bfca71461048e578063e41cff64146104aa578063f2edcc96146104da578063f2fde38b146104f6576101a9565b8063ab3e857f14610422578063b7a4a32314610456578063c2aed72414610472576101a9565b80638da5cb5b116100d35780638da5cb5b146103b05780638efb8d40146103ce5780638f2c081f146103ea578063a820785814610406576101a9565b80637adbf9731461035a5780637dc0d1d01461037657806386c9391414610394576101a9565b806356a1c701116101665780636eccd9c0116101405780636eccd9c0146102c05780636f7ac1e2146102f0578063715018a61461032057806375151b631461032a576101a9565b806356a1c7011461026a578063570ddaa8146102865780635fa7b584146102a4576101a9565b80631794bb3c146101ae57806327482c0f146101ca5780632a431aa8146101e65780633ed0e4611461020257806347e7ef24146102325780634e09b4b51461024e575b600080fd5b6101c860048036038101906101c39190613fe5565b610512565b005b6101e460048036038101906101df9190614074565b6106eb565b005b61020060048036038101906101fb9190614074565b610a56565b005b61021c600480360381019061021791906141e7565b611132565b60405161022991906144b1565b60405180910390f35b61024c600480360381019061024791906144d3565b6111af565b005b61026860048036038101906102639190614537565b611372565b005b610284600480360381019061027f9190614580565b6116c8565b005b61028e6117fc565b60405161029b91906145bc565b60405180910390f35b6102be60048036038101906102b99190614580565b611802565b005b6102da60048036038101906102d591906141e7565b6119f2565b6040516102e79190614732565b60405180910390f35b61030a600480360381019061030591906141e7565b611a6f565b60405161031791906147cc565b60405180910390f35b610328611afb565b005b610344600480360381019061033f9190614580565b611b0f565b60405161035191906147f6565b60405180910390f35b610374600480360381019061036f9190614580565b611bb7565b005b61037e611c03565b60405161038b9190614820565b60405180910390f35b6103ae60048036038101906103a9919061483b565b611c29565b005b6103b8611c3b565b6040516103c59190614820565b60405180910390f35b6103e860048036038101906103e39190614537565b611c73565b005b61040460048036038101906103ff9190614868565b612011565b005b610420600480360381019061041b91906148c4565b612491565b005b61043c60048036038101906104379190614074565b6128b6565b60405161044d95949392919061495a565b60405180910390f35b610470600480360381019061046b9190614b7e565b61295d565b005b61048c60048036038101906104879190614c86565b612e7d565b005b6104a860048036038101906104a39190614580565b613173565b005b6104c460048036038101906104bf9190614580565b613224565b6040516104d19190614820565b60405180910390f35b6104f460048036038101906104ef9190614ce6565b613257565b005b610510600480360381019061050b9190614580565b6132e1565b005b600061051c613367565b905060008160000160089054906101000a900460ff1615905060008260000160009054906101000a900467ffffffffffffffff1690506000808267ffffffffffffffff1614801561056a5750825b9050600060018367ffffffffffffffff1614801561059f575060003073ffffffffffffffffffffffffffffffffffffffff163b145b9050811580156105ad575080155b156105e4576040517ff92ee8a900000000000000000000000000000000000000000000000000000000815260040160405180910390fd5b60018560000160006101000a81548167ffffffffffffffff021916908367ffffffffffffffff16021790555083156106345760018560000160086101000a81548160ff0219169083151502179055505b61063d8861338f565b86600860006101000a81548173ffffffffffffffffffffffffffffffffffffffff021916908373ffffffffffffffffffffffffffffffffffffffff1602179055508560008190555083156106e15760008560000160086101000a81548160ff0219169083151502179055507fc7f505b2f371ae2175ee4913f4499e1f2633a7b5936321eed1cdaeb6115181d260016040516106d89190614d6b565b60405180910390a15b5050505050505050565b6106f36133a3565b6000600260008363ffffffff1663ffffffff16815260200190815260200160002090506107088160010160149054906101000a900467ffffffffffffffff1661073c9190614db5565b67ffffffffffffffff164210156107ba576002600381111561076157610760614df1565b5b60ff168160030160009054906101000a900460ff1660ff16036107b9576040517f08c379a00000000000000000000000000000000000000000000000000000000081526004016107b090614e7d565b60405180910390fd5b5b6003808111156107cd576107cc614df1565b5b60ff168160030160009054906101000a900460ff1660ff1603610825576040517f08c379a000000000000000000000000000000000000000000000000000000000815260040161081c90614e7d565b60405180910390fd5b60038081111561083857610837614df1565b5b8160030160006101000a81548160ff021916908360ff16021790555060008160020180549050905060005b818110156109fa57600083600201828154811061088357610882614e9d565b5b906000526020600020906002020160000160009054906101000a900473ffffffffffffffffffffffffffffffffffffffff16905060008460020183815481106108cf576108ce614e9d565b5b90600052602060002090600202016001015490508173ffffffffffffffffffffffffffffffffffffffff1663a9059cbb8660000160009054906101000a900473ffffffffffffffffffffffffffffffffffffffff16836040518363ffffffff1660e01b8152600401610942929190614ecc565b6020604051808303816000875af1158015610961573d6000803e3d6000fd5b505050506040513d601f19601f820116820180604052508101906109859190614f21565b508173ffffffffffffffffffffffffffffffffffffffff163373ffffffffffffffffffffffffffffffffffffffff167fd1c19fbcd4551a5edfb66d43d2e337c04837afda3482b42bdf569a8fccdae5fb836040516109e391906145bc565b60405180910390a350508080600101915050610863565b503373ffffffffffffffffffffffffffffffffffffffff167f8b703fbb69bafcfe17cc041cf70cf1f199e44c5e5f70dca4aa3d01ce927996cc84604051610a419190614f4e565b60405180910390a25050610a536133fa565b50565b610a5e6133a3565b6000600360008363ffffffff1663ffffffff168152602001908152602001600020905060026003811115610a9557610a94614df1565b5b60ff168160030160009054906101000a900460ff1660ff1614610aed576040517f08c379a0000000000000000000000000000000000000000000000000000000008152600401610ae490614e7d565b60405180910390fd5b6202a3008160010160149054906101000a900467ffffffffffffffff16610b149190614db5565b67ffffffffffffffff164211610b5f576040517f08c379a0000000000000000000000000000000000000000000000000000000008152600401610b5690614fb5565b60405180910390fd5b60005b81600201805490508110156110a8576000826002018281548110610b8957610b88614e9d565b5b906000526020600020906007020160020154031561109b576000600a60009054906101000a900473ffffffffffffffffffffffffffffffffffffffff1673ffffffffffffffffffffffffffffffffffffffff166341976e09846002018481548110610bf757610bf6614e9d565b5b906000526020600020906007020160010160009054906101000a900473ffffffffffffffffffffffffffffffffffffffff166040518263ffffffff1660e01b8152600401610c459190614820565b602060405180830381865afa158015610c62573d6000803e3d6000fd5b505050506040513d601f19601f82011682018060405250810190610c869190614fea565b90506000836002018381548110610ca057610c9f614e9d565b5b90600052602060002090600702016005015482610cbd9190615021565b9050600080856002018581548110610cd857610cd7614e9d565b5b906000526020600020906007020160020154633b9aca00876002018781548110610d0557610d04614e9d565b5b906000526020600020906007020160040154610d219190615064565b610d2b91906150d5565b90506000831315610e2757856002018581548110610d4c57610d4b614e9d565b5b906000526020600020906007020160020154633b9aca00876002018781548110610d7957610d78614e9d565b5b906000526020600020906007020160050154633b9aca008685610d9c9190615064565b610da69190615064565b610db091906150d5565b610dba91906150d5565b633b9aca00610dc99190615106565b610dd39190615064565b9150633b9aca0082610de591906150d5565b866002018681548110610dfb57610dfa614e9d565b5b90600052602060002090600702016002016000828254610e1b9190615106565b92505081905550610f14565b856002018581548110610e3d57610e3c614e9d565b5b906000526020600020906007020160020154633b9aca00876002018781548110610e6a57610e69614e9d565b5b906000526020600020906007020160050154633b9aca008685610e8d9190615064565b610e979190615064565b610ea191906150d5565b610eab91906150d5565b633b9aca00610eba919061513a565b610ec49190615064565b9150633b9aca0082610ed691906150d5565b866002018681548110610eec57610eeb614e9d565b5b90600052602060002090600702016002016000828254610f0c919061513a565b925050819055505b85600201600081548110610f2b57610f2a614e9d565b5b906000526020600020906007020160010160009054906101000a900473ffffffffffffffffffffffffffffffffffffffff1673ffffffffffffffffffffffffffffffffffffffff1663a9059cbb8760000160009054906101000a900473ffffffffffffffffffffffffffffffffffffffff1688600201600081548110610fb457610fb3614e9d565b5b9060005260206000209060070201600201546040518363ffffffff1660e01b8152600401610fe3929190614ecc565b6020604051808303816000875af1158015611002573d6000803e3d6000fd5b505050506040513d601f19601f820116820180604052508101906110269190614f21565b507fec57529334d17e7a08e3a28003d556458de39cc3eb43644dfdbf5b3522fb361e86600201868154811061105e5761105d614e9d565b5b906000526020600020906007020160000154633b9aca008461108091906150d5565b60405161108e92919061516e565b60405180910390a1505050505b8080600101915050610b62565b506003808111156110bc576110bb614df1565b5b8160030160006101000a81548160ff021916908360ff1602179055503373ffffffffffffffffffffffffffffffffffffffff167f8b703fbb69bafcfe17cc041cf70cf1f199e44c5e5f70dca4aa3d01ce927996cc8360405161111e9190614f4e565b60405180910390a25061112f6133fa565b50565b61113a613ddf565b6000806000806000868060200190518101906111569190615417565b945094509450945094506040518060a001604052808663ffffffff1681526020018573ffffffffffffffffffffffffffffffffffffffff1681526020018481526020018381526020018281525095505050505050919050565b6111b76133a3565b600081116111fa576040517f08c379a00000000000000000000000000000000000000000000000000000000081526004016111f190615516565b60405180910390fd5b61120382611b0f565b611242576040517f08c379a000000000000000000000000000000000000000000000000000000000815260040161123990615582565b60405180910390fd5b8173ffffffffffffffffffffffffffffffffffffffff166323b872dd3330846040518463ffffffff1660e01b815260040161127f939291906155a2565b6020604051808303816000875af115801561129e573d6000803e3d6000fd5b505050506040513d601f19601f820116820180604052508101906112c29190614f21565b611301576040517f08c379a00000000000000000000000000000000000000000000000000000000081526004016112f890615625565b60405180910390fd5b8173ffffffffffffffffffffffffffffffffffffffff163373ffffffffffffffffffffffffffffffffffffffff167f8752a472e571a816aea92eec8dae9baf628e840f4929fbcc2d155e6233ff68a78360405161135e91906145bc565b60405180910390a361136e6133fa565b5050565b61137a6133a3565b6113ec81611387906156e1565b600760003373ffffffffffffffffffffffffffffffffffffffff1673ffffffffffffffffffffffffffffffffffffffff16815260200190815260200160002060009054906101000a900473ffffffffffffffffffffffffffffffffffffffff16613413565b611422576040517ff08f7bd800000000000000000000000000000000000000000000000000000000815260040160405180910390fd5b600061147f8280600001906114379190615703565b8080601f016020809104026020016040519081016040528093929190818152602001838380828437600081840152601f19601f820116905080830192505050505050506119f2565b90503373ffffffffffffffffffffffffffffffffffffffff16816020015173ffffffffffffffffffffffffffffffffffffffff16146114ea576040517ff08f7bd800000000000000000000000000000000000000000000000000000000815260040160405180910390fd5b60018060009054906101000a900463ffffffff166115089190615766565b600160006101000a81548163ffffffff021916908363ffffffff1602179055506000600160009054906101000a900463ffffffff16905042600260008363ffffffff1663ffffffff16815260200190815260200160002060010160146101000a81548167ffffffffffffffff021916908367ffffffffffffffff1602179055506000826040015151905060005b8181101561166757600260008463ffffffff1663ffffffff168152602001908152602001600020600201846040015182815181106115d6576115d5614e9d565b5b6020026020010151908060018154018082558091505060019003906000526020600020906002020160009091909190915060008201518160000160006101000a81548173ffffffffffffffffffffffffffffffffffffffff021916908373ffffffffffffffffffffffffffffffffffffffff1602179055506020820151816001015550508080600101915050611595565b5060008360000151905080600660008563ffffffff1663ffffffff16815260200190815260200160002060006101000a81548163ffffffff021916908363ffffffff1602179055506116b983336137ed565b505050506116c56133fa565b50565b6116d06138d6565b600073ffffffffffffffffffffffffffffffffffffffff168173ffffffffffffffffffffffffffffffffffffffff1603611736576040517fe6c4247b00000000000000000000000000000000000000000000000000000000815260040160405180910390fd5b6000600860009054906101000a900473ffffffffffffffffffffffffffffffffffffffff16905081600860006101000a81548173ffffffffffffffffffffffffffffffffffffffff021916908373ffffffffffffffffffffffffffffffffffffffff1602179055508173ffffffffffffffffffffffffffffffffffffffff168173ffffffffffffffffffffffffffffffffffffffff167f1435a556af9f480892a082aa22061c8ded519fb343c731930b23c1c50ff68b1460405160405180910390a35050565b60005481565b61180a6138d6565b60005b6009805490508110156119ed578173ffffffffffffffffffffffffffffffffffffffff166009828154811061184557611844614e9d565b5b9060005260206000200160009054906101000a900473ffffffffffffffffffffffffffffffffffffffff1673ffffffffffffffffffffffffffffffffffffffff16036119e057600160098054905061189d919061513a565b811461195057600960016009805490506118b7919061513a565b815481106118c8576118c7614e9d565b5b9060005260206000200160009054906101000a900473ffffffffffffffffffffffffffffffffffffffff166009828154811061190757611906614e9d565b5b9060005260206000200160006101000a81548173ffffffffffffffffffffffffffffffffffffffff021916908373ffffffffffffffffffffffffffffffffffffffff1602179055505b60098054806119625761196161579e565b5b6001900381819060005260206000200160006101000a81549073ffffffffffffffffffffffffffffffffffffffff021916905590558173ffffffffffffffffffffffffffffffffffffffff167f4c910b69fe65a61f7531b9c5042b2329ca7179c77290aa7e2eb3afa3c8511fd360405160405180910390a2506119ef565b808060010191505061180d565b505b50565b6119fa613e2a565b600080600080600086806020019051810190611a1691906158e0565b945094509450945094506040518060a001604052808663ffffffff1681526020018573ffffffffffffffffffffffffffffffffffffffff1681526020018481526020018381526020018281525095505050505050919050565b611a77613e75565b60008060008085806020019051810190611a9191906159a8565b935093509350935060405180608001604052808573ffffffffffffffffffffffffffffffffffffffff1681526020018473ffffffffffffffffffffffffffffffffffffffff1681526020018381526020018267ffffffffffffffff16815250945050505050919050565b611b036138d6565b611b0d600061395d565b565b600080600090505b600980549050811015611bac578273ffffffffffffffffffffffffffffffffffffffff1660098281548110611b4f57611b4e614e9d565b5b9060005260206000200160009054906101000a900473ffffffffffffffffffffffffffffffffffffffff1673ffffffffffffffffffffffffffffffffffffffff1603611b9f576001915050611bb2565b8080600101915050611b17565b50600090505b919050565b611bbf6138d6565b80600a60006101000a81548173ffffffffffffffffffffffffffffffffffffffff021916908373ffffffffffffffffffffffffffffffffffffffff16021790555050565b600a60009054906101000a900473ffffffffffffffffffffffffffffffffffffffff1681565b611c316138d6565b8060008190555050565b600080611c46613a34565b90508060000160009054906101000a900473ffffffffffffffffffffffffffffffffffffffff1691505090565b611c7b6133a3565b611ced81611c88906156e1565b600760003373ffffffffffffffffffffffffffffffffffffffff1673ffffffffffffffffffffffffffffffffffffffff16815260200190815260200160002060009054906101000a900473ffffffffffffffffffffffffffffffffffffffff16613413565b611d23576040517ff08f7bd800000000000000000000000000000000000000000000000000000000815260040160405180910390fd5b6000611d80828060000190611d389190615703565b8080601f016020809104026020016040519081016040528093929190818152602001838380828437600081840152601f19601f82011690508083019250505050505050611132565b90503373ffffffffffffffffffffffffffffffffffffffff16816020015173ffffffffffffffffffffffffffffffffffffffff1614611deb576040517ff08f7bd800000000000000000000000000000000000000000000000000000000815260040160405180910390fd5b60018060009054906101000a900463ffffffff16611e099190615766565b600160006101000a81548163ffffffff021916908363ffffffff1602179055506000600160009054906101000a900463ffffffff16905042600360008363ffffffff1663ffffffff16815260200190815260200160002060010160146101000a81548167ffffffffffffffff021916908367ffffffffffffffff1602179055506000826040015151905060005b81811015611fb057600360008463ffffffff1663ffffffff16815260200190815260200160002060020184604001518281518110611ed757611ed6614e9d565b5b602002602001015190806001815401808255809150506001900390600052602060002090600702016000909190919091506000820151816000015560208201518160010160006101000a81548173ffffffffffffffffffffffffffffffffffffffff021916908373ffffffffffffffffffffffffffffffffffffffff1602179055506040820151816002015560608201518160030160006101000a81548160ff0219169083151502179055506080820151816004015560a0820151816005015560c0820151816006015550508080600101915050611e96565b5060008360000151905080600660008563ffffffff1663ffffffff16815260200190815260200160002060006101000a81548163ffffffff021916908363ffffffff16021790555061200283336137ed565b5050505061200e6133fa565b50565b6120196133a3565b6000600260008463ffffffff1663ffffffff168152602001908152602001600020905060006120998380600001906120519190615703565b8080601f016020809104026020016040519081016040528093929190818152602001838380828437600081840152601f19601f820116905080830192505050505050506119f2565b9050600160038111156120af576120ae614df1565b5b60ff168260030160009054906101000a900460ff1660ff1614612107576040517f08c379a00000000000000000000000000000000000000000000000000000000081526004016120fe90614e7d565b60405180910390fd5b62093a808260010160149054906101000a900467ffffffffffffffff1661212e9190614db5565b67ffffffffffffffff164210612179576040517f08c379a000000000000000000000000000000000000000000000000000000000815260040161217090614fb5565b60405180910390fd5b6121ef83612186906156e1565b60076000846020015173ffffffffffffffffffffffffffffffffffffffff1673ffffffffffffffffffffffffffffffffffffffff16815260200190815260200160002060009054906101000a900473ffffffffffffffffffffffffffffffffffffffff16613413565b612225576040517ff08f7bd800000000000000000000000000000000000000000000000000000000815260040160405180910390fd5b600081600001519050816000015163ffffffff16600660008763ffffffff1663ffffffff16815260200190815260200160002060009054906101000a900463ffffffff1663ffffffff1610156124505780600660008763ffffffff1663ffffffff16815260200190815260200160002060006101000a81548163ffffffff021916908363ffffffff160217905550338360010160006101000a81548173ffffffffffffffffffffffffffffffffffffffff021916908373ffffffffffffffffffffffffffffffffffffffff1602179055508260020160006123069190613ed3565b6000826040015151905060005b818110156123c757846002018460400151828151811061233657612335614e9d565b5b6020026020010151908060018154018082558091505060019003906000526020600020906002020160009091909190915060008201518160000160006101000a81548173ffffffffffffffffffffffffffffffffffffffff021916908373ffffffffffffffffffffffffffffffffffffffff1602179055506020820151816001015550508080600101915050612313565b50600260038111156123dc576123db614df1565b5b8460030160006101000a81548160ff021916908360ff160217905550826020015173ffffffffffffffffffffffffffffffffffffffff167f41333d535ecc89f2d33b1d5f30416f34ba3c7d0bbf7aaea28a3b7c330969379b876040516124429190614f4e565b60405180910390a250612482565b6040517f785736c800000000000000000000000000000000000000000000000000000000815260040160405180910390fd5b50505061248d6133fa565b5050565b6124996133a3565b61250b816124a6906156e1565b600760003373ffffffffffffffffffffffffffffffffffffffff1673ffffffffffffffffffffffffffffffffffffffff16815260200190815260200160002060009054906101000a900473ffffffffffffffffffffffffffffffffffffffff16613413565b612541576040517ff08f7bd800000000000000000000000000000000000000000000000000000000815260040160405180910390fd5b600061259e8280600001906125569190615703565b8080601f016020809104026020016040519081016040528093929190818152602001838380828437600081840152601f19601f82011690508083019250505050505050611a6f565b905060008160400151116125e7576040517f08c379a00000000000000000000000000000000000000000000000000000000081526004016125de90615516565b60405180910390fd5b6125f48160200151611b0f565b612633576040517f08c379a000000000000000000000000000000000000000000000000000000000815260040161262a90615582565b60405180910390fd5b600054816060015167ffffffffffffffff1642612650919061513a565b10612690576040517f08c379a000000000000000000000000000000000000000000000000000000000815260040161268790615a5b565b60405180910390fd5b3373ffffffffffffffffffffffffffffffffffffffff16816000015173ffffffffffffffffffffffffffffffffffffffff16146126f9576040517ff08f7bd800000000000000000000000000000000000000000000000000000000815260040160405180910390fd5b82600760003373ffffffffffffffffffffffffffffffffffffffff1673ffffffffffffffffffffffffffffffffffffffff16815260200190815260200160002060006101000a81548173ffffffffffffffffffffffffffffffffffffffff021916908373ffffffffffffffffffffffffffffffffffffffff160217905550806020015173ffffffffffffffffffffffffffffffffffffffff1663a9059cbb3383604001516040518363ffffffff1660e01b81526004016127ba929190614ecc565b6020604051808303816000875af11580156127d9573d6000803e3d6000fd5b505050506040513d601f19601f820116820180604052508101906127fd9190614f21565b61283c576040517f08c379a000000000000000000000000000000000000000000000000000000000815260040161283390615625565b60405180910390fd5b806020015173ffffffffffffffffffffffffffffffffffffffff163373ffffffffffffffffffffffffffffffffffffffff167fd1c19fbcd4551a5edfb66d43d2e337c04837afda3482b42bdf569a8fccdae5fb83604001516040516128a191906145bc565b60405180910390a3506128b26133fa565b5050565b60026020528060005260406000206000915090508060000160009054906101000a900473ffffffffffffffffffffffffffffffffffffffff16908060010160009054906101000a900473ffffffffffffffffffffffffffffffffffffffff16908060010160149054906101000a900467ffffffffffffffff16908060030160009054906101000a900460ff16908060030160019054906101000a900463ffffffff16905085565b6129656133a3565b6000600360008663ffffffff1663ffffffff16815260200190815260200160002090506001600381111561299c5761299b614df1565b5b60ff168160030160009054906101000a900460ff1660ff16146129f4576040517f08c379a00000000000000000000000000000000000000000000000000000000081526004016129eb90614e7d565b60405180910390fd5b6202a3008160010160149054906101000a900467ffffffffffffffff16612a1b9190614db5565b67ffffffffffffffff164210612a66576040517f08c379a0000000000000000000000000000000000000000000000000000000008152600401612a5d90614fb5565b60405180910390fd5b60006040518060400160405280600281526020017f3078000000000000000000000000000000000000000000000000000000000000815250905060005b8551811015612b7f5781868281518110612ac057612abf614e9d565b5b602002602001015160000151604051602001612add929190615ae3565b604051602081830303815290604052915081868281518110612b0257612b01614e9d565b5b602002602001015160400151604051602001612b1f929190615ae3565b604051602081830303815290604052915081868281518110612b4457612b43614e9d565b5b602002602001015160600151604051602001612b61929190615b41565b60405160208183030381529060405291508080600101915050612aa3565b50600081805190602001209050612b97818686613a5c565b60005b8651811015612daa5760005b8460020180549050811015612d9c57878281518110612bc857612bc7614e9d565b5b60200260200101516060015167ffffffffffffffff16856002018281548110612bf457612bf3614e9d565b5b90600052602060002090600702016006015411612d8f57878281518110612c1e57612c1d614e9d565b5b602002602001015160000151856002018281548110612c4057612c3f614e9d565b5b90600052602060002090600702016000015403612d8e57846002018181548110612c6d57612c6c614e9d565b5b906000526020600020906007020160030160009054906101000a900460ff1615612d1157878281518110612ca457612ca3614e9d565b5b602002602001015160400151856002018281548110612cc657612cc5614e9d565b5b9060005260206000209060070201600501541115612d0c576000856002018281548110612cf657612cf5614e9d565b5b9060005260206000209060070201600201819055505b612d8d565b878281518110612d2457612d23614e9d565b5b602002602001015160400151856002018281548110612d4657612d45614e9d565b5b9060005260206000209060070201600501541015612d8c576000856002018281548110612d7657612d75614e9d565b5b9060005260206000209060070201600201819055505b5b5b5b8080600101915050612ba6565b508080600101915050612b9a565b5060026003811115612dbf57612dbe614df1565b5b8360030160006101000a81548160ff021916908360ff160217905550338360010160006101000a81548173ffffffffffffffffffffffffffffffffffffffff021916908373ffffffffffffffffffffffffffffffffffffffff1602179055503373ffffffffffffffffffffffffffffffffffffffff167f41333d535ecc89f2d33b1d5f30416f34ba3c7d0bbf7aaea28a3b7c330969379b88604051612e649190614f4e565b60405180910390a2505050612e776133fa565b50505050565b612e856133a3565b6000836040015111612ecc576040517f08c379a0000000000000000000000000000000000000000000000000000000008152600401612ec390615516565b60405180910390fd5b3373ffffffffffffffffffffffffffffffffffffffff16836000015173ffffffffffffffffffffffffffffffffffffffff1614612f3e576040517f08c379a0000000000000000000000000000000000000000000000000000000008152600401612f3590615bb5565b60405180910390fd5b612f4b8360200151611b0f565b612f8a576040517f08c379a0000000000000000000000000000000000000000000000000000000008152600401612f8190615582565b60405180910390fd5b600054836060015167ffffffffffffffff1642612fa7919061513a565b10612fe7576040517f08c379a0000000000000000000000000000000000000000000000000000000008152600401612fde90615a5b565b60405180910390fd5b600083600001518460200151856040015186606001516040516020016130109493929190615bd5565b604051602081830303815290604052805190602001209050613033818484613a5c565b836020015173ffffffffffffffffffffffffffffffffffffffff1663a9059cbb3386604001516040518363ffffffff1660e01b8152600401613076929190614ecc565b6020604051808303816000875af1158015613095573d6000803e3d6000fd5b505050506040513d601f19601f820116820180604052508101906130b99190614f21565b6130f8576040517f08c379a00000000000000000000000000000000000000000000000000000000081526004016130ef90615625565b60405180910390fd5b836020015173ffffffffffffffffffffffffffffffffffffffff163373ffffffffffffffffffffffffffffffffffffffff167fd1c19fbcd4551a5edfb66d43d2e337c04837afda3482b42bdf569a8fccdae5fb866040015160405161315d91906145bc565b60405180910390a35061316e6133fa565b505050565b61317b6138d6565b6009819080600181540180825580915050600190039060005260206000200160009091909190916101000a81548173ffffffffffffffffffffffffffffffffffffffff021916908373ffffffffffffffffffffffffffffffffffffffff1602179055508073ffffffffffffffffffffffffffffffffffffffff167f784c8f4dbf0ffedd6e72c76501c545a70f8b203b30a26ce542bf92ba87c248a460405160405180910390a250565b60076020528060005260406000206000915054906101000a900473ffffffffffffffffffffffffffffffffffffffff1681565b61325f6138d6565b80600760008473ffffffffffffffffffffffffffffffffffffffff1673ffffffffffffffffffffffffffffffffffffffff16815260200190815260200160002060006101000a81548173ffffffffffffffffffffffffffffffffffffffff021916908373ffffffffffffffffffffffffffffffffffffffff1602179055505050565b6132e96138d6565b600073ffffffffffffffffffffffffffffffffffffffff168173ffffffffffffffffffffffffffffffffffffffff160361335b5760006040517f1e4fbdf70000000000000000000000000000000000000000000000000000000081526004016133529190614820565b60405180910390fd5b6133648161395d565b50565b60007ff0c57e16840df040f15088dc2f81fe391c3923bec73e23a9662efc9c229c6a00905090565b613397613c61565b6133a081613ca1565b50565b60006133ad613d27565b905060028160000154036133ed576040517f3ee5aeb500000000000000000000000000000000000000000000000000000000815260040160405180910390fd5b6002816000018190555050565b6000613404613d27565b90506001816000018190555050565b6000600583602001516040516134299190615c1a565b908152602001604051809103902060009054906101000a900460ff161561347c576040517ff08f7bd800000000000000000000000000000000000000000000000000000000815260040160405180910390fd5b8173ffffffffffffffffffffffffffffffffffffffff16836040015173ffffffffffffffffffffffffffffffffffffffff16146134e5576040517ff08f7bd800000000000000000000000000000000000000000000000000000000815260040160405180910390fd5b608083602001515114613524576040517ff08f7bd800000000000000000000000000000000000000000000000000000000815260040160405180910390fd5b60008060008086602001518060200190518101906135429190615c93565b935093509350935060007ffffffffffffffffffffffffffffffffebaaedce6af48a03bbfd25e8cd03641418061357b5761357a6150a6565b5b8560001c8460001c097ffffffffffffffffffffffffffffffffebaaedce6af48a03bbfd25e8cd03641416135af919061513a565b60001b905060007ffffffffffffffffffffffffffffffffebaaedce6af48a03bbfd25e8cd0364141806135e5576135e46150a6565b5b8660001c8660001c097ffffffffffffffffffffffffffffffffebaaedce6af48a03bbfd25e8cd0364141613619919061513a565b60001b90506000801b820361365a576040517fe296c92d00000000000000000000000000000000000000000000000000000000815260040160405180910390fd5b60006001838589856040516000815260200160405260405161367f9493929190615d09565b6020604051602081039080840390855afa1580156136a1573d6000803e3d6000fd5b505050602060405103519050600073ffffffffffffffffffffffffffffffffffffffff168173ffffffffffffffffffffffffffffffffffffffff1603613713576040517f4fbfae6300000000000000000000000000000000000000000000000000000000815260040160405180910390fd5b8084888c60000151805190602001206040516020016137359493929190615ded565b604051602081830303815290604052805190602001208614801561378b5750896040015173ffffffffffffffffffffffffffffffffffffffff168760001c73ffffffffffffffffffffffffffffffffffffffff16145b156137db57600160058b602001516040516137a69190615c1a565b908152602001604051809103902060006101000a81548160ff02191690831515021790555060019750505050505050506137e7565b60009750505050505050505b92915050565b6000600260008463ffffffff1663ffffffff16815260200190815260200160002090506001600381111561382457613823614df1565b5b8160030160006101000a81548160ff021916908360ff160217905550818160000160006101000a81548173ffffffffffffffffffffffffffffffffffffffff021916908373ffffffffffffffffffffffffffffffffffffffff1602179055508173ffffffffffffffffffffffffffffffffffffffff167f2fdd05cb84b2efdbfb66efce92f66f26e7323b06b91ed693c764e01573436af9846040516138c99190614f4e565b60405180910390a2505050565b6138de613d4f565b73ffffffffffffffffffffffffffffffffffffffff166138fc611c3b565b73ffffffffffffffffffffffffffffffffffffffff161461395b5761391f613d4f565b6040517f118cdaa70000000000000000000000000000000000000000000000000000000081526004016139529190614820565b60405180910390fd5b565b6000613967613a34565b905060008160000160009054906101000a900473ffffffffffffffffffffffffffffffffffffffff169050828260000160006101000a81548173ffffffffffffffffffffffffffffffffffffffff021916908373ffffffffffffffffffffffffffffffffffffffff1602179055508273ffffffffffffffffffffffffffffffffffffffff168173ffffffffffffffffffffffffffffffffffffffff167f8be0079c531659141344cd1fd0a4f28419497f9722a3daafe3b4186f6b6457e060405160405180910390a3505050565b60007f9016d09d72d40fdae2fd8ceac6b6234c7706214fd39c1cd1e609a0528c199300905090565b60048282604051613a6e929190615e60565b908152602001604051809103902060009054906101000a900460ff1615613ac1576040517ffeed18bd00000000000000000000000000000000000000000000000000000000815260040160405180910390fd5b600083604051602001613ad49190615ed0565b6040516020818303038152906040528051906020012090506000806000613b3e86868080601f016020809104026020016040519081016040528093929190818152602001838380828437600081840152601f19601f82011690508083019250505050505050613d57565b925092509250600060018583868660405160008152602001604052604051613b699493929190615d09565b6020604051602081039080840390855afa158015613b8b573d6000803e3d6000fd5b505050602060405103519050600860009054906101000a900473ffffffffffffffffffffffffffffffffffffffff1673ffffffffffffffffffffffffffffffffffffffff168173ffffffffffffffffffffffffffffffffffffffff1614613c1e576040517f8baa579f00000000000000000000000000000000000000000000000000000000815260040160405180910390fd5b600160048888604051613c32929190615e60565b908152602001604051809103902060006101000a81548160ff0219169083151502179055505050505050505050565b613c69613dbf565b613c9f576040517fd7e6bcf800000000000000000000000000000000000000000000000000000000815260040160405180910390fd5b565b613ca9613c61565b600073ffffffffffffffffffffffffffffffffffffffff168173ffffffffffffffffffffffffffffffffffffffff1603613d1b5760006040517f1e4fbdf7000000000000000000000000000000000000000000000000000000008152600401613d129190614820565b60405180910390fd5b613d248161395d565b50565b60007f9b779b17422d0df92223018b32b4d1fa46e071723d6817e2486d003becc55f00905090565b600033905090565b60008060006041845114613da0576040517f08c379a0000000000000000000000000000000000000000000000000000000008152600401613d9790615f42565b60405180910390fd5b6020840151925060408401519150606084015160001a90509193909250565b6000613dc9613367565b60000160089054906101000a900460ff16905090565b6040518060a00160405280600063ffffffff168152602001600073ffffffffffffffffffffffffffffffffffffffff1681526020016060815260200160608152602001600081525090565b6040518060a00160405280600063ffffffff168152602001600073ffffffffffffffffffffffffffffffffffffffff1681526020016060815260200160608152602001600081525090565b6040518060800160405280600073ffffffffffffffffffffffffffffffffffffffff168152602001600073ffffffffffffffffffffffffffffffffffffffff16815260200160008152602001600067ffffffffffffffff1681525090565b5080546000825560020290600052602060002090810190613ef49190613ef7565b50565b5b80821115613f3957600080820160006101000a81549073ffffffffffffffffffffffffffffffffffffffff0219169055600182016000905550600201613ef8565b5090565b6000604051905090565b600080fd5b600080fd5b600073ffffffffffffffffffffffffffffffffffffffff82169050919050565b6000613f7c82613f51565b9050919050565b613f8c81613f71565b8114613f9757600080fd5b50565b600081359050613fa981613f83565b92915050565b6000819050919050565b613fc281613faf565b8114613fcd57600080fd5b50565b600081359050613fdf81613fb9565b92915050565b600080600060608486031215613ffe57613ffd613f47565b5b600061400c86828701613f9a565b935050602061401d86828701613f9a565b925050604061402e86828701613fd0565b9150509250925092565b600063ffffffff82169050919050565b61405181614038565b811461405c57600080fd5b50565b60008135905061406e81614048565b92915050565b60006020828403121561408a57614089613f47565b5b60006140988482850161405f565b91505092915050565b600080fd5b600080fd5b6000601f19601f8301169050919050565b7f4e487b7100000000000000000000000000000000000000000000000000000000600052604160045260246000fd5b6140f4826140ab565b810181811067ffffffffffffffff82111715614113576141126140bc565b5b80604052505050565b6000614126613f3d565b905061413282826140eb565b919050565b600067ffffffffffffffff821115614152576141516140bc565b5b61415b826140ab565b9050602081019050919050565b82818337600083830152505050565b600061418a61418584614137565b61411c565b9050828152602081018484840111156141a6576141a56140a6565b5b6141b1848285614168565b509392505050565b600082601f8301126141ce576141cd6140a1565b5b81356141de848260208601614177565b91505092915050565b6000602082840312156141fd576141fc613f47565b5b600082013567ffffffffffffffff81111561421b5761421a613f4c565b5b614227848285016141b9565b91505092915050565b61423981614038565b82525050565b61424881613f71565b82525050565b600081519050919050565b600082825260208201905092915050565b6000819050602082019050919050565b61428381613faf565b82525050565b60008115159050919050565b61429e81614289565b82525050565b60e0820160008201516142ba600085018261427a565b5060208201516142cd602085018261423f565b5060408201516142e0604085018261427a565b5060608201516142f36060850182614295565b506080820151614306608085018261427a565b5060a082015161431960a085018261427a565b5060c082015161432c60c085018261427a565b50505050565b600061433e83836142a4565b60e08301905092915050565b6000602082019050919050565b60006143628261424e565b61436c8185614259565b93506143778361426a565b8060005b838110156143a857815161438f8882614332565b975061439a8361434a565b92505060018101905061437b565b5085935050505092915050565b600081519050919050565b600082825260208201905092915050565b60005b838110156143ef5780820151818401526020810190506143d4565b60008484015250505050565b6000614406826143b5565b61441081856143c0565b93506144208185602086016143d1565b614429816140ab565b840191505092915050565b600060a08301600083015161444c6000860182614230565b50602083015161445f602086018261423f565b50604083015184820360408601526144778282614357565b9150506060830151848203606086015261449182826143fb565b91505060808301516144a6608086018261427a565b508091505092915050565b600060208201905081810360008301526144cb8184614434565b905092915050565b600080604083850312156144ea576144e9613f47565b5b60006144f885828601613f9a565b925050602061450985828601613fd0565b9150509250929050565b600080fd5b60006060828403121561452e5761452d614513565b5b81905092915050565b60006020828403121561454d5761454c613f47565b5b600082013567ffffffffffffffff81111561456b5761456a613f4c565b5b61457784828501614518565b91505092915050565b60006020828403121561459657614595613f47565b5b60006145a484828501613f9a565b91505092915050565b6145b681613faf565b82525050565b60006020820190506145d160008301846145ad565b92915050565b600081519050919050565b600082825260208201905092915050565b6000819050602082019050919050565b604082016000820151614619600085018261423f565b50602082015161462c602085018261427a565b50505050565b600061463e8383614603565b60408301905092915050565b6000602082019050919050565b6000614662826145d7565b61466c81856145e2565b9350614677836145f3565b8060005b838110156146a857815161468f8882614632565b975061469a8361464a565b92505060018101905061467b565b5085935050505092915050565b600060a0830160008301516146cd6000860182614230565b5060208301516146e0602086018261423f565b50604083015184820360408601526146f88282614657565b9150506060830151848203606086015261471282826143fb565b9150506080830151614727608086018261427a565b508091505092915050565b6000602082019050818103600083015261474c81846146b5565b905092915050565b600067ffffffffffffffff82169050919050565b61477181614754565b82525050565b60808201600082015161478d600085018261423f565b5060208201516147a0602085018261423f565b5060408201516147b3604085018261427a565b5060608201516147c66060850182614768565b50505050565b60006080820190506147e16000830184614777565b92915050565b6147f081614289565b82525050565b600060208201905061480b60008301846147e7565b92915050565b61481a81613f71565b82525050565b60006020820190506148356000830184614811565b92915050565b60006020828403121561485157614850613f47565b5b600061485f84828501613fd0565b91505092915050565b6000806040838503121561487f5761487e613f47565b5b600061488d8582860161405f565b925050602083013567ffffffffffffffff8111156148ae576148ad613f4c565b5b6148ba85828601614518565b9150509250929050565b600080604083850312156148db576148da613f47565b5b60006148e985828601613f9a565b925050602083013567ffffffffffffffff81111561490a57614909613f4c565b5b61491685828601614518565b9150509250929050565b61492981614754565b82525050565b600060ff82169050919050565b6149458161492f565b82525050565b61495481614038565b82525050565b600060a08201905061496f6000830188614811565b61497c6020830187614811565b6149896040830186614920565b614996606083018561493c565b6149a3608083018461494b565b9695505050505050565b600067ffffffffffffffff8211156149c8576149c76140bc565b5b602082029050602081019050919050565b600080fd5b600080fd5b600080fd5b6149f181614754565b81146149fc57600080fd5b50565b600081359050614a0e816149e8565b92915050565b600060808284031215614a2a57614a296149de565b5b614a34608061411c565b90506000614a4484828501613fd0565b6000830152506020614a5884828501613f9a565b6020830152506040614a6c84828501613fd0565b6040830152506060614a80848285016149ff565b60608301525092915050565b6000614a9f614a9a846149ad565b61411c565b90508083825260208201905060808402830185811115614ac257614ac16149d9565b5b835b81811015614aeb5780614ad78882614a14565b845260208401935050608081019050614ac4565b5050509392505050565b600082601f830112614b0a57614b096140a1565b5b8135614b1a848260208601614a8c565b91505092915050565b600080fd5b60008083601f840112614b3e57614b3d6140a1565b5b8235905067ffffffffffffffff811115614b5b57614b5a614b23565b5b602083019150836001820283011115614b7757614b766149d9565b5b9250929050565b60008060008060608587031215614b9857614b97613f47565b5b6000614ba68782880161405f565b945050602085013567ffffffffffffffff811115614bc757614bc6613f4c565b5b614bd387828801614af5565b935050604085013567ffffffffffffffff811115614bf457614bf3613f4c565b5b614c0087828801614b28565b925092505092959194509250565b600060808284031215614c2457614c236149de565b5b614c2e608061411c565b90506000614c3e84828501613f9a565b6000830152506020614c5284828501613f9a565b6020830152506040614c6684828501613fd0565b6040830152506060614c7a848285016149ff565b60608301525092915050565b600080600060a08486031215614c9f57614c9e613f47565b5b6000614cad86828701614c0e565b935050608084013567ffffffffffffffff811115614cce57614ccd613f4c565b5b614cda86828701614b28565b92509250509250925092565b60008060408385031215614cfd57614cfc613f47565b5b6000614d0b85828601613f9a565b9250506020614d1c85828601613f9a565b9150509250929050565b6000819050919050565b6000819050919050565b6000614d55614d50614d4b84614d26565b614d30565b614754565b9050919050565b614d6581614d3a565b82525050565b6000602082019050614d806000830184614d5c565b92915050565b7f4e487b7100000000000000000000000000000000000000000000000000000000600052601160045260246000fd5b6000614dc082614754565b9150614dcb83614754565b9250828201905067ffffffffffffffff811115614deb57614dea614d86565b5b92915050565b7f4e487b7100000000000000000000000000000000000000000000000000000000600052602160045260246000fd5b600082825260208201905092915050565b7f496e76616c696420646973707574652073746174757300000000000000000000600082015250565b6000614e67601683614e20565b9150614e7282614e31565b602082019050919050565b60006020820190508181036000830152614e9681614e5a565b9050919050565b7f4e487b7100000000000000000000000000000000000000000000000000000000600052603260045260246000fd5b6000604082019050614ee16000830185614811565b614eee60208301846145ad565b9392505050565b614efe81614289565b8114614f0957600080fd5b50565b600081519050614f1b81614ef5565b92915050565b600060208284031215614f3757614f36613f47565b5b6000614f4584828501614f0c565b91505092915050565b6000602082019050614f63600083018461494b565b92915050565b7f446973707574652077696e646f7720636c6f7365640000000000000000000000600082015250565b6000614f9f601583614e20565b9150614faa82614f69565b602082019050919050565b60006020820190508181036000830152614fce81614f92565b9050919050565b600081519050614fe481613fb9565b92915050565b60006020828403121561500057614fff613f47565b5b600061500e84828501614fd5565b91505092915050565b6000819050919050565b600061502c82615017565b915061503783615017565b925082820390508181126000841216828213600085121516171561505e5761505d614d86565b5b92915050565b600061506f82613faf565b915061507a83613faf565b925082820261508881613faf565b9150828204841483151761509f5761509e614d86565b5b5092915050565b7f4e487b7100000000000000000000000000000000000000000000000000000000600052601260045260246000fd5b60006150e082613faf565b91506150eb83613faf565b9250826150fb576150fa6150a6565b5b828204905092915050565b600061511182613faf565b915061511c83613faf565b925082820190508082111561513457615133614d86565b5b92915050565b600061514582613faf565b915061515083613faf565b925082820390508181111561516857615167614d86565b5b92915050565b600060408201905061518360008301856145ad565b61519060208301846145ad565b9392505050565b6000815190506151a681614048565b92915050565b60006151b782613f51565b9050919050565b6151c7816151ac565b81146151d257600080fd5b50565b6000815190506151e4816151be565b92915050565b600067ffffffffffffffff821115615205576152046140bc565b5b602082029050602081019050919050565b60008151905061522581613f83565b92915050565b600060e08284031215615241576152406149de565b5b61524b60e061411c565b9050600061525b84828501614fd5565b600083015250602061526f84828501615216565b602083015250604061528384828501614fd5565b604083015250606061529784828501614f0c565b60608301525060806152ab84828501614fd5565b60808301525060a06152bf84828501614fd5565b60a08301525060c06152d384828501614fd5565b60c08301525092915050565b60006152f26152ed846151ea565b61411c565b90508083825260208201905060e08402830185811115615315576153146149d9565b5b835b8181101561533e578061532a888261522b565b84526020840193505060e081019050615317565b5050509392505050565b600082601f83011261535d5761535c6140a1565b5b815161536d8482602086016152df565b91505092915050565b600067ffffffffffffffff821115615391576153906140bc565b5b61539a826140ab565b9050602081019050919050565b60006153ba6153b584615376565b61411c565b9050828152602081018484840111156153d6576153d56140a6565b5b6153e18482856143d1565b509392505050565b600082601f8301126153fe576153fd6140a1565b5b815161540e8482602086016153a7565b91505092915050565b600080600080600060a0868803121561543357615432613f47565b5b600061544188828901615197565b9550506020615452888289016151d5565b945050604086015167ffffffffffffffff81111561547357615472613f4c565b5b61547f88828901615348565b935050606086015167ffffffffffffffff8111156154a05761549f613f4c565b5b6154ac888289016153e9565b92505060806154bd88828901614fd5565b9150509295509295909350565b7f416d6f756e74206d7573742062652067726561746572207468616e207a65726f600082015250565b6000615500602083614e20565b915061550b826154ca565b602082019050919050565b6000602082019050818103600083015261552f816154f3565b9050919050565b7f546f6b656e206e6f7420737570706f7274656400000000000000000000000000600082015250565b600061556c601383614e20565b915061557782615536565b602082019050919050565b6000602082019050818103600083015261559b8161555f565b9050919050565b60006060820190506155b76000830186614811565b6155c46020830185614811565b6155d160408301846145ad565b949350505050565b7f5472616e73666572206661696c65640000000000000000000000000000000000600082015250565b600061560f600f83614e20565b915061561a826155d9565b602082019050919050565b6000602082019050818103600083015261563e81615602565b9050919050565b60006060828403121561565b5761565a6149de565b5b615665606061411c565b9050600082013567ffffffffffffffff811115615685576156846149e3565b5b615691848285016141b9565b600083015250602082013567ffffffffffffffff8111156156b5576156b46149e3565b5b6156c1848285016141b9565b60208301525060406156d584828501613f9a565b60408301525092915050565b60006156ed3683615645565b9050919050565b600080fd5b600080fd5b600080fd5b600080833560016020038436030381126157205761571f6156f4565b5b80840192508235915067ffffffffffffffff821115615742576157416156f9565b5b60208301925060018202360383131561575e5761575d6156fe565b5b509250929050565b600061577182614038565b915061577c83614038565b9250828201905063ffffffff81111561579857615797614d86565b5b92915050565b7f4e487b7100000000000000000000000000000000000000000000000000000000600052603160045260246000fd5b600067ffffffffffffffff8211156157e8576157e76140bc565b5b602082029050602081019050919050565b60006040828403121561580f5761580e6149de565b5b615819604061411c565b9050600061582984828501615216565b600083015250602061583d84828501614fd5565b60208301525092915050565b600061585c615857846157cd565b61411c565b9050808382526020820190506040840283018581111561587f5761587e6149d9565b5b835b818110156158a8578061589488826157f9565b845260208401935050604081019050615881565b5050509392505050565b600082601f8301126158c7576158c66140a1565b5b81516158d7848260208601615849565b91505092915050565b600080600080600060a086880312156158fc576158fb613f47565b5b600061590a88828901615197565b955050602061591b888289016151d5565b945050604086015167ffffffffffffffff81111561593c5761593b613f4c565b5b615948888289016158b2565b935050606086015167ffffffffffffffff81111561596957615968613f4c565b5b615975888289016153e9565b925050608061598688828901614fd5565b9150509295509295909350565b6000815190506159a2816149e8565b92915050565b600080600080608085870312156159c2576159c1613f47565b5b60006159d0878288016151d5565b94505060206159e1878288016151d5565b93505060406159f287828801614fd5565b9250506060615a0387828801615993565b91505092959194509250565b7f5369676e61747572652045787069726564000000000000000000000000000000600082015250565b6000615a45601183614e20565b9150615a5082615a0f565b602082019050919050565b60006020820190508181036000830152615a7481615a38565b9050919050565b600081519050919050565b600081905092915050565b6000615a9c82615a7b565b615aa68185615a86565b9350615ab68185602086016143d1565b80840191505092915050565b6000819050919050565b615add615ad882613faf565b615ac2565b82525050565b6000615aef8285615a91565b9150615afb8284615acc565b6020820191508190509392505050565b60008160c01b9050919050565b6000615b2382615b0b565b9050919050565b615b3b615b3682614754565b615b18565b82525050565b6000615b4d8285615a91565b9150615b598284615b2a565b6008820191508190509392505050565b7f43616c6c6572206e6f7420636f72726563740000000000000000000000000000600082015250565b6000615b9f601283614e20565b9150615baa82615b69565b602082019050919050565b60006020820190508181036000830152615bce81615b92565b9050919050565b6000608082019050615bea6000830187614811565b615bf76020830186614811565b615c0460408301856145ad565b615c116060830184614920565b95945050505050565b6000615c268284615a91565b915081905092915050565b6000819050919050565b615c4481615c31565b8114615c4f57600080fd5b50565b600081519050615c6181615c3b565b92915050565b615c708161492f565b8114615c7b57600080fd5b50565b600081519050615c8d81615c67565b92915050565b60008060008060808587031215615cad57615cac613f47565b5b6000615cbb87828801615c52565b9450506020615ccc87828801615c52565b9350506040615cdd87828801615c52565b9250506060615cee87828801615c7e565b91505092959194509250565b615d0381615c31565b82525050565b6000608082019050615d1e6000830187615cfa565b615d2b602083018661493c565b615d386040830185615cfa565b615d456060830184615cfa565b95945050505050565b60008160601b9050919050565b6000615d6682615d4e565b9050919050565b6000615d7882615d5b565b9050919050565b615d90615d8b82613f71565b615d6d565b82525050565b60008160f81b9050919050565b6000615dae82615d96565b9050919050565b615dc6615dc18261492f565b615da3565b82525050565b6000819050919050565b615de7615de282615c31565b615dcc565b82525050565b6000615df98287615d7f565b601482019150615e098286615db5565b600182019150615e198285615dd6565b602082019150615e298284615dd6565b60208201915081905095945050505050565b6000615e478385615a86565b9350615e54838584614168565b82840190509392505050565b6000615e6d828486615e3b565b91508190509392505050565b600081905092915050565b7f19457468657265756d205369676e6564204d6573736167653a0a333200000000600082015250565b6000615eba601c83615e79565b9150615ec582615e84565b601c82019050919050565b6000615edb82615ead565b9150615ee78284615dd6565b60208201915081905092915050565b7f696e76616c6964207369676e6174757265206c656e6774680000000000000000600082015250565b6000615f2c601883614e20565b9150615f3782615ef6565b602082019050919050565b60006020820190508181036000830152615f5b81615f1f565b905091905056fea2646970667358221220a2bd345ea256936a7df76c0414c2397ffef430ee25d316fe9146aa966e3160b064736f6c63430008180033",
  "linkReferences": {},
  "deployedLinkReferences": {}
}