{
  "_format": "hh-sol-artifact-1",
  "contractName": "Vault",
  "sourceName": "contracts/0xVault/Vault.sol",
  "abi": [
    {
      "inputs": [],
      "name": "DisputeChallengeFailed",
      "type": "error"
    },
    {
      "inputs": [],
      "name": "ECRecoverFailed",
      "type": "error"
    },
    {
      "inputs": [],
      "name": "EnforcedPause",
      "type": "error"
    },
    {
      "inputs": [],
      "name": "ExpectedPause",
      "type": "error"
    },
    {
      "inputs": [],
      "name": "InvalidAddress",
      "type": "error"
    },
    {
      "inputs": [],
      "name": "InvalidInitialization",
      "type": "error"
    },
    {
      "inputs": [],
      "name": "InvalidSP",
      "type": "error"
    },
    {
      "inputs": [],
      "name": "InvalidSchnorrSignature",
      "type": "error"
    },
    {
      "inputs": [],
      "name": "InvalidSignature",
      "type": "error"
    },
    {
      "inputs": [],
      "name": "InvalidUsedSignature",
      "type": "error"
    },
    {
      "inputs": [],
      "name": "NotInitializing",
      "type": "error"
    },
    {
      "inputs": [
        {
          "internalType": "address",
          "name": "owner",
          "type": "address"
        }
      ],
      "name": "OwnableInvalidOwner",
      "type": "error"
    },
    {
      "inputs": [
        {
          "internalType": "address",
          "name": "account",
          "type": "address"
        }
      ],
      "name": "OwnableUnauthorizedAccount",
      "type": "error"
    },
    {
      "inputs": [],
      "name": "ReentrancyGuardReentrantCall",
      "type": "error"
    },
    {
      "inputs": [],
      "name": "SettleDisputeFailed",
      "type": "error"
    },
    {
      "anonymous": false,
      "inputs": [
        {
          "indexed": true,
          "internalType": "address",
          "name": "user",
          "type": "address"
        },
        {
          "indexed": true,
          "internalType": "address",
          "name": "token",
          "type": "address"
        },
        {
          "indexed": false,
          "internalType": "uint256",
          "name": "amount",
          "type": "uint256"
        }
      ],
      "name": "Deposited",
      "type": "event"
    },
    {
      "anonymous": false,
      "inputs": [
        {
          "indexed": false,
          "internalType": "uint32",
          "name": "requestId",
          "type": "uint32"
        },
        {
          "indexed": true,
          "internalType": "address",
          "name": "user",
          "type": "address"
        }
      ],
      "name": "DisputeChallenged",
      "type": "event"
    },
    {
      "anonymous": false,
      "inputs": [
        {
          "indexed": false,
          "internalType": "uint32",
          "name": "requestId",
          "type": "uint32"
        },
        {
          "indexed": true,
          "internalType": "address",
          "name": "user",
          "type": "address"
        }
      ],
      "name": "DisputeOpened",
      "type": "event"
    },
    {
      "anonymous": false,
      "inputs": [
        {
          "indexed": false,
          "internalType": "uint32",
          "name": "requestId",
          "type": "uint32"
        },
        {
          "indexed": true,
          "internalType": "address",
          "name": "user",
          "type": "address"
        }
      ],
      "name": "DisputeSettled",
      "type": "event"
    },
    {
      "anonymous": false,
      "inputs": [
        {
          "indexed": false,
          "internalType": "uint64",
          "name": "version",
          "type": "uint64"
        }
      ],
      "name": "Initialized",
      "type": "event"
    },
    {
      "anonymous": false,
      "inputs": [
        {
          "indexed": true,
          "internalType": "address",
          "name": "user",
          "type": "address"
        },
        {
          "indexed": true,
          "internalType": "address",
          "name": "token",
          "type": "address"
        },
        {
          "indexed": false,
          "internalType": "uint256",
          "name": "amount",
          "type": "uint256"
        }
      ],
      "name": "LPProvided",
      "type": "event"
    },
    {
      "anonymous": false,
      "inputs": [
        {
          "indexed": true,
          "internalType": "address",
          "name": "user",
          "type": "address"
        },
        {
          "indexed": true,
          "internalType": "address",
          "name": "token",
          "type": "address"
        },
        {
          "indexed": false,
          "internalType": "uint256",
          "name": "amount",
          "type": "uint256"
        }
      ],
      "name": "LPWithdrawn",
      "type": "event"
    },
    {
      "anonymous": false,
      "inputs": [
        {
          "indexed": true,
          "internalType": "address",
          "name": "previousOwner",
          "type": "address"
        },
        {
          "indexed": true,
          "internalType": "address",
          "name": "newOwner",
          "type": "address"
        }
      ],
      "name": "OwnershipTransferred",
      "type": "event"
    },
    {
      "anonymous": false,
      "inputs": [
        {
          "indexed": false,
          "internalType": "address",
          "name": "account",
          "type": "address"
        }
      ],
      "name": "Paused",
      "type": "event"
    },
    {
      "anonymous": false,
      "inputs": [
        {
          "indexed": false,
          "internalType": "uint256",
          "name": "positionId",
          "type": "uint256"
        },
        {
          "indexed": false,
          "internalType": "uint256",
          "name": "tokenAmount",
          "type": "uint256"
        }
      ],
      "name": "PositionClosed",
      "type": "event"
    },
    {
      "anonymous": false,
      "inputs": [
        {
          "indexed": false,
          "internalType": "uint32",
          "name": "requestId",
          "type": "uint32"
        },
        {
          "indexed": true,
          "internalType": "address",
          "name": "user",
          "type": "address"
        }
      ],
      "name": "PositionDisputeChallenged",
      "type": "event"
    },
    {
      "anonymous": false,
      "inputs": [
        {
          "indexed": true,
          "internalType": "address",
          "name": "token",
          "type": "address"
        }
      ],
      "name": "TokenAdded",
      "type": "event"
    },
    {
      "anonymous": false,
      "inputs": [
        {
          "indexed": true,
          "internalType": "address",
          "name": "token",
          "type": "address"
        }
      ],
      "name": "TokenRemoved",
      "type": "event"
    },
    {
      "anonymous": false,
      "inputs": [
        {
          "indexed": true,
          "internalType": "address",
          "name": "prevSigner",
          "type": "address"
        },
        {
          "indexed": true,
          "internalType": "address",
          "name": "newSigner",
          "type": "address"
        }
      ],
      "name": "TrustedSignerChanged",
      "type": "event"
    },
    {
      "anonymous": false,
      "inputs": [
        {
          "indexed": false,
          "internalType": "address",
          "name": "account",
          "type": "address"
        }
      ],
      "name": "Unpaused",
      "type": "event"
    },
    {
      "anonymous": false,
      "inputs": [
        {
          "indexed": true,
          "internalType": "address",
          "name": "user",
          "type": "address"
        },
        {
          "indexed": true,
          "internalType": "address",
          "name": "token",
          "type": "address"
        },
        {
          "indexed": false,
          "internalType": "uint256",
          "name": "amount",
          "type": "uint256"
        },
        {
          "indexed": false,
          "internalType": "uint32",
          "name": "requestId",
          "type": "uint32"
        }
      ],
      "name": "WithdrawalRequested",
      "type": "event"
    },
    {
      "anonymous": false,
      "inputs": [
        {
          "indexed": true,
          "internalType": "address",
          "name": "user",
          "type": "address"
        },
        {
          "indexed": true,
          "internalType": "address",
          "name": "token",
          "type": "address"
        },
        {
          "indexed": false,
          "internalType": "uint256",
          "name": "amount",
          "type": "uint256"
        }
      ],
      "name": "Withdrawn",
      "type": "event"
    },
    {
      "inputs": [
        {
          "internalType": "uint32",
          "name": "",
          "type": "uint32"
        }
      ],
      "name": "_disputes",
      "outputs": [
        {
          "internalType": "address",
          "name": "user",
          "type": "address"
        },
        {
          "internalType": "address",
          "name": "challenger",
          "type": "address"
        },
        {
          "internalType": "uint64",
          "name": "timestamp",
          "type": "uint64"
        },
        {
          "internalType": "uint8",
          "name": "status",
          "type": "uint8"
        },
        {
          "internalType": "uint32",
          "name": "sessionId",
          "type": "uint32"
        }
      ],
      "stateMutability": "view",
      "type": "function"
    },
    {
      "inputs": [
        {
          "internalType": "address",
          "name": "token",
          "type": "address"
        }
      ],
      "name": "addToken",
      "outputs": [],
      "stateMutability": "nonpayable",
      "type": "function"
    },
    {
      "inputs": [
        {
          "internalType": "uint32",
          "name": "requestId",
          "type": "uint32"
        },
        {
          "components": [
            {
              "internalType": "bytes",
              "name": "data",
              "type": "bytes"
            },
            {
              "internalType": "bytes",
              "name": "signature",
              "type": "bytes"
            },
            {
              "internalType": "address",
              "name": "combinedPublicKey",
              "type": "address"
            }
          ],
          "internalType": "struct Crypto.SchnorrSignature",
          "name": "_schnorr",
          "type": "tuple"
        }
      ],
      "name": "challengeDispute",
      "outputs": [],
      "stateMutability": "nonpayable",
      "type": "function"
    },
    {
      "inputs": [
        {
          "internalType": "address",
          "name": "",
          "type": "address"
        }
      ],
      "name": "combinedPublicKey",
      "outputs": [
        {
          "internalType": "address",
          "name": "",
          "type": "address"
        }
      ],
      "stateMutability": "view",
      "type": "function"
    },
    {
      "inputs": [
        {
          "internalType": "address",
          "name": "token",
          "type": "address"
        },
        {
          "internalType": "uint256",
          "name": "amount",
          "type": "uint256"
        }
      ],
      "name": "deposit",
      "outputs": [],
      "stateMutability": "nonpayable",
      "type": "function"
    },
    {
      "inputs": [
        {
          "internalType": "address",
          "name": "",
          "type": "address"
        },
        {
          "internalType": "address",
          "name": "",
          "type": "address"
        }
      ],
      "name": "depositedAmount",
      "outputs": [
        {
          "internalType": "uint256",
          "name": "",
          "type": "uint256"
        }
      ],
      "stateMutability": "view",
      "type": "function"
    },
    {
      "inputs": [
        {
          "internalType": "address",
          "name": "_owner",
          "type": "address"
        },
        {
          "internalType": "address",
          "name": "trustedSigner",
          "type": "address"
        },
        {
          "internalType": "uint256",
          "name": "_signatureExpiryTime",
          "type": "uint256"
        }
      ],
      "name": "initialize",
      "outputs": [],
      "stateMutability": "nonpayable",
      "type": "function"
    },
    {
      "inputs": [
        {
          "internalType": "address",
          "name": "",
          "type": "address"
        }
      ],
      "name": "isLPProvider",
      "outputs": [
        {
          "internalType": "bool",
          "name": "",
          "type": "bool"
        }
      ],
      "stateMutability": "view",
      "type": "function"
    },
    {
      "inputs": [
        {
          "internalType": "address",
          "name": "token",
          "type": "address"
        }
      ],
      "name": "isTokenSupported",
      "outputs": [
        {
          "internalType": "bool",
          "name": "",
          "type": "bool"
        }
      ],
      "stateMutability": "view",
      "type": "function"
    },
    {
      "inputs": [
        {
          "internalType": "address",
          "name": "",
          "type": "address"
        }
      ],
      "name": "lpProvidedAmount",
      "outputs": [
        {
          "internalType": "uint256",
          "name": "",
          "type": "uint256"
        }
      ],
      "stateMutability": "view",
      "type": "function"
    },
    {
      "inputs": [],
      "name": "oracle",
      "outputs": [
        {
          "internalType": "address",
          "name": "",
          "type": "address"
        }
      ],
      "stateMutability": "view",
      "type": "function"
    },
    {
      "inputs": [],
      "name": "owner",
      "outputs": [
        {
          "internalType": "address",
          "name": "",
          "type": "address"
        }
      ],
      "stateMutability": "view",
      "type": "function"
    },
    {
      "inputs": [],
      "name": "paused",
      "outputs": [
        {
          "internalType": "bool",
          "name": "",
          "type": "bool"
        }
      ],
      "stateMutability": "view",
      "type": "function"
    },
    {
      "inputs": [
        {
          "internalType": "address",
          "name": "token",
          "type": "address"
        },
        {
          "internalType": "uint256",
          "name": "amount",
          "type": "uint256"
        }
      ],
      "name": "provideLiquidity",
      "outputs": [],
      "stateMutability": "nonpayable",
      "type": "function"
    },
    {
      "inputs": [
        {
          "internalType": "address",
          "name": "token",
          "type": "address"
        }
      ],
      "name": "removeToken",
      "outputs": [],
      "stateMutability": "nonpayable",
      "type": "function"
    },
    {
      "inputs": [],
      "name": "renounceOwnership",
      "outputs": [],
      "stateMutability": "nonpayable",
      "type": "function"
    },
    {
      "inputs": [
        {
          "internalType": "address",
          "name": "_user",
          "type": "address"
        },
        {
          "internalType": "address",
          "name": "_combinedPublicKey",
          "type": "address"
        }
      ],
      "name": "setCombinedPublicKey",
      "outputs": [],
      "stateMutability": "nonpayable",
      "type": "function"
    },
    {
      "inputs": [
        {
          "internalType": "address[]",
          "name": "lpProvider",
          "type": "address[]"
        },
        {
          "internalType": "bool[]",
          "name": "isProvider",
          "type": "bool[]"
        }
      ],
      "name": "setLPProvider",
      "outputs": [],
      "stateMutability": "nonpayable",
      "type": "function"
    },
    {
      "inputs": [
        {
          "internalType": "address",
          "name": "newOracle",
          "type": "address"
        }
      ],
      "name": "setOracle",
      "outputs": [],
      "stateMutability": "nonpayable",
      "type": "function"
    },
    {
      "inputs": [
        {
          "internalType": "uint256",
          "name": "_expiryTime",
          "type": "uint256"
        }
      ],
      "name": "setSignatureExpiryTime",
      "outputs": [],
      "stateMutability": "nonpayable",
      "type": "function"
    },
    {
      "inputs": [
        {
          "internalType": "address",
          "name": "_newSigner",
          "type": "address"
        }
      ],
      "name": "setTrustedSigner",
      "outputs": [],
      "stateMutability": "nonpayable",
      "type": "function"
    },
    {
      "inputs": [
        {
          "internalType": "uint32",
          "name": "requestId",
          "type": "uint32"
        }
      ],
      "name": "settleDispute",
      "outputs": [],
      "stateMutability": "nonpayable",
      "type": "function"
    },
    {
      "inputs": [],
      "name": "signatureExpiryTime",
      "outputs": [
        {
          "internalType": "uint256",
          "name": "",
          "type": "uint256"
        }
      ],
      "stateMutability": "view",
      "type": "function"
    },
    {
      "inputs": [
        {
          "internalType": "address",
          "name": "newOwner",
          "type": "address"
        }
      ],
      "name": "transferOwnership",
      "outputs": [],
      "stateMutability": "nonpayable",
      "type": "function"
    },
    {
      "inputs": [
        {
          "internalType": "address",
          "name": "token",
          "type": "address"
        }
      ],
      "name": "withdrawAllLiquidity",
      "outputs": [],
      "stateMutability": "nonpayable",
      "type": "function"
    },
    {
      "inputs": [
        {
          "components": [
            {
              "internalType": "bytes",
              "name": "data",
              "type": "bytes"
            },
            {
              "internalType": "bytes",
              "name": "signature",
              "type": "bytes"
            },
            {
              "internalType": "address",
              "name": "combinedPublicKey",
              "type": "address"
            }
          ],
          "internalType": "struct Crypto.SchnorrSignature",
          "name": "_schnorr",
          "type": "tuple"
        }
      ],
      "name": "withdrawAndClosePositionTrustlessly",
      "outputs": [],
      "stateMutability": "nonpayable",
      "type": "function"
    },
    {
      "inputs": [
        {
          "internalType": "address",
          "name": "_combinedPublicKey",
          "type": "address"
        },
        {
          "components": [
            {
              "internalType": "bytes",
              "name": "data",
              "type": "bytes"
            },
            {
              "internalType": "bytes",
              "name": "signature",
              "type": "bytes"
            },
            {
              "internalType": "address",
              "name": "combinedPublicKey",
              "type": "address"
            }
          ],
          "internalType": "struct Crypto.SchnorrSignature",
          "name": "_schnorr",
          "type": "tuple"
        }
      ],
      "name": "withdrawSchnorr",
      "outputs": [],
      "stateMutability": "nonpayable",
      "type": "function"
    }
  ],
  "bytecode": "0x608060405234801561001057600080fd5b506154a9806100206000396000f3fe608060405234801561001057600080fd5b50600436106101a95760003560e01c806386c93914116100f9578063d8fc2f9411610097578063e6d0efad11610071578063e6d0efad146104a4578063f0f998e9146104c0578063f2edcc96146104dc578063f2fde38b146104f8576101a9565b8063d8fc2f9414610414578063e0c32ec414610444578063e41cff6414610474576101a9565b8063a2e8d38b116100d3578063a2e8d38b1461038c578063a8207858146103a8578063ab3e857f146103c4578063d48bfca7146103f8576101a9565b806386c93914146103365780638da5cb5b146103525780638f2c081f14610370576101a9565b80635c975abb11610166578063715018a611610140578063715018a6146102c257806375151b63146102cc5780637adbf973146102fc5780637dc0d1d014610318576101a9565b80635c975abb1461026c5780635fa7b5841461028a5780635fea6120146102a6576101a9565b80631794bb3c146101ae57806327482c0f146101ca57806335e3212c146101e657806347e7ef241461021657806356a1c70114610232578063570ddaa81461024e575b600080fd5b6101c860048036038101906101c39190613a87565b610514565b005b6101e460048036038101906101df9190613b16565b6106f5565b005b61020060048036038101906101fb9190613b43565b610cee565b60405161020d9190613b7f565b60405180910390f35b610230600480360381019061022b9190613b9a565b610d06565b005b61024c60048036038101906102479190613b43565b610f64565b005b610256611098565b6040516102639190613b7f565b60405180910390f35b61027461109e565b6040516102819190613bf5565b60405180910390f35b6102a4600480360381019061029f9190613b43565b6110c3565b005b6102c060048036038101906102bb9190613b9a565b6112b3565b005b6102ca611587565b005b6102e660048036038101906102e19190613b43565b61159b565b6040516102f39190613bf5565b60405180910390f35b61031660048036038101906103119190613b43565b611643565b005b61032061168f565b60405161032d9190613c1f565b60405180910390f35b610350600480360381019061034b9190613c3a565b6116b5565b005b61035a6116c7565b6040516103679190613c1f565b60405180910390f35b61038a60048036038101906103859190613c8b565b6116ff565b005b6103a660048036038101906103a19190613da2565b611f7d565b005b6103c260048036038101906103bd9190613e23565b61208c565b005b6103de60048036038101906103d99190613b16565b61254d565b6040516103ef959493929190613ecd565b60405180910390f35b610412600480360381019061040d9190613b43565b6125f4565b005b61042e60048036038101906104299190613b43565b6126a5565b60405161043b9190613bf5565b60405180910390f35b61045e60048036038101906104599190613f20565b6126c5565b60405161046b9190613b7f565b60405180910390f35b61048e60048036038101906104899190613b43565b6126ea565b60405161049b9190613c1f565b60405180910390f35b6104be60048036038101906104b99190613f60565b61271d565b005b6104da60048036038101906104d59190613b43565b612f4c565b005b6104f660048036038101906104f19190613f20565b613208565b005b610512600480360381019061050d9190613b43565b613292565b005b600061051e613318565b905060008160000160089054906101000a900460ff1615905060008260000160009054906101000a900467ffffffffffffffff1690506000808267ffffffffffffffff1614801561056c5750825b9050600060018367ffffffffffffffff161480156105a1575060003073ffffffffffffffffffffffffffffffffffffffff163b145b9050811580156105af575080155b156105e6576040517ff92ee8a900000000000000000000000000000000000000000000000000000000815260040160405180910390fd5b60018560000160006101000a81548167ffffffffffffffff021916908367ffffffffffffffff16021790555083156106365760018560000160086101000a81548160ff0219169083151502179055505b61063f88613340565b610647613354565b86600760006101000a81548173ffffffffffffffffffffffffffffffffffffffff021916908373ffffffffffffffffffffffffffffffffffffffff1602179055508560008190555083156106eb5760008560000160086101000a81548160ff0219169083151502179055507fc7f505b2f371ae2175ee4913f4499e1f2633a7b5936321eed1cdaeb6115181d260016040516106e29190613fee565b60405180910390a15b5050505050505050565b6106fd613366565b6107056133bd565b6000600260008363ffffffff1663ffffffff16815260200190815260200160002090506107088160010160149054906101000a900467ffffffffffffffff1661074e9190614038565b67ffffffffffffffff164211610799576040517f08c379a0000000000000000000000000000000000000000000000000000000008152600401610790906140d1565b60405180910390fd5b60008160020180549050905060005b81811015610c635760008360020182815481106107c8576107c76140f1565b5b906000526020600020906002020160000160009054906101000a900473ffffffffffffffffffffffffffffffffffffffff1690506000846002018381548110610814576108136140f1565b5b90600052602060002090600202016001015490506000600a60008760000160009054906101000a900473ffffffffffffffffffffffffffffffffffffffff1673ffffffffffffffffffffffffffffffffffffffff1673ffffffffffffffffffffffffffffffffffffffff1681526020019081526020016000206000876002016000815481106108a6576108a56140f1565b5b906000526020600020906002020160000160009054906101000a900473ffffffffffffffffffffffffffffffffffffffff1673ffffffffffffffffffffffffffffffffffffffff1673ffffffffffffffffffffffffffffffffffffffff168152602001908152602001600020548261091e9190614120565b90506000600a60008860000160009054906101000a900473ffffffffffffffffffffffffffffffffffffffff1673ffffffffffffffffffffffffffffffffffffffff1673ffffffffffffffffffffffffffffffffffffffff16815260200190815260200160002060008860020160008154811061099e5761099d6140f1565b5b906000526020600020906002020160000160009054906101000a900473ffffffffffffffffffffffffffffffffffffffff1673ffffffffffffffffffffffffffffffffffffffff1673ffffffffffffffffffffffffffffffffffffffff168152602001908152602001600020819055506000811115610af45780600c60008573ffffffffffffffffffffffffffffffffffffffff1673ffffffffffffffffffffffffffffffffffffffff168152602001908152602001600020541015610a99576040517f08c379a0000000000000000000000000000000000000000000000000000000008152600401610a90906141a0565b60405180910390fd5b80600c60008573ffffffffffffffffffffffffffffffffffffffff1673ffffffffffffffffffffffffffffffffffffffff1681526020019081526020016000206000828254610ae89190614120565b92505081905550610b4b565b80600c60008573ffffffffffffffffffffffffffffffffffffffff1673ffffffffffffffffffffffffffffffffffffffff1681526020019081526020016000206000828254610b4391906141c0565b925050819055505b8273ffffffffffffffffffffffffffffffffffffffff1663a9059cbb8760000160009054906101000a900473ffffffffffffffffffffffffffffffffffffffff16846040518363ffffffff1660e01b8152600401610baa9291906141f4565b6020604051808303816000875af1158015610bc9573d6000803e3d6000fd5b505050506040513d601f19601f82011682018060405250810190610bed9190614249565b508273ffffffffffffffffffffffffffffffffffffffff163373ffffffffffffffffffffffffffffffffffffffff167fd1c19fbcd4551a5edfb66d43d2e337c04837afda3482b42bdf569a8fccdae5fb84604051610c4b9190613b7f565b60405180910390a350505080806001019150506107a8565b50600380811115610c7757610c76614276565b5b8260040160006101000a81548160ff021916908360ff1602179055503373ffffffffffffffffffffffffffffffffffffffff167f8b703fbb69bafcfe17cc041cf70cf1f199e44c5e5f70dca4aa3d01ce927996cc84604051610cd991906142a5565b60405180910390a25050610ceb6133fe565b50565b600c6020528060005260406000206000915090505481565b610d0e613366565b610d166133bd565b60008111610d59576040517f08c379a0000000000000000000000000000000000000000000000000000000008152600401610d509061430c565b60405180910390fd5b610d628261159b565b610da1576040517f08c379a0000000000000000000000000000000000000000000000000000000008152600401610d9890614378565b60405180910390fd5b8173ffffffffffffffffffffffffffffffffffffffff166323b872dd3330846040518463ffffffff1660e01b8152600401610dde93929190614398565b6020604051808303816000875af1158015610dfd573d6000803e3d6000fd5b505050506040513d601f19601f82011682018060405250810190610e219190614249565b610e60576040517f08c379a0000000000000000000000000000000000000000000000000000000008152600401610e579061441b565b60405180910390fd5b80600a60003373ffffffffffffffffffffffffffffffffffffffff1673ffffffffffffffffffffffffffffffffffffffff16815260200190815260200160002060008473ffffffffffffffffffffffffffffffffffffffff1673ffffffffffffffffffffffffffffffffffffffff1681526020019081526020016000206000828254610eec91906141c0565b925050819055508173ffffffffffffffffffffffffffffffffffffffff163373ffffffffffffffffffffffffffffffffffffffff167f8752a472e571a816aea92eec8dae9baf628e840f4929fbcc2d155e6233ff68a783604051610f509190613b7f565b60405180910390a3610f606133fe565b5050565b610f6c613417565b600073ffffffffffffffffffffffffffffffffffffffff168173ffffffffffffffffffffffffffffffffffffffff1603610fd2576040517fe6c4247b00000000000000000000000000000000000000000000000000000000815260040160405180910390fd5b6000600760009054906101000a900473ffffffffffffffffffffffffffffffffffffffff16905081600760006101000a81548173ffffffffffffffffffffffffffffffffffffffff021916908373ffffffffffffffffffffffffffffffffffffffff1602179055508173ffffffffffffffffffffffffffffffffffffffff168173ffffffffffffffffffffffffffffffffffffffff167f1435a556af9f480892a082aa22061c8ded519fb343c731930b23c1c50ff68b1460405160405180910390a35050565b60005481565b6000806110a961349e565b90508060000160009054906101000a900460ff1691505090565b6110cb613417565b60005b6008805490508110156112ae578173ffffffffffffffffffffffffffffffffffffffff1660088281548110611106576111056140f1565b5b9060005260206000200160009054906101000a900473ffffffffffffffffffffffffffffffffffffffff1673ffffffffffffffffffffffffffffffffffffffff16036112a157600160088054905061115e9190614120565b811461121157600860016008805490506111789190614120565b81548110611189576111886140f1565b5b9060005260206000200160009054906101000a900473ffffffffffffffffffffffffffffffffffffffff16600882815481106111c8576111c76140f1565b5b9060005260206000200160006101000a81548173ffffffffffffffffffffffffffffffffffffffff021916908373ffffffffffffffffffffffffffffffffffffffff1602179055505b60088054806112235761122261443b565b5b6001900381819060005260206000200160006101000a81549073ffffffffffffffffffffffffffffffffffffffff021916905590558173ffffffffffffffffffffffffffffffffffffffff167f4c910b69fe65a61f7531b9c5042b2329ca7179c77290aa7e2eb3afa3c8511fd360405160405180910390a2506112b0565b80806001019150506110ce565b505b50565b600b60003373ffffffffffffffffffffffffffffffffffffffff1673ffffffffffffffffffffffffffffffffffffffff16815260200190815260200160002060009054906101000a900460ff1661133f576040517f08c379a0000000000000000000000000000000000000000000000000000000008152600401611336906144b6565b60405180910390fd5b60008111611382576040517f08c379a00000000000000000000000000000000000000000000000000000000081526004016113799061430c565b60405180910390fd5b61138b8261159b565b6113ca576040517f08c379a00000000000000000000000000000000000000000000000000000000081526004016113c190614378565b60405180910390fd5b8173ffffffffffffffffffffffffffffffffffffffff166323b872dd3330846040518463ffffffff1660e01b815260040161140793929190614398565b6020604051808303816000875af1158015611426573d6000803e3d6000fd5b505050506040513d601f19601f8201168201806040525081019061144a9190614249565b611489576040517f08c379a00000000000000000000000000000000000000000000000000000000081526004016114809061441b565b60405180910390fd5b80600c60008473ffffffffffffffffffffffffffffffffffffffff1673ffffffffffffffffffffffffffffffffffffffff16815260200190815260200160002060008282546114d891906141c0565b925050819055508173ffffffffffffffffffffffffffffffffffffffff163373ffffffffffffffffffffffffffffffffffffffff167f475ce1a1fde21a55ef3ff23bc7394d2bb1403cbbbcc86e762514d5dbce3b835c600c60008673ffffffffffffffffffffffffffffffffffffffff1673ffffffffffffffffffffffffffffffffffffffff1681526020019081526020016000205460405161157b9190613b7f565b60405180910390a35050565b61158f613417565b61159960006134c6565b565b600080600090505b600880549050811015611638578273ffffffffffffffffffffffffffffffffffffffff16600882815481106115db576115da6140f1565b5b9060005260206000200160009054906101000a900473ffffffffffffffffffffffffffffffffffffffff1673ffffffffffffffffffffffffffffffffffffffff160361162b57600191505061163e565b80806001019150506115a3565b50600090505b919050565b61164b613417565b80600960006101000a81548173ffffffffffffffffffffffffffffffffffffffff021916908373ffffffffffffffffffffffffffffffffffffffff16021790555050565b600960009054906101000a900473ffffffffffffffffffffffffffffffffffffffff1681565b6116bd613417565b8060008190555050565b6000806116d261359d565b90508060000160009054906101000a900473ffffffffffffffffffffffffffffffffffffffff1691505090565b611707613366565b61170f6133bd565b6000600260008463ffffffff1663ffffffff1681526020019081526020016000209050600073__$50e9592bd68e5211c3a496048a4809ad3a$__636eccd9c084806000019061175e91906144e5565b6040518363ffffffff1660e01b815260040161177b9291906145a6565b600060405180830381865af4158015611798573d6000803e3d6000fd5b505050506040513d6000823e3d601f19601f820116820180604052508101906117c19190614c59565b9050600160038111156117d7576117d6614276565b5b60ff168260040160009054906101000a900460ff1660ff161461182f576040517f08c379a000000000000000000000000000000000000000000000000000000000815260040161182690614cee565b60405180910390fd5b6107088260010160149054906101000a900467ffffffffffffffff166118559190614038565b67ffffffffffffffff1642106118a0576040517f08c379a0000000000000000000000000000000000000000000000000000000008152600401611897906140d1565b60405180910390fd5b73__$50e9592bd68e5211c3a496048a4809ad3a$__63bc018c408460066000856020015173ffffffffffffffffffffffffffffffffffffffff1673ffffffffffffffffffffffffffffffffffffffff16815260200190815260200160002060009054906101000a900473ffffffffffffffffffffffffffffffffffffffff166040518363ffffffff1660e01b815260040161193c929190614e66565b602060405180830381865af4158015611959573d6000803e3d6000fd5b505050506040513d601f19601f8201168201806040525081019061197d9190614249565b6119b3576040517ff08f7bd800000000000000000000000000000000000000000000000000000000815260040160405180910390fd5b600081600001519050816000015163ffffffff16600560008763ffffffff1663ffffffff16815260200190815260200160002060009054906101000a900463ffffffff1663ffffffff161015611f3c5780600560008763ffffffff1663ffffffff16815260200190815260200160002060006101000a81548163ffffffff021916908363ffffffff160217905550338360010160006101000a81548173ffffffffffffffffffffffffffffffffffffffff021916908373ffffffffffffffffffffffffffffffffffffffff160217905550826002016000611a9491906137f8565b826003016000611aa4919061381c565b600082604001515190506000836060015151905060005b82811015611b6f578560020185604001518281518110611ade57611add6140f1565b5b6020026020010151908060018154018082558091505060019003906000526020600020906002020160009091909190915060008201518160000160006101000a81548173ffffffffffffffffffffffffffffffffffffffff021916908373ffffffffffffffffffffffffffffffffffffffff1602179055506020820151816001015550508080600101915050611abb565b5060005b81811015611ee2576000600260008a63ffffffff1663ffffffff168152602001908152602001600020600301600181600181540180825580915050039060005260206000209060070201905085606001518281518110611bd657611bd56140f1565b5b602002602001015160000151816000019081611bf291906150a3565b5085606001518281518110611c0a57611c096140f1565b5b6020026020010151602001518160010160006101000a81548173ffffffffffffffffffffffffffffffffffffffff021916908373ffffffffffffffffffffffffffffffffffffffff16021790555085606001518281518110611c6f57611c6e6140f1565b5b602002602001015160400151816002018190555085606001518281518110611c9a57611c996140f1565b5b6020026020010151606001518160030160006101000a81548160ff02191690831515021790555085606001518281518110611cd857611cd76140f1565b5b602002602001015160a00151816005018190555085606001518281518110611d0357611d026140f1565b5b602002602001015160c001518160060181905550600086606001518381518110611d3057611d2f6140f1565b5b60200260200101516080015151905060005b81811015611ed2578260040160405180606001604052808a606001518781518110611d7057611d6f6140f1565b5b6020026020010151608001518481518110611d8e57611d8d6140f1565b5b60200260200101516000015173ffffffffffffffffffffffffffffffffffffffff1681526020018a606001518781518110611dcc57611dcb6140f1565b5b6020026020010151608001518481518110611dea57611de96140f1565b5b60200260200101516020015181526020018a606001518781518110611e1257611e116140f1565b5b6020026020010151608001518481518110611e3057611e2f6140f1565b5b602002602001015160400151815250908060018154018082558091505060019003906000526020600020906003020160009091909190915060008201518160000160006101000a81548173ffffffffffffffffffffffffffffffffffffffff021916908373ffffffffffffffffffffffffffffffffffffffff160217905550602082015181600101556040820151816002015550508080600101915050611d42565b5050508080600101915050611b73565b50836020015173ffffffffffffffffffffffffffffffffffffffff167f41333d535ecc89f2d33b1d5f30416f34ba3c7d0bbf7aaea28a3b7c330969379b88604051611f2d91906142a5565b60405180910390a25050611f6e565b6040517f785736c800000000000000000000000000000000000000000000000000000000815260040160405180910390fd5b505050611f796133fe565b5050565b818190508484905014611fc5576040517f08c379a0000000000000000000000000000000000000000000000000000000008152600401611fbc906151c1565b60405180910390fd5b60005b8484905081101561208557828282818110611fe657611fe56140f1565b5b9050602002016020810190611ffb91906151f6565b600b6000878785818110612012576120116140f1565b5b90506020020160208101906120279190613b43565b73ffffffffffffffffffffffffffffffffffffffff1673ffffffffffffffffffffffffffffffffffffffff16815260200190815260200160002060006101000a81548160ff0219169083151502179055508080600101915050611fc8565b5050505050565b612094613366565b61209c6133bd565b73__$50e9592bd68e5211c3a496048a4809ad3a$__63bc018c4082600660003373ffffffffffffffffffffffffffffffffffffffff1673ffffffffffffffffffffffffffffffffffffffff16815260200190815260200160002060009054906101000a900473ffffffffffffffffffffffffffffffffffffffff166040518363ffffffff1660e01b8152600401612134929190614e66565b602060405180830381865af4158015612151573d6000803e3d6000fd5b505050506040513d601f19601f820116820180604052508101906121759190614249565b6121ab576040517ff08f7bd800000000000000000000000000000000000000000000000000000000815260040160405180910390fd5b600073__$50e9592bd68e5211c3a496048a4809ad3a$__636f7ac1e28380600001906121d791906144e5565b6040518363ffffffff1660e01b81526004016121f49291906145a6565b608060405180830381865af4158015612211573d6000803e3d6000fd5b505050506040513d601f19601f8201168201806040525081019061223591906152c7565b9050600081604001511161227e576040517f08c379a000000000000000000000000000000000000000000000000000000000815260040161227590615366565b60405180910390fd5b61228b816020015161159b565b6122ca576040517f08c379a00000000000000000000000000000000000000000000000000000000081526004016122c190614378565b60405180910390fd5b600054816060015167ffffffffffffffff16426122e79190614120565b10612327576040517f08c379a000000000000000000000000000000000000000000000000000000000815260040161231e906153d2565b60405180910390fd5b3373ffffffffffffffffffffffffffffffffffffffff16816000015173ffffffffffffffffffffffffffffffffffffffff1614612390576040517ff08f7bd800000000000000000000000000000000000000000000000000000000815260040160405180910390fd5b82600660003373ffffffffffffffffffffffffffffffffffffffff1673ffffffffffffffffffffffffffffffffffffffff16815260200190815260200160002060006101000a81548173ffffffffffffffffffffffffffffffffffffffff021916908373ffffffffffffffffffffffffffffffffffffffff160217905550806020015173ffffffffffffffffffffffffffffffffffffffff1663a9059cbb3383604001516040518363ffffffff1660e01b81526004016124519291906141f4565b6020604051808303816000875af1158015612470573d6000803e3d6000fd5b505050506040513d601f19601f820116820180604052508101906124949190614249565b6124d3576040517f08c379a00000000000000000000000000000000000000000000000000000000081526004016124ca9061441b565b60405180910390fd5b806020015173ffffffffffffffffffffffffffffffffffffffff163373ffffffffffffffffffffffffffffffffffffffff167fd1c19fbcd4551a5edfb66d43d2e337c04837afda3482b42bdf569a8fccdae5fb83604001516040516125389190613b7f565b60405180910390a3506125496133fe565b5050565b60026020528060005260406000206000915090508060000160009054906101000a900473ffffffffffffffffffffffffffffffffffffffff16908060010160009054906101000a900473ffffffffffffffffffffffffffffffffffffffff16908060010160149054906101000a900467ffffffffffffffff16908060040160009054906101000a900460ff16908060040160019054906101000a900463ffffffff16905085565b6125fc613417565b6008819080600181540180825580915050600190039060005260206000200160009091909190916101000a81548173ffffffffffffffffffffffffffffffffffffffff021916908373ffffffffffffffffffffffffffffffffffffffff1602179055508073ffffffffffffffffffffffffffffffffffffffff167f784c8f4dbf0ffedd6e72c76501c545a70f8b203b30a26ce542bf92ba87c248a460405160405180910390a250565b600b6020528060005260406000206000915054906101000a900460ff1681565b600a602052816000526040600020602052806000526040600020600091509150505481565b60066020528060005260406000206000915054906101000a900473ffffffffffffffffffffffffffffffffffffffff1681565b612725613366565b61272d6133bd565b73__$50e9592bd68e5211c3a496048a4809ad3a$__63bc018c4082600660003373ffffffffffffffffffffffffffffffffffffffff1673ffffffffffffffffffffffffffffffffffffffff16815260200190815260200160002060009054906101000a900473ffffffffffffffffffffffffffffffffffffffff166040518363ffffffff1660e01b81526004016127c5929190614e66565b602060405180830381865af41580156127e2573d6000803e3d6000fd5b505050506040513d601f19601f820116820180604052508101906128069190614249565b61283c576040517ff08f7bd800000000000000000000000000000000000000000000000000000000815260040160405180910390fd5b600073__$50e9592bd68e5211c3a496048a4809ad3a$__636eccd9c083806000019061286891906144e5565b6040518363ffffffff1660e01b81526004016128859291906145a6565b600060405180830381865af41580156128a2573d6000803e3d6000fd5b505050506040513d6000823e3d601f19601f820116820180604052508101906128cb9190614c59565b90503373ffffffffffffffffffffffffffffffffffffffff16816020015173ffffffffffffffffffffffffffffffffffffffff1614612936576040517ff08f7bd800000000000000000000000000000000000000000000000000000000815260040160405180910390fd5b600482806020019061294891906144e5565b604051612956929190615422565b908152602001604051809103902060009054906101000a900460ff16156129a9576040517ff08f7bd800000000000000000000000000000000000000000000000000000000815260040160405180910390fd5b60018060009054906101000a900463ffffffff166129c7919061543b565b600160006101000a81548163ffffffff021916908363ffffffff1602179055506000600160009054906101000a900463ffffffff16905042600260008363ffffffff1663ffffffff16815260200190815260200160002060010160146101000a81548167ffffffffffffffff021916908367ffffffffffffffff160217905550600082604001515190506000836060015151905060005b81811015612dcd576000600260008663ffffffff1663ffffffff168152602001908152602001600020600301600181600181540180825580915050039060005260206000209060070201905085606001518281518110612ac157612ac06140f1565b5b602002602001015160000151816000019081612add91906150a3565b5085606001518281518110612af557612af46140f1565b5b6020026020010151602001518160010160006101000a81548173ffffffffffffffffffffffffffffffffffffffff021916908373ffffffffffffffffffffffffffffffffffffffff16021790555085606001518281518110612b5a57612b596140f1565b5b602002602001015160400151816002018190555085606001518281518110612b8557612b846140f1565b5b6020026020010151606001518160030160006101000a81548160ff02191690831515021790555085606001518281518110612bc357612bc26140f1565b5b602002602001015160a00151816005018190555085606001518281518110612bee57612bed6140f1565b5b602002602001015160c001518160060181905550600086606001518381518110612c1b57612c1a6140f1565b5b60200260200101516080015151905060005b81811015612dbd578260040160405180606001604052808a606001518781518110612c5b57612c5a6140f1565b5b6020026020010151608001518481518110612c7957612c786140f1565b5b60200260200101516000015173ffffffffffffffffffffffffffffffffffffffff1681526020018a606001518781518110612cb757612cb66140f1565b5b6020026020010151608001518481518110612cd557612cd46140f1565b5b60200260200101516020015181526020018a606001518781518110612cfd57612cfc6140f1565b5b6020026020010151608001518481518110612d1b57612d1a6140f1565b5b602002602001015160400151815250908060018154018082558091505060019003906000526020600020906003020160009091909190915060008201518160000160006101000a81548173ffffffffffffffffffffffffffffffffffffffff021916908373ffffffffffffffffffffffffffffffffffffffff160217905550602082015181600101556040820151816002015550508080600101915050612c2d565b5050508080600101915050612a5e565b5060005b82811015612ea357600260008563ffffffff1663ffffffff16815260200190815260200160002060020185604001518281518110612e1257612e116140f1565b5b6020026020010151908060018154018082558091505060019003906000526020600020906002020160009091909190915060008201518160000160006101000a81548173ffffffffffffffffffffffffffffffffffffffff021916908373ffffffffffffffffffffffffffffffffffffffff1602179055506020820151816001015550508080600101915050612dd1565b5060008460000151905080600560008663ffffffff1663ffffffff16815260200190815260200160002060006101000a81548163ffffffff021916908363ffffffff16021790555060016004878060200190612eff91906144e5565b604051612f0d929190615422565b908152602001604051809103902060006101000a81548160ff021916908315150217905550612f3c84336135c5565b5050505050612f496133fe565b50565b600b60003373ffffffffffffffffffffffffffffffffffffffff1673ffffffffffffffffffffffffffffffffffffffff16815260200190815260200160002060009054906101000a900460ff16612fd8576040517f08c379a0000000000000000000000000000000000000000000000000000000008152600401612fcf906144b6565b60405180910390fd5b612fe18161159b565b613020576040517f08c379a000000000000000000000000000000000000000000000000000000000815260040161301790614378565b60405180910390fd5b8073ffffffffffffffffffffffffffffffffffffffff1663a9059cbb33600c60008573ffffffffffffffffffffffffffffffffffffffff1673ffffffffffffffffffffffffffffffffffffffff168152602001908152602001600020546040518363ffffffff1660e01b815260040161309a9291906141f4565b6020604051808303816000875af11580156130b9573d6000803e3d6000fd5b505050506040513d601f19601f820116820180604052508101906130dd9190614249565b61311c576040517f08c379a00000000000000000000000000000000000000000000000000000000081526004016131139061441b565b60405180910390fd5b6000600c60008373ffffffffffffffffffffffffffffffffffffffff1673ffffffffffffffffffffffffffffffffffffffff168152602001908152602001600020819055508073ffffffffffffffffffffffffffffffffffffffff163373ffffffffffffffffffffffffffffffffffffffff167f87643e0436c867defcc7b4812259dde63cbe46038012cde1457289586e63acca600c60008573ffffffffffffffffffffffffffffffffffffffff1673ffffffffffffffffffffffffffffffffffffffff168152602001908152602001600020546040516131fd9190613b7f565b60405180910390a350565b613210613417565b80600660008473ffffffffffffffffffffffffffffffffffffffff1673ffffffffffffffffffffffffffffffffffffffff16815260200190815260200160002060006101000a81548173ffffffffffffffffffffffffffffffffffffffff021916908373ffffffffffffffffffffffffffffffffffffffff1602179055505050565b61329a613417565b600073ffffffffffffffffffffffffffffffffffffffff168173ffffffffffffffffffffffffffffffffffffffff160361330c5760006040517f1e4fbdf70000000000000000000000000000000000000000000000000000000081526004016133039190613c1f565b60405180910390fd5b613315816134c6565b50565b60007ff0c57e16840df040f15088dc2f81fe391c3923bec73e23a9662efc9c229c6a00905090565b6133486136ae565b613351816136ee565b50565b61335c6136ae565b613364613774565b565b60006133706137a8565b905060028160000154036133b0576040517f3ee5aeb500000000000000000000000000000000000000000000000000000000815260040160405180910390fd5b6002816000018190555050565b6133c561109e565b156133fc576040517fd93c066500000000000000000000000000000000000000000000000000000000815260040160405180910390fd5b565b60006134086137a8565b90506001816000018190555050565b61341f6137d0565b73ffffffffffffffffffffffffffffffffffffffff1661343d6116c7565b73ffffffffffffffffffffffffffffffffffffffff161461349c576134606137d0565b6040517f118cdaa70000000000000000000000000000000000000000000000000000000081526004016134939190613c1f565b60405180910390fd5b565b60007fcd5ed15c6e187e77e9aee88184c21f4f2182ab5827cb3b7e07fbedcd63f03300905090565b60006134d061359d565b905060008160000160009054906101000a900473ffffffffffffffffffffffffffffffffffffffff169050828260000160006101000a81548173ffffffffffffffffffffffffffffffffffffffff021916908373ffffffffffffffffffffffffffffffffffffffff1602179055508273ffffffffffffffffffffffffffffffffffffffff168173ffffffffffffffffffffffffffffffffffffffff167f8be0079c531659141344cd1fd0a4f28419497f9722a3daafe3b4186f6b6457e060405160405180910390a3505050565b60007f9016d09d72d40fdae2fd8ceac6b6234c7706214fd39c1cd1e609a0528c199300905090565b6000600260008463ffffffff1663ffffffff1681526020019081526020016000209050600160038111156135fc576135fb614276565b5b8160040160006101000a81548160ff021916908360ff160217905550818160000160006101000a81548173ffffffffffffffffffffffffffffffffffffffff021916908373ffffffffffffffffffffffffffffffffffffffff1602179055508173ffffffffffffffffffffffffffffffffffffffff167f2fdd05cb84b2efdbfb66efce92f66f26e7323b06b91ed693c764e01573436af9846040516136a191906142a5565b60405180910390a2505050565b6136b66137d8565b6136ec576040517fd7e6bcf800000000000000000000000000000000000000000000000000000000815260040160405180910390fd5b565b6136f66136ae565b600073ffffffffffffffffffffffffffffffffffffffff168173ffffffffffffffffffffffffffffffffffffffff16036137685760006040517f1e4fbdf700000000000000000000000000000000000000000000000000000000815260040161375f9190613c1f565b60405180910390fd5b613771816134c6565b50565b61377c6136ae565b600061378661349e565b905060008160000160006101000a81548160ff02191690831515021790555050565b60007f9b779b17422d0df92223018b32b4d1fa46e071723d6817e2486d003becc55f00905090565b600033905090565b60006137e2613318565b60000160089054906101000a900460ff16905090565b50805460008255600202906000526020600020908101906138199190613840565b50565b508054600082556007029060005260206000209081019061383d9190613886565b50565b5b8082111561388257600080820160006101000a81549073ffffffffffffffffffffffffffffffffffffffff0219169055600182016000905550600201613841565b5090565b5b8082111561390c57600080820160006138a09190613910565b6001820160006101000a81549073ffffffffffffffffffffffffffffffffffffffff021916905560028201600090556003820160006101000a81549060ff02191690556004820160006138f39190613950565b6005820160009055600682016000905550600701613887565b5090565b50805461391c90614ed0565b6000825580601f1061392e575061394d565b601f01602090049060005260206000209081019061394c9190613974565b5b50565b50805460008255600302906000526020600020908101906139719190613991565b50565b5b8082111561398d576000816000905550600101613975565b5090565b5b808211156139db57600080820160006101000a81549073ffffffffffffffffffffffffffffffffffffffff02191690556001820160009055600282016000905550600301613992565b5090565b6000604051905090565b600080fd5b600080fd5b600073ffffffffffffffffffffffffffffffffffffffff82169050919050565b6000613a1e826139f3565b9050919050565b613a2e81613a13565b8114613a3957600080fd5b50565b600081359050613a4b81613a25565b92915050565b6000819050919050565b613a6481613a51565b8114613a6f57600080fd5b50565b600081359050613a8181613a5b565b92915050565b600080600060608486031215613aa057613a9f6139e9565b5b6000613aae86828701613a3c565b9350506020613abf86828701613a3c565b9250506040613ad086828701613a72565b9150509250925092565b600063ffffffff82169050919050565b613af381613ada565b8114613afe57600080fd5b50565b600081359050613b1081613aea565b92915050565b600060208284031215613b2c57613b2b6139e9565b5b6000613b3a84828501613b01565b91505092915050565b600060208284031215613b5957613b586139e9565b5b6000613b6784828501613a3c565b91505092915050565b613b7981613a51565b82525050565b6000602082019050613b946000830184613b70565b92915050565b60008060408385031215613bb157613bb06139e9565b5b6000613bbf85828601613a3c565b9250506020613bd085828601613a72565b9150509250929050565b60008115159050919050565b613bef81613bda565b82525050565b6000602082019050613c0a6000830184613be6565b92915050565b613c1981613a13565b82525050565b6000602082019050613c346000830184613c10565b92915050565b600060208284031215613c5057613c4f6139e9565b5b6000613c5e84828501613a72565b91505092915050565b600080fd5b600060608284031215613c8257613c81613c67565b5b81905092915050565b60008060408385031215613ca257613ca16139e9565b5b6000613cb085828601613b01565b925050602083013567ffffffffffffffff811115613cd157613cd06139ee565b5b613cdd85828601613c6c565b9150509250929050565b600080fd5b600080fd5b600080fd5b60008083601f840112613d0c57613d0b613ce7565b5b8235905067ffffffffffffffff811115613d2957613d28613cec565b5b602083019150836020820283011115613d4557613d44613cf1565b5b9250929050565b60008083601f840112613d6257613d61613ce7565b5b8235905067ffffffffffffffff811115613d7f57613d7e613cec565b5b602083019150836020820283011115613d9b57613d9a613cf1565b5b9250929050565b60008060008060408587031215613dbc57613dbb6139e9565b5b600085013567ffffffffffffffff811115613dda57613dd96139ee565b5b613de687828801613cf6565b9450945050602085013567ffffffffffffffff811115613e0957613e086139ee565b5b613e1587828801613d4c565b925092505092959194509250565b60008060408385031215613e3a57613e396139e9565b5b6000613e4885828601613a3c565b925050602083013567ffffffffffffffff811115613e6957613e686139ee565b5b613e7585828601613c6c565b9150509250929050565b600067ffffffffffffffff82169050919050565b613e9c81613e7f565b82525050565b600060ff82169050919050565b613eb881613ea2565b82525050565b613ec781613ada565b82525050565b600060a082019050613ee26000830188613c10565b613eef6020830187613c10565b613efc6040830186613e93565b613f096060830185613eaf565b613f166080830184613ebe565b9695505050505050565b60008060408385031215613f3757613f366139e9565b5b6000613f4585828601613a3c565b9250506020613f5685828601613a3c565b9150509250929050565b600060208284031215613f7657613f756139e9565b5b600082013567ffffffffffffffff811115613f9457613f936139ee565b5b613fa084828501613c6c565b91505092915050565b6000819050919050565b6000819050919050565b6000613fd8613fd3613fce84613fa9565b613fb3565b613e7f565b9050919050565b613fe881613fbd565b82525050565b60006020820190506140036000830184613fdf565b92915050565b7f4e487b7100000000000000000000000000000000000000000000000000000000600052601160045260246000fd5b600061404382613e7f565b915061404e83613e7f565b9250828201905067ffffffffffffffff81111561406e5761406d614009565b5b92915050565b600082825260208201905092915050565b7f446973707574652077696e646f7720636c6f7365640000000000000000000000600082015250565b60006140bb601583614074565b91506140c682614085565b602082019050919050565b600060208201905081810360008301526140ea816140ae565b9050919050565b7f4e487b7100000000000000000000000000000000000000000000000000000000600052603260045260246000fd5b600061412b82613a51565b915061413683613a51565b925082820390508181111561414e5761414d614009565b5b92915050565b7f496e73756666696369656e74206c697175696469747900000000000000000000600082015250565b600061418a601683614074565b915061419582614154565b602082019050919050565b600060208201905081810360008301526141b98161417d565b9050919050565b60006141cb82613a51565b91506141d683613a51565b92508282019050808211156141ee576141ed614009565b5b92915050565b60006040820190506142096000830185613c10565b6142166020830184613b70565b9392505050565b61422681613bda565b811461423157600080fd5b50565b6000815190506142438161421d565b92915050565b60006020828403121561425f5761425e6139e9565b5b600061426d84828501614234565b91505092915050565b7f4e487b7100000000000000000000000000000000000000000000000000000000600052602160045260246000fd5b60006020820190506142ba6000830184613ebe565b92915050565b7f416d6f756e74206d7573742062652067726561746572207468616e207a65726f600082015250565b60006142f6602083614074565b9150614301826142c0565b602082019050919050565b60006020820190508181036000830152614325816142e9565b9050919050565b7f546f6b656e206e6f7420737570706f7274656400000000000000000000000000600082015250565b6000614362601383614074565b915061436d8261432c565b602082019050919050565b6000602082019050818103600083015261439181614355565b9050919050565b60006060820190506143ad6000830186613c10565b6143ba6020830185613c10565b6143c76040830184613b70565b949350505050565b7f5472616e73666572206661696c65640000000000000000000000000000000000600082015250565b6000614405600f83614074565b9150614410826143cf565b602082019050919050565b60006020820190508181036000830152614434816143f8565b9050919050565b7f4e487b7100000000000000000000000000000000000000000000000000000000600052603160045260246000fd5b7f4e6f74204c502070726f76696465720000000000000000000000000000000000600082015250565b60006144a0600f83614074565b91506144ab8261446a565b602082019050919050565b600060208201905081810360008301526144cf81614493565b9050919050565b600080fd5b600080fd5b600080fd5b60008083356001602003843603038112614502576145016144d6565b5b80840192508235915067ffffffffffffffff821115614524576145236144db565b5b6020830192506001820236038313156145405761453f6144e0565b5b509250929050565b600082825260208201905092915050565b82818337600083830152505050565b6000601f19601f8301169050919050565b60006145858385614548565b9350614592838584614559565b61459b83614568565b840190509392505050565b600060208201905081810360008301526145c1818486614579565b90509392505050565b600080fd5b7f4e487b7100000000000000000000000000000000000000000000000000000000600052604160045260246000fd5b61460782614568565b810181811067ffffffffffffffff82111715614626576146256145cf565b5b80604052505050565b60006146396139df565b905061464582826145fe565b919050565b600080fd5b60008151905061465e81613aea565b92915050565b60008151905061467381613a25565b92915050565b600067ffffffffffffffff821115614694576146936145cf565b5b602082029050602081019050919050565b6000815190506146b481613a5b565b92915050565b6000604082840312156146d0576146cf6145ca565b5b6146da604061462f565b905060006146ea84828501614664565b60008301525060206146fe848285016146a5565b60208301525092915050565b600061471d61471884614679565b61462f565b905080838252602082019050604084028301858111156147405761473f613cf1565b5b835b81811015614769578061475588826146ba565b845260208401935050604081019050614742565b5050509392505050565b600082601f83011261478857614787613ce7565b5b815161479884826020860161470a565b91505092915050565b600067ffffffffffffffff8211156147bc576147bb6145cf565b5b602082029050602081019050919050565b600080fd5b600067ffffffffffffffff8211156147ed576147ec6145cf565b5b6147f682614568565b9050602081019050919050565b60005b83811015614821578082015181840152602081019050614806565b60008484015250505050565b600061484061483b846147d2565b61462f565b90508281526020810184848401111561485c5761485b6147cd565b5b614867848285614803565b509392505050565b600082601f83011261488457614883613ce7565b5b815161489484826020860161482d565b91505092915050565b600067ffffffffffffffff8211156148b8576148b76145cf565b5b602082029050602081019050919050565b6000606082840312156148df576148de6145ca565b5b6148e9606061462f565b905060006148f984828501614664565b600083015250602061490d848285016146a5565b6020830152506040614921848285016146a5565b60408301525092915050565b600061494061493b8461489d565b61462f565b9050808382526020820190506060840283018581111561496357614962613cf1565b5b835b8181101561498c578061497888826148c9565b845260208401935050606081019050614965565b5050509392505050565b600082601f8301126149ab576149aa613ce7565b5b81516149bb84826020860161492d565b91505092915050565b600060e082840312156149da576149d96145ca565b5b6149e460e061462f565b9050600082015167ffffffffffffffff811115614a0457614a0361464a565b5b614a108482850161486f565b6000830152506020614a2484828501614664565b6020830152506040614a38848285016146a5565b6040830152506060614a4c84828501614234565b606083015250608082015167ffffffffffffffff811115614a7057614a6f61464a565b5b614a7c84828501614996565b60808301525060a0614a90848285016146a5565b60a08301525060c0614aa4848285016146a5565b60c08301525092915050565b6000614ac3614abe846147a1565b61462f565b90508083825260208201905060208402830185811115614ae657614ae5613cf1565b5b835b81811015614b2d57805167ffffffffffffffff811115614b0b57614b0a613ce7565b5b808601614b1889826149c4565b85526020850194505050602081019050614ae8565b5050509392505050565b600082601f830112614b4c57614b4b613ce7565b5b8151614b5c848260208601614ab0565b91505092915050565b600060c08284031215614b7b57614b7a6145ca565b5b614b8560c061462f565b90506000614b958482850161464f565b6000830152506020614ba984828501614664565b602083015250604082015167ffffffffffffffff811115614bcd57614bcc61464a565b5b614bd984828501614773565b604083015250606082015167ffffffffffffffff811115614bfd57614bfc61464a565b5b614c0984828501614b37565b606083015250608082015167ffffffffffffffff811115614c2d57614c2c61464a565b5b614c398482850161486f565b60808301525060a0614c4d848285016146a5565b60a08301525092915050565b600060208284031215614c6f57614c6e6139e9565b5b600082015167ffffffffffffffff811115614c8d57614c8c6139ee565b5b614c9984828501614b65565b91505092915050565b7f496e76616c696420646973707574652073746174757300000000000000000000600082015250565b6000614cd8601683614074565b9150614ce382614ca2565b602082019050919050565b60006020820190508181036000830152614d0781614ccb565b9050919050565b600080fd5b600080fd5b600080fd5b60008083356001602003843603038112614d3a57614d39614d18565b5b83810192508235915060208301925067ffffffffffffffff821115614d6257614d61614d0e565b5b600182023603831315614d7857614d77614d13565b5b509250929050565b600082825260208201905092915050565b6000614d9d8385614d80565b9350614daa838584614559565b614db383614568565b840190509392505050565b6000614dcd6020840184613a3c565b905092915050565b614dde81613a13565b82525050565b600060608301614df76000840184614d1d565b8583036000870152614e0a838284614d91565b92505050614e1b6020840184614d1d565b8583036020870152614e2e838284614d91565b92505050614e3f6040840184614dbe565b614e4c6040860182614dd5565b508091505092915050565b614e6081613a13565b82525050565b60006040820190508181036000830152614e808185614de4565b9050614e8f6020830184614e57565b9392505050565b600081519050919050565b7f4e487b7100000000000000000000000000000000000000000000000000000000600052602260045260246000fd5b60006002820490506001821680614ee857607f821691505b602082108103614efb57614efa614ea1565b5b50919050565b60008190508160005260206000209050919050565b60006020601f8301049050919050565b600082821b905092915050565b600060088302614f637fffffffffffffffffffffffffffffffffffffffffffffffffffffffffffffffff82614f26565b614f6d8683614f26565b95508019841693508086168417925050509392505050565b6000614fa0614f9b614f9684613a51565b613fb3565b613a51565b9050919050565b6000819050919050565b614fba83614f85565b614fce614fc682614fa7565b848454614f33565b825550505050565b600090565b614fe3614fd6565b614fee818484614fb1565b505050565b5b8181101561501257615007600082614fdb565b600181019050614ff4565b5050565b601f8211156150575761502881614f01565b61503184614f16565b81016020851015615040578190505b61505461504c85614f16565b830182614ff3565b50505b505050565b600082821c905092915050565b600061507a6000198460080261505c565b1980831691505092915050565b60006150938383615069565b9150826002028217905092915050565b6150ac82614e96565b67ffffffffffffffff8111156150c5576150c46145cf565b5b6150cf8254614ed0565b6150da828285615016565b600060209050601f83116001811461510d57600084156150fb578287015190505b6151058582615087565b86555061516d565b601f19841661511b86614f01565b60005b828110156151435784890151825560018201915060208501945060208101905061511e565b86831015615160578489015161515c601f891682615069565b8355505b6001600288020188555050505b505050505050565b7f496e76616c696420696e70757400000000000000000000000000000000000000600082015250565b60006151ab600d83614074565b91506151b682615175565b602082019050919050565b600060208201905081810360008301526151da8161519e565b9050919050565b6000813590506151f08161421d565b92915050565b60006020828403121561520c5761520b6139e9565b5b600061521a848285016151e1565b91505092915050565b61522c81613e7f565b811461523757600080fd5b50565b60008151905061524981615223565b92915050565b600060808284031215615265576152646145ca565b5b61526f608061462f565b9050600061527f84828501614664565b600083015250602061529384828501614664565b60208301525060406152a7848285016146a5565b60408301525060606152bb8482850161523a565b60608301525092915050565b6000608082840312156152dd576152dc6139e9565b5b60006152eb8482850161524f565b91505092915050565b7f416d6f756e74206d7573742062796573652067726561746572207468616e207a60008201527f65726f0000000000000000000000000000000000000000000000000000000000602082015250565b6000615350602383614074565b915061535b826152f4565b604082019050919050565b6000602082019050818103600083015261537f81615343565b9050919050565b7f5369676e61747572652045787069726564000000000000000000000000000000600082015250565b60006153bc601183614074565b91506153c782615386565b602082019050919050565b600060208201905081810360008301526153eb816153af565b9050919050565b600081905092915050565b600061540983856153f2565b9350615416838584614559565b82840190509392505050565b600061542f8284866153fd565b91508190509392505050565b600061544682613ada565b915061545183613ada565b9250828201905063ffffffff81111561546d5761546c614009565b5b9291505056fea2646970667358221220611b3c21e8eb38445c4c90cecf8bc5c5fb13ee889f2d4b9e25e796d6201de0a164736f6c63430008180033",
  "linkReferences": {
    "contracts/0xVault/libs/Crypto.sol": {
      "Crypto": [
        {
          "length": 20,
          "start": 5974
        },
        {
          "length": 20,
          "start": 6338
        },
        {
          "length": 20,
          "start": 8382
        },
        {
          "length": 20,
          "start": 8655
        },
        {
          "length": 20,
          "start": 10063
        },
        {
          "length": 20,
          "start": 10336
        }
      ]
    }
  },
  "deployedLinkReferences": {
    "contracts/0xVault/libs/Crypto.sol": {
      "Crypto": [
        {
          "length": 20,
          "start": 5942
        },
        {
          "length": 20,
          "start": 6306
        },
        {
          "length": 20,
          "start": 8350
        },
        {
          "length": 20,
          "start": 8623
        },
        {
          "length": 20,
          "start": 10031
        },
        {
          "length": 20,
          "start": 10304
        }
      ]
    }
  }
}