{
  "_format": "hh-sol-artifact-1",
  "contractName": "Vault",
  "sourceName": "contracts/0xVault/Vault.sol",
  "abi": [
    {
      "inputs": [],
      "name": "DisputeChallengeFailed",
      "type": "error"
    },
    {
      "inputs": [],
      "name": "ECRecoverFailed",
      "type": "error"
    },
    {
      "inputs": [],
      "name": "EnforcedPause",
      "type": "error"
    },
    {
      "inputs": [],
      "name": "ExpectedPause",
      "type": "error"
    },
    {
      "inputs": [],
      "name": "InvalidAddress",
      "type": "error"
    },
    {
      "inputs": [],
      "name": "InvalidInitialization",
      "type": "error"
    },
    {
      "inputs": [],
      "name": "InvalidSP",
      "type": "error"
    },
    {
      "inputs": [],
      "name": "InvalidSchnorrSignature",
      "type": "error"
    },
    {
      "inputs": [],
      "name": "InvalidSignature",
      "type": "error"
    },
    {
      "inputs": [],
      "name": "InvalidUsedSignature",
      "type": "error"
    },
    {
      "inputs": [],
      "name": "NotInitializing",
      "type": "error"
    },
    {
      "inputs": [
        {
          "internalType": "address",
          "name": "owner",
          "type": "address"
        }
      ],
      "name": "OwnableInvalidOwner",
      "type": "error"
    },
    {
      "inputs": [
        {
          "internalType": "address",
          "name": "account",
          "type": "address"
        }
      ],
      "name": "OwnableUnauthorizedAccount",
      "type": "error"
    },
    {
      "inputs": [],
      "name": "ReentrancyGuardReentrantCall",
      "type": "error"
    },
    {
      "inputs": [],
      "name": "SettleDisputeFailed",
      "type": "error"
    },
    {
      "anonymous": false,
      "inputs": [
        {
          "indexed": true,
          "internalType": "address",
          "name": "user",
          "type": "address"
        },
        {
          "indexed": true,
          "internalType": "address",
          "name": "token",
          "type": "address"
        },
        {
          "indexed": false,
          "internalType": "uint256",
          "name": "amount",
          "type": "uint256"
        }
      ],
      "name": "Deposited",
      "type": "event"
    },
    {
      "anonymous": false,
      "inputs": [
        {
          "indexed": false,
          "internalType": "uint32",
          "name": "requestId",
          "type": "uint32"
        },
        {
          "indexed": true,
          "internalType": "address",
          "name": "user",
          "type": "address"
        }
      ],
      "name": "DisputeChallenged",
      "type": "event"
    },
    {
      "anonymous": false,
      "inputs": [
        {
          "indexed": false,
          "internalType": "uint32",
          "name": "requestId",
          "type": "uint32"
        },
        {
          "indexed": true,
          "internalType": "address",
          "name": "user",
          "type": "address"
        }
      ],
      "name": "DisputeOpened",
      "type": "event"
    },
    {
      "anonymous": false,
      "inputs": [
        {
          "indexed": false,
          "internalType": "uint32",
          "name": "requestId",
          "type": "uint32"
        },
        {
          "indexed": true,
          "internalType": "address",
          "name": "user",
          "type": "address"
        }
      ],
      "name": "DisputeSettled",
      "type": "event"
    },
    {
      "anonymous": false,
      "inputs": [
        {
          "indexed": false,
          "internalType": "uint64",
          "name": "version",
          "type": "uint64"
        }
      ],
      "name": "Initialized",
      "type": "event"
    },
    {
      "anonymous": false,
      "inputs": [
        {
          "indexed": true,
          "internalType": "address",
          "name": "user",
          "type": "address"
        },
        {
          "indexed": true,
          "internalType": "address",
          "name": "token",
          "type": "address"
        },
        {
          "indexed": false,
          "internalType": "uint256",
          "name": "amount",
          "type": "uint256"
        }
      ],
      "name": "LPProvided",
      "type": "event"
    },
    {
      "anonymous": false,
      "inputs": [
        {
          "indexed": true,
          "internalType": "address",
          "name": "user",
          "type": "address"
        },
        {
          "indexed": true,
          "internalType": "address",
          "name": "token",
          "type": "address"
        },
        {
          "indexed": false,
          "internalType": "uint256",
          "name": "amount",
          "type": "uint256"
        }
      ],
      "name": "LPWithdrawn",
      "type": "event"
    },
    {
      "anonymous": false,
      "inputs": [
        {
          "indexed": true,
          "internalType": "address",
          "name": "previousOwner",
          "type": "address"
        },
        {
          "indexed": true,
          "internalType": "address",
          "name": "newOwner",
          "type": "address"
        }
      ],
      "name": "OwnershipTransferred",
      "type": "event"
    },
    {
      "anonymous": false,
      "inputs": [
        {
          "indexed": false,
          "internalType": "address",
          "name": "account",
          "type": "address"
        }
      ],
      "name": "Paused",
      "type": "event"
    },
    {
      "anonymous": false,
      "inputs": [
        {
          "indexed": false,
          "internalType": "uint256",
          "name": "positionId",
          "type": "uint256"
        },
        {
          "indexed": false,
          "internalType": "uint256",
          "name": "tokenAmount",
          "type": "uint256"
        }
      ],
      "name": "PositionClosed",
      "type": "event"
    },
    {
      "anonymous": false,
      "inputs": [
        {
          "indexed": false,
          "internalType": "uint32",
          "name": "requestId",
          "type": "uint32"
        },
        {
          "indexed": true,
          "internalType": "address",
          "name": "user",
          "type": "address"
        }
      ],
      "name": "PositionDisputeChallenged",
      "type": "event"
    },
    {
      "anonymous": false,
      "inputs": [
        {
          "indexed": true,
          "internalType": "address",
          "name": "token",
          "type": "address"
        }
      ],
      "name": "TokenAdded",
      "type": "event"
    },
    {
      "anonymous": false,
      "inputs": [
        {
          "indexed": true,
          "internalType": "address",
          "name": "token",
          "type": "address"
        }
      ],
      "name": "TokenRemoved",
      "type": "event"
    },
    {
      "anonymous": false,
      "inputs": [
        {
          "indexed": true,
          "internalType": "address",
          "name": "prevSigner",
          "type": "address"
        },
        {
          "indexed": true,
          "internalType": "address",
          "name": "newSigner",
          "type": "address"
        }
      ],
      "name": "TrustedSignerChanged",
      "type": "event"
    },
    {
      "anonymous": false,
      "inputs": [
        {
          "indexed": false,
          "internalType": "address",
          "name": "account",
          "type": "address"
        }
      ],
      "name": "Unpaused",
      "type": "event"
    },
    {
      "anonymous": false,
      "inputs": [
        {
          "indexed": true,
          "internalType": "address",
          "name": "user",
          "type": "address"
        },
        {
          "indexed": true,
          "internalType": "address",
          "name": "token",
          "type": "address"
        },
        {
          "indexed": false,
          "internalType": "uint256",
          "name": "amount",
          "type": "uint256"
        },
        {
          "indexed": false,
          "internalType": "uint32",
          "name": "requestId",
          "type": "uint32"
        }
      ],
      "name": "WithdrawalRequested",
      "type": "event"
    },
    {
      "anonymous": false,
      "inputs": [
        {
          "indexed": true,
          "internalType": "address",
          "name": "user",
          "type": "address"
        },
        {
          "indexed": true,
          "internalType": "address",
          "name": "token",
          "type": "address"
        },
        {
          "indexed": false,
          "internalType": "uint256",
          "name": "amount",
          "type": "uint256"
        }
      ],
      "name": "Withdrawn",
      "type": "event"
    },
    {
      "inputs": [
        {
          "internalType": "uint32",
          "name": "",
          "type": "uint32"
        }
      ],
      "name": "_disputes",
      "outputs": [
        {
          "internalType": "address",
          "name": "user",
          "type": "address"
        },
        {
          "internalType": "address",
          "name": "challenger",
          "type": "address"
        },
        {
          "internalType": "uint64",
          "name": "timestamp",
          "type": "uint64"
        },
        {
          "internalType": "uint8",
          "name": "status",
          "type": "uint8"
        },
        {
          "internalType": "uint32",
          "name": "sessionId",
          "type": "uint32"
        }
      ],
      "stateMutability": "view",
      "type": "function"
    },
    {
      "inputs": [
        {
          "internalType": "address",
          "name": "token",
          "type": "address"
        }
      ],
      "name": "addToken",
      "outputs": [],
      "stateMutability": "nonpayable",
      "type": "function"
    },
    {
      "inputs": [
        {
          "internalType": "uint32",
          "name": "requestId",
          "type": "uint32"
        },
        {
          "components": [
            {
              "internalType": "bytes",
              "name": "data",
              "type": "bytes"
            },
            {
              "internalType": "bytes",
              "name": "signature",
              "type": "bytes"
            },
            {
              "internalType": "address",
              "name": "combinedPublicKey",
              "type": "address"
            }
          ],
          "internalType": "struct Crypto.SchnorrSignature",
          "name": "_schnorr",
          "type": "tuple"
        }
      ],
      "name": "challengeDispute",
      "outputs": [],
      "stateMutability": "nonpayable",
      "type": "function"
    },
    {
      "inputs": [
        {
          "internalType": "address",
          "name": "",
          "type": "address"
        }
      ],
      "name": "combinedPublicKey",
      "outputs": [
        {
          "internalType": "address",
          "name": "",
          "type": "address"
        }
      ],
      "stateMutability": "view",
      "type": "function"
    },
    {
      "inputs": [
        {
          "internalType": "address",
          "name": "token",
          "type": "address"
        },
        {
          "internalType": "uint256",
          "name": "amount",
          "type": "uint256"
        }
      ],
      "name": "deposit",
      "outputs": [],
      "stateMutability": "nonpayable",
      "type": "function"
    },
    {
      "inputs": [
        {
          "internalType": "address",
          "name": "",
          "type": "address"
        },
        {
          "internalType": "address",
          "name": "",
          "type": "address"
        }
      ],
      "name": "depositedAmount",
      "outputs": [
        {
          "internalType": "uint256",
          "name": "",
          "type": "uint256"
        }
      ],
      "stateMutability": "view",
      "type": "function"
    },
    {
      "inputs": [
        {
          "internalType": "address",
          "name": "_owner",
          "type": "address"
        },
        {
          "internalType": "address",
          "name": "trustedSigner",
          "type": "address"
        },
        {
          "internalType": "uint256",
          "name": "_signatureExpiryTime",
          "type": "uint256"
        }
      ],
      "name": "initialize",
      "outputs": [],
      "stateMutability": "nonpayable",
      "type": "function"
    },
    {
      "inputs": [
        {
          "internalType": "address",
          "name": "",
          "type": "address"
        }
      ],
      "name": "isLPProvider",
      "outputs": [
        {
          "internalType": "bool",
          "name": "",
          "type": "bool"
        }
      ],
      "stateMutability": "view",
      "type": "function"
    },
    {
      "inputs": [
        {
          "internalType": "address",
          "name": "token",
          "type": "address"
        }
      ],
      "name": "isTokenSupported",
      "outputs": [
        {
          "internalType": "bool",
          "name": "",
          "type": "bool"
        }
      ],
      "stateMutability": "view",
      "type": "function"
    },
    {
      "inputs": [
        {
          "internalType": "address",
          "name": "",
          "type": "address"
        }
      ],
      "name": "lpProvidedAmount",
      "outputs": [
        {
          "internalType": "uint256",
          "name": "",
          "type": "uint256"
        }
      ],
      "stateMutability": "view",
      "type": "function"
    },
    {
      "inputs": [],
      "name": "oracle",
      "outputs": [
        {
          "internalType": "address",
          "name": "",
          "type": "address"
        }
      ],
      "stateMutability": "view",
      "type": "function"
    },
    {
      "inputs": [],
      "name": "owner",
      "outputs": [
        {
          "internalType": "address",
          "name": "",
          "type": "address"
        }
      ],
      "stateMutability": "view",
      "type": "function"
    },
    {
      "inputs": [],
      "name": "paused",
      "outputs": [
        {
          "internalType": "bool",
          "name": "",
          "type": "bool"
        }
      ],
      "stateMutability": "view",
      "type": "function"
    },
    {
      "inputs": [
        {
          "internalType": "address",
          "name": "token",
          "type": "address"
        },
        {
          "internalType": "uint256",
          "name": "amount",
          "type": "uint256"
        }
      ],
      "name": "provideLiquidity",
      "outputs": [],
      "stateMutability": "nonpayable",
      "type": "function"
    },
    {
      "inputs": [
        {
          "internalType": "address",
          "name": "token",
          "type": "address"
        }
      ],
      "name": "removeToken",
      "outputs": [],
      "stateMutability": "nonpayable",
      "type": "function"
    },
    {
      "inputs": [],
      "name": "renounceOwnership",
      "outputs": [],
      "stateMutability": "nonpayable",
      "type": "function"
    },
    {
      "inputs": [
        {
          "internalType": "address",
          "name": "_user",
          "type": "address"
        },
        {
          "internalType": "address",
          "name": "_combinedPublicKey",
          "type": "address"
        }
      ],
      "name": "setCombinedPublicKey",
      "outputs": [],
      "stateMutability": "nonpayable",
      "type": "function"
    },
    {
      "inputs": [
        {
          "internalType": "address[]",
          "name": "lpProvider",
          "type": "address[]"
        },
        {
          "internalType": "bool[]",
          "name": "isProvider",
          "type": "bool[]"
        }
      ],
      "name": "setLPProvider",
      "outputs": [],
      "stateMutability": "nonpayable",
      "type": "function"
    },
    {
      "inputs": [
        {
          "internalType": "address",
          "name": "newOracle",
          "type": "address"
        }
      ],
      "name": "setOracle",
      "outputs": [],
      "stateMutability": "nonpayable",
      "type": "function"
    },
    {
      "inputs": [
        {
          "internalType": "uint256",
          "name": "_expiryTime",
          "type": "uint256"
        }
      ],
      "name": "setSignatureExpiryTime",
      "outputs": [],
      "stateMutability": "nonpayable",
      "type": "function"
    },
    {
      "inputs": [
        {
          "internalType": "address",
          "name": "_newSigner",
          "type": "address"
        }
      ],
      "name": "setTrustedSigner",
      "outputs": [],
      "stateMutability": "nonpayable",
      "type": "function"
    },
    {
      "inputs": [
        {
          "internalType": "uint32",
          "name": "requestId",
          "type": "uint32"
        }
      ],
      "name": "settleDispute",
      "outputs": [],
      "stateMutability": "nonpayable",
      "type": "function"
    },
    {
      "inputs": [],
      "name": "signatureExpiryTime",
      "outputs": [
        {
          "internalType": "uint256",
          "name": "",
          "type": "uint256"
        }
      ],
      "stateMutability": "view",
      "type": "function"
    },
    {
      "inputs": [
        {
          "internalType": "address",
          "name": "newOwner",
          "type": "address"
        }
      ],
      "name": "transferOwnership",
      "outputs": [],
      "stateMutability": "nonpayable",
      "type": "function"
    },
    {
      "inputs": [
        {
          "components": [
            {
              "internalType": "address",
              "name": "trader",
              "type": "address"
            },
            {
              "internalType": "address",
              "name": "token",
              "type": "address"
            },
            {
              "internalType": "uint256",
              "name": "amount",
              "type": "uint256"
            },
            {
              "internalType": "uint64",
              "name": "timestamp",
              "type": "uint64"
            }
          ],
          "internalType": "struct Vault.WithdrawParams",
          "name": "withdrawParams",
          "type": "tuple"
        },
        {
          "internalType": "bytes",
          "name": "signature",
          "type": "bytes"
        }
      ],
      "name": "withdraw",
      "outputs": [],
      "stateMutability": "nonpayable",
      "type": "function"
    },
    {
      "inputs": [
        {
          "internalType": "address",
          "name": "token",
          "type": "address"
        }
      ],
      "name": "withdrawAllLiquidity",
      "outputs": [],
      "stateMutability": "nonpayable",
      "type": "function"
    },
    {
      "inputs": [
        {
          "components": [
            {
              "internalType": "bytes",
              "name": "data",
              "type": "bytes"
            },
            {
              "internalType": "bytes",
              "name": "signature",
              "type": "bytes"
            },
            {
              "internalType": "address",
              "name": "combinedPublicKey",
              "type": "address"
            }
          ],
          "internalType": "struct Crypto.SchnorrSignature",
          "name": "_schnorr",
          "type": "tuple"
        }
      ],
      "name": "withdrawAndClosePositionTrustlessly",
      "outputs": [],
      "stateMutability": "nonpayable",
      "type": "function"
    },
    {
      "inputs": [
        {
          "internalType": "address",
          "name": "_combinedPublicKey",
          "type": "address"
        },
        {
          "components": [
            {
              "internalType": "bytes",
              "name": "data",
              "type": "bytes"
            },
            {
              "internalType": "bytes",
              "name": "signature",
              "type": "bytes"
            },
            {
              "internalType": "address",
              "name": "combinedPublicKey",
              "type": "address"
            }
          ],
          "internalType": "struct Crypto.SchnorrSignature",
          "name": "_schnorr",
          "type": "tuple"
        }
      ],
      "name": "withdrawSchnorr",
      "outputs": [],
      "stateMutability": "nonpayable",
      "type": "function"
    }
  ],
  "bytecode": "0x608060405234801561001057600080fd5b506159ac80620000216000396000f3fe608060405234801561001057600080fd5b50600436106101c45760003560e01c80638da5cb5b116100f9578063d8fc2f9411610097578063e6d0efad11610071578063e6d0efad146104db578063f0f998e9146104f7578063f2edcc9614610513578063f2fde38b1461052f576101c4565b8063d8fc2f941461044b578063e0c32ec41461047b578063e41cff64146104ab576101c4565b8063a8207858116100d3578063a8207858146103c3578063ab3e857f146103df578063c2aed72414610413578063d48bfca71461042f576101c4565b80638da5cb5b1461036d5780638f2c081f1461038b578063a2e8d38b146103a7576101c4565b80635fa7b5841161016657806375151b631161014057806375151b63146102e75780637adbf973146103175780637dc0d1d01461033357806386c9391414610351576101c4565b80635fa7b584146102a55780635fea6120146102c1578063715018a6146102dd576101c4565b806347e7ef24116101a257806347e7ef241461023157806356a1c7011461024d578063570ddaa8146102695780635c975abb14610287576101c4565b80631794bb3c146101c957806327482c0f146101e557806335e3212c14610201575b600080fd5b6101e360048036038101906101de9190613d86565b61054b565b005b6101ff60048036038101906101fa9190613e15565b61072c565b005b61021b60048036038101906102169190613e42565b610d25565b6040516102289190613e7e565b60405180910390f35b61024b60048036038101906102469190613e99565b610d3d565b005b61026760048036038101906102629190613e42565b610f9b565b005b6102716110cf565b60405161027e9190613e7e565b60405180910390f35b61028f6110d5565b60405161029c9190613ef4565b60405180910390f35b6102bf60048036038101906102ba9190613e42565b6110fa565b005b6102db60048036038101906102d69190613e99565b6112ea565b005b6102e56115be565b005b61030160048036038101906102fc9190613e42565b6115d2565b60405161030e9190613ef4565b60405180910390f35b610331600480360381019061032c9190613e42565b61167a565b005b61033b6116c6565b6040516103489190613f1e565b60405180910390f35b61036b60048036038101906103669190613f39565b6116ec565b005b6103756116fe565b6040516103829190613f1e565b60405180910390f35b6103a560048036038101906103a09190613f8a565b611736565b005b6103c160048036038101906103bc91906140a1565b611fb4565b005b6103dd60048036038101906103d89190614122565b6120c3565b005b6103f960048036038101906103f49190613e15565b612584565b60405161040a9594939291906141cc565b60405180910390f35b61042d600480360381019061042891906143af565b61262b565b005b61044960048036038101906104449190613e42565b6129ad565b005b61046560048036038101906104609190613e42565b612a5e565b6040516104729190613ef4565b60405180910390f35b6104956004803603810190610490919061440f565b612a7e565b6040516104a29190613e7e565b60405180910390f35b6104c560048036038101906104c09190613e42565b612aa3565b6040516104d29190613f1e565b60405180910390f35b6104f560048036038101906104f0919061444f565b612ad6565b005b610511600480360381019061050c9190613e42565b61324b565b005b61052d6004803603810190610528919061440f565b613507565b005b61054960048036038101906105449190613e42565b613591565b005b6000610555613617565b905060008160000160089054906101000a900460ff1615905060008260000160009054906101000a900467ffffffffffffffff1690506000808267ffffffffffffffff161480156105a35750825b9050600060018367ffffffffffffffff161480156105d8575060003073ffffffffffffffffffffffffffffffffffffffff163b145b9050811580156105e6575080155b1561061d576040517ff92ee8a900000000000000000000000000000000000000000000000000000000815260040160405180910390fd5b60018560000160006101000a81548167ffffffffffffffff021916908367ffffffffffffffff160217905550831561066d5760018560000160086101000a81548160ff0219169083151502179055505b6106768861363f565b61067e613653565b86600760006101000a81548173ffffffffffffffffffffffffffffffffffffffff021916908373ffffffffffffffffffffffffffffffffffffffff1602179055508560008190555083156107225760008560000160086101000a81548160ff0219169083151502179055507fc7f505b2f371ae2175ee4913f4499e1f2633a7b5936321eed1cdaeb6115181d2600160405161071991906144dd565b60405180910390a15b5050505050505050565b610734613665565b61073c6136bc565b6000600260008363ffffffff1663ffffffff16815260200190815260200160002090506107088160010160149054906101000a900467ffffffffffffffff166107859190614527565b67ffffffffffffffff1642116107d0576040517f08c379a00000000000000000000000000000000000000000000000000000000081526004016107c7906145c0565b60405180910390fd5b60008160020180549050905060005b81811015610c9a5760008360020182815481106107ff576107fe6145e0565b5b906000526020600020906002020160000160009054906101000a900473ffffffffffffffffffffffffffffffffffffffff169050600084600201838154811061084b5761084a6145e0565b5b90600052602060002090600202016001015490506000600a60008760000160009054906101000a900473ffffffffffffffffffffffffffffffffffffffff1673ffffffffffffffffffffffffffffffffffffffff1673ffffffffffffffffffffffffffffffffffffffff1681526020019081526020016000206000876002016000815481106108dd576108dc6145e0565b5b906000526020600020906002020160000160009054906101000a900473ffffffffffffffffffffffffffffffffffffffff1673ffffffffffffffffffffffffffffffffffffffff1673ffffffffffffffffffffffffffffffffffffffff1681526020019081526020016000205482610955919061460f565b90506000600a60008860000160009054906101000a900473ffffffffffffffffffffffffffffffffffffffff1673ffffffffffffffffffffffffffffffffffffffff1673ffffffffffffffffffffffffffffffffffffffff1681526020019081526020016000206000886002016000815481106109d5576109d46145e0565b5b906000526020600020906002020160000160009054906101000a900473ffffffffffffffffffffffffffffffffffffffff1673ffffffffffffffffffffffffffffffffffffffff1673ffffffffffffffffffffffffffffffffffffffff168152602001908152602001600020819055506000811115610b2b5780600c60008573ffffffffffffffffffffffffffffffffffffffff1673ffffffffffffffffffffffffffffffffffffffff168152602001908152602001600020541015610ad0576040517f08c379a0000000000000000000000000000000000000000000000000000000008152600401610ac79061468f565b60405180910390fd5b80600c60008573ffffffffffffffffffffffffffffffffffffffff1673ffffffffffffffffffffffffffffffffffffffff1681526020019081526020016000206000828254610b1f919061460f565b92505081905550610b82565b80600c60008573ffffffffffffffffffffffffffffffffffffffff1673ffffffffffffffffffffffffffffffffffffffff1681526020019081526020016000206000828254610b7a91906146af565b925050819055505b8273ffffffffffffffffffffffffffffffffffffffff1663a9059cbb8760000160009054906101000a900473ffffffffffffffffffffffffffffffffffffffff16846040518363ffffffff1660e01b8152600401610be19291906146e3565b6020604051808303816000875af1158015610c00573d6000803e3d6000fd5b505050506040513d601f19601f82011682018060405250810190610c249190614738565b508273ffffffffffffffffffffffffffffffffffffffff163373ffffffffffffffffffffffffffffffffffffffff167fd1c19fbcd4551a5edfb66d43d2e337c04837afda3482b42bdf569a8fccdae5fb84604051610c829190613e7e565b60405180910390a350505080806001019150506107df565b50600380811115610cae57610cad614765565b5b8260040160006101000a81548160ff021916908360ff1602179055503373ffffffffffffffffffffffffffffffffffffffff167f8b703fbb69bafcfe17cc041cf70cf1f199e44c5e5f70dca4aa3d01ce927996cc84604051610d109190614794565b60405180910390a25050610d226136fd565b50565b600c6020528060005260406000206000915090505481565b610d45613665565b610d4d6136bc565b60008111610d90576040517f08c379a0000000000000000000000000000000000000000000000000000000008152600401610d87906147fb565b60405180910390fd5b610d99826115d2565b610dd8576040517f08c379a0000000000000000000000000000000000000000000000000000000008152600401610dcf90614867565b60405180910390fd5b8173ffffffffffffffffffffffffffffffffffffffff166323b872dd3330846040518463ffffffff1660e01b8152600401610e1593929190614887565b6020604051808303816000875af1158015610e34573d6000803e3d6000fd5b505050506040513d601f19601f82011682018060405250810190610e589190614738565b610e97576040517f08c379a0000000000000000000000000000000000000000000000000000000008152600401610e8e9061490a565b60405180910390fd5b80600a60003373ffffffffffffffffffffffffffffffffffffffff1673ffffffffffffffffffffffffffffffffffffffff16815260200190815260200160002060008473ffffffffffffffffffffffffffffffffffffffff1673ffffffffffffffffffffffffffffffffffffffff1681526020019081526020016000206000828254610f2391906146af565b925050819055508173ffffffffffffffffffffffffffffffffffffffff163373ffffffffffffffffffffffffffffffffffffffff167f8752a472e571a816aea92eec8dae9baf628e840f4929fbcc2d155e6233ff68a783604051610f879190613e7e565b60405180910390a3610f976136fd565b5050565b610fa3613716565b600073ffffffffffffffffffffffffffffffffffffffff168173ffffffffffffffffffffffffffffffffffffffff1603611009576040517fe6c4247b00000000000000000000000000000000000000000000000000000000815260040160405180910390fd5b6000600760009054906101000a900473ffffffffffffffffffffffffffffffffffffffff16905081600760006101000a81548173ffffffffffffffffffffffffffffffffffffffff021916908373ffffffffffffffffffffffffffffffffffffffff1602179055508173ffffffffffffffffffffffffffffffffffffffff168173ffffffffffffffffffffffffffffffffffffffff167f1435a556af9f480892a082aa22061c8ded519fb343c731930b23c1c50ff68b1460405160405180910390a35050565b60005481565b6000806110e061379d565b90508060000160009054906101000a900460ff1691505090565b611102613716565b60005b6008805490508110156112e5578173ffffffffffffffffffffffffffffffffffffffff166008828154811061113d5761113c6145e0565b5b9060005260206000200160009054906101000a900473ffffffffffffffffffffffffffffffffffffffff1673ffffffffffffffffffffffffffffffffffffffff16036112d8576001600880549050611195919061460f565b811461124857600860016008805490506111af919061460f565b815481106111c0576111bf6145e0565b5b9060005260206000200160009054906101000a900473ffffffffffffffffffffffffffffffffffffffff16600882815481106111ff576111fe6145e0565b5b9060005260206000200160006101000a81548173ffffffffffffffffffffffffffffffffffffffff021916908373ffffffffffffffffffffffffffffffffffffffff1602179055505b600880548061125a5761125961492a565b5b6001900381819060005260206000200160006101000a81549073ffffffffffffffffffffffffffffffffffffffff021916905590558173ffffffffffffffffffffffffffffffffffffffff167f4c910b69fe65a61f7531b9c5042b2329ca7179c77290aa7e2eb3afa3c8511fd360405160405180910390a2506112e7565b8080600101915050611105565b505b50565b600b60003373ffffffffffffffffffffffffffffffffffffffff1673ffffffffffffffffffffffffffffffffffffffff16815260200190815260200160002060009054906101000a900460ff16611376576040517f08c379a000000000000000000000000000000000000000000000000000000000815260040161136d906149a5565b60405180910390fd5b600081116113b9576040517f08c379a00000000000000000000000000000000000000000000000000000000081526004016113b0906147fb565b60405180910390fd5b6113c2826115d2565b611401576040517f08c379a00000000000000000000000000000000000000000000000000000000081526004016113f890614867565b60405180910390fd5b8173ffffffffffffffffffffffffffffffffffffffff166323b872dd3330846040518463ffffffff1660e01b815260040161143e93929190614887565b6020604051808303816000875af115801561145d573d6000803e3d6000fd5b505050506040513d601f19601f820116820180604052508101906114819190614738565b6114c0576040517f08c379a00000000000000000000000000000000000000000000000000000000081526004016114b79061490a565b60405180910390fd5b80600c60008473ffffffffffffffffffffffffffffffffffffffff1673ffffffffffffffffffffffffffffffffffffffff168152602001908152602001600020600082825461150f91906146af565b925050819055508173ffffffffffffffffffffffffffffffffffffffff163373ffffffffffffffffffffffffffffffffffffffff167f475ce1a1fde21a55ef3ff23bc7394d2bb1403cbbbcc86e762514d5dbce3b835c600c60008673ffffffffffffffffffffffffffffffffffffffff1673ffffffffffffffffffffffffffffffffffffffff168152602001908152602001600020546040516115b29190613e7e565b60405180910390a35050565b6115c6613716565b6115d060006137c5565b565b600080600090505b60088054905081101561166f578273ffffffffffffffffffffffffffffffffffffffff1660088281548110611612576116116145e0565b5b9060005260206000200160009054906101000a900473ffffffffffffffffffffffffffffffffffffffff1673ffffffffffffffffffffffffffffffffffffffff1603611662576001915050611675565b80806001019150506115da565b50600090505b919050565b611682613716565b80600960006101000a81548173ffffffffffffffffffffffffffffffffffffffff021916908373ffffffffffffffffffffffffffffffffffffffff16021790555050565b600960009054906101000a900473ffffffffffffffffffffffffffffffffffffffff1681565b6116f4613716565b8060008190555050565b60008061170961389c565b90508060000160009054906101000a900473ffffffffffffffffffffffffffffffffffffffff1691505090565b61173e613665565b6117466136bc565b6000600260008463ffffffff1663ffffffff1681526020019081526020016000209050600073__$50e9592bd68e5211c3a496048a4809ad3a$__636eccd9c084806000019061179591906149d4565b6040518363ffffffff1660e01b81526004016117b2929190614a84565b600060405180830381865af41580156117cf573d6000803e3d6000fd5b505050506040513d6000823e3d601f19601f820116820180604052508101906117f891906150b2565b90506001600381111561180e5761180d614765565b5b60ff168260040160009054906101000a900460ff1660ff1614611866576040517f08c379a000000000000000000000000000000000000000000000000000000000815260040161185d90615147565b60405180910390fd5b6107088260010160149054906101000a900467ffffffffffffffff1661188c9190614527565b67ffffffffffffffff1642106118d7576040517f08c379a00000000000000000000000000000000000000000000000000000000081526004016118ce906145c0565b60405180910390fd5b73__$50e9592bd68e5211c3a496048a4809ad3a$__63bc018c408460066000856020015173ffffffffffffffffffffffffffffffffffffffff1673ffffffffffffffffffffffffffffffffffffffff16815260200190815260200160002060009054906101000a900473ffffffffffffffffffffffffffffffffffffffff166040518363ffffffff1660e01b81526004016119739291906152bf565b602060405180830381865af4158015611990573d6000803e3d6000fd5b505050506040513d601f19601f820116820180604052508101906119b49190614738565b6119ea576040517ff08f7bd800000000000000000000000000000000000000000000000000000000815260040160405180910390fd5b600081600001519050816000015163ffffffff16600560008763ffffffff1663ffffffff16815260200190815260200160002060009054906101000a900463ffffffff1663ffffffff161015611f735780600560008763ffffffff1663ffffffff16815260200190815260200160002060006101000a81548163ffffffff021916908363ffffffff160217905550338360010160006101000a81548173ffffffffffffffffffffffffffffffffffffffff021916908373ffffffffffffffffffffffffffffffffffffffff160217905550826002016000611acb9190613af7565b826003016000611adb9190613b1b565b600082604001515190506000836060015151905060005b82811015611ba6578560020185604001518281518110611b1557611b146145e0565b5b6020026020010151908060018154018082558091505060019003906000526020600020906002020160009091909190915060008201518160000160006101000a81548173ffffffffffffffffffffffffffffffffffffffff021916908373ffffffffffffffffffffffffffffffffffffffff1602179055506020820151816001015550508080600101915050611af2565b5060005b81811015611f19576000600260008a63ffffffff1663ffffffff168152602001908152602001600020600301600181600181540180825580915050039060005260206000209060070201905085606001518281518110611c0d57611c0c6145e0565b5b602002602001015160000151816000019081611c2991906154fc565b5085606001518281518110611c4157611c406145e0565b5b6020026020010151602001518160010160006101000a81548173ffffffffffffffffffffffffffffffffffffffff021916908373ffffffffffffffffffffffffffffffffffffffff16021790555085606001518281518110611ca657611ca56145e0565b5b602002602001015160400151816002018190555085606001518281518110611cd157611cd06145e0565b5b6020026020010151606001518160030160006101000a81548160ff02191690831515021790555085606001518281518110611d0f57611d0e6145e0565b5b602002602001015160a00151816005018190555085606001518281518110611d3a57611d396145e0565b5b602002602001015160c001518160060181905550600086606001518381518110611d6757611d666145e0565b5b60200260200101516080015151905060005b81811015611f09578260040160405180606001604052808a606001518781518110611da757611da66145e0565b5b6020026020010151608001518481518110611dc557611dc46145e0565b5b60200260200101516000015173ffffffffffffffffffffffffffffffffffffffff1681526020018a606001518781518110611e0357611e026145e0565b5b6020026020010151608001518481518110611e2157611e206145e0565b5b60200260200101516020015181526020018a606001518781518110611e4957611e486145e0565b5b6020026020010151608001518481518110611e6757611e666145e0565b5b602002602001015160400151815250908060018154018082558091505060019003906000526020600020906003020160009091909190915060008201518160000160006101000a81548173ffffffffffffffffffffffffffffffffffffffff021916908373ffffffffffffffffffffffffffffffffffffffff160217905550602082015181600101556040820151816002015550508080600101915050611d79565b5050508080600101915050611baa565b50836020015173ffffffffffffffffffffffffffffffffffffffff167f41333d535ecc89f2d33b1d5f30416f34ba3c7d0bbf7aaea28a3b7c330969379b88604051611f649190614794565b60405180910390a25050611fa5565b6040517f785736c800000000000000000000000000000000000000000000000000000000815260040160405180910390fd5b505050611fb06136fd565b5050565b818190508484905014611ffc576040517f08c379a0000000000000000000000000000000000000000000000000000000008152600401611ff39061561a565b60405180910390fd5b60005b848490508110156120bc5782828281811061201d5761201c6145e0565b5b9050602002016020810190612032919061564f565b600b6000878785818110612049576120486145e0565b5b905060200201602081019061205e9190613e42565b73ffffffffffffffffffffffffffffffffffffffff1673ffffffffffffffffffffffffffffffffffffffff16815260200190815260200160002060006101000a81548160ff0219169083151502179055508080600101915050611fff565b5050505050565b6120cb613665565b6120d36136bc565b73__$50e9592bd68e5211c3a496048a4809ad3a$__63bc018c4082600660003373ffffffffffffffffffffffffffffffffffffffff1673ffffffffffffffffffffffffffffffffffffffff16815260200190815260200160002060009054906101000a900473ffffffffffffffffffffffffffffffffffffffff166040518363ffffffff1660e01b815260040161216b9291906152bf565b602060405180830381865af4158015612188573d6000803e3d6000fd5b505050506040513d601f19601f820116820180604052508101906121ac9190614738565b6121e2576040517ff08f7bd800000000000000000000000000000000000000000000000000000000815260040160405180910390fd5b600073__$50e9592bd68e5211c3a496048a4809ad3a$__636f7ac1e283806000019061220e91906149d4565b6040518363ffffffff1660e01b815260040161222b929190614a84565b608060405180830381865af4158015612248573d6000803e3d6000fd5b505050506040513d601f19601f8201168201806040525081019061226c9190615709565b905060008160400151116122b5576040517f08c379a00000000000000000000000000000000000000000000000000000000081526004016122ac906157a8565b60405180910390fd5b6122c281602001516115d2565b612301576040517f08c379a00000000000000000000000000000000000000000000000000000000081526004016122f890614867565b60405180910390fd5b600054816060015167ffffffffffffffff164261231e919061460f565b1061235e576040517f08c379a000000000000000000000000000000000000000000000000000000000815260040161235590615814565b60405180910390fd5b3373ffffffffffffffffffffffffffffffffffffffff16816000015173ffffffffffffffffffffffffffffffffffffffff16146123c7576040517ff08f7bd800000000000000000000000000000000000000000000000000000000815260040160405180910390fd5b82600660003373ffffffffffffffffffffffffffffffffffffffff1673ffffffffffffffffffffffffffffffffffffffff16815260200190815260200160002060006101000a81548173ffffffffffffffffffffffffffffffffffffffff021916908373ffffffffffffffffffffffffffffffffffffffff160217905550806020015173ffffffffffffffffffffffffffffffffffffffff1663a9059cbb3383604001516040518363ffffffff1660e01b81526004016124889291906146e3565b6020604051808303816000875af11580156124a7573d6000803e3d6000fd5b505050506040513d601f19601f820116820180604052508101906124cb9190614738565b61250a576040517f08c379a00000000000000000000000000000000000000000000000000000000081526004016125019061490a565b60405180910390fd5b806020015173ffffffffffffffffffffffffffffffffffffffff163373ffffffffffffffffffffffffffffffffffffffff167fd1c19fbcd4551a5edfb66d43d2e337c04837afda3482b42bdf569a8fccdae5fb836040015160405161256f9190613e7e565b60405180910390a3506125806136fd565b5050565b60026020528060005260406000206000915090508060000160009054906101000a900473ffffffffffffffffffffffffffffffffffffffff16908060010160009054906101000a900473ffffffffffffffffffffffffffffffffffffffff16908060010160149054906101000a900467ffffffffffffffff16908060040160009054906101000a900460ff16908060040160019054906101000a900463ffffffff16905085565b612633613665565b61263b6136bc565b6000836040015111612682576040517f08c379a0000000000000000000000000000000000000000000000000000000008152600401612679906147fb565b60405180910390fd5b3373ffffffffffffffffffffffffffffffffffffffff16836000015173ffffffffffffffffffffffffffffffffffffffff16146126f4576040517f08c379a00000000000000000000000000000000000000000000000000000000081526004016126eb90615880565b60405180910390fd5b61270183602001516115d2565b612740576040517f08c379a000000000000000000000000000000000000000000000000000000000815260040161273790614867565b60405180910390fd5b600054836060015167ffffffffffffffff164261275d919061460f565b1061279d576040517f08c379a000000000000000000000000000000000000000000000000000000000815260040161279490615814565b60405180910390fd5b600083600001518460200151856040015186606001516040516020016127c694939291906158a0565b60405160208183030381529060405280519060200120905073__$50e9592bd68e5211c3a496048a4809ad3a$__631e65bff4828585600760009054906101000a900473ffffffffffffffffffffffffffffffffffffffff166040518563ffffffff1660e01b815260040161283d94939291906158fe565b60006040518083038186803b15801561285557600080fd5b505af4158015612869573d6000803e3d6000fd5b50505050836020015173ffffffffffffffffffffffffffffffffffffffff1663a9059cbb3386604001516040518363ffffffff1660e01b81526004016128b09291906146e3565b6020604051808303816000875af11580156128cf573d6000803e3d6000fd5b505050506040513d601f19601f820116820180604052508101906128f39190614738565b612932576040517f08c379a00000000000000000000000000000000000000000000000000000000081526004016129299061490a565b60405180910390fd5b836020015173ffffffffffffffffffffffffffffffffffffffff163373ffffffffffffffffffffffffffffffffffffffff167fd1c19fbcd4551a5edfb66d43d2e337c04837afda3482b42bdf569a8fccdae5fb86604001516040516129979190613e7e565b60405180910390a3506129a86136fd565b505050565b6129b5613716565b6008819080600181540180825580915050600190039060005260206000200160009091909190916101000a81548173ffffffffffffffffffffffffffffffffffffffff021916908373ffffffffffffffffffffffffffffffffffffffff1602179055508073ffffffffffffffffffffffffffffffffffffffff167f784c8f4dbf0ffedd6e72c76501c545a70f8b203b30a26ce542bf92ba87c248a460405160405180910390a250565b600b6020528060005260406000206000915054906101000a900460ff1681565b600a602052816000526040600020602052806000526040600020600091509150505481565b60066020528060005260406000206000915054906101000a900473ffffffffffffffffffffffffffffffffffffffff1681565b612ade613665565b612ae66136bc565b73__$50e9592bd68e5211c3a496048a4809ad3a$__63bc018c4082600660003373ffffffffffffffffffffffffffffffffffffffff1673ffffffffffffffffffffffffffffffffffffffff16815260200190815260200160002060009054906101000a900473ffffffffffffffffffffffffffffffffffffffff166040518363ffffffff1660e01b8152600401612b7e9291906152bf565b602060405180830381865af4158015612b9b573d6000803e3d6000fd5b505050506040513d601f19601f82011682018060405250810190612bbf9190614738565b612bf5576040517ff08f7bd800000000000000000000000000000000000000000000000000000000815260040160405180910390fd5b600073__$50e9592bd68e5211c3a496048a4809ad3a$__636eccd9c0838060000190612c2191906149d4565b6040518363ffffffff1660e01b8152600401612c3e929190614a84565b600060405180830381865af4158015612c5b573d6000803e3d6000fd5b505050506040513d6000823e3d601f19601f82011682018060405250810190612c8491906150b2565b90503373ffffffffffffffffffffffffffffffffffffffff16816020015173ffffffffffffffffffffffffffffffffffffffff1614612cef576040517ff08f7bd800000000000000000000000000000000000000000000000000000000815260040160405180910390fd5b60018060009054906101000a900463ffffffff16612d0d919061593e565b600160006101000a81548163ffffffff021916908363ffffffff1602179055506000600160009054906101000a900463ffffffff16905042600260008363ffffffff1663ffffffff16815260200190815260200160002060010160146101000a81548167ffffffffffffffff021916908367ffffffffffffffff160217905550600082604001515190506000836060015151905060005b81811015613113576000600260008663ffffffff1663ffffffff168152602001908152602001600020600301600181600181540180825580915050039060005260206000209060070201905085606001518281518110612e0757612e066145e0565b5b602002602001015160000151816000019081612e2391906154fc565b5085606001518281518110612e3b57612e3a6145e0565b5b6020026020010151602001518160010160006101000a81548173ffffffffffffffffffffffffffffffffffffffff021916908373ffffffffffffffffffffffffffffffffffffffff16021790555085606001518281518110612ea057612e9f6145e0565b5b602002602001015160400151816002018190555085606001518281518110612ecb57612eca6145e0565b5b6020026020010151606001518160030160006101000a81548160ff02191690831515021790555085606001518281518110612f0957612f086145e0565b5b602002602001015160a00151816005018190555085606001518281518110612f3457612f336145e0565b5b602002602001015160c001518160060181905550600086606001518381518110612f6157612f606145e0565b5b60200260200101516080015151905060005b81811015613103578260040160405180606001604052808a606001518781518110612fa157612fa06145e0565b5b6020026020010151608001518481518110612fbf57612fbe6145e0565b5b60200260200101516000015173ffffffffffffffffffffffffffffffffffffffff1681526020018a606001518781518110612ffd57612ffc6145e0565b5b602002602001015160800151848151811061301b5761301a6145e0565b5b60200260200101516020015181526020018a606001518781518110613043576130426145e0565b5b6020026020010151608001518481518110613061576130606145e0565b5b602002602001015160400151815250908060018154018082558091505060019003906000526020600020906003020160009091909190915060008201518160000160006101000a81548173ffffffffffffffffffffffffffffffffffffffff021916908373ffffffffffffffffffffffffffffffffffffffff160217905550602082015181600101556040820151816002015550508080600101915050612f73565b5050508080600101915050612da4565b5060005b828110156131e957600260008563ffffffff1663ffffffff16815260200190815260200160002060020185604001518281518110613158576131576145e0565b5b6020026020010151908060018154018082558091505060019003906000526020600020906002020160009091909190915060008201518160000160006101000a81548173ffffffffffffffffffffffffffffffffffffffff021916908373ffffffffffffffffffffffffffffffffffffffff1602179055506020820151816001015550508080600101915050613117565b5060008460000151905080600560008663ffffffff1663ffffffff16815260200190815260200160002060006101000a81548163ffffffff021916908363ffffffff16021790555061323b84336138c4565b50505050506132486136fd565b50565b600b60003373ffffffffffffffffffffffffffffffffffffffff1673ffffffffffffffffffffffffffffffffffffffff16815260200190815260200160002060009054906101000a900460ff166132d7576040517f08c379a00000000000000000000000000000000000000000000000000000000081526004016132ce906149a5565b60405180910390fd5b6132e0816115d2565b61331f576040517f08c379a000000000000000000000000000000000000000000000000000000000815260040161331690614867565b60405180910390fd5b8073ffffffffffffffffffffffffffffffffffffffff1663a9059cbb33600c60008573ffffffffffffffffffffffffffffffffffffffff1673ffffffffffffffffffffffffffffffffffffffff168152602001908152602001600020546040518363ffffffff1660e01b81526004016133999291906146e3565b6020604051808303816000875af11580156133b8573d6000803e3d6000fd5b505050506040513d601f19601f820116820180604052508101906133dc9190614738565b61341b576040517f08c379a00000000000000000000000000000000000000000000000000000000081526004016134129061490a565b60405180910390fd5b6000600c60008373ffffffffffffffffffffffffffffffffffffffff1673ffffffffffffffffffffffffffffffffffffffff168152602001908152602001600020819055508073ffffffffffffffffffffffffffffffffffffffff163373ffffffffffffffffffffffffffffffffffffffff167f87643e0436c867defcc7b4812259dde63cbe46038012cde1457289586e63acca600c60008573ffffffffffffffffffffffffffffffffffffffff1673ffffffffffffffffffffffffffffffffffffffff168152602001908152602001600020546040516134fc9190613e7e565b60405180910390a350565b61350f613716565b80600660008473ffffffffffffffffffffffffffffffffffffffff1673ffffffffffffffffffffffffffffffffffffffff16815260200190815260200160002060006101000a81548173ffffffffffffffffffffffffffffffffffffffff021916908373ffffffffffffffffffffffffffffffffffffffff1602179055505050565b613599613716565b600073ffffffffffffffffffffffffffffffffffffffff168173ffffffffffffffffffffffffffffffffffffffff160361360b5760006040517f1e4fbdf70000000000000000000000000000000000000000000000000000000081526004016136029190613f1e565b60405180910390fd5b613614816137c5565b50565b60007ff0c57e16840df040f15088dc2f81fe391c3923bec73e23a9662efc9c229c6a00905090565b6136476139ad565b613650816139ed565b50565b61365b6139ad565b613663613a73565b565b600061366f613aa7565b905060028160000154036136af576040517f3ee5aeb500000000000000000000000000000000000000000000000000000000815260040160405180910390fd5b6002816000018190555050565b6136c46110d5565b156136fb576040517fd93c066500000000000000000000000000000000000000000000000000000000815260040160405180910390fd5b565b6000613707613aa7565b90506001816000018190555050565b61371e613acf565b73ffffffffffffffffffffffffffffffffffffffff1661373c6116fe565b73ffffffffffffffffffffffffffffffffffffffff161461379b5761375f613acf565b6040517f118cdaa70000000000000000000000000000000000000000000000000000000081526004016137929190613f1e565b60405180910390fd5b565b60007fcd5ed15c6e187e77e9aee88184c21f4f2182ab5827cb3b7e07fbedcd63f03300905090565b60006137cf61389c565b905060008160000160009054906101000a900473ffffffffffffffffffffffffffffffffffffffff169050828260000160006101000a81548173ffffffffffffffffffffffffffffffffffffffff021916908373ffffffffffffffffffffffffffffffffffffffff1602179055508273ffffffffffffffffffffffffffffffffffffffff168173ffffffffffffffffffffffffffffffffffffffff167f8be0079c531659141344cd1fd0a4f28419497f9722a3daafe3b4186f6b6457e060405160405180910390a3505050565b60007f9016d09d72d40fdae2fd8ceac6b6234c7706214fd39c1cd1e609a0528c199300905090565b6000600260008463ffffffff1663ffffffff1681526020019081526020016000209050600160038111156138fb576138fa614765565b5b8160040160006101000a81548160ff021916908360ff160217905550818160000160006101000a81548173ffffffffffffffffffffffffffffffffffffffff021916908373ffffffffffffffffffffffffffffffffffffffff1602179055508173ffffffffffffffffffffffffffffffffffffffff167f2fdd05cb84b2efdbfb66efce92f66f26e7323b06b91ed693c764e01573436af9846040516139a09190614794565b60405180910390a2505050565b6139b5613ad7565b6139eb576040517fd7e6bcf800000000000000000000000000000000000000000000000000000000815260040160405180910390fd5b565b6139f56139ad565b600073ffffffffffffffffffffffffffffffffffffffff168173ffffffffffffffffffffffffffffffffffffffff1603613a675760006040517f1e4fbdf7000000000000000000000000000000000000000000000000000000008152600401613a5e9190613f1e565b60405180910390fd5b613a70816137c5565b50565b613a7b6139ad565b6000613a8561379d565b905060008160000160006101000a81548160ff02191690831515021790555050565b60007f9b779b17422d0df92223018b32b4d1fa46e071723d6817e2486d003becc55f00905090565b600033905090565b6000613ae1613617565b60000160089054906101000a900460ff16905090565b5080546000825560020290600052602060002090810190613b189190613b3f565b50565b5080546000825560070290600052602060002090810190613b3c9190613b85565b50565b5b80821115613b8157600080820160006101000a81549073ffffffffffffffffffffffffffffffffffffffff0219169055600182016000905550600201613b40565b5090565b5b80821115613c0b5760008082016000613b9f9190613c0f565b6001820160006101000a81549073ffffffffffffffffffffffffffffffffffffffff021916905560028201600090556003820160006101000a81549060ff0219169055600482016000613bf29190613c4f565b6005820160009055600682016000905550600701613b86565b5090565b508054613c1b90615329565b6000825580601f10613c2d5750613c4c565b601f016020900490600052602060002090810190613c4b9190613c73565b5b50565b5080546000825560030290600052602060002090810190613c709190613c90565b50565b5b80821115613c8c576000816000905550600101613c74565b5090565b5b80821115613cda57600080820160006101000a81549073ffffffffffffffffffffffffffffffffffffffff02191690556001820160009055600282016000905550600301613c91565b5090565b6000604051905090565b600080fd5b600080fd5b600073ffffffffffffffffffffffffffffffffffffffff82169050919050565b6000613d1d82613cf2565b9050919050565b613d2d81613d12565b8114613d3857600080fd5b50565b600081359050613d4a81613d24565b92915050565b6000819050919050565b613d6381613d50565b8114613d6e57600080fd5b50565b600081359050613d8081613d5a565b92915050565b600080600060608486031215613d9f57613d9e613ce8565b5b6000613dad86828701613d3b565b9350506020613dbe86828701613d3b565b9250506040613dcf86828701613d71565b9150509250925092565b600063ffffffff82169050919050565b613df281613dd9565b8114613dfd57600080fd5b50565b600081359050613e0f81613de9565b92915050565b600060208284031215613e2b57613e2a613ce8565b5b6000613e3984828501613e00565b91505092915050565b600060208284031215613e5857613e57613ce8565b5b6000613e6684828501613d3b565b91505092915050565b613e7881613d50565b82525050565b6000602082019050613e936000830184613e6f565b92915050565b60008060408385031215613eb057613eaf613ce8565b5b6000613ebe85828601613d3b565b9250506020613ecf85828601613d71565b9150509250929050565b60008115159050919050565b613eee81613ed9565b82525050565b6000602082019050613f096000830184613ee5565b92915050565b613f1881613d12565b82525050565b6000602082019050613f336000830184613f0f565b92915050565b600060208284031215613f4f57613f4e613ce8565b5b6000613f5d84828501613d71565b91505092915050565b600080fd5b600060608284031215613f8157613f80613f66565b5b81905092915050565b60008060408385031215613fa157613fa0613ce8565b5b6000613faf85828601613e00565b925050602083013567ffffffffffffffff811115613fd057613fcf613ced565b5b613fdc85828601613f6b565b9150509250929050565b600080fd5b600080fd5b600080fd5b60008083601f84011261400b5761400a613fe6565b5b8235905067ffffffffffffffff81111561402857614027613feb565b5b60208301915083602082028301111561404457614043613ff0565b5b9250929050565b60008083601f84011261406157614060613fe6565b5b8235905067ffffffffffffffff81111561407e5761407d613feb565b5b60208301915083602082028301111561409a57614099613ff0565b5b9250929050565b600080600080604085870312156140bb576140ba613ce8565b5b600085013567ffffffffffffffff8111156140d9576140d8613ced565b5b6140e587828801613ff5565b9450945050602085013567ffffffffffffffff81111561410857614107613ced565b5b6141148782880161404b565b925092505092959194509250565b6000806040838503121561413957614138613ce8565b5b600061414785828601613d3b565b925050602083013567ffffffffffffffff81111561416857614167613ced565b5b61417485828601613f6b565b9150509250929050565b600067ffffffffffffffff82169050919050565b61419b8161417e565b82525050565b600060ff82169050919050565b6141b7816141a1565b82525050565b6141c681613dd9565b82525050565b600060a0820190506141e16000830188613f0f565b6141ee6020830187613f0f565b6141fb6040830186614192565b61420860608301856141ae565b61421560808301846141bd565b9695505050505050565b600080fd5b6000601f19601f8301169050919050565b7f4e487b7100000000000000000000000000000000000000000000000000000000600052604160045260246000fd5b61426d82614224565b810181811067ffffffffffffffff8211171561428c5761428b614235565b5b80604052505050565b600061429f613cde565b90506142ab8282614264565b919050565b600080fd5b6142be8161417e565b81146142c957600080fd5b50565b6000813590506142db816142b5565b92915050565b6000608082840312156142f7576142f661421f565b5b6143016080614295565b9050600061431184828501613d3b565b600083015250602061432584828501613d3b565b602083015250604061433984828501613d71565b604083015250606061434d848285016142cc565b60608301525092915050565b60008083601f84011261436f5761436e613fe6565b5b8235905067ffffffffffffffff81111561438c5761438b613feb565b5b6020830191508360018202830111156143a8576143a7613ff0565b5b9250929050565b600080600060a084860312156143c8576143c7613ce8565b5b60006143d6868287016142e1565b935050608084013567ffffffffffffffff8111156143f7576143f6613ced565b5b61440386828701614359565b92509250509250925092565b6000806040838503121561442657614425613ce8565b5b600061443485828601613d3b565b925050602061444585828601613d3b565b9150509250929050565b60006020828403121561446557614464613ce8565b5b600082013567ffffffffffffffff81111561448357614482613ced565b5b61448f84828501613f6b565b91505092915050565b6000819050919050565b6000819050919050565b60006144c76144c26144bd84614498565b6144a2565b61417e565b9050919050565b6144d7816144ac565b82525050565b60006020820190506144f260008301846144ce565b92915050565b7f4e487b7100000000000000000000000000000000000000000000000000000000600052601160045260246000fd5b60006145328261417e565b915061453d8361417e565b9250828201905067ffffffffffffffff81111561455d5761455c6144f8565b5b92915050565b600082825260208201905092915050565b7f446973707574652077696e646f7720636c6f7365640000000000000000000000600082015250565b60006145aa601583614563565b91506145b582614574565b602082019050919050565b600060208201905081810360008301526145d98161459d565b9050919050565b7f4e487b7100000000000000000000000000000000000000000000000000000000600052603260045260246000fd5b600061461a82613d50565b915061462583613d50565b925082820390508181111561463d5761463c6144f8565b5b92915050565b7f496e73756666696369656e74206c697175696469747900000000000000000000600082015250565b6000614679601683614563565b915061468482614643565b602082019050919050565b600060208201905081810360008301526146a88161466c565b9050919050565b60006146ba82613d50565b91506146c583613d50565b92508282019050808211156146dd576146dc6144f8565b5b92915050565b60006040820190506146f86000830185613f0f565b6147056020830184613e6f565b9392505050565b61471581613ed9565b811461472057600080fd5b50565b6000815190506147328161470c565b92915050565b60006020828403121561474e5761474d613ce8565b5b600061475c84828501614723565b91505092915050565b7f4e487b7100000000000000000000000000000000000000000000000000000000600052602160045260246000fd5b60006020820190506147a960008301846141bd565b92915050565b7f416d6f756e74206d7573742062652067726561746572207468616e207a65726f600082015250565b60006147e5602083614563565b91506147f0826147af565b602082019050919050565b60006020820190508181036000830152614814816147d8565b9050919050565b7f546f6b656e206e6f7420737570706f7274656400000000000000000000000000600082015250565b6000614851601383614563565b915061485c8261481b565b602082019050919050565b6000602082019050818103600083015261488081614844565b9050919050565b600060608201905061489c6000830186613f0f565b6148a96020830185613f0f565b6148b66040830184613e6f565b949350505050565b7f5472616e73666572206661696c65640000000000000000000000000000000000600082015250565b60006148f4600f83614563565b91506148ff826148be565b602082019050919050565b60006020820190508181036000830152614923816148e7565b9050919050565b7f4e487b7100000000000000000000000000000000000000000000000000000000600052603160045260246000fd5b7f4e6f74204c502070726f76696465720000000000000000000000000000000000600082015250565b600061498f600f83614563565b915061499a82614959565b602082019050919050565b600060208201905081810360008301526149be81614982565b9050919050565b600080fd5b600080fd5b600080fd5b600080833560016020038436030381126149f1576149f06149c5565b5b80840192508235915067ffffffffffffffff821115614a1357614a126149ca565b5b602083019250600182023603831315614a2f57614a2e6149cf565b5b509250929050565b600082825260208201905092915050565b82818337600083830152505050565b6000614a638385614a37565b9350614a70838584614a48565b614a7983614224565b840190509392505050565b60006020820190508181036000830152614a9f818486614a57565b90509392505050565b600081519050614ab781613de9565b92915050565b600081519050614acc81613d24565b92915050565b600067ffffffffffffffff821115614aed57614aec614235565b5b602082029050602081019050919050565b600081519050614b0d81613d5a565b92915050565b600060408284031215614b2957614b2861421f565b5b614b336040614295565b90506000614b4384828501614abd565b6000830152506020614b5784828501614afe565b60208301525092915050565b6000614b76614b7184614ad2565b614295565b90508083825260208201905060408402830185811115614b9957614b98613ff0565b5b835b81811015614bc25780614bae8882614b13565b845260208401935050604081019050614b9b565b5050509392505050565b600082601f830112614be157614be0613fe6565b5b8151614bf1848260208601614b63565b91505092915050565b600067ffffffffffffffff821115614c1557614c14614235565b5b602082029050602081019050919050565b600080fd5b600067ffffffffffffffff821115614c4657614c45614235565b5b614c4f82614224565b9050602081019050919050565b60005b83811015614c7a578082015181840152602081019050614c5f565b60008484015250505050565b6000614c99614c9484614c2b565b614295565b905082815260208101848484011115614cb557614cb4614c26565b5b614cc0848285614c5c565b509392505050565b600082601f830112614cdd57614cdc613fe6565b5b8151614ced848260208601614c86565b91505092915050565b600067ffffffffffffffff821115614d1157614d10614235565b5b602082029050602081019050919050565b600060608284031215614d3857614d3761421f565b5b614d426060614295565b90506000614d5284828501614abd565b6000830152506020614d6684828501614afe565b6020830152506040614d7a84828501614afe565b60408301525092915050565b6000614d99614d9484614cf6565b614295565b90508083825260208201905060608402830185811115614dbc57614dbb613ff0565b5b835b81811015614de55780614dd18882614d22565b845260208401935050606081019050614dbe565b5050509392505050565b600082601f830112614e0457614e03613fe6565b5b8151614e14848260208601614d86565b91505092915050565b600060e08284031215614e3357614e3261421f565b5b614e3d60e0614295565b9050600082015167ffffffffffffffff811115614e5d57614e5c6142b0565b5b614e6984828501614cc8565b6000830152506020614e7d84828501614abd565b6020830152506040614e9184828501614afe565b6040830152506060614ea584828501614723565b606083015250608082015167ffffffffffffffff811115614ec957614ec86142b0565b5b614ed584828501614def565b60808301525060a0614ee984828501614afe565b60a08301525060c0614efd84828501614afe565b60c08301525092915050565b6000614f1c614f1784614bfa565b614295565b90508083825260208201905060208402830185811115614f3f57614f3e613ff0565b5b835b81811015614f8657805167ffffffffffffffff811115614f6457614f63613fe6565b5b808601614f718982614e1d565b85526020850194505050602081019050614f41565b5050509392505050565b600082601f830112614fa557614fa4613fe6565b5b8151614fb5848260208601614f09565b91505092915050565b600060c08284031215614fd457614fd361421f565b5b614fde60c0614295565b90506000614fee84828501614aa8565b600083015250602061500284828501614abd565b602083015250604082015167ffffffffffffffff811115615026576150256142b0565b5b61503284828501614bcc565b604083015250606082015167ffffffffffffffff811115615056576150556142b0565b5b61506284828501614f90565b606083015250608082015167ffffffffffffffff811115615086576150856142b0565b5b61509284828501614cc8565b60808301525060a06150a684828501614afe565b60a08301525092915050565b6000602082840312156150c8576150c7613ce8565b5b600082015167ffffffffffffffff8111156150e6576150e5613ced565b5b6150f284828501614fbe565b91505092915050565b7f496e76616c696420646973707574652073746174757300000000000000000000600082015250565b6000615131601683614563565b915061513c826150fb565b602082019050919050565b6000602082019050818103600083015261516081615124565b9050919050565b600080fd5b600080fd5b600080fd5b6000808335600160200384360303811261519357615192615171565b5b83810192508235915060208301925067ffffffffffffffff8211156151bb576151ba615167565b5b6001820236038313156151d1576151d061516c565b5b509250929050565b600082825260208201905092915050565b60006151f683856151d9565b9350615203838584614a48565b61520c83614224565b840190509392505050565b60006152266020840184613d3b565b905092915050565b61523781613d12565b82525050565b6000606083016152506000840184615176565b85830360008701526152638382846151ea565b925050506152746020840184615176565b85830360208701526152878382846151ea565b925050506152986040840184615217565b6152a5604086018261522e565b508091505092915050565b6152b981613d12565b82525050565b600060408201905081810360008301526152d9818561523d565b90506152e860208301846152b0565b9392505050565b600081519050919050565b7f4e487b7100000000000000000000000000000000000000000000000000000000600052602260045260246000fd5b6000600282049050600182168061534157607f821691505b602082108103615354576153536152fa565b5b50919050565b60008190508160005260206000209050919050565b60006020601f8301049050919050565b600082821b905092915050565b6000600883026153bc7fffffffffffffffffffffffffffffffffffffffffffffffffffffffffffffffff8261537f565b6153c6868361537f565b95508019841693508086168417925050509392505050565b60006153f96153f46153ef84613d50565b6144a2565b613d50565b9050919050565b6000819050919050565b615413836153de565b61542761541f82615400565b84845461538c565b825550505050565b600090565b61543c61542f565b61544781848461540a565b505050565b5b8181101561546b57615460600082615434565b60018101905061544d565b5050565b601f8211156154b0576154818161535a565b61548a8461536f565b81016020851015615499578190505b6154ad6154a58561536f565b83018261544c565b50505b505050565b600082821c905092915050565b60006154d3600019846008026154b5565b1980831691505092915050565b60006154ec83836154c2565b9150826002028217905092915050565b615505826152ef565b67ffffffffffffffff81111561551e5761551d614235565b5b6155288254615329565b61553382828561546f565b600060209050601f8311600181146155665760008415615554578287015190505b61555e85826154e0565b8655506155c6565b601f1984166155748661535a565b60005b8281101561559c57848901518255600182019150602085019450602081019050615577565b868310156155b957848901516155b5601f8916826154c2565b8355505b6001600288020188555050505b505050505050565b7f496e76616c696420696e70757400000000000000000000000000000000000000600082015250565b6000615604600d83614563565b915061560f826155ce565b602082019050919050565b60006020820190508181036000830152615633816155f7565b9050919050565b6000813590506156498161470c565b92915050565b60006020828403121561566557615664613ce8565b5b60006156738482850161563a565b91505092915050565b60008151905061568b816142b5565b92915050565b6000608082840312156156a7576156a661421f565b5b6156b16080614295565b905060006156c184828501614abd565b60008301525060206156d584828501614abd565b60208301525060406156e984828501614afe565b60408301525060606156fd8482850161567c565b60608301525092915050565b60006080828403121561571f5761571e613ce8565b5b600061572d84828501615691565b91505092915050565b7f416d6f756e74206d7573742062796573652067726561746572207468616e207a60008201527f65726f0000000000000000000000000000000000000000000000000000000000602082015250565b6000615792602383614563565b915061579d82615736565b604082019050919050565b600060208201905081810360008301526157c181615785565b9050919050565b7f5369676e61747572652045787069726564000000000000000000000000000000600082015250565b60006157fe601183614563565b9150615809826157c8565b602082019050919050565b6000602082019050818103600083015261582d816157f1565b9050919050565b7f43616c6c6572206e6f7420636f72726563740000000000000000000000000000600082015250565b600061586a601283614563565b915061587582615834565b602082019050919050565b600060208201905081810360008301526158998161585d565b9050919050565b60006080820190506158b56000830187613f0f565b6158c26020830186613f0f565b6158cf6040830185613e6f565b6158dc6060830184614192565b95945050505050565b6000819050919050565b6158f8816158e5565b82525050565b600060608201905061591360008301876158ef565b8181036020830152615926818587614a57565b905061593560408301846152b0565b95945050505050565b600061594982613dd9565b915061595483613dd9565b9250828201905063ffffffff8111156159705761596f6144f8565b5b9291505056fea26469706673582212204d3289405667d7ad09acbd3e6f9695e1418332fba39df276bfb5fda702c0aa8a64736f6c63430008180033",
  "linkReferences": {
    "contracts/0xVault/libs/Crypto.sol": {
      "Crypto": [
        {
          "length": 20,
          "start": 6030
        },
        {
          "length": 20,
          "start": 6394
        },
        {
          "length": 20,
          "start": 8438
        },
        {
          "length": 20,
          "start": 8711
        },
        {
          "length": 20,
          "start": 10241
        },
        {
          "length": 20,
          "start": 11017
        },
        {
          "length": 20,
          "start": 11290
        }
      ]
    }
  },
  "deployedLinkReferences": {
    "contracts/0xVault/libs/Crypto.sol": {
      "Crypto": [
        {
          "length": 20,
          "start": 5997
        },
        {
          "length": 20,
          "start": 6361
        },
        {
          "length": 20,
          "start": 8405
        },
        {
          "length": 20,
          "start": 8678
        },
        {
          "length": 20,
          "start": 10208
        },
        {
          "length": 20,
          "start": 10984
        },
        {
          "length": 20,
          "start": 11257
        }
      ]
    }
  }
}