{
  "_format": "hh-sol-artifact-1",
  "contractName": "Vault",
  "sourceName": "contracts/0xVault/Vault.sol",
  "abi": [
    {
      "inputs": [],
      "name": "DataNotVerified",
      "type": "error"
    },
    {
      "inputs": [],
      "name": "DisputeChallengeFailed",
      "type": "error"
    },
    {
      "inputs": [],
      "name": "ECRecoverFailed",
      "type": "error"
    },
    {
      "inputs": [],
      "name": "EnforcedPause",
      "type": "error"
    },
    {
      "inputs": [],
      "name": "ExpectedPause",
      "type": "error"
    },
    {
      "inputs": [],
      "name": "InvalidAddress",
      "type": "error"
    },
    {
      "inputs": [],
      "name": "InvalidInitialization",
      "type": "error"
    },
    {
      "inputs": [],
      "name": "InvalidSP",
      "type": "error"
    },
    {
      "inputs": [],
      "name": "InvalidSchnorrSignature",
      "type": "error"
    },
    {
      "inputs": [],
      "name": "InvalidSignature",
      "type": "error"
    },
    {
      "inputs": [],
      "name": "InvalidUsedSignature",
      "type": "error"
    },
    {
      "inputs": [],
      "name": "NotInitializing",
      "type": "error"
    },
    {
      "inputs": [
        {
          "internalType": "address",
          "name": "owner",
          "type": "address"
        }
      ],
      "name": "OwnableInvalidOwner",
      "type": "error"
    },
    {
      "inputs": [
        {
          "internalType": "address",
          "name": "account",
          "type": "address"
        }
      ],
      "name": "OwnableUnauthorizedAccount",
      "type": "error"
    },
    {
      "inputs": [],
      "name": "ReentrancyGuardReentrantCall",
      "type": "error"
    },
    {
      "inputs": [],
      "name": "SettleDisputeFailed",
      "type": "error"
    },
    {
      "anonymous": false,
      "inputs": [
        {
          "indexed": true,
          "internalType": "address",
          "name": "user",
          "type": "address"
        },
        {
          "indexed": true,
          "internalType": "address",
          "name": "token",
          "type": "address"
        },
        {
          "indexed": false,
          "internalType": "uint256",
          "name": "amount",
          "type": "uint256"
        }
      ],
      "name": "Deposited",
      "type": "event"
    },
    {
      "anonymous": false,
      "inputs": [
        {
          "indexed": false,
          "internalType": "uint32",
          "name": "requestId",
          "type": "uint32"
        },
        {
          "indexed": true,
          "internalType": "address",
          "name": "user",
          "type": "address"
        }
      ],
      "name": "DisputeChallenged",
      "type": "event"
    },
    {
      "anonymous": false,
      "inputs": [
        {
          "indexed": false,
          "internalType": "uint32",
          "name": "requestId",
          "type": "uint32"
        },
        {
          "indexed": true,
          "internalType": "address",
          "name": "user",
          "type": "address"
        }
      ],
      "name": "DisputeOpened",
      "type": "event"
    },
    {
      "anonymous": false,
      "inputs": [
        {
          "indexed": false,
          "internalType": "uint32",
          "name": "requestId",
          "type": "uint32"
        },
        {
          "indexed": true,
          "internalType": "address",
          "name": "user",
          "type": "address"
        }
      ],
      "name": "DisputeSettled",
      "type": "event"
    },
    {
      "anonymous": false,
      "inputs": [
        {
          "indexed": false,
          "internalType": "uint64",
          "name": "version",
          "type": "uint64"
        }
      ],
      "name": "Initialized",
      "type": "event"
    },
    {
      "anonymous": false,
      "inputs": [
        {
          "indexed": true,
          "internalType": "address",
          "name": "user",
          "type": "address"
        },
        {
          "indexed": true,
          "internalType": "address",
          "name": "token",
          "type": "address"
        },
        {
          "indexed": false,
          "internalType": "uint256",
          "name": "amount",
          "type": "uint256"
        }
      ],
      "name": "LPProvided",
      "type": "event"
    },
    {
      "anonymous": false,
      "inputs": [
        {
          "indexed": true,
          "internalType": "address",
          "name": "user",
          "type": "address"
        },
        {
          "indexed": true,
          "internalType": "address",
          "name": "token",
          "type": "address"
        },
        {
          "indexed": false,
          "internalType": "uint256",
          "name": "amount",
          "type": "uint256"
        }
      ],
      "name": "LPWithdrawn",
      "type": "event"
    },
    {
      "anonymous": false,
      "inputs": [
        {
          "indexed": true,
          "internalType": "address",
          "name": "previousOwner",
          "type": "address"
        },
        {
          "indexed": true,
          "internalType": "address",
          "name": "newOwner",
          "type": "address"
        }
      ],
      "name": "OwnershipTransferred",
      "type": "event"
    },
    {
      "anonymous": false,
      "inputs": [
        {
          "indexed": true,
          "internalType": "address",
          "name": "user",
          "type": "address"
        },
        {
          "indexed": true,
          "internalType": "address",
          "name": "token",
          "type": "address"
        },
        {
          "indexed": false,
          "internalType": "uint256",
          "name": "amount",
          "type": "uint256"
        }
      ],
      "name": "PartialLiquidation",
      "type": "event"
    },
    {
      "anonymous": false,
      "inputs": [
        {
          "indexed": false,
          "internalType": "address",
          "name": "account",
          "type": "address"
        }
      ],
      "name": "Paused",
      "type": "event"
    },
    {
      "anonymous": false,
      "inputs": [
        {
          "indexed": false,
          "internalType": "uint32",
          "name": "requestId",
          "type": "uint32"
        },
        {
          "indexed": true,
          "internalType": "address",
          "name": "user",
          "type": "address"
        }
      ],
      "name": "PositionDisputeChallenged",
      "type": "event"
    },
    {
      "anonymous": false,
      "inputs": [
        {
          "indexed": true,
          "internalType": "address",
          "name": "token",
          "type": "address"
        }
      ],
      "name": "TokenAdded",
      "type": "event"
    },
    {
      "anonymous": false,
      "inputs": [
        {
          "indexed": true,
          "internalType": "address",
          "name": "token",
          "type": "address"
        }
      ],
      "name": "TokenRemoved",
      "type": "event"
    },
    {
      "anonymous": false,
      "inputs": [
        {
          "indexed": false,
          "internalType": "address",
          "name": "account",
          "type": "address"
        }
      ],
      "name": "Unpaused",
      "type": "event"
    },
    {
      "anonymous": false,
      "inputs": [
        {
          "indexed": true,
          "internalType": "address",
          "name": "user",
          "type": "address"
        },
        {
          "indexed": true,
          "internalType": "address",
          "name": "token",
          "type": "address"
        },
        {
          "indexed": false,
          "internalType": "uint256",
          "name": "amount",
          "type": "uint256"
        },
        {
          "indexed": false,
          "internalType": "uint32",
          "name": "requestId",
          "type": "uint32"
        }
      ],
      "name": "WithdrawalRequested",
      "type": "event"
    },
    {
      "anonymous": false,
      "inputs": [
        {
          "indexed": true,
          "internalType": "address",
          "name": "user",
          "type": "address"
        },
        {
          "indexed": true,
          "internalType": "address",
          "name": "token",
          "type": "address"
        },
        {
          "indexed": false,
          "internalType": "uint256",
          "name": "amount",
          "type": "uint256"
        }
      ],
      "name": "Withdrawn",
      "type": "event"
    },
    {
      "inputs": [
        {
          "internalType": "uint32",
          "name": "",
          "type": "uint32"
        }
      ],
      "name": "_disputes",
      "outputs": [
        {
          "internalType": "address",
          "name": "user",
          "type": "address"
        },
        {
          "internalType": "address",
          "name": "challenger",
          "type": "address"
        },
        {
          "internalType": "uint64",
          "name": "timestamp",
          "type": "uint64"
        },
        {
          "internalType": "uint8",
          "name": "status",
          "type": "uint8"
        },
        {
          "internalType": "uint32",
          "name": "sessionId",
          "type": "uint32"
        }
      ],
      "stateMutability": "view",
      "type": "function"
    },
    {
      "inputs": [
        {
          "internalType": "uint32",
          "name": "requestId",
          "type": "uint32"
        },
        {
          "components": [
            {
              "internalType": "bytes",
              "name": "data",
              "type": "bytes"
            },
            {
              "internalType": "bytes",
              "name": "signature",
              "type": "bytes"
            },
            {
              "internalType": "address",
              "name": "combinedPublicKey",
              "type": "address"
            }
          ],
          "internalType": "struct Crypto.SchnorrSignature",
          "name": "_schnorr",
          "type": "tuple"
        }
      ],
      "name": "challengeDispute",
      "outputs": [],
      "stateMutability": "nonpayable",
      "type": "function"
    },
    {
      "inputs": [
        {
          "internalType": "address",
          "name": "",
          "type": "address"
        }
      ],
      "name": "combinedPublicKey",
      "outputs": [
        {
          "internalType": "address",
          "name": "",
          "type": "address"
        }
      ],
      "stateMutability": "view",
      "type": "function"
    },
    {
      "inputs": [
        {
          "internalType": "address",
          "name": "token",
          "type": "address"
        },
        {
          "internalType": "uint256",
          "name": "amount",
          "type": "uint256"
        }
      ],
      "name": "deposit",
      "outputs": [],
      "stateMutability": "nonpayable",
      "type": "function"
    },
    {
      "inputs": [
        {
          "internalType": "address",
          "name": "",
          "type": "address"
        },
        {
          "internalType": "address",
          "name": "",
          "type": "address"
        }
      ],
      "name": "depositedAmount",
      "outputs": [
        {
          "internalType": "uint256",
          "name": "",
          "type": "uint256"
        }
      ],
      "stateMutability": "view",
      "type": "function"
    },
    {
      "inputs": [],
      "name": "dexSupporter",
      "outputs": [
        {
          "internalType": "address",
          "name": "",
          "type": "address"
        }
      ],
      "stateMutability": "view",
      "type": "function"
    },
    {
      "inputs": [
        {
          "internalType": "uint32",
          "name": "requestId",
          "type": "uint32"
        }
      ],
      "name": "getDisputeBalances",
      "outputs": [
        {
          "components": [
            {
              "internalType": "uint256",
              "name": "oracleId",
              "type": "uint256"
            },
            {
              "internalType": "address",
              "name": "addr",
              "type": "address"
            },
            {
              "internalType": "uint256",
              "name": "balance",
              "type": "uint256"
            }
          ],
          "internalType": "struct Crypto.Balance[]",
          "name": "",
          "type": "tuple[]"
        }
      ],
      "stateMutability": "view",
      "type": "function"
    },
    {
      "inputs": [
        {
          "internalType": "uint32",
          "name": "requestId",
          "type": "uint32"
        }
      ],
      "name": "getDisputePositions",
      "outputs": [
        {
          "components": [
            {
              "internalType": "string",
              "name": "positionId",
              "type": "string"
            },
            {
              "internalType": "uint256",
              "name": "oracleId",
              "type": "uint256"
            },
            {
              "internalType": "address",
              "name": "token",
              "type": "address"
            },
            {
              "internalType": "uint256",
              "name": "quantity",
              "type": "uint256"
            },
            {
              "internalType": "uint256",
              "name": "leverageFactor",
              "type": "uint256"
            },
            {
              "internalType": "string",
              "name": "leverageType",
              "type": "string"
            },
            {
              "internalType": "bool",
              "name": "isLong",
              "type": "bool"
            },
            {
              "components": [
                {
                  "internalType": "uint256",
                  "name": "oracleId",
                  "type": "uint256"
                },
                {
                  "internalType": "address",
                  "name": "token",
                  "type": "address"
                },
                {
                  "internalType": "uint256",
                  "name": "quantity",
                  "type": "uint256"
                },
                {
                  "internalType": "uint256",
                  "name": "entryPrice",
                  "type": "uint256"
                }
              ],
              "internalType": "struct Crypto.Collateral[]",
              "name": "collaterals",
              "type": "tuple[]"
            },
            {
              "internalType": "uint256",
              "name": "entryPrice",
              "type": "uint256"
            },
            {
              "internalType": "uint256",
              "name": "createdTimestamp",
              "type": "uint256"
            }
          ],
          "internalType": "struct Crypto.Position[]",
          "name": "",
          "type": "tuple[]"
        }
      ],
      "stateMutability": "view",
      "type": "function"
    },
    {
      "inputs": [
        {
          "internalType": "uint32",
          "name": "requestId",
          "type": "uint32"
        }
      ],
      "name": "getDisputeStatus",
      "outputs": [
        {
          "internalType": "bool",
          "name": "isOpenDispute",
          "type": "bool"
        },
        {
          "internalType": "uint64",
          "name": "timestamp",
          "type": "uint64"
        },
        {
          "internalType": "address",
          "name": "user",
          "type": "address"
        }
      ],
      "stateMutability": "view",
      "type": "function"
    },
    {
      "inputs": [
        {
          "internalType": "address",
          "name": "_owner",
          "type": "address"
        },
        {
          "internalType": "uint256",
          "name": "_signatureExpiryTime",
          "type": "uint256"
        },
        {
          "internalType": "address",
          "name": "_lpProvider",
          "type": "address"
        },
        {
          "internalType": "address",
          "name": "_dexSupporter",
          "type": "address"
        }
      ],
      "name": "initialize",
      "outputs": [],
      "stateMutability": "nonpayable",
      "type": "function"
    },
    {
      "inputs": [
        {
          "internalType": "address",
          "name": "",
          "type": "address"
        }
      ],
      "name": "isTokenSupported",
      "outputs": [
        {
          "internalType": "bool",
          "name": "",
          "type": "bool"
        }
      ],
      "stateMutability": "view",
      "type": "function"
    },
    {
      "inputs": [],
      "name": "lpProvider",
      "outputs": [
        {
          "internalType": "address",
          "name": "",
          "type": "address"
        }
      ],
      "stateMutability": "view",
      "type": "function"
    },
    {
      "inputs": [],
      "name": "owner",
      "outputs": [
        {
          "internalType": "address",
          "name": "",
          "type": "address"
        }
      ],
      "stateMutability": "view",
      "type": "function"
    },
    {
      "inputs": [],
      "name": "paused",
      "outputs": [
        {
          "internalType": "bool",
          "name": "",
          "type": "bool"
        }
      ],
      "stateMutability": "view",
      "type": "function"
    },
    {
      "inputs": [],
      "name": "renounceOwnership",
      "outputs": [],
      "stateMutability": "nonpayable",
      "type": "function"
    },
    {
      "inputs": [
        {
          "internalType": "address",
          "name": "_user",
          "type": "address"
        },
        {
          "internalType": "address",
          "name": "_combinedPublicKey",
          "type": "address"
        }
      ],
      "name": "setCombinedPublicKey",
      "outputs": [],
      "stateMutability": "nonpayable",
      "type": "function"
    },
    {
      "inputs": [
        {
          "internalType": "address",
          "name": "_dexSupporter",
          "type": "address"
        }
      ],
      "name": "setDexSupporter",
      "outputs": [],
      "stateMutability": "nonpayable",
      "type": "function"
    },
    {
      "inputs": [
        {
          "internalType": "address",
          "name": "_lpProvider",
          "type": "address"
        }
      ],
      "name": "setLpProvider",
      "outputs": [],
      "stateMutability": "nonpayable",
      "type": "function"
    },
    {
      "inputs": [
        {
          "internalType": "uint256",
          "name": "_expiryTime",
          "type": "uint256"
        }
      ],
      "name": "setSignatureExpiryTime",
      "outputs": [],
      "stateMutability": "nonpayable",
      "type": "function"
    },
    {
      "inputs": [
        {
          "internalType": "address",
          "name": "token",
          "type": "address"
        },
        {
          "internalType": "bool",
          "name": "isSupported",
          "type": "bool"
        }
      ],
      "name": "setSupportedToken",
      "outputs": [],
      "stateMutability": "nonpayable",
      "type": "function"
    },
    {
      "inputs": [
        {
          "internalType": "uint32",
          "name": "requestId",
          "type": "uint32"
        },
        {
          "internalType": "uint256[]",
          "name": "updatedBalances",
          "type": "uint256[]"
        },
        {
          "internalType": "uint256[]",
          "name": "pnlValues",
          "type": "uint256[]"
        },
        {
          "internalType": "bool[]",
          "name": "isProfits",
          "type": "bool[]"
        }
      ],
      "name": "settleDisputeResult",
      "outputs": [],
      "stateMutability": "nonpayable",
      "type": "function"
    },
    {
      "inputs": [],
      "name": "signatureExpiryTime",
      "outputs": [
        {
          "internalType": "uint256",
          "name": "",
          "type": "uint256"
        }
      ],
      "stateMutability": "view",
      "type": "function"
    },
    {
      "inputs": [
        {
          "internalType": "address",
          "name": "newOwner",
          "type": "address"
        }
      ],
      "name": "transferOwnership",
      "outputs": [],
      "stateMutability": "nonpayable",
      "type": "function"
    },
    {
      "inputs": [
        {
          "internalType": "uint32",
          "name": "requestId",
          "type": "uint32"
        },
        {
          "internalType": "uint256[]",
          "name": "liquidatedIndexes",
          "type": "uint256[]"
        },
        {
          "internalType": "uint256",
          "name": "liquidatedCount",
          "type": "uint256"
        },
        {
          "internalType": "bool",
          "name": "isCrossLiquidated",
          "type": "bool"
        }
      ],
      "name": "updateLiquidatedPositions",
      "outputs": [],
      "stateMutability": "nonpayable",
      "type": "function"
    },
    {
      "inputs": [
        {
          "internalType": "address",
          "name": "user",
          "type": "address"
        },
        {
          "internalType": "address[]",
          "name": "tokens",
          "type": "address[]"
        },
        {
          "internalType": "uint256[]",
          "name": "losses",
          "type": "uint256[]"
        },
        {
          "internalType": "uint256",
          "name": "totalLossCount",
          "type": "uint256"
        }
      ],
      "name": "updatePartialLiquidation",
      "outputs": [],
      "stateMutability": "nonpayable",
      "type": "function"
    },
    {
      "inputs": [
        {
          "components": [
            {
              "internalType": "bytes",
              "name": "data",
              "type": "bytes"
            },
            {
              "internalType": "bytes",
              "name": "signature",
              "type": "bytes"
            },
            {
              "internalType": "address",
              "name": "combinedPublicKey",
              "type": "address"
            }
          ],
          "internalType": "struct Crypto.SchnorrSignature",
          "name": "_schnorr",
          "type": "tuple"
        }
      ],
      "name": "withdrawAndClosePositionTrustlessly",
      "outputs": [],
      "stateMutability": "nonpayable",
      "type": "function"
    },
    {
      "inputs": [
        {
          "internalType": "address",
          "name": "_combinedPublicKey",
          "type": "address"
        },
        {
          "components": [
            {
              "internalType": "bytes",
              "name": "data",
              "type": "bytes"
            },
            {
              "internalType": "bytes",
              "name": "signature",
              "type": "bytes"
            },
            {
              "internalType": "address",
              "name": "combinedPublicKey",
              "type": "address"
            }
          ],
          "internalType": "struct Crypto.SchnorrSignature",
          "name": "_schnorr",
          "type": "tuple"
        }
      ],
      "name": "withdrawSchnorr",
      "outputs": [],
      "stateMutability": "nonpayable",
      "type": "function"
    }
  ],
  "bytecode": "0x608060405234801561001057600080fd5b50615ff880620000216000396000f3fe608060405234801561001057600080fd5b50600436106101a95760003560e01c8063923fec2a116100f9578063e41cff6411610097578063e917bdcc11610071578063e917bdcc14610492578063ed9facad146104c4578063f2edcc96146104f4578063f2fde38b14610510576101a9565b8063e41cff641461042a578063e6d0efad1461045a578063e798646614610476576101a9565b8063ab3e857f116100d3578063ab3e857f1461037a578063bf1e9ef5146103ae578063c2dd56bc146103ca578063e0c32ec4146103fa576101a9565b8063923fec2a1461032457806397799e0614610340578063a82078581461035e576101a9565b80637482479f116101665780638a7be80b116101405780638a7be80b146102b25780638da5cb5b146102ce5780638e092bb5146102ec5780638f2c081f14610308576101a9565b80637482479f1461024a57806375151b631461026657806386c9391414610296576101a9565b80630d235817146101ae578063358394d8146101cc57806347e7ef24146101e8578063570ddaa8146102045780635c975abb14610222578063715018a614610240575b600080fd5b6101b661052c565b6040516101c39190613cd4565b60405180910390f35b6101e660048036038101906101e19190613d65565b610552565b005b61020260048036038101906101fd9190613dcc565b610775565b005b61020c610a17565b6040516102199190613e1b565b60405180910390f35b61022a610a1d565b6040516102379190613e51565b60405180910390f35b610248610a42565b005b610264600480360381019061025f9190613e6c565b610a56565b005b610280600480360381019061027b9190613e6c565b610aa2565b60405161028d9190613e51565b60405180910390f35b6102b060048036038101906102ab9190613e99565b610ac2565b005b6102cc60048036038101906102c791906140e2565b610ad4565b005b6102d6610f42565b6040516102e39190613cd4565b60405180910390f35b61030660048036038101906103019190613e6c565b610f7a565b005b610322600480360381019061031d91906141e1565b610fc6565b005b61033e60048036038101906103399190614269565b611890565b005b610348611a70565b6040516103559190613cd4565b60405180910390f35b610378600480360381019061037391906142ec565b611a96565b005b610394600480360381019061038f9190614348565b611edd565b6040516103a59594939291906143c3565b60405180910390f35b6103c860048036038101906103c391906144d9565b611f84565b005b6103e460048036038101906103df9190614348565b612619565b6040516103f191906146a3565b60405180910390f35b610414600480360381019061040f91906146c5565b612704565b6040516104219190613e1b565b60405180910390f35b610444600480360381019061043f9190613e6c565b612729565b6040516104519190613cd4565b60405180910390f35b610474600480360381019061046f9190614705565b61275c565b005b610490600480360381019061048b919061474e565b612fdb565b005b6104ac60048036038101906104a79190614348565b6130d0565b6040516104bb9392919061478e565b60405180910390f35b6104de60048036038101906104d99190614348565b613170565b6040516104eb9190614b01565b60405180910390f35b61050e600480360381019061050991906146c5565b61348c565b005b61052a60048036038101906105259190613e6c565b613516565b005b600960009054906101000a900473ffffffffffffffffffffffffffffffffffffffff1681565b600061055c61359c565b905060008160000160089054906101000a900460ff1615905060008260000160009054906101000a900467ffffffffffffffff1690506000808267ffffffffffffffff161480156105aa5750825b9050600060018367ffffffffffffffff161480156105df575060003073ffffffffffffffffffffffffffffffffffffffff163b145b9050811580156105ed575080155b15610624576040517ff92ee8a900000000000000000000000000000000000000000000000000000000815260040160405180910390fd5b60018560000160006101000a81548167ffffffffffffffff021916908367ffffffffffffffff16021790555083156106745760018560000160086101000a81548160ff0219169083151502179055505b61067d896135c4565b6106856135d8565b8760008190555086600960006101000a81548173ffffffffffffffffffffffffffffffffffffffff021916908373ffffffffffffffffffffffffffffffffffffffff16021790555085600a60006101000a81548173ffffffffffffffffffffffffffffffffffffffff021916908373ffffffffffffffffffffffffffffffffffffffff160217905550831561076a5760008560000160086101000a81548160ff0219169083151502179055507fc7f505b2f371ae2175ee4913f4499e1f2633a7b5936321eed1cdaeb6115181d260016040516107619190614b68565b60405180910390a15b505050505050505050565b61077d6135ea565b610785613641565b600081116107c8576040517f08c379a00000000000000000000000000000000000000000000000000000000081526004016107bf90614be0565b60405180910390fd5b600760008373ffffffffffffffffffffffffffffffffffffffff1673ffffffffffffffffffffffffffffffffffffffff16815260200190815260200160002060009054906101000a900460ff16610854576040517f08c379a000000000000000000000000000000000000000000000000000000000815260040161084b90614c4c565b60405180910390fd5b8173ffffffffffffffffffffffffffffffffffffffff166323b872dd3330846040518463ffffffff1660e01b815260040161089193929190614c6c565b6020604051808303816000875af11580156108b0573d6000803e3d6000fd5b505050506040513d601f19601f820116820180604052508101906108d49190614cb8565b610913576040517f08c379a000000000000000000000000000000000000000000000000000000000815260040161090a90614d31565b60405180910390fd5b80600860003373ffffffffffffffffffffffffffffffffffffffff1673ffffffffffffffffffffffffffffffffffffffff16815260200190815260200160002060008473ffffffffffffffffffffffffffffffffffffffff1673ffffffffffffffffffffffffffffffffffffffff168152602001908152602001600020600082825461099f9190614d80565b925050819055508173ffffffffffffffffffffffffffffffffffffffff163373ffffffffffffffffffffffffffffffffffffffff167f8752a472e571a816aea92eec8dae9baf628e840f4929fbcc2d155e6233ff68a783604051610a039190613e1b565b60405180910390a3610a13613682565b5050565b60005481565b600080610a2861369b565b90508060000160009054906101000a900460ff1691505090565b610a4a6136c3565b610a54600061374a565b565b610a5e6136c3565b80600a60006101000a81548173ffffffffffffffffffffffffffffffffffffffff021916908373ffffffffffffffffffffffffffffffffffffffff16021790555050565b60076020528060005260406000206000915054906101000a900460ff1681565b610aca6136c3565b8060008190555050565b610adc6135ea565b600a60009054906101000a900473ffffffffffffffffffffffffffffffffffffffff1673ffffffffffffffffffffffffffffffffffffffff163373ffffffffffffffffffffffffffffffffffffffff1614610b6c576040517f08c379a0000000000000000000000000000000000000000000000000000000008152600401610b6390614e00565b60405180910390fd5b8151835114610bb0576040517f08c379a0000000000000000000000000000000000000000000000000000000008152600401610ba790614e6c565b60405180910390fd5b8251811115610bf4576040517f08c379a0000000000000000000000000000000000000000000000000000000008152600401610beb90614ed8565b60405180910390fd5b60005b81811015610f33576000848281518110610c1457610c13614ef8565b5b602002602001015190506000848381518110610c3357610c32614ef8565b5b6020026020010151905080600860008973ffffffffffffffffffffffffffffffffffffffff1673ffffffffffffffffffffffffffffffffffffffff16815260200190815260200160002060008473ffffffffffffffffffffffffffffffffffffffff1673ffffffffffffffffffffffffffffffffffffffff168152602001908152602001600020541015610cfc576040517f08c379a0000000000000000000000000000000000000000000000000000000008152600401610cf390614f73565b60405180910390fd5b80600860008973ffffffffffffffffffffffffffffffffffffffff1673ffffffffffffffffffffffffffffffffffffffff16815260200190815260200160002060008473ffffffffffffffffffffffffffffffffffffffff1673ffffffffffffffffffffffffffffffffffffffff1681526020019081526020016000206000828254610d889190614f93565b925050819055508173ffffffffffffffffffffffffffffffffffffffff1663a9059cbb600960009054906101000a900473ffffffffffffffffffffffffffffffffffffffff16836040518363ffffffff1660e01b8152600401610dec929190614fc7565b6020604051808303816000875af1158015610e0b573d6000803e3d6000fd5b505050506040513d601f19601f82011682018060405250810190610e2f9190614cb8565b50600960009054906101000a900473ffffffffffffffffffffffffffffffffffffffff1673ffffffffffffffffffffffffffffffffffffffff1663195bac6283836040518363ffffffff1660e01b8152600401610e8d929190614fc7565b600060405180830381600087803b158015610ea757600080fd5b505af1158015610ebb573d6000803e3d6000fd5b505050508173ffffffffffffffffffffffffffffffffffffffff168773ffffffffffffffffffffffffffffffffffffffff167f3b7ebc7efc47fec3ee7bc30fe538bb5e5296e3cf7f70c0b34bc9f8de5cad986e83604051610f1c9190613e1b565b60405180910390a350508080600101915050610bf7565b50610f3c613682565b50505050565b600080610f4d613821565b90508060000160009054906101000a900473ffffffffffffffffffffffffffffffffffffffff1691505090565b610f826136c3565b80600960006101000a81548173ffffffffffffffffffffffffffffffffffffffff021916908373ffffffffffffffffffffffffffffffffffffffff16021790555050565b610fce6135ea565b610fd6613641565b6000600260008463ffffffff1663ffffffff1681526020019081526020016000209050600073__$50e9592bd68e5211c3a496048a4809ad3a$__6306d02c88846040518263ffffffff1660e01b81526004016110329190615148565b600060405180830381865af415801561104f573d6000803e3d6000fd5b505050506040513d6000823e3d601f19601f8201168201806040525081019061107891906157da565b90506001600381111561108e5761108d615823565b5b60ff168260040160009054906101000a900460ff1660ff16146110e6576040517f08c379a00000000000000000000000000000000000000000000000000000000081526004016110dd9061589e565b60405180910390fd5b6107088260010160149054906101000a900467ffffffffffffffff1661110c91906158be565b67ffffffffffffffff164210611157576040517f08c379a000000000000000000000000000000000000000000000000000000000815260040161114e90615946565b60405180910390fd5b73__$50e9592bd68e5211c3a496048a4809ad3a$__63bc018c408460066000856020015173ffffffffffffffffffffffffffffffffffffffff1673ffffffffffffffffffffffffffffffffffffffff16815260200190815260200160002060009054906101000a900473ffffffffffffffffffffffffffffffffffffffff166040518363ffffffff1660e01b81526004016111f3929190615975565b602060405180830381865af4158015611210573d6000803e3d6000fd5b505050506040513d601f19601f820116820180604052508101906112349190614cb8565b61126a576040517ff08f7bd800000000000000000000000000000000000000000000000000000000815260040160405180910390fd5b600081600001519050816000015163ffffffff16600560008763ffffffff1663ffffffff16815260200190815260200160002060009054906101000a900463ffffffff1663ffffffff16101561184f5780600560008763ffffffff1663ffffffff16815260200190815260200160002060006101000a81548163ffffffff021916908363ffffffff160217905550338360010160006101000a81548173ffffffffffffffffffffffffffffffffffffffff021916908373ffffffffffffffffffffffffffffffffffffffff16021790555082600201600061134b9190613a7c565b82600301600061135b9190613aa0565b600082604001515190506000836060015151905060005b8281101561143057856002018560400151828151811061139557611394614ef8565b5b602002602001015190806001815401808255809150506001900390600052602060002090600302016000909190919091506000820151816000015560208201518160010160006101000a81548173ffffffffffffffffffffffffffffffffffffffff021916908373ffffffffffffffffffffffffffffffffffffffff1602179055506040820151816002015550508080600101915050611372565b5060005b818110156117f5576000600260008a63ffffffff1663ffffffff1681526020019081526020016000206003016001816001815401808255809150500390600052602060002090600a020190508560600151828151811061149757611496614ef8565b5b6020026020010151600001518160000190816114b39190615ba7565b50856060015182815181106114cb576114ca614ef8565b5b6020026020010151604001518160020160006101000a81548173ffffffffffffffffffffffffffffffffffffffff021916908373ffffffffffffffffffffffffffffffffffffffff160217905550856060015182815181106115305761152f614ef8565b5b60200260200101516060015181600301819055508560600151828151811061155b5761155a614ef8565b5b602002602001015160c001518160060160006101000a81548160ff0219169083151502179055508560600151828151811061159957611598614ef8565b5b602002602001015161010001518160080181905550856060015182815181106115c5576115c4614ef8565b5b6020026020010151610120015181600901819055506000866060015183815181106115f3576115f2614ef8565b5b602002602001015160e0015151905060005b818110156117e5578260070160405180608001604052808a60600151878151811061163357611632614ef8565b5b602002602001015160e00151848151811061165157611650614ef8565b5b60200260200101516000015181526020018a60600151878151811061167957611678614ef8565b5b602002602001015160e00151848151811061169757611696614ef8565b5b60200260200101516020015173ffffffffffffffffffffffffffffffffffffffff1681526020018a6060015187815181106116d5576116d4614ef8565b5b602002602001015160e0015184815181106116f3576116f2614ef8565b5b60200260200101516040015181526020018a60600151878151811061171b5761171a614ef8565b5b602002602001015160e00151848151811061173957611738614ef8565b5b60200260200101516060015181525090806001815401808255809150506001900390600052602060002090600402016000909190919091506000820151816000015560208201518160010160006101000a81548173ffffffffffffffffffffffffffffffffffffffff021916908373ffffffffffffffffffffffffffffffffffffffff160217905550604082015181600201556060820151816003015550508080600101915050611605565b5050508080600101915050611434565b50836020015173ffffffffffffffffffffffffffffffffffffffff167f41333d535ecc89f2d33b1d5f30416f34ba3c7d0bbf7aaea28a3b7c330969379b886040516118409190615c79565b60405180910390a25050611881565b6040517f785736c800000000000000000000000000000000000000000000000000000000815260040160405180910390fd5b50505061188c613682565b5050565b600a60009054906101000a900473ffffffffffffffffffffffffffffffffffffffff1673ffffffffffffffffffffffffffffffffffffffff163373ffffffffffffffffffffffffffffffffffffffff1614611920576040517f08c379a000000000000000000000000000000000000000000000000000000000815260040161191790615ce0565b60405180910390fd5b6000600260008663ffffffff1663ffffffff16815260200190815260200160002090506001600381111561195757611956615823565b5b60ff168160040160009054906101000a900460ff1660ff16146119af576040517f08c379a00000000000000000000000000000000000000000000000000000000081526004016119a69061589e565b60405180910390fd5b60005b83811015611a145760008582815181106119cf576119ce614ef8565b5b6020026020010151905060008360030182815481106119f1576119f0614ef8565b5b90600052602060002090600a0201600301819055505080806001019150506119b2565b508115611a695760005b8160020180549050811015611a67576000826002018281548110611a4557611a44614ef8565b5b9060005260206000209060030201600201819055508080600101915050611a1e565b505b5050505050565b600a60009054906101000a900473ffffffffffffffffffffffffffffffffffffffff1681565b611a9e6135ea565b611aa6613641565b600073__$50e9592bd68e5211c3a496048a4809ad3a$__6376b90c5983600660003373ffffffffffffffffffffffffffffffffffffffff1673ffffffffffffffffffffffffffffffffffffffff16815260200190815260200160002060009054906101000a900473ffffffffffffffffffffffffffffffffffffffff166040518363ffffffff1660e01b8152600401611b40929190615975565b608060405180830381865af4158015611b5d573d6000803e3d6000fd5b505050506040513d601f19601f82011682018060405250810190611b819190615da4565b90506000816040015111611bca576040517f08c379a0000000000000000000000000000000000000000000000000000000008152600401611bc190615e43565b60405180910390fd5b60076000826020015173ffffffffffffffffffffffffffffffffffffffff1673ffffffffffffffffffffffffffffffffffffffff16815260200190815260200160002060009054906101000a900460ff16611c5a576040517f08c379a0000000000000000000000000000000000000000000000000000000008152600401611c5190614c4c565b60405180910390fd5b600054816060015167ffffffffffffffff1642611c779190614f93565b10611cb7576040517f08c379a0000000000000000000000000000000000000000000000000000000008152600401611cae90615eaf565b60405180910390fd5b3373ffffffffffffffffffffffffffffffffffffffff16816000015173ffffffffffffffffffffffffffffffffffffffff1614611d20576040517ff08f7bd800000000000000000000000000000000000000000000000000000000815260040160405180910390fd5b82600660003373ffffffffffffffffffffffffffffffffffffffff1673ffffffffffffffffffffffffffffffffffffffff16815260200190815260200160002060006101000a81548173ffffffffffffffffffffffffffffffffffffffff021916908373ffffffffffffffffffffffffffffffffffffffff160217905550806020015173ffffffffffffffffffffffffffffffffffffffff1663a9059cbb3383604001516040518363ffffffff1660e01b8152600401611de1929190614fc7565b6020604051808303816000875af1158015611e00573d6000803e3d6000fd5b505050506040513d601f19601f82011682018060405250810190611e249190614cb8565b611e63576040517f08c379a0000000000000000000000000000000000000000000000000000000008152600401611e5a90614d31565b60405180910390fd5b806020015173ffffffffffffffffffffffffffffffffffffffff163373ffffffffffffffffffffffffffffffffffffffff167fd1c19fbcd4551a5edfb66d43d2e337c04837afda3482b42bdf569a8fccdae5fb8360400151604051611ec89190613e1b565b60405180910390a350611ed9613682565b5050565b60026020528060005260406000206000915090508060000160009054906101000a900473ffffffffffffffffffffffffffffffffffffffff16908060010160009054906101000a900473ffffffffffffffffffffffffffffffffffffffff16908060010160149054906101000a900467ffffffffffffffff16908060040160009054906101000a900460ff16908060040160019054906101000a900463ffffffff16905085565b611f8c6135ea565b600a60009054906101000a900473ffffffffffffffffffffffffffffffffffffffff1673ffffffffffffffffffffffffffffffffffffffff163373ffffffffffffffffffffffffffffffffffffffff161461201c576040517f08c379a000000000000000000000000000000000000000000000000000000000815260040161201390614e00565b60405180910390fd5b6000600260008663ffffffff1663ffffffff16815260200190815260200160002090506001600381111561205357612052615823565b5b60ff168160040160009054906101000a900460ff1660ff16146120ab576040517f08c379a00000000000000000000000000000000000000000000000000000000081526004016120a29061589e565b60405180910390fd5b60005b81600201805490508110156125685760008260020182815481106120d5576120d4614ef8565b5b906000526020600020906003020160010160009054906101000a900473ffffffffffffffffffffffffffffffffffffffff169050600086838151811061211e5761211d614ef8565b5b6020026020010151905084838151811061213b5761213a614ef8565b5b6020026020010151156121f657600960009054906101000a900473ffffffffffffffffffffffffffffffffffffffff1673ffffffffffffffffffffffffffffffffffffffff16639d1dd0da8388868151811061219a57612199614ef8565b5b60200260200101516040518363ffffffff1660e01b81526004016121bf929190614fc7565b600060405180830381600087803b1580156121d957600080fd5b505af11580156121ed573d6000803e3d6000fd5b5050505061235b565b8173ffffffffffffffffffffffffffffffffffffffff1663a9059cbb600960009054906101000a900473ffffffffffffffffffffffffffffffffffffffff1688868151811061224857612247614ef8565b5b60200260200101516040518363ffffffff1660e01b815260040161226d929190614fc7565b6020604051808303816000875af115801561228c573d6000803e3d6000fd5b505050506040513d601f19601f820116820180604052508101906122b09190614cb8565b50600960009054906101000a900473ffffffffffffffffffffffffffffffffffffffff1673ffffffffffffffffffffffffffffffffffffffff1663195bac628388868151811061230357612302614ef8565b5b60200260200101516040518363ffffffff1660e01b8152600401612328929190614fc7565b600060405180830381600087803b15801561234257600080fd5b505af1158015612356573d6000803e3d6000fd5b505050505b6000600860008660000160009054906101000a900473ffffffffffffffffffffffffffffffffffffffff1673ffffffffffffffffffffffffffffffffffffffff1673ffffffffffffffffffffffffffffffffffffffff16815260200190815260200160002060008473ffffffffffffffffffffffffffffffffffffffff1673ffffffffffffffffffffffffffffffffffffffff168152602001908152602001600020819055508173ffffffffffffffffffffffffffffffffffffffff1663a9059cbb8560000160009054906101000a900473ffffffffffffffffffffffffffffffffffffffff16836040518363ffffffff1660e01b8152600401612460929190614fc7565b6020604051808303816000875af115801561247f573d6000803e3d6000fd5b505050506040513d601f19601f820116820180604052508101906124a39190614cb8565b508173ffffffffffffffffffffffffffffffffffffffff168460000160009054906101000a900473ffffffffffffffffffffffffffffffffffffffff1673ffffffffffffffffffffffffffffffffffffffff167fd1c19fbcd4551a5edfb66d43d2e337c04837afda3482b42bdf569a8fccdae5fb836040516125259190613e1b565b60405180910390a38084600201848154811061254457612543614ef8565b5b906000526020600020906003020160020181905550505080806001019150506120ae565b5060038081111561257c5761257b615823565b5b8160040160006101000a81548160ff021916908360ff1602179055508060000160009054906101000a900473ffffffffffffffffffffffffffffffffffffffff1673ffffffffffffffffffffffffffffffffffffffff167f8b703fbb69bafcfe17cc041cf70cf1f199e44c5e5f70dca4aa3d01ce927996cc866040516126029190615c79565b60405180910390a250612613613682565b50505050565b6060600260008363ffffffff1663ffffffff168152602001908152602001600020600201805480602002602001604051908101604052809291908181526020016000905b828210156126f95783829060005260206000209060030201604051806060016040529081600082015481526020016001820160009054906101000a900473ffffffffffffffffffffffffffffffffffffffff1673ffffffffffffffffffffffffffffffffffffffff1673ffffffffffffffffffffffffffffffffffffffff1681526020016002820154815250508152602001906001019061265d565b505050509050919050565b6008602052816000526040600020602052806000526040600020600091509150505481565b60066020528060005260406000206000915054906101000a900473ffffffffffffffffffffffffffffffffffffffff1681565b6127646135ea565b61276c613641565b600073__$50e9592bd68e5211c3a496048a4809ad3a$__6306d02c88836040518263ffffffff1660e01b81526004016127a59190615148565b600060405180830381865af41580156127c2573d6000803e3d6000fd5b505050506040513d6000823e3d601f19601f820116820180604052508101906127eb91906157da565b90503373ffffffffffffffffffffffffffffffffffffffff16816020015173ffffffffffffffffffffffffffffffffffffffff1614612856576040517ff08f7bd800000000000000000000000000000000000000000000000000000000815260040160405180910390fd5b73__$50e9592bd68e5211c3a496048a4809ad3a$__63bc018c408360066000856020015173ffffffffffffffffffffffffffffffffffffffff1673ffffffffffffffffffffffffffffffffffffffff16815260200190815260200160002060009054906101000a900473ffffffffffffffffffffffffffffffffffffffff166040518363ffffffff1660e01b81526004016128f2929190615975565b602060405180830381865af415801561290f573d6000803e3d6000fd5b505050506040513d601f19601f820116820180604052508101906129339190614cb8565b612969576040517ff08f7bd800000000000000000000000000000000000000000000000000000000815260040160405180910390fd5b600482806020019061297b9190615ede565b604051612989929190615f71565b908152602001604051809103902060009054906101000a900460ff16156129dc576040517ff08f7bd800000000000000000000000000000000000000000000000000000000815260040160405180910390fd5b60018060009054906101000a900463ffffffff166129fa9190615f8a565b600160006101000a81548163ffffffff021916908363ffffffff1602179055506000600160009054906101000a900463ffffffff16905042600260008363ffffffff1663ffffffff16815260200190815260200160002060010160146101000a81548167ffffffffffffffff021916908367ffffffffffffffff160217905550600082604001515190506000836060015151905060005b81811015612e52576000600260008663ffffffff1663ffffffff1681526020019081526020016000206003016001816001815401808255809150500390600052602060002090600a0201905085606001518281518110612af457612af3614ef8565b5b602002602001015160000151816000019081612b109190615ba7565b5085606001518281518110612b2857612b27614ef8565b5b6020026020010151604001518160020160006101000a81548173ffffffffffffffffffffffffffffffffffffffff021916908373ffffffffffffffffffffffffffffffffffffffff16021790555085606001518281518110612b8d57612b8c614ef8565b5b602002602001015160600151816003018190555085606001518281518110612bb857612bb7614ef8565b5b602002602001015160c001518160060160006101000a81548160ff02191690831515021790555085606001518281518110612bf657612bf5614ef8565b5b60200260200101516101000151816008018190555085606001518281518110612c2257612c21614ef8565b5b602002602001015161012001518160090181905550600086606001518381518110612c5057612c4f614ef8565b5b602002602001015160e0015151905060005b81811015612e42578260070160405180608001604052808a606001518781518110612c9057612c8f614ef8565b5b602002602001015160e001518481518110612cae57612cad614ef8565b5b60200260200101516000015181526020018a606001518781518110612cd657612cd5614ef8565b5b602002602001015160e001518481518110612cf457612cf3614ef8565b5b60200260200101516020015173ffffffffffffffffffffffffffffffffffffffff1681526020018a606001518781518110612d3257612d31614ef8565b5b602002602001015160e001518481518110612d5057612d4f614ef8565b5b60200260200101516040015181526020018a606001518781518110612d7857612d77614ef8565b5b602002602001015160e001518481518110612d9657612d95614ef8565b5b60200260200101516060015181525090806001815401808255809150506001900390600052602060002090600402016000909190919091506000820151816000015560208201518160010160006101000a81548173ffffffffffffffffffffffffffffffffffffffff021916908373ffffffffffffffffffffffffffffffffffffffff160217905550604082015181600201556060820151816003015550508080600101915050612c62565b5050508080600101915050612a91565b5060005b82811015612f3257600260008563ffffffff1663ffffffff16815260200190815260200160002060020185604001518281518110612e9757612e96614ef8565b5b602002602001015190806001815401808255809150506001900390600052602060002090600302016000909190919091506000820151816000015560208201518160010160006101000a81548173ffffffffffffffffffffffffffffffffffffffff021916908373ffffffffffffffffffffffffffffffffffffffff1602179055506040820151816002015550508080600101915050612e56565b5060008460000151905080600560008663ffffffff1663ffffffff16815260200190815260200160002060006101000a81548163ffffffff021916908363ffffffff16021790555060016004878060200190612f8e9190615ede565b604051612f9c929190615f71565b908152602001604051809103902060006101000a81548160ff021916908315150217905550612fcb8433613849565b5050505050612fd8613682565b50565b612fe36136c3565b80600760008473ffffffffffffffffffffffffffffffffffffffff1673ffffffffffffffffffffffffffffffffffffffff16815260200190815260200160002060006101000a81548160ff0219169083151502179055508015613088578173ffffffffffffffffffffffffffffffffffffffff167f784c8f4dbf0ffedd6e72c76501c545a70f8b203b30a26ce542bf92ba87c248a460405160405180910390a26130cc565b8173ffffffffffffffffffffffffffffffffffffffff167f4c910b69fe65a61f7531b9c5042b2329ca7179c77290aa7e2eb3afa3c8511fd360405160405180910390a25b5050565b600080600080600260008663ffffffff1663ffffffff16815260200190815260200160002090506001600381111561310b5761310a615823565b5b60ff168160040160009054906101000a900460ff1660ff161493508060010160149054906101000a900467ffffffffffffffff1692508060000160009054906101000a900473ffffffffffffffffffffffffffffffffffffffff169150509193909250565b6060600260008363ffffffff1663ffffffff168152602001908152602001600020600301805480602002602001604051908101604052809291908181526020016000905b8282101561348157838290600052602060002090600a0201604051806101400160405290816000820180546131e8906159d4565b80601f0160208091040260200160405190810160405280929190818152602001828054613214906159d4565b80156132615780601f1061323657610100808354040283529160200191613261565b820191906000526020600020905b81548152906001019060200180831161324457829003601f168201915b50505050508152602001600182015481526020016002820160009054906101000a900473ffffffffffffffffffffffffffffffffffffffff1673ffffffffffffffffffffffffffffffffffffffff1673ffffffffffffffffffffffffffffffffffffffff16815260200160038201548152602001600482015481526020016005820180546132ee906159d4565b80601f016020809104026020016040519081016040528092919081815260200182805461331a906159d4565b80156133675780601f1061333c57610100808354040283529160200191613367565b820191906000526020600020905b81548152906001019060200180831161334a57829003601f168201915b505050505081526020016006820160009054906101000a900460ff1615151515815260200160078201805480602002602001604051908101604052809291908181526020016000905b828210156134565783829060005260206000209060040201604051806080016040529081600082015481526020016001820160009054906101000a900473ffffffffffffffffffffffffffffffffffffffff1673ffffffffffffffffffffffffffffffffffffffff1673ffffffffffffffffffffffffffffffffffffffff16815260200160028201548152602001600382015481525050815260200190600101906133b0565b50505050815260200160088201548152602001600982015481525050815260200190600101906131b4565b505050509050919050565b6134946136c3565b80600660008473ffffffffffffffffffffffffffffffffffffffff1673ffffffffffffffffffffffffffffffffffffffff16815260200190815260200160002060006101000a81548173ffffffffffffffffffffffffffffffffffffffff021916908373ffffffffffffffffffffffffffffffffffffffff1602179055505050565b61351e6136c3565b600073ffffffffffffffffffffffffffffffffffffffff168173ffffffffffffffffffffffffffffffffffffffff16036135905760006040517f1e4fbdf70000000000000000000000000000000000000000000000000000000081526004016135879190613cd4565b60405180910390fd5b6135998161374a565b50565b60007ff0c57e16840df040f15088dc2f81fe391c3923bec73e23a9662efc9c229c6a00905090565b6135cc613932565b6135d581613972565b50565b6135e0613932565b6135e86139f8565b565b60006135f4613a2c565b90506002816000015403613634576040517f3ee5aeb500000000000000000000000000000000000000000000000000000000815260040160405180910390fd5b6002816000018190555050565b613649610a1d565b15613680576040517fd93c066500000000000000000000000000000000000000000000000000000000815260040160405180910390fd5b565b600061368c613a2c565b90506001816000018190555050565b60007fcd5ed15c6e187e77e9aee88184c21f4f2182ab5827cb3b7e07fbedcd63f03300905090565b6136cb613a54565b73ffffffffffffffffffffffffffffffffffffffff166136e9610f42565b73ffffffffffffffffffffffffffffffffffffffff16146137485761370c613a54565b6040517f118cdaa700000000000000000000000000000000000000000000000000000000815260040161373f9190613cd4565b60405180910390fd5b565b6000613754613821565b905060008160000160009054906101000a900473ffffffffffffffffffffffffffffffffffffffff169050828260000160006101000a81548173ffffffffffffffffffffffffffffffffffffffff021916908373ffffffffffffffffffffffffffffffffffffffff1602179055508273ffffffffffffffffffffffffffffffffffffffff168173ffffffffffffffffffffffffffffffffffffffff167f8be0079c531659141344cd1fd0a4f28419497f9722a3daafe3b4186f6b6457e060405160405180910390a3505050565b60007f9016d09d72d40fdae2fd8ceac6b6234c7706214fd39c1cd1e609a0528c199300905090565b6000600260008463ffffffff1663ffffffff1681526020019081526020016000209050600160038111156138805761387f615823565b5b8160040160006101000a81548160ff021916908360ff160217905550818160000160006101000a81548173ffffffffffffffffffffffffffffffffffffffff021916908373ffffffffffffffffffffffffffffffffffffffff1602179055508173ffffffffffffffffffffffffffffffffffffffff167f2fdd05cb84b2efdbfb66efce92f66f26e7323b06b91ed693c764e01573436af9846040516139259190615c79565b60405180910390a2505050565b61393a613a5c565b613970576040517fd7e6bcf800000000000000000000000000000000000000000000000000000000815260040160405180910390fd5b565b61397a613932565b600073ffffffffffffffffffffffffffffffffffffffff168173ffffffffffffffffffffffffffffffffffffffff16036139ec5760006040517f1e4fbdf70000000000000000000000000000000000000000000000000000000081526004016139e39190613cd4565b60405180910390fd5b6139f58161374a565b50565b613a00613932565b6000613a0a61369b565b905060008160000160006101000a81548160ff02191690831515021790555050565b60007f9b779b17422d0df92223018b32b4d1fa46e071723d6817e2486d003becc55f00905090565b600033905090565b6000613a6661359c565b60000160089054906101000a900460ff16905090565b5080546000825560030290600052602060002090810190613a9d9190613ac4565b50565b50805460008255600a0290600052602060002090810190613ac19190613b12565b50565b5b80821115613b0e576000808201600090556001820160006101000a81549073ffffffffffffffffffffffffffffffffffffffff0219169055600282016000905550600301613ac5565b5090565b5b80821115613bb85760008082016000613b2c9190613bbc565b60018201600090556002820160006101000a81549073ffffffffffffffffffffffffffffffffffffffff021916905560038201600090556004820160009055600582016000613b7b9190613bbc565b6006820160006101000a81549060ff0219169055600782016000613b9f9190613bfc565b6008820160009055600982016000905550600a01613b13565b5090565b508054613bc8906159d4565b6000825580601f10613bda5750613bf9565b601f016020900490600052602060002090810190613bf89190613c20565b5b50565b5080546000825560040290600052602060002090810190613c1d9190613c3d565b50565b5b80821115613c39576000816000905550600101613c21565b5090565b5b80821115613c8f576000808201600090556001820160006101000a81549073ffffffffffffffffffffffffffffffffffffffff02191690556002820160009055600382016000905550600401613c3e565b5090565b600073ffffffffffffffffffffffffffffffffffffffff82169050919050565b6000613cbe82613c93565b9050919050565b613cce81613cb3565b82525050565b6000602082019050613ce96000830184613cc5565b92915050565b6000604051905090565b600080fd5b600080fd5b613d0c81613cb3565b8114613d1757600080fd5b50565b600081359050613d2981613d03565b92915050565b6000819050919050565b613d4281613d2f565b8114613d4d57600080fd5b50565b600081359050613d5f81613d39565b92915050565b60008060008060808587031215613d7f57613d7e613cf9565b5b6000613d8d87828801613d1a565b9450506020613d9e87828801613d50565b9350506040613daf87828801613d1a565b9250506060613dc087828801613d1a565b91505092959194509250565b60008060408385031215613de357613de2613cf9565b5b6000613df185828601613d1a565b9250506020613e0285828601613d50565b9150509250929050565b613e1581613d2f565b82525050565b6000602082019050613e306000830184613e0c565b92915050565b60008115159050919050565b613e4b81613e36565b82525050565b6000602082019050613e666000830184613e42565b92915050565b600060208284031215613e8257613e81613cf9565b5b6000613e9084828501613d1a565b91505092915050565b600060208284031215613eaf57613eae613cf9565b5b6000613ebd84828501613d50565b91505092915050565b600080fd5b6000601f19601f8301169050919050565b7f4e487b7100000000000000000000000000000000000000000000000000000000600052604160045260246000fd5b613f1482613ecb565b810181811067ffffffffffffffff82111715613f3357613f32613edc565b5b80604052505050565b6000613f46613cef565b9050613f528282613f0b565b919050565b600067ffffffffffffffff821115613f7257613f71613edc565b5b602082029050602081019050919050565b600080fd5b6000613f9b613f9684613f57565b613f3c565b90508083825260208201905060208402830185811115613fbe57613fbd613f83565b5b835b81811015613fe75780613fd38882613d1a565b845260208401935050602081019050613fc0565b5050509392505050565b600082601f83011261400657614005613ec6565b5b8135614016848260208601613f88565b91505092915050565b600067ffffffffffffffff82111561403a57614039613edc565b5b602082029050602081019050919050565b600061405e6140598461401f565b613f3c565b9050808382526020820190506020840283018581111561408157614080613f83565b5b835b818110156140aa57806140968882613d50565b845260208401935050602081019050614083565b5050509392505050565b600082601f8301126140c9576140c8613ec6565b5b81356140d984826020860161404b565b91505092915050565b600080600080608085870312156140fc576140fb613cf9565b5b600061410a87828801613d1a565b945050602085013567ffffffffffffffff81111561412b5761412a613cfe565b5b61413787828801613ff1565b935050604085013567ffffffffffffffff81111561415857614157613cfe565b5b614164878288016140b4565b925050606061417587828801613d50565b91505092959194509250565b600063ffffffff82169050919050565b61419a81614181565b81146141a557600080fd5b50565b6000813590506141b781614191565b92915050565b600080fd5b6000606082840312156141d8576141d76141bd565b5b81905092915050565b600080604083850312156141f8576141f7613cf9565b5b6000614206858286016141a8565b925050602083013567ffffffffffffffff81111561422757614226613cfe565b5b614233858286016141c2565b9150509250929050565b61424681613e36565b811461425157600080fd5b50565b6000813590506142638161423d565b92915050565b6000806000806080858703121561428357614282613cf9565b5b6000614291878288016141a8565b945050602085013567ffffffffffffffff8111156142b2576142b1613cfe565b5b6142be878288016140b4565b93505060406142cf87828801613d50565b92505060606142e087828801614254565b91505092959194509250565b6000806040838503121561430357614302613cf9565b5b600061431185828601613d1a565b925050602083013567ffffffffffffffff81111561433257614331613cfe565b5b61433e858286016141c2565b9150509250929050565b60006020828403121561435e5761435d613cf9565b5b600061436c848285016141a8565b91505092915050565b600067ffffffffffffffff82169050919050565b61439281614375565b82525050565b600060ff82169050919050565b6143ae81614398565b82525050565b6143bd81614181565b82525050565b600060a0820190506143d86000830188613cc5565b6143e56020830187613cc5565b6143f26040830186614389565b6143ff60608301856143a5565b61440c60808301846143b4565b9695505050505050565b600067ffffffffffffffff82111561443157614430613edc565b5b602082029050602081019050919050565b600061445561445084614416565b613f3c565b9050808382526020820190506020840283018581111561447857614477613f83565b5b835b818110156144a1578061448d8882614254565b84526020840193505060208101905061447a565b5050509392505050565b600082601f8301126144c0576144bf613ec6565b5b81356144d0848260208601614442565b91505092915050565b600080600080608085870312156144f3576144f2613cf9565b5b6000614501878288016141a8565b945050602085013567ffffffffffffffff81111561452257614521613cfe565b5b61452e878288016140b4565b935050604085013567ffffffffffffffff81111561454f5761454e613cfe565b5b61455b878288016140b4565b925050606085013567ffffffffffffffff81111561457c5761457b613cfe565b5b614588878288016144ab565b91505092959194509250565b600081519050919050565b600082825260208201905092915050565b6000819050602082019050919050565b6145c981613d2f565b82525050565b6145d881613cb3565b82525050565b6060820160008201516145f460008501826145c0565b50602082015161460760208501826145cf565b50604082015161461a60408501826145c0565b50505050565b600061462c83836145de565b60608301905092915050565b6000602082019050919050565b600061465082614594565b61465a818561459f565b9350614665836145b0565b8060005b8381101561469657815161467d8882614620565b975061468883614638565b925050600181019050614669565b5085935050505092915050565b600060208201905081810360008301526146bd8184614645565b905092915050565b600080604083850312156146dc576146db613cf9565b5b60006146ea85828601613d1a565b92505060206146fb85828601613d1a565b9150509250929050565b60006020828403121561471b5761471a613cf9565b5b600082013567ffffffffffffffff81111561473957614738613cfe565b5b614745848285016141c2565b91505092915050565b6000806040838503121561476557614764613cf9565b5b600061477385828601613d1a565b925050602061478485828601614254565b9150509250929050565b60006060820190506147a36000830186613e42565b6147b06020830185614389565b6147bd6040830184613cc5565b949350505050565b600081519050919050565b600082825260208201905092915050565b6000819050602082019050919050565b600081519050919050565b600082825260208201905092915050565b60005b8381101561482b578082015181840152602081019050614810565b60008484015250505050565b6000614842826147f1565b61484c81856147fc565b935061485c81856020860161480d565b61486581613ecb565b840191505092915050565b61487981613e36565b82525050565b600081519050919050565b600082825260208201905092915050565b6000819050602082019050919050565b6080820160008201516148c160008501826145c0565b5060208201516148d460208501826145cf565b5060408201516148e760408501826145c0565b5060608201516148fa60608501826145c0565b50505050565b600061490c83836148ab565b60808301905092915050565b6000602082019050919050565b60006149308261487f565b61493a818561488a565b93506149458361489b565b8060005b8381101561497657815161495d8882614900565b975061496883614918565b925050600181019050614949565b5085935050505092915050565b60006101408301600083015184820360008601526149a18282614837565b91505060208301516149b660208601826145c0565b5060408301516149c960408601826145cf565b5060608301516149dc60608601826145c0565b5060808301516149ef60808601826145c0565b5060a083015184820360a0860152614a078282614837565b91505060c0830151614a1c60c0860182614870565b5060e083015184820360e0860152614a348282614925565b915050610100830151614a4b6101008601826145c0565b50610120830151614a606101208601826145c0565b508091505092915050565b6000614a778383614983565b905092915050565b6000602082019050919050565b6000614a97826147c5565b614aa181856147d0565b935083602082028501614ab3856147e1565b8060005b85811015614aef5784840389528151614ad08582614a6b565b9450614adb83614a7f565b925060208a01995050600181019050614ab7565b50829750879550505050505092915050565b60006020820190508181036000830152614b1b8184614a8c565b905092915050565b6000819050919050565b6000819050919050565b6000614b52614b4d614b4884614b23565b614b2d565b614375565b9050919050565b614b6281614b37565b82525050565b6000602082019050614b7d6000830184614b59565b92915050565b600082825260208201905092915050565b7f416d6f756e74206d7573742062652067726561746572207468616e207a65726f600082015250565b6000614bca602083614b83565b9150614bd582614b94565b602082019050919050565b60006020820190508181036000830152614bf981614bbd565b9050919050565b7f546f6b656e206e6f7420737570706f7274656400000000000000000000000000600082015250565b6000614c36601383614b83565b9150614c4182614c00565b602082019050919050565b60006020820190508181036000830152614c6581614c29565b9050919050565b6000606082019050614c816000830186613cc5565b614c8e6020830185613cc5565b614c9b6040830184613e0c565b949350505050565b600081519050614cb28161423d565b92915050565b600060208284031215614cce57614ccd613cf9565b5b6000614cdc84828501614ca3565b91505092915050565b7f5472616e73666572206661696c65640000000000000000000000000000000000600082015250565b6000614d1b600f83614b83565b9150614d2682614ce5565b602082019050919050565b60006020820190508181036000830152614d4a81614d0e565b9050919050565b7f4e487b7100000000000000000000000000000000000000000000000000000000600052601160045260246000fd5b6000614d8b82613d2f565b9150614d9683613d2f565b9250828201905080821115614dae57614dad614d51565b5b92915050565b7f556e617574686f72697a65640000000000000000000000000000000000000000600082015250565b6000614dea600c83614b83565b9150614df582614db4565b602082019050919050565b60006020820190508181036000830152614e1981614ddd565b9050919050565b7f4172726179206c656e677468206d69736d617463680000000000000000000000600082015250565b6000614e56601583614b83565b9150614e6182614e20565b602082019050919050565b60006020820190508181036000830152614e8581614e49565b9050919050565b7f496e76616c696420746f74616c206c6f737320636f756e740000000000000000600082015250565b6000614ec2601883614b83565b9150614ecd82614e8c565b602082019050919050565b60006020820190508181036000830152614ef181614eb5565b9050919050565b7f4e487b7100000000000000000000000000000000000000000000000000000000600052603260045260246000fd5b7f496e73756666696369656e74206465706f736974656420616d6f756e74000000600082015250565b6000614f5d601d83614b83565b9150614f6882614f27565b602082019050919050565b60006020820190508181036000830152614f8c81614f50565b9050919050565b6000614f9e82613d2f565b9150614fa983613d2f565b9250828203905081811115614fc157614fc0614d51565b5b92915050565b6000604082019050614fdc6000830185613cc5565b614fe96020830184613e0c565b9392505050565b600080fd5b600080fd5b600080fd5b6000808335600160200384360303811261501c5761501b614ffa565b5b83810192508235915060208301925067ffffffffffffffff82111561504457615043614ff0565b5b60018202360383131561505a57615059614ff5565b5b509250929050565b600082825260208201905092915050565b82818337600083830152505050565b600061508e8385615062565b935061509b838584615073565b6150a483613ecb565b840190509392505050565b60006150be6020840184613d1a565b905092915050565b6150cf81613cb3565b82525050565b6000606083016150e86000840184614fff565b85830360008701526150fb838284615082565b9250505061510c6020840184614fff565b858303602087015261511f838284615082565b9250505061513060408401846150af565b61513d60408601826150c6565b508091505092915050565b6000602082019050818103600083015261516281846150d5565b905092915050565b600080fd5b600080fd5b60008151905061518381614191565b92915050565b60008151905061519881613d03565b92915050565b600067ffffffffffffffff8211156151b9576151b8613edc565b5b602082029050602081019050919050565b6000815190506151d981613d39565b92915050565b6000606082840312156151f5576151f461516a565b5b6151ff6060613f3c565b9050600061520f848285016151ca565b600083015250602061522384828501615189565b6020830152506040615237848285016151ca565b60408301525092915050565b60006152566152518461519e565b613f3c565b9050808382526020820190506060840283018581111561527957615278613f83565b5b835b818110156152a2578061528e88826151df565b84526020840193505060608101905061527b565b5050509392505050565b600082601f8301126152c1576152c0613ec6565b5b81516152d1848260208601615243565b91505092915050565b600067ffffffffffffffff8211156152f5576152f4613edc565b5b602082029050602081019050919050565b600080fd5b600067ffffffffffffffff82111561532657615325613edc565b5b61532f82613ecb565b9050602081019050919050565b600061534f61534a8461530b565b613f3c565b90508281526020810184848401111561536b5761536a615306565b5b61537684828561480d565b509392505050565b600082601f83011261539357615392613ec6565b5b81516153a384826020860161533c565b91505092915050565b600067ffffffffffffffff8211156153c7576153c6613edc565b5b602082029050602081019050919050565b6000608082840312156153ee576153ed61516a565b5b6153f86080613f3c565b90506000615408848285016151ca565b600083015250602061541c84828501615189565b6020830152506040615430848285016151ca565b6040830152506060615444848285016151ca565b60608301525092915050565b600061546361545e846153ac565b613f3c565b9050808382526020820190506080840283018581111561548657615485613f83565b5b835b818110156154af578061549b88826153d8565b845260208401935050608081019050615488565b5050509392505050565b600082601f8301126154ce576154cd613ec6565b5b81516154de848260208601615450565b91505092915050565b600061014082840312156154fe576154fd61516a565b5b615509610140613f3c565b9050600082015167ffffffffffffffff8111156155295761552861516f565b5b6155358482850161537e565b6000830152506020615549848285016151ca565b602083015250604061555d84828501615189565b6040830152506060615571848285016151ca565b6060830152506080615585848285016151ca565b60808301525060a082015167ffffffffffffffff8111156155a9576155a861516f565b5b6155b58482850161537e565b60a08301525060c06155c984828501614ca3565b60c08301525060e082015167ffffffffffffffff8111156155ed576155ec61516f565b5b6155f9848285016154b9565b60e08301525061010061560e848285016151ca565b61010083015250610120615624848285016151ca565b6101208301525092915050565b600061564461563f846152da565b613f3c565b9050808382526020820190506020840283018581111561566757615666613f83565b5b835b818110156156ae57805167ffffffffffffffff81111561568c5761568b613ec6565b5b80860161569989826154e7565b85526020850194505050602081019050615669565b5050509392505050565b600082601f8301126156cd576156cc613ec6565b5b81516156dd848260208601615631565b91505092915050565b600060c082840312156156fc576156fb61516a565b5b61570660c0613f3c565b9050600061571684828501615174565b600083015250602061572a84828501615189565b602083015250604082015167ffffffffffffffff81111561574e5761574d61516f565b5b61575a848285016152ac565b604083015250606082015167ffffffffffffffff81111561577e5761577d61516f565b5b61578a848285016156b8565b606083015250608082015167ffffffffffffffff8111156157ae576157ad61516f565b5b6157ba8482850161537e565b60808301525060a06157ce848285016151ca565b60a08301525092915050565b6000602082840312156157f0576157ef613cf9565b5b600082015167ffffffffffffffff81111561580e5761580d613cfe565b5b61581a848285016156e6565b91505092915050565b7f4e487b7100000000000000000000000000000000000000000000000000000000600052602160045260246000fd5b7f496e76616c696420646973707574652073746174757300000000000000000000600082015250565b6000615888601683614b83565b915061589382615852565b602082019050919050565b600060208201905081810360008301526158b78161587b565b9050919050565b60006158c982614375565b91506158d483614375565b9250828201905067ffffffffffffffff8111156158f4576158f3614d51565b5b92915050565b7f446973707574652077696e646f7720636c6f7365640000000000000000000000600082015250565b6000615930601583614b83565b915061593b826158fa565b602082019050919050565b6000602082019050818103600083015261595f81615923565b9050919050565b61596f81613cb3565b82525050565b6000604082019050818103600083015261598f81856150d5565b905061599e6020830184615966565b9392505050565b7f4e487b7100000000000000000000000000000000000000000000000000000000600052602260045260246000fd5b600060028204905060018216806159ec57607f821691505b6020821081036159ff576159fe6159a5565b5b50919050565b60008190508160005260206000209050919050565b60006020601f8301049050919050565b600082821b905092915050565b600060088302615a677fffffffffffffffffffffffffffffffffffffffffffffffffffffffffffffffff82615a2a565b615a718683615a2a565b95508019841693508086168417925050509392505050565b6000615aa4615a9f615a9a84613d2f565b614b2d565b613d2f565b9050919050565b6000819050919050565b615abe83615a89565b615ad2615aca82615aab565b848454615a37565b825550505050565b600090565b615ae7615ada565b615af2818484615ab5565b505050565b5b81811015615b1657615b0b600082615adf565b600181019050615af8565b5050565b601f821115615b5b57615b2c81615a05565b615b3584615a1a565b81016020851015615b44578190505b615b58615b5085615a1a565b830182615af7565b50505b505050565b600082821c905092915050565b6000615b7e60001984600802615b60565b1980831691505092915050565b6000615b978383615b6d565b9150826002028217905092915050565b615bb0826147f1565b67ffffffffffffffff811115615bc957615bc8613edc565b5b615bd382546159d4565b615bde828285615b1a565b600060209050601f831160018114615c115760008415615bff578287015190505b615c098582615b8b565b865550615c71565b601f198416615c1f86615a05565b60005b82811015615c4757848901518255600182019150602085019450602081019050615c22565b86831015615c645784890151615c60601f891682615b6d565b8355505b6001600288020188555050505b505050505050565b6000602082019050615c8e60008301846143b4565b92915050565b7f526571756972652044657820537570706f727465720000000000000000000000600082015250565b6000615cca601583614b83565b9150615cd582615c94565b602082019050919050565b60006020820190508181036000830152615cf981615cbd565b9050919050565b615d0981614375565b8114615d1457600080fd5b50565b600081519050615d2681615d00565b92915050565b600060808284031215615d4257615d4161516a565b5b615d4c6080613f3c565b90506000615d5c84828501615189565b6000830152506020615d7084828501615189565b6020830152506040615d84848285016151ca565b6040830152506060615d9884828501615d17565b60608301525092915050565b600060808284031215615dba57615db9613cf9565b5b6000615dc884828501615d2c565b91505092915050565b7f416d6f756e74206d7573742062796573652067726561746572207468616e207a60008201527f65726f0000000000000000000000000000000000000000000000000000000000602082015250565b6000615e2d602383614b83565b9150615e3882615dd1565b604082019050919050565b60006020820190508181036000830152615e5c81615e20565b9050919050565b7f5369676e61747572652045787069726564000000000000000000000000000000600082015250565b6000615e99601183614b83565b9150615ea482615e63565b602082019050919050565b60006020820190508181036000830152615ec881615e8c565b9050919050565b600080fd5b600080fd5b600080fd5b60008083356001602003843603038112615efb57615efa615ecf565b5b80840192508235915067ffffffffffffffff821115615f1d57615f1c615ed4565b5b602083019250600182023603831315615f3957615f38615ed9565b5b509250929050565b600081905092915050565b6000615f588385615f41565b9350615f65838584615073565b82840190509392505050565b6000615f7e828486615f4c565b91508190509392505050565b6000615f9582614181565b9150615fa083614181565b9250828201905063ffffffff811115615fbc57615fbb614d51565b5b9291505056fea264697066735822122023a03b8b235c39279303e9f156bb3a862c6bd5c0138556ca9709459e9005f00e64736f6c63430008180033",
  "linkReferences": {
    "contracts/0xVault/libs/Crypto.sol": {
      "Crypto": [
        {
          "length": 20,
          "start": 4126
        },
        {
          "length": 20,
          "start": 4474
        },
        {
          "length": 20,
          "start": 6859
        },
        {
          "length": 20,
          "start": 10129
        },
        {
          "length": 20,
          "start": 10361
        }
      ]
    }
  },
  "deployedLinkReferences": {
    "contracts/0xVault/libs/Crypto.sol": {
      "Crypto": [
        {
          "length": 20,
          "start": 4093
        },
        {
          "length": 20,
          "start": 4441
        },
        {
          "length": 20,
          "start": 6826
        },
        {
          "length": 20,
          "start": 10096
        },
        {
          "length": 20,
          "start": 10328
        }
      ]
    }
  }
}