{
  "_format": "hh-sol-artifact-1",
  "contractName": "Crypto",
  "sourceName": "contracts/0xVault/libs/Crypto.sol",
  "abi": [
    {
      "inputs": [],
      "name": "DisputeChallengeFailed",
      "type": "error"
    },
    {
      "inputs": [],
      "name": "ECRecoverFailed",
      "type": "error"
    },
    {
      "inputs": [],
      "name": "InvalidAddress",
      "type": "error"
    },
    {
      "inputs": [],
      "name": "InvalidChainId",
      "type": "error"
    },
    {
      "inputs": [],
      "name": "InvalidSP",
      "type": "error"
    },
    {
      "inputs": [],
      "name": "InvalidSchnorrSignature",
      "type": "error"
    },
    {
      "inputs": [],
      "name": "InvalidSignature",
      "type": "error"
    },
    {
      "inputs": [],
      "name": "InvalidUsedSignature",
      "type": "error"
    },
    {
      "inputs": [],
      "name": "SettleDisputeFailed",
      "type": "error"
    },
    {
      "inputs": [
        {
          "internalType": "bytes",
          "name": "sig",
          "type": "bytes"
        }
      ],
      "name": "_splitSignature",
      "outputs": [
        {
          "internalType": "bytes32",
          "name": "r",
          "type": "bytes32"
        },
        {
          "internalType": "bytes32",
          "name": "s",
          "type": "bytes32"
        },
        {
          "internalType": "uint8",
          "name": "v",
          "type": "uint8"
        }
      ],
      "stateMutability": "pure",
      "type": "function"
    },
    {
      "inputs": [
        {
          "components": [
            {
              "internalType": "bytes",
              "name": "data",
              "type": "bytes"
            },
            {
              "internalType": "bytes",
              "name": "signature",
              "type": "bytes"
            },
            {
              "internalType": "address",
              "name": "combinedPublicKey",
              "type": "address"
            }
          ],
          "internalType": "struct Crypto.SchnorrSignature",
          "name": "_schnorr",
          "type": "tuple"
        },
        {
          "internalType": "address",
          "name": "_combinedPublicKey",
          "type": "address"
        }
      ],
      "name": "_verifySchnorrSignature",
      "outputs": [
        {
          "internalType": "bool",
          "name": "",
          "type": "bool"
        }
      ],
      "stateMutability": "pure",
      "type": "function"
    },
    {
      "inputs": [
        {
          "internalType": "bytes32",
          "name": "_digest",
          "type": "bytes32"
        },
        {
          "internalType": "bytes",
          "name": "_signature",
          "type": "bytes"
        },
        {
          "internalType": "address",
          "name": "_trustedSigner",
          "type": "address"
        }
      ],
      "name": "_verifySignature",
      "outputs": [],
      "stateMutability": "pure",
      "type": "function"
    },
    {
      "inputs": [
        {
          "components": [
            {
              "internalType": "bytes",
              "name": "data",
              "type": "bytes"
            },
            {
              "internalType": "bytes",
              "name": "signature",
              "type": "bytes"
            },
            {
              "internalType": "address",
              "name": "combinedPublicKey",
              "type": "address"
            }
          ],
          "internalType": "struct Crypto.SchnorrSignature",
          "name": "_schnorr",
          "type": "tuple"
        }
      ],
      "name": "decodeSchnorrData",
      "outputs": [
        {
          "components": [
            {
              "internalType": "uint32",
              "name": "signatureId",
              "type": "uint32"
            },
            {
              "internalType": "address",
              "name": "addr",
              "type": "address"
            },
            {
              "components": [
                {
                  "internalType": "bytes32",
                  "name": "oracleId",
                  "type": "bytes32"
                },
                {
                  "internalType": "address",
                  "name": "addr",
                  "type": "address"
                },
                {
                  "internalType": "uint256",
                  "name": "balance",
                  "type": "uint256"
                }
              ],
              "internalType": "struct Crypto.Balance[]",
              "name": "balances",
              "type": "tuple[]"
            },
            {
              "components": [
                {
                  "internalType": "string",
                  "name": "positionId",
                  "type": "string"
                },
                {
                  "internalType": "bytes32",
                  "name": "oracleId",
                  "type": "bytes32"
                },
                {
                  "internalType": "address",
                  "name": "token",
                  "type": "address"
                },
                {
                  "internalType": "uint256",
                  "name": "quantity",
                  "type": "uint256"
                },
                {
                  "internalType": "uint256",
                  "name": "leverageFactor",
                  "type": "uint256"
                },
                {
                  "internalType": "string",
                  "name": "leverageType",
                  "type": "string"
                },
                {
                  "internalType": "bool",
                  "name": "isLong",
                  "type": "bool"
                },
                {
                  "components": [
                    {
                      "internalType": "bytes32",
                      "name": "oracleId",
                      "type": "bytes32"
                    },
                    {
                      "internalType": "address",
                      "name": "token",
                      "type": "address"
                    },
                    {
                      "internalType": "uint256",
                      "name": "quantity",
                      "type": "uint256"
                    },
                    {
                      "internalType": "uint256",
                      "name": "entryPrice",
                      "type": "uint256"
                    }
                  ],
                  "internalType": "struct Crypto.Collateral[]",
                  "name": "collaterals",
                  "type": "tuple[]"
                },
                {
                  "internalType": "uint256",
                  "name": "entryPrice",
                  "type": "uint256"
                },
                {
                  "internalType": "uint256",
                  "name": "createdTimestamp",
                  "type": "uint256"
                }
              ],
              "internalType": "struct Crypto.Position[]",
              "name": "positions",
              "type": "tuple[]"
            },
            {
              "internalType": "string",
              "name": "sigType",
              "type": "string"
            },
            {
              "internalType": "uint256",
              "name": "timestamp",
              "type": "uint256"
            },
            {
              "internalType": "uint256",
              "name": "chainId",
              "type": "uint256"
            }
          ],
          "internalType": "struct Crypto.SchnorrData",
          "name": "",
          "type": "tuple"
        }
      ],
      "stateMutability": "view",
      "type": "function"
    },
    {
      "inputs": [
        {
          "components": [
            {
              "internalType": "bytes",
              "name": "data",
              "type": "bytes"
            },
            {
              "internalType": "bytes",
              "name": "signature",
              "type": "bytes"
            },
            {
              "internalType": "address",
              "name": "combinedPublicKey",
              "type": "address"
            }
          ],
          "internalType": "struct Crypto.SchnorrSignature",
          "name": "_schnorr",
          "type": "tuple"
        },
        {
          "internalType": "address",
          "name": "combinedPublicKey",
          "type": "address"
        }
      ],
      "name": "decodeSchnorrDataWithdraw",
      "outputs": [
        {
          "components": [
            {
              "internalType": "address",
              "name": "trader",
              "type": "address"
            },
            {
              "internalType": "address",
              "name": "token",
              "type": "address"
            },
            {
              "internalType": "uint256",
              "name": "amount",
              "type": "uint256"
            },
            {
              "internalType": "uint64",
              "name": "timestamp",
              "type": "uint64"
            },
            {
              "internalType": "uint256",
              "name": "chainId",
              "type": "uint256"
            }
          ],
          "internalType": "struct Crypto.SchnorrDataWithdraw",
          "name": "",
          "type": "tuple"
        }
      ],
      "stateMutability": "view",
      "type": "function"
    }
  ],
  "bytecode": "0x61200e610053600b82828239805160001a607314610046577f4e487b7100000000000000000000000000000000000000000000000000000000600052600060045260246000fd5b30600052607381538281f3fe73000000000000000000000000000000000000000030146080604052600436106100615760003560e01c806306d02c88146100665780631e65bff41461009657806376b90c59146100b25780639bd0e9e9146100e2578063bc018c4014610114575b600080fd5b610080600480360381019061007b9190610917565b610144565b60405161008d9190610ee6565b60405180910390f35b6100b060048036038101906100ab9190610fc5565b610218565b005b6100cc60048036038101906100c79190611039565b61035e565b6040516100d99190611120565b60405180910390f35b6100fc60048036038101906100f7919061126b565b610481565b60405161010b939291906112df565b60405180910390f35b61012e600480360381019061012991906113bc565b6104e9565b60405161013b9190611427565b60405180910390f35b61014c610821565b60008060008060008060008880600001906101679190611451565b8101906101749190611aa4565b96509650965096509650965096504681146101bb576040517f7a47c9a200000000000000000000000000000000000000000000000000000000815260040160405180910390fd5b6040518060e001604052808863ffffffff1681526020018773ffffffffffffffffffffffffffffffffffffffff16815260200186815260200185815260200184815260200183815260200182815250975050505050505050919050565b60008460405160200161022b9190611c12565b604051602081830303815290604052805190602001209050600080600061029587878080601f016020809104026020016040519081016040528093929190818152602001838380828437600081840152601f19601f82011690508083019250505050505050610481565b9250925092506000600185838686604051600081526020016040526040516102c09493929190611c56565b6020604051602081039080840390855afa1580156102e2573d6000803e3d6000fd5b5050506020604051035190508573ffffffffffffffffffffffffffffffffffffffff168173ffffffffffffffffffffffffffffffffffffffff1614610353576040517f8baa579f00000000000000000000000000000000000000000000000000000000815260040160405180910390fd5b505050505050505050565b61036661087a565b6103798361037390611c9b565b836104e9565b6103af576040517ff08f7bd800000000000000000000000000000000000000000000000000000000815260040160405180910390fd5b60008060008060008780600001906103c79190611451565b8101906103d49190611cda565b94509450945094509450468114610417576040517f7a47c9a200000000000000000000000000000000000000000000000000000000815260040160405180910390fd5b6040518060a001604052808673ffffffffffffffffffffffffffffffffffffffff1681526020018573ffffffffffffffffffffffffffffffffffffffff1681526020018481526020018367ffffffffffffffff168152602001828152509550505050505092915050565b600080600060418451146104ca576040517f08c379a00000000000000000000000000000000000000000000000000000000081526004016104c190611db2565b60405180910390fd5b6020840151925060408401519150606084015160001a90509193909250565b60008173ffffffffffffffffffffffffffffffffffffffff16836040015173ffffffffffffffffffffffffffffffffffffffff1614610554576040517ff08f7bd800000000000000000000000000000000000000000000000000000000815260040160405180910390fd5b608083602001515114610593576040517ff08f7bd800000000000000000000000000000000000000000000000000000000815260040160405180910390fd5b60008060008086602001518060200190518101906105b19190611e13565b935093509350935060007ffffffffffffffffffffffffffffffffebaaedce6af48a03bbfd25e8cd0364141806105ea576105e9611e7a565b5b8560001c8460001c097ffffffffffffffffffffffffffffffffebaaedce6af48a03bbfd25e8cd036414161061e9190611ed8565b60001b905060007ffffffffffffffffffffffffffffffffebaaedce6af48a03bbfd25e8cd03641418061065457610653611e7a565b5b8660001c8660001c097ffffffffffffffffffffffffffffffffebaaedce6af48a03bbfd25e8cd03641416106889190611ed8565b60001b90506000801b82036106c9576040517fe296c92d00000000000000000000000000000000000000000000000000000000815260040160405180910390fd5b6000600183858985604051600081526020016040526040516106ee9493929190611c56565b6020604051602081039080840390855afa158015610710573d6000803e3d6000fd5b505050602060405103519050600073ffffffffffffffffffffffffffffffffffffffff168173ffffffffffffffffffffffffffffffffffffffff1603610782576040517f4fbfae6300000000000000000000000000000000000000000000000000000000815260040160405180910390fd5b8084888c60000151805190602001206040516020016107a49493929190611f8a565b60405160208183030381529060405280519060200120861480156107fa5750896040015173ffffffffffffffffffffffffffffffffffffffff168760001c73ffffffffffffffffffffffffffffffffffffffff16145b1561080f57600197505050505050505061081b565b60009750505050505050505b92915050565b6040518060e00160405280600063ffffffff168152602001600073ffffffffffffffffffffffffffffffffffffffff16815260200160608152602001606081526020016060815260200160008152602001600081525090565b6040518060a00160405280600073ffffffffffffffffffffffffffffffffffffffff168152602001600073ffffffffffffffffffffffffffffffffffffffff16815260200160008152602001600067ffffffffffffffff168152602001600081525090565b6000604051905090565b600080fd5b600080fd5b600080fd5b60006060828403121561090e5761090d6108f3565b5b81905092915050565b60006020828403121561092d5761092c6108e9565b5b600082013567ffffffffffffffff81111561094b5761094a6108ee565b5b610957848285016108f8565b91505092915050565b600063ffffffff82169050919050565b61097981610960565b82525050565b600073ffffffffffffffffffffffffffffffffffffffff82169050919050565b60006109aa8261097f565b9050919050565b6109ba8161099f565b82525050565b600081519050919050565b600082825260208201905092915050565b6000819050602082019050919050565b6000819050919050565b6109ff816109ec565b82525050565b6000819050919050565b610a1881610a05565b82525050565b606082016000820151610a3460008501826109f6565b506020820151610a4760208501826109b1565b506040820151610a5a6040850182610a0f565b50505050565b6000610a6c8383610a1e565b60608301905092915050565b6000602082019050919050565b6000610a90826109c0565b610a9a81856109cb565b9350610aa5836109dc565b8060005b83811015610ad6578151610abd8882610a60565b9750610ac883610a78565b925050600181019050610aa9565b5085935050505092915050565b600081519050919050565b600082825260208201905092915050565b6000819050602082019050919050565b600081519050919050565b600082825260208201905092915050565b60005b83811015610b49578082015181840152602081019050610b2e565b60008484015250505050565b6000601f19601f8301169050919050565b6000610b7182610b0f565b610b7b8185610b1a565b9350610b8b818560208601610b2b565b610b9481610b55565b840191505092915050565b60008115159050919050565b610bb481610b9f565b82525050565b600081519050919050565b600082825260208201905092915050565b6000819050602082019050919050565b608082016000820151610bfc60008501826109f6565b506020820151610c0f60208501826109b1565b506040820151610c226040850182610a0f565b506060820151610c356060850182610a0f565b50505050565b6000610c478383610be6565b60808301905092915050565b6000602082019050919050565b6000610c6b82610bba565b610c758185610bc5565b9350610c8083610bd6565b8060005b83811015610cb1578151610c988882610c3b565b9750610ca383610c53565b925050600181019050610c84565b5085935050505092915050565b6000610140830160008301518482036000860152610cdc8282610b66565b9150506020830151610cf160208601826109f6565b506040830151610d0460408601826109b1565b506060830151610d176060860182610a0f565b506080830151610d2a6080860182610a0f565b5060a083015184820360a0860152610d428282610b66565b91505060c0830151610d5760c0860182610bab565b5060e083015184820360e0860152610d6f8282610c60565b915050610100830151610d86610100860182610a0f565b50610120830151610d9b610120860182610a0f565b508091505092915050565b6000610db28383610cbe565b905092915050565b6000602082019050919050565b6000610dd282610ae3565b610ddc8185610aee565b935083602082028501610dee85610aff565b8060005b85811015610e2a5784840389528151610e0b8582610da6565b9450610e1683610dba565b925060208a01995050600181019050610df2565b50829750879550505050505092915050565b600060e083016000830151610e546000860182610970565b506020830151610e6760208601826109b1565b5060408301518482036040860152610e7f8282610a85565b91505060608301518482036060860152610e998282610dc7565b91505060808301518482036080860152610eb38282610b66565b91505060a0830151610ec860a0860182610a0f565b5060c0830151610edb60c0860182610a0f565b508091505092915050565b60006020820190508181036000830152610f008184610e3c565b905092915050565b610f11816109ec565b8114610f1c57600080fd5b50565b600081359050610f2e81610f08565b92915050565b600080fd5b600080fd5b600080fd5b60008083601f840112610f5957610f58610f34565b5b8235905067ffffffffffffffff811115610f7657610f75610f39565b5b602083019150836001820283011115610f9257610f91610f3e565b5b9250929050565b610fa28161099f565b8114610fad57600080fd5b50565b600081359050610fbf81610f99565b92915050565b60008060008060608587031215610fdf57610fde6108e9565b5b6000610fed87828801610f1f565b945050602085013567ffffffffffffffff81111561100e5761100d6108ee565b5b61101a87828801610f43565b9350935050604061102d87828801610fb0565b91505092959194509250565b600080604083850312156110505761104f6108e9565b5b600083013567ffffffffffffffff81111561106e5761106d6108ee565b5b61107a858286016108f8565b925050602061108b85828601610fb0565b9150509250929050565b600067ffffffffffffffff82169050919050565b6110b281611095565b82525050565b60a0820160008201516110ce60008501826109b1565b5060208201516110e160208501826109b1565b5060408201516110f46040850182610a0f565b50606082015161110760608501826110a9565b50608082015161111a6080850182610a0f565b50505050565b600060a08201905061113560008301846110b8565b92915050565b600080fd5b7f4e487b7100000000000000000000000000000000000000000000000000000000600052604160045260246000fd5b61117882610b55565b810181811067ffffffffffffffff8211171561119757611196611140565b5b80604052505050565b60006111aa6108df565b90506111b6828261116f565b919050565b600067ffffffffffffffff8211156111d6576111d5611140565b5b6111df82610b55565b9050602081019050919050565b82818337600083830152505050565b600061120e611209846111bb565b6111a0565b90508281526020810184848401111561122a5761122961113b565b5b6112358482856111ec565b509392505050565b600082601f83011261125257611251610f34565b5b81356112628482602086016111fb565b91505092915050565b600060208284031215611281576112806108e9565b5b600082013567ffffffffffffffff81111561129f5761129e6108ee565b5b6112ab8482850161123d565b91505092915050565b6112bd816109ec565b82525050565b600060ff82169050919050565b6112d9816112c3565b82525050565b60006060820190506112f460008301866112b4565b61130160208301856112b4565b61130e60408301846112d0565b949350505050565b600080fd5b600080fd5b60006060828403121561133657611335611316565b5b61134060606111a0565b9050600082013567ffffffffffffffff8111156113605761135f61131b565b5b61136c8482850161123d565b600083015250602082013567ffffffffffffffff8111156113905761138f61131b565b5b61139c8482850161123d565b60208301525060406113b084828501610fb0565b60408301525092915050565b600080604083850312156113d3576113d26108e9565b5b600083013567ffffffffffffffff8111156113f1576113f06108ee565b5b6113fd85828601611320565b925050602061140e85828601610fb0565b9150509250929050565b61142181610b9f565b82525050565b600060208201905061143c6000830184611418565b92915050565b600080fd5b600080fd5b600080fd5b6000808335600160200384360303811261146e5761146d611442565b5b80840192508235915067ffffffffffffffff8211156114905761148f611447565b5b6020830192506001820236038313156114ac576114ab61144c565b5b509250929050565b6114bd81610960565b81146114c857600080fd5b50565b6000813590506114da816114b4565b92915050565b60006114eb8261097f565b9050919050565b6114fb816114e0565b811461150657600080fd5b50565b600081359050611518816114f2565b92915050565b600067ffffffffffffffff82111561153957611538611140565b5b602082029050602081019050919050565b61155381610a05565b811461155e57600080fd5b50565b6000813590506115708161154a565b92915050565b60006060828403121561158c5761158b611316565b5b61159660606111a0565b905060006115a684828501610f1f565b60008301525060206115ba84828501610fb0565b60208301525060406115ce84828501611561565b60408301525092915050565b60006115ed6115e88461151e565b6111a0565b905080838252602082019050606084028301858111156116105761160f610f3e565b5b835b8181101561163957806116258882611576565b845260208401935050606081019050611612565b5050509392505050565b600082601f83011261165857611657610f34565b5b81356116688482602086016115da565b91505092915050565b600067ffffffffffffffff82111561168c5761168b611140565b5b602082029050602081019050919050565b600067ffffffffffffffff8211156116b8576116b7611140565b5b6116c182610b55565b9050602081019050919050565b60006116e16116dc8461169d565b6111a0565b9050828152602081018484840111156116fd576116fc61113b565b5b6117088482856111ec565b509392505050565b600082601f83011261172557611724610f34565b5b81356117358482602086016116ce565b91505092915050565b61174781610b9f565b811461175257600080fd5b50565b6000813590506117648161173e565b92915050565b600067ffffffffffffffff82111561178557611784611140565b5b602082029050602081019050919050565b6000608082840312156117ac576117ab611316565b5b6117b660806111a0565b905060006117c684828501610f1f565b60008301525060206117da84828501610fb0565b60208301525060406117ee84828501611561565b604083015250606061180284828501611561565b60608301525092915050565b600061182161181c8461176a565b6111a0565b9050808382526020820190506080840283018581111561184457611843610f3e565b5b835b8181101561186d57806118598882611796565b845260208401935050608081019050611846565b5050509392505050565b600082601f83011261188c5761188b610f34565b5b813561189c84826020860161180e565b91505092915050565b600061014082840312156118bc576118bb611316565b5b6118c76101406111a0565b9050600082013567ffffffffffffffff8111156118e7576118e661131b565b5b6118f384828501611710565b600083015250602061190784828501610f1f565b602083015250604061191b84828501610fb0565b604083015250606061192f84828501611561565b606083015250608061194384828501611561565b60808301525060a082013567ffffffffffffffff8111156119675761196661131b565b5b61197384828501611710565b60a08301525060c061198784828501611755565b60c08301525060e082013567ffffffffffffffff8111156119ab576119aa61131b565b5b6119b784828501611877565b60e0830152506101006119cc84828501611561565b610100830152506101206119e284828501611561565b6101208301525092915050565b6000611a026119fd84611671565b6111a0565b90508083825260208201905060208402830185811115611a2557611a24610f3e565b5b835b81811015611a6c57803567ffffffffffffffff811115611a4a57611a49610f34565b5b808601611a5789826118a5565b85526020850194505050602081019050611a27565b5050509392505050565b600082601f830112611a8b57611a8a610f34565b5b8135611a9b8482602086016119ef565b91505092915050565b600080600080600080600060e0888a031215611ac357611ac26108e9565b5b6000611ad18a828b016114cb565b9750506020611ae28a828b01611509565b965050604088013567ffffffffffffffff811115611b0357611b026108ee565b5b611b0f8a828b01611643565b955050606088013567ffffffffffffffff811115611b3057611b2f6108ee565b5b611b3c8a828b01611a76565b945050608088013567ffffffffffffffff811115611b5d57611b5c6108ee565b5b611b698a828b01611710565b93505060a0611b7a8a828b01611561565b92505060c0611b8b8a828b01611561565b91505092959891949750929550565b600081905092915050565b7f19457468657265756d205369676e6564204d6573736167653a0a333200000000600082015250565b6000611bdb601c83611b9a565b9150611be682611ba5565b601c82019050919050565b6000819050919050565b611c0c611c07826109ec565b611bf1565b82525050565b6000611c1d82611bce565b9150611c298284611bfb565b60208201915081905092915050565b611c41816109ec565b82525050565b611c50816112c3565b82525050565b6000608082019050611c6b6000830187611c38565b611c786020830186611c47565b611c856040830185611c38565b611c926060830184611c38565b95945050505050565b6000611ca73683611320565b9050919050565b611cb781611095565b8114611cc257600080fd5b50565b600081359050611cd481611cae565b92915050565b600080600080600060a08688031215611cf657611cf56108e9565b5b6000611d0488828901611509565b9550506020611d1588828901611509565b9450506040611d2688828901611561565b9350506060611d3788828901611cc5565b9250506080611d4888828901611561565b9150509295509295909350565b600082825260208201905092915050565b7f696e76616c6964207369676e6174757265206c656e6774680000000000000000600082015250565b6000611d9c601883611d55565b9150611da782611d66565b602082019050919050565b60006020820190508181036000830152611dcb81611d8f565b9050919050565b600081519050611de181610f08565b92915050565b611df0816112c3565b8114611dfb57600080fd5b50565b600081519050611e0d81611de7565b92915050565b60008060008060808587031215611e2d57611e2c6108e9565b5b6000611e3b87828801611dd2565b9450506020611e4c87828801611dd2565b9350506040611e5d87828801611dd2565b9250506060611e6e87828801611dfe565b91505092959194509250565b7f4e487b7100000000000000000000000000000000000000000000000000000000600052601260045260246000fd5b7f4e487b7100000000000000000000000000000000000000000000000000000000600052601160045260246000fd5b6000611ee382610a05565b9150611eee83610a05565b9250828203905081811115611f0657611f05611ea9565b5b92915050565b60008160601b9050919050565b6000611f2482611f0c565b9050919050565b6000611f3682611f19565b9050919050565b611f4e611f498261099f565b611f2b565b82525050565b60008160f81b9050919050565b6000611f6c82611f54565b9050919050565b611f84611f7f826112c3565b611f61565b82525050565b6000611f968287611f3d565b601482019150611fa68286611f73565b600182019150611fb68285611bfb565b602082019150611fc68284611bfb565b6020820191508190509594505050505056fea26469706673582212204cb1cc0cbbc3872f794b5c356e204971a6e41d27be5d61102d1ff8152cc58e4b64736f6c63430008180033",
  "linkReferences": {},
  "deployedLinkReferences": {}
}