{
  "_format": "hh-sol-artifact-1",
  "contractName": "Dex",
  "sourceName": "contracts/0xVault/libs/Dex.sol",
  "abi": [
    {
      "inputs": [],
      "name": "BACKSTOP_LIQUIDATION_PERCENT",
      "outputs": [
        {
          "internalType": "uint256",
          "name": "",
          "type": "uint256"
        }
      ],
      "stateMutability": "view",
      "type": "function"
    },
    {
      "inputs": [],
      "name": "MAINTENANCE_MARGIN_PERCENT",
      "outputs": [
        {
          "internalType": "uint256",
          "name": "",
          "type": "uint256"
        }
      ],
      "stateMutability": "view",
      "type": "function"
    },
    {
      "inputs": [
        {
          "components": [
            {
              "internalType": "string",
              "name": "positionId",
              "type": "string"
            },
            {
              "internalType": "bytes32",
              "name": "oracleId",
              "type": "bytes32"
            },
            {
              "internalType": "address",
              "name": "token",
              "type": "address"
            },
            {
              "internalType": "uint256",
              "name": "quantity",
              "type": "uint256"
            },
            {
              "internalType": "uint256",
              "name": "leverageFactor",
              "type": "uint256"
            },
            {
              "internalType": "string",
              "name": "leverageType",
              "type": "string"
            },
            {
              "internalType": "bool",
              "name": "isLong",
              "type": "bool"
            },
            {
              "components": [
                {
                  "internalType": "bytes32",
                  "name": "oracleId",
                  "type": "bytes32"
                },
                {
                  "internalType": "address",
                  "name": "token",
                  "type": "address"
                },
                {
                  "internalType": "uint256",
                  "name": "quantity",
                  "type": "uint256"
                },
                {
                  "internalType": "uint256",
                  "name": "entryPrice",
                  "type": "uint256"
                }
              ],
              "internalType": "struct Crypto.Collateral[]",
              "name": "collaterals",
              "type": "tuple[]"
            },
            {
              "internalType": "uint256",
              "name": "entryPrice",
              "type": "uint256"
            },
            {
              "internalType": "uint256",
              "name": "createdTimestamp",
              "type": "uint256"
            }
          ],
          "internalType": "struct Crypto.Position",
          "name": "position",
          "type": "tuple"
        },
        {
          "components": [
            {
              "internalType": "bytes32",
              "name": "id",
              "type": "bytes32"
            },
            {
              "internalType": "uint256",
              "name": "price",
              "type": "uint256"
            }
          ],
          "internalType": "struct IRedstoneOracle.PriceFeed[]",
          "name": "allFeeds",
          "type": "tuple[]"
        },
        {
          "components": [
            {
              "internalType": "bytes32",
              "name": "oracleId",
              "type": "bytes32"
            },
            {
              "internalType": "address",
              "name": "addr",
              "type": "address"
            },
            {
              "internalType": "uint256",
              "name": "balance",
              "type": "uint256"
            }
          ],
          "internalType": "struct Crypto.Balance[]",
          "name": "balances",
          "type": "tuple[]"
        }
      ],
      "name": "_checkLiquidatedPosition",
      "outputs": [
        {
          "internalType": "bool",
          "name": "",
          "type": "bool"
        }
      ],
      "stateMutability": "pure",
      "type": "function"
    },
    {
      "inputs": [
        {
          "components": [
            {
              "internalType": "string",
              "name": "positionId",
              "type": "string"
            },
            {
              "internalType": "bytes32",
              "name": "oracleId",
              "type": "bytes32"
            },
            {
              "internalType": "address",
              "name": "token",
              "type": "address"
            },
            {
              "internalType": "uint256",
              "name": "quantity",
              "type": "uint256"
            },
            {
              "internalType": "uint256",
              "name": "leverageFactor",
              "type": "uint256"
            },
            {
              "internalType": "string",
              "name": "leverageType",
              "type": "string"
            },
            {
              "internalType": "bool",
              "name": "isLong",
              "type": "bool"
            },
            {
              "components": [
                {
                  "internalType": "bytes32",
                  "name": "oracleId",
                  "type": "bytes32"
                },
                {
                  "internalType": "address",
                  "name": "token",
                  "type": "address"
                },
                {
                  "internalType": "uint256",
                  "name": "quantity",
                  "type": "uint256"
                },
                {
                  "internalType": "uint256",
                  "name": "entryPrice",
                  "type": "uint256"
                }
              ],
              "internalType": "struct Crypto.Collateral[]",
              "name": "collaterals",
              "type": "tuple[]"
            },
            {
              "internalType": "uint256",
              "name": "entryPrice",
              "type": "uint256"
            },
            {
              "internalType": "uint256",
              "name": "createdTimestamp",
              "type": "uint256"
            }
          ],
          "internalType": "struct Crypto.Position",
          "name": "position",
          "type": "tuple"
        },
        {
          "components": [
            {
              "internalType": "bytes32",
              "name": "id",
              "type": "bytes32"
            },
            {
              "internalType": "uint256",
              "name": "price",
              "type": "uint256"
            }
          ],
          "internalType": "struct IRedstoneOracle.PriceFeed[]",
          "name": "allFeeds",
          "type": "tuple[]"
        }
      ],
      "name": "_getPositionLoss",
      "outputs": [
        {
          "internalType": "uint256",
          "name": "",
          "type": "uint256"
        }
      ],
      "stateMutability": "pure",
      "type": "function"
    },
    {
      "inputs": [
        {
          "components": [
            {
              "internalType": "bytes32",
              "name": "id",
              "type": "bytes32"
            },
            {
              "internalType": "uint256",
              "name": "price",
              "type": "uint256"
            }
          ],
          "internalType": "struct IRedstoneOracle.PriceFeed[]",
          "name": "allFeeds",
          "type": "tuple[]"
        },
        {
          "internalType": "bytes32",
          "name": "pair",
          "type": "bytes32"
        }
      ],
      "name": "_getPriceFeedByPairId",
      "outputs": [
        {
          "components": [
            {
              "internalType": "uint256",
              "name": "price",
              "type": "uint256"
            }
          ],
          "internalType": "struct IRedstoneOracle.Price",
          "name": "feed",
          "type": "tuple"
        }
      ],
      "stateMutability": "pure",
      "type": "function"
    }
  ],
  "bytecode": "0x6111ca610053600b82828239805160001a607314610046577f4e487b7100000000000000000000000000000000000000000000000000000000600052600060045260246000fd5b30600052607381538281f3fe73000000000000000000000000000000000000000030146080604052600436106100615760003560e01c8063440305c114610066578063557502631461008457806395f5d157146100a2578063ec902e88146100d2578063fdd17ac014610102575b600080fd5b61006e610132565b60405161007b91906105a0565b60405180910390f35b61008c610138565b60405161009991906105a0565b60405180910390f35b6100bc60048036038101906100b79190610cdb565b61013d565b6040516100c99190610d91565b60405180910390f35b6100ec60048036038101906100e79190610dac565b61041c565b6040516100f991906105a0565b60405180910390f35b61011c60048036038101906101179190610e24565b6104b7565b6040516101299190610eab565b60405180910390f35b611a0b81565b603281565b600080600090506000610150868661041c565b8261015b9190610ef5565b91506000805b8760e001515181101561029357600061019c888a60e00151848151811061018b5761018a610f29565b5b6020026020010151600001516104b7565b90506000816000015190506000818b60e0015185815181106101c1576101c0610f29565b5b6020026020010151604001516101d79190610f58565b90506305f5e100816101e99190610fc9565b9050818b60e00151858151811061020357610202610f29565b5b6020026020010151604001516102199190610f58565b856102249190610ef5565b94508a60e00151848151811061023d5761023c610f29565b5b6020026020010151604001518b60e0015185815181106102605761025f610f29565b5b6020026020010151606001516102769190610f58565b866102819190610ef5565b95505050508080600101915050610161565b5080826102a09190610ffa565b836102ab9190610ef5565b92506040516020016102bc90611085565b604051602081830303815290604052805190602001208760a001516040516020016102e79190611100565b60405160208183030381529060405280519060200120036103a35760005b85518110156103a15760006103388888848151811061032757610326610f29565b5b6020026020010151600001516104b7565b905060008160000151905060008189858151811061035957610358610f29565b5b60200260200101516040015161036f9190610f58565b90506305f5e100816103819190610fc9565b9050808661038f9190610ef5565b95505050508080600101915050610305565b505b600060646032846103b49190610f58565b6103be9190610fc9565b90506000612710611a0b856103d39190610f58565b6103dd9190610fc9565b9050808511156103f557600195505050505050610415565b8185111561040b57600195505050505050610415565b6000955050505050505b9392505050565b60008061042d8385602001516104b7565b6000015184606001516104409190610f58565b9050600084610100015185606001516104599190610f58565b90508460c001511561048d5780821115610478576000925050506104b1565b81816104849190610ffa565b925050506104b1565b808210156104a0576000925050506104b1565b80826104ac9190610ffa565b925050505b92915050565b6104bf610574565b60005b835181101561053257828482815181106104df576104de610f29565b5b6020026020010151600001510361052557604051806020016040528085838151811061050e5761050d610f29565b5b60200260200101516020015181525091505061056e565b80806001019150506104c2565b506040517f08c379a000000000000000000000000000000000000000000000000000000000815260040161056590611174565b60405180910390fd5b92915050565b6040518060200160405280600081525090565b6000819050919050565b61059a81610587565b82525050565b60006020820190506105b56000830184610591565b92915050565b6000604051905090565b600080fd5b600080fd5b600080fd5b6000601f19601f8301169050919050565b7f4e487b7100000000000000000000000000000000000000000000000000000000600052604160045260246000fd5b61061d826105d4565b810181811067ffffffffffffffff8211171561063c5761063b6105e5565b5b80604052505050565b600061064f6105bb565b905061065b8282610614565b919050565b600080fd5b600080fd5b600080fd5b600067ffffffffffffffff82111561068a576106896105e5565b5b610693826105d4565b9050602081019050919050565b82818337600083830152505050565b60006106c26106bd8461066f565b610645565b9050828152602081018484840111156106de576106dd61066a565b5b6106e98482856106a0565b509392505050565b600082601f83011261070657610705610665565b5b81356107168482602086016106af565b91505092915050565b6000819050919050565b6107328161071f565b811461073d57600080fd5b50565b60008135905061074f81610729565b92915050565b600073ffffffffffffffffffffffffffffffffffffffff82169050919050565b600061078082610755565b9050919050565b61079081610775565b811461079b57600080fd5b50565b6000813590506107ad81610787565b92915050565b6107bc81610587565b81146107c757600080fd5b50565b6000813590506107d9816107b3565b92915050565b60008115159050919050565b6107f4816107df565b81146107ff57600080fd5b50565b600081359050610811816107eb565b92915050565b600067ffffffffffffffff821115610832576108316105e5565b5b602082029050602081019050919050565b600080fd5b60006080828403121561085e5761085d6105cf565b5b6108686080610645565b9050600061087884828501610740565b600083015250602061088c8482850161079e565b60208301525060406108a0848285016107ca565b60408301525060606108b4848285016107ca565b60608301525092915050565b60006108d36108ce84610817565b610645565b905080838252602082019050608084028301858111156108f6576108f5610843565b5b835b8181101561091f578061090b8882610848565b8452602084019350506080810190506108f8565b5050509392505050565b600082601f83011261093e5761093d610665565b5b813561094e8482602086016108c0565b91505092915050565b6000610140828403121561096e5761096d6105cf565b5b610979610140610645565b9050600082013567ffffffffffffffff81111561099957610998610660565b5b6109a5848285016106f1565b60008301525060206109b984828501610740565b60208301525060406109cd8482850161079e565b60408301525060606109e1848285016107ca565b60608301525060806109f5848285016107ca565b60808301525060a082013567ffffffffffffffff811115610a1957610a18610660565b5b610a25848285016106f1565b60a08301525060c0610a3984828501610802565b60c08301525060e082013567ffffffffffffffff811115610a5d57610a5c610660565b5b610a6984828501610929565b60e083015250610100610a7e848285016107ca565b61010083015250610120610a94848285016107ca565b6101208301525092915050565b600067ffffffffffffffff821115610abc57610abb6105e5565b5b602082029050602081019050919050565b600060408284031215610ae357610ae26105cf565b5b610aed6040610645565b90506000610afd84828501610740565b6000830152506020610b11848285016107ca565b60208301525092915050565b6000610b30610b2b84610aa1565b610645565b90508083825260208201905060408402830185811115610b5357610b52610843565b5b835b81811015610b7c5780610b688882610acd565b845260208401935050604081019050610b55565b5050509392505050565b600082601f830112610b9b57610b9a610665565b5b8135610bab848260208601610b1d565b91505092915050565b600067ffffffffffffffff821115610bcf57610bce6105e5565b5b602082029050602081019050919050565b600060608284031215610bf657610bf56105cf565b5b610c006060610645565b90506000610c1084828501610740565b6000830152506020610c248482850161079e565b6020830152506040610c38848285016107ca565b60408301525092915050565b6000610c57610c5284610bb4565b610645565b90508083825260208201905060608402830185811115610c7a57610c79610843565b5b835b81811015610ca35780610c8f8882610be0565b845260208401935050606081019050610c7c565b5050509392505050565b600082601f830112610cc257610cc1610665565b5b8135610cd2848260208601610c44565b91505092915050565b600080600060608486031215610cf457610cf36105c5565b5b600084013567ffffffffffffffff811115610d1257610d116105ca565b5b610d1e86828701610957565b935050602084013567ffffffffffffffff811115610d3f57610d3e6105ca565b5b610d4b86828701610b86565b925050604084013567ffffffffffffffff811115610d6c57610d6b6105ca565b5b610d7886828701610cad565b9150509250925092565b610d8b816107df565b82525050565b6000602082019050610da66000830184610d82565b92915050565b60008060408385031215610dc357610dc26105c5565b5b600083013567ffffffffffffffff811115610de157610de06105ca565b5b610ded85828601610957565b925050602083013567ffffffffffffffff811115610e0e57610e0d6105ca565b5b610e1a85828601610b86565b9150509250929050565b60008060408385031215610e3b57610e3a6105c5565b5b600083013567ffffffffffffffff811115610e5957610e586105ca565b5b610e6585828601610b86565b9250506020610e7685828601610740565b9150509250929050565b610e8981610587565b82525050565b602082016000820151610ea56000850182610e80565b50505050565b6000602082019050610ec06000830184610e8f565b92915050565b7f4e487b7100000000000000000000000000000000000000000000000000000000600052601160045260246000fd5b6000610f0082610587565b9150610f0b83610587565b9250828201905080821115610f2357610f22610ec6565b5b92915050565b7f4e487b7100000000000000000000000000000000000000000000000000000000600052603260045260246000fd5b6000610f6382610587565b9150610f6e83610587565b9250828202610f7c81610587565b91508282048414831517610f9357610f92610ec6565b5b5092915050565b7f4e487b7100000000000000000000000000000000000000000000000000000000600052601260045260246000fd5b6000610fd482610587565b9150610fdf83610587565b925082610fef57610fee610f9a565b5b828204905092915050565b600061100582610587565b915061101083610587565b925082820390508181111561102857611027610ec6565b5b92915050565b600081905092915050565b7f63726f7373000000000000000000000000000000000000000000000000000000600082015250565b600061106f60058361102e565b915061107a82611039565b600582019050919050565b600061109082611062565b9150819050919050565b600081519050919050565b60005b838110156110c35780820151818401526020810190506110a8565b60008484015250505050565b60006110da8261109a565b6110e4818561102e565b93506110f48185602086016110a5565b80840191505092915050565b600061110c82846110cf565b915081905092915050565b600082825260208201905092915050565b7f476976656e2070616972206e6f7420666f756e64000000000000000000000000600082015250565b600061115e601483611117565b915061116982611128565b602082019050919050565b6000602082019050818103600083015261118d81611151565b905091905056fea264697066735822122086c1c915e5b3c9162ef53881841ebf710ef8fe95cd91a1b19e9f17f081db723e64736f6c63430008180033",
  "linkReferences": {},
  "deployedLinkReferences": {}
}