{
  "_format": "hh-sol-artifact-1",
  "contractName": "Vault",
  "sourceName": "contracts/0xVault/Vault.sol",
  "abi": [
    {
      "inputs": [],
      "name": "DataNotVerified",
      "type": "error"
    },
    {
      "inputs": [],
      "name": "DisputeChallengeFailed",
      "type": "error"
    },
    {
      "inputs": [],
      "name": "ECRecoverFailed",
      "type": "error"
    },
    {
      "inputs": [],
      "name": "EnforcedPause",
      "type": "error"
    },
    {
      "inputs": [],
      "name": "ExpectedPause",
      "type": "error"
    },
    {
      "inputs": [],
      "name": "InvalidAddress",
      "type": "error"
    },
    {
      "inputs": [],
      "name": "InvalidInitialization",
      "type": "error"
    },
    {
      "inputs": [],
      "name": "InvalidSP",
      "type": "error"
    },
    {
      "inputs": [],
      "name": "InvalidSchnorrSignature",
      "type": "error"
    },
    {
      "inputs": [],
      "name": "InvalidSignature",
      "type": "error"
    },
    {
      "inputs": [],
      "name": "InvalidUsedSignature",
      "type": "error"
    },
    {
      "inputs": [],
      "name": "NotInitializing",
      "type": "error"
    },
    {
      "inputs": [
        {
          "internalType": "address",
          "name": "owner",
          "type": "address"
        }
      ],
      "name": "OwnableInvalidOwner",
      "type": "error"
    },
    {
      "inputs": [
        {
          "internalType": "address",
          "name": "account",
          "type": "address"
        }
      ],
      "name": "OwnableUnauthorizedAccount",
      "type": "error"
    },
    {
      "inputs": [],
      "name": "ReentrancyGuardReentrantCall",
      "type": "error"
    },
    {
      "inputs": [],
      "name": "SettleDisputeFailed",
      "type": "error"
    },
    {
      "anonymous": false,
      "inputs": [
        {
          "indexed": true,
          "internalType": "address",
          "name": "user",
          "type": "address"
        },
        {
          "indexed": true,
          "internalType": "address",
          "name": "token",
          "type": "address"
        },
        {
          "indexed": false,
          "internalType": "uint256",
          "name": "amount",
          "type": "uint256"
        }
      ],
      "name": "Deposited",
      "type": "event"
    },
    {
      "anonymous": false,
      "inputs": [
        {
          "indexed": false,
          "internalType": "uint32",
          "name": "requestId",
          "type": "uint32"
        },
        {
          "indexed": true,
          "internalType": "address",
          "name": "user",
          "type": "address"
        }
      ],
      "name": "DisputeChallenged",
      "type": "event"
    },
    {
      "anonymous": false,
      "inputs": [
        {
          "indexed": false,
          "internalType": "uint32",
          "name": "requestId",
          "type": "uint32"
        },
        {
          "indexed": true,
          "internalType": "address",
          "name": "user",
          "type": "address"
        }
      ],
      "name": "DisputeOpened",
      "type": "event"
    },
    {
      "anonymous": false,
      "inputs": [
        {
          "indexed": false,
          "internalType": "uint32",
          "name": "requestId",
          "type": "uint32"
        },
        {
          "indexed": true,
          "internalType": "address",
          "name": "user",
          "type": "address"
        }
      ],
      "name": "DisputeSettled",
      "type": "event"
    },
    {
      "anonymous": false,
      "inputs": [
        {
          "indexed": false,
          "internalType": "uint64",
          "name": "version",
          "type": "uint64"
        }
      ],
      "name": "Initialized",
      "type": "event"
    },
    {
      "anonymous": false,
      "inputs": [
        {
          "indexed": true,
          "internalType": "address",
          "name": "user",
          "type": "address"
        },
        {
          "indexed": true,
          "internalType": "address",
          "name": "token",
          "type": "address"
        },
        {
          "indexed": false,
          "internalType": "uint256",
          "name": "amount",
          "type": "uint256"
        }
      ],
      "name": "LPProvided",
      "type": "event"
    },
    {
      "anonymous": false,
      "inputs": [
        {
          "indexed": true,
          "internalType": "address",
          "name": "user",
          "type": "address"
        },
        {
          "indexed": true,
          "internalType": "address",
          "name": "token",
          "type": "address"
        },
        {
          "indexed": false,
          "internalType": "uint256",
          "name": "amount",
          "type": "uint256"
        }
      ],
      "name": "LPWithdrawn",
      "type": "event"
    },
    {
      "anonymous": false,
      "inputs": [
        {
          "indexed": true,
          "internalType": "address",
          "name": "previousOwner",
          "type": "address"
        },
        {
          "indexed": true,
          "internalType": "address",
          "name": "newOwner",
          "type": "address"
        }
      ],
      "name": "OwnershipTransferred",
      "type": "event"
    },
    {
      "anonymous": false,
      "inputs": [
        {
          "indexed": true,
          "internalType": "address",
          "name": "user",
          "type": "address"
        },
        {
          "indexed": true,
          "internalType": "address",
          "name": "token",
          "type": "address"
        },
        {
          "indexed": false,
          "internalType": "uint256",
          "name": "amount",
          "type": "uint256"
        }
      ],
      "name": "PartialLiquidation",
      "type": "event"
    },
    {
      "anonymous": false,
      "inputs": [
        {
          "indexed": false,
          "internalType": "address",
          "name": "account",
          "type": "address"
        }
      ],
      "name": "Paused",
      "type": "event"
    },
    {
      "anonymous": false,
      "inputs": [
        {
          "indexed": false,
          "internalType": "uint32",
          "name": "requestId",
          "type": "uint32"
        },
        {
          "indexed": true,
          "internalType": "address",
          "name": "user",
          "type": "address"
        }
      ],
      "name": "PositionDisputeChallenged",
      "type": "event"
    },
    {
      "anonymous": false,
      "inputs": [
        {
          "indexed": false,
          "internalType": "address",
          "name": "account",
          "type": "address"
        }
      ],
      "name": "Unpaused",
      "type": "event"
    },
    {
      "anonymous": false,
      "inputs": [
        {
          "indexed": true,
          "internalType": "address",
          "name": "user",
          "type": "address"
        },
        {
          "indexed": true,
          "internalType": "address",
          "name": "token",
          "type": "address"
        },
        {
          "indexed": false,
          "internalType": "uint256",
          "name": "amount",
          "type": "uint256"
        },
        {
          "indexed": false,
          "internalType": "uint32",
          "name": "requestId",
          "type": "uint32"
        }
      ],
      "name": "WithdrawalRequested",
      "type": "event"
    },
    {
      "anonymous": false,
      "inputs": [
        {
          "indexed": true,
          "internalType": "address",
          "name": "user",
          "type": "address"
        },
        {
          "indexed": true,
          "internalType": "address",
          "name": "token",
          "type": "address"
        },
        {
          "indexed": false,
          "internalType": "uint256",
          "name": "amount",
          "type": "uint256"
        }
      ],
      "name": "Withdrawn",
      "type": "event"
    },
    {
      "inputs": [
        {
          "internalType": "uint32",
          "name": "",
          "type": "uint32"
        }
      ],
      "name": "_disputes",
      "outputs": [
        {
          "internalType": "address",
          "name": "user",
          "type": "address"
        },
        {
          "internalType": "address",
          "name": "challenger",
          "type": "address"
        },
        {
          "internalType": "uint64",
          "name": "timestamp",
          "type": "uint64"
        },
        {
          "internalType": "uint8",
          "name": "status",
          "type": "uint8"
        },
        {
          "internalType": "uint32",
          "name": "sessionId",
          "type": "uint32"
        }
      ],
      "stateMutability": "view",
      "type": "function"
    },
    {
      "inputs": [
        {
          "internalType": "uint32",
          "name": "requestId",
          "type": "uint32"
        },
        {
          "components": [
            {
              "internalType": "bytes",
              "name": "data",
              "type": "bytes"
            },
            {
              "internalType": "bytes",
              "name": "signature",
              "type": "bytes"
            },
            {
              "internalType": "address",
              "name": "combinedPublicKey",
              "type": "address"
            }
          ],
          "internalType": "struct Crypto.SchnorrSignature",
          "name": "_schnorr",
          "type": "tuple"
        }
      ],
      "name": "challengeDispute",
      "outputs": [],
      "stateMutability": "nonpayable",
      "type": "function"
    },
    {
      "inputs": [
        {
          "internalType": "address",
          "name": "",
          "type": "address"
        }
      ],
      "name": "combinedPublicKey",
      "outputs": [
        {
          "internalType": "address",
          "name": "",
          "type": "address"
        }
      ],
      "stateMutability": "view",
      "type": "function"
    },
    {
      "inputs": [
        {
          "internalType": "address",
          "name": "token",
          "type": "address"
        },
        {
          "internalType": "uint256",
          "name": "amount",
          "type": "uint256"
        }
      ],
      "name": "deposit",
      "outputs": [],
      "stateMutability": "nonpayable",
      "type": "function"
    },
    {
      "inputs": [
        {
          "internalType": "address",
          "name": "",
          "type": "address"
        },
        {
          "internalType": "address",
          "name": "",
          "type": "address"
        }
      ],
      "name": "depositedAmount",
      "outputs": [
        {
          "internalType": "uint256",
          "name": "",
          "type": "uint256"
        }
      ],
      "stateMutability": "view",
      "type": "function"
    },
    {
      "inputs": [],
      "name": "dexSupporter",
      "outputs": [
        {
          "internalType": "address",
          "name": "",
          "type": "address"
        }
      ],
      "stateMutability": "view",
      "type": "function"
    },
    {
      "inputs": [
        {
          "internalType": "uint32",
          "name": "requestId",
          "type": "uint32"
        }
      ],
      "name": "getDisputeBalances",
      "outputs": [
        {
          "components": [
            {
              "internalType": "uint256",
              "name": "oracleId",
              "type": "uint256"
            },
            {
              "internalType": "address",
              "name": "addr",
              "type": "address"
            },
            {
              "internalType": "uint256",
              "name": "balance",
              "type": "uint256"
            }
          ],
          "internalType": "struct Crypto.Balance[]",
          "name": "",
          "type": "tuple[]"
        }
      ],
      "stateMutability": "view",
      "type": "function"
    },
    {
      "inputs": [
        {
          "internalType": "uint32",
          "name": "requestId",
          "type": "uint32"
        }
      ],
      "name": "getDisputePositions",
      "outputs": [
        {
          "components": [
            {
              "internalType": "string",
              "name": "positionId",
              "type": "string"
            },
            {
              "internalType": "uint256",
              "name": "oracleId",
              "type": "uint256"
            },
            {
              "internalType": "address",
              "name": "token",
              "type": "address"
            },
            {
              "internalType": "uint256",
              "name": "quantity",
              "type": "uint256"
            },
            {
              "internalType": "uint256",
              "name": "leverageFactor",
              "type": "uint256"
            },
            {
              "internalType": "string",
              "name": "leverageType",
              "type": "string"
            },
            {
              "internalType": "bool",
              "name": "isLong",
              "type": "bool"
            },
            {
              "components": [
                {
                  "internalType": "uint256",
                  "name": "oracleId",
                  "type": "uint256"
                },
                {
                  "internalType": "address",
                  "name": "token",
                  "type": "address"
                },
                {
                  "internalType": "uint256",
                  "name": "quantity",
                  "type": "uint256"
                },
                {
                  "internalType": "uint256",
                  "name": "entryPrice",
                  "type": "uint256"
                }
              ],
              "internalType": "struct Crypto.Collateral[]",
              "name": "collaterals",
              "type": "tuple[]"
            },
            {
              "internalType": "uint256",
              "name": "entryPrice",
              "type": "uint256"
            },
            {
              "internalType": "uint256",
              "name": "createdTimestamp",
              "type": "uint256"
            }
          ],
          "internalType": "struct Crypto.Position[]",
          "name": "",
          "type": "tuple[]"
        }
      ],
      "stateMutability": "view",
      "type": "function"
    },
    {
      "inputs": [
        {
          "internalType": "uint32",
          "name": "requestId",
          "type": "uint32"
        }
      ],
      "name": "getDisputeStatus",
      "outputs": [
        {
          "internalType": "bool",
          "name": "isOpenDispute",
          "type": "bool"
        },
        {
          "internalType": "uint64",
          "name": "timestamp",
          "type": "uint64"
        },
        {
          "internalType": "address",
          "name": "user",
          "type": "address"
        }
      ],
      "stateMutability": "view",
      "type": "function"
    },
    {
      "inputs": [
        {
          "internalType": "address",
          "name": "_owner",
          "type": "address"
        },
        {
          "internalType": "uint256",
          "name": "_signatureExpiryTime",
          "type": "uint256"
        },
        {
          "internalType": "address",
          "name": "_lpProvider",
          "type": "address"
        },
        {
          "internalType": "address",
          "name": "_dexSupporter",
          "type": "address"
        }
      ],
      "name": "initialize",
      "outputs": [],
      "stateMutability": "nonpayable",
      "type": "function"
    },
    {
      "inputs": [],
      "name": "lpProvider",
      "outputs": [
        {
          "internalType": "address",
          "name": "",
          "type": "address"
        }
      ],
      "stateMutability": "view",
      "type": "function"
    },
    {
      "inputs": [],
      "name": "owner",
      "outputs": [
        {
          "internalType": "address",
          "name": "",
          "type": "address"
        }
      ],
      "stateMutability": "view",
      "type": "function"
    },
    {
      "inputs": [],
      "name": "paused",
      "outputs": [
        {
          "internalType": "bool",
          "name": "",
          "type": "bool"
        }
      ],
      "stateMutability": "view",
      "type": "function"
    },
    {
      "inputs": [],
      "name": "renounceOwnership",
      "outputs": [],
      "stateMutability": "nonpayable",
      "type": "function"
    },
    {
      "inputs": [
        {
          "internalType": "address",
          "name": "_user",
          "type": "address"
        },
        {
          "internalType": "address",
          "name": "_combinedPublicKey",
          "type": "address"
        }
      ],
      "name": "setCombinedPublicKey",
      "outputs": [],
      "stateMutability": "nonpayable",
      "type": "function"
    },
    {
      "inputs": [
        {
          "internalType": "address",
          "name": "_dexSupporter",
          "type": "address"
        }
      ],
      "name": "setDexSupporter",
      "outputs": [],
      "stateMutability": "nonpayable",
      "type": "function"
    },
    {
      "inputs": [
        {
          "internalType": "address",
          "name": "_lpProvider",
          "type": "address"
        }
      ],
      "name": "setLpProvider",
      "outputs": [],
      "stateMutability": "nonpayable",
      "type": "function"
    },
    {
      "inputs": [
        {
          "internalType": "uint256",
          "name": "_expiryTime",
          "type": "uint256"
        }
      ],
      "name": "setSignatureExpiryTime",
      "outputs": [],
      "stateMutability": "nonpayable",
      "type": "function"
    },
    {
      "inputs": [
        {
          "internalType": "uint32",
          "name": "requestId",
          "type": "uint32"
        },
        {
          "internalType": "uint256[]",
          "name": "updatedBalances",
          "type": "uint256[]"
        },
        {
          "internalType": "uint256[]",
          "name": "pnlValues",
          "type": "uint256[]"
        },
        {
          "internalType": "bool[]",
          "name": "isProfits",
          "type": "bool[]"
        }
      ],
      "name": "settleDisputeResult",
      "outputs": [],
      "stateMutability": "nonpayable",
      "type": "function"
    },
    {
      "inputs": [],
      "name": "signatureExpiryTime",
      "outputs": [
        {
          "internalType": "uint256",
          "name": "",
          "type": "uint256"
        }
      ],
      "stateMutability": "view",
      "type": "function"
    },
    {
      "inputs": [
        {
          "internalType": "address",
          "name": "newOwner",
          "type": "address"
        }
      ],
      "name": "transferOwnership",
      "outputs": [],
      "stateMutability": "nonpayable",
      "type": "function"
    },
    {
      "inputs": [
        {
          "internalType": "uint32",
          "name": "requestId",
          "type": "uint32"
        },
        {
          "internalType": "uint256[]",
          "name": "liquidatedIndexes",
          "type": "uint256[]"
        },
        {
          "internalType": "uint256",
          "name": "liquidatedCount",
          "type": "uint256"
        },
        {
          "internalType": "bool",
          "name": "isCrossLiquidated",
          "type": "bool"
        }
      ],
      "name": "updateLiquidatedPositions",
      "outputs": [],
      "stateMutability": "nonpayable",
      "type": "function"
    },
    {
      "inputs": [
        {
          "internalType": "address",
          "name": "user",
          "type": "address"
        },
        {
          "internalType": "address[]",
          "name": "tokens",
          "type": "address[]"
        },
        {
          "internalType": "uint256[]",
          "name": "losses",
          "type": "uint256[]"
        },
        {
          "internalType": "uint256",
          "name": "totalLossCount",
          "type": "uint256"
        }
      ],
      "name": "updatePartialLiquidation",
      "outputs": [],
      "stateMutability": "nonpayable",
      "type": "function"
    },
    {
      "inputs": [
        {
          "components": [
            {
              "internalType": "bytes",
              "name": "data",
              "type": "bytes"
            },
            {
              "internalType": "bytes",
              "name": "signature",
              "type": "bytes"
            },
            {
              "internalType": "address",
              "name": "combinedPublicKey",
              "type": "address"
            }
          ],
          "internalType": "struct Crypto.SchnorrSignature",
          "name": "_schnorr",
          "type": "tuple"
        }
      ],
      "name": "withdrawAndClosePositionTrustlessly",
      "outputs": [],
      "stateMutability": "nonpayable",
      "type": "function"
    },
    {
      "inputs": [
        {
          "internalType": "address",
          "name": "_combinedPublicKey",
          "type": "address"
        },
        {
          "components": [
            {
              "internalType": "bytes",
              "name": "data",
              "type": "bytes"
            },
            {
              "internalType": "bytes",
              "name": "signature",
              "type": "bytes"
            },
            {
              "internalType": "address",
              "name": "combinedPublicKey",
              "type": "address"
            }
          ],
          "internalType": "struct Crypto.SchnorrSignature",
          "name": "_schnorr",
          "type": "tuple"
        }
      ],
      "name": "withdrawSchnorr",
      "outputs": [],
      "stateMutability": "nonpayable",
      "type": "function"
    }
  ],
  "bytecode": "0x608060405234801561001057600080fd5b50615ee780620000216000396000f3fe608060405234801561001057600080fd5b50600436106101735760003560e01c8063923fec2a116100de578063e0c32ec411610097578063e917bdcc11610071578063e917bdcc14610410578063ed9facad14610442578063f2edcc9614610472578063f2fde38b1461048e57610173565b8063e0c32ec414610394578063e41cff64146103c4578063e6d0efad146103f457610173565b8063923fec2a146102be57806397799e06146102da578063a8207858146102f8578063ab3e857f14610314578063bf1e9ef514610348578063c2dd56bc1461036457610173565b80637482479f116101305780637482479f1461021457806386c93914146102305780638a7be80b1461024c5780638da5cb5b146102685780638e092bb5146102865780638f2c081f146102a257610173565b80630d23581714610178578063358394d81461019657806347e7ef24146101b2578063570ddaa8146101ce5780635c975abb146101ec578063715018a61461020a575b600080fd5b6101806104aa565b60405161018d9190613bdb565b60405180910390f35b6101b060048036038101906101ab9190613c6c565b6104d0565b005b6101cc60048036038101906101c79190613cd3565b6106f3565b005b6101d66109e4565b6040516101e39190613d22565b60405180910390f35b6101f46109ea565b6040516102019190613d58565b60405180910390f35b610212610a0f565b005b61022e60048036038101906102299190613d73565b610a23565b005b61024a60048036038101906102459190613da0565b610a6f565b005b61026660048036038101906102619190613fe9565b610a81565b005b610270610eef565b60405161027d9190613bdb565b60405180910390f35b6102a0600480360381019061029b9190613d73565b610f27565b005b6102bc60048036038101906102b791906140e8565b610f73565b005b6102d860048036038101906102d39190614170565b61183d565b005b6102e2611a1d565b6040516102ef9190613bdb565b60405180910390f35b610312600480360381019061030d91906141f3565b611a43565b005b61032e6004803603810190610329919061424f565b611ed9565b60405161033f9594939291906142ca565b60405180910390f35b610362600480360381019061035d91906143e0565b611f80565b005b61037e6004803603810190610379919061424f565b612615565b60405161038b91906145aa565b60405180910390f35b6103ae60048036038101906103a991906145cc565b612700565b6040516103bb9190613d22565b60405180910390f35b6103de60048036038101906103d99190613d73565b612725565b6040516103eb9190613bdb565b60405180910390f35b61040e6004803603810190610409919061460c565b612758565b005b61042a6004803603810190610425919061424f565b612fd7565b60405161043993929190614655565b60405180910390f35b61045c6004803603810190610457919061424f565b613077565b60405161046991906149c8565b60405180910390f35b61048c600480360381019061048791906145cc565b613393565b005b6104a860048036038101906104a39190613d73565b61341d565b005b600860009054906101000a900473ffffffffffffffffffffffffffffffffffffffff1681565b60006104da6134a3565b905060008160000160089054906101000a900460ff1615905060008260000160009054906101000a900467ffffffffffffffff1690506000808267ffffffffffffffff161480156105285750825b9050600060018367ffffffffffffffff1614801561055d575060003073ffffffffffffffffffffffffffffffffffffffff163b145b90508115801561056b575080155b156105a2576040517ff92ee8a900000000000000000000000000000000000000000000000000000000815260040160405180910390fd5b60018560000160006101000a81548167ffffffffffffffff021916908367ffffffffffffffff16021790555083156105f25760018560000160086101000a81548160ff0219169083151502179055505b6105fb896134cb565b6106036134df565b8760008190555086600860006101000a81548173ffffffffffffffffffffffffffffffffffffffff021916908373ffffffffffffffffffffffffffffffffffffffff16021790555085600960006101000a81548173ffffffffffffffffffffffffffffffffffffffff021916908373ffffffffffffffffffffffffffffffffffffffff16021790555083156106e85760008560000160086101000a81548160ff0219169083151502179055507fc7f505b2f371ae2175ee4913f4499e1f2633a7b5936321eed1cdaeb6115181d260016040516106df9190614a2f565b60405180910390a15b505050505050505050565b6106fb6134f1565b610703613548565b60008111610746576040517f08c379a000000000000000000000000000000000000000000000000000000000815260040161073d90614aa7565b60405180910390fd5b600860009054906101000a900473ffffffffffffffffffffffffffffffffffffffff1673ffffffffffffffffffffffffffffffffffffffff166375151b63836040518263ffffffff1660e01b81526004016107a19190613bdb565b602060405180830381865afa1580156107be573d6000803e3d6000fd5b505050506040513d601f19601f820116820180604052508101906107e29190614adc565b610821576040517f08c379a000000000000000000000000000000000000000000000000000000000815260040161081890614b55565b60405180910390fd5b8173ffffffffffffffffffffffffffffffffffffffff166323b872dd3330846040518463ffffffff1660e01b815260040161085e93929190614b75565b6020604051808303816000875af115801561087d573d6000803e3d6000fd5b505050506040513d601f19601f820116820180604052508101906108a19190614adc565b6108e0576040517f08c379a00000000000000000000000000000000000000000000000000000000081526004016108d790614bf8565b60405180910390fd5b80600760003373ffffffffffffffffffffffffffffffffffffffff1673ffffffffffffffffffffffffffffffffffffffff16815260200190815260200160002060008473ffffffffffffffffffffffffffffffffffffffff1673ffffffffffffffffffffffffffffffffffffffff168152602001908152602001600020600082825461096c9190614c47565b925050819055508173ffffffffffffffffffffffffffffffffffffffff163373ffffffffffffffffffffffffffffffffffffffff167f8752a472e571a816aea92eec8dae9baf628e840f4929fbcc2d155e6233ff68a7836040516109d09190613d22565b60405180910390a36109e0613589565b5050565b60005481565b6000806109f56135a2565b90508060000160009054906101000a900460ff1691505090565b610a176135ca565b610a216000613651565b565b610a2b6135ca565b80600960006101000a81548173ffffffffffffffffffffffffffffffffffffffff021916908373ffffffffffffffffffffffffffffffffffffffff16021790555050565b610a776135ca565b8060008190555050565b610a896134f1565b600960009054906101000a900473ffffffffffffffffffffffffffffffffffffffff1673ffffffffffffffffffffffffffffffffffffffff163373ffffffffffffffffffffffffffffffffffffffff1614610b19576040517f08c379a0000000000000000000000000000000000000000000000000000000008152600401610b1090614cc7565b60405180910390fd5b8151835114610b5d576040517f08c379a0000000000000000000000000000000000000000000000000000000008152600401610b5490614d33565b60405180910390fd5b8251811115610ba1576040517f08c379a0000000000000000000000000000000000000000000000000000000008152600401610b9890614d9f565b60405180910390fd5b60005b81811015610ee0576000848281518110610bc157610bc0614dbf565b5b602002602001015190506000848381518110610be057610bdf614dbf565b5b6020026020010151905080600760008973ffffffffffffffffffffffffffffffffffffffff1673ffffffffffffffffffffffffffffffffffffffff16815260200190815260200160002060008473ffffffffffffffffffffffffffffffffffffffff1673ffffffffffffffffffffffffffffffffffffffff168152602001908152602001600020541015610ca9576040517f08c379a0000000000000000000000000000000000000000000000000000000008152600401610ca090614e3a565b60405180910390fd5b80600760008973ffffffffffffffffffffffffffffffffffffffff1673ffffffffffffffffffffffffffffffffffffffff16815260200190815260200160002060008473ffffffffffffffffffffffffffffffffffffffff1673ffffffffffffffffffffffffffffffffffffffff1681526020019081526020016000206000828254610d359190614e5a565b925050819055508173ffffffffffffffffffffffffffffffffffffffff1663a9059cbb600860009054906101000a900473ffffffffffffffffffffffffffffffffffffffff16836040518363ffffffff1660e01b8152600401610d99929190614e8e565b6020604051808303816000875af1158015610db8573d6000803e3d6000fd5b505050506040513d601f19601f82011682018060405250810190610ddc9190614adc565b50600860009054906101000a900473ffffffffffffffffffffffffffffffffffffffff1673ffffffffffffffffffffffffffffffffffffffff1663195bac6283836040518363ffffffff1660e01b8152600401610e3a929190614e8e565b600060405180830381600087803b158015610e5457600080fd5b505af1158015610e68573d6000803e3d6000fd5b505050508173ffffffffffffffffffffffffffffffffffffffff168773ffffffffffffffffffffffffffffffffffffffff167f3b7ebc7efc47fec3ee7bc30fe538bb5e5296e3cf7f70c0b34bc9f8de5cad986e83604051610ec99190613d22565b60405180910390a350508080600101915050610ba4565b50610ee9613589565b50505050565b600080610efa613728565b90508060000160009054906101000a900473ffffffffffffffffffffffffffffffffffffffff1691505090565b610f2f6135ca565b80600860006101000a81548173ffffffffffffffffffffffffffffffffffffffff021916908373ffffffffffffffffffffffffffffffffffffffff16021790555050565b610f7b6134f1565b610f83613548565b6000600260008463ffffffff1663ffffffff1681526020019081526020016000209050600073__$50e9592bd68e5211c3a496048a4809ad3a$__6306d02c88846040518263ffffffff1660e01b8152600401610fdf919061500f565b600060405180830381865af4158015610ffc573d6000803e3d6000fd5b505050506040513d6000823e3d601f19601f8201168201806040525081019061102591906156b5565b90506001600381111561103b5761103a6156fe565b5b60ff168260040160009054906101000a900460ff1660ff1614611093576040517f08c379a000000000000000000000000000000000000000000000000000000000815260040161108a90615779565b60405180910390fd5b6107088260010160149054906101000a900467ffffffffffffffff166110b99190615799565b67ffffffffffffffff164210611104576040517f08c379a00000000000000000000000000000000000000000000000000000000081526004016110fb90615821565b60405180910390fd5b73__$50e9592bd68e5211c3a496048a4809ad3a$__63bc018c408460066000856020015173ffffffffffffffffffffffffffffffffffffffff1673ffffffffffffffffffffffffffffffffffffffff16815260200190815260200160002060009054906101000a900473ffffffffffffffffffffffffffffffffffffffff166040518363ffffffff1660e01b81526004016111a0929190615850565b602060405180830381865af41580156111bd573d6000803e3d6000fd5b505050506040513d601f19601f820116820180604052508101906111e19190614adc565b611217576040517ff08f7bd800000000000000000000000000000000000000000000000000000000815260040160405180910390fd5b600081600001519050816000015163ffffffff16600560008763ffffffff1663ffffffff16815260200190815260200160002060009054906101000a900463ffffffff1663ffffffff1610156117fc5780600560008763ffffffff1663ffffffff16815260200190815260200160002060006101000a81548163ffffffff021916908363ffffffff160217905550338360010160006101000a81548173ffffffffffffffffffffffffffffffffffffffff021916908373ffffffffffffffffffffffffffffffffffffffff1602179055508260020160006112f89190613983565b82600301600061130891906139a7565b600082604001515190506000836060015151905060005b828110156113dd57856002018560400151828151811061134257611341614dbf565b5b602002602001015190806001815401808255809150506001900390600052602060002090600302016000909190919091506000820151816000015560208201518160010160006101000a81548173ffffffffffffffffffffffffffffffffffffffff021916908373ffffffffffffffffffffffffffffffffffffffff160217905550604082015181600201555050808060010191505061131f565b5060005b818110156117a2576000600260008a63ffffffff1663ffffffff1681526020019081526020016000206003016001816001815401808255809150500390600052602060002090600a020190508560600151828151811061144457611443614dbf565b5b6020026020010151600001518160000190816114609190615a82565b508560600151828151811061147857611477614dbf565b5b6020026020010151604001518160020160006101000a81548173ffffffffffffffffffffffffffffffffffffffff021916908373ffffffffffffffffffffffffffffffffffffffff160217905550856060015182815181106114dd576114dc614dbf565b5b60200260200101516060015181600301819055508560600151828151811061150857611507614dbf565b5b602002602001015160c001518160060160006101000a81548160ff0219169083151502179055508560600151828151811061154657611545614dbf565b5b6020026020010151610100015181600801819055508560600151828151811061157257611571614dbf565b5b6020026020010151610120015181600901819055506000866060015183815181106115a05761159f614dbf565b5b602002602001015160e0015151905060005b81811015611792578260070160405180608001604052808a6060015187815181106115e0576115df614dbf565b5b602002602001015160e0015184815181106115fe576115fd614dbf565b5b60200260200101516000015181526020018a60600151878151811061162657611625614dbf565b5b602002602001015160e00151848151811061164457611643614dbf565b5b60200260200101516020015173ffffffffffffffffffffffffffffffffffffffff1681526020018a60600151878151811061168257611681614dbf565b5b602002602001015160e0015184815181106116a05761169f614dbf565b5b60200260200101516040015181526020018a6060015187815181106116c8576116c7614dbf565b5b602002602001015160e0015184815181106116e6576116e5614dbf565b5b60200260200101516060015181525090806001815401808255809150506001900390600052602060002090600402016000909190919091506000820151816000015560208201518160010160006101000a81548173ffffffffffffffffffffffffffffffffffffffff021916908373ffffffffffffffffffffffffffffffffffffffff1602179055506040820151816002015560608201518160030155505080806001019150506115b2565b50505080806001019150506113e1565b50836020015173ffffffffffffffffffffffffffffffffffffffff167f41333d535ecc89f2d33b1d5f30416f34ba3c7d0bbf7aaea28a3b7c330969379b886040516117ed9190615b54565b60405180910390a2505061182e565b6040517f785736c800000000000000000000000000000000000000000000000000000000815260040160405180910390fd5b505050611839613589565b5050565b600960009054906101000a900473ffffffffffffffffffffffffffffffffffffffff1673ffffffffffffffffffffffffffffffffffffffff163373ffffffffffffffffffffffffffffffffffffffff16146118cd576040517f08c379a00000000000000000000000000000000000000000000000000000000081526004016118c490615bbb565b60405180910390fd5b6000600260008663ffffffff1663ffffffff168152602001908152602001600020905060016003811115611904576119036156fe565b5b60ff168160040160009054906101000a900460ff1660ff161461195c576040517f08c379a000000000000000000000000000000000000000000000000000000000815260040161195390615779565b60405180910390fd5b60005b838110156119c157600085828151811061197c5761197b614dbf565b5b60200260200101519050600083600301828154811061199e5761199d614dbf565b5b90600052602060002090600a02016003018190555050808060010191505061195f565b508115611a165760005b8160020180549050811015611a145760008260020182815481106119f2576119f1614dbf565b5b90600052602060002090600302016002018190555080806001019150506119cb565b505b5050505050565b600960009054906101000a900473ffffffffffffffffffffffffffffffffffffffff1681565b611a4b6134f1565b611a53613548565b600073__$50e9592bd68e5211c3a496048a4809ad3a$__6376b90c5983600660003373ffffffffffffffffffffffffffffffffffffffff1673ffffffffffffffffffffffffffffffffffffffff16815260200190815260200160002060009054906101000a900473ffffffffffffffffffffffffffffffffffffffff166040518363ffffffff1660e01b8152600401611aed929190615850565b60a060405180830381865af4158015611b0a573d6000803e3d6000fd5b505050506040513d601f19601f82011682018060405250810190611b2e9190615c93565b90506000816040015111611b77576040517f08c379a0000000000000000000000000000000000000000000000000000000008152600401611b6e90615d32565b60405180910390fd5b600860009054906101000a900473ffffffffffffffffffffffffffffffffffffffff1673ffffffffffffffffffffffffffffffffffffffff166375151b6382602001516040518263ffffffff1660e01b8152600401611bd69190613bdb565b602060405180830381865afa158015611bf3573d6000803e3d6000fd5b505050506040513d601f19601f82011682018060405250810190611c179190614adc565b611c56576040517f08c379a0000000000000000000000000000000000000000000000000000000008152600401611c4d90614b55565b60405180910390fd5b600054816060015167ffffffffffffffff1642611c739190614e5a565b10611cb3576040517f08c379a0000000000000000000000000000000000000000000000000000000008152600401611caa90615d9e565b60405180910390fd5b3373ffffffffffffffffffffffffffffffffffffffff16816000015173ffffffffffffffffffffffffffffffffffffffff1614611d1c576040517ff08f7bd800000000000000000000000000000000000000000000000000000000815260040160405180910390fd5b82600660003373ffffffffffffffffffffffffffffffffffffffff1673ffffffffffffffffffffffffffffffffffffffff16815260200190815260200160002060006101000a81548173ffffffffffffffffffffffffffffffffffffffff021916908373ffffffffffffffffffffffffffffffffffffffff160217905550806020015173ffffffffffffffffffffffffffffffffffffffff1663a9059cbb3383604001516040518363ffffffff1660e01b8152600401611ddd929190614e8e565b6020604051808303816000875af1158015611dfc573d6000803e3d6000fd5b505050506040513d601f19601f82011682018060405250810190611e209190614adc565b611e5f576040517f08c379a0000000000000000000000000000000000000000000000000000000008152600401611e5690614bf8565b60405180910390fd5b806020015173ffffffffffffffffffffffffffffffffffffffff163373ffffffffffffffffffffffffffffffffffffffff167fd1c19fbcd4551a5edfb66d43d2e337c04837afda3482b42bdf569a8fccdae5fb8360400151604051611ec49190613d22565b60405180910390a350611ed5613589565b5050565b60026020528060005260406000206000915090508060000160009054906101000a900473ffffffffffffffffffffffffffffffffffffffff16908060010160009054906101000a900473ffffffffffffffffffffffffffffffffffffffff16908060010160149054906101000a900467ffffffffffffffff16908060040160009054906101000a900460ff16908060040160019054906101000a900463ffffffff16905085565b611f886134f1565b600960009054906101000a900473ffffffffffffffffffffffffffffffffffffffff1673ffffffffffffffffffffffffffffffffffffffff163373ffffffffffffffffffffffffffffffffffffffff1614612018576040517f08c379a000000000000000000000000000000000000000000000000000000000815260040161200f90614cc7565b60405180910390fd5b6000600260008663ffffffff1663ffffffff16815260200190815260200160002090506001600381111561204f5761204e6156fe565b5b60ff168160040160009054906101000a900460ff1660ff16146120a7576040517f08c379a000000000000000000000000000000000000000000000000000000000815260040161209e90615779565b60405180910390fd5b60005b81600201805490508110156125645760008260020182815481106120d1576120d0614dbf565b5b906000526020600020906003020160010160009054906101000a900473ffffffffffffffffffffffffffffffffffffffff169050600086838151811061211a57612119614dbf565b5b6020026020010151905084838151811061213757612136614dbf565b5b6020026020010151156121f257600860009054906101000a900473ffffffffffffffffffffffffffffffffffffffff1673ffffffffffffffffffffffffffffffffffffffff16639d1dd0da8388868151811061219657612195614dbf565b5b60200260200101516040518363ffffffff1660e01b81526004016121bb929190614e8e565b600060405180830381600087803b1580156121d557600080fd5b505af11580156121e9573d6000803e3d6000fd5b50505050612357565b8173ffffffffffffffffffffffffffffffffffffffff1663a9059cbb600860009054906101000a900473ffffffffffffffffffffffffffffffffffffffff1688868151811061224457612243614dbf565b5b60200260200101516040518363ffffffff1660e01b8152600401612269929190614e8e565b6020604051808303816000875af1158015612288573d6000803e3d6000fd5b505050506040513d601f19601f820116820180604052508101906122ac9190614adc565b50600860009054906101000a900473ffffffffffffffffffffffffffffffffffffffff1673ffffffffffffffffffffffffffffffffffffffff1663195bac62838886815181106122ff576122fe614dbf565b5b60200260200101516040518363ffffffff1660e01b8152600401612324929190614e8e565b600060405180830381600087803b15801561233e57600080fd5b505af1158015612352573d6000803e3d6000fd5b505050505b6000600760008660000160009054906101000a900473ffffffffffffffffffffffffffffffffffffffff1673ffffffffffffffffffffffffffffffffffffffff1673ffffffffffffffffffffffffffffffffffffffff16815260200190815260200160002060008473ffffffffffffffffffffffffffffffffffffffff1673ffffffffffffffffffffffffffffffffffffffff168152602001908152602001600020819055508173ffffffffffffffffffffffffffffffffffffffff1663a9059cbb8560000160009054906101000a900473ffffffffffffffffffffffffffffffffffffffff16836040518363ffffffff1660e01b815260040161245c929190614e8e565b6020604051808303816000875af115801561247b573d6000803e3d6000fd5b505050506040513d601f19601f8201168201806040525081019061249f9190614adc565b508173ffffffffffffffffffffffffffffffffffffffff168460000160009054906101000a900473ffffffffffffffffffffffffffffffffffffffff1673ffffffffffffffffffffffffffffffffffffffff167fd1c19fbcd4551a5edfb66d43d2e337c04837afda3482b42bdf569a8fccdae5fb836040516125219190613d22565b60405180910390a3808460020184815481106125405761253f614dbf565b5b906000526020600020906003020160020181905550505080806001019150506120aa565b50600380811115612578576125776156fe565b5b8160040160006101000a81548160ff021916908360ff1602179055508060000160009054906101000a900473ffffffffffffffffffffffffffffffffffffffff1673ffffffffffffffffffffffffffffffffffffffff167f8b703fbb69bafcfe17cc041cf70cf1f199e44c5e5f70dca4aa3d01ce927996cc866040516125fe9190615b54565b60405180910390a25061260f613589565b50505050565b6060600260008363ffffffff1663ffffffff168152602001908152602001600020600201805480602002602001604051908101604052809291908181526020016000905b828210156126f55783829060005260206000209060030201604051806060016040529081600082015481526020016001820160009054906101000a900473ffffffffffffffffffffffffffffffffffffffff1673ffffffffffffffffffffffffffffffffffffffff1673ffffffffffffffffffffffffffffffffffffffff16815260200160028201548152505081526020019060010190612659565b505050509050919050565b6007602052816000526040600020602052806000526040600020600091509150505481565b60066020528060005260406000206000915054906101000a900473ffffffffffffffffffffffffffffffffffffffff1681565b6127606134f1565b612768613548565b600073__$50e9592bd68e5211c3a496048a4809ad3a$__6306d02c88836040518263ffffffff1660e01b81526004016127a1919061500f565b600060405180830381865af41580156127be573d6000803e3d6000fd5b505050506040513d6000823e3d601f19601f820116820180604052508101906127e791906156b5565b90503373ffffffffffffffffffffffffffffffffffffffff16816020015173ffffffffffffffffffffffffffffffffffffffff1614612852576040517ff08f7bd800000000000000000000000000000000000000000000000000000000815260040160405180910390fd5b73__$50e9592bd68e5211c3a496048a4809ad3a$__63bc018c408360066000856020015173ffffffffffffffffffffffffffffffffffffffff1673ffffffffffffffffffffffffffffffffffffffff16815260200190815260200160002060009054906101000a900473ffffffffffffffffffffffffffffffffffffffff166040518363ffffffff1660e01b81526004016128ee929190615850565b602060405180830381865af415801561290b573d6000803e3d6000fd5b505050506040513d601f19601f8201168201806040525081019061292f9190614adc565b612965576040517ff08f7bd800000000000000000000000000000000000000000000000000000000815260040160405180910390fd5b60048280602001906129779190615dcd565b604051612985929190615e60565b908152602001604051809103902060009054906101000a900460ff16156129d8576040517ff08f7bd800000000000000000000000000000000000000000000000000000000815260040160405180910390fd5b60018060009054906101000a900463ffffffff166129f69190615e79565b600160006101000a81548163ffffffff021916908363ffffffff1602179055506000600160009054906101000a900463ffffffff16905042600260008363ffffffff1663ffffffff16815260200190815260200160002060010160146101000a81548167ffffffffffffffff021916908367ffffffffffffffff160217905550600082604001515190506000836060015151905060005b81811015612e4e576000600260008663ffffffff1663ffffffff1681526020019081526020016000206003016001816001815401808255809150500390600052602060002090600a0201905085606001518281518110612af057612aef614dbf565b5b602002602001015160000151816000019081612b0c9190615a82565b5085606001518281518110612b2457612b23614dbf565b5b6020026020010151604001518160020160006101000a81548173ffffffffffffffffffffffffffffffffffffffff021916908373ffffffffffffffffffffffffffffffffffffffff16021790555085606001518281518110612b8957612b88614dbf565b5b602002602001015160600151816003018190555085606001518281518110612bb457612bb3614dbf565b5b602002602001015160c001518160060160006101000a81548160ff02191690831515021790555085606001518281518110612bf257612bf1614dbf565b5b60200260200101516101000151816008018190555085606001518281518110612c1e57612c1d614dbf565b5b602002602001015161012001518160090181905550600086606001518381518110612c4c57612c4b614dbf565b5b602002602001015160e0015151905060005b81811015612e3e578260070160405180608001604052808a606001518781518110612c8c57612c8b614dbf565b5b602002602001015160e001518481518110612caa57612ca9614dbf565b5b60200260200101516000015181526020018a606001518781518110612cd257612cd1614dbf565b5b602002602001015160e001518481518110612cf057612cef614dbf565b5b60200260200101516020015173ffffffffffffffffffffffffffffffffffffffff1681526020018a606001518781518110612d2e57612d2d614dbf565b5b602002602001015160e001518481518110612d4c57612d4b614dbf565b5b60200260200101516040015181526020018a606001518781518110612d7457612d73614dbf565b5b602002602001015160e001518481518110612d9257612d91614dbf565b5b60200260200101516060015181525090806001815401808255809150506001900390600052602060002090600402016000909190919091506000820151816000015560208201518160010160006101000a81548173ffffffffffffffffffffffffffffffffffffffff021916908373ffffffffffffffffffffffffffffffffffffffff160217905550604082015181600201556060820151816003015550508080600101915050612c5e565b5050508080600101915050612a8d565b5060005b82811015612f2e57600260008563ffffffff1663ffffffff16815260200190815260200160002060020185604001518281518110612e9357612e92614dbf565b5b602002602001015190806001815401808255809150506001900390600052602060002090600302016000909190919091506000820151816000015560208201518160010160006101000a81548173ffffffffffffffffffffffffffffffffffffffff021916908373ffffffffffffffffffffffffffffffffffffffff1602179055506040820151816002015550508080600101915050612e52565b5060008460000151905080600560008663ffffffff1663ffffffff16815260200190815260200160002060006101000a81548163ffffffff021916908363ffffffff16021790555060016004878060200190612f8a9190615dcd565b604051612f98929190615e60565b908152602001604051809103902060006101000a81548160ff021916908315150217905550612fc78433613750565b5050505050612fd4613589565b50565b600080600080600260008663ffffffff1663ffffffff168152602001908152602001600020905060016003811115613012576130116156fe565b5b60ff168160040160009054906101000a900460ff1660ff161493508060010160149054906101000a900467ffffffffffffffff1692508060000160009054906101000a900473ffffffffffffffffffffffffffffffffffffffff169150509193909250565b6060600260008363ffffffff1663ffffffff168152602001908152602001600020600301805480602002602001604051908101604052809291908181526020016000905b8282101561338857838290600052602060002090600a0201604051806101400160405290816000820180546130ef906158af565b80601f016020809104026020016040519081016040528092919081815260200182805461311b906158af565b80156131685780601f1061313d57610100808354040283529160200191613168565b820191906000526020600020905b81548152906001019060200180831161314b57829003601f168201915b50505050508152602001600182015481526020016002820160009054906101000a900473ffffffffffffffffffffffffffffffffffffffff1673ffffffffffffffffffffffffffffffffffffffff1673ffffffffffffffffffffffffffffffffffffffff16815260200160038201548152602001600482015481526020016005820180546131f5906158af565b80601f0160208091040260200160405190810160405280929190818152602001828054613221906158af565b801561326e5780601f106132435761010080835404028352916020019161326e565b820191906000526020600020905b81548152906001019060200180831161325157829003601f168201915b505050505081526020016006820160009054906101000a900460ff1615151515815260200160078201805480602002602001604051908101604052809291908181526020016000905b8282101561335d5783829060005260206000209060040201604051806080016040529081600082015481526020016001820160009054906101000a900473ffffffffffffffffffffffffffffffffffffffff1673ffffffffffffffffffffffffffffffffffffffff1673ffffffffffffffffffffffffffffffffffffffff16815260200160028201548152602001600382015481525050815260200190600101906132b7565b50505050815260200160088201548152602001600982015481525050815260200190600101906130bb565b505050509050919050565b61339b6135ca565b80600660008473ffffffffffffffffffffffffffffffffffffffff1673ffffffffffffffffffffffffffffffffffffffff16815260200190815260200160002060006101000a81548173ffffffffffffffffffffffffffffffffffffffff021916908373ffffffffffffffffffffffffffffffffffffffff1602179055505050565b6134256135ca565b600073ffffffffffffffffffffffffffffffffffffffff168173ffffffffffffffffffffffffffffffffffffffff16036134975760006040517f1e4fbdf700000000000000000000000000000000000000000000000000000000815260040161348e9190613bdb565b60405180910390fd5b6134a081613651565b50565b60007ff0c57e16840df040f15088dc2f81fe391c3923bec73e23a9662efc9c229c6a00905090565b6134d3613839565b6134dc81613879565b50565b6134e7613839565b6134ef6138ff565b565b60006134fb613933565b9050600281600001540361353b576040517f3ee5aeb500000000000000000000000000000000000000000000000000000000815260040160405180910390fd5b6002816000018190555050565b6135506109ea565b15613587576040517fd93c066500000000000000000000000000000000000000000000000000000000815260040160405180910390fd5b565b6000613593613933565b90506001816000018190555050565b60007fcd5ed15c6e187e77e9aee88184c21f4f2182ab5827cb3b7e07fbedcd63f03300905090565b6135d261395b565b73ffffffffffffffffffffffffffffffffffffffff166135f0610eef565b73ffffffffffffffffffffffffffffffffffffffff161461364f5761361361395b565b6040517f118cdaa70000000000000000000000000000000000000000000000000000000081526004016136469190613bdb565b60405180910390fd5b565b600061365b613728565b905060008160000160009054906101000a900473ffffffffffffffffffffffffffffffffffffffff169050828260000160006101000a81548173ffffffffffffffffffffffffffffffffffffffff021916908373ffffffffffffffffffffffffffffffffffffffff1602179055508273ffffffffffffffffffffffffffffffffffffffff168173ffffffffffffffffffffffffffffffffffffffff167f8be0079c531659141344cd1fd0a4f28419497f9722a3daafe3b4186f6b6457e060405160405180910390a3505050565b60007f9016d09d72d40fdae2fd8ceac6b6234c7706214fd39c1cd1e609a0528c199300905090565b6000600260008463ffffffff1663ffffffff168152602001908152602001600020905060016003811115613787576137866156fe565b5b8160040160006101000a81548160ff021916908360ff160217905550818160000160006101000a81548173ffffffffffffffffffffffffffffffffffffffff021916908373ffffffffffffffffffffffffffffffffffffffff1602179055508173ffffffffffffffffffffffffffffffffffffffff167f2fdd05cb84b2efdbfb66efce92f66f26e7323b06b91ed693c764e01573436af98460405161382c9190615b54565b60405180910390a2505050565b613841613963565b613877576040517fd7e6bcf800000000000000000000000000000000000000000000000000000000815260040160405180910390fd5b565b613881613839565b600073ffffffffffffffffffffffffffffffffffffffff168173ffffffffffffffffffffffffffffffffffffffff16036138f35760006040517f1e4fbdf70000000000000000000000000000000000000000000000000000000081526004016138ea9190613bdb565b60405180910390fd5b6138fc81613651565b50565b613907613839565b60006139116135a2565b905060008160000160006101000a81548160ff02191690831515021790555050565b60007f9b779b17422d0df92223018b32b4d1fa46e071723d6817e2486d003becc55f00905090565b600033905090565b600061396d6134a3565b60000160089054906101000a900460ff16905090565b50805460008255600302906000526020600020908101906139a491906139cb565b50565b50805460008255600a02906000526020600020908101906139c89190613a19565b50565b5b80821115613a15576000808201600090556001820160006101000a81549073ffffffffffffffffffffffffffffffffffffffff02191690556002820160009055506003016139cc565b5090565b5b80821115613abf5760008082016000613a339190613ac3565b60018201600090556002820160006101000a81549073ffffffffffffffffffffffffffffffffffffffff021916905560038201600090556004820160009055600582016000613a829190613ac3565b6006820160006101000a81549060ff0219169055600782016000613aa69190613b03565b6008820160009055600982016000905550600a01613a1a565b5090565b508054613acf906158af565b6000825580601f10613ae15750613b00565b601f016020900490600052602060002090810190613aff9190613b27565b5b50565b5080546000825560040290600052602060002090810190613b249190613b44565b50565b5b80821115613b40576000816000905550600101613b28565b5090565b5b80821115613b96576000808201600090556001820160006101000a81549073ffffffffffffffffffffffffffffffffffffffff02191690556002820160009055600382016000905550600401613b45565b5090565b600073ffffffffffffffffffffffffffffffffffffffff82169050919050565b6000613bc582613b9a565b9050919050565b613bd581613bba565b82525050565b6000602082019050613bf06000830184613bcc565b92915050565b6000604051905090565b600080fd5b600080fd5b613c1381613bba565b8114613c1e57600080fd5b50565b600081359050613c3081613c0a565b92915050565b6000819050919050565b613c4981613c36565b8114613c5457600080fd5b50565b600081359050613c6681613c40565b92915050565b60008060008060808587031215613c8657613c85613c00565b5b6000613c9487828801613c21565b9450506020613ca587828801613c57565b9350506040613cb687828801613c21565b9250506060613cc787828801613c21565b91505092959194509250565b60008060408385031215613cea57613ce9613c00565b5b6000613cf885828601613c21565b9250506020613d0985828601613c57565b9150509250929050565b613d1c81613c36565b82525050565b6000602082019050613d376000830184613d13565b92915050565b60008115159050919050565b613d5281613d3d565b82525050565b6000602082019050613d6d6000830184613d49565b92915050565b600060208284031215613d8957613d88613c00565b5b6000613d9784828501613c21565b91505092915050565b600060208284031215613db657613db5613c00565b5b6000613dc484828501613c57565b91505092915050565b600080fd5b6000601f19601f8301169050919050565b7f4e487b7100000000000000000000000000000000000000000000000000000000600052604160045260246000fd5b613e1b82613dd2565b810181811067ffffffffffffffff82111715613e3a57613e39613de3565b5b80604052505050565b6000613e4d613bf6565b9050613e598282613e12565b919050565b600067ffffffffffffffff821115613e7957613e78613de3565b5b602082029050602081019050919050565b600080fd5b6000613ea2613e9d84613e5e565b613e43565b90508083825260208201905060208402830185811115613ec557613ec4613e8a565b5b835b81811015613eee5780613eda8882613c21565b845260208401935050602081019050613ec7565b5050509392505050565b600082601f830112613f0d57613f0c613dcd565b5b8135613f1d848260208601613e8f565b91505092915050565b600067ffffffffffffffff821115613f4157613f40613de3565b5b602082029050602081019050919050565b6000613f65613f6084613f26565b613e43565b90508083825260208201905060208402830185811115613f8857613f87613e8a565b5b835b81811015613fb15780613f9d8882613c57565b845260208401935050602081019050613f8a565b5050509392505050565b600082601f830112613fd057613fcf613dcd565b5b8135613fe0848260208601613f52565b91505092915050565b6000806000806080858703121561400357614002613c00565b5b600061401187828801613c21565b945050602085013567ffffffffffffffff81111561403257614031613c05565b5b61403e87828801613ef8565b935050604085013567ffffffffffffffff81111561405f5761405e613c05565b5b61406b87828801613fbb565b925050606061407c87828801613c57565b91505092959194509250565b600063ffffffff82169050919050565b6140a181614088565b81146140ac57600080fd5b50565b6000813590506140be81614098565b92915050565b600080fd5b6000606082840312156140df576140de6140c4565b5b81905092915050565b600080604083850312156140ff576140fe613c00565b5b600061410d858286016140af565b925050602083013567ffffffffffffffff81111561412e5761412d613c05565b5b61413a858286016140c9565b9150509250929050565b61414d81613d3d565b811461415857600080fd5b50565b60008135905061416a81614144565b92915050565b6000806000806080858703121561418a57614189613c00565b5b6000614198878288016140af565b945050602085013567ffffffffffffffff8111156141b9576141b8613c05565b5b6141c587828801613fbb565b93505060406141d687828801613c57565b92505060606141e78782880161415b565b91505092959194509250565b6000806040838503121561420a57614209613c00565b5b600061421885828601613c21565b925050602083013567ffffffffffffffff81111561423957614238613c05565b5b614245858286016140c9565b9150509250929050565b60006020828403121561426557614264613c00565b5b6000614273848285016140af565b91505092915050565b600067ffffffffffffffff82169050919050565b6142998161427c565b82525050565b600060ff82169050919050565b6142b58161429f565b82525050565b6142c481614088565b82525050565b600060a0820190506142df6000830188613bcc565b6142ec6020830187613bcc565b6142f96040830186614290565b61430660608301856142ac565b61431360808301846142bb565b9695505050505050565b600067ffffffffffffffff82111561433857614337613de3565b5b602082029050602081019050919050565b600061435c6143578461431d565b613e43565b9050808382526020820190506020840283018581111561437f5761437e613e8a565b5b835b818110156143a85780614394888261415b565b845260208401935050602081019050614381565b5050509392505050565b600082601f8301126143c7576143c6613dcd565b5b81356143d7848260208601614349565b91505092915050565b600080600080608085870312156143fa576143f9613c00565b5b6000614408878288016140af565b945050602085013567ffffffffffffffff81111561442957614428613c05565b5b61443587828801613fbb565b935050604085013567ffffffffffffffff81111561445657614455613c05565b5b61446287828801613fbb565b925050606085013567ffffffffffffffff81111561448357614482613c05565b5b61448f878288016143b2565b91505092959194509250565b600081519050919050565b600082825260208201905092915050565b6000819050602082019050919050565b6144d081613c36565b82525050565b6144df81613bba565b82525050565b6060820160008201516144fb60008501826144c7565b50602082015161450e60208501826144d6565b50604082015161452160408501826144c7565b50505050565b600061453383836144e5565b60608301905092915050565b6000602082019050919050565b60006145578261449b565b61456181856144a6565b935061456c836144b7565b8060005b8381101561459d5781516145848882614527565b975061458f8361453f565b925050600181019050614570565b5085935050505092915050565b600060208201905081810360008301526145c4818461454c565b905092915050565b600080604083850312156145e3576145e2613c00565b5b60006145f185828601613c21565b925050602061460285828601613c21565b9150509250929050565b60006020828403121561462257614621613c00565b5b600082013567ffffffffffffffff8111156146405761463f613c05565b5b61464c848285016140c9565b91505092915050565b600060608201905061466a6000830186613d49565b6146776020830185614290565b6146846040830184613bcc565b949350505050565b600081519050919050565b600082825260208201905092915050565b6000819050602082019050919050565b600081519050919050565b600082825260208201905092915050565b60005b838110156146f25780820151818401526020810190506146d7565b60008484015250505050565b6000614709826146b8565b61471381856146c3565b93506147238185602086016146d4565b61472c81613dd2565b840191505092915050565b61474081613d3d565b82525050565b600081519050919050565b600082825260208201905092915050565b6000819050602082019050919050565b60808201600082015161478860008501826144c7565b50602082015161479b60208501826144d6565b5060408201516147ae60408501826144c7565b5060608201516147c160608501826144c7565b50505050565b60006147d38383614772565b60808301905092915050565b6000602082019050919050565b60006147f782614746565b6148018185614751565b935061480c83614762565b8060005b8381101561483d57815161482488826147c7565b975061482f836147df565b925050600181019050614810565b5085935050505092915050565b600061014083016000830151848203600086015261486882826146fe565b915050602083015161487d60208601826144c7565b50604083015161489060408601826144d6565b5060608301516148a360608601826144c7565b5060808301516148b660808601826144c7565b5060a083015184820360a08601526148ce82826146fe565b91505060c08301516148e360c0860182614737565b5060e083015184820360e08601526148fb82826147ec565b9150506101008301516149126101008601826144c7565b506101208301516149276101208601826144c7565b508091505092915050565b600061493e838361484a565b905092915050565b6000602082019050919050565b600061495e8261468c565b6149688185614697565b93508360208202850161497a856146a8565b8060005b858110156149b657848403895281516149978582614932565b94506149a283614946565b925060208a0199505060018101905061497e565b50829750879550505050505092915050565b600060208201905081810360008301526149e28184614953565b905092915050565b6000819050919050565b6000819050919050565b6000614a19614a14614a0f846149ea565b6149f4565b61427c565b9050919050565b614a29816149fe565b82525050565b6000602082019050614a446000830184614a20565b92915050565b600082825260208201905092915050565b7f416d6f756e74206d7573742062652067726561746572207468616e207a65726f600082015250565b6000614a91602083614a4a565b9150614a9c82614a5b565b602082019050919050565b60006020820190508181036000830152614ac081614a84565b9050919050565b600081519050614ad681614144565b92915050565b600060208284031215614af257614af1613c00565b5b6000614b0084828501614ac7565b91505092915050565b7f546f6b656e206e6f7420737570706f7274656400000000000000000000000000600082015250565b6000614b3f601383614a4a565b9150614b4a82614b09565b602082019050919050565b60006020820190508181036000830152614b6e81614b32565b9050919050565b6000606082019050614b8a6000830186613bcc565b614b976020830185613bcc565b614ba46040830184613d13565b949350505050565b7f5472616e73666572206661696c65640000000000000000000000000000000000600082015250565b6000614be2600f83614a4a565b9150614bed82614bac565b602082019050919050565b60006020820190508181036000830152614c1181614bd5565b9050919050565b7f4e487b7100000000000000000000000000000000000000000000000000000000600052601160045260246000fd5b6000614c5282613c36565b9150614c5d83613c36565b9250828201905080821115614c7557614c74614c18565b5b92915050565b7f556e617574686f72697a65640000000000000000000000000000000000000000600082015250565b6000614cb1600c83614a4a565b9150614cbc82614c7b565b602082019050919050565b60006020820190508181036000830152614ce081614ca4565b9050919050565b7f4172726179206c656e677468206d69736d617463680000000000000000000000600082015250565b6000614d1d601583614a4a565b9150614d2882614ce7565b602082019050919050565b60006020820190508181036000830152614d4c81614d10565b9050919050565b7f496e76616c696420746f74616c206c6f737320636f756e740000000000000000600082015250565b6000614d89601883614a4a565b9150614d9482614d53565b602082019050919050565b60006020820190508181036000830152614db881614d7c565b9050919050565b7f4e487b7100000000000000000000000000000000000000000000000000000000600052603260045260246000fd5b7f496e73756666696369656e74206465706f736974656420616d6f756e74000000600082015250565b6000614e24601d83614a4a565b9150614e2f82614dee565b602082019050919050565b60006020820190508181036000830152614e5381614e17565b9050919050565b6000614e6582613c36565b9150614e7083613c36565b9250828203905081811115614e8857614e87614c18565b5b92915050565b6000604082019050614ea36000830185613bcc565b614eb06020830184613d13565b9392505050565b600080fd5b600080fd5b600080fd5b60008083356001602003843603038112614ee357614ee2614ec1565b5b83810192508235915060208301925067ffffffffffffffff821115614f0b57614f0a614eb7565b5b600182023603831315614f2157614f20614ebc565b5b509250929050565b600082825260208201905092915050565b82818337600083830152505050565b6000614f558385614f29565b9350614f62838584614f3a565b614f6b83613dd2565b840190509392505050565b6000614f856020840184613c21565b905092915050565b614f9681613bba565b82525050565b600060608301614faf6000840184614ec6565b8583036000870152614fc2838284614f49565b92505050614fd36020840184614ec6565b8583036020870152614fe6838284614f49565b92505050614ff76040840184614f76565b6150046040860182614f8d565b508091505092915050565b600060208201905081810360008301526150298184614f9c565b905092915050565b600080fd5b600080fd5b60008151905061504a81614098565b92915050565b60008151905061505f81613c0a565b92915050565b600067ffffffffffffffff8211156150805761507f613de3565b5b602082029050602081019050919050565b6000815190506150a081613c40565b92915050565b6000606082840312156150bc576150bb615031565b5b6150c66060613e43565b905060006150d684828501615091565b60008301525060206150ea84828501615050565b60208301525060406150fe84828501615091565b60408301525092915050565b600061511d61511884615065565b613e43565b905080838252602082019050606084028301858111156151405761513f613e8a565b5b835b81811015615169578061515588826150a6565b845260208401935050606081019050615142565b5050509392505050565b600082601f83011261518857615187613dcd565b5b815161519884826020860161510a565b91505092915050565b600067ffffffffffffffff8211156151bc576151bb613de3565b5b602082029050602081019050919050565b600080fd5b600067ffffffffffffffff8211156151ed576151ec613de3565b5b6151f682613dd2565b9050602081019050919050565b6000615216615211846151d2565b613e43565b905082815260208101848484011115615232576152316151cd565b5b61523d8482856146d4565b509392505050565b600082601f83011261525a57615259613dcd565b5b815161526a848260208601615203565b91505092915050565b600067ffffffffffffffff82111561528e5761528d613de3565b5b602082029050602081019050919050565b6000608082840312156152b5576152b4615031565b5b6152bf6080613e43565b905060006152cf84828501615091565b60008301525060206152e384828501615050565b60208301525060406152f784828501615091565b604083015250606061530b84828501615091565b60608301525092915050565b600061532a61532584615273565b613e43565b9050808382526020820190506080840283018581111561534d5761534c613e8a565b5b835b818110156153765780615362888261529f565b84526020840193505060808101905061534f565b5050509392505050565b600082601f83011261539557615394613dcd565b5b81516153a5848260208601615317565b91505092915050565b600061014082840312156153c5576153c4615031565b5b6153d0610140613e43565b9050600082015167ffffffffffffffff8111156153f0576153ef615036565b5b6153fc84828501615245565b600083015250602061541084828501615091565b602083015250604061542484828501615050565b604083015250606061543884828501615091565b606083015250608061544c84828501615091565b60808301525060a082015167ffffffffffffffff8111156154705761546f615036565b5b61547c84828501615245565b60a08301525060c061549084828501614ac7565b60c08301525060e082015167ffffffffffffffff8111156154b4576154b3615036565b5b6154c084828501615380565b60e0830152506101006154d584828501615091565b610100830152506101206154eb84828501615091565b6101208301525092915050565b600061550b615506846151a1565b613e43565b9050808382526020820190506020840283018581111561552e5761552d613e8a565b5b835b8181101561557557805167ffffffffffffffff81111561555357615552613dcd565b5b80860161556089826153ae565b85526020850194505050602081019050615530565b5050509392505050565b600082601f83011261559457615593613dcd565b5b81516155a48482602086016154f8565b91505092915050565b600060e082840312156155c3576155c2615031565b5b6155cd60e0613e43565b905060006155dd8482850161503b565b60008301525060206155f184828501615050565b602083015250604082015167ffffffffffffffff81111561561557615614615036565b5b61562184828501615173565b604083015250606082015167ffffffffffffffff81111561564557615644615036565b5b6156518482850161557f565b606083015250608082015167ffffffffffffffff81111561567557615674615036565b5b61568184828501615245565b60808301525060a061569584828501615091565b60a08301525060c06156a984828501615091565b60c08301525092915050565b6000602082840312156156cb576156ca613c00565b5b600082015167ffffffffffffffff8111156156e9576156e8613c05565b5b6156f5848285016155ad565b91505092915050565b7f4e487b7100000000000000000000000000000000000000000000000000000000600052602160045260246000fd5b7f496e76616c696420646973707574652073746174757300000000000000000000600082015250565b6000615763601683614a4a565b915061576e8261572d565b602082019050919050565b6000602082019050818103600083015261579281615756565b9050919050565b60006157a48261427c565b91506157af8361427c565b9250828201905067ffffffffffffffff8111156157cf576157ce614c18565b5b92915050565b7f446973707574652077696e646f7720636c6f7365640000000000000000000000600082015250565b600061580b601583614a4a565b9150615816826157d5565b602082019050919050565b6000602082019050818103600083015261583a816157fe565b9050919050565b61584a81613bba565b82525050565b6000604082019050818103600083015261586a8185614f9c565b90506158796020830184615841565b9392505050565b7f4e487b7100000000000000000000000000000000000000000000000000000000600052602260045260246000fd5b600060028204905060018216806158c757607f821691505b6020821081036158da576158d9615880565b5b50919050565b60008190508160005260206000209050919050565b60006020601f8301049050919050565b600082821b905092915050565b6000600883026159427fffffffffffffffffffffffffffffffffffffffffffffffffffffffffffffffff82615905565b61594c8683615905565b95508019841693508086168417925050509392505050565b600061597f61597a61597584613c36565b6149f4565b613c36565b9050919050565b6000819050919050565b61599983615964565b6159ad6159a582615986565b848454615912565b825550505050565b600090565b6159c26159b5565b6159cd818484615990565b505050565b5b818110156159f1576159e66000826159ba565b6001810190506159d3565b5050565b601f821115615a3657615a07816158e0565b615a10846158f5565b81016020851015615a1f578190505b615a33615a2b856158f5565b8301826159d2565b50505b505050565b600082821c905092915050565b6000615a5960001984600802615a3b565b1980831691505092915050565b6000615a728383615a48565b9150826002028217905092915050565b615a8b826146b8565b67ffffffffffffffff811115615aa457615aa3613de3565b5b615aae82546158af565b615ab98282856159f5565b600060209050601f831160018114615aec5760008415615ada578287015190505b615ae48582615a66565b865550615b4c565b601f198416615afa866158e0565b60005b82811015615b2257848901518255600182019150602085019450602081019050615afd565b86831015615b3f5784890151615b3b601f891682615a48565b8355505b6001600288020188555050505b505050505050565b6000602082019050615b6960008301846142bb565b92915050565b7f526571756972652044657820537570706f727465720000000000000000000000600082015250565b6000615ba5601583614a4a565b9150615bb082615b6f565b602082019050919050565b60006020820190508181036000830152615bd481615b98565b9050919050565b615be48161427c565b8114615bef57600080fd5b50565b600081519050615c0181615bdb565b92915050565b600060a08284031215615c1d57615c1c615031565b5b615c2760a0613e43565b90506000615c3784828501615050565b6000830152506020615c4b84828501615050565b6020830152506040615c5f84828501615091565b6040830152506060615c7384828501615bf2565b6060830152506080615c8784828501615091565b60808301525092915050565b600060a08284031215615ca957615ca8613c00565b5b6000615cb784828501615c07565b91505092915050565b7f416d6f756e74206d7573742062796573652067726561746572207468616e207a60008201527f65726f0000000000000000000000000000000000000000000000000000000000602082015250565b6000615d1c602383614a4a565b9150615d2782615cc0565b604082019050919050565b60006020820190508181036000830152615d4b81615d0f565b9050919050565b7f5369676e61747572652045787069726564000000000000000000000000000000600082015250565b6000615d88601183614a4a565b9150615d9382615d52565b602082019050919050565b60006020820190508181036000830152615db781615d7b565b9050919050565b600080fd5b600080fd5b600080fd5b60008083356001602003843603038112615dea57615de9615dbe565b5b80840192508235915067ffffffffffffffff821115615e0c57615e0b615dc3565b5b602083019250600182023603831315615e2857615e27615dc8565b5b509250929050565b600081905092915050565b6000615e478385615e30565b9350615e54838584614f3a565b82840190509392505050565b6000615e6d828486615e3b565b91508190509392505050565b6000615e8482614088565b9150615e8f83614088565b9250828201905063ffffffff811115615eab57615eaa614c18565b5b9291505056fea2646970667358221220addd599c258085d0740a6977b09e86cfe7f2ac372159f3734f312f4d9811217064736f6c63430008180033",
  "linkReferences": {
    "contracts/0xVault/libs/Crypto.sol": {
      "Crypto": [
        {
          "length": 20,
          "start": 4043
        },
        {
          "length": 20,
          "start": 4391
        },
        {
          "length": 20,
          "start": 6776
        },
        {
          "length": 20,
          "start": 10125
        },
        {
          "length": 20,
          "start": 10357
        }
      ]
    }
  },
  "deployedLinkReferences": {
    "contracts/0xVault/libs/Crypto.sol": {
      "Crypto": [
        {
          "length": 20,
          "start": 4010
        },
        {
          "length": 20,
          "start": 4358
        },
        {
          "length": 20,
          "start": 6743
        },
        {
          "length": 20,
          "start": 10092
        },
        {
          "length": 20,
          "start": 10324
        }
      ]
    }
  }
}