{
  "_format": "hh-sol-artifact-1",
  "contractName": "Vault",
  "sourceName": "contracts/0xVault/Vault.sol",
  "abi": [
    {
      "inputs": [],
      "name": "DataNotVerified",
      "type": "error"
    },
    {
      "inputs": [],
      "name": "DisputeChallengeFailed",
      "type": "error"
    },
    {
      "inputs": [],
      "name": "ECRecoverFailed",
      "type": "error"
    },
    {
      "inputs": [],
      "name": "EnforcedPause",
      "type": "error"
    },
    {
      "inputs": [],
      "name": "ExpectedPause",
      "type": "error"
    },
    {
      "inputs": [],
      "name": "InvalidAddress",
      "type": "error"
    },
    {
      "inputs": [],
      "name": "InvalidInitialization",
      "type": "error"
    },
    {
      "inputs": [],
      "name": "InvalidSP",
      "type": "error"
    },
    {
      "inputs": [],
      "name": "InvalidSchnorrSignature",
      "type": "error"
    },
    {
      "inputs": [],
      "name": "InvalidSignature",
      "type": "error"
    },
    {
      "inputs": [],
      "name": "InvalidUsedSignature",
      "type": "error"
    },
    {
      "inputs": [],
      "name": "NotInitializing",
      "type": "error"
    },
    {
      "inputs": [
        {
          "internalType": "address",
          "name": "owner",
          "type": "address"
        }
      ],
      "name": "OwnableInvalidOwner",
      "type": "error"
    },
    {
      "inputs": [
        {
          "internalType": "address",
          "name": "account",
          "type": "address"
        }
      ],
      "name": "OwnableUnauthorizedAccount",
      "type": "error"
    },
    {
      "inputs": [],
      "name": "ReentrancyGuardReentrantCall",
      "type": "error"
    },
    {
      "inputs": [],
      "name": "SettleDisputeFailed",
      "type": "error"
    },
    {
      "anonymous": false,
      "inputs": [
        {
          "indexed": true,
          "internalType": "address",
          "name": "user",
          "type": "address"
        },
        {
          "indexed": true,
          "internalType": "address",
          "name": "token",
          "type": "address"
        },
        {
          "indexed": false,
          "internalType": "uint256",
          "name": "amount",
          "type": "uint256"
        }
      ],
      "name": "Deposited",
      "type": "event"
    },
    {
      "anonymous": false,
      "inputs": [
        {
          "indexed": false,
          "internalType": "uint32",
          "name": "requestId",
          "type": "uint32"
        },
        {
          "indexed": true,
          "internalType": "address",
          "name": "user",
          "type": "address"
        }
      ],
      "name": "DisputeChallenged",
      "type": "event"
    },
    {
      "anonymous": false,
      "inputs": [
        {
          "indexed": false,
          "internalType": "uint32",
          "name": "requestId",
          "type": "uint32"
        },
        {
          "indexed": true,
          "internalType": "address",
          "name": "user",
          "type": "address"
        }
      ],
      "name": "DisputeOpened",
      "type": "event"
    },
    {
      "anonymous": false,
      "inputs": [
        {
          "indexed": false,
          "internalType": "uint32",
          "name": "requestId",
          "type": "uint32"
        },
        {
          "indexed": true,
          "internalType": "address",
          "name": "user",
          "type": "address"
        }
      ],
      "name": "DisputeSettled",
      "type": "event"
    },
    {
      "anonymous": false,
      "inputs": [
        {
          "indexed": false,
          "internalType": "uint64",
          "name": "version",
          "type": "uint64"
        }
      ],
      "name": "Initialized",
      "type": "event"
    },
    {
      "anonymous": false,
      "inputs": [
        {
          "indexed": true,
          "internalType": "address",
          "name": "user",
          "type": "address"
        },
        {
          "indexed": true,
          "internalType": "address",
          "name": "token",
          "type": "address"
        },
        {
          "indexed": false,
          "internalType": "uint256",
          "name": "amount",
          "type": "uint256"
        }
      ],
      "name": "LPProvided",
      "type": "event"
    },
    {
      "anonymous": false,
      "inputs": [
        {
          "indexed": true,
          "internalType": "address",
          "name": "user",
          "type": "address"
        },
        {
          "indexed": true,
          "internalType": "address",
          "name": "token",
          "type": "address"
        },
        {
          "indexed": false,
          "internalType": "uint256",
          "name": "amount",
          "type": "uint256"
        }
      ],
      "name": "LPWithdrawn",
      "type": "event"
    },
    {
      "anonymous": false,
      "inputs": [
        {
          "indexed": true,
          "internalType": "address",
          "name": "previousOwner",
          "type": "address"
        },
        {
          "indexed": true,
          "internalType": "address",
          "name": "newOwner",
          "type": "address"
        }
      ],
      "name": "OwnershipTransferred",
      "type": "event"
    },
    {
      "anonymous": false,
      "inputs": [
        {
          "indexed": true,
          "internalType": "address",
          "name": "user",
          "type": "address"
        },
        {
          "indexed": true,
          "internalType": "address",
          "name": "token",
          "type": "address"
        },
        {
          "indexed": false,
          "internalType": "uint256",
          "name": "amount",
          "type": "uint256"
        }
      ],
      "name": "PartialLiquidation",
      "type": "event"
    },
    {
      "anonymous": false,
      "inputs": [
        {
          "indexed": false,
          "internalType": "address",
          "name": "account",
          "type": "address"
        }
      ],
      "name": "Paused",
      "type": "event"
    },
    {
      "anonymous": false,
      "inputs": [
        {
          "indexed": false,
          "internalType": "uint32",
          "name": "requestId",
          "type": "uint32"
        },
        {
          "indexed": true,
          "internalType": "address",
          "name": "user",
          "type": "address"
        }
      ],
      "name": "PositionDisputeChallenged",
      "type": "event"
    },
    {
      "anonymous": false,
      "inputs": [
        {
          "indexed": true,
          "internalType": "address",
          "name": "token",
          "type": "address"
        }
      ],
      "name": "TokenAdded",
      "type": "event"
    },
    {
      "anonymous": false,
      "inputs": [
        {
          "indexed": true,
          "internalType": "address",
          "name": "token",
          "type": "address"
        }
      ],
      "name": "TokenRemoved",
      "type": "event"
    },
    {
      "anonymous": false,
      "inputs": [
        {
          "indexed": false,
          "internalType": "address",
          "name": "account",
          "type": "address"
        }
      ],
      "name": "Unpaused",
      "type": "event"
    },
    {
      "anonymous": false,
      "inputs": [
        {
          "indexed": true,
          "internalType": "address",
          "name": "user",
          "type": "address"
        },
        {
          "indexed": true,
          "internalType": "address",
          "name": "token",
          "type": "address"
        },
        {
          "indexed": false,
          "internalType": "uint256",
          "name": "amount",
          "type": "uint256"
        },
        {
          "indexed": false,
          "internalType": "uint32",
          "name": "requestId",
          "type": "uint32"
        }
      ],
      "name": "WithdrawalRequested",
      "type": "event"
    },
    {
      "anonymous": false,
      "inputs": [
        {
          "indexed": true,
          "internalType": "address",
          "name": "user",
          "type": "address"
        },
        {
          "indexed": true,
          "internalType": "address",
          "name": "token",
          "type": "address"
        },
        {
          "indexed": false,
          "internalType": "uint256",
          "name": "amount",
          "type": "uint256"
        }
      ],
      "name": "Withdrawn",
      "type": "event"
    },
    {
      "inputs": [
        {
          "internalType": "uint32",
          "name": "",
          "type": "uint32"
        }
      ],
      "name": "_disputes",
      "outputs": [
        {
          "internalType": "address",
          "name": "user",
          "type": "address"
        },
        {
          "internalType": "address",
          "name": "challenger",
          "type": "address"
        },
        {
          "internalType": "uint64",
          "name": "timestamp",
          "type": "uint64"
        },
        {
          "internalType": "uint8",
          "name": "status",
          "type": "uint8"
        },
        {
          "internalType": "uint32",
          "name": "sessionId",
          "type": "uint32"
        }
      ],
      "stateMutability": "view",
      "type": "function"
    },
    {
      "inputs": [
        {
          "internalType": "uint32",
          "name": "requestId",
          "type": "uint32"
        },
        {
          "components": [
            {
              "internalType": "bytes",
              "name": "data",
              "type": "bytes"
            },
            {
              "internalType": "bytes",
              "name": "signature",
              "type": "bytes"
            },
            {
              "internalType": "address",
              "name": "combinedPublicKey",
              "type": "address"
            }
          ],
          "internalType": "struct Crypto.SchnorrSignature",
          "name": "_schnorr",
          "type": "tuple"
        }
      ],
      "name": "challengeDispute",
      "outputs": [],
      "stateMutability": "nonpayable",
      "type": "function"
    },
    {
      "inputs": [
        {
          "internalType": "address",
          "name": "",
          "type": "address"
        }
      ],
      "name": "combinedPublicKey",
      "outputs": [
        {
          "internalType": "address",
          "name": "",
          "type": "address"
        }
      ],
      "stateMutability": "view",
      "type": "function"
    },
    {
      "inputs": [
        {
          "internalType": "address",
          "name": "token",
          "type": "address"
        },
        {
          "internalType": "uint256",
          "name": "amount",
          "type": "uint256"
        }
      ],
      "name": "deposit",
      "outputs": [],
      "stateMutability": "nonpayable",
      "type": "function"
    },
    {
      "inputs": [
        {
          "internalType": "address",
          "name": "",
          "type": "address"
        },
        {
          "internalType": "address",
          "name": "",
          "type": "address"
        }
      ],
      "name": "depositedAmount",
      "outputs": [
        {
          "internalType": "uint256",
          "name": "",
          "type": "uint256"
        }
      ],
      "stateMutability": "view",
      "type": "function"
    },
    {
      "inputs": [],
      "name": "dexSupporter",
      "outputs": [
        {
          "internalType": "address",
          "name": "",
          "type": "address"
        }
      ],
      "stateMutability": "view",
      "type": "function"
    },
    {
      "inputs": [
        {
          "internalType": "uint32",
          "name": "requestId",
          "type": "uint32"
        }
      ],
      "name": "getDisputeBalances",
      "outputs": [
        {
          "components": [
            {
              "internalType": "uint256",
              "name": "oracleId",
              "type": "uint256"
            },
            {
              "internalType": "address",
              "name": "addr",
              "type": "address"
            },
            {
              "internalType": "uint256",
              "name": "balance",
              "type": "uint256"
            }
          ],
          "internalType": "struct Crypto.Balance[]",
          "name": "",
          "type": "tuple[]"
        }
      ],
      "stateMutability": "view",
      "type": "function"
    },
    {
      "inputs": [
        {
          "internalType": "uint32",
          "name": "requestId",
          "type": "uint32"
        }
      ],
      "name": "getDisputePositions",
      "outputs": [
        {
          "components": [
            {
              "internalType": "string",
              "name": "positionId",
              "type": "string"
            },
            {
              "internalType": "uint256",
              "name": "oracleId",
              "type": "uint256"
            },
            {
              "internalType": "address",
              "name": "token",
              "type": "address"
            },
            {
              "internalType": "uint256",
              "name": "quantity",
              "type": "uint256"
            },
            {
              "internalType": "uint256",
              "name": "leverageFactor",
              "type": "uint256"
            },
            {
              "internalType": "string",
              "name": "leverageType",
              "type": "string"
            },
            {
              "internalType": "bool",
              "name": "isLong",
              "type": "bool"
            },
            {
              "components": [
                {
                  "internalType": "uint256",
                  "name": "oracleId",
                  "type": "uint256"
                },
                {
                  "internalType": "address",
                  "name": "token",
                  "type": "address"
                },
                {
                  "internalType": "uint256",
                  "name": "quantity",
                  "type": "uint256"
                },
                {
                  "internalType": "uint256",
                  "name": "entryPrice",
                  "type": "uint256"
                }
              ],
              "internalType": "struct Crypto.Collateral[]",
              "name": "collaterals",
              "type": "tuple[]"
            },
            {
              "internalType": "uint256",
              "name": "entryPrice",
              "type": "uint256"
            },
            {
              "internalType": "uint256",
              "name": "createdTimestamp",
              "type": "uint256"
            }
          ],
          "internalType": "struct Crypto.Position[]",
          "name": "",
          "type": "tuple[]"
        }
      ],
      "stateMutability": "view",
      "type": "function"
    },
    {
      "inputs": [
        {
          "internalType": "uint32",
          "name": "requestId",
          "type": "uint32"
        }
      ],
      "name": "getDisputeStatus",
      "outputs": [
        {
          "internalType": "bool",
          "name": "isOpenDispute",
          "type": "bool"
        },
        {
          "internalType": "uint64",
          "name": "timestamp",
          "type": "uint64"
        },
        {
          "internalType": "address",
          "name": "user",
          "type": "address"
        }
      ],
      "stateMutability": "view",
      "type": "function"
    },
    {
      "inputs": [
        {
          "internalType": "address",
          "name": "_owner",
          "type": "address"
        },
        {
          "internalType": "uint256",
          "name": "_signatureExpiryTime",
          "type": "uint256"
        },
        {
          "internalType": "address",
          "name": "_lpProvider",
          "type": "address"
        },
        {
          "internalType": "address",
          "name": "_dexSupporter",
          "type": "address"
        }
      ],
      "name": "initialize",
      "outputs": [],
      "stateMutability": "nonpayable",
      "type": "function"
    },
    {
      "inputs": [
        {
          "internalType": "bytes",
          "name": "signature",
          "type": "bytes"
        }
      ],
      "name": "isSchnorrSignatureUsed",
      "outputs": [
        {
          "internalType": "bool",
          "name": "",
          "type": "bool"
        }
      ],
      "stateMutability": "view",
      "type": "function"
    },
    {
      "inputs": [
        {
          "internalType": "address",
          "name": "",
          "type": "address"
        }
      ],
      "name": "isTokenSupported",
      "outputs": [
        {
          "internalType": "bool",
          "name": "",
          "type": "bool"
        }
      ],
      "stateMutability": "view",
      "type": "function"
    },
    {
      "inputs": [],
      "name": "lastPausedTime",
      "outputs": [
        {
          "internalType": "uint256",
          "name": "",
          "type": "uint256"
        }
      ],
      "stateMutability": "view",
      "type": "function"
    },
    {
      "inputs": [],
      "name": "lpProvider",
      "outputs": [
        {
          "internalType": "address",
          "name": "",
          "type": "address"
        }
      ],
      "stateMutability": "view",
      "type": "function"
    },
    {
      "inputs": [],
      "name": "owner",
      "outputs": [
        {
          "internalType": "address",
          "name": "",
          "type": "address"
        }
      ],
      "stateMutability": "view",
      "type": "function"
    },
    {
      "inputs": [],
      "name": "pause",
      "outputs": [],
      "stateMutability": "nonpayable",
      "type": "function"
    },
    {
      "inputs": [],
      "name": "paused",
      "outputs": [
        {
          "internalType": "bool",
          "name": "",
          "type": "bool"
        }
      ],
      "stateMutability": "view",
      "type": "function"
    },
    {
      "inputs": [],
      "name": "renounceOwnership",
      "outputs": [],
      "stateMutability": "nonpayable",
      "type": "function"
    },
    {
      "inputs": [
        {
          "internalType": "address",
          "name": "_user",
          "type": "address"
        },
        {
          "internalType": "address",
          "name": "_combinedPublicKey",
          "type": "address"
        }
      ],
      "name": "setCombinedPublicKey",
      "outputs": [],
      "stateMutability": "nonpayable",
      "type": "function"
    },
    {
      "inputs": [
        {
          "internalType": "address",
          "name": "_dexSupporter",
          "type": "address"
        }
      ],
      "name": "setDexSupporter",
      "outputs": [],
      "stateMutability": "nonpayable",
      "type": "function"
    },
    {
      "inputs": [
        {
          "internalType": "address",
          "name": "_lpProvider",
          "type": "address"
        }
      ],
      "name": "setLpProvider",
      "outputs": [],
      "stateMutability": "nonpayable",
      "type": "function"
    },
    {
      "inputs": [
        {
          "internalType": "bytes",
          "name": "signature",
          "type": "bytes"
        }
      ],
      "name": "setSchnorrSignatureUsed",
      "outputs": [],
      "stateMutability": "nonpayable",
      "type": "function"
    },
    {
      "inputs": [
        {
          "internalType": "uint256",
          "name": "_expiryTime",
          "type": "uint256"
        }
      ],
      "name": "setSignatureExpiryTime",
      "outputs": [],
      "stateMutability": "nonpayable",
      "type": "function"
    },
    {
      "inputs": [
        {
          "internalType": "address",
          "name": "token",
          "type": "address"
        },
        {
          "internalType": "bool",
          "name": "isSupported",
          "type": "bool"
        }
      ],
      "name": "setSupportedToken",
      "outputs": [],
      "stateMutability": "nonpayable",
      "type": "function"
    },
    {
      "inputs": [
        {
          "internalType": "uint32",
          "name": "requestId",
          "type": "uint32"
        },
        {
          "internalType": "uint256[]",
          "name": "updatedBalances",
          "type": "uint256[]"
        },
        {
          "internalType": "uint256[]",
          "name": "pnlValues",
          "type": "uint256[]"
        },
        {
          "internalType": "bool[]",
          "name": "isProfits",
          "type": "bool[]"
        }
      ],
      "name": "settleDisputeResult",
      "outputs": [],
      "stateMutability": "nonpayable",
      "type": "function"
    },
    {
      "inputs": [],
      "name": "signatureExpiryTime",
      "outputs": [
        {
          "internalType": "uint256",
          "name": "",
          "type": "uint256"
        }
      ],
      "stateMutability": "view",
      "type": "function"
    },
    {
      "inputs": [
        {
          "internalType": "address",
          "name": "newOwner",
          "type": "address"
        }
      ],
      "name": "transferOwnership",
      "outputs": [],
      "stateMutability": "nonpayable",
      "type": "function"
    },
    {
      "inputs": [],
      "name": "unpause",
      "outputs": [],
      "stateMutability": "nonpayable",
      "type": "function"
    },
    {
      "inputs": [
        {
          "internalType": "uint32",
          "name": "requestId",
          "type": "uint32"
        },
        {
          "internalType": "uint256[]",
          "name": "liquidatedIndexes",
          "type": "uint256[]"
        },
        {
          "internalType": "uint256",
          "name": "liquidatedCount",
          "type": "uint256"
        },
        {
          "internalType": "bool",
          "name": "isCrossLiquidated",
          "type": "bool"
        }
      ],
      "name": "updateLiquidatedPositions",
      "outputs": [],
      "stateMutability": "nonpayable",
      "type": "function"
    },
    {
      "inputs": [
        {
          "internalType": "address",
          "name": "user",
          "type": "address"
        },
        {
          "internalType": "address[]",
          "name": "tokens",
          "type": "address[]"
        },
        {
          "internalType": "uint256[]",
          "name": "losses",
          "type": "uint256[]"
        },
        {
          "internalType": "uint256",
          "name": "totalLossCount",
          "type": "uint256"
        }
      ],
      "name": "updatePartialLiquidation",
      "outputs": [],
      "stateMutability": "nonpayable",
      "type": "function"
    },
    {
      "inputs": [
        {
          "components": [
            {
              "internalType": "bytes",
              "name": "data",
              "type": "bytes"
            },
            {
              "internalType": "bytes",
              "name": "signature",
              "type": "bytes"
            },
            {
              "internalType": "address",
              "name": "combinedPublicKey",
              "type": "address"
            }
          ],
          "internalType": "struct Crypto.SchnorrSignature",
          "name": "_schnorr",
          "type": "tuple"
        }
      ],
      "name": "withdrawAndClosePositionTrustlessly",
      "outputs": [],
      "stateMutability": "nonpayable",
      "type": "function"
    },
    {
      "inputs": [
        {
          "internalType": "address",
          "name": "_combinedPublicKey",
          "type": "address"
        },
        {
          "components": [
            {
              "internalType": "bytes",
              "name": "data",
              "type": "bytes"
            },
            {
              "internalType": "bytes",
              "name": "signature",
              "type": "bytes"
            },
            {
              "internalType": "address",
              "name": "combinedPublicKey",
              "type": "address"
            }
          ],
          "internalType": "struct Crypto.SchnorrSignature",
          "name": "_schnorr",
          "type": "tuple"
        }
      ],
      "name": "withdrawSchnorr",
      "outputs": [],
      "stateMutability": "nonpayable",
      "type": "function"
    }
  ],
  "bytecode": "0x6080604052348015600f57600080fd5b50613f8d8061001f6000396000f3fe608060405234801561001057600080fd5b50600436106101805760003560e01c806303935b84146101855780630d235817146101ad578063358394d8146101cd5780633f4ba83a146101e257806347e7ef24146101ea578063570ddaa8146101fd5780635c975abb14610214578063715018a61461021c5780637482479f1461022457806375151b63146102375780638456cb591461025a57806386c93914146102625780638a7be80b146102755780638c920755146102885780638da5cb5b1461029b5780638e092bb5146102a35780638f2c081f146102b6578063923fec2a146102c957806397799e06146102dc578063a8207858146102ef578063ab3e857f14610302578063bf1e9ef5146103a8578063c2dd56bc146103bb578063c7a66c67146103db578063e0c32ec4146103e4578063e41cff641461040f578063e6d0efad14610438578063e79864661461044b578063e917bdcc1461045e578063ed9facad146104e2578063f2edcc9614610502578063f2fde38b14610515575b600080fd5b610198610193366004612d4b565b610528565b60405190151581526020015b60405180910390f35b6009546101c0906001600160a01b031681565b6040516101a49190612dbd565b6101e06101db366004612de6565b610558565b005b6101e0610699565b6101e06101f8366004612e39565b6106af565b61020660005481565b6040519081526020016101a4565b61019861085f565b6101e0610874565b6101e0610232366004612e65565b610888565b610198610245366004612e65565b60076020526000908152604090205460ff1681565b6101e06108b2565b6101e0610270366004612e89565b610916565b6101e0610283366004613007565b610923565b6101e0610296366004612d4b565b610c29565b6101c0610c8b565b6101e06102b1366004612e65565b610ca6565b6101e06102c4366004613114565b610cd0565b6101e06102d7366004613171565b611491565b600a546101c0906001600160a01b031681565b6101e06102fd3660046131d1565b6115ce565b61035f6103103660046131ef565b6002602052600090815260409020805460018201546004909201546001600160a01b039182169291821691600160a01b90046001600160401b03169060ff811690610100900463ffffffff1685565b604080516001600160a01b0396871681529590941660208601526001600160401b039092169284019290925260ff909116606083015263ffffffff16608082015260a0016101a4565b6101e06103b636600461320c565b611925565b6103ce6103c93660046131ef565b611d16565b6040516101a49190613312565b610206600b5481565b6102066103f2366004613377565b600860209081526000928352604080842090915290825290205481565b6101c061041d366004612e65565b6006602052600090815260409020546001600160a01b031681565b6101e06104463660046133b0565b611dad565b6101e06104593660046133ec565b6124c7565b6104b461046c3660046131ef565b63ffffffff1660009081526002602052604090206004810154600180830154925460ff9092161492600160a01b9092046001600160401b0316916001600160a01b0390911690565b6040805193151584526001600160401b0390921660208401526001600160a01b0316908201526060016101a4565b6104f56104f03660046131ef565b61256c565b6040516101a491906134d2565b6101e0610510366004613377565b6127db565b6101e0610523366004612e65565b612811565b60006004838360405161053c9291906135dd565b9081526040519081900360200190205460ff1690505b92915050565b600061056261284c565b805490915060ff600160401b82041615906001600160401b03166000811580156105895750825b90506000826001600160401b031660011480156105a55750303b155b9050811580156105b3575080155b156105d15760405163f92ee8a960e01b815260040160405180910390fd5b84546001600160401b031916600117855583156105fa57845460ff60401b1916600160401b1785555b61060389612870565b61060b612881565b610613612891565b6000889055600980546001600160a01b03808a166001600160a01b031992831617909255600a805492891692909116919091179055831561068e57845460ff60401b19168555604051600181527fc7f505b2f371ae2175ee4913f4499e1f2633a7b5936321eed1cdaeb6115181d29060200160405180910390a15b505050505050505050565b6106a16128a1565b6106a96128d3565b42600b55565b6106b761292a565b6106bf612960565b600081116107145760405162461bcd60e51b815260206004820181905260248201527f416d6f756e74206d7573742062652067726561746572207468616e207a65726f60448201526064015b60405180910390fd5b6001600160a01b03821660009081526007602052604090205460ff1661074c5760405162461bcd60e51b815260040161070b906135ed565b6040516323b872dd60e01b81526001600160a01b038316906323b872dd9061077c9033903090869060040161361a565b6020604051808303816000875af115801561079b573d6000803e3d6000fd5b505050506040513d601f19601f820116820180604052508101906107bf919061364e565b6107db5760405162461bcd60e51b815260040161070b9061366b565b3360009081526008602090815260408083206001600160a01b03861684529091528120805483929061080e9084906136aa565b90915550506040518181526001600160a01b0383169033907f8752a472e571a816aea92eec8dae9baf628e840f4929fbcc2d155e6233ff68a79060200160405180910390a361085b612986565b5050565b60008061086a612997565b5460ff1692915050565b61087c6128a1565b61088660006129bb565b565b6108906128a1565b600a80546001600160a01b0319166001600160a01b0392909216919091179055565b6108ba6128a1565b62015180600b54426108cc91906136bd565b1161090e5760405162461bcd60e51b815260206004820152601260248201527114185d5cd9481d1bdbc8199c995c5d595b9d60721b604482015260640161070b565b610886612a17565b61091e6128a1565b600055565b61092b61292a565b600a546001600160a01b031633146109555760405162461bcd60e51b815260040161070b906136d0565b815183511461099e5760405162461bcd60e51b8152602060048201526015602482015274082e4e4c2f240d8cadccee8d040dad2e6dac2e8c6d605b1b604482015260640161070b565b82518111156109ea5760405162461bcd60e51b8152602060048201526018602482015277125b9d985b1a59081d1bdd185b081b1bdcdcc818dbdd5b9d60421b604482015260640161070b565b60005b81811015610c1a576000848281518110610a0957610a096136f6565b602002602001015190506000848381518110610a2757610a276136f6565b6020908102919091018101516001600160a01b03808a16600090815260088452604080822092871682529190935290912054909150811115610aab5760405162461bcd60e51b815260206004820152601d60248201527f496e73756666696369656e74206465706f736974656420616d6f756e74000000604482015260640161070b565b6001600160a01b03808816600090815260086020908152604080832093861683529290529081208054839290610ae29084906136bd565b909155505060095460405163a9059cbb60e01b81526001600160a01b038481169263a9059cbb92610b1b9290911690859060040161370c565b6020604051808303816000875af1158015610b3a573d6000803e3d6000fd5b505050506040513d601f19601f82011682018060405250810190610b5e919061364e565b50600954604051630cadd63160e11b81526001600160a01b039091169063195bac6290610b91908590859060040161370c565b600060405180830381600087803b158015610bab57600080fd5b505af1158015610bbf573d6000803e3d6000fd5b50505050816001600160a01b0316876001600160a01b03167f3b7ebc7efc47fec3ee7bc30fe538bb5e5296e3cf7f70c0b34bc9f8de5cad986e83604051610c0891815260200190565b60405180910390a350506001016109ed565b50610c23612986565b50505050565b600a546001600160a01b03163314610c535760405162461bcd60e51b815260040161070b906136d0565b600160048383604051610c679291906135dd565b908152604051908190036020019020805491151560ff199092169190911790555050565b600080610c96612a5e565b546001600160a01b031692915050565b610cae6128a1565b600980546001600160a01b0319166001600160a01b0392909216919091179055565b610cd861292a565b610ce0612960565b6004610cef6020830183613725565b604051610cfd9291906135dd565b9081526040519081900360200190205460ff1615610d2d5760405162461bcd60e51b815260040161070b90613772565b63ffffffff8216600090815260026020526040808220905162da059160e31b815290919073__$50e9592bd68e5211c3a496048a4809ad3a$__906306d02c8890610d7b90869060040161387d565b600060405180830381865af4158015610d98573d6000803e3d6000fd5b505050506040513d6000823e601f3d908101601f19168201604052610dc09190810190613bbd565b600483015490915060ff16600114610dea5760405162461bcd60e51b815260040161070b90613cba565b6001820154610e0b90600160a01b90046001600160401b0316610708613cea565b6001600160401b03164210610e5a5760405162461bcd60e51b8152602060048201526015602482015274111a5cdc1d5d19481dda5b991bddc818db1bdcd959605a1b604482015260640161070b565b6020808201516001600160a01b03908116600090815260069092526040918290205491516302f0063160e61b815273__$50e9592bd68e5211c3a496048a4809ad3a$__9263bc018c4092610eb692889290911690600401613d09565b602060405180830381865af4158015610ed3573d6000803e3d6000fd5b505050506040513d601f19601f82011682018060405250810190610ef7919061364e565b610f1457604051631e11ef7b60e31b815260040160405180910390fd5b60016004610f256020860186613725565b604051610f339291906135dd565b9081526040805160209281900383019020805460ff191693151593909317909255825163ffffffff87811660009081526005909352929091205490918083169116101561146d5763ffffffff8086166000908152600560205260408120805492841663ffffffff19909316929092179091556001840180546001600160a01b03191633179055610fc7906002850190612bb8565b610fd5600384016000612bd9565b60408201515160608301515160005b82811015611063578560020185604001518281518110611006576110066136f6565b60209081029190910181015182546001808201855560009485529383902082516003909202019081559181015182840180546001600160a01b0319166001600160a01b039092169190911790556040015160029091015501610fe4565b5060005b818110156114205763ffffffff8816600090815260026020908152604082206003018054600181018255908352912060608701518051600a90930290910191839081106110b6576110b66136f6565b60209081029190910101515181906110ce9082613db3565b50856060015182815181106110e5576110e56136f6565b6020026020010151604001518160020160006101000a8154816001600160a01b0302191690836001600160a01b031602179055508560600151828151811061112f5761112f6136f6565b602002602001015160600151816003018190555085606001518281518110611159576111596136f6565b602002602001015160c001518160060160006101000a81548160ff02191690831515021790555085606001518281518110611196576111966136f6565b602002602001015161010001518160080181905550856060015182815181106111c1576111c16136f6565b602002602001015161012001518160090181905550856060015182815181106111ec576111ec6136f6565b602002602001015160200151816001018190555085606001518281518110611216576112166136f6565b602002602001015160800151816004018190555085606001518281518110611240576112406136f6565b602002602001015160a0015181600501908161125c9190613db3565b50600086606001518381518110611275576112756136f6565b602002602001015160e0015151905060005b81811015611415578260070160405180608001604052808a6060015187815181106112b4576112b46136f6565b602002602001015160e0015184815181106112d1576112d16136f6565b60200260200101516000015181526020018a6060015187815181106112f8576112f86136f6565b602002602001015160e001518481518110611315576113156136f6565b6020026020010151602001516001600160a01b031681526020018a606001518781518110611345576113456136f6565b602002602001015160e001518481518110611362576113626136f6565b60200260200101516040015181526020018a606001518781518110611389576113896136f6565b602002602001015160e0015184815181106113a6576113a66136f6565b60209081029190910181015160609081015190925283546001808201865560009586529482902084516004909202019081559083015181850180546001600160a01b0319166001600160a01b039092169190911790556040830151600282015591015160039091015501611287565b505050600101611067565b5083602001516001600160a01b03167f41333d535ecc89f2d33b1d5f30416f34ba3c7d0bbf7aaea28a3b7c330969379b8860405161145e9190613e71565b60405180910390a25050611486565b604051630f0ae6d960e31b815260040160405180910390fd5b50505061085b612986565b600a546001600160a01b031633146114e35760405162461bcd60e51b81526020600482015260156024820152742932b8bab4b932902232bc1029bab83837b93a32b960591b604482015260640161070b565b63ffffffff84166000908152600260205260409020600481015460ff1660011461151f5760405162461bcd60e51b815260040161070b90613cba565b60005b8381101561157c57600085828151811061153e5761153e6136f6565b60200260200101519050600083600301828154811061155f5761155f6136f6565b600091825260209091206003600a90920201015550600101611522565b5081156115c75760005b60028201548110156115c55760008260020182815481106115a9576115a96136f6565b6000918252602090912060026003909202010155600101611586565b505b5050505050565b6115d661292a565b6115de612960565b60046115ed6020830183613725565b6040516115fb9291906135dd565b9081526040519081900360200190205460ff161561162b5760405162461bcd60e51b815260040161070b90613772565b336000908152600660205260408082205490516376b90c5960e01b815273__$50e9592bd68e5211c3a496048a4809ad3a$__916376b90c599161167e9186916001600160a01b0390911690600401613d09565b60a060405180830381865af415801561169b573d6000803e3d6000fd5b505050506040513d601f19601f820116820180604052508101906116bf9190613e82565b905060008160400151116117215760405162461bcd60e51b815260206004820152602360248201527f416d6f756e74206d7573742062796573652067726561746572207468616e207a60448201526265726f60e81b606482015260840161070b565b6020808201516001600160a01b031660009081526007909152604090205460ff1661175e5760405162461bcd60e51b815260040161070b906135ed565b6000546060820151611779906001600160401b0316426136bd565b106117ba5760405162461bcd60e51b815260206004820152601160248201527014da59db985d1d5c9948115e1c1a5c9959607a1b604482015260640161070b565b80516001600160a01b031633146117e457604051631e11ef7b60e31b815260040160405180910390fd5b600160046117f56020850185613725565b6040516118039291906135dd565b9081526040805160209281900383018120805460ff1916941515949094179093553360008181526006845282902080546001600160a01b0319166001600160a01b0389811691909117909155928501519185015163a9059cbb60e01b8552919092169263a9059cbb9261187a92909160040161370c565b6020604051808303816000875af1158015611899573d6000803e3d6000fd5b505050506040513d601f19601f820116820180604052508101906118bd919061364e565b6118d95760405162461bcd60e51b815260040161070b9061366b565b80602001516001600160a01b0316336001600160a01b0316600080516020613f38833981519152836040015160405161191491815260200190565b60405180910390a35061085b612986565b61192d61292a565b600a546001600160a01b031633146119575760405162461bcd60e51b815260040161070b906136d0565b63ffffffff84166000908152600260205260409020600481015460ff166001146119935760405162461bcd60e51b815260040161070b90613cba565b60005b6002820154811015611cb75760008260020182815481106119b9576119b96136f6565b6000918252602082206001600390920201015487516001600160a01b0390911692508790849081106119ed576119ed6136f6565b60200260200101519050848381518110611a0957611a096136f6565b602002602001015115611aa257600954845487516001600160a01b0392831692639423b55e92169085908a9088908110611a4557611a456136f6565b60200260200101516040518463ffffffff1660e01b8152600401611a6b9392919061361a565b600060405180830381600087803b158015611a8557600080fd5b505af1158015611a99573d6000803e3d6000fd5b50505050611bba565b60095486516001600160a01b038085169263a9059cbb92911690899087908110611ace57611ace6136f6565b60200260200101516040518363ffffffff1660e01b8152600401611af392919061370c565b6020604051808303816000875af1158015611b12573d6000803e3d6000fd5b505050506040513d601f19601f82011682018060405250810190611b36919061364e565b5060095486516001600160a01b039091169063195bac62908490899087908110611b6257611b626136f6565b60200260200101516040518363ffffffff1660e01b8152600401611b8792919061370c565b600060405180830381600087803b158015611ba157600080fd5b505af1158015611bb5573d6000803e3d6000fd5b505050505b83546001600160a01b0390811660009081526008602090815260408083208685168085529252808320929092558654915163a9059cbb60e01b8152909263a9059cbb92611c0e92911690859060040161370c565b6020604051808303816000875af1158015611c2d573d6000803e3d6000fd5b505050506040513d601f19601f82011682018060405250810190611c51919061364e565b5083546040518281526001600160a01b03848116921690600080516020613f388339815191529060200160405180910390a380846002018481548110611c9957611c996136f6565b60009182526020909120600260039092020101555050600101611996565b5060048101805460ff1916600317905580546040516001600160a01b03909116907f8b703fbb69bafcfe17cc041cf70cf1f199e44c5e5f70dca4aa3d01ce927996cc90611d05908890613e71565b60405180910390a250610c23612986565b63ffffffff811660009081526002602081815260408084209092018054835181840281018401909452808452606094919290919084015b82821015611da25760008481526020908190206040805160608101825260038602909201805483526001808201546001600160a01b031684860152600290910154918301919091529083529092019101611d4d565b505050509050919050565b611db561292a565b611dbd612960565b60405162da059160e31b815260009073__$50e9592bd68e5211c3a496048a4809ad3a$__906306d02c8890611df690859060040161387d565b600060405180830381865af4158015611e13573d6000803e3d6000fd5b505050506040513d6000823e601f3d908101601f19168201604052611e3b9190810190613bbd565b60208101519091506001600160a01b03163314611e6b57604051631e11ef7b60e31b815260040160405180910390fd5b6020808201516001600160a01b03908116600090815260069092526040918290205491516302f0063160e61b815273__$50e9592bd68e5211c3a496048a4809ad3a$__9263bc018c4092611ec792879290911690600401613d09565b602060405180830381865af4158015611ee4573d6000803e3d6000fd5b505050506040513d601f19601f82011682018060405250810190611f08919061364e565b611f2557604051631e11ef7b60e31b815260040160405180910390fd5b6004611f346020840184613725565b604051611f429291906135dd565b9081526040519081900360200190205460ff1615611f7357604051631e11ef7b60e31b815260040160405180910390fd5b60018054611f899163ffffffff90911690613f1b565b6001805463ffffffff191663ffffffff9290921691821781556000828152600260205260408082209092018054600160a01b600160e01b031916600160a01b426001600160401b031602179055908301515160608401515190915b8181101561239d5763ffffffff8416600090815260026020908152604082206003018054600181018255908352912060608701518051600a9093029091019183908110612033576120336136f6565b602090810291909101015151819061204b9082613db3565b5085606001518281518110612062576120626136f6565b6020026020010151604001518160020160006101000a8154816001600160a01b0302191690836001600160a01b03160217905550856060015182815181106120ac576120ac6136f6565b6020026020010151606001518160030181905550856060015182815181106120d6576120d66136f6565b602002602001015160c001518160060160006101000a81548160ff02191690831515021790555085606001518281518110612113576121136136f6565b6020026020010151610100015181600801819055508560600151828151811061213e5761213e6136f6565b60200260200101516101200151816009018190555085606001518281518110612169576121696136f6565b602002602001015160200151816001018190555085606001518281518110612193576121936136f6565b6020026020010151608001518160040181905550856060015182815181106121bd576121bd6136f6565b602002602001015160a001518160050190816121d99190613db3565b506000866060015183815181106121f2576121f26136f6565b602002602001015160e0015151905060005b81811015612392578260070160405180608001604052808a606001518781518110612231576122316136f6565b602002602001015160e00151848151811061224e5761224e6136f6565b60200260200101516000015181526020018a606001518781518110612275576122756136f6565b602002602001015160e001518481518110612292576122926136f6565b6020026020010151602001516001600160a01b031681526020018a6060015187815181106122c2576122c26136f6565b602002602001015160e0015184815181106122df576122df6136f6565b60200260200101516040015181526020018a606001518781518110612306576123066136f6565b602002602001015160e001518481518110612323576123236136f6565b60209081029190910181015160609081015190925283546001808201865560009586529482902084516004909202019081559083015181850180546001600160a01b0319166001600160a01b039092169190911790556040830151600282015591015160039091015501612204565b505050600101611fe4565b5060005b8281101561243e57600260008563ffffffff1663ffffffff168152602001908152602001600020600201856040015182815181106123e1576123e16136f6565b60209081029190910181015182546001808201855560009485529383902082516003909202019081559181015182840180546001600160a01b0319166001600160a01b0390921691909117905560400151600290910155016123a1565b50835163ffffffff8481166000908152600560209081526040909120805463ffffffff19169284169290921790915560019060049061247f90890189613725565b60405161248d9291906135dd565b908152604051908190036020019020805491151560ff199092169190911790556124b78433612a82565b50505050506124c4612986565b50565b6124cf6128a1565b6001600160a01b0382166000908152600760205260409020805460ff19168215801591909117909155612534576040516001600160a01b038316907f784c8f4dbf0ffedd6e72c76501c545a70f8b203b30a26ce542bf92ba87c248a490600090a25050565b6040516001600160a01b038316907f4c910b69fe65a61f7531b9c5042b2329ca7179c77290aa7e2eb3afa3c8511fd390600090a25050565b63ffffffff81166000908152600260209081526040808320600301805482518185028101850190935280835260609492939192909184015b82821015611da257838290600052602060002090600a0201604051806101400160405290816000820180546125d890613d33565b80601f016020809104026020016040519081016040528092919081815260200182805461260490613d33565b80156126515780601f1061262657610100808354040283529160200191612651565b820191906000526020600020905b81548152906001019060200180831161263457829003601f168201915b50505091835250506001820154602082015260028201546001600160a01b03166040820152600382015460608201526004820154608082015260058201805460a09092019161269f90613d33565b80601f01602080910402602001604051908101604052809291908181526020018280546126cb90613d33565b80156127185780601f106126ed57610100808354040283529160200191612718565b820191906000526020600020905b8154815290600101906020018083116126fb57829003601f168201915b5050509183525050600682015460ff161515602080830191909152600783018054604080518285028101850182528281529401939260009084015b828210156127b05760008481526020908190206040805160808101825260048602909201805483526001808201546001600160a01b0316848601526002820154928401929092526003015460608301529083529092019101612753565b50505050815260200160088201548152602001600982015481525050815260200190600101906125a4565b6127e36128a1565b6001600160a01b03918216600090815260066020526040902080546001600160a01b03191691909216179055565b6128196128a1565b6001600160a01b038116612843576000604051631e4fbdf760e01b815260040161070b9190612dbd565b6124c4816129bb565b7ff0c57e16840df040f15088dc2f81fe391c3923bec73e23a9662efc9c229c6a0090565b612878612b03565b6124c481612b28565b612889612b03565b610886612b30565b612899612b03565b610886612b4d565b336128aa610c8b565b6001600160a01b031614610886573360405163118cdaa760e01b815260040161070b9190612dbd565b6128db612b55565b60006128e5612997565b805460ff1916815590507f5db9ee0a495bf2e6ff9c91a7834c1ba4fdd244a5e8aa4e537bd38aeae4b073aa335b60405161291f9190612dbd565b60405180910390a150565b6000612934612b7a565b80549091506001190161295a57604051633ee5aeb560e01b815260040160405180910390fd5b60029055565b61296861085f565b156108865760405163d93c066560e01b815260040160405180910390fd5b6000612990612b7a565b6001905550565b7fcd5ed15c6e187e77e9aee88184c21f4f2182ab5827cb3b7e07fbedcd63f0330090565b60006129c5612a5e565b80546001600160a01b038481166001600160a01b031983168117845560405193945091169182907f8be0079c531659141344cd1fd0a4f28419497f9722a3daafe3b4186f6b6457e090600090a3505050565b612a1f612960565b6000612a29612997565b805460ff1916600117815590507f62e78cea01bee320cd4e420270b5ea74000d11b0c9f74754ebdbfc544b05a2586129123390565b7f9016d09d72d40fdae2fd8ceac6b6234c7706214fd39c1cd1e609a0528c19930090565b63ffffffff82166000908152600260205260409081902060048101805460ff1916600117905580546001600160a01b0384166001600160a01b03199091168117825591519091907f2fdd05cb84b2efdbfb66efce92f66f26e7323b06b91ed693c764e01573436af990612af6908690613e71565b60405180910390a2505050565b612b0b612b9e565b61088657604051631afcd79f60e31b815260040160405180910390fd5b612819612b03565b612b38612b03565b6000612b42612997565b805460ff1916905550565b612986612b03565b612b5d61085f565b61088657604051638dfc202b60e01b815260040160405180910390fd5b7f9b779b17422d0df92223018b32b4d1fa46e071723d6817e2486d003becc55f0090565b6000612ba861284c565b54600160401b900460ff16919050565b50805460008255600302906000526020600020908101906124c49190612bfa565b50805460008255600a02906000526020600020908101906124c49190612c2b565b5b80821115612c275760008082556001820180546001600160a01b03191690556002820155600301612bfb565b5090565b80821115612c27576000612c3f8282612ca7565b6000600183018190556002830180546001600160a01b03191690556003830181905560048301819055612c76906005840190612ca7565b60068201805460ff19169055612c90600783016000612ce1565b506000600882018190556009820155600a01612c2b565b508054612cb390613d33565b6000825580601f10612cc3575050565b601f0160209004906000526020600020908101906124c49190612d02565b50805460008255600402906000526020600020908101906124c49190612d17565b5b80821115612c275760008155600101612d03565b5b80821115612c275760008082556001820180546001600160a01b0319169055600282018190556003820155600401612d18565b60008060208385031215612d5e57600080fd5b82356001600160401b03811115612d7457600080fd5b8301601f81018513612d8557600080fd5b80356001600160401b03811115612d9b57600080fd5b856020828401011115612dad57600080fd5b6020919091019590945092505050565b6001600160a01b0391909116815260200190565b6001600160a01b03811681146124c457600080fd5b60008060008060808587031215612dfc57600080fd5b8435612e0781612dd1565b9350602085013592506040850135612e1e81612dd1565b91506060850135612e2e81612dd1565b939692955090935050565b60008060408385031215612e4c57600080fd5b8235612e5781612dd1565b946020939093013593505050565b600060208284031215612e7757600080fd5b8135612e8281612dd1565b9392505050565b600060208284031215612e9b57600080fd5b5035919050565b634e487b7160e01b600052604160045260246000fd5b604051606081016001600160401b0381118282101715612eda57612eda612ea2565b60405290565b604051608081016001600160401b0381118282101715612eda57612eda612ea2565b60405161014081016001600160401b0381118282101715612eda57612eda612ea2565b60405160e081016001600160401b0381118282101715612eda57612eda612ea2565b604051601f8201601f191681016001600160401b0381118282101715612f6f57612f6f612ea2565b604052919050565b60006001600160401b03821115612f9057612f90612ea2565b5060051b60200190565b600082601f830112612fab57600080fd5b8135612fbe612fb982612f77565b612f47565b8082825260208201915060208360051b860101925085831115612fe057600080fd5b602085015b83811015612ffd578035835260209283019201612fe5565b5095945050505050565b6000806000806080858703121561301d57600080fd5b843561302881612dd1565b935060208501356001600160401b0381111561304357600080fd5b8501601f8101871361305457600080fd5b8035613062612fb982612f77565b8082825260208201915060208360051b85010192508983111561308457600080fd5b6020840193505b828410156130af57833561309e81612dd1565b82526020938401939091019061308b565b955050505060408501356001600160401b038111156130cd57600080fd5b6130d987828801612f9a565b949793965093946060013593505050565b63ffffffff811681146124c457600080fd5b60006060828403121561310e57600080fd5b50919050565b6000806040838503121561312757600080fd5b8235613132816130ea565b915060208301356001600160401b0381111561314d57600080fd5b613159858286016130fc565b9150509250929050565b80151581146124c457600080fd5b6000806000806080858703121561318757600080fd5b8435613192816130ea565b935060208501356001600160401b038111156131ad57600080fd5b6131b987828801612f9a565b935050604085013591506060850135612e2e81613163565b600080604083850312156131e457600080fd5b823561313281612dd1565b60006020828403121561320157600080fd5b8135612e82816130ea565b6000806000806080858703121561322257600080fd5b843561322d816130ea565b935060208501356001600160401b0381111561324857600080fd5b61325487828801612f9a565b93505060408501356001600160401b0381111561327057600080fd5b61327c87828801612f9a565b92505060608501356001600160401b0381111561329857600080fd5b8501601f810187136132a957600080fd5b80356132b7612fb982612f77565b8082825260208201915060208360051b8501019250898311156132d957600080fd5b6020840193505b828410156133045783356132f381613163565b8252602093840193909101906132e0565b969995985093965050505050565b602080825282518282018190526000918401906040840190835b8181101561336c578351805184526020808201516001600160a01b031681860152604091820151918501919091529093019260609092019160010161332c565b509095945050505050565b6000806040838503121561338a57600080fd5b823561339581612dd1565b915060208301356133a581612dd1565b809150509250929050565b6000602082840312156133c257600080fd5b81356001600160401b038111156133d857600080fd5b6133e4848285016130fc565b949350505050565b600080604083850312156133ff57600080fd5b823561340a81612dd1565b915060208301356133a581613163565b60005b8381101561343557818101518382015260200161341d565b50506000910152565b6000815180845261345681602086016020860161341a565b601f01601f19169290920160200192915050565b600081518084526020840193506020830160005b828110156134c8578151805187526020808201516001600160a01b03168189015260408083015190890152606091820151918801919091526080909601959091019060010161347e565b5093949350505050565b6000602082016020835280845180835260408501915060408160051b86010192506020860160005b828110156135d157603f1987860301845281518051610140875261352261014088018261343e565b905060208201516020880152604082015161354860408901826001600160a01b03169052565b50606082015160608801526080820151608088015260a082015187820360a0890152613574828261343e565b91505060c082015161358a60c089018215159052565b5060e082015187820360e08901526135a2828261346a565b61010084810151908a0152610120938401519390980192909252505060209384019391909101906001016134fa565b50929695505050505050565b8183823760009101908152919050565b602080825260139082015272151bdad95b881b9bdd081cdd5c1c1bdc9d1959606a1b604082015260600190565b6001600160a01b039384168152919092166020820152604081019190915260600190565b805161364981613163565b919050565b60006020828403121561366057600080fd5b8151612e8281613163565b6020808252600f908201526e151c985b9cd9995c8819985a5b1959608a1b604082015260600190565b634e487b7160e01b600052601160045260246000fd5b8082018082111561055257610552613694565b8181038181111561055257610552613694565b6020808252600c908201526b155b985d5d1a1bdc9a5e995960a21b604082015260600190565b634e487b7160e01b600052603260045260246000fd5b6001600160a01b03929092168252602082015260400190565b6000808335601e1984360301811261373c57600080fd5b8301803591506001600160401b0382111561375657600080fd5b60200191503681900382131561376b57600080fd5b9250929050565b60208082526016908201527514da59db985d1d5c9948185b1c9958591e481d5cd95960521b604082015260600190565b6000808335601e198436030181126137b957600080fd5b83016020810192503590506001600160401b038111156137d857600080fd5b80360382131561376b57600080fd5b81835281816020850137506000828201602090810191909152601f909101601f19169091010190565b600061381c82836137a2565b6060855261382e6060860182846137e7565b91505061383e60208401846137a2565b85830360208701526138518382846137e7565b92505050604083013561386381612dd1565b6001600160a01b0316604094909401939093525090919050565b602081526000612e826020830184613810565b8051613649816130ea565b805161364981612dd1565b600082601f8301126138b757600080fd5b81516138c5612fb982612f77565b808282526020820191506020606084028601019250858311156138e757600080fd5b602085015b83811015612ffd576060818803121561390457600080fd5b61390c612eb8565b81518152602082015161391e81612dd1565b6020828101919091526040838101519083015290845292909201916060016138ec565b600082601f83011261395257600080fd5b81516001600160401b0381111561396b5761396b612ea2565b61397e601f8201601f1916602001612f47565b81815284602083860101111561399357600080fd5b6133e482602083016020870161341a565b600082601f8301126139b557600080fd5b81516139c3612fb982612f77565b8082825260208201915060208360071b8601019250858311156139e557600080fd5b602085015b83811015612ffd5760808188031215613a0257600080fd5b613a0a612ee0565b815181526020820151613a1c81612dd1565b602082810191909152604083810151908301526060808401519083015290845292909201916080016139ea565b600082601f830112613a5a57600080fd5b8151613a68612fb982612f77565b8082825260208201915060208360051b860101925085831115613a8a57600080fd5b602085015b83811015612ffd5780516001600160401b03811115613aad57600080fd5b8601610140818903601f19011215613ac457600080fd5b613acc612f02565b60208201516001600160401b03811115613ae557600080fd5b613af48a602083860101613941565b82525060408201516020820152613b0d6060830161389b565b6040820152608082810151606083015260a08301519082015260c08201516001600160401b03811115613b3f57600080fd5b613b4e8a602083860101613941565b60a083015250613b6060e0830161363e565b60c08201526101008201516001600160401b03811115613b7f57600080fd5b613b8e8a6020838601016139a4565b60e083015250610120828101516101008301526101409092015191810191909152835260209283019201613a8f565b600060208284031215613bcf57600080fd5b81516001600160401b03811115613be557600080fd5b820160e08185031215613bf757600080fd5b613bff612f25565b613c0882613890565b8152613c166020830161389b565b602082015260408201516001600160401b03811115613c3457600080fd5b613c40868285016138a6565b60408301525060608201516001600160401b03811115613c5f57600080fd5b613c6b86828501613a49565b60608301525060808201516001600160401b03811115613c8a57600080fd5b613c9686828501613941565b60808301525060a0828101519082015260c091820151918101919091529392505050565b602080825260169082015275496e76616c696420646973707574652073746174757360501b604082015260600190565b6001600160401b03818116838216019081111561055257610552613694565b604081526000613d1c6040830185613810565b905060018060a01b03831660208301529392505050565b600181811c90821680613d4757607f821691505b60208210810361310e57634e487b7160e01b600052602260045260246000fd5b601f821115613dae57806000526020600020601f840160051c81016020851015613d8e5750805b601f840160051c820191505b818110156115c75760008155600101613d9a565b505050565b81516001600160401b03811115613dcc57613dcc612ea2565b613de081613dda8454613d33565b84613d67565b6020601f821160018114613e145760008315613dfc5750848201515b600019600385901b1c1916600184901b1784556115c7565b600084815260208120601f198516915b82811015613e445787850151825560209485019460019092019101613e24565b5084821015613e625786840151600019600387901b60f8161c191681555b50505050600190811b01905550565b63ffffffff91909116815260200190565b600060a0828403128015613e9557600080fd5b5060405160009060a081016001600160401b0381118282101715613ebb57613ebb612ea2565b6040528351613ec981612dd1565b81526020840151613ed981612dd1565b60208201526040848101519082015260608401516001600160401b0381168114613f01578283fd5b606082015260809384015193810193909352509092915050565b63ffffffff81811683821601908111156105525761055261369456fed1c19fbcd4551a5edfb66d43d2e337c04837afda3482b42bdf569a8fccdae5fba2646970667358221220dfb399b55ec4084dc391ebf3ddd9634064216d53a9caaa4d5336d13eaf4824ca64736f6c634300081b0033",
  "linkReferences": {
    "contracts/0xVault/libs/Crypto.sol": {
      "Crypto": [
        {
          "length": 20,
          "start": 3442
        },
        {
          "length": 20,
          "start": 3753
        },
        {
          "length": 20,
          "start": 5737
        },
        {
          "length": 20,
          "start": 7661
        },
        {
          "length": 20,
          "start": 7866
        }
      ]
    }
  },
  "deployedLinkReferences": {
    "contracts/0xVault/libs/Crypto.sol": {
      "Crypto": [
        {
          "length": 20,
          "start": 3411
        },
        {
          "length": 20,
          "start": 3722
        },
        {
          "length": 20,
          "start": 5706
        },
        {
          "length": 20,
          "start": 7630
        },
        {
          "length": 20,
          "start": 7835
        }
      ]
    }
  }
}